{
	"data": {
		"bytecode": {
			"linkReferences": {},
			"object": "6080604052600060045566038d7ea4c680006005553480156200002157600080fd5b506040518060600160405280602d815260200162005cbe602d91396200004d81620000c960201b60201c565b506200006e62000062620000e560201b60201c565b620000ed60201b60201c565b73102738f14a5981c5af0113fc32c119f51e55106b600860006101000a81548173ffffffffffffffffffffffffffffffffffffffff021916908373ffffffffffffffffffffffffffffffffffffffff160217905550620002c8565b8060029080519060200190620000e1929190620001b3565b5050565b600033905090565b6000600360009054906101000a900473ffffffffffffffffffffffffffffffffffffffff16905081600360006101000a81548173ffffffffffffffffffffffffffffffffffffffff021916908373ffffffffffffffffffffffffffffffffffffffff1602179055508173ffffffffffffffffffffffffffffffffffffffff168173ffffffffffffffffffffffffffffffffffffffff167f8be0079c531659141344cd1fd0a4f28419497f9722a3daafe3b4186f6b6457e060405160405180910390a35050565b828054620001c19062000292565b90600052602060002090601f016020900481019282620001e5576000855562000231565b82601f106200020057805160ff191683800117855562000231565b8280016001018555821562000231579182015b828111156200023057825182559160200191906001019062000213565b5b50905062000240919062000244565b5090565b5b808211156200025f57600081600090555060010162000245565b5090565b7f4e487b7100000000000000000000000000000000000000000000000000000000600052602260045260246000fd5b60006002820490506001821680620002ab57607f821691505b60208210811415620002c257620002c162000263565b5b50919050565b6159e680620002d86000396000f3fe6080604052600436106101e25760003560e01c80636a627842116101025780639e921dd111610095578063f242432a11610064578063f242432a14610760578063f2fde38b14610789578063f5298aca146107b2578063fe283f16146107db576101e2565b80639e921dd1146106a8578063a019f571146106d1578063a22cb465146106fa578063e985e9c514610723576101e2565b806374d9f5f9116100d157806374d9f5f9146105da57806384b147cb1461061757806387199cbc146106405780638da5cb5b1461067d576101e2565b80636a627842146105345780636a781b0a1461055d5780636b20c4541461059a578063715018a6146105c3576101e2565b80632c01bfe41161017a5780634e1273f4116101495780634e1273f414610461578063639031b11461049e57806368d1102b146104db578063699d3127146104f7576101e2565b80632c01bfe4146103a75780632eb2c2d6146103be5780633495f0fa146103e75780633920030014610424576101e2565b80630e89341c116101b65780630e89341c146102c75780631f7fdffa1461030457806329aa8e9b1461032d5780632b71f94b1461036a576101e2565b8062fdd58e146101e757806301ffc9a71461022457806302fe5305146102615780630b291dd91461028a575b600080fd5b3480156101f357600080fd5b5061020e60048036038101906102099190613903565b610806565b60405161021b9190613952565b60405180910390f35b34801561023057600080fd5b5061024b600480360381019061024691906139c5565b6108cf565b6040516102589190613a0d565b60405180910390f35b34801561026d57600080fd5b5061028860048036038101906102839190613b6e565b6109b1565b005b34801561029657600080fd5b506102b160048036038101906102ac9190613cab565b6109c5565b6040516102be9190613a0d565b60405180910390f35b3480156102d357600080fd5b506102ee60048036038101906102e99190613d07565b610a77565b6040516102fb9190613dbc565b60405180910390f35b34801561031057600080fd5b5061032b60048036038101906103269190613e7f565b610b4e565b005b34801561033957600080fd5b50610354600480360381019061034f9190613d07565b610c4b565b6040516103619190613a0d565b60405180910390f35b34801561037657600080fd5b50610391600480360381019061038c9190613d07565b610ca6565b60405161039e9190613952565b60405180910390f35b3480156103b357600080fd5b506103bc610d3b565b005b3480156103ca57600080fd5b506103e560048036038101906103e09190613f3a565b610e36565b005b3480156103f357600080fd5b5061040e60048036038101906104099190613d07565b610ed7565b60405161041b9190613a0d565b60405180910390f35b34801561043057600080fd5b5061044b60048036038101906104469190614009565b610f1c565b60405161045891906140f4565b60405180910390f35b34801561046d57600080fd5b50610488600480360381019061048391906141d9565b610fb3565b60405161049591906140f4565b60405180910390f35b3480156104aa57600080fd5b506104c560048036038101906104c09190613d07565b6110cc565b6040516104d29190613952565b60405180910390f35b6104f560048036038101906104f09190613d07565b6110ec565b005b34801561050357600080fd5b5061051e60048036038101906105199190613d07565b611206565b60405161052b91906142fd565b60405180910390f35b34801561054057600080fd5b5061055b60048036038101906105569190614009565b6112e7565b005b34801561056957600080fd5b50610584600480360381019061057f9190613d07565b611529565b6040516105919190613952565b60405180910390f35b3480156105a657600080fd5b506105c160048036038101906105bc9190614318565b611549565b005b3480156105cf57600080fd5b506105d86115e6565b005b3480156105e657600080fd5b5061060160048036038101906105fc9190613d07565b6115fa565b60405161060e91906143b2565b60405180910390f35b34801561062357600080fd5b5061063e600480360381019061063991906143cd565b61163a565b005b34801561064c57600080fd5b5061066760048036038101906106629190613d07565b6117c2565b6040516106749190613a0d565b60405180910390f35b34801561068957600080fd5b50610692611837565b60405161069f91906143b2565b60405180910390f35b3480156106b457600080fd5b506106cf60048036038101906106ca9190613cab565b611861565b005b3480156106dd57600080fd5b506106f860048036038101906106f39190614009565b6118cd565b005b34801561070657600080fd5b50610721600480360381019061071c9190614420565b6119a1565b005b34801561072f57600080fd5b5061074a60048036038101906107459190614460565b6119b7565b6040516107579190613a0d565b60405180910390f35b34801561076c57600080fd5b50610787600480360381019061078291906144a0565b611a4b565b005b34801561079557600080fd5b506107b060048036038101906107ab9190614009565b611c12565b005b3480156107be57600080fd5b506107d960048036038101906107d49190614537565b611c96565b005b3480156107e757600080fd5b506107f0611d33565b6040516107fd9190613952565b60405180910390f35b60008073ffffffffffffffffffffffffffffffffffffffff168373ffffffffffffffffffffffffffffffffffffffff161415610877576040517f08c379a000000000000000000000000000000000000000000000000000000000815260040161086e906145fc565b60405180910390fd5b60008083815260200190815260200160002060008473ffffffffffffffffffffffffffffffffffffffff1673ffffffffffffffffffffffffffffffffffffffff16815260200190815260200160002054905092915050565b60007fd9b67a26000000000000000000000000000000000000000000000000000000007bffffffffffffffffffffffffffffffffffffffffffffffffffffffff1916827bffffffffffffffffffffffffffffffffffffffffffffffffffffffff1916148061099a57507f0e89341c000000000000000000000000000000000000000000000000000000007bffffffffffffffffffffffffffffffffffffffffffffffffffffffff1916827bffffffffffffffffffffffffffffffffffffffffffffffffffffffff1916145b806109aa57506109a982611d51565b5b9050919050565b6109b9611dbb565b6109c281611e39565b50565b600080600090505b8351811015610a6c57821515600760008684815181106109f0576109ef61461c565b5b6020026020010151815260200190815260200160002060050160009054906101000a900460ff16151514610a59576040517f08c379a0000000000000000000000000000000000000000000000000000000008152600401610a5090614697565b60405180910390fd5b8080610a64906146e6565b9150506109cd565b506001905092915050565b6060600073ffffffffffffffffffffffffffffffffffffffff166007600084815260200190815260200160002060010160009054906101000a900473ffffffffffffffffffffffffffffffffffffffff1673ffffffffffffffffffffffffffffffffffffffff161415610b1f576040517f08c379a0000000000000000000000000000000000000000000000000000000008152600401610b16906147a1565b60405180910390fd5b610b2882611e53565b604051602001610b3891906148bb565b6040516020818303038152906040529050919050565b610b56611dbb565b60005b8351811015610c38576000610b87858381518110610b7a57610b7961461c565b5b60200260200101516110cc565b14610bc7576040517f08c379a0000000000000000000000000000000000000000000000000000000008152600401610bbe90614934565b60405180910390fd5b6064848281518110610bdc57610bdb61461c565b5b60200260200101511115610c25576040517f08c379a0000000000000000000000000000000000000000000000000000000008152600401610c1c906149a0565b60405180910390fd5b8080610c30906146e6565b915050610b59565b50610c4584848484611f2b565b50505050565b6000806007600084815260200190815260200160002060050160016101000a81548160ff0219169083151502179055506007600083815260200190815260200160002060050160019054906101000a900460ff169050919050565b6000806007600084815260200190815260200160002060030154610cee610ccc856110cc565b42610cd791906149c0565b624f1a00610ce591906149c0565b624f1a00612158565b610cf891906149f4565b905060008111610d325760006007600085815260200190815260200160002060050160016101000a81548160ff0219169083151502179055505b80915050919050565b600860009054906101000a900473ffffffffffffffffffffffffffffffffffffffff1673ffffffffffffffffffffffffffffffffffffffff163373ffffffffffffffffffffffffffffffffffffffff1614610dcb576040517f08c379a0000000000000000000000000000000000000000000000000000000008152600401610dc290614abc565b60405180910390fd5b600860009054906101000a900473ffffffffffffffffffffffffffffffffffffffff1673ffffffffffffffffffffffffffffffffffffffff166108fc479081150290604051600060405180830381858888f19350505050158015610e33573d6000803e3d6000fd5b50565b610e3e612192565b73ffffffffffffffffffffffffffffffffffffffff168573ffffffffffffffffffffffffffffffffffffffff161480610e845750610e8385610e7e612192565b6119b7565b5b610ec3576040517f08c379a0000000000000000000000000000000000000000000000000000000008152600401610eba90614b4e565b60405180910390fd5b610ed0858585858561219a565b5050505050565b6000600115156007600084815260200190815260200160002060050160009054906101000a900460ff1615151415610f125760019050610f17565b600090505b919050565b6060600660008373ffffffffffffffffffffffffffffffffffffffff1673ffffffffffffffffffffffffffffffffffffffff168152602001908152602001600020805480602002602001604051908101604052809291908181526020018280548015610fa757602002820191906000526020600020905b815481526020019060010190808311610f93575b50505050509050919050565b60608151835114610ff9576040517f08c379a0000000000000000000000000000000000000000000000000000000008152600401610ff090614be0565b60405180910390fd5b6000835167ffffffffffffffff81111561101657611015613a43565b5b6040519080825280602002602001820160405280156110445781602001602082028036833780820191505090505b50905060005b84518110156110c1576110918582815181106110695761106861461c565b5b60200260200101518583815181106110845761108361461c565b5b6020026020010151610806565b8282815181106110a4576110a361461c565b5b602002602001018181525050806110ba906146e6565b905061104a565b508091505092915050565b600060076000838152602001908152602001600020600201549050919050565b600554341015611131576040517f08c379a000000000000000000000000000000000000000000000000000000000815260040161112890614c4c565b60405180910390fd5b600115156007600083815260200190815260200160002060050160009054906101000a900460ff1615151461119b576040517f08c379a000000000000000000000000000000000000000000000000000000000815260040161119290614cb8565b60405180910390fd5b7f59e04c3f0d44b7caf6e8ef854b61d9a51cf1960d7a88ff6356cc5e946b4b583233346040516111cc929190614d24565b60405180910390a160006007600083815260200190815260200160002060050160006101000a81548160ff02191690831515021790555050565b61120e613761565b600760008381526020019081526020016000206040518060e0016040529081600082015481526020016001820160009054906101000a900473ffffffffffffffffffffffffffffffffffffffff1673ffffffffffffffffffffffffffffffffffffffff1673ffffffffffffffffffffffffffffffffffffffff1681526020016002820154815260200160038201548152602001600482015481526020016005820160009054906101000a900460ff161515151581526020016005820160019054906101000a900460ff1615151515815250509050919050565b60646004541061132c576040517f08c379a000000000000000000000000000000000000000000000000000000000815260040161132390614dac565b60405180910390fd5b60016004600082825461133f91906149f4565b9250508190555060006040518060e0016040528060045481526020018373ffffffffffffffffffffffffffffffffffffffff16815260200142815260200160008152602001600081526020016001151581526020016001151581525090506113e13360045460016040518060400160405280600581526020017f73746f6e650000000000000000000000000000000000000000000000000000008152506124bc565b806007600060045481526020019081526020016000206000820151816000015560208201518160010160006101000a81548173ffffffffffffffffffffffffffffffffffffffff021916908373ffffffffffffffffffffffffffffffffffffffff16021790555060408201518160020155606082015181600301556080820151816004015560a08201518160050160006101000a81548160ff02191690831515021790555060c08201518160050160016101000a81548160ff0219169083151502179055509050506114b4600454610ca6565b816080018181525050600660008373ffffffffffffffffffffffffffffffffffffffff1673ffffffffffffffffffffffffffffffffffffffff16815260200190815260200160002060045490806001815401808255809150506001900390600052602060002001600090919091909150555050565b600060076000838152602001908152602001600020600301549050919050565b611551612192565b73ffffffffffffffffffffffffffffffffffffffff168373ffffffffffffffffffffffffffffffffffffffff161480611597575061159683611591612192565b6119b7565b5b6115d6576040517f08c379a00000000000000000000000000000000000000000000000000000000081526004016115cd90614b4e565b60405180910390fd5b6115e183838361266d565b505050565b6115ee611dbb565b6115f8600061293c565b565b60006007600083815260200190815260200160002060010160009054906101000a900473ffffffffffffffffffffffffffffffffffffffff169050919050565b6000600760008581526020019081526020016000206003015461168161165f866110cc565b4261166a91906149c0565b624f1a0061167891906149c0565b624f1a00612158565b61168b91906149f4565b116116cb576040517f08c379a00000000000000000000000000000000000000000000000000000000081526004016116c290614e18565b60405180910390fd5b6007600084815260200190815260200160002060010160009054906101000a900473ffffffffffffffffffffffffffffffffffffffff1673ffffffffffffffffffffffffffffffffffffffff168173ffffffffffffffffffffffffffffffffffffffff161461176f576040517f08c379a000000000000000000000000000000000000000000000000000000000815260040161176690614eaa565b60405180910390fd5b670de0b6b3a764000062015180836117879190614eca565b6117919190614eca565b6007600085815260200190815260200160002060030160008282546117b691906149f4565b92505081905550505050565b6000600115156007600084815260200190815260200160002060050160009054906101000a900460ff1615151461182e576040517f08c379a000000000000000000000000000000000000000000000000000000000815260040161182590614697565b60405180910390fd5b60019050919050565b6000600360009054906101000a900473ffffffffffffffffffffffffffffffffffffffff16905090565b60005b82518110156118c85781600760008584815181106118855761188461461c565b5b6020026020010151815260200190815260200160002060050160006101000a81548160ff02191690831515021790555080806118c0906146e6565b915050611864565b505050565b600860009054906101000a900473ffffffffffffffffffffffffffffffffffffffff1673ffffffffffffffffffffffffffffffffffffffff163373ffffffffffffffffffffffffffffffffffffffff161461195d576040517f08c379a000000000000000000000000000000000000000000000000000000000815260040161195490614abc565b60405180910390fd5b80600860006101000a81548173ffffffffffffffffffffffffffffffffffffffff021916908373ffffffffffffffffffffffffffffffffffffffff16021790555050565b6119b36119ac612192565b8383612a02565b5050565b6000600160008473ffffffffffffffffffffffffffffffffffffffff1673ffffffffffffffffffffffffffffffffffffffff16815260200190815260200160002060008373ffffffffffffffffffffffffffffffffffffffff1673ffffffffffffffffffffffffffffffffffffffff16815260200190815260200160002060009054906101000a900460ff16905092915050565b6001611a578685610806565b14611a97576040517f08c379a0000000000000000000000000000000000000000000000000000000008152600401611a8e90614f70565b60405180910390fd5b600015156007600085815260200190815260200160002060050160009054906101000a900460ff16151514611b01576040517f08c379a0000000000000000000000000000000000000000000000000000000008152600401611af890615002565b60405180910390fd5b611b0e8585858585612b6f565b600660008573ffffffffffffffffffffffffffffffffffffffff1673ffffffffffffffffffffffffffffffffffffffff168152602001908152602001600020839080600181540180825580915050600190039060005260206000200160009091909190915055600660008673ffffffffffffffffffffffffffffffffffffffff1673ffffffffffffffffffffffffffffffffffffffff168152602001908152602001600020611bbd8685612c10565b81548110611bce57611bcd61461c565b5b906000526020600020016000905560016007600085815260200190815260200160002060050160006101000a81548160ff0219169083151502179055505050505050565b611c1a611dbb565b600073ffffffffffffffffffffffffffffffffffffffff168173ffffffffffffffffffffffffffffffffffffffff161415611c8a576040517f08c379a0000000000000000000000000000000000000000000000000000000008152600401611c8190615094565b60405180910390fd5b611c938161293c565b50565b611c9e612192565b73ffffffffffffffffffffffffffffffffffffffff168373ffffffffffffffffffffffffffffffffffffffff161480611ce45750611ce383611cde612192565b6119b7565b5b611d23576040517f08c379a0000000000000000000000000000000000000000000000000000000008152600401611d1a90614b4e565b60405180910390fd5b611d2e838383612cb0565b505050565b6000806064905060045481611d4891906149c0565b90508091505090565b60007f01ffc9a7000000000000000000000000000000000000000000000000000000007bffffffffffffffffffffffffffffffffffffffffffffffffffffffff1916827bffffffffffffffffffffffffffffffffffffffffffffffffffffffff1916149050919050565b611dc3612192565b73ffffffffffffffffffffffffffffffffffffffff16611de1611837565b73ffffffffffffffffffffffffffffffffffffffff1614611e37576040517f08c379a0000000000000000000000000000000000000000000000000000000008152600401611e2e90615100565b60405180910390fd5b565b8060029080519060200190611e4f9291906137b8565b5050565b606060006001611e6284612ef7565b01905060008167ffffffffffffffff811115611e8157611e80613a43565b5b6040519080825280601f01601f191660200182016040528015611eb35781602001600182028036833780820191505090505b509050600082602001820190505b600115611f20578080600190039150507f3031323334353637383961626364656600000000000000000000000000000000600a86061a8153600a8581611f0a57611f09615120565b5b0494506000851415611f1b57611f20565b611ec1565b819350505050919050565b600073ffffffffffffffffffffffffffffffffffffffff168473ffffffffffffffffffffffffffffffffffffffff161415611f9b576040517f08c379a0000000000000000000000000000000000000000000000000000000008152600401611f92906151c1565b60405180910390fd5b8151835114611fdf576040517f08c379a0000000000000000000000000000000000000000000000000000000008152600401611fd690615253565b60405180910390fd5b6000611fe9612192565b9050611ffa8160008787878761304a565b60005b84518110156120b3578381815181106120195761201861461c565b5b60200260200101516000808784815181106120375761203661461c565b5b6020026020010151815260200190815260200160002060008873ffffffffffffffffffffffffffffffffffffffff1673ffffffffffffffffffffffffffffffffffffffff168152602001908152602001600020600082825461209991906149f4565b9250508190555080806120ab906146e6565b915050611ffd565b508473ffffffffffffffffffffffffffffffffffffffff16600073ffffffffffffffffffffffffffffffffffffffff168273ffffffffffffffffffffffffffffffffffffffff167f4a39dc06d4c0dbc64b70af90fd698a233a518aa5d07e595d983b8c0526c8f7fb878760405161212b929190615273565b60405180910390a461214281600087878787613052565b6121518160008787878761305a565b5050505050565b60008082141561216b5761216a6152aa565b5b81670de0b6b3a7640000846121809190614eca565b61218a91906152d9565b905092915050565b600033905090565b81518351146121de576040517f08c379a00000000000000000000000000000000000000000000000000000000081526004016121d590615253565b60405180910390fd5b600073ffffffffffffffffffffffffffffffffffffffff168473ffffffffffffffffffffffffffffffffffffffff16141561224e576040517f08c379a00000000000000000000000000000000000000000000000000000000081526004016122459061537c565b60405180910390fd5b6000612258612192565b905061226881878787878761304a565b60005b84518110156124195760008582815181106122895761228861461c565b5b6020026020010151905060008583815181106122a8576122a761461c565b5b60200260200101519050600080600084815260200190815260200160002060008b73ffffffffffffffffffffffffffffffffffffffff1673ffffffffffffffffffffffffffffffffffffffff16815260200190815260200160002054905081811015612349576040517f08c379a00000000000000000000000000000000000000000000000000000000081526004016123409061540e565b60405180910390fd5b81810360008085815260200190815260200160002060008c73ffffffffffffffffffffffffffffffffffffffff1673ffffffffffffffffffffffffffffffffffffffff168152602001908152602001600020819055508160008085815260200190815260200160002060008b73ffffffffffffffffffffffffffffffffffffffff1673ffffffffffffffffffffffffffffffffffffffff16815260200190815260200160002060008282546123fe91906149f4565b9250508190555050505080612412906146e6565b905061226b565b508473ffffffffffffffffffffffffffffffffffffffff168673ffffffffffffffffffffffffffffffffffffffff168273ffffffffffffffffffffffffffffffffffffffff167f4a39dc06d4c0dbc64b70af90fd698a233a518aa5d07e595d983b8c0526c8f7fb8787604051612490929190615273565b60405180910390a46124a6818787878787613052565b6124b481878787878761305a565b505050505050565b600073ffffffffffffffffffffffffffffffffffffffff168473ffffffffffffffffffffffffffffffffffffffff16141561252c576040517f08c379a0000000000000000000000000000000000000000000000000000000008152600401612523906151c1565b60405180910390fd5b6000612536612192565b9050600061254385613241565b9050600061255085613241565b90506125618360008985858961304a565b8460008088815260200190815260200160002060008973ffffffffffffffffffffffffffffffffffffffff1673ffffffffffffffffffffffffffffffffffffffff16815260200190815260200160002060008282546125c091906149f4565b925050819055508673ffffffffffffffffffffffffffffffffffffffff16600073ffffffffffffffffffffffffffffffffffffffff168473ffffffffffffffffffffffffffffffffffffffff167fc3d58168c5ae7397731d063d5bbf3d657854427343f4c083240f7aacaa2d0f62898960405161263e92919061542e565b60405180910390a461265583600089858589613052565b612664836000898989896132bb565b50505050505050565b600073ffffffffffffffffffffffffffffffffffffffff168373ffffffffffffffffffffffffffffffffffffffff1614156126dd576040517f08c379a00000000000000000000000000000000000000000000000000000000081526004016126d4906154c9565b60405180910390fd5b8051825114612721576040517f08c379a000000000000000000000000000000000000000000000000000000000815260040161271890615253565b60405180910390fd5b600061272b612192565b905061274b8185600086866040518060200160405280600081525061304a565b60005b835181101561289857600084828151811061276c5761276b61461c565b5b60200260200101519050600084838151811061278b5761278a61461c565b5b60200260200101519050600080600084815260200190815260200160002060008973ffffffffffffffffffffffffffffffffffffffff1673ffffffffffffffffffffffffffffffffffffffff1681526020019081526020016000205490508181101561282c576040517f08c379a00000000000000000000000000000000000000000000000000000000081526004016128239061555b565b60405180910390fd5b81810360008085815260200190815260200160002060008a73ffffffffffffffffffffffffffffffffffffffff1673ffffffffffffffffffffffffffffffffffffffff168152602001908152602001600020819055505050508080612890906146e6565b91505061274e565b50600073ffffffffffffffffffffffffffffffffffffffff168473ffffffffffffffffffffffffffffffffffffffff168273ffffffffffffffffffffffffffffffffffffffff167f4a39dc06d4c0dbc64b70af90fd698a233a518aa5d07e595d983b8c0526c8f7fb8686604051612910929190615273565b60405180910390a461293681856000868660405180602001604052806000815250613052565b50505050565b6000600360009054906101000a900473ffffffffffffffffffffffffffffffffffffffff16905081600360006101000a81548173ffffffffffffffffffffffffffffffffffffffff021916908373ffffffffffffffffffffffffffffffffffffffff1602179055508173ffffffffffffffffffffffffffffffffffffffff168173ffffffffffffffffffffffffffffffffffffffff167f8be0079c531659141344cd1fd0a4f28419497f9722a3daafe3b4186f6b6457e060405160405180910390a35050565b8173ffffffffffffffffffffffffffffffffffffffff168373ffffffffffffffffffffffffffffffffffffffff161415612a71576040517f08c379a0000000000000000000000000000000000000000000000000000000008152600401612a68906155ed565b60405180910390fd5b80600160008573ffffffffffffffffffffffffffffffffffffffff1673ffffffffffffffffffffffffffffffffffffffff16815260200190815260200160002060008473ffffffffffffffffffffffffffffffffffffffff1673ffffffffffffffffffffffffffffffffffffffff16815260200190815260200160002060006101000a81548160ff0219169083151502179055508173ffffffffffffffffffffffffffffffffffffffff168373ffffffffffffffffffffffffffffffffffffffff167f17307eab39ab6107e8899845ad3d59bd9653f200f220920489ca2b5937696c3183604051612b629190613a0d565b60405180910390a3505050565b612b77612192565b73ffffffffffffffffffffffffffffffffffffffff168573ffffffffffffffffffffffffffffffffffffffff161480612bbd5750612bbc85612bb7612192565b6119b7565b5b612bfc576040517f08c379a0000000000000000000000000000000000000000000000000000000008152600401612bf390614b4e565b60405180910390fd5b612c0985858585856134a2565b5050505050565b600080600090505b612c2184610f1c565b51811015612ca85782600660008673ffffffffffffffffffffffffffffffffffffffff1673ffffffffffffffffffffffffffffffffffffffff1681526020019081526020016000208281548110612c7b57612c7a61461c565b5b90600052602060002001541415612c955780915050612caa565b8080612ca0906146e6565b915050612c18565b505b92915050565b600073ffffffffffffffffffffffffffffffffffffffff168373ffffffffffffffffffffffffffffffffffffffff161415612d20576040517f08c379a0000000000000000000000000000000000000000000000000000000008152600401612d17906154c9565b60405180910390fd5b6000612d2a612192565b90506000612d3784613241565b90506000612d4484613241565b9050612d648387600085856040518060200160405280600081525061304a565b600080600087815260200190815260200160002060008873ffffffffffffffffffffffffffffffffffffffff1673ffffffffffffffffffffffffffffffffffffffff16815260200190815260200160002054905084811015612dfb576040517f08c379a0000000000000000000000000000000000000000000000000000000008152600401612df29061555b565b60405180910390fd5b84810360008088815260200190815260200160002060008973ffffffffffffffffffffffffffffffffffffffff1673ffffffffffffffffffffffffffffffffffffffff16815260200190815260200160002081905550600073ffffffffffffffffffffffffffffffffffffffff168773ffffffffffffffffffffffffffffffffffffffff168573ffffffffffffffffffffffffffffffffffffffff167fc3d58168c5ae7397731d063d5bbf3d657854427343f4c083240f7aacaa2d0f628989604051612ec892919061542e565b60405180910390a4612eee84886000868660405180602001604052806000815250613052565b50505050505050565b600080600090507a184f03e93ff9f4daa797ed6e38ed64bf6a1f0100000000000000008310612f55577a184f03e93ff9f4daa797ed6e38ed64bf6a1f0100000000000000008381612f4b57612f4a615120565b5b0492506040810190505b6d04ee2d6d415b85acef81000000008310612f92576d04ee2d6d415b85acef81000000008381612f8857612f87615120565b5b0492506020810190505b662386f26fc100008310612fc157662386f26fc100008381612fb757612fb6615120565b5b0492506010810190505b6305f5e1008310612fea576305f5e1008381612fe057612fdf615120565b5b0492506008810190505b612710831061300f57612710838161300557613004615120565b5b0492506004810190505b60648310613032576064838161302857613027615120565b5b0492506002810190505b600a8310613041576001810190505b80915050919050565b505050505050565b505050505050565b6130798473ffffffffffffffffffffffffffffffffffffffff1661373e565b15613239578373ffffffffffffffffffffffffffffffffffffffff1663bc197c8187878686866040518663ffffffff1660e01b81526004016130bf959493929190615662565b602060405180830381600087803b1580156130d957600080fd5b505af192505050801561310a57506040513d601f19601f8201168201806040525081019061310791906156df565b60015b6131b057613116615719565b806308c379a01415613173575061312b61573b565b806131365750613175565b806040517f08c379a000000000000000000000000000000000000000000000000000000000815260040161316a9190613dbc565b60405180910390fd5b505b6040517f08c379a00000000000000000000000000000000000000000000000000000000081526004016131a790615843565b60405180910390fd5b63bc197c8160e01b7bffffffffffffffffffffffffffffffffffffffffffffffffffffffff1916817bffffffffffffffffffffffffffffffffffffffffffffffffffffffff191614613237576040517f08c379a000000000000000000000000000000000000000000000000000000000815260040161322e906158d5565b60405180910390fd5b505b505050505050565b60606000600167ffffffffffffffff8111156132605761325f613a43565b5b60405190808252806020026020018201604052801561328e5781602001602082028036833780820191505090505b50905082816000815181106132a6576132a561461c565b5b60200260200101818152505080915050919050565b6132da8473ffffffffffffffffffffffffffffffffffffffff1661373e565b1561349a578373ffffffffffffffffffffffffffffffffffffffff1663f23a6e6187878686866040518663ffffffff1660e01b81526004016133209594939291906158f5565b602060405180830381600087803b15801561333a57600080fd5b505af192505050801561336b57506040513d601f19601f8201168201806040525081019061336891906156df565b60015b61341157613377615719565b806308c379a014156133d4575061338c61573b565b8061339757506133d6565b806040517f08c379a00000000000000000000000000000000000000000000000000000000081526004016133cb9190613dbc565b60405180910390fd5b505b6040517f08c379a000000000000000000000000000000000000000000000000000000000815260040161340890615843565b60405180910390fd5b63f23a6e6160e01b7bffffffffffffffffffffffffffffffffffffffffffffffffffffffff1916817bffffffffffffffffffffffffffffffffffffffffffffffffffffffff191614613498576040517f08c379a000000000000000000000000000000000000000000000000000000000815260040161348f906158d5565b60405180910390fd5b505b505050505050565b600073ffffffffffffffffffffffffffffffffffffffff168473ffffffffffffffffffffffffffffffffffffffff161415613512576040517f08c379a00000000000000000000000000000000000000000000000000000000081526004016135099061537c565b60405180910390fd5b600061351c612192565b9050600061352985613241565b9050600061353685613241565b905061354683898985858961304a565b600080600088815260200190815260200160002060008a73ffffffffffffffffffffffffffffffffffffffff1673ffffffffffffffffffffffffffffffffffffffff168152602001908152602001600020549050858110156135dd576040517f08c379a00000000000000000000000000000000000000000000000000000000081526004016135d49061540e565b60405180910390fd5b85810360008089815260200190815260200160002060008b73ffffffffffffffffffffffffffffffffffffffff1673ffffffffffffffffffffffffffffffffffffffff168152602001908152602001600020819055508560008089815260200190815260200160002060008a73ffffffffffffffffffffffffffffffffffffffff1673ffffffffffffffffffffffffffffffffffffffff168152602001908152602001600020600082825461369291906149f4565b925050819055508773ffffffffffffffffffffffffffffffffffffffff168973ffffffffffffffffffffffffffffffffffffffff168573ffffffffffffffffffffffffffffffffffffffff167fc3d58168c5ae7397731d063d5bbf3d657854427343f4c083240f7aacaa2d0f628a8a60405161370f92919061542e565b60405180910390a4613725848a8a86868a613052565b613733848a8a8a8a8a6132bb565b505050505050505050565b6000808273ffffffffffffffffffffffffffffffffffffffff163b119050919050565b6040518060e0016040528060008152602001600073ffffffffffffffffffffffffffffffffffffffff1681526020016000815260200160008152602001600081526020016000151581526020016000151581525090565b8280546137c49061597e565b90600052602060002090601f0160209004810192826137e6576000855561382d565b82601f106137ff57805160ff191683800117855561382d565b8280016001018555821561382d579182015b8281111561382c578251825591602001919060010190613811565b5b50905061383a919061383e565b5090565b5b8082111561385757600081600090555060010161383f565b5090565b6000604051905090565b600080fd5b600080fd5b600073ffffffffffffffffffffffffffffffffffffffff82169050919050565b600061389a8261386f565b9050919050565b6138aa8161388f565b81146138b557600080fd5b50565b6000813590506138c7816138a1565b92915050565b6000819050919050565b6138e0816138cd565b81146138eb57600080fd5b50565b6000813590506138fd816138d7565b92915050565b6000806040838503121561391a57613919613865565b5b6000613928858286016138b8565b9250506020613939858286016138ee565b9150509250929050565b61394c816138cd565b82525050565b60006020820190506139676000830184613943565b92915050565b60007fffffffff0000000000000000000000000000000000000000000000000000000082169050919050565b6139a28161396d565b81146139ad57600080fd5b50565b6000813590506139bf81613999565b92915050565b6000602082840312156139db576139da613865565b5b60006139e9848285016139b0565b91505092915050565b60008115159050919050565b613a07816139f2565b82525050565b6000602082019050613a2260008301846139fe565b92915050565b600080fd5b600080fd5b6000601f19601f8301169050919050565b7f4e487b7100000000000000000000000000000000000000000000000000000000600052604160045260246000fd5b613a7b82613a32565b810181811067ffffffffffffffff82111715613a9a57613a99613a43565b5b80604052505050565b6000613aad61385b565b9050613ab98282613a72565b919050565b600067ffffffffffffffff821115613ad957613ad8613a43565b5b613ae282613a32565b9050602081019050919050565b82818337600083830152505050565b6000613b11613b0c84613abe565b613aa3565b905082815260208101848484011115613b2d57613b2c613a2d565b5b613b38848285613aef565b509392505050565b600082601f830112613b5557613b54613a28565b5b8135613b65848260208601613afe565b91505092915050565b600060208284031215613b8457613b83613865565b5b600082013567ffffffffffffffff811115613ba257613ba161386a565b5b613bae84828501613b40565b91505092915050565b600067ffffffffffffffff821115613bd257613bd1613a43565b5b602082029050602081019050919050565b600080fd5b6000613bfb613bf684613bb7565b613aa3565b90508083825260208201905060208402830185811115613c1e57613c1d613be3565b5b835b81811015613c475780613c3388826138ee565b845260208401935050602081019050613c20565b5050509392505050565b600082601f830112613c6657613c65613a28565b5b8135613c76848260208601613be8565b91505092915050565b613c88816139f2565b8114613c9357600080fd5b50565b600081359050613ca581613c7f565b92915050565b60008060408385031215613cc257613cc1613865565b5b600083013567ffffffffffffffff811115613ce057613cdf61386a565b5b613cec85828601613c51565b9250506020613cfd85828601613c96565b9150509250929050565b600060208284031215613d1d57613d1c613865565b5b6000613d2b848285016138ee565b91505092915050565b600081519050919050565b600082825260208201905092915050565b60005b83811015613d6e578082015181840152602081019050613d53565b83811115613d7d576000848401525b50505050565b6000613d8e82613d34565b613d988185613d3f565b9350613da8818560208601613d50565b613db181613a32565b840191505092915050565b60006020820190508181036000830152613dd68184613d83565b905092915050565b600067ffffffffffffffff821115613df957613df8613a43565b5b613e0282613a32565b9050602081019050919050565b6000613e22613e1d84613dde565b613aa3565b905082815260208101848484011115613e3e57613e3d613a2d565b5b613e49848285613aef565b509392505050565b600082601f830112613e6657613e65613a28565b5b8135613e76848260208601613e0f565b91505092915050565b60008060008060808587031215613e9957613e98613865565b5b6000613ea7878288016138b8565b945050602085013567ffffffffffffffff811115613ec857613ec761386a565b5b613ed487828801613c51565b935050604085013567ffffffffffffffff811115613ef557613ef461386a565b5b613f0187828801613c51565b925050606085013567ffffffffffffffff811115613f2257613f2161386a565b5b613f2e87828801613e51565b91505092959194509250565b600080600080600060a08688031215613f5657613f55613865565b5b6000613f64888289016138b8565b9550506020613f75888289016138b8565b945050604086013567ffffffffffffffff811115613f9657613f9561386a565b5b613fa288828901613c51565b935050606086013567ffffffffffffffff811115613fc357613fc261386a565b5b613fcf88828901613c51565b925050608086013567ffffffffffffffff811115613ff057613fef61386a565b5b613ffc88828901613e51565b9150509295509295909350565b60006020828403121561401f5761401e613865565b5b600061402d848285016138b8565b91505092915050565b600081519050919050565b600082825260208201905092915050565b6000819050602082019050919050565b61406b816138cd565b82525050565b600061407d8383614062565b60208301905092915050565b6000602082019050919050565b60006140a182614036565b6140ab8185614041565b93506140b683614052565b8060005b838110156140e75781516140ce8882614071565b97506140d983614089565b9250506001810190506140ba565b5085935050505092915050565b6000602082019050818103600083015261410e8184614096565b905092915050565b600067ffffffffffffffff82111561413157614130613a43565b5b602082029050602081019050919050565b600061415561415084614116565b613aa3565b9050808382526020820190506020840283018581111561417857614177613be3565b5b835b818110156141a1578061418d88826138b8565b84526020840193505060208101905061417a565b5050509392505050565b600082601f8301126141c0576141bf613a28565b5b81356141d0848260208601614142565b91505092915050565b600080604083850312156141f0576141ef613865565b5b600083013567ffffffffffffffff81111561420e5761420d61386a565b5b61421a858286016141ab565b925050602083013567ffffffffffffffff81111561423b5761423a61386a565b5b61424785828601613c51565b9150509250929050565b61425a8161388f565b82525050565b614269816139f2565b82525050565b60e0820160008201516142856000850182614062565b5060208201516142986020850182614251565b5060408201516142ab6040850182614062565b5060608201516142be6060850182614062565b5060808201516142d16080850182614062565b5060a08201516142e460a0850182614260565b5060c08201516142f760c0850182614260565b50505050565b600060e082019050614312600083018461426f565b92915050565b60008060006060848603121561433157614330613865565b5b600061433f868287016138b8565b935050602084013567ffffffffffffffff8111156143605761435f61386a565b5b61436c86828701613c51565b925050604084013567ffffffffffffffff81111561438d5761438c61386a565b5b61439986828701613c51565b9150509250925092565b6143ac8161388f565b82525050565b60006020820190506143c760008301846143a3565b92915050565b6000806000606084860312156143e6576143e5613865565b5b60006143f4868287016138ee565b9350506020614405868287016138ee565b9250506040614416868287016138b8565b9150509250925092565b6000806040838503121561443757614436613865565b5b6000614445858286016138b8565b925050602061445685828601613c96565b9150509250929050565b6000806040838503121561447757614476613865565b5b6000614485858286016138b8565b9250506020614496858286016138b8565b9150509250929050565b600080600080600060a086880312156144bc576144bb613865565b5b60006144ca888289016138b8565b95505060206144db888289016138b8565b94505060406144ec888289016138ee565b93505060606144fd888289016138ee565b925050608086013567ffffffffffffffff81111561451e5761451d61386a565b5b61452a88828901613e51565b9150509295509295909350565b6000806000606084860312156145505761454f613865565b5b600061455e868287016138b8565b935050602061456f868287016138ee565b9250506040614580868287016138ee565b9150509250925092565b7f455243313135353a2061646472657373207a65726f206973206e6f742061207660008201527f616c6964206f776e657200000000000000000000000000000000000000000000602082015250565b60006145e6602a83613d3f565b91506145f18261458a565b604082019050919050565b60006020820190508181036000830152614615816145d9565b9050919050565b7f4e487b7100000000000000000000000000000000000000000000000000000000600052603260045260246000fd5b7f796f7572204e4654207374617475732069736e277420636f72726563742e0000600082015250565b6000614681601e83613d3f565b915061468c8261464b565b602082019050919050565b600060208201905081810360008301526146b081614674565b9050919050565b7f4e487b7100000000000000000000000000000000000000000000000000000000600052601160045260246000fd5b60006146f1826138cd565b91507fffffffffffffffffffffffffffffffffffffffffffffffffffffffffffffffff821415614724576147236146b7565b5b600182019050919050565b7f546865207265717569726564204944206973206e6f74207468697320636f6e7460008201527f72616374206f776e65642e000000000000000000000000000000000000000000602082015250565b600061478b602b83613d3f565b91506147968261472f565b604082019050919050565b600060208201905081810360008301526147ba8161477e565b9050919050565b600081905092915050565b7f68747470733a2f2f7065742d726f636b2d6574682e70616e63616b652e74772f60008201527f6e66742f00000000000000000000000000000000000000000000000000000000602082015250565b60006148286024836147c1565b9150614833826147cc565b602482019050919050565b600061484982613d34565b61485381856147c1565b9350614863818560208601613d50565b80840191505092915050565b7f2e6a736f6e000000000000000000000000000000000000000000000000000000600082015250565b60006148a56005836147c1565b91506148b08261486f565b600582019050919050565b60006148c68261481b565b91506148d2828461483e565b91506148dd82614898565b915081905092915050565b7f74686973204e46542068617320616c7265616479206d696e7400000000000000600082015250565b600061491e601983613d3f565b9150614929826148e8565b602082019050919050565b6000602082019050818103600083015261494d81614911565b9050919050565b7f74686520696420697320746f6f20626967000000000000000000000000000000600082015250565b600061498a601183613d3f565b915061499582614954565b602082019050919050565b600060208201905081810360008301526149b98161497d565b9050919050565b60006149cb826138cd565b91506149d6836138cd565b9250828210156149e9576149e86146b7565b5b828203905092915050565b60006149ff826138cd565b9150614a0a836138cd565b9250827fffffffffffffffffffffffffffffffffffffffffffffffffffffffffffffffff03821115614a3f57614a3e6146b7565b5b828201905092915050565b7f7469687320616464726573732069736e277420636f6e737472756374206f776e60008201527f6572000000000000000000000000000000000000000000000000000000000000602082015250565b6000614aa6602283613d3f565b9150614ab182614a4a565b604082019050919050565b60006020820190508181036000830152614ad581614a99565b9050919050565b7f455243313135353a2063616c6c6572206973206e6f7420746f6b656e206f776e60008201527f6572206f7220617070726f766564000000000000000000000000000000000000602082015250565b6000614b38602e83613d3f565b9150614b4382614adc565b604082019050919050565b60006020820190508181036000830152614b6781614b2b565b9050919050565b7f455243313135353a206163636f756e747320616e6420696473206c656e67746860008201527f206d69736d617463680000000000000000000000000000000000000000000000602082015250565b6000614bca602983613d3f565b9150614bd582614b6e565b604082019050919050565b60006020820190508181036000830152614bf981614bbd565b9050919050565b7f496e73756666696369656e74206269642e000000000000000000000000000000600082015250565b6000614c36601183613d3f565b9150614c4182614c00565b602082019050919050565b60006020820190508181036000830152614c6581614c29565b9050919050565b7f746865204e465420616c726561647920756e6c6f636b00000000000000000000600082015250565b6000614ca2601683613d3f565b9150614cad82614c6c565b602082019050919050565b60006020820190508181036000830152614cd181614c95565b9050919050565b7f746865206c6f636b206973207570646174650000000000000000000000000000600082015250565b6000614d0e601283613d3f565b9150614d1982614cd8565b602082019050919050565b6000606082019050614d3960008301856143a3565b614d466020830184613943565b8181036040830152614d5781614d01565b90509392505050565b7f746865206d696e7420697320656e640000000000000000000000000000000000600082015250565b6000614d96600f83613d3f565b9150614da182614d60565b602082019050919050565b60006020820190508181036000830152614dc581614d89565b9050919050565b7f546869732073746f6e6520616c72656164792064696500000000000000000000600082015250565b6000614e02601683613d3f565b9150614e0d82614dcc565b602082019050919050565b60006020820190508181036000830152614e3181614df5565b9050919050565b7f54686520666565646572206973206e6f742061646f707465722c20796f75722060008201527f73746f6e652067657420616e6772792e00000000000000000000000000000000602082015250565b6000614e94603083613d3f565b9150614e9f82614e38565b604082019050919050565b60006020820190508181036000830152614ec381614e87565b9050919050565b6000614ed5826138cd565b9150614ee0836138cd565b9250817fffffffffffffffffffffffffffffffffffffffffffffffffffffffffffffffff0483118215151615614f1957614f186146b7565b5b828202905092915050565b7f496e73756666696369656e7420616d6f756e7420666f7220746f6b656e204944600082015250565b6000614f5a602083613d3f565b9150614f6582614f24565b602082019050919050565b60006020820190508181036000830152614f8981614f4d565b9050919050565b7f546865207472616e73616374696f6e20706179207374696c6c206e6f7420646f60008201527f6e65207965742e00000000000000000000000000000000000000000000000000602082015250565b6000614fec602783613d3f565b9150614ff782614f90565b604082019050919050565b6000602082019050818103600083015261501b81614fdf565b9050919050565b7f4f776e61626c653a206e6577206f776e657220697320746865207a65726f206160008201527f6464726573730000000000000000000000000000000000000000000000000000602082015250565b600061507e602683613d3f565b915061508982615022565b604082019050919050565b600060208201905081810360008301526150ad81615071565b9050919050565b7f4f776e61626c653a2063616c6c6572206973206e6f7420746865206f776e6572600082015250565b60006150ea602083613d3f565b91506150f5826150b4565b602082019050919050565b60006020820190508181036000830152615119816150dd565b9050919050565b7f4e487b7100000000000000000000000000000000000000000000000000000000600052601260045260246000fd5b7f455243313135353a206d696e7420746f20746865207a65726f2061646472657360008201527f7300000000000000000000000000000000000000000000000000000000000000602082015250565b60006151ab602183613d3f565b91506151b68261514f565b604082019050919050565b600060208201905081810360008301526151da8161519e565b9050919050565b7f455243313135353a2069647320616e6420616d6f756e7473206c656e6774682060008201527f6d69736d61746368000000000000000000000000000000000000000000000000602082015250565b600061523d602883613d3f565b9150615248826151e1565b604082019050919050565b6000602082019050818103600083015261526c81615230565b9050919050565b6000604082019050818103600083015261528d8185614096565b905081810360208301526152a18184614096565b90509392505050565b7f4e487b7100000000000000000000000000000000000000000000000000000000600052600160045260246000fd5b60006152e4826138cd565b91506152ef836138cd565b9250826152ff576152fe615120565b5b828204905092915050565b7f455243313135353a207472616e7366657220746f20746865207a65726f20616460008201527f6472657373000000000000000000000000000000000000000000000000000000602082015250565b6000615366602583613d3f565b91506153718261530a565b604082019050919050565b6000602082019050818103600083015261539581615359565b9050919050565b7f455243313135353a20696e73756666696369656e742062616c616e636520666f60008201527f72207472616e7366657200000000000000000000000000000000000000000000602082015250565b60006153f8602a83613d3f565b91506154038261539c565b604082019050919050565b60006020820190508181036000830152615427816153eb565b9050919050565b60006040820190506154436000830185613943565b6154506020830184613943565b9392505050565b7f455243313135353a206275726e2066726f6d20746865207a65726f206164647260008201527f6573730000000000000000000000000000000000000000000000000000000000602082015250565b60006154b3602383613d3f565b91506154be82615457565b604082019050919050565b600060208201905081810360008301526154e2816154a6565b9050919050565b7f455243313135353a206275726e20616d6f756e7420657863656564732062616c60008201527f616e636500000000000000000000000000000000000000000000000000000000602082015250565b6000615545602483613d3f565b9150615550826154e9565b604082019050919050565b6000602082019050818103600083015261557481615538565b9050919050565b7f455243313135353a2073657474696e6720617070726f76616c2073746174757360008201527f20666f722073656c660000000000000000000000000000000000000000000000602082015250565b60006155d7602983613d3f565b91506155e28261557b565b604082019050919050565b60006020820190508181036000830152615606816155ca565b9050919050565b600081519050919050565b600082825260208201905092915050565b60006156348261560d565b61563e8185615618565b935061564e818560208601613d50565b61565781613a32565b840191505092915050565b600060a08201905061567760008301886143a3565b61568460208301876143a3565b81810360408301526156968186614096565b905081810360608301526156aa8185614096565b905081810360808301526156be8184615629565b90509695505050505050565b6000815190506156d981613999565b92915050565b6000602082840312156156f5576156f4613865565b5b6000615703848285016156ca565b91505092915050565b60008160e01c9050919050565b600060033d11156157385760046000803e61573560005161570c565b90505b90565b600060443d101561574b576157ce565b61575361385b565b60043d036004823e80513d602482011167ffffffffffffffff8211171561577b5750506157ce565b808201805167ffffffffffffffff81111561579957505050506157ce565b80602083010160043d0385018111156157b65750505050506157ce565b6157c582602001850186613a72565b82955050505050505b90565b7f455243313135353a207472616e7366657220746f206e6f6e2d4552433131353560008201527f526563656976657220696d706c656d656e746572000000000000000000000000602082015250565b600061582d603483613d3f565b9150615838826157d1565b604082019050919050565b6000602082019050818103600083015261585c81615820565b9050919050565b7f455243313135353a204552433131353552656365697665722072656a6563746560008201527f6420746f6b656e73000000000000000000000000000000000000000000000000602082015250565b60006158bf602883613d3f565b91506158ca82615863565b604082019050919050565b600060208201905081810360008301526158ee816158b2565b9050919050565b600060a08201905061590a60008301886143a3565b61591760208301876143a3565b6159246040830186613943565b6159316060830185613943565b81810360808301526159438184615629565b90509695505050505050565b7f4e487b7100000000000000000000000000000000000000000000000000000000600052602260045260246000fd5b6000600282049050600182168061599657607f821691505b602082108114156159aa576159a961594f565b5b5091905056fea2646970667358221220de51fcda513c1c973ece2d1d958f3445a772eaeb2ec7e5f9ea49b06c5fd2ed1664736f6c6343000809003368747470733a2f2f7065742d726f636b2d6574682e70616e63616b652e74772f6e66742f7b69647d2e6a736f6e",
			"opcodes": "PUSH1 0x80 PUSH1 0x40 MSTORE PUSH1 0x0 PUSH1 0x4 SSTORE PUSH7 0x38D7EA4C68000 PUSH1 0x5 SSTORE CALLVALUE DUP1 ISZERO PUSH3 0x21 JUMPI PUSH1 0x0 DUP1 REVERT JUMPDEST POP PUSH1 0x40 MLOAD DUP1 PUSH1 0x60 ADD PUSH1 0x40 MSTORE DUP1 PUSH1 0x2D DUP2 MSTORE PUSH1 0x20 ADD PUSH3 0x5CBE PUSH1 0x2D SWAP2 CODECOPY PUSH3 0x4D DUP2 PUSH3 0xC9 PUSH1 0x20 SHL PUSH1 0x20 SHR JUMP JUMPDEST POP PUSH3 0x6E PUSH3 0x62 PUSH3 0xE5 PUSH1 0x20 SHL PUSH1 0x20 SHR JUMP JUMPDEST PUSH3 0xED PUSH1 0x20 SHL PUSH1 0x20 SHR JUMP JUMPDEST PUSH20 0x102738F14A5981C5AF0113FC32C119F51E55106B PUSH1 0x8 PUSH1 0x0 PUSH2 0x100 EXP DUP2 SLOAD DUP2 PUSH20 0xFFFFFFFFFFFFFFFFFFFFFFFFFFFFFFFFFFFFFFFF MUL NOT AND SWAP1 DUP4 PUSH20 0xFFFFFFFFFFFFFFFFFFFFFFFFFFFFFFFFFFFFFFFF AND MUL OR SWAP1 SSTORE POP PUSH3 0x2C8 JUMP JUMPDEST DUP1 PUSH1 0x2 SWAP1 DUP1 MLOAD SWAP1 PUSH1 0x20 ADD SWAP1 PUSH3 0xE1 SWAP3 SWAP2 SWAP1 PUSH3 0x1B3 JUMP JUMPDEST POP POP JUMP JUMPDEST PUSH1 0x0 CALLER SWAP1 POP SWAP1 JUMP JUMPDEST PUSH1 0x0 PUSH1 0x3 PUSH1 0x0 SWAP1 SLOAD SWAP1 PUSH2 0x100 EXP SWAP1 DIV PUSH20 0xFFFFFFFFFFFFFFFFFFFFFFFFFFFFFFFFFFFFFFFF AND SWAP1 POP DUP2 PUSH1 0x3 PUSH1 0x0 PUSH2 0x100 EXP DUP2 SLOAD DUP2 PUSH20 0xFFFFFFFFFFFFFFFFFFFFFFFFFFFFFFFFFFFFFFFF MUL NOT AND SWAP1 DUP4 PUSH20 0xFFFFFFFFFFFFFFFFFFFFFFFFFFFFFFFFFFFFFFFF AND MUL OR SWAP1 SSTORE POP DUP2 PUSH20 0xFFFFFFFFFFFFFFFFFFFFFFFFFFFFFFFFFFFFFFFF AND DUP2 PUSH20 0xFFFFFFFFFFFFFFFFFFFFFFFFFFFFFFFFFFFFFFFF AND PUSH32 0x8BE0079C531659141344CD1FD0A4F28419497F9722A3DAAFE3B4186F6B6457E0 PUSH1 0x40 MLOAD PUSH1 0x40 MLOAD DUP1 SWAP2 SUB SWAP1 LOG3 POP POP JUMP JUMPDEST DUP3 DUP1 SLOAD PUSH3 0x1C1 SWAP1 PUSH3 0x292 JUMP JUMPDEST SWAP1 PUSH1 0x0 MSTORE PUSH1 0x20 PUSH1 0x0 KECCAK256 SWAP1 PUSH1 0x1F ADD PUSH1 0x20 SWAP1 DIV DUP2 ADD SWAP3 DUP3 PUSH3 0x1E5 JUMPI PUSH1 0x0 DUP6 SSTORE PUSH3 0x231 JUMP JUMPDEST DUP3 PUSH1 0x1F LT PUSH3 0x200 JUMPI DUP1 MLOAD PUSH1 0xFF NOT AND DUP4 DUP1 ADD OR DUP6 SSTORE PUSH3 0x231 JUMP JUMPDEST DUP3 DUP1 ADD PUSH1 0x1 ADD DUP6 SSTORE DUP3 ISZERO PUSH3 0x231 JUMPI SWAP2 DUP3 ADD JUMPDEST DUP3 DUP2 GT ISZERO PUSH3 0x230 JUMPI DUP3 MLOAD DUP3 SSTORE SWAP2 PUSH1 0x20 ADD SWAP2 SWAP1 PUSH1 0x1 ADD SWAP1 PUSH3 0x213 JUMP JUMPDEST JUMPDEST POP SWAP1 POP PUSH3 0x240 SWAP2 SWAP1 PUSH3 0x244 JUMP JUMPDEST POP SWAP1 JUMP JUMPDEST JUMPDEST DUP1 DUP3 GT ISZERO PUSH3 0x25F JUMPI PUSH1 0x0 DUP2 PUSH1 0x0 SWAP1 SSTORE POP PUSH1 0x1 ADD PUSH3 0x245 JUMP JUMPDEST POP SWAP1 JUMP JUMPDEST PUSH32 0x4E487B7100000000000000000000000000000000000000000000000000000000 PUSH1 0x0 MSTORE PUSH1 0x22 PUSH1 0x4 MSTORE PUSH1 0x24 PUSH1 0x0 REVERT JUMPDEST PUSH1 0x0 PUSH1 0x2 DUP3 DIV SWAP1 POP PUSH1 0x1 DUP3 AND DUP1 PUSH3 0x2AB JUMPI PUSH1 0x7F DUP3 AND SWAP2 POP JUMPDEST PUSH1 0x20 DUP3 LT DUP2 EQ ISZERO PUSH3 0x2C2 JUMPI PUSH3 0x2C1 PUSH3 0x263 JUMP JUMPDEST JUMPDEST POP SWAP2 SWAP1 POP JUMP JUMPDEST PUSH2 0x59E6 DUP1 PUSH3 0x2D8 PUSH1 0x0 CODECOPY PUSH1 0x0 RETURN INVALID PUSH1 0x80 PUSH1 0x40 MSTORE PUSH1 0x4 CALLDATASIZE LT PUSH2 0x1E2 JUMPI PUSH1 0x0 CALLDATALOAD PUSH1 0xE0 SHR DUP1 PUSH4 0x6A627842 GT PUSH2 0x102 JUMPI DUP1 PUSH4 0x9E921DD1 GT PUSH2 0x95 JUMPI DUP1 PUSH4 0xF242432A GT PUSH2 0x64 JUMPI DUP1 PUSH4 0xF242432A EQ PUSH2 0x760 JUMPI DUP1 PUSH4 0xF2FDE38B EQ PUSH2 0x789 JUMPI DUP1 PUSH4 0xF5298ACA EQ PUSH2 0x7B2 JUMPI DUP1 PUSH4 0xFE283F16 EQ PUSH2 0x7DB JUMPI PUSH2 0x1E2 JUMP JUMPDEST DUP1 PUSH4 0x9E921DD1 EQ PUSH2 0x6A8 JUMPI DUP1 PUSH4 0xA019F571 EQ PUSH2 0x6D1 JUMPI DUP1 PUSH4 0xA22CB465 EQ PUSH2 0x6FA JUMPI DUP1 PUSH4 0xE985E9C5 EQ PUSH2 0x723 JUMPI PUSH2 0x1E2 JUMP JUMPDEST DUP1 PUSH4 0x74D9F5F9 GT PUSH2 0xD1 JUMPI DUP1 PUSH4 0x74D9F5F9 EQ PUSH2 0x5DA JUMPI DUP1 PUSH4 0x84B147CB EQ PUSH2 0x617 JUMPI DUP1 PUSH4 0x87199CBC EQ PUSH2 0x640 JUMPI DUP1 PUSH4 0x8DA5CB5B EQ PUSH2 0x67D JUMPI PUSH2 0x1E2 JUMP JUMPDEST DUP1 PUSH4 0x6A627842 EQ PUSH2 0x534 JUMPI DUP1 PUSH4 0x6A781B0A EQ PUSH2 0x55D JUMPI DUP1 PUSH4 0x6B20C454 EQ PUSH2 0x59A JUMPI DUP1 PUSH4 0x715018A6 EQ PUSH2 0x5C3 JUMPI PUSH2 0x1E2 JUMP JUMPDEST DUP1 PUSH4 0x2C01BFE4 GT PUSH2 0x17A JUMPI DUP1 PUSH4 0x4E1273F4 GT PUSH2 0x149 JUMPI DUP1 PUSH4 0x4E1273F4 EQ PUSH2 0x461 JUMPI DUP1 PUSH4 0x639031B1 EQ PUSH2 0x49E JUMPI DUP1 PUSH4 0x68D1102B EQ PUSH2 0x4DB JUMPI DUP1 PUSH4 0x699D3127 EQ PUSH2 0x4F7 JUMPI PUSH2 0x1E2 JUMP JUMPDEST DUP1 PUSH4 0x2C01BFE4 EQ PUSH2 0x3A7 JUMPI DUP1 PUSH4 0x2EB2C2D6 EQ PUSH2 0x3BE JUMPI DUP1 PUSH4 0x3495F0FA EQ PUSH2 0x3E7 JUMPI DUP1 PUSH4 0x39200300 EQ PUSH2 0x424 JUMPI PUSH2 0x1E2 JUMP JUMPDEST DUP1 PUSH4 0xE89341C GT PUSH2 0x1B6 JUMPI DUP1 PUSH4 0xE89341C EQ PUSH2 0x2C7 JUMPI DUP1 PUSH4 0x1F7FDFFA EQ PUSH2 0x304 JUMPI DUP1 PUSH4 0x29AA8E9B EQ PUSH2 0x32D JUMPI DUP1 PUSH4 0x2B71F94B EQ PUSH2 0x36A JUMPI PUSH2 0x1E2 JUMP JUMPDEST DUP1 PUSH3 0xFDD58E EQ PUSH2 0x1E7 JUMPI DUP1 PUSH4 0x1FFC9A7 EQ PUSH2 0x224 JUMPI DUP1 PUSH4 0x2FE5305 EQ PUSH2 0x261 JUMPI DUP1 PUSH4 0xB291DD9 EQ PUSH2 0x28A JUMPI JUMPDEST PUSH1 0x0 DUP1 REVERT JUMPDEST CALLVALUE DUP1 ISZERO PUSH2 0x1F3 JUMPI PUSH1 0x0 DUP1 REVERT JUMPDEST POP PUSH2 0x20E PUSH1 0x4 DUP1 CALLDATASIZE SUB DUP2 ADD SWAP1 PUSH2 0x209 SWAP2 SWAP1 PUSH2 0x3903 JUMP JUMPDEST PUSH2 0x806 JUMP JUMPDEST PUSH1 0x40 MLOAD PUSH2 0x21B SWAP2 SWAP1 PUSH2 0x3952 JUMP JUMPDEST PUSH1 0x40 MLOAD DUP1 SWAP2 SUB SWAP1 RETURN JUMPDEST CALLVALUE DUP1 ISZERO PUSH2 0x230 JUMPI PUSH1 0x0 DUP1 REVERT JUMPDEST POP PUSH2 0x24B PUSH1 0x4 DUP1 CALLDATASIZE SUB DUP2 ADD SWAP1 PUSH2 0x246 SWAP2 SWAP1 PUSH2 0x39C5 JUMP JUMPDEST PUSH2 0x8CF JUMP JUMPDEST PUSH1 0x40 MLOAD PUSH2 0x258 SWAP2 SWAP1 PUSH2 0x3A0D JUMP JUMPDEST PUSH1 0x40 MLOAD DUP1 SWAP2 SUB SWAP1 RETURN JUMPDEST CALLVALUE DUP1 ISZERO PUSH2 0x26D JUMPI PUSH1 0x0 DUP1 REVERT JUMPDEST POP PUSH2 0x288 PUSH1 0x4 DUP1 CALLDATASIZE SUB DUP2 ADD SWAP1 PUSH2 0x283 SWAP2 SWAP1 PUSH2 0x3B6E JUMP JUMPDEST PUSH2 0x9B1 JUMP JUMPDEST STOP JUMPDEST CALLVALUE DUP1 ISZERO PUSH2 0x296 JUMPI PUSH1 0x0 DUP1 REVERT JUMPDEST POP PUSH2 0x2B1 PUSH1 0x4 DUP1 CALLDATASIZE SUB DUP2 ADD SWAP1 PUSH2 0x2AC SWAP2 SWAP1 PUSH2 0x3CAB JUMP JUMPDEST PUSH2 0x9C5 JUMP JUMPDEST PUSH1 0x40 MLOAD PUSH2 0x2BE SWAP2 SWAP1 PUSH2 0x3A0D JUMP JUMPDEST PUSH1 0x40 MLOAD DUP1 SWAP2 SUB SWAP1 RETURN JUMPDEST CALLVALUE DUP1 ISZERO PUSH2 0x2D3 JUMPI PUSH1 0x0 DUP1 REVERT JUMPDEST POP PUSH2 0x2EE PUSH1 0x4 DUP1 CALLDATASIZE SUB DUP2 ADD SWAP1 PUSH2 0x2E9 SWAP2 SWAP1 PUSH2 0x3D07 JUMP JUMPDEST PUSH2 0xA77 JUMP JUMPDEST PUSH1 0x40 MLOAD PUSH2 0x2FB SWAP2 SWAP1 PUSH2 0x3DBC JUMP JUMPDEST PUSH1 0x40 MLOAD DUP1 SWAP2 SUB SWAP1 RETURN JUMPDEST CALLVALUE DUP1 ISZERO PUSH2 0x310 JUMPI PUSH1 0x0 DUP1 REVERT JUMPDEST POP PUSH2 0x32B PUSH1 0x4 DUP1 CALLDATASIZE SUB DUP2 ADD SWAP1 PUSH2 0x326 SWAP2 SWAP1 PUSH2 0x3E7F JUMP JUMPDEST PUSH2 0xB4E JUMP JUMPDEST STOP JUMPDEST CALLVALUE DUP1 ISZERO PUSH2 0x339 JUMPI PUSH1 0x0 DUP1 REVERT JUMPDEST POP PUSH2 0x354 PUSH1 0x4 DUP1 CALLDATASIZE SUB DUP2 ADD SWAP1 PUSH2 0x34F SWAP2 SWAP1 PUSH2 0x3D07 JUMP JUMPDEST PUSH2 0xC4B JUMP JUMPDEST PUSH1 0x40 MLOAD PUSH2 0x361 SWAP2 SWAP1 PUSH2 0x3A0D JUMP JUMPDEST PUSH1 0x40 MLOAD DUP1 SWAP2 SUB SWAP1 RETURN JUMPDEST CALLVALUE DUP1 ISZERO PUSH2 0x376 JUMPI PUSH1 0x0 DUP1 REVERT JUMPDEST POP PUSH2 0x391 PUSH1 0x4 DUP1 CALLDATASIZE SUB DUP2 ADD SWAP1 PUSH2 0x38C SWAP2 SWAP1 PUSH2 0x3D07 JUMP JUMPDEST PUSH2 0xCA6 JUMP JUMPDEST PUSH1 0x40 MLOAD PUSH2 0x39E SWAP2 SWAP1 PUSH2 0x3952 JUMP JUMPDEST PUSH1 0x40 MLOAD DUP1 SWAP2 SUB SWAP1 RETURN JUMPDEST CALLVALUE DUP1 ISZERO PUSH2 0x3B3 JUMPI PUSH1 0x0 DUP1 REVERT JUMPDEST POP PUSH2 0x3BC PUSH2 0xD3B JUMP JUMPDEST STOP JUMPDEST CALLVALUE DUP1 ISZERO PUSH2 0x3CA JUMPI PUSH1 0x0 DUP1 REVERT JUMPDEST POP PUSH2 0x3E5 PUSH1 0x4 DUP1 CALLDATASIZE SUB DUP2 ADD SWAP1 PUSH2 0x3E0 SWAP2 SWAP1 PUSH2 0x3F3A JUMP JUMPDEST PUSH2 0xE36 JUMP JUMPDEST STOP JUMPDEST CALLVALUE DUP1 ISZERO PUSH2 0x3F3 JUMPI PUSH1 0x0 DUP1 REVERT JUMPDEST POP PUSH2 0x40E PUSH1 0x4 DUP1 CALLDATASIZE SUB DUP2 ADD SWAP1 PUSH2 0x409 SWAP2 SWAP1 PUSH2 0x3D07 JUMP JUMPDEST PUSH2 0xED7 JUMP JUMPDEST PUSH1 0x40 MLOAD PUSH2 0x41B SWAP2 SWAP1 PUSH2 0x3A0D JUMP JUMPDEST PUSH1 0x40 MLOAD DUP1 SWAP2 SUB SWAP1 RETURN JUMPDEST CALLVALUE DUP1 ISZERO PUSH2 0x430 JUMPI PUSH1 0x0 DUP1 REVERT JUMPDEST POP PUSH2 0x44B PUSH1 0x4 DUP1 CALLDATASIZE SUB DUP2 ADD SWAP1 PUSH2 0x446 SWAP2 SWAP1 PUSH2 0x4009 JUMP JUMPDEST PUSH2 0xF1C JUMP JUMPDEST PUSH1 0x40 MLOAD PUSH2 0x458 SWAP2 SWAP1 PUSH2 0x40F4 JUMP JUMPDEST PUSH1 0x40 MLOAD DUP1 SWAP2 SUB SWAP1 RETURN JUMPDEST CALLVALUE DUP1 ISZERO PUSH2 0x46D JUMPI PUSH1 0x0 DUP1 REVERT JUMPDEST POP PUSH2 0x488 PUSH1 0x4 DUP1 CALLDATASIZE SUB DUP2 ADD SWAP1 PUSH2 0x483 SWAP2 SWAP1 PUSH2 0x41D9 JUMP JUMPDEST PUSH2 0xFB3 JUMP JUMPDEST PUSH1 0x40 MLOAD PUSH2 0x495 SWAP2 SWAP1 PUSH2 0x40F4 JUMP JUMPDEST PUSH1 0x40 MLOAD DUP1 SWAP2 SUB SWAP1 RETURN JUMPDEST CALLVALUE DUP1 ISZERO PUSH2 0x4AA JUMPI PUSH1 0x0 DUP1 REVERT JUMPDEST POP PUSH2 0x4C5 PUSH1 0x4 DUP1 CALLDATASIZE SUB DUP2 ADD SWAP1 PUSH2 0x4C0 SWAP2 SWAP1 PUSH2 0x3D07 JUMP JUMPDEST PUSH2 0x10CC JUMP JUMPDEST PUSH1 0x40 MLOAD PUSH2 0x4D2 SWAP2 SWAP1 PUSH2 0x3952 JUMP JUMPDEST PUSH1 0x40 MLOAD DUP1 SWAP2 SUB SWAP1 RETURN JUMPDEST PUSH2 0x4F5 PUSH1 0x4 DUP1 CALLDATASIZE SUB DUP2 ADD SWAP1 PUSH2 0x4F0 SWAP2 SWAP1 PUSH2 0x3D07 JUMP JUMPDEST PUSH2 0x10EC JUMP JUMPDEST STOP JUMPDEST CALLVALUE DUP1 ISZERO PUSH2 0x503 JUMPI PUSH1 0x0 DUP1 REVERT JUMPDEST POP PUSH2 0x51E PUSH1 0x4 DUP1 CALLDATASIZE SUB DUP2 ADD SWAP1 PUSH2 0x519 SWAP2 SWAP1 PUSH2 0x3D07 JUMP JUMPDEST PUSH2 0x1206 JUMP JUMPDEST PUSH1 0x40 MLOAD PUSH2 0x52B SWAP2 SWAP1 PUSH2 0x42FD JUMP JUMPDEST PUSH1 0x40 MLOAD DUP1 SWAP2 SUB SWAP1 RETURN JUMPDEST CALLVALUE DUP1 ISZERO PUSH2 0x540 JUMPI PUSH1 0x0 DUP1 REVERT JUMPDEST POP PUSH2 0x55B PUSH1 0x4 DUP1 CALLDATASIZE SUB DUP2 ADD SWAP1 PUSH2 0x556 SWAP2 SWAP1 PUSH2 0x4009 JUMP JUMPDEST PUSH2 0x12E7 JUMP JUMPDEST STOP JUMPDEST CALLVALUE DUP1 ISZERO PUSH2 0x569 JUMPI PUSH1 0x0 DUP1 REVERT JUMPDEST POP PUSH2 0x584 PUSH1 0x4 DUP1 CALLDATASIZE SUB DUP2 ADD SWAP1 PUSH2 0x57F SWAP2 SWAP1 PUSH2 0x3D07 JUMP JUMPDEST PUSH2 0x1529 JUMP JUMPDEST PUSH1 0x40 MLOAD PUSH2 0x591 SWAP2 SWAP1 PUSH2 0x3952 JUMP JUMPDEST PUSH1 0x40 MLOAD DUP1 SWAP2 SUB SWAP1 RETURN JUMPDEST CALLVALUE DUP1 ISZERO PUSH2 0x5A6 JUMPI PUSH1 0x0 DUP1 REVERT JUMPDEST POP PUSH2 0x5C1 PUSH1 0x4 DUP1 CALLDATASIZE SUB DUP2 ADD SWAP1 PUSH2 0x5BC SWAP2 SWAP1 PUSH2 0x4318 JUMP JUMPDEST PUSH2 0x1549 JUMP JUMPDEST STOP JUMPDEST CALLVALUE DUP1 ISZERO PUSH2 0x5CF JUMPI PUSH1 0x0 DUP1 REVERT JUMPDEST POP PUSH2 0x5D8 PUSH2 0x15E6 JUMP JUMPDEST STOP JUMPDEST CALLVALUE DUP1 ISZERO PUSH2 0x5E6 JUMPI PUSH1 0x0 DUP1 REVERT JUMPDEST POP PUSH2 0x601 PUSH1 0x4 DUP1 CALLDATASIZE SUB DUP2 ADD SWAP1 PUSH2 0x5FC SWAP2 SWAP1 PUSH2 0x3D07 JUMP JUMPDEST PUSH2 0x15FA JUMP JUMPDEST PUSH1 0x40 MLOAD PUSH2 0x60E SWAP2 SWAP1 PUSH2 0x43B2 JUMP JUMPDEST PUSH1 0x40 MLOAD DUP1 SWAP2 SUB SWAP1 RETURN JUMPDEST CALLVALUE DUP1 ISZERO PUSH2 0x623 JUMPI PUSH1 0x0 DUP1 REVERT JUMPDEST POP PUSH2 0x63E PUSH1 0x4 DUP1 CALLDATASIZE SUB DUP2 ADD SWAP1 PUSH2 0x639 SWAP2 SWAP1 PUSH2 0x43CD JUMP JUMPDEST PUSH2 0x163A JUMP JUMPDEST STOP JUMPDEST CALLVALUE DUP1 ISZERO PUSH2 0x64C JUMPI PUSH1 0x0 DUP1 REVERT JUMPDEST POP PUSH2 0x667 PUSH1 0x4 DUP1 CALLDATASIZE SUB DUP2 ADD SWAP1 PUSH2 0x662 SWAP2 SWAP1 PUSH2 0x3D07 JUMP JUMPDEST PUSH2 0x17C2 JUMP JUMPDEST PUSH1 0x40 MLOAD PUSH2 0x674 SWAP2 SWAP1 PUSH2 0x3A0D JUMP JUMPDEST PUSH1 0x40 MLOAD DUP1 SWAP2 SUB SWAP1 RETURN JUMPDEST CALLVALUE DUP1 ISZERO PUSH2 0x689 JUMPI PUSH1 0x0 DUP1 REVERT JUMPDEST POP PUSH2 0x692 PUSH2 0x1837 JUMP JUMPDEST PUSH1 0x40 MLOAD PUSH2 0x69F SWAP2 SWAP1 PUSH2 0x43B2 JUMP JUMPDEST PUSH1 0x40 MLOAD DUP1 SWAP2 SUB SWAP1 RETURN JUMPDEST CALLVALUE DUP1 ISZERO PUSH2 0x6B4 JUMPI PUSH1 0x0 DUP1 REVERT JUMPDEST POP PUSH2 0x6CF PUSH1 0x4 DUP1 CALLDATASIZE SUB DUP2 ADD SWAP1 PUSH2 0x6CA SWAP2 SWAP1 PUSH2 0x3CAB JUMP JUMPDEST PUSH2 0x1861 JUMP JUMPDEST STOP JUMPDEST CALLVALUE DUP1 ISZERO PUSH2 0x6DD JUMPI PUSH1 0x0 DUP1 REVERT JUMPDEST POP PUSH2 0x6F8 PUSH1 0x4 DUP1 CALLDATASIZE SUB DUP2 ADD SWAP1 PUSH2 0x6F3 SWAP2 SWAP1 PUSH2 0x4009 JUMP JUMPDEST PUSH2 0x18CD JUMP JUMPDEST STOP JUMPDEST CALLVALUE DUP1 ISZERO PUSH2 0x706 JUMPI PUSH1 0x0 DUP1 REVERT JUMPDEST POP PUSH2 0x721 PUSH1 0x4 DUP1 CALLDATASIZE SUB DUP2 ADD SWAP1 PUSH2 0x71C SWAP2 SWAP1 PUSH2 0x4420 JUMP JUMPDEST PUSH2 0x19A1 JUMP JUMPDEST STOP JUMPDEST CALLVALUE DUP1 ISZERO PUSH2 0x72F JUMPI PUSH1 0x0 DUP1 REVERT JUMPDEST POP PUSH2 0x74A PUSH1 0x4 DUP1 CALLDATASIZE SUB DUP2 ADD SWAP1 PUSH2 0x745 SWAP2 SWAP1 PUSH2 0x4460 JUMP JUMPDEST PUSH2 0x19B7 JUMP JUMPDEST PUSH1 0x40 MLOAD PUSH2 0x757 SWAP2 SWAP1 PUSH2 0x3A0D JUMP JUMPDEST PUSH1 0x40 MLOAD DUP1 SWAP2 SUB SWAP1 RETURN JUMPDEST CALLVALUE DUP1 ISZERO PUSH2 0x76C JUMPI PUSH1 0x0 DUP1 REVERT JUMPDEST POP PUSH2 0x787 PUSH1 0x4 DUP1 CALLDATASIZE SUB DUP2 ADD SWAP1 PUSH2 0x782 SWAP2 SWAP1 PUSH2 0x44A0 JUMP JUMPDEST PUSH2 0x1A4B JUMP JUMPDEST STOP JUMPDEST CALLVALUE DUP1 ISZERO PUSH2 0x795 JUMPI PUSH1 0x0 DUP1 REVERT JUMPDEST POP PUSH2 0x7B0 PUSH1 0x4 DUP1 CALLDATASIZE SUB DUP2 ADD SWAP1 PUSH2 0x7AB SWAP2 SWAP1 PUSH2 0x4009 JUMP JUMPDEST PUSH2 0x1C12 JUMP JUMPDEST STOP JUMPDEST CALLVALUE DUP1 ISZERO PUSH2 0x7BE JUMPI PUSH1 0x0 DUP1 REVERT JUMPDEST POP PUSH2 0x7D9 PUSH1 0x4 DUP1 CALLDATASIZE SUB DUP2 ADD SWAP1 PUSH2 0x7D4 SWAP2 SWAP1 PUSH2 0x4537 JUMP JUMPDEST PUSH2 0x1C96 JUMP JUMPDEST STOP JUMPDEST CALLVALUE DUP1 ISZERO PUSH2 0x7E7 JUMPI PUSH1 0x0 DUP1 REVERT JUMPDEST POP PUSH2 0x7F0 PUSH2 0x1D33 JUMP JUMPDEST PUSH1 0x40 MLOAD PUSH2 0x7FD SWAP2 SWAP1 PUSH2 0x3952 JUMP JUMPDEST PUSH1 0x40 MLOAD DUP1 SWAP2 SUB SWAP1 RETURN JUMPDEST PUSH1 0x0 DUP1 PUSH20 0xFFFFFFFFFFFFFFFFFFFFFFFFFFFFFFFFFFFFFFFF AND DUP4 PUSH20 0xFFFFFFFFFFFFFFFFFFFFFFFFFFFFFFFFFFFFFFFF AND EQ ISZERO PUSH2 0x877 JUMPI PUSH1 0x40 MLOAD PUSH32 0x8C379A000000000000000000000000000000000000000000000000000000000 DUP2 MSTORE PUSH1 0x4 ADD PUSH2 0x86E SWAP1 PUSH2 0x45FC JUMP JUMPDEST PUSH1 0x40 MLOAD DUP1 SWAP2 SUB SWAP1 REVERT JUMPDEST PUSH1 0x0 DUP1 DUP4 DUP2 MSTORE PUSH1 0x20 ADD SWAP1 DUP2 MSTORE PUSH1 0x20 ADD PUSH1 0x0 KECCAK256 PUSH1 0x0 DUP5 PUSH20 0xFFFFFFFFFFFFFFFFFFFFFFFFFFFFFFFFFFFFFFFF AND PUSH20 0xFFFFFFFFFFFFFFFFFFFFFFFFFFFFFFFFFFFFFFFF AND DUP2 MSTORE PUSH1 0x20 ADD SWAP1 DUP2 MSTORE PUSH1 0x20 ADD PUSH1 0x0 KECCAK256 SLOAD SWAP1 POP SWAP3 SWAP2 POP POP JUMP JUMPDEST PUSH1 0x0 PUSH32 0xD9B67A2600000000000000000000000000000000000000000000000000000000 PUSH28 0xFFFFFFFFFFFFFFFFFFFFFFFFFFFFFFFFFFFFFFFFFFFFFFFFFFFFFFFF NOT AND DUP3 PUSH28 0xFFFFFFFFFFFFFFFFFFFFFFFFFFFFFFFFFFFFFFFFFFFFFFFFFFFFFFFF NOT AND EQ DUP1 PUSH2 0x99A JUMPI POP PUSH32 0xE89341C00000000000000000000000000000000000000000000000000000000 PUSH28 0xFFFFFFFFFFFFFFFFFFFFFFFFFFFFFFFFFFFFFFFFFFFFFFFFFFFFFFFF NOT AND DUP3 PUSH28 0xFFFFFFFFFFFFFFFFFFFFFFFFFFFFFFFFFFFFFFFFFFFFFFFFFFFFFFFF NOT AND EQ JUMPDEST DUP1 PUSH2 0x9AA JUMPI POP PUSH2 0x9A9 DUP3 PUSH2 0x1D51 JUMP JUMPDEST JUMPDEST SWAP1 POP SWAP2 SWAP1 POP JUMP JUMPDEST PUSH2 0x9B9 PUSH2 0x1DBB JUMP JUMPDEST PUSH2 0x9C2 DUP2 PUSH2 0x1E39 JUMP JUMPDEST POP JUMP JUMPDEST PUSH1 0x0 DUP1 PUSH1 0x0 SWAP1 POP JUMPDEST DUP4 MLOAD DUP2 LT ISZERO PUSH2 0xA6C JUMPI DUP3 ISZERO ISZERO PUSH1 0x7 PUSH1 0x0 DUP7 DUP5 DUP2 MLOAD DUP2 LT PUSH2 0x9F0 JUMPI PUSH2 0x9EF PUSH2 0x461C JUMP JUMPDEST JUMPDEST PUSH1 0x20 MUL PUSH1 0x20 ADD ADD MLOAD DUP2 MSTORE PUSH1 0x20 ADD SWAP1 DUP2 MSTORE PUSH1 0x20 ADD PUSH1 0x0 KECCAK256 PUSH1 0x5 ADD PUSH1 0x0 SWAP1 SLOAD SWAP1 PUSH2 0x100 EXP SWAP1 DIV PUSH1 0xFF AND ISZERO ISZERO EQ PUSH2 0xA59 JUMPI PUSH1 0x40 MLOAD PUSH32 0x8C379A000000000000000000000000000000000000000000000000000000000 DUP2 MSTORE PUSH1 0x4 ADD PUSH2 0xA50 SWAP1 PUSH2 0x4697 JUMP JUMPDEST PUSH1 0x40 MLOAD DUP1 SWAP2 SUB SWAP1 REVERT JUMPDEST DUP1 DUP1 PUSH2 0xA64 SWAP1 PUSH2 0x46E6 JUMP JUMPDEST SWAP2 POP POP PUSH2 0x9CD JUMP JUMPDEST POP PUSH1 0x1 SWAP1 POP SWAP3 SWAP2 POP POP JUMP JUMPDEST PUSH1 0x60 PUSH1 0x0 PUSH20 0xFFFFFFFFFFFFFFFFFFFFFFFFFFFFFFFFFFFFFFFF AND PUSH1 0x7 PUSH1 0x0 DUP5 DUP2 MSTORE PUSH1 0x20 ADD SWAP1 DUP2 MSTORE PUSH1 0x20 ADD PUSH1 0x0 KECCAK256 PUSH1 0x1 ADD PUSH1 0x0 SWAP1 SLOAD SWAP1 PUSH2 0x100 EXP SWAP1 DIV PUSH20 0xFFFFFFFFFFFFFFFFFFFFFFFFFFFFFFFFFFFFFFFF AND PUSH20 0xFFFFFFFFFFFFFFFFFFFFFFFFFFFFFFFFFFFFFFFF AND EQ ISZERO PUSH2 0xB1F JUMPI PUSH1 0x40 MLOAD PUSH32 0x8C379A000000000000000000000000000000000000000000000000000000000 DUP2 MSTORE PUSH1 0x4 ADD PUSH2 0xB16 SWAP1 PUSH2 0x47A1 JUMP JUMPDEST PUSH1 0x40 MLOAD DUP1 SWAP2 SUB SWAP1 REVERT JUMPDEST PUSH2 0xB28 DUP3 PUSH2 0x1E53 JUMP JUMPDEST PUSH1 0x40 MLOAD PUSH1 0x20 ADD PUSH2 0xB38 SWAP2 SWAP1 PUSH2 0x48BB JUMP JUMPDEST PUSH1 0x40 MLOAD PUSH1 0x20 DUP2 DUP4 SUB SUB DUP2 MSTORE SWAP1 PUSH1 0x40 MSTORE SWAP1 POP SWAP2 SWAP1 POP JUMP JUMPDEST PUSH2 0xB56 PUSH2 0x1DBB JUMP JUMPDEST PUSH1 0x0 JUMPDEST DUP4 MLOAD DUP2 LT ISZERO PUSH2 0xC38 JUMPI PUSH1 0x0 PUSH2 0xB87 DUP6 DUP4 DUP2 MLOAD DUP2 LT PUSH2 0xB7A JUMPI PUSH2 0xB79 PUSH2 0x461C JUMP JUMPDEST JUMPDEST PUSH1 0x20 MUL PUSH1 0x20 ADD ADD MLOAD PUSH2 0x10CC JUMP JUMPDEST EQ PUSH2 0xBC7 JUMPI PUSH1 0x40 MLOAD PUSH32 0x8C379A000000000000000000000000000000000000000000000000000000000 DUP2 MSTORE PUSH1 0x4 ADD PUSH2 0xBBE SWAP1 PUSH2 0x4934 JUMP JUMPDEST PUSH1 0x40 MLOAD DUP1 SWAP2 SUB SWAP1 REVERT JUMPDEST PUSH1 0x64 DUP5 DUP3 DUP2 MLOAD DUP2 LT PUSH2 0xBDC JUMPI PUSH2 0xBDB PUSH2 0x461C JUMP JUMPDEST JUMPDEST PUSH1 0x20 MUL PUSH1 0x20 ADD ADD MLOAD GT ISZERO PUSH2 0xC25 JUMPI PUSH1 0x40 MLOAD PUSH32 0x8C379A000000000000000000000000000000000000000000000000000000000 DUP2 MSTORE PUSH1 0x4 ADD PUSH2 0xC1C SWAP1 PUSH2 0x49A0 JUMP JUMPDEST PUSH1 0x40 MLOAD DUP1 SWAP2 SUB SWAP1 REVERT JUMPDEST DUP1 DUP1 PUSH2 0xC30 SWAP1 PUSH2 0x46E6 JUMP JUMPDEST SWAP2 POP POP PUSH2 0xB59 JUMP JUMPDEST POP PUSH2 0xC45 DUP5 DUP5 DUP5 DUP5 PUSH2 0x1F2B JUMP JUMPDEST POP POP POP POP JUMP JUMPDEST PUSH1 0x0 DUP1 PUSH1 0x7 PUSH1 0x0 DUP5 DUP2 MSTORE PUSH1 0x20 ADD SWAP1 DUP2 MSTORE PUSH1 0x20 ADD PUSH1 0x0 KECCAK256 PUSH1 0x5 ADD PUSH1 0x1 PUSH2 0x100 EXP DUP2 SLOAD DUP2 PUSH1 0xFF MUL NOT AND SWAP1 DUP4 ISZERO ISZERO MUL OR SWAP1 SSTORE POP PUSH1 0x7 PUSH1 0x0 DUP4 DUP2 MSTORE PUSH1 0x20 ADD SWAP1 DUP2 MSTORE PUSH1 0x20 ADD PUSH1 0x0 KECCAK256 PUSH1 0x5 ADD PUSH1 0x1 SWAP1 SLOAD SWAP1 PUSH2 0x100 EXP SWAP1 DIV PUSH1 0xFF AND SWAP1 POP SWAP2 SWAP1 POP JUMP JUMPDEST PUSH1 0x0 DUP1 PUSH1 0x7 PUSH1 0x0 DUP5 DUP2 MSTORE PUSH1 0x20 ADD SWAP1 DUP2 MSTORE PUSH1 0x20 ADD PUSH1 0x0 KECCAK256 PUSH1 0x3 ADD SLOAD PUSH2 0xCEE PUSH2 0xCCC DUP6 PUSH2 0x10CC JUMP JUMPDEST TIMESTAMP PUSH2 0xCD7 SWAP2 SWAP1 PUSH2 0x49C0 JUMP JUMPDEST PUSH3 0x4F1A00 PUSH2 0xCE5 SWAP2 SWAP1 PUSH2 0x49C0 JUMP JUMPDEST PUSH3 0x4F1A00 PUSH2 0x2158 JUMP JUMPDEST PUSH2 0xCF8 SWAP2 SWAP1 PUSH2 0x49F4 JUMP JUMPDEST SWAP1 POP PUSH1 0x0 DUP2 GT PUSH2 0xD32 JUMPI PUSH1 0x0 PUSH1 0x7 PUSH1 0x0 DUP6 DUP2 MSTORE PUSH1 0x20 ADD SWAP1 DUP2 MSTORE PUSH1 0x20 ADD PUSH1 0x0 KECCAK256 PUSH1 0x5 ADD PUSH1 0x1 PUSH2 0x100 EXP DUP2 SLOAD DUP2 PUSH1 0xFF MUL NOT AND SWAP1 DUP4 ISZERO ISZERO MUL OR SWAP1 SSTORE POP JUMPDEST DUP1 SWAP2 POP POP SWAP2 SWAP1 POP JUMP JUMPDEST PUSH1 0x8 PUSH1 0x0 SWAP1 SLOAD SWAP1 PUSH2 0x100 EXP SWAP1 DIV PUSH20 0xFFFFFFFFFFFFFFFFFFFFFFFFFFFFFFFFFFFFFFFF AND PUSH20 0xFFFFFFFFFFFFFFFFFFFFFFFFFFFFFFFFFFFFFFFF AND CALLER PUSH20 0xFFFFFFFFFFFFFFFFFFFFFFFFFFFFFFFFFFFFFFFF AND EQ PUSH2 0xDCB JUMPI PUSH1 0x40 MLOAD PUSH32 0x8C379A000000000000000000000000000000000000000000000000000000000 DUP2 MSTORE PUSH1 0x4 ADD PUSH2 0xDC2 SWAP1 PUSH2 0x4ABC JUMP JUMPDEST PUSH1 0x40 MLOAD DUP1 SWAP2 SUB SWAP1 REVERT JUMPDEST PUSH1 0x8 PUSH1 0x0 SWAP1 SLOAD SWAP1 PUSH2 0x100 EXP SWAP1 DIV PUSH20 0xFFFFFFFFFFFFFFFFFFFFFFFFFFFFFFFFFFFFFFFF AND PUSH20 0xFFFFFFFFFFFFFFFFFFFFFFFFFFFFFFFFFFFFFFFF AND PUSH2 0x8FC SELFBALANCE SWAP1 DUP2 ISZERO MUL SWAP1 PUSH1 0x40 MLOAD PUSH1 0x0 PUSH1 0x40 MLOAD DUP1 DUP4 SUB DUP2 DUP6 DUP9 DUP9 CALL SWAP4 POP POP POP POP ISZERO DUP1 ISZERO PUSH2 0xE33 JUMPI RETURNDATASIZE PUSH1 0x0 DUP1 RETURNDATACOPY RETURNDATASIZE PUSH1 0x0 REVERT JUMPDEST POP JUMP JUMPDEST PUSH2 0xE3E PUSH2 0x2192 JUMP JUMPDEST PUSH20 0xFFFFFFFFFFFFFFFFFFFFFFFFFFFFFFFFFFFFFFFF AND DUP6 PUSH20 0xFFFFFFFFFFFFFFFFFFFFFFFFFFFFFFFFFFFFFFFF AND EQ DUP1 PUSH2 0xE84 JUMPI POP PUSH2 0xE83 DUP6 PUSH2 0xE7E PUSH2 0x2192 JUMP JUMPDEST PUSH2 0x19B7 JUMP JUMPDEST JUMPDEST PUSH2 0xEC3 JUMPI PUSH1 0x40 MLOAD PUSH32 0x8C379A000000000000000000000000000000000000000000000000000000000 DUP2 MSTORE PUSH1 0x4 ADD PUSH2 0xEBA SWAP1 PUSH2 0x4B4E JUMP JUMPDEST PUSH1 0x40 MLOAD DUP1 SWAP2 SUB SWAP1 REVERT JUMPDEST PUSH2 0xED0 DUP6 DUP6 DUP6 DUP6 DUP6 PUSH2 0x219A JUMP JUMPDEST POP POP POP POP POP JUMP JUMPDEST PUSH1 0x0 PUSH1 0x1 ISZERO ISZERO PUSH1 0x7 PUSH1 0x0 DUP5 DUP2 MSTORE PUSH1 0x20 ADD SWAP1 DUP2 MSTORE PUSH1 0x20 ADD PUSH1 0x0 KECCAK256 PUSH1 0x5 ADD PUSH1 0x0 SWAP1 SLOAD SWAP1 PUSH2 0x100 EXP SWAP1 DIV PUSH1 0xFF AND ISZERO ISZERO EQ ISZERO PUSH2 0xF12 JUMPI PUSH1 0x1 SWAP1 POP PUSH2 0xF17 JUMP JUMPDEST PUSH1 0x0 SWAP1 POP JUMPDEST SWAP2 SWAP1 POP JUMP JUMPDEST PUSH1 0x60 PUSH1 0x6 PUSH1 0x0 DUP4 PUSH20 0xFFFFFFFFFFFFFFFFFFFFFFFFFFFFFFFFFFFFFFFF AND PUSH20 0xFFFFFFFFFFFFFFFFFFFFFFFFFFFFFFFFFFFFFFFF AND DUP2 MSTORE PUSH1 0x20 ADD SWAP1 DUP2 MSTORE PUSH1 0x20 ADD PUSH1 0x0 KECCAK256 DUP1 SLOAD DUP1 PUSH1 0x20 MUL PUSH1 0x20 ADD PUSH1 0x40 MLOAD SWAP1 DUP2 ADD PUSH1 0x40 MSTORE DUP1 SWAP3 SWAP2 SWAP1 DUP2 DUP2 MSTORE PUSH1 0x20 ADD DUP3 DUP1 SLOAD DUP1 ISZERO PUSH2 0xFA7 JUMPI PUSH1 0x20 MUL DUP3 ADD SWAP2 SWAP1 PUSH1 0x0 MSTORE PUSH1 0x20 PUSH1 0x0 KECCAK256 SWAP1 JUMPDEST DUP2 SLOAD DUP2 MSTORE PUSH1 0x20 ADD SWAP1 PUSH1 0x1 ADD SWAP1 DUP1 DUP4 GT PUSH2 0xF93 JUMPI JUMPDEST POP POP POP POP POP SWAP1 POP SWAP2 SWAP1 POP JUMP JUMPDEST PUSH1 0x60 DUP2 MLOAD DUP4 MLOAD EQ PUSH2 0xFF9 JUMPI PUSH1 0x40 MLOAD PUSH32 0x8C379A000000000000000000000000000000000000000000000000000000000 DUP2 MSTORE PUSH1 0x4 ADD PUSH2 0xFF0 SWAP1 PUSH2 0x4BE0 JUMP JUMPDEST PUSH1 0x40 MLOAD DUP1 SWAP2 SUB SWAP1 REVERT JUMPDEST PUSH1 0x0 DUP4 MLOAD PUSH8 0xFFFFFFFFFFFFFFFF DUP2 GT ISZERO PUSH2 0x1016 JUMPI PUSH2 0x1015 PUSH2 0x3A43 JUMP JUMPDEST JUMPDEST PUSH1 0x40 MLOAD SWAP1 DUP1 DUP3 MSTORE DUP1 PUSH1 0x20 MUL PUSH1 0x20 ADD DUP3 ADD PUSH1 0x40 MSTORE DUP1 ISZERO PUSH2 0x1044 JUMPI DUP2 PUSH1 0x20 ADD PUSH1 0x20 DUP3 MUL DUP1 CALLDATASIZE DUP4 CALLDATACOPY DUP1 DUP3 ADD SWAP2 POP POP SWAP1 POP JUMPDEST POP SWAP1 POP PUSH1 0x0 JUMPDEST DUP5 MLOAD DUP2 LT ISZERO PUSH2 0x10C1 JUMPI PUSH2 0x1091 DUP6 DUP3 DUP2 MLOAD DUP2 LT PUSH2 0x1069 JUMPI PUSH2 0x1068 PUSH2 0x461C JUMP JUMPDEST JUMPDEST PUSH1 0x20 MUL PUSH1 0x20 ADD ADD MLOAD DUP6 DUP4 DUP2 MLOAD DUP2 LT PUSH2 0x1084 JUMPI PUSH2 0x1083 PUSH2 0x461C JUMP JUMPDEST JUMPDEST PUSH1 0x20 MUL PUSH1 0x20 ADD ADD MLOAD PUSH2 0x806 JUMP JUMPDEST DUP3 DUP3 DUP2 MLOAD DUP2 LT PUSH2 0x10A4 JUMPI PUSH2 0x10A3 PUSH2 0x461C JUMP JUMPDEST JUMPDEST PUSH1 0x20 MUL PUSH1 0x20 ADD ADD DUP2 DUP2 MSTORE POP POP DUP1 PUSH2 0x10BA SWAP1 PUSH2 0x46E6 JUMP JUMPDEST SWAP1 POP PUSH2 0x104A JUMP JUMPDEST POP DUP1 SWAP2 POP POP SWAP3 SWAP2 POP POP JUMP JUMPDEST PUSH1 0x0 PUSH1 0x7 PUSH1 0x0 DUP4 DUP2 MSTORE PUSH1 0x20 ADD SWAP1 DUP2 MSTORE PUSH1 0x20 ADD PUSH1 0x0 KECCAK256 PUSH1 0x2 ADD SLOAD SWAP1 POP SWAP2 SWAP1 POP JUMP JUMPDEST PUSH1 0x5 SLOAD CALLVALUE LT ISZERO PUSH2 0x1131 JUMPI PUSH1 0x40 MLOAD PUSH32 0x8C379A000000000000000000000000000000000000000000000000000000000 DUP2 MSTORE PUSH1 0x4 ADD PUSH2 0x1128 SWAP1 PUSH2 0x4C4C JUMP JUMPDEST PUSH1 0x40 MLOAD DUP1 SWAP2 SUB SWAP1 REVERT JUMPDEST PUSH1 0x1 ISZERO ISZERO PUSH1 0x7 PUSH1 0x0 DUP4 DUP2 MSTORE PUSH1 0x20 ADD SWAP1 DUP2 MSTORE PUSH1 0x20 ADD PUSH1 0x0 KECCAK256 PUSH1 0x5 ADD PUSH1 0x0 SWAP1 SLOAD SWAP1 PUSH2 0x100 EXP SWAP1 DIV PUSH1 0xFF AND ISZERO ISZERO EQ PUSH2 0x119B JUMPI PUSH1 0x40 MLOAD PUSH32 0x8C379A000000000000000000000000000000000000000000000000000000000 DUP2 MSTORE PUSH1 0x4 ADD PUSH2 0x1192 SWAP1 PUSH2 0x4CB8 JUMP JUMPDEST PUSH1 0x40 MLOAD DUP1 SWAP2 SUB SWAP1 REVERT JUMPDEST PUSH32 0x59E04C3F0D44B7CAF6E8EF854B61D9A51CF1960D7A88FF6356CC5E946B4B5832 CALLER CALLVALUE PUSH1 0x40 MLOAD PUSH2 0x11CC SWAP3 SWAP2 SWAP1 PUSH2 0x4D24 JUMP JUMPDEST PUSH1 0x40 MLOAD DUP1 SWAP2 SUB SWAP1 LOG1 PUSH1 0x0 PUSH1 0x7 PUSH1 0x0 DUP4 DUP2 MSTORE PUSH1 0x20 ADD SWAP1 DUP2 MSTORE PUSH1 0x20 ADD PUSH1 0x0 KECCAK256 PUSH1 0x5 ADD PUSH1 0x0 PUSH2 0x100 EXP DUP2 SLOAD DUP2 PUSH1 0xFF MUL NOT AND SWAP1 DUP4 ISZERO ISZERO MUL OR SWAP1 SSTORE POP POP JUMP JUMPDEST PUSH2 0x120E PUSH2 0x3761 JUMP JUMPDEST PUSH1 0x7 PUSH1 0x0 DUP4 DUP2 MSTORE PUSH1 0x20 ADD SWAP1 DUP2 MSTORE PUSH1 0x20 ADD PUSH1 0x0 KECCAK256 PUSH1 0x40 MLOAD DUP1 PUSH1 0xE0 ADD PUSH1 0x40 MSTORE SWAP1 DUP2 PUSH1 0x0 DUP3 ADD SLOAD DUP2 MSTORE PUSH1 0x20 ADD PUSH1 0x1 DUP3 ADD PUSH1 0x0 SWAP1 SLOAD SWAP1 PUSH2 0x100 EXP SWAP1 DIV PUSH20 0xFFFFFFFFFFFFFFFFFFFFFFFFFFFFFFFFFFFFFFFF AND PUSH20 0xFFFFFFFFFFFFFFFFFFFFFFFFFFFFFFFFFFFFFFFF AND PUSH20 0xFFFFFFFFFFFFFFFFFFFFFFFFFFFFFFFFFFFFFFFF AND DUP2 MSTORE PUSH1 0x20 ADD PUSH1 0x2 DUP3 ADD SLOAD DUP2 MSTORE PUSH1 0x20 ADD PUSH1 0x3 DUP3 ADD SLOAD DUP2 MSTORE PUSH1 0x20 ADD PUSH1 0x4 DUP3 ADD SLOAD DUP2 MSTORE PUSH1 0x20 ADD PUSH1 0x5 DUP3 ADD PUSH1 0x0 SWAP1 SLOAD SWAP1 PUSH2 0x100 EXP SWAP1 DIV PUSH1 0xFF AND ISZERO ISZERO ISZERO ISZERO DUP2 MSTORE PUSH1 0x20 ADD PUSH1 0x5 DUP3 ADD PUSH1 0x1 SWAP1 SLOAD SWAP1 PUSH2 0x100 EXP SWAP1 DIV PUSH1 0xFF AND ISZERO ISZERO ISZERO ISZERO DUP2 MSTORE POP POP SWAP1 POP SWAP2 SWAP1 POP JUMP JUMPDEST PUSH1 0x64 PUSH1 0x4 SLOAD LT PUSH2 0x132C JUMPI PUSH1 0x40 MLOAD PUSH32 0x8C379A000000000000000000000000000000000000000000000000000000000 DUP2 MSTORE PUSH1 0x4 ADD PUSH2 0x1323 SWAP1 PUSH2 0x4DAC JUMP JUMPDEST PUSH1 0x40 MLOAD DUP1 SWAP2 SUB SWAP1 REVERT JUMPDEST PUSH1 0x1 PUSH1 0x4 PUSH1 0x0 DUP3 DUP3 SLOAD PUSH2 0x133F SWAP2 SWAP1 PUSH2 0x49F4 JUMP JUMPDEST SWAP3 POP POP DUP2 SWAP1 SSTORE POP PUSH1 0x0 PUSH1 0x40 MLOAD DUP1 PUSH1 0xE0 ADD PUSH1 0x40 MSTORE DUP1 PUSH1 0x4 SLOAD DUP2 MSTORE PUSH1 0x20 ADD DUP4 PUSH20 0xFFFFFFFFFFFFFFFFFFFFFFFFFFFFFFFFFFFFFFFF AND DUP2 MSTORE PUSH1 0x20 ADD TIMESTAMP DUP2 MSTORE PUSH1 0x20 ADD PUSH1 0x0 DUP2 MSTORE PUSH1 0x20 ADD PUSH1 0x0 DUP2 MSTORE PUSH1 0x20 ADD PUSH1 0x1 ISZERO ISZERO DUP2 MSTORE PUSH1 0x20 ADD PUSH1 0x1 ISZERO ISZERO DUP2 MSTORE POP SWAP1 POP PUSH2 0x13E1 CALLER PUSH1 0x4 SLOAD PUSH1 0x1 PUSH1 0x40 MLOAD DUP1 PUSH1 0x40 ADD PUSH1 0x40 MSTORE DUP1 PUSH1 0x5 DUP2 MSTORE PUSH1 0x20 ADD PUSH32 0x73746F6E65000000000000000000000000000000000000000000000000000000 DUP2 MSTORE POP PUSH2 0x24BC JUMP JUMPDEST DUP1 PUSH1 0x7 PUSH1 0x0 PUSH1 0x4 SLOAD DUP2 MSTORE PUSH1 0x20 ADD SWAP1 DUP2 MSTORE PUSH1 0x20 ADD PUSH1 0x0 KECCAK256 PUSH1 0x0 DUP3 ADD MLOAD DUP2 PUSH1 0x0 ADD SSTORE PUSH1 0x20 DUP3 ADD MLOAD DUP2 PUSH1 0x1 ADD PUSH1 0x0 PUSH2 0x100 EXP DUP2 SLOAD DUP2 PUSH20 0xFFFFFFFFFFFFFFFFFFFFFFFFFFFFFFFFFFFFFFFF MUL NOT AND SWAP1 DUP4 PUSH20 0xFFFFFFFFFFFFFFFFFFFFFFFFFFFFFFFFFFFFFFFF AND MUL OR SWAP1 SSTORE POP PUSH1 0x40 DUP3 ADD MLOAD DUP2 PUSH1 0x2 ADD SSTORE PUSH1 0x60 DUP3 ADD MLOAD DUP2 PUSH1 0x3 ADD SSTORE PUSH1 0x80 DUP3 ADD MLOAD DUP2 PUSH1 0x4 ADD SSTORE PUSH1 0xA0 DUP3 ADD MLOAD DUP2 PUSH1 0x5 ADD PUSH1 0x0 PUSH2 0x100 EXP DUP2 SLOAD DUP2 PUSH1 0xFF MUL NOT AND SWAP1 DUP4 ISZERO ISZERO MUL OR SWAP1 SSTORE POP PUSH1 0xC0 DUP3 ADD MLOAD DUP2 PUSH1 0x5 ADD PUSH1 0x1 PUSH2 0x100 EXP DUP2 SLOAD DUP2 PUSH1 0xFF MUL NOT AND SWAP1 DUP4 ISZERO ISZERO MUL OR SWAP1 SSTORE POP SWAP1 POP POP PUSH2 0x14B4 PUSH1 0x4 SLOAD PUSH2 0xCA6 JUMP JUMPDEST DUP2 PUSH1 0x80 ADD DUP2 DUP2 MSTORE POP POP PUSH1 0x6 PUSH1 0x0 DUP4 PUSH20 0xFFFFFFFFFFFFFFFFFFFFFFFFFFFFFFFFFFFFFFFF AND PUSH20 0xFFFFFFFFFFFFFFFFFFFFFFFFFFFFFFFFFFFFFFFF AND DUP2 MSTORE PUSH1 0x20 ADD SWAP1 DUP2 MSTORE PUSH1 0x20 ADD PUSH1 0x0 KECCAK256 PUSH1 0x4 SLOAD SWAP1 DUP1 PUSH1 0x1 DUP2 SLOAD ADD DUP1 DUP3 SSTORE DUP1 SWAP2 POP POP PUSH1 0x1 SWAP1 SUB SWAP1 PUSH1 0x0 MSTORE PUSH1 0x20 PUSH1 0x0 KECCAK256 ADD PUSH1 0x0 SWAP1 SWAP2 SWAP1 SWAP2 SWAP1 SWAP2 POP SSTORE POP POP JUMP JUMPDEST PUSH1 0x0 PUSH1 0x7 PUSH1 0x0 DUP4 DUP2 MSTORE PUSH1 0x20 ADD SWAP1 DUP2 MSTORE PUSH1 0x20 ADD PUSH1 0x0 KECCAK256 PUSH1 0x3 ADD SLOAD SWAP1 POP SWAP2 SWAP1 POP JUMP JUMPDEST PUSH2 0x1551 PUSH2 0x2192 JUMP JUMPDEST PUSH20 0xFFFFFFFFFFFFFFFFFFFFFFFFFFFFFFFFFFFFFFFF AND DUP4 PUSH20 0xFFFFFFFFFFFFFFFFFFFFFFFFFFFFFFFFFFFFFFFF AND EQ DUP1 PUSH2 0x1597 JUMPI POP PUSH2 0x1596 DUP4 PUSH2 0x1591 PUSH2 0x2192 JUMP JUMPDEST PUSH2 0x19B7 JUMP JUMPDEST JUMPDEST PUSH2 0x15D6 JUMPI PUSH1 0x40 MLOAD PUSH32 0x8C379A000000000000000000000000000000000000000000000000000000000 DUP2 MSTORE PUSH1 0x4 ADD PUSH2 0x15CD SWAP1 PUSH2 0x4B4E JUMP JUMPDEST PUSH1 0x40 MLOAD DUP1 SWAP2 SUB SWAP1 REVERT JUMPDEST PUSH2 0x15E1 DUP4 DUP4 DUP4 PUSH2 0x266D JUMP JUMPDEST POP POP POP JUMP JUMPDEST PUSH2 0x15EE PUSH2 0x1DBB JUMP JUMPDEST PUSH2 0x15F8 PUSH1 0x0 PUSH2 0x293C JUMP JUMPDEST JUMP JUMPDEST PUSH1 0x0 PUSH1 0x7 PUSH1 0x0 DUP4 DUP2 MSTORE PUSH1 0x20 ADD SWAP1 DUP2 MSTORE PUSH1 0x20 ADD PUSH1 0x0 KECCAK256 PUSH1 0x1 ADD PUSH1 0x0 SWAP1 SLOAD SWAP1 PUSH2 0x100 EXP SWAP1 DIV PUSH20 0xFFFFFFFFFFFFFFFFFFFFFFFFFFFFFFFFFFFFFFFF AND SWAP1 POP SWAP2 SWAP1 POP JUMP JUMPDEST PUSH1 0x0 PUSH1 0x7 PUSH1 0x0 DUP6 DUP2 MSTORE PUSH1 0x20 ADD SWAP1 DUP2 MSTORE PUSH1 0x20 ADD PUSH1 0x0 KECCAK256 PUSH1 0x3 ADD SLOAD PUSH2 0x1681 PUSH2 0x165F DUP7 PUSH2 0x10CC JUMP JUMPDEST TIMESTAMP PUSH2 0x166A SWAP2 SWAP1 PUSH2 0x49C0 JUMP JUMPDEST PUSH3 0x4F1A00 PUSH2 0x1678 SWAP2 SWAP1 PUSH2 0x49C0 JUMP JUMPDEST PUSH3 0x4F1A00 PUSH2 0x2158 JUMP JUMPDEST PUSH2 0x168B SWAP2 SWAP1 PUSH2 0x49F4 JUMP JUMPDEST GT PUSH2 0x16CB JUMPI PUSH1 0x40 MLOAD PUSH32 0x8C379A000000000000000000000000000000000000000000000000000000000 DUP2 MSTORE PUSH1 0x4 ADD PUSH2 0x16C2 SWAP1 PUSH2 0x4E18 JUMP JUMPDEST PUSH1 0x40 MLOAD DUP1 SWAP2 SUB SWAP1 REVERT JUMPDEST PUSH1 0x7 PUSH1 0x0 DUP5 DUP2 MSTORE PUSH1 0x20 ADD SWAP1 DUP2 MSTORE PUSH1 0x20 ADD PUSH1 0x0 KECCAK256 PUSH1 0x1 ADD PUSH1 0x0 SWAP1 SLOAD SWAP1 PUSH2 0x100 EXP SWAP1 DIV PUSH20 0xFFFFFFFFFFFFFFFFFFFFFFFFFFFFFFFFFFFFFFFF AND PUSH20 0xFFFFFFFFFFFFFFFFFFFFFFFFFFFFFFFFFFFFFFFF AND DUP2 PUSH20 0xFFFFFFFFFFFFFFFFFFFFFFFFFFFFFFFFFFFFFFFF AND EQ PUSH2 0x176F JUMPI PUSH1 0x40 MLOAD PUSH32 0x8C379A000000000000000000000000000000000000000000000000000000000 DUP2 MSTORE PUSH1 0x4 ADD PUSH2 0x1766 SWAP1 PUSH2 0x4EAA JUMP JUMPDEST PUSH1 0x40 MLOAD DUP1 SWAP2 SUB SWAP1 REVERT JUMPDEST PUSH8 0xDE0B6B3A7640000 PUSH3 0x15180 DUP4 PUSH2 0x1787 SWAP2 SWAP1 PUSH2 0x4ECA JUMP JUMPDEST PUSH2 0x1791 SWAP2 SWAP1 PUSH2 0x4ECA JUMP JUMPDEST PUSH1 0x7 PUSH1 0x0 DUP6 DUP2 MSTORE PUSH1 0x20 ADD SWAP1 DUP2 MSTORE PUSH1 0x20 ADD PUSH1 0x0 KECCAK256 PUSH1 0x3 ADD PUSH1 0x0 DUP3 DUP3 SLOAD PUSH2 0x17B6 SWAP2 SWAP1 PUSH2 0x49F4 JUMP JUMPDEST SWAP3 POP POP DUP2 SWAP1 SSTORE POP POP POP POP JUMP JUMPDEST PUSH1 0x0 PUSH1 0x1 ISZERO ISZERO PUSH1 0x7 PUSH1 0x0 DUP5 DUP2 MSTORE PUSH1 0x20 ADD SWAP1 DUP2 MSTORE PUSH1 0x20 ADD PUSH1 0x0 KECCAK256 PUSH1 0x5 ADD PUSH1 0x0 SWAP1 SLOAD SWAP1 PUSH2 0x100 EXP SWAP1 DIV PUSH1 0xFF AND ISZERO ISZERO EQ PUSH2 0x182E JUMPI PUSH1 0x40 MLOAD PUSH32 0x8C379A000000000000000000000000000000000000000000000000000000000 DUP2 MSTORE PUSH1 0x4 ADD PUSH2 0x1825 SWAP1 PUSH2 0x4697 JUMP JUMPDEST PUSH1 0x40 MLOAD DUP1 SWAP2 SUB SWAP1 REVERT JUMPDEST PUSH1 0x1 SWAP1 POP SWAP2 SWAP1 POP JUMP JUMPDEST PUSH1 0x0 PUSH1 0x3 PUSH1 0x0 SWAP1 SLOAD SWAP1 PUSH2 0x100 EXP SWAP1 DIV PUSH20 0xFFFFFFFFFFFFFFFFFFFFFFFFFFFFFFFFFFFFFFFF AND SWAP1 POP SWAP1 JUMP JUMPDEST PUSH1 0x0 JUMPDEST DUP3 MLOAD DUP2 LT ISZERO PUSH2 0x18C8 JUMPI DUP2 PUSH1 0x7 PUSH1 0x0 DUP6 DUP5 DUP2 MLOAD DUP2 LT PUSH2 0x1885 JUMPI PUSH2 0x1884 PUSH2 0x461C JUMP JUMPDEST JUMPDEST PUSH1 0x20 MUL PUSH1 0x20 ADD ADD MLOAD DUP2 MSTORE PUSH1 0x20 ADD SWAP1 DUP2 MSTORE PUSH1 0x20 ADD PUSH1 0x0 KECCAK256 PUSH1 0x5 ADD PUSH1 0x0 PUSH2 0x100 EXP DUP2 SLOAD DUP2 PUSH1 0xFF MUL NOT AND SWAP1 DUP4 ISZERO ISZERO MUL OR SWAP1 SSTORE POP DUP1 DUP1 PUSH2 0x18C0 SWAP1 PUSH2 0x46E6 JUMP JUMPDEST SWAP2 POP POP PUSH2 0x1864 JUMP JUMPDEST POP POP POP JUMP JUMPDEST PUSH1 0x8 PUSH1 0x0 SWAP1 SLOAD SWAP1 PUSH2 0x100 EXP SWAP1 DIV PUSH20 0xFFFFFFFFFFFFFFFFFFFFFFFFFFFFFFFFFFFFFFFF AND PUSH20 0xFFFFFFFFFFFFFFFFFFFFFFFFFFFFFFFFFFFFFFFF AND CALLER PUSH20 0xFFFFFFFFFFFFFFFFFFFFFFFFFFFFFFFFFFFFFFFF AND EQ PUSH2 0x195D JUMPI PUSH1 0x40 MLOAD PUSH32 0x8C379A000000000000000000000000000000000000000000000000000000000 DUP2 MSTORE PUSH1 0x4 ADD PUSH2 0x1954 SWAP1 PUSH2 0x4ABC JUMP JUMPDEST PUSH1 0x40 MLOAD DUP1 SWAP2 SUB SWAP1 REVERT JUMPDEST DUP1 PUSH1 0x8 PUSH1 0x0 PUSH2 0x100 EXP DUP2 SLOAD DUP2 PUSH20 0xFFFFFFFFFFFFFFFFFFFFFFFFFFFFFFFFFFFFFFFF MUL NOT AND SWAP1 DUP4 PUSH20 0xFFFFFFFFFFFFFFFFFFFFFFFFFFFFFFFFFFFFFFFF AND MUL OR SWAP1 SSTORE POP POP JUMP JUMPDEST PUSH2 0x19B3 PUSH2 0x19AC PUSH2 0x2192 JUMP JUMPDEST DUP4 DUP4 PUSH2 0x2A02 JUMP JUMPDEST POP POP JUMP JUMPDEST PUSH1 0x0 PUSH1 0x1 PUSH1 0x0 DUP5 PUSH20 0xFFFFFFFFFFFFFFFFFFFFFFFFFFFFFFFFFFFFFFFF AND PUSH20 0xFFFFFFFFFFFFFFFFFFFFFFFFFFFFFFFFFFFFFFFF AND DUP2 MSTORE PUSH1 0x20 ADD SWAP1 DUP2 MSTORE PUSH1 0x20 ADD PUSH1 0x0 KECCAK256 PUSH1 0x0 DUP4 PUSH20 0xFFFFFFFFFFFFFFFFFFFFFFFFFFFFFFFFFFFFFFFF AND PUSH20 0xFFFFFFFFFFFFFFFFFFFFFFFFFFFFFFFFFFFFFFFF AND DUP2 MSTORE PUSH1 0x20 ADD SWAP1 DUP2 MSTORE PUSH1 0x20 ADD PUSH1 0x0 KECCAK256 PUSH1 0x0 SWAP1 SLOAD SWAP1 PUSH2 0x100 EXP SWAP1 DIV PUSH1 0xFF AND SWAP1 POP SWAP3 SWAP2 POP POP JUMP JUMPDEST PUSH1 0x1 PUSH2 0x1A57 DUP7 DUP6 PUSH2 0x806 JUMP JUMPDEST EQ PUSH2 0x1A97 JUMPI PUSH1 0x40 MLOAD PUSH32 0x8C379A000000000000000000000000000000000000000000000000000000000 DUP2 MSTORE PUSH1 0x4 ADD PUSH2 0x1A8E SWAP1 PUSH2 0x4F70 JUMP JUMPDEST PUSH1 0x40 MLOAD DUP1 SWAP2 SUB SWAP1 REVERT JUMPDEST PUSH1 0x0 ISZERO ISZERO PUSH1 0x7 PUSH1 0x0 DUP6 DUP2 MSTORE PUSH1 0x20 ADD SWAP1 DUP2 MSTORE PUSH1 0x20 ADD PUSH1 0x0 KECCAK256 PUSH1 0x5 ADD PUSH1 0x0 SWAP1 SLOAD SWAP1 PUSH2 0x100 EXP SWAP1 DIV PUSH1 0xFF AND ISZERO ISZERO EQ PUSH2 0x1B01 JUMPI PUSH1 0x40 MLOAD PUSH32 0x8C379A000000000000000000000000000000000000000000000000000000000 DUP2 MSTORE PUSH1 0x4 ADD PUSH2 0x1AF8 SWAP1 PUSH2 0x5002 JUMP JUMPDEST PUSH1 0x40 MLOAD DUP1 SWAP2 SUB SWAP1 REVERT JUMPDEST PUSH2 0x1B0E DUP6 DUP6 DUP6 DUP6 DUP6 PUSH2 0x2B6F JUMP JUMPDEST PUSH1 0x6 PUSH1 0x0 DUP6 PUSH20 0xFFFFFFFFFFFFFFFFFFFFFFFFFFFFFFFFFFFFFFFF AND PUSH20 0xFFFFFFFFFFFFFFFFFFFFFFFFFFFFFFFFFFFFFFFF AND DUP2 MSTORE PUSH1 0x20 ADD SWAP1 DUP2 MSTORE PUSH1 0x20 ADD PUSH1 0x0 KECCAK256 DUP4 SWAP1 DUP1 PUSH1 0x1 DUP2 SLOAD ADD DUP1 DUP3 SSTORE DUP1 SWAP2 POP POP PUSH1 0x1 SWAP1 SUB SWAP1 PUSH1 0x0 MSTORE PUSH1 0x20 PUSH1 0x0 KECCAK256 ADD PUSH1 0x0 SWAP1 SWAP2 SWAP1 SWAP2 SWAP1 SWAP2 POP SSTORE PUSH1 0x6 PUSH1 0x0 DUP7 PUSH20 0xFFFFFFFFFFFFFFFFFFFFFFFFFFFFFFFFFFFFFFFF AND PUSH20 0xFFFFFFFFFFFFFFFFFFFFFFFFFFFFFFFFFFFFFFFF AND DUP2 MSTORE PUSH1 0x20 ADD SWAP1 DUP2 MSTORE PUSH1 0x20 ADD PUSH1 0x0 KECCAK256 PUSH2 0x1BBD DUP7 DUP6 PUSH2 0x2C10 JUMP JUMPDEST DUP2 SLOAD DUP2 LT PUSH2 0x1BCE JUMPI PUSH2 0x1BCD PUSH2 0x461C JUMP JUMPDEST JUMPDEST SWAP1 PUSH1 0x0 MSTORE PUSH1 0x20 PUSH1 0x0 KECCAK256 ADD PUSH1 0x0 SWAP1 SSTORE PUSH1 0x1 PUSH1 0x7 PUSH1 0x0 DUP6 DUP2 MSTORE PUSH1 0x20 ADD SWAP1 DUP2 MSTORE PUSH1 0x20 ADD PUSH1 0x0 KECCAK256 PUSH1 0x5 ADD PUSH1 0x0 PUSH2 0x100 EXP DUP2 SLOAD DUP2 PUSH1 0xFF MUL NOT AND SWAP1 DUP4 ISZERO ISZERO MUL OR SWAP1 SSTORE POP POP POP POP POP POP JUMP JUMPDEST PUSH2 0x1C1A PUSH2 0x1DBB JUMP JUMPDEST PUSH1 0x0 PUSH20 0xFFFFFFFFFFFFFFFFFFFFFFFFFFFFFFFFFFFFFFFF AND DUP2 PUSH20 0xFFFFFFFFFFFFFFFFFFFFFFFFFFFFFFFFFFFFFFFF AND EQ ISZERO PUSH2 0x1C8A JUMPI PUSH1 0x40 MLOAD PUSH32 0x8C379A000000000000000000000000000000000000000000000000000000000 DUP2 MSTORE PUSH1 0x4 ADD PUSH2 0x1C81 SWAP1 PUSH2 0x5094 JUMP JUMPDEST PUSH1 0x40 MLOAD DUP1 SWAP2 SUB SWAP1 REVERT JUMPDEST PUSH2 0x1C93 DUP2 PUSH2 0x293C JUMP JUMPDEST POP JUMP JUMPDEST PUSH2 0x1C9E PUSH2 0x2192 JUMP JUMPDEST PUSH20 0xFFFFFFFFFFFFFFFFFFFFFFFFFFFFFFFFFFFFFFFF AND DUP4 PUSH20 0xFFFFFFFFFFFFFFFFFFFFFFFFFFFFFFFFFFFFFFFF AND EQ DUP1 PUSH2 0x1CE4 JUMPI POP PUSH2 0x1CE3 DUP4 PUSH2 0x1CDE PUSH2 0x2192 JUMP JUMPDEST PUSH2 0x19B7 JUMP JUMPDEST JUMPDEST PUSH2 0x1D23 JUMPI PUSH1 0x40 MLOAD PUSH32 0x8C379A000000000000000000000000000000000000000000000000000000000 DUP2 MSTORE PUSH1 0x4 ADD PUSH2 0x1D1A SWAP1 PUSH2 0x4B4E JUMP JUMPDEST PUSH1 0x40 MLOAD DUP1 SWAP2 SUB SWAP1 REVERT JUMPDEST PUSH2 0x1D2E DUP4 DUP4 DUP4 PUSH2 0x2CB0 JUMP JUMPDEST POP POP POP JUMP JUMPDEST PUSH1 0x0 DUP1 PUSH1 0x64 SWAP1 POP PUSH1 0x4 SLOAD DUP2 PUSH2 0x1D48 SWAP2 SWAP1 PUSH2 0x49C0 JUMP JUMPDEST SWAP1 POP DUP1 SWAP2 POP POP SWAP1 JUMP JUMPDEST PUSH1 0x0 PUSH32 0x1FFC9A700000000000000000000000000000000000000000000000000000000 PUSH28 0xFFFFFFFFFFFFFFFFFFFFFFFFFFFFFFFFFFFFFFFFFFFFFFFFFFFFFFFF NOT AND DUP3 PUSH28 0xFFFFFFFFFFFFFFFFFFFFFFFFFFFFFFFFFFFFFFFFFFFFFFFFFFFFFFFF NOT AND EQ SWAP1 POP SWAP2 SWAP1 POP JUMP JUMPDEST PUSH2 0x1DC3 PUSH2 0x2192 JUMP JUMPDEST PUSH20 0xFFFFFFFFFFFFFFFFFFFFFFFFFFFFFFFFFFFFFFFF AND PUSH2 0x1DE1 PUSH2 0x1837 JUMP JUMPDEST PUSH20 0xFFFFFFFFFFFFFFFFFFFFFFFFFFFFFFFFFFFFFFFF AND EQ PUSH2 0x1E37 JUMPI PUSH1 0x40 MLOAD PUSH32 0x8C379A000000000000000000000000000000000000000000000000000000000 DUP2 MSTORE PUSH1 0x4 ADD PUSH2 0x1E2E SWAP1 PUSH2 0x5100 JUMP JUMPDEST PUSH1 0x40 MLOAD DUP1 SWAP2 SUB SWAP1 REVERT JUMPDEST JUMP JUMPDEST DUP1 PUSH1 0x2 SWAP1 DUP1 MLOAD SWAP1 PUSH1 0x20 ADD SWAP1 PUSH2 0x1E4F SWAP3 SWAP2 SWAP1 PUSH2 0x37B8 JUMP JUMPDEST POP POP JUMP JUMPDEST PUSH1 0x60 PUSH1 0x0 PUSH1 0x1 PUSH2 0x1E62 DUP5 PUSH2 0x2EF7 JUMP JUMPDEST ADD SWAP1 POP PUSH1 0x0 DUP2 PUSH8 0xFFFFFFFFFFFFFFFF DUP2 GT ISZERO PUSH2 0x1E81 JUMPI PUSH2 0x1E80 PUSH2 0x3A43 JUMP JUMPDEST JUMPDEST PUSH1 0x40 MLOAD SWAP1 DUP1 DUP3 MSTORE DUP1 PUSH1 0x1F ADD PUSH1 0x1F NOT AND PUSH1 0x20 ADD DUP3 ADD PUSH1 0x40 MSTORE DUP1 ISZERO PUSH2 0x1EB3 JUMPI DUP2 PUSH1 0x20 ADD PUSH1 0x1 DUP3 MUL DUP1 CALLDATASIZE DUP4 CALLDATACOPY DUP1 DUP3 ADD SWAP2 POP POP SWAP1 POP JUMPDEST POP SWAP1 POP PUSH1 0x0 DUP3 PUSH1 0x20 ADD DUP3 ADD SWAP1 POP JUMPDEST PUSH1 0x1 ISZERO PUSH2 0x1F20 JUMPI DUP1 DUP1 PUSH1 0x1 SWAP1 SUB SWAP2 POP POP PUSH32 0x3031323334353637383961626364656600000000000000000000000000000000 PUSH1 0xA DUP7 MOD BYTE DUP2 MSTORE8 PUSH1 0xA DUP6 DUP2 PUSH2 0x1F0A JUMPI PUSH2 0x1F09 PUSH2 0x5120 JUMP JUMPDEST JUMPDEST DIV SWAP5 POP PUSH1 0x0 DUP6 EQ ISZERO PUSH2 0x1F1B JUMPI PUSH2 0x1F20 JUMP JUMPDEST PUSH2 0x1EC1 JUMP JUMPDEST DUP2 SWAP4 POP POP POP POP SWAP2 SWAP1 POP JUMP JUMPDEST PUSH1 0x0 PUSH20 0xFFFFFFFFFFFFFFFFFFFFFFFFFFFFFFFFFFFFFFFF AND DUP5 PUSH20 0xFFFFFFFFFFFFFFFFFFFFFFFFFFFFFFFFFFFFFFFF AND EQ ISZERO PUSH2 0x1F9B JUMPI PUSH1 0x40 MLOAD PUSH32 0x8C379A000000000000000000000000000000000000000000000000000000000 DUP2 MSTORE PUSH1 0x4 ADD PUSH2 0x1F92 SWAP1 PUSH2 0x51C1 JUMP JUMPDEST PUSH1 0x40 MLOAD DUP1 SWAP2 SUB SWAP1 REVERT JUMPDEST DUP2 MLOAD DUP4 MLOAD EQ PUSH2 0x1FDF JUMPI PUSH1 0x40 MLOAD PUSH32 0x8C379A000000000000000000000000000000000000000000000000000000000 DUP2 MSTORE PUSH1 0x4 ADD PUSH2 0x1FD6 SWAP1 PUSH2 0x5253 JUMP JUMPDEST PUSH1 0x40 MLOAD DUP1 SWAP2 SUB SWAP1 REVERT JUMPDEST PUSH1 0x0 PUSH2 0x1FE9 PUSH2 0x2192 JUMP JUMPDEST SWAP1 POP PUSH2 0x1FFA DUP2 PUSH1 0x0 DUP8 DUP8 DUP8 DUP8 PUSH2 0x304A JUMP JUMPDEST PUSH1 0x0 JUMPDEST DUP5 MLOAD DUP2 LT ISZERO PUSH2 0x20B3 JUMPI DUP4 DUP2 DUP2 MLOAD DUP2 LT PUSH2 0x2019 JUMPI PUSH2 0x2018 PUSH2 0x461C JUMP JUMPDEST JUMPDEST PUSH1 0x20 MUL PUSH1 0x20 ADD ADD MLOAD PUSH1 0x0 DUP1 DUP8 DUP5 DUP2 MLOAD DUP2 LT PUSH2 0x2037 JUMPI PUSH2 0x2036 PUSH2 0x461C JUMP JUMPDEST JUMPDEST PUSH1 0x20 MUL PUSH1 0x20 ADD ADD MLOAD DUP2 MSTORE PUSH1 0x20 ADD SWAP1 DUP2 MSTORE PUSH1 0x20 ADD PUSH1 0x0 KECCAK256 PUSH1 0x0 DUP9 PUSH20 0xFFFFFFFFFFFFFFFFFFFFFFFFFFFFFFFFFFFFFFFF AND PUSH20 0xFFFFFFFFFFFFFFFFFFFFFFFFFFFFFFFFFFFFFFFF AND DUP2 MSTORE PUSH1 0x20 ADD SWAP1 DUP2 MSTORE PUSH1 0x20 ADD PUSH1 0x0 KECCAK256 PUSH1 0x0 DUP3 DUP3 SLOAD PUSH2 0x2099 SWAP2 SWAP1 PUSH2 0x49F4 JUMP JUMPDEST SWAP3 POP POP DUP2 SWAP1 SSTORE POP DUP1 DUP1 PUSH2 0x20AB SWAP1 PUSH2 0x46E6 JUMP JUMPDEST SWAP2 POP POP PUSH2 0x1FFD JUMP JUMPDEST POP DUP5 PUSH20 0xFFFFFFFFFFFFFFFFFFFFFFFFFFFFFFFFFFFFFFFF AND PUSH1 0x0 PUSH20 0xFFFFFFFFFFFFFFFFFFFFFFFFFFFFFFFFFFFFFFFF AND DUP3 PUSH20 0xFFFFFFFFFFFFFFFFFFFFFFFFFFFFFFFFFFFFFFFF AND PUSH32 0x4A39DC06D4C0DBC64B70AF90FD698A233A518AA5D07E595D983B8C0526C8F7FB DUP8 DUP8 PUSH1 0x40 MLOAD PUSH2 0x212B SWAP3 SWAP2 SWAP1 PUSH2 0x5273 JUMP JUMPDEST PUSH1 0x40 MLOAD DUP1 SWAP2 SUB SWAP1 LOG4 PUSH2 0x2142 DUP2 PUSH1 0x0 DUP8 DUP8 DUP8 DUP8 PUSH2 0x3052 JUMP JUMPDEST PUSH2 0x2151 DUP2 PUSH1 0x0 DUP8 DUP8 DUP8 DUP8 PUSH2 0x305A JUMP JUMPDEST POP POP POP POP POP JUMP JUMPDEST PUSH1 0x0 DUP1 DUP3 EQ ISZERO PUSH2 0x216B JUMPI PUSH2 0x216A PUSH2 0x52AA JUMP JUMPDEST JUMPDEST DUP2 PUSH8 0xDE0B6B3A7640000 DUP5 PUSH2 0x2180 SWAP2 SWAP1 PUSH2 0x4ECA JUMP JUMPDEST PUSH2 0x218A SWAP2 SWAP1 PUSH2 0x52D9 JUMP JUMPDEST SWAP1 POP SWAP3 SWAP2 POP POP JUMP JUMPDEST PUSH1 0x0 CALLER SWAP1 POP SWAP1 JUMP JUMPDEST DUP2 MLOAD DUP4 MLOAD EQ PUSH2 0x21DE JUMPI PUSH1 0x40 MLOAD PUSH32 0x8C379A000000000000000000000000000000000000000000000000000000000 DUP2 MSTORE PUSH1 0x4 ADD PUSH2 0x21D5 SWAP1 PUSH2 0x5253 JUMP JUMPDEST PUSH1 0x40 MLOAD DUP1 SWAP2 SUB SWAP1 REVERT JUMPDEST PUSH1 0x0 PUSH20 0xFFFFFFFFFFFFFFFFFFFFFFFFFFFFFFFFFFFFFFFF AND DUP5 PUSH20 0xFFFFFFFFFFFFFFFFFFFFFFFFFFFFFFFFFFFFFFFF AND EQ ISZERO PUSH2 0x224E JUMPI PUSH1 0x40 MLOAD PUSH32 0x8C379A000000000000000000000000000000000000000000000000000000000 DUP2 MSTORE PUSH1 0x4 ADD PUSH2 0x2245 SWAP1 PUSH2 0x537C JUMP JUMPDEST PUSH1 0x40 MLOAD DUP1 SWAP2 SUB SWAP1 REVERT JUMPDEST PUSH1 0x0 PUSH2 0x2258 PUSH2 0x2192 JUMP JUMPDEST SWAP1 POP PUSH2 0x2268 DUP2 DUP8 DUP8 DUP8 DUP8 DUP8 PUSH2 0x304A JUMP JUMPDEST PUSH1 0x0 JUMPDEST DUP5 MLOAD DUP2 LT ISZERO PUSH2 0x2419 JUMPI PUSH1 0x0 DUP6 DUP3 DUP2 MLOAD DUP2 LT PUSH2 0x2289 JUMPI PUSH2 0x2288 PUSH2 0x461C JUMP JUMPDEST JUMPDEST PUSH1 0x20 MUL PUSH1 0x20 ADD ADD MLOAD SWAP1 POP PUSH1 0x0 DUP6 DUP4 DUP2 MLOAD DUP2 LT PUSH2 0x22A8 JUMPI PUSH2 0x22A7 PUSH2 0x461C JUMP JUMPDEST JUMPDEST PUSH1 0x20 MUL PUSH1 0x20 ADD ADD MLOAD SWAP1 POP PUSH1 0x0 DUP1 PUSH1 0x0 DUP5 DUP2 MSTORE PUSH1 0x20 ADD SWAP1 DUP2 MSTORE PUSH1 0x20 ADD PUSH1 0x0 KECCAK256 PUSH1 0x0 DUP12 PUSH20 0xFFFFFFFFFFFFFFFFFFFFFFFFFFFFFFFFFFFFFFFF AND PUSH20 0xFFFFFFFFFFFFFFFFFFFFFFFFFFFFFFFFFFFFFFFF AND DUP2 MSTORE PUSH1 0x20 ADD SWAP1 DUP2 MSTORE PUSH1 0x20 ADD PUSH1 0x0 KECCAK256 SLOAD SWAP1 POP DUP2 DUP2 LT ISZERO PUSH2 0x2349 JUMPI PUSH1 0x40 MLOAD PUSH32 0x8C379A000000000000000000000000000000000000000000000000000000000 DUP2 MSTORE PUSH1 0x4 ADD PUSH2 0x2340 SWAP1 PUSH2 0x540E JUMP JUMPDEST PUSH1 0x40 MLOAD DUP1 SWAP2 SUB SWAP1 REVERT JUMPDEST DUP2 DUP2 SUB PUSH1 0x0 DUP1 DUP6 DUP2 MSTORE PUSH1 0x20 ADD SWAP1 DUP2 MSTORE PUSH1 0x20 ADD PUSH1 0x0 KECCAK256 PUSH1 0x0 DUP13 PUSH20 0xFFFFFFFFFFFFFFFFFFFFFFFFFFFFFFFFFFFFFFFF AND PUSH20 0xFFFFFFFFFFFFFFFFFFFFFFFFFFFFFFFFFFFFFFFF AND DUP2 MSTORE PUSH1 0x20 ADD SWAP1 DUP2 MSTORE PUSH1 0x20 ADD PUSH1 0x0 KECCAK256 DUP2 SWAP1 SSTORE POP DUP2 PUSH1 0x0 DUP1 DUP6 DUP2 MSTORE PUSH1 0x20 ADD SWAP1 DUP2 MSTORE PUSH1 0x20 ADD PUSH1 0x0 KECCAK256 PUSH1 0x0 DUP12 PUSH20 0xFFFFFFFFFFFFFFFFFFFFFFFFFFFFFFFFFFFFFFFF AND PUSH20 0xFFFFFFFFFFFFFFFFFFFFFFFFFFFFFFFFFFFFFFFF AND DUP2 MSTORE PUSH1 0x20 ADD SWAP1 DUP2 MSTORE PUSH1 0x20 ADD PUSH1 0x0 KECCAK256 PUSH1 0x0 DUP3 DUP3 SLOAD PUSH2 0x23FE SWAP2 SWAP1 PUSH2 0x49F4 JUMP JUMPDEST SWAP3 POP POP DUP2 SWAP1 SSTORE POP POP POP POP DUP1 PUSH2 0x2412 SWAP1 PUSH2 0x46E6 JUMP JUMPDEST SWAP1 POP PUSH2 0x226B JUMP JUMPDEST POP DUP5 PUSH20 0xFFFFFFFFFFFFFFFFFFFFFFFFFFFFFFFFFFFFFFFF AND DUP7 PUSH20 0xFFFFFFFFFFFFFFFFFFFFFFFFFFFFFFFFFFFFFFFF AND DUP3 PUSH20 0xFFFFFFFFFFFFFFFFFFFFFFFFFFFFFFFFFFFFFFFF AND PUSH32 0x4A39DC06D4C0DBC64B70AF90FD698A233A518AA5D07E595D983B8C0526C8F7FB DUP8 DUP8 PUSH1 0x40 MLOAD PUSH2 0x2490 SWAP3 SWAP2 SWAP1 PUSH2 0x5273 JUMP JUMPDEST PUSH1 0x40 MLOAD DUP1 SWAP2 SUB SWAP1 LOG4 PUSH2 0x24A6 DUP2 DUP8 DUP8 DUP8 DUP8 DUP8 PUSH2 0x3052 JUMP JUMPDEST PUSH2 0x24B4 DUP2 DUP8 DUP8 DUP8 DUP8 DUP8 PUSH2 0x305A JUMP JUMPDEST POP POP POP POP POP POP JUMP JUMPDEST PUSH1 0x0 PUSH20 0xFFFFFFFFFFFFFFFFFFFFFFFFFFFFFFFFFFFFFFFF AND DUP5 PUSH20 0xFFFFFFFFFFFFFFFFFFFFFFFFFFFFFFFFFFFFFFFF AND EQ ISZERO PUSH2 0x252C JUMPI PUSH1 0x40 MLOAD PUSH32 0x8C379A000000000000000000000000000000000000000000000000000000000 DUP2 MSTORE PUSH1 0x4 ADD PUSH2 0x2523 SWAP1 PUSH2 0x51C1 JUMP JUMPDEST PUSH1 0x40 MLOAD DUP1 SWAP2 SUB SWAP1 REVERT JUMPDEST PUSH1 0x0 PUSH2 0x2536 PUSH2 0x2192 JUMP JUMPDEST SWAP1 POP PUSH1 0x0 PUSH2 0x2543 DUP6 PUSH2 0x3241 JUMP JUMPDEST SWAP1 POP PUSH1 0x0 PUSH2 0x2550 DUP6 PUSH2 0x3241 JUMP JUMPDEST SWAP1 POP PUSH2 0x2561 DUP4 PUSH1 0x0 DUP10 DUP6 DUP6 DUP10 PUSH2 0x304A JUMP JUMPDEST DUP5 PUSH1 0x0 DUP1 DUP9 DUP2 MSTORE PUSH1 0x20 ADD SWAP1 DUP2 MSTORE PUSH1 0x20 ADD PUSH1 0x0 KECCAK256 PUSH1 0x0 DUP10 PUSH20 0xFFFFFFFFFFFFFFFFFFFFFFFFFFFFFFFFFFFFFFFF AND PUSH20 0xFFFFFFFFFFFFFFFFFFFFFFFFFFFFFFFFFFFFFFFF AND DUP2 MSTORE PUSH1 0x20 ADD SWAP1 DUP2 MSTORE PUSH1 0x20 ADD PUSH1 0x0 KECCAK256 PUSH1 0x0 DUP3 DUP3 SLOAD PUSH2 0x25C0 SWAP2 SWAP1 PUSH2 0x49F4 JUMP JUMPDEST SWAP3 POP POP DUP2 SWAP1 SSTORE POP DUP7 PUSH20 0xFFFFFFFFFFFFFFFFFFFFFFFFFFFFFFFFFFFFFFFF AND PUSH1 0x0 PUSH20 0xFFFFFFFFFFFFFFFFFFFFFFFFFFFFFFFFFFFFFFFF AND DUP5 PUSH20 0xFFFFFFFFFFFFFFFFFFFFFFFFFFFFFFFFFFFFFFFF AND PUSH32 0xC3D58168C5AE7397731D063D5BBF3D657854427343F4C083240F7AACAA2D0F62 DUP10 DUP10 PUSH1 0x40 MLOAD PUSH2 0x263E SWAP3 SWAP2 SWAP1 PUSH2 0x542E JUMP JUMPDEST PUSH1 0x40 MLOAD DUP1 SWAP2 SUB SWAP1 LOG4 PUSH2 0x2655 DUP4 PUSH1 0x0 DUP10 DUP6 DUP6 DUP10 PUSH2 0x3052 JUMP JUMPDEST PUSH2 0x2664 DUP4 PUSH1 0x0 DUP10 DUP10 DUP10 DUP10 PUSH2 0x32BB JUMP JUMPDEST POP POP POP POP POP POP POP JUMP JUMPDEST PUSH1 0x0 PUSH20 0xFFFFFFFFFFFFFFFFFFFFFFFFFFFFFFFFFFFFFFFF AND DUP4 PUSH20 0xFFFFFFFFFFFFFFFFFFFFFFFFFFFFFFFFFFFFFFFF AND EQ ISZERO PUSH2 0x26DD JUMPI PUSH1 0x40 MLOAD PUSH32 0x8C379A000000000000000000000000000000000000000000000000000000000 DUP2 MSTORE PUSH1 0x4 ADD PUSH2 0x26D4 SWAP1 PUSH2 0x54C9 JUMP JUMPDEST PUSH1 0x40 MLOAD DUP1 SWAP2 SUB SWAP1 REVERT JUMPDEST DUP1 MLOAD DUP3 MLOAD EQ PUSH2 0x2721 JUMPI PUSH1 0x40 MLOAD PUSH32 0x8C379A000000000000000000000000000000000000000000000000000000000 DUP2 MSTORE PUSH1 0x4 ADD PUSH2 0x2718 SWAP1 PUSH2 0x5253 JUMP JUMPDEST PUSH1 0x40 MLOAD DUP1 SWAP2 SUB SWAP1 REVERT JUMPDEST PUSH1 0x0 PUSH2 0x272B PUSH2 0x2192 JUMP JUMPDEST SWAP1 POP PUSH2 0x274B DUP2 DUP6 PUSH1 0x0 DUP7 DUP7 PUSH1 0x40 MLOAD DUP1 PUSH1 0x20 ADD PUSH1 0x40 MSTORE DUP1 PUSH1 0x0 DUP2 MSTORE POP PUSH2 0x304A JUMP JUMPDEST PUSH1 0x0 JUMPDEST DUP4 MLOAD DUP2 LT ISZERO PUSH2 0x2898 JUMPI PUSH1 0x0 DUP5 DUP3 DUP2 MLOAD DUP2 LT PUSH2 0x276C JUMPI PUSH2 0x276B PUSH2 0x461C JUMP JUMPDEST JUMPDEST PUSH1 0x20 MUL PUSH1 0x20 ADD ADD MLOAD SWAP1 POP PUSH1 0x0 DUP5 DUP4 DUP2 MLOAD DUP2 LT PUSH2 0x278B JUMPI PUSH2 0x278A PUSH2 0x461C JUMP JUMPDEST JUMPDEST PUSH1 0x20 MUL PUSH1 0x20 ADD ADD MLOAD SWAP1 POP PUSH1 0x0 DUP1 PUSH1 0x0 DUP5 DUP2 MSTORE PUSH1 0x20 ADD SWAP1 DUP2 MSTORE PUSH1 0x20 ADD PUSH1 0x0 KECCAK256 PUSH1 0x0 DUP10 PUSH20 0xFFFFFFFFFFFFFFFFFFFFFFFFFFFFFFFFFFFFFFFF AND PUSH20 0xFFFFFFFFFFFFFFFFFFFFFFFFFFFFFFFFFFFFFFFF AND DUP2 MSTORE PUSH1 0x20 ADD SWAP1 DUP2 MSTORE PUSH1 0x20 ADD PUSH1 0x0 KECCAK256 SLOAD SWAP1 POP DUP2 DUP2 LT ISZERO PUSH2 0x282C JUMPI PUSH1 0x40 MLOAD PUSH32 0x8C379A000000000000000000000000000000000000000000000000000000000 DUP2 MSTORE PUSH1 0x4 ADD PUSH2 0x2823 SWAP1 PUSH2 0x555B JUMP JUMPDEST PUSH1 0x40 MLOAD DUP1 SWAP2 SUB SWAP1 REVERT JUMPDEST DUP2 DUP2 SUB PUSH1 0x0 DUP1 DUP6 DUP2 MSTORE PUSH1 0x20 ADD SWAP1 DUP2 MSTORE PUSH1 0x20 ADD PUSH1 0x0 KECCAK256 PUSH1 0x0 DUP11 PUSH20 0xFFFFFFFFFFFFFFFFFFFFFFFFFFFFFFFFFFFFFFFF AND PUSH20 0xFFFFFFFFFFFFFFFFFFFFFFFFFFFFFFFFFFFFFFFF AND DUP2 MSTORE PUSH1 0x20 ADD SWAP1 DUP2 MSTORE PUSH1 0x20 ADD PUSH1 0x0 KECCAK256 DUP2 SWAP1 SSTORE POP POP POP POP DUP1 DUP1 PUSH2 0x2890 SWAP1 PUSH2 0x46E6 JUMP JUMPDEST SWAP2 POP POP PUSH2 0x274E JUMP JUMPDEST POP PUSH1 0x0 PUSH20 0xFFFFFFFFFFFFFFFFFFFFFFFFFFFFFFFFFFFFFFFF AND DUP5 PUSH20 0xFFFFFFFFFFFFFFFFFFFFFFFFFFFFFFFFFFFFFFFF AND DUP3 PUSH20 0xFFFFFFFFFFFFFFFFFFFFFFFFFFFFFFFFFFFFFFFF AND PUSH32 0x4A39DC06D4C0DBC64B70AF90FD698A233A518AA5D07E595D983B8C0526C8F7FB DUP7 DUP7 PUSH1 0x40 MLOAD PUSH2 0x2910 SWAP3 SWAP2 SWAP1 PUSH2 0x5273 JUMP JUMPDEST PUSH1 0x40 MLOAD DUP1 SWAP2 SUB SWAP1 LOG4 PUSH2 0x2936 DUP2 DUP6 PUSH1 0x0 DUP7 DUP7 PUSH1 0x40 MLOAD DUP1 PUSH1 0x20 ADD PUSH1 0x40 MSTORE DUP1 PUSH1 0x0 DUP2 MSTORE POP PUSH2 0x3052 JUMP JUMPDEST POP POP POP POP JUMP JUMPDEST PUSH1 0x0 PUSH1 0x3 PUSH1 0x0 SWAP1 SLOAD SWAP1 PUSH2 0x100 EXP SWAP1 DIV PUSH20 0xFFFFFFFFFFFFFFFFFFFFFFFFFFFFFFFFFFFFFFFF AND SWAP1 POP DUP2 PUSH1 0x3 PUSH1 0x0 PUSH2 0x100 EXP DUP2 SLOAD DUP2 PUSH20 0xFFFFFFFFFFFFFFFFFFFFFFFFFFFFFFFFFFFFFFFF MUL NOT AND SWAP1 DUP4 PUSH20 0xFFFFFFFFFFFFFFFFFFFFFFFFFFFFFFFFFFFFFFFF AND MUL OR SWAP1 SSTORE POP DUP2 PUSH20 0xFFFFFFFFFFFFFFFFFFFFFFFFFFFFFFFFFFFFFFFF AND DUP2 PUSH20 0xFFFFFFFFFFFFFFFFFFFFFFFFFFFFFFFFFFFFFFFF AND PUSH32 0x8BE0079C531659141344CD1FD0A4F28419497F9722A3DAAFE3B4186F6B6457E0 PUSH1 0x40 MLOAD PUSH1 0x40 MLOAD DUP1 SWAP2 SUB SWAP1 LOG3 POP POP JUMP JUMPDEST DUP2 PUSH20 0xFFFFFFFFFFFFFFFFFFFFFFFFFFFFFFFFFFFFFFFF AND DUP4 PUSH20 0xFFFFFFFFFFFFFFFFFFFFFFFFFFFFFFFFFFFFFFFF AND EQ ISZERO PUSH2 0x2A71 JUMPI PUSH1 0x40 MLOAD PUSH32 0x8C379A000000000000000000000000000000000000000000000000000000000 DUP2 MSTORE PUSH1 0x4 ADD PUSH2 0x2A68 SWAP1 PUSH2 0x55ED JUMP JUMPDEST PUSH1 0x40 MLOAD DUP1 SWAP2 SUB SWAP1 REVERT JUMPDEST DUP1 PUSH1 0x1 PUSH1 0x0 DUP6 PUSH20 0xFFFFFFFFFFFFFFFFFFFFFFFFFFFFFFFFFFFFFFFF AND PUSH20 0xFFFFFFFFFFFFFFFFFFFFFFFFFFFFFFFFFFFFFFFF AND DUP2 MSTORE PUSH1 0x20 ADD SWAP1 DUP2 MSTORE PUSH1 0x20 ADD PUSH1 0x0 KECCAK256 PUSH1 0x0 DUP5 PUSH20 0xFFFFFFFFFFFFFFFFFFFFFFFFFFFFFFFFFFFFFFFF AND PUSH20 0xFFFFFFFFFFFFFFFFFFFFFFFFFFFFFFFFFFFFFFFF AND DUP2 MSTORE PUSH1 0x20 ADD SWAP1 DUP2 MSTORE PUSH1 0x20 ADD PUSH1 0x0 KECCAK256 PUSH1 0x0 PUSH2 0x100 EXP DUP2 SLOAD DUP2 PUSH1 0xFF MUL NOT AND SWAP1 DUP4 ISZERO ISZERO MUL OR SWAP1 SSTORE POP DUP2 PUSH20 0xFFFFFFFFFFFFFFFFFFFFFFFFFFFFFFFFFFFFFFFF AND DUP4 PUSH20 0xFFFFFFFFFFFFFFFFFFFFFFFFFFFFFFFFFFFFFFFF AND PUSH32 0x17307EAB39AB6107E8899845AD3D59BD9653F200F220920489CA2B5937696C31 DUP4 PUSH1 0x40 MLOAD PUSH2 0x2B62 SWAP2 SWAP1 PUSH2 0x3A0D JUMP JUMPDEST PUSH1 0x40 MLOAD DUP1 SWAP2 SUB SWAP1 LOG3 POP POP POP JUMP JUMPDEST PUSH2 0x2B77 PUSH2 0x2192 JUMP JUMPDEST PUSH20 0xFFFFFFFFFFFFFFFFFFFFFFFFFFFFFFFFFFFFFFFF AND DUP6 PUSH20 0xFFFFFFFFFFFFFFFFFFFFFFFFFFFFFFFFFFFFFFFF AND EQ DUP1 PUSH2 0x2BBD JUMPI POP PUSH2 0x2BBC DUP6 PUSH2 0x2BB7 PUSH2 0x2192 JUMP JUMPDEST PUSH2 0x19B7 JUMP JUMPDEST JUMPDEST PUSH2 0x2BFC JUMPI PUSH1 0x40 MLOAD PUSH32 0x8C379A000000000000000000000000000000000000000000000000000000000 DUP2 MSTORE PUSH1 0x4 ADD PUSH2 0x2BF3 SWAP1 PUSH2 0x4B4E JUMP JUMPDEST PUSH1 0x40 MLOAD DUP1 SWAP2 SUB SWAP1 REVERT JUMPDEST PUSH2 0x2C09 DUP6 DUP6 DUP6 DUP6 DUP6 PUSH2 0x34A2 JUMP JUMPDEST POP POP POP POP POP JUMP JUMPDEST PUSH1 0x0 DUP1 PUSH1 0x0 SWAP1 POP JUMPDEST PUSH2 0x2C21 DUP5 PUSH2 0xF1C JUMP JUMPDEST MLOAD DUP2 LT ISZERO PUSH2 0x2CA8 JUMPI DUP3 PUSH1 0x6 PUSH1 0x0 DUP7 PUSH20 0xFFFFFFFFFFFFFFFFFFFFFFFFFFFFFFFFFFFFFFFF AND PUSH20 0xFFFFFFFFFFFFFFFFFFFFFFFFFFFFFFFFFFFFFFFF AND DUP2 MSTORE PUSH1 0x20 ADD SWAP1 DUP2 MSTORE PUSH1 0x20 ADD PUSH1 0x0 KECCAK256 DUP3 DUP2 SLOAD DUP2 LT PUSH2 0x2C7B JUMPI PUSH2 0x2C7A PUSH2 0x461C JUMP JUMPDEST JUMPDEST SWAP1 PUSH1 0x0 MSTORE PUSH1 0x20 PUSH1 0x0 KECCAK256 ADD SLOAD EQ ISZERO PUSH2 0x2C95 JUMPI DUP1 SWAP2 POP POP PUSH2 0x2CAA JUMP JUMPDEST DUP1 DUP1 PUSH2 0x2CA0 SWAP1 PUSH2 0x46E6 JUMP JUMPDEST SWAP2 POP POP PUSH2 0x2C18 JUMP JUMPDEST POP JUMPDEST SWAP3 SWAP2 POP POP JUMP JUMPDEST PUSH1 0x0 PUSH20 0xFFFFFFFFFFFFFFFFFFFFFFFFFFFFFFFFFFFFFFFF AND DUP4 PUSH20 0xFFFFFFFFFFFFFFFFFFFFFFFFFFFFFFFFFFFFFFFF AND EQ ISZERO PUSH2 0x2D20 JUMPI PUSH1 0x40 MLOAD PUSH32 0x8C379A000000000000000000000000000000000000000000000000000000000 DUP2 MSTORE PUSH1 0x4 ADD PUSH2 0x2D17 SWAP1 PUSH2 0x54C9 JUMP JUMPDEST PUSH1 0x40 MLOAD DUP1 SWAP2 SUB SWAP1 REVERT JUMPDEST PUSH1 0x0 PUSH2 0x2D2A PUSH2 0x2192 JUMP JUMPDEST SWAP1 POP PUSH1 0x0 PUSH2 0x2D37 DUP5 PUSH2 0x3241 JUMP JUMPDEST SWAP1 POP PUSH1 0x0 PUSH2 0x2D44 DUP5 PUSH2 0x3241 JUMP JUMPDEST SWAP1 POP PUSH2 0x2D64 DUP4 DUP8 PUSH1 0x0 DUP6 DUP6 PUSH1 0x40 MLOAD DUP1 PUSH1 0x20 ADD PUSH1 0x40 MSTORE DUP1 PUSH1 0x0 DUP2 MSTORE POP PUSH2 0x304A JUMP JUMPDEST PUSH1 0x0 DUP1 PUSH1 0x0 DUP8 DUP2 MSTORE PUSH1 0x20 ADD SWAP1 DUP2 MSTORE PUSH1 0x20 ADD PUSH1 0x0 KECCAK256 PUSH1 0x0 DUP9 PUSH20 0xFFFFFFFFFFFFFFFFFFFFFFFFFFFFFFFFFFFFFFFF AND PUSH20 0xFFFFFFFFFFFFFFFFFFFFFFFFFFFFFFFFFFFFFFFF AND DUP2 MSTORE PUSH1 0x20 ADD SWAP1 DUP2 MSTORE PUSH1 0x20 ADD PUSH1 0x0 KECCAK256 SLOAD SWAP1 POP DUP5 DUP2 LT ISZERO PUSH2 0x2DFB JUMPI PUSH1 0x40 MLOAD PUSH32 0x8C379A000000000000000000000000000000000000000000000000000000000 DUP2 MSTORE PUSH1 0x4 ADD PUSH2 0x2DF2 SWAP1 PUSH2 0x555B JUMP JUMPDEST PUSH1 0x40 MLOAD DUP1 SWAP2 SUB SWAP1 REVERT JUMPDEST DUP5 DUP2 SUB PUSH1 0x0 DUP1 DUP9 DUP2 MSTORE PUSH1 0x20 ADD SWAP1 DUP2 MSTORE PUSH1 0x20 ADD PUSH1 0x0 KECCAK256 PUSH1 0x0 DUP10 PUSH20 0xFFFFFFFFFFFFFFFFFFFFFFFFFFFFFFFFFFFFFFFF AND PUSH20 0xFFFFFFFFFFFFFFFFFFFFFFFFFFFFFFFFFFFFFFFF AND DUP2 MSTORE PUSH1 0x20 ADD SWAP1 DUP2 MSTORE PUSH1 0x20 ADD PUSH1 0x0 KECCAK256 DUP2 SWAP1 SSTORE POP PUSH1 0x0 PUSH20 0xFFFFFFFFFFFFFFFFFFFFFFFFFFFFFFFFFFFFFFFF AND DUP8 PUSH20 0xFFFFFFFFFFFFFFFFFFFFFFFFFFFFFFFFFFFFFFFF AND DUP6 PUSH20 0xFFFFFFFFFFFFFFFFFFFFFFFFFFFFFFFFFFFFFFFF AND PUSH32 0xC3D58168C5AE7397731D063D5BBF3D657854427343F4C083240F7AACAA2D0F62 DUP10 DUP10 PUSH1 0x40 MLOAD PUSH2 0x2EC8 SWAP3 SWAP2 SWAP1 PUSH2 0x542E JUMP JUMPDEST PUSH1 0x40 MLOAD DUP1 SWAP2 SUB SWAP1 LOG4 PUSH2 0x2EEE DUP5 DUP9 PUSH1 0x0 DUP7 DUP7 PUSH1 0x40 MLOAD DUP1 PUSH1 0x20 ADD PUSH1 0x40 MSTORE DUP1 PUSH1 0x0 DUP2 MSTORE POP PUSH2 0x3052 JUMP JUMPDEST POP POP POP POP POP POP POP JUMP JUMPDEST PUSH1 0x0 DUP1 PUSH1 0x0 SWAP1 POP PUSH27 0x184F03E93FF9F4DAA797ED6E38ED64BF6A1F010000000000000000 DUP4 LT PUSH2 0x2F55 JUMPI PUSH27 0x184F03E93FF9F4DAA797ED6E38ED64BF6A1F010000000000000000 DUP4 DUP2 PUSH2 0x2F4B JUMPI PUSH2 0x2F4A PUSH2 0x5120 JUMP JUMPDEST JUMPDEST DIV SWAP3 POP PUSH1 0x40 DUP2 ADD SWAP1 POP JUMPDEST PUSH14 0x4EE2D6D415B85ACEF8100000000 DUP4 LT PUSH2 0x2F92 JUMPI PUSH14 0x4EE2D6D415B85ACEF8100000000 DUP4 DUP2 PUSH2 0x2F88 JUMPI PUSH2 0x2F87 PUSH2 0x5120 JUMP JUMPDEST JUMPDEST DIV SWAP3 POP PUSH1 0x20 DUP2 ADD SWAP1 POP JUMPDEST PUSH7 0x2386F26FC10000 DUP4 LT PUSH2 0x2FC1 JUMPI PUSH7 0x2386F26FC10000 DUP4 DUP2 PUSH2 0x2FB7 JUMPI PUSH2 0x2FB6 PUSH2 0x5120 JUMP JUMPDEST JUMPDEST DIV SWAP3 POP PUSH1 0x10 DUP2 ADD SWAP1 POP JUMPDEST PUSH4 0x5F5E100 DUP4 LT PUSH2 0x2FEA JUMPI PUSH4 0x5F5E100 DUP4 DUP2 PUSH2 0x2FE0 JUMPI PUSH2 0x2FDF PUSH2 0x5120 JUMP JUMPDEST JUMPDEST DIV SWAP3 POP PUSH1 0x8 DUP2 ADD SWAP1 POP JUMPDEST PUSH2 0x2710 DUP4 LT PUSH2 0x300F JUMPI PUSH2 0x2710 DUP4 DUP2 PUSH2 0x3005 JUMPI PUSH2 0x3004 PUSH2 0x5120 JUMP JUMPDEST JUMPDEST DIV SWAP3 POP PUSH1 0x4 DUP2 ADD SWAP1 POP JUMPDEST PUSH1 0x64 DUP4 LT PUSH2 0x3032 JUMPI PUSH1 0x64 DUP4 DUP2 PUSH2 0x3028 JUMPI PUSH2 0x3027 PUSH2 0x5120 JUMP JUMPDEST JUMPDEST DIV SWAP3 POP PUSH1 0x2 DUP2 ADD SWAP1 POP JUMPDEST PUSH1 0xA DUP4 LT PUSH2 0x3041 JUMPI PUSH1 0x1 DUP2 ADD SWAP1 POP JUMPDEST DUP1 SWAP2 POP POP SWAP2 SWAP1 POP JUMP JUMPDEST POP POP POP POP POP POP JUMP JUMPDEST POP POP POP POP POP POP JUMP JUMPDEST PUSH2 0x3079 DUP5 PUSH20 0xFFFFFFFFFFFFFFFFFFFFFFFFFFFFFFFFFFFFFFFF AND PUSH2 0x373E JUMP JUMPDEST ISZERO PUSH2 0x3239 JUMPI DUP4 PUSH20 0xFFFFFFFFFFFFFFFFFFFFFFFFFFFFFFFFFFFFFFFF AND PUSH4 0xBC197C81 DUP8 DUP8 DUP7 DUP7 DUP7 PUSH1 0x40 MLOAD DUP7 PUSH4 0xFFFFFFFF AND PUSH1 0xE0 SHL DUP2 MSTORE PUSH1 0x4 ADD PUSH2 0x30BF SWAP6 SWAP5 SWAP4 SWAP3 SWAP2 SWAP1 PUSH2 0x5662 JUMP JUMPDEST PUSH1 0x20 PUSH1 0x40 MLOAD DUP1 DUP4 SUB DUP2 PUSH1 0x0 DUP8 DUP1 EXTCODESIZE ISZERO DUP1 ISZERO PUSH2 0x30D9 JUMPI PUSH1 0x0 DUP1 REVERT JUMPDEST POP GAS CALL SWAP3 POP POP POP DUP1 ISZERO PUSH2 0x310A JUMPI POP PUSH1 0x40 MLOAD RETURNDATASIZE PUSH1 0x1F NOT PUSH1 0x1F DUP3 ADD AND DUP3 ADD DUP1 PUSH1 0x40 MSTORE POP DUP2 ADD SWAP1 PUSH2 0x3107 SWAP2 SWAP1 PUSH2 0x56DF JUMP JUMPDEST PUSH1 0x1 JUMPDEST PUSH2 0x31B0 JUMPI PUSH2 0x3116 PUSH2 0x5719 JUMP JUMPDEST DUP1 PUSH4 0x8C379A0 EQ ISZERO PUSH2 0x3173 JUMPI POP PUSH2 0x312B PUSH2 0x573B JUMP JUMPDEST DUP1 PUSH2 0x3136 JUMPI POP PUSH2 0x3175 JUMP JUMPDEST DUP1 PUSH1 0x40 MLOAD PUSH32 0x8C379A000000000000000000000000000000000000000000000000000000000 DUP2 MSTORE PUSH1 0x4 ADD PUSH2 0x316A SWAP2 SWAP1 PUSH2 0x3DBC JUMP JUMPDEST PUSH1 0x40 MLOAD DUP1 SWAP2 SUB SWAP1 REVERT JUMPDEST POP JUMPDEST PUSH1 0x40 MLOAD PUSH32 0x8C379A000000000000000000000000000000000000000000000000000000000 DUP2 MSTORE PUSH1 0x4 ADD PUSH2 0x31A7 SWAP1 PUSH2 0x5843 JUMP JUMPDEST PUSH1 0x40 MLOAD DUP1 SWAP2 SUB SWAP1 REVERT JUMPDEST PUSH4 0xBC197C81 PUSH1 0xE0 SHL PUSH28 0xFFFFFFFFFFFFFFFFFFFFFFFFFFFFFFFFFFFFFFFFFFFFFFFFFFFFFFFF NOT AND DUP2 PUSH28 0xFFFFFFFFFFFFFFFFFFFFFFFFFFFFFFFFFFFFFFFFFFFFFFFFFFFFFFFF NOT AND EQ PUSH2 0x3237 JUMPI PUSH1 0x40 MLOAD PUSH32 0x8C379A000000000000000000000000000000000000000000000000000000000 DUP2 MSTORE PUSH1 0x4 ADD PUSH2 0x322E SWAP1 PUSH2 0x58D5 JUMP JUMPDEST PUSH1 0x40 MLOAD DUP1 SWAP2 SUB SWAP1 REVERT JUMPDEST POP JUMPDEST POP POP POP POP POP POP JUMP JUMPDEST PUSH1 0x60 PUSH1 0x0 PUSH1 0x1 PUSH8 0xFFFFFFFFFFFFFFFF DUP2 GT ISZERO PUSH2 0x3260 JUMPI PUSH2 0x325F PUSH2 0x3A43 JUMP JUMPDEST JUMPDEST PUSH1 0x40 MLOAD SWAP1 DUP1 DUP3 MSTORE DUP1 PUSH1 0x20 MUL PUSH1 0x20 ADD DUP3 ADD PUSH1 0x40 MSTORE DUP1 ISZERO PUSH2 0x328E JUMPI DUP2 PUSH1 0x20 ADD PUSH1 0x20 DUP3 MUL DUP1 CALLDATASIZE DUP4 CALLDATACOPY DUP1 DUP3 ADD SWAP2 POP POP SWAP1 POP JUMPDEST POP SWAP1 POP DUP3 DUP2 PUSH1 0x0 DUP2 MLOAD DUP2 LT PUSH2 0x32A6 JUMPI PUSH2 0x32A5 PUSH2 0x461C JUMP JUMPDEST JUMPDEST PUSH1 0x20 MUL PUSH1 0x20 ADD ADD DUP2 DUP2 MSTORE POP POP DUP1 SWAP2 POP POP SWAP2 SWAP1 POP JUMP JUMPDEST PUSH2 0x32DA DUP5 PUSH20 0xFFFFFFFFFFFFFFFFFFFFFFFFFFFFFFFFFFFFFFFF AND PUSH2 0x373E JUMP JUMPDEST ISZERO PUSH2 0x349A JUMPI DUP4 PUSH20 0xFFFFFFFFFFFFFFFFFFFFFFFFFFFFFFFFFFFFFFFF AND PUSH4 0xF23A6E61 DUP8 DUP8 DUP7 DUP7 DUP7 PUSH1 0x40 MLOAD DUP7 PUSH4 0xFFFFFFFF AND PUSH1 0xE0 SHL DUP2 MSTORE PUSH1 0x4 ADD PUSH2 0x3320 SWAP6 SWAP5 SWAP4 SWAP3 SWAP2 SWAP1 PUSH2 0x58F5 JUMP JUMPDEST PUSH1 0x20 PUSH1 0x40 MLOAD DUP1 DUP4 SUB DUP2 PUSH1 0x0 DUP8 DUP1 EXTCODESIZE ISZERO DUP1 ISZERO PUSH2 0x333A JUMPI PUSH1 0x0 DUP1 REVERT JUMPDEST POP GAS CALL SWAP3 POP POP POP DUP1 ISZERO PUSH2 0x336B JUMPI POP PUSH1 0x40 MLOAD RETURNDATASIZE PUSH1 0x1F NOT PUSH1 0x1F DUP3 ADD AND DUP3 ADD DUP1 PUSH1 0x40 MSTORE POP DUP2 ADD SWAP1 PUSH2 0x3368 SWAP2 SWAP1 PUSH2 0x56DF JUMP JUMPDEST PUSH1 0x1 JUMPDEST PUSH2 0x3411 JUMPI PUSH2 0x3377 PUSH2 0x5719 JUMP JUMPDEST DUP1 PUSH4 0x8C379A0 EQ ISZERO PUSH2 0x33D4 JUMPI POP PUSH2 0x338C PUSH2 0x573B JUMP JUMPDEST DUP1 PUSH2 0x3397 JUMPI POP PUSH2 0x33D6 JUMP JUMPDEST DUP1 PUSH1 0x40 MLOAD PUSH32 0x8C379A000000000000000000000000000000000000000000000000000000000 DUP2 MSTORE PUSH1 0x4 ADD PUSH2 0x33CB SWAP2 SWAP1 PUSH2 0x3DBC JUMP JUMPDEST PUSH1 0x40 MLOAD DUP1 SWAP2 SUB SWAP1 REVERT JUMPDEST POP JUMPDEST PUSH1 0x40 MLOAD PUSH32 0x8C379A000000000000000000000000000000000000000000000000000000000 DUP2 MSTORE PUSH1 0x4 ADD PUSH2 0x3408 SWAP1 PUSH2 0x5843 JUMP JUMPDEST PUSH1 0x40 MLOAD DUP1 SWAP2 SUB SWAP1 REVERT JUMPDEST PUSH4 0xF23A6E61 PUSH1 0xE0 SHL PUSH28 0xFFFFFFFFFFFFFFFFFFFFFFFFFFFFFFFFFFFFFFFFFFFFFFFFFFFFFFFF NOT AND DUP2 PUSH28 0xFFFFFFFFFFFFFFFFFFFFFFFFFFFFFFFFFFFFFFFFFFFFFFFFFFFFFFFF NOT AND EQ PUSH2 0x3498 JUMPI PUSH1 0x40 MLOAD PUSH32 0x8C379A000000000000000000000000000000000000000000000000000000000 DUP2 MSTORE PUSH1 0x4 ADD PUSH2 0x348F SWAP1 PUSH2 0x58D5 JUMP JUMPDEST PUSH1 0x40 MLOAD DUP1 SWAP2 SUB SWAP1 REVERT JUMPDEST POP JUMPDEST POP POP POP POP POP POP JUMP JUMPDEST PUSH1 0x0 PUSH20 0xFFFFFFFFFFFFFFFFFFFFFFFFFFFFFFFFFFFFFFFF AND DUP5 PUSH20 0xFFFFFFFFFFFFFFFFFFFFFFFFFFFFFFFFFFFFFFFF AND EQ ISZERO PUSH2 0x3512 JUMPI PUSH1 0x40 MLOAD PUSH32 0x8C379A000000000000000000000000000000000000000000000000000000000 DUP2 MSTORE PUSH1 0x4 ADD PUSH2 0x3509 SWAP1 PUSH2 0x537C JUMP JUMPDEST PUSH1 0x40 MLOAD DUP1 SWAP2 SUB SWAP1 REVERT JUMPDEST PUSH1 0x0 PUSH2 0x351C PUSH2 0x2192 JUMP JUMPDEST SWAP1 POP PUSH1 0x0 PUSH2 0x3529 DUP6 PUSH2 0x3241 JUMP JUMPDEST SWAP1 POP PUSH1 0x0 PUSH2 0x3536 DUP6 PUSH2 0x3241 JUMP JUMPDEST SWAP1 POP PUSH2 0x3546 DUP4 DUP10 DUP10 DUP6 DUP6 DUP10 PUSH2 0x304A JUMP JUMPDEST PUSH1 0x0 DUP1 PUSH1 0x0 DUP9 DUP2 MSTORE PUSH1 0x20 ADD SWAP1 DUP2 MSTORE PUSH1 0x20 ADD PUSH1 0x0 KECCAK256 PUSH1 0x0 DUP11 PUSH20 0xFFFFFFFFFFFFFFFFFFFFFFFFFFFFFFFFFFFFFFFF AND PUSH20 0xFFFFFFFFFFFFFFFFFFFFFFFFFFFFFFFFFFFFFFFF AND DUP2 MSTORE PUSH1 0x20 ADD SWAP1 DUP2 MSTORE PUSH1 0x20 ADD PUSH1 0x0 KECCAK256 SLOAD SWAP1 POP DUP6 DUP2 LT ISZERO PUSH2 0x35DD JUMPI PUSH1 0x40 MLOAD PUSH32 0x8C379A000000000000000000000000000000000000000000000000000000000 DUP2 MSTORE PUSH1 0x4 ADD PUSH2 0x35D4 SWAP1 PUSH2 0x540E JUMP JUMPDEST PUSH1 0x40 MLOAD DUP1 SWAP2 SUB SWAP1 REVERT JUMPDEST DUP6 DUP2 SUB PUSH1 0x0 DUP1 DUP10 DUP2 MSTORE PUSH1 0x20 ADD SWAP1 DUP2 MSTORE PUSH1 0x20 ADD PUSH1 0x0 KECCAK256 PUSH1 0x0 DUP12 PUSH20 0xFFFFFFFFFFFFFFFFFFFFFFFFFFFFFFFFFFFFFFFF AND PUSH20 0xFFFFFFFFFFFFFFFFFFFFFFFFFFFFFFFFFFFFFFFF AND DUP2 MSTORE PUSH1 0x20 ADD SWAP1 DUP2 MSTORE PUSH1 0x20 ADD PUSH1 0x0 KECCAK256 DUP2 SWAP1 SSTORE POP DUP6 PUSH1 0x0 DUP1 DUP10 DUP2 MSTORE PUSH1 0x20 ADD SWAP1 DUP2 MSTORE PUSH1 0x20 ADD PUSH1 0x0 KECCAK256 PUSH1 0x0 DUP11 PUSH20 0xFFFFFFFFFFFFFFFFFFFFFFFFFFFFFFFFFFFFFFFF AND PUSH20 0xFFFFFFFFFFFFFFFFFFFFFFFFFFFFFFFFFFFFFFFF AND DUP2 MSTORE PUSH1 0x20 ADD SWAP1 DUP2 MSTORE PUSH1 0x20 ADD PUSH1 0x0 KECCAK256 PUSH1 0x0 DUP3 DUP3 SLOAD PUSH2 0x3692 SWAP2 SWAP1 PUSH2 0x49F4 JUMP JUMPDEST SWAP3 POP POP DUP2 SWAP1 SSTORE POP DUP8 PUSH20 0xFFFFFFFFFFFFFFFFFFFFFFFFFFFFFFFFFFFFFFFF AND DUP10 PUSH20 0xFFFFFFFFFFFFFFFFFFFFFFFFFFFFFFFFFFFFFFFF AND DUP6 PUSH20 0xFFFFFFFFFFFFFFFFFFFFFFFFFFFFFFFFFFFFFFFF AND PUSH32 0xC3D58168C5AE7397731D063D5BBF3D657854427343F4C083240F7AACAA2D0F62 DUP11 DUP11 PUSH1 0x40 MLOAD PUSH2 0x370F SWAP3 SWAP2 SWAP1 PUSH2 0x542E JUMP JUMPDEST PUSH1 0x40 MLOAD DUP1 SWAP2 SUB SWAP1 LOG4 PUSH2 0x3725 DUP5 DUP11 DUP11 DUP7 DUP7 DUP11 PUSH2 0x3052 JUMP JUMPDEST PUSH2 0x3733 DUP5 DUP11 DUP11 DUP11 DUP11 DUP11 PUSH2 0x32BB JUMP JUMPDEST POP POP POP POP POP POP POP POP POP JUMP JUMPDEST PUSH1 0x0 DUP1 DUP3 PUSH20 0xFFFFFFFFFFFFFFFFFFFFFFFFFFFFFFFFFFFFFFFF AND EXTCODESIZE GT SWAP1 POP SWAP2 SWAP1 POP JUMP JUMPDEST PUSH1 0x40 MLOAD DUP1 PUSH1 0xE0 ADD PUSH1 0x40 MSTORE DUP1 PUSH1 0x0 DUP2 MSTORE PUSH1 0x20 ADD PUSH1 0x0 PUSH20 0xFFFFFFFFFFFFFFFFFFFFFFFFFFFFFFFFFFFFFFFF AND DUP2 MSTORE PUSH1 0x20 ADD PUSH1 0x0 DUP2 MSTORE PUSH1 0x20 ADD PUSH1 0x0 DUP2 MSTORE PUSH1 0x20 ADD PUSH1 0x0 DUP2 MSTORE PUSH1 0x20 ADD PUSH1 0x0 ISZERO ISZERO DUP2 MSTORE PUSH1 0x20 ADD PUSH1 0x0 ISZERO ISZERO DUP2 MSTORE POP SWAP1 JUMP JUMPDEST DUP3 DUP1 SLOAD PUSH2 0x37C4 SWAP1 PUSH2 0x597E JUMP JUMPDEST SWAP1 PUSH1 0x0 MSTORE PUSH1 0x20 PUSH1 0x0 KECCAK256 SWAP1 PUSH1 0x1F ADD PUSH1 0x20 SWAP1 DIV DUP2 ADD SWAP3 DUP3 PUSH2 0x37E6 JUMPI PUSH1 0x0 DUP6 SSTORE PUSH2 0x382D JUMP JUMPDEST DUP3 PUSH1 0x1F LT PUSH2 0x37FF JUMPI DUP1 MLOAD PUSH1 0xFF NOT AND DUP4 DUP1 ADD OR DUP6 SSTORE PUSH2 0x382D JUMP JUMPDEST DUP3 DUP1 ADD PUSH1 0x1 ADD DUP6 SSTORE DUP3 ISZERO PUSH2 0x382D JUMPI SWAP2 DUP3 ADD JUMPDEST DUP3 DUP2 GT ISZERO PUSH2 0x382C JUMPI DUP3 MLOAD DUP3 SSTORE SWAP2 PUSH1 0x20 ADD SWAP2 SWAP1 PUSH1 0x1 ADD SWAP1 PUSH2 0x3811 JUMP JUMPDEST JUMPDEST POP SWAP1 POP PUSH2 0x383A SWAP2 SWAP1 PUSH2 0x383E JUMP JUMPDEST POP SWAP1 JUMP JUMPDEST JUMPDEST DUP1 DUP3 GT ISZERO PUSH2 0x3857 JUMPI PUSH1 0x0 DUP2 PUSH1 0x0 SWAP1 SSTORE POP PUSH1 0x1 ADD PUSH2 0x383F JUMP JUMPDEST POP SWAP1 JUMP JUMPDEST PUSH1 0x0 PUSH1 0x40 MLOAD SWAP1 POP SWAP1 JUMP JUMPDEST PUSH1 0x0 DUP1 REVERT JUMPDEST PUSH1 0x0 DUP1 REVERT JUMPDEST PUSH1 0x0 PUSH20 0xFFFFFFFFFFFFFFFFFFFFFFFFFFFFFFFFFFFFFFFF DUP3 AND SWAP1 POP SWAP2 SWAP1 POP JUMP JUMPDEST PUSH1 0x0 PUSH2 0x389A DUP3 PUSH2 0x386F JUMP JUMPDEST SWAP1 POP SWAP2 SWAP1 POP JUMP JUMPDEST PUSH2 0x38AA DUP2 PUSH2 0x388F JUMP JUMPDEST DUP2 EQ PUSH2 0x38B5 JUMPI PUSH1 0x0 DUP1 REVERT JUMPDEST POP JUMP JUMPDEST PUSH1 0x0 DUP2 CALLDATALOAD SWAP1 POP PUSH2 0x38C7 DUP2 PUSH2 0x38A1 JUMP JUMPDEST SWAP3 SWAP2 POP POP JUMP JUMPDEST PUSH1 0x0 DUP2 SWAP1 POP SWAP2 SWAP1 POP JUMP JUMPDEST PUSH2 0x38E0 DUP2 PUSH2 0x38CD JUMP JUMPDEST DUP2 EQ PUSH2 0x38EB JUMPI PUSH1 0x0 DUP1 REVERT JUMPDEST POP JUMP JUMPDEST PUSH1 0x0 DUP2 CALLDATALOAD SWAP1 POP PUSH2 0x38FD DUP2 PUSH2 0x38D7 JUMP JUMPDEST SWAP3 SWAP2 POP POP JUMP JUMPDEST PUSH1 0x0 DUP1 PUSH1 0x40 DUP4 DUP6 SUB SLT ISZERO PUSH2 0x391A JUMPI PUSH2 0x3919 PUSH2 0x3865 JUMP JUMPDEST JUMPDEST PUSH1 0x0 PUSH2 0x3928 DUP6 DUP3 DUP7 ADD PUSH2 0x38B8 JUMP JUMPDEST SWAP3 POP POP PUSH1 0x20 PUSH2 0x3939 DUP6 DUP3 DUP7 ADD PUSH2 0x38EE JUMP JUMPDEST SWAP2 POP POP SWAP3 POP SWAP3 SWAP1 POP JUMP JUMPDEST PUSH2 0x394C DUP2 PUSH2 0x38CD JUMP JUMPDEST DUP3 MSTORE POP POP JUMP JUMPDEST PUSH1 0x0 PUSH1 0x20 DUP3 ADD SWAP1 POP PUSH2 0x3967 PUSH1 0x0 DUP4 ADD DUP5 PUSH2 0x3943 JUMP JUMPDEST SWAP3 SWAP2 POP POP JUMP JUMPDEST PUSH1 0x0 PUSH32 0xFFFFFFFF00000000000000000000000000000000000000000000000000000000 DUP3 AND SWAP1 POP SWAP2 SWAP1 POP JUMP JUMPDEST PUSH2 0x39A2 DUP2 PUSH2 0x396D JUMP JUMPDEST DUP2 EQ PUSH2 0x39AD JUMPI PUSH1 0x0 DUP1 REVERT JUMPDEST POP JUMP JUMPDEST PUSH1 0x0 DUP2 CALLDATALOAD SWAP1 POP PUSH2 0x39BF DUP2 PUSH2 0x3999 JUMP JUMPDEST SWAP3 SWAP2 POP POP JUMP JUMPDEST PUSH1 0x0 PUSH1 0x20 DUP3 DUP5 SUB SLT ISZERO PUSH2 0x39DB JUMPI PUSH2 0x39DA PUSH2 0x3865 JUMP JUMPDEST JUMPDEST PUSH1 0x0 PUSH2 0x39E9 DUP5 DUP3 DUP6 ADD PUSH2 0x39B0 JUMP JUMPDEST SWAP2 POP POP SWAP3 SWAP2 POP POP JUMP JUMPDEST PUSH1 0x0 DUP2 ISZERO ISZERO SWAP1 POP SWAP2 SWAP1 POP JUMP JUMPDEST PUSH2 0x3A07 DUP2 PUSH2 0x39F2 JUMP JUMPDEST DUP3 MSTORE POP POP JUMP JUMPDEST PUSH1 0x0 PUSH1 0x20 DUP3 ADD SWAP1 POP PUSH2 0x3A22 PUSH1 0x0 DUP4 ADD DUP5 PUSH2 0x39FE JUMP JUMPDEST SWAP3 SWAP2 POP POP JUMP JUMPDEST PUSH1 0x0 DUP1 REVERT JUMPDEST PUSH1 0x0 DUP1 REVERT JUMPDEST PUSH1 0x0 PUSH1 0x1F NOT PUSH1 0x1F DUP4 ADD AND SWAP1 POP SWAP2 SWAP1 POP JUMP JUMPDEST PUSH32 0x4E487B7100000000000000000000000000000000000000000000000000000000 PUSH1 0x0 MSTORE PUSH1 0x41 PUSH1 0x4 MSTORE PUSH1 0x24 PUSH1 0x0 REVERT JUMPDEST PUSH2 0x3A7B DUP3 PUSH2 0x3A32 JUMP JUMPDEST DUP2 ADD DUP2 DUP2 LT PUSH8 0xFFFFFFFFFFFFFFFF DUP3 GT OR ISZERO PUSH2 0x3A9A JUMPI PUSH2 0x3A99 PUSH2 0x3A43 JUMP JUMPDEST JUMPDEST DUP1 PUSH1 0x40 MSTORE POP POP POP JUMP JUMPDEST PUSH1 0x0 PUSH2 0x3AAD PUSH2 0x385B JUMP JUMPDEST SWAP1 POP PUSH2 0x3AB9 DUP3 DUP3 PUSH2 0x3A72 JUMP JUMPDEST SWAP2 SWAP1 POP JUMP JUMPDEST PUSH1 0x0 PUSH8 0xFFFFFFFFFFFFFFFF DUP3 GT ISZERO PUSH2 0x3AD9 JUMPI PUSH2 0x3AD8 PUSH2 0x3A43 JUMP JUMPDEST JUMPDEST PUSH2 0x3AE2 DUP3 PUSH2 0x3A32 JUMP JUMPDEST SWAP1 POP PUSH1 0x20 DUP2 ADD SWAP1 POP SWAP2 SWAP1 POP JUMP JUMPDEST DUP3 DUP2 DUP4 CALLDATACOPY PUSH1 0x0 DUP4 DUP4 ADD MSTORE POP POP POP JUMP JUMPDEST PUSH1 0x0 PUSH2 0x3B11 PUSH2 0x3B0C DUP5 PUSH2 0x3ABE JUMP JUMPDEST PUSH2 0x3AA3 JUMP JUMPDEST SWAP1 POP DUP3 DUP2 MSTORE PUSH1 0x20 DUP2 ADD DUP5 DUP5 DUP5 ADD GT ISZERO PUSH2 0x3B2D JUMPI PUSH2 0x3B2C PUSH2 0x3A2D JUMP JUMPDEST JUMPDEST PUSH2 0x3B38 DUP5 DUP3 DUP6 PUSH2 0x3AEF JUMP JUMPDEST POP SWAP4 SWAP3 POP POP POP JUMP JUMPDEST PUSH1 0x0 DUP3 PUSH1 0x1F DUP4 ADD SLT PUSH2 0x3B55 JUMPI PUSH2 0x3B54 PUSH2 0x3A28 JUMP JUMPDEST JUMPDEST DUP2 CALLDATALOAD PUSH2 0x3B65 DUP5 DUP3 PUSH1 0x20 DUP7 ADD PUSH2 0x3AFE JUMP JUMPDEST SWAP2 POP POP SWAP3 SWAP2 POP POP JUMP JUMPDEST PUSH1 0x0 PUSH1 0x20 DUP3 DUP5 SUB SLT ISZERO PUSH2 0x3B84 JUMPI PUSH2 0x3B83 PUSH2 0x3865 JUMP JUMPDEST JUMPDEST PUSH1 0x0 DUP3 ADD CALLDATALOAD PUSH8 0xFFFFFFFFFFFFFFFF DUP2 GT ISZERO PUSH2 0x3BA2 JUMPI PUSH2 0x3BA1 PUSH2 0x386A JUMP JUMPDEST JUMPDEST PUSH2 0x3BAE DUP5 DUP3 DUP6 ADD PUSH2 0x3B40 JUMP JUMPDEST SWAP2 POP POP SWAP3 SWAP2 POP POP JUMP JUMPDEST PUSH1 0x0 PUSH8 0xFFFFFFFFFFFFFFFF DUP3 GT ISZERO PUSH2 0x3BD2 JUMPI PUSH2 0x3BD1 PUSH2 0x3A43 JUMP JUMPDEST JUMPDEST PUSH1 0x20 DUP3 MUL SWAP1 POP PUSH1 0x20 DUP2 ADD SWAP1 POP SWAP2 SWAP1 POP JUMP JUMPDEST PUSH1 0x0 DUP1 REVERT JUMPDEST PUSH1 0x0 PUSH2 0x3BFB PUSH2 0x3BF6 DUP5 PUSH2 0x3BB7 JUMP JUMPDEST PUSH2 0x3AA3 JUMP JUMPDEST SWAP1 POP DUP1 DUP4 DUP3 MSTORE PUSH1 0x20 DUP3 ADD SWAP1 POP PUSH1 0x20 DUP5 MUL DUP4 ADD DUP6 DUP2 GT ISZERO PUSH2 0x3C1E JUMPI PUSH2 0x3C1D PUSH2 0x3BE3 JUMP JUMPDEST JUMPDEST DUP4 JUMPDEST DUP2 DUP2 LT ISZERO PUSH2 0x3C47 JUMPI DUP1 PUSH2 0x3C33 DUP9 DUP3 PUSH2 0x38EE JUMP JUMPDEST DUP5 MSTORE PUSH1 0x20 DUP5 ADD SWAP4 POP POP PUSH1 0x20 DUP2 ADD SWAP1 POP PUSH2 0x3C20 JUMP JUMPDEST POP POP POP SWAP4 SWAP3 POP POP POP JUMP JUMPDEST PUSH1 0x0 DUP3 PUSH1 0x1F DUP4 ADD SLT PUSH2 0x3C66 JUMPI PUSH2 0x3C65 PUSH2 0x3A28 JUMP JUMPDEST JUMPDEST DUP2 CALLDATALOAD PUSH2 0x3C76 DUP5 DUP3 PUSH1 0x20 DUP7 ADD PUSH2 0x3BE8 JUMP JUMPDEST SWAP2 POP POP SWAP3 SWAP2 POP POP JUMP JUMPDEST PUSH2 0x3C88 DUP2 PUSH2 0x39F2 JUMP JUMPDEST DUP2 EQ PUSH2 0x3C93 JUMPI PUSH1 0x0 DUP1 REVERT JUMPDEST POP JUMP JUMPDEST PUSH1 0x0 DUP2 CALLDATALOAD SWAP1 POP PUSH2 0x3CA5 DUP2 PUSH2 0x3C7F JUMP JUMPDEST SWAP3 SWAP2 POP POP JUMP JUMPDEST PUSH1 0x0 DUP1 PUSH1 0x40 DUP4 DUP6 SUB SLT ISZERO PUSH2 0x3CC2 JUMPI PUSH2 0x3CC1 PUSH2 0x3865 JUMP JUMPDEST JUMPDEST PUSH1 0x0 DUP4 ADD CALLDATALOAD PUSH8 0xFFFFFFFFFFFFFFFF DUP2 GT ISZERO PUSH2 0x3CE0 JUMPI PUSH2 0x3CDF PUSH2 0x386A JUMP JUMPDEST JUMPDEST PUSH2 0x3CEC DUP6 DUP3 DUP7 ADD PUSH2 0x3C51 JUMP JUMPDEST SWAP3 POP POP PUSH1 0x20 PUSH2 0x3CFD DUP6 DUP3 DUP7 ADD PUSH2 0x3C96 JUMP JUMPDEST SWAP2 POP POP SWAP3 POP SWAP3 SWAP1 POP JUMP JUMPDEST PUSH1 0x0 PUSH1 0x20 DUP3 DUP5 SUB SLT ISZERO PUSH2 0x3D1D JUMPI PUSH2 0x3D1C PUSH2 0x3865 JUMP JUMPDEST JUMPDEST PUSH1 0x0 PUSH2 0x3D2B DUP5 DUP3 DUP6 ADD PUSH2 0x38EE JUMP JUMPDEST SWAP2 POP POP SWAP3 SWAP2 POP POP JUMP JUMPDEST PUSH1 0x0 DUP2 MLOAD SWAP1 POP SWAP2 SWAP1 POP JUMP JUMPDEST PUSH1 0x0 DUP3 DUP3 MSTORE PUSH1 0x20 DUP3 ADD SWAP1 POP SWAP3 SWAP2 POP POP JUMP JUMPDEST PUSH1 0x0 JUMPDEST DUP4 DUP2 LT ISZERO PUSH2 0x3D6E JUMPI DUP1 DUP3 ADD MLOAD DUP2 DUP5 ADD MSTORE PUSH1 0x20 DUP2 ADD SWAP1 POP PUSH2 0x3D53 JUMP JUMPDEST DUP4 DUP2 GT ISZERO PUSH2 0x3D7D JUMPI PUSH1 0x0 DUP5 DUP5 ADD MSTORE JUMPDEST POP POP POP POP JUMP JUMPDEST PUSH1 0x0 PUSH2 0x3D8E DUP3 PUSH2 0x3D34 JUMP JUMPDEST PUSH2 0x3D98 DUP2 DUP6 PUSH2 0x3D3F JUMP JUMPDEST SWAP4 POP PUSH2 0x3DA8 DUP2 DUP6 PUSH1 0x20 DUP7 ADD PUSH2 0x3D50 JUMP JUMPDEST PUSH2 0x3DB1 DUP2 PUSH2 0x3A32 JUMP JUMPDEST DUP5 ADD SWAP2 POP POP SWAP3 SWAP2 POP POP JUMP JUMPDEST PUSH1 0x0 PUSH1 0x20 DUP3 ADD SWAP1 POP DUP2 DUP2 SUB PUSH1 0x0 DUP4 ADD MSTORE PUSH2 0x3DD6 DUP2 DUP5 PUSH2 0x3D83 JUMP JUMPDEST SWAP1 POP SWAP3 SWAP2 POP POP JUMP JUMPDEST PUSH1 0x0 PUSH8 0xFFFFFFFFFFFFFFFF DUP3 GT ISZERO PUSH2 0x3DF9 JUMPI PUSH2 0x3DF8 PUSH2 0x3A43 JUMP JUMPDEST JUMPDEST PUSH2 0x3E02 DUP3 PUSH2 0x3A32 JUMP JUMPDEST SWAP1 POP PUSH1 0x20 DUP2 ADD SWAP1 POP SWAP2 SWAP1 POP JUMP JUMPDEST PUSH1 0x0 PUSH2 0x3E22 PUSH2 0x3E1D DUP5 PUSH2 0x3DDE JUMP JUMPDEST PUSH2 0x3AA3 JUMP JUMPDEST SWAP1 POP DUP3 DUP2 MSTORE PUSH1 0x20 DUP2 ADD DUP5 DUP5 DUP5 ADD GT ISZERO PUSH2 0x3E3E JUMPI PUSH2 0x3E3D PUSH2 0x3A2D JUMP JUMPDEST JUMPDEST PUSH2 0x3E49 DUP5 DUP3 DUP6 PUSH2 0x3AEF JUMP JUMPDEST POP SWAP4 SWAP3 POP POP POP JUMP JUMPDEST PUSH1 0x0 DUP3 PUSH1 0x1F DUP4 ADD SLT PUSH2 0x3E66 JUMPI PUSH2 0x3E65 PUSH2 0x3A28 JUMP JUMPDEST JUMPDEST DUP2 CALLDATALOAD PUSH2 0x3E76 DUP5 DUP3 PUSH1 0x20 DUP7 ADD PUSH2 0x3E0F JUMP JUMPDEST SWAP2 POP POP SWAP3 SWAP2 POP POP JUMP JUMPDEST PUSH1 0x0 DUP1 PUSH1 0x0 DUP1 PUSH1 0x80 DUP6 DUP8 SUB SLT ISZERO PUSH2 0x3E99 JUMPI PUSH2 0x3E98 PUSH2 0x3865 JUMP JUMPDEST JUMPDEST PUSH1 0x0 PUSH2 0x3EA7 DUP8 DUP3 DUP9 ADD PUSH2 0x38B8 JUMP JUMPDEST SWAP5 POP POP PUSH1 0x20 DUP6 ADD CALLDATALOAD PUSH8 0xFFFFFFFFFFFFFFFF DUP2 GT ISZERO PUSH2 0x3EC8 JUMPI PUSH2 0x3EC7 PUSH2 0x386A JUMP JUMPDEST JUMPDEST PUSH2 0x3ED4 DUP8 DUP3 DUP9 ADD PUSH2 0x3C51 JUMP JUMPDEST SWAP4 POP POP PUSH1 0x40 DUP6 ADD CALLDATALOAD PUSH8 0xFFFFFFFFFFFFFFFF DUP2 GT ISZERO PUSH2 0x3EF5 JUMPI PUSH2 0x3EF4 PUSH2 0x386A JUMP JUMPDEST JUMPDEST PUSH2 0x3F01 DUP8 DUP3 DUP9 ADD PUSH2 0x3C51 JUMP JUMPDEST SWAP3 POP POP PUSH1 0x60 DUP6 ADD CALLDATALOAD PUSH8 0xFFFFFFFFFFFFFFFF DUP2 GT ISZERO PUSH2 0x3F22 JUMPI PUSH2 0x3F21 PUSH2 0x386A JUMP JUMPDEST JUMPDEST PUSH2 0x3F2E DUP8 DUP3 DUP9 ADD PUSH2 0x3E51 JUMP JUMPDEST SWAP2 POP POP SWAP3 SWAP6 SWAP2 SWAP5 POP SWAP3 POP JUMP JUMPDEST PUSH1 0x0 DUP1 PUSH1 0x0 DUP1 PUSH1 0x0 PUSH1 0xA0 DUP7 DUP9 SUB SLT ISZERO PUSH2 0x3F56 JUMPI PUSH2 0x3F55 PUSH2 0x3865 JUMP JUMPDEST JUMPDEST PUSH1 0x0 PUSH2 0x3F64 DUP9 DUP3 DUP10 ADD PUSH2 0x38B8 JUMP JUMPDEST SWAP6 POP POP PUSH1 0x20 PUSH2 0x3F75 DUP9 DUP3 DUP10 ADD PUSH2 0x38B8 JUMP JUMPDEST SWAP5 POP POP PUSH1 0x40 DUP7 ADD CALLDATALOAD PUSH8 0xFFFFFFFFFFFFFFFF DUP2 GT ISZERO PUSH2 0x3F96 JUMPI PUSH2 0x3F95 PUSH2 0x386A JUMP JUMPDEST JUMPDEST PUSH2 0x3FA2 DUP9 DUP3 DUP10 ADD PUSH2 0x3C51 JUMP JUMPDEST SWAP4 POP POP PUSH1 0x60 DUP7 ADD CALLDATALOAD PUSH8 0xFFFFFFFFFFFFFFFF DUP2 GT ISZERO PUSH2 0x3FC3 JUMPI PUSH2 0x3FC2 PUSH2 0x386A JUMP JUMPDEST JUMPDEST PUSH2 0x3FCF DUP9 DUP3 DUP10 ADD PUSH2 0x3C51 JUMP JUMPDEST SWAP3 POP POP PUSH1 0x80 DUP7 ADD CALLDATALOAD PUSH8 0xFFFFFFFFFFFFFFFF DUP2 GT ISZERO PUSH2 0x3FF0 JUMPI PUSH2 0x3FEF PUSH2 0x386A JUMP JUMPDEST JUMPDEST PUSH2 0x3FFC DUP9 DUP3 DUP10 ADD PUSH2 0x3E51 JUMP JUMPDEST SWAP2 POP POP SWAP3 SWAP6 POP SWAP3 SWAP6 SWAP1 SWAP4 POP JUMP JUMPDEST PUSH1 0x0 PUSH1 0x20 DUP3 DUP5 SUB SLT ISZERO PUSH2 0x401F JUMPI PUSH2 0x401E PUSH2 0x3865 JUMP JUMPDEST JUMPDEST PUSH1 0x0 PUSH2 0x402D DUP5 DUP3 DUP6 ADD PUSH2 0x38B8 JUMP JUMPDEST SWAP2 POP POP SWAP3 SWAP2 POP POP JUMP JUMPDEST PUSH1 0x0 DUP2 MLOAD SWAP1 POP SWAP2 SWAP1 POP JUMP JUMPDEST PUSH1 0x0 DUP3 DUP3 MSTORE PUSH1 0x20 DUP3 ADD SWAP1 POP SWAP3 SWAP2 POP POP JUMP JUMPDEST PUSH1 0x0 DUP2 SWAP1 POP PUSH1 0x20 DUP3 ADD SWAP1 POP SWAP2 SWAP1 POP JUMP JUMPDEST PUSH2 0x406B DUP2 PUSH2 0x38CD JUMP JUMPDEST DUP3 MSTORE POP POP JUMP JUMPDEST PUSH1 0x0 PUSH2 0x407D DUP4 DUP4 PUSH2 0x4062 JUMP JUMPDEST PUSH1 0x20 DUP4 ADD SWAP1 POP SWAP3 SWAP2 POP POP JUMP JUMPDEST PUSH1 0x0 PUSH1 0x20 DUP3 ADD SWAP1 POP SWAP2 SWAP1 POP JUMP JUMPDEST PUSH1 0x0 PUSH2 0x40A1 DUP3 PUSH2 0x4036 JUMP JUMPDEST PUSH2 0x40AB DUP2 DUP6 PUSH2 0x4041 JUMP JUMPDEST SWAP4 POP PUSH2 0x40B6 DUP4 PUSH2 0x4052 JUMP JUMPDEST DUP1 PUSH1 0x0 JUMPDEST DUP4 DUP2 LT ISZERO PUSH2 0x40E7 JUMPI DUP2 MLOAD PUSH2 0x40CE DUP9 DUP3 PUSH2 0x4071 JUMP JUMPDEST SWAP8 POP PUSH2 0x40D9 DUP4 PUSH2 0x4089 JUMP JUMPDEST SWAP3 POP POP PUSH1 0x1 DUP2 ADD SWAP1 POP PUSH2 0x40BA JUMP JUMPDEST POP DUP6 SWAP4 POP POP POP POP SWAP3 SWAP2 POP POP JUMP JUMPDEST PUSH1 0x0 PUSH1 0x20 DUP3 ADD SWAP1 POP DUP2 DUP2 SUB PUSH1 0x0 DUP4 ADD MSTORE PUSH2 0x410E DUP2 DUP5 PUSH2 0x4096 JUMP JUMPDEST SWAP1 POP SWAP3 SWAP2 POP POP JUMP JUMPDEST PUSH1 0x0 PUSH8 0xFFFFFFFFFFFFFFFF DUP3 GT ISZERO PUSH2 0x4131 JUMPI PUSH2 0x4130 PUSH2 0x3A43 JUMP JUMPDEST JUMPDEST PUSH1 0x20 DUP3 MUL SWAP1 POP PUSH1 0x20 DUP2 ADD SWAP1 POP SWAP2 SWAP1 POP JUMP JUMPDEST PUSH1 0x0 PUSH2 0x4155 PUSH2 0x4150 DUP5 PUSH2 0x4116 JUMP JUMPDEST PUSH2 0x3AA3 JUMP JUMPDEST SWAP1 POP DUP1 DUP4 DUP3 MSTORE PUSH1 0x20 DUP3 ADD SWAP1 POP PUSH1 0x20 DUP5 MUL DUP4 ADD DUP6 DUP2 GT ISZERO PUSH2 0x4178 JUMPI PUSH2 0x4177 PUSH2 0x3BE3 JUMP JUMPDEST JUMPDEST DUP4 JUMPDEST DUP2 DUP2 LT ISZERO PUSH2 0x41A1 JUMPI DUP1 PUSH2 0x418D DUP9 DUP3 PUSH2 0x38B8 JUMP JUMPDEST DUP5 MSTORE PUSH1 0x20 DUP5 ADD SWAP4 POP POP PUSH1 0x20 DUP2 ADD SWAP1 POP PUSH2 0x417A JUMP JUMPDEST POP POP POP SWAP4 SWAP3 POP POP POP JUMP JUMPDEST PUSH1 0x0 DUP3 PUSH1 0x1F DUP4 ADD SLT PUSH2 0x41C0 JUMPI PUSH2 0x41BF PUSH2 0x3A28 JUMP JUMPDEST JUMPDEST DUP2 CALLDATALOAD PUSH2 0x41D0 DUP5 DUP3 PUSH1 0x20 DUP7 ADD PUSH2 0x4142 JUMP JUMPDEST SWAP2 POP POP SWAP3 SWAP2 POP POP JUMP JUMPDEST PUSH1 0x0 DUP1 PUSH1 0x40 DUP4 DUP6 SUB SLT ISZERO PUSH2 0x41F0 JUMPI PUSH2 0x41EF PUSH2 0x3865 JUMP JUMPDEST JUMPDEST PUSH1 0x0 DUP4 ADD CALLDATALOAD PUSH8 0xFFFFFFFFFFFFFFFF DUP2 GT ISZERO PUSH2 0x420E JUMPI PUSH2 0x420D PUSH2 0x386A JUMP JUMPDEST JUMPDEST PUSH2 0x421A DUP6 DUP3 DUP7 ADD PUSH2 0x41AB JUMP JUMPDEST SWAP3 POP POP PUSH1 0x20 DUP4 ADD CALLDATALOAD PUSH8 0xFFFFFFFFFFFFFFFF DUP2 GT ISZERO PUSH2 0x423B JUMPI PUSH2 0x423A PUSH2 0x386A JUMP JUMPDEST JUMPDEST PUSH2 0x4247 DUP6 DUP3 DUP7 ADD PUSH2 0x3C51 JUMP JUMPDEST SWAP2 POP POP SWAP3 POP SWAP3 SWAP1 POP JUMP JUMPDEST PUSH2 0x425A DUP2 PUSH2 0x388F JUMP JUMPDEST DUP3 MSTORE POP POP JUMP JUMPDEST PUSH2 0x4269 DUP2 PUSH2 0x39F2 JUMP JUMPDEST DUP3 MSTORE POP POP JUMP JUMPDEST PUSH1 0xE0 DUP3 ADD PUSH1 0x0 DUP3 ADD MLOAD PUSH2 0x4285 PUSH1 0x0 DUP6 ADD DUP3 PUSH2 0x4062 JUMP JUMPDEST POP PUSH1 0x20 DUP3 ADD MLOAD PUSH2 0x4298 PUSH1 0x20 DUP6 ADD DUP3 PUSH2 0x4251 JUMP JUMPDEST POP PUSH1 0x40 DUP3 ADD MLOAD PUSH2 0x42AB PUSH1 0x40 DUP6 ADD DUP3 PUSH2 0x4062 JUMP JUMPDEST POP PUSH1 0x60 DUP3 ADD MLOAD PUSH2 0x42BE PUSH1 0x60 DUP6 ADD DUP3 PUSH2 0x4062 JUMP JUMPDEST POP PUSH1 0x80 DUP3 ADD MLOAD PUSH2 0x42D1 PUSH1 0x80 DUP6 ADD DUP3 PUSH2 0x4062 JUMP JUMPDEST POP PUSH1 0xA0 DUP3 ADD MLOAD PUSH2 0x42E4 PUSH1 0xA0 DUP6 ADD DUP3 PUSH2 0x4260 JUMP JUMPDEST POP PUSH1 0xC0 DUP3 ADD MLOAD PUSH2 0x42F7 PUSH1 0xC0 DUP6 ADD DUP3 PUSH2 0x4260 JUMP JUMPDEST POP POP POP POP JUMP JUMPDEST PUSH1 0x0 PUSH1 0xE0 DUP3 ADD SWAP1 POP PUSH2 0x4312 PUSH1 0x0 DUP4 ADD DUP5 PUSH2 0x426F JUMP JUMPDEST SWAP3 SWAP2 POP POP JUMP JUMPDEST PUSH1 0x0 DUP1 PUSH1 0x0 PUSH1 0x60 DUP5 DUP7 SUB SLT ISZERO PUSH2 0x4331 JUMPI PUSH2 0x4330 PUSH2 0x3865 JUMP JUMPDEST JUMPDEST PUSH1 0x0 PUSH2 0x433F DUP7 DUP3 DUP8 ADD PUSH2 0x38B8 JUMP JUMPDEST SWAP4 POP POP PUSH1 0x20 DUP5 ADD CALLDATALOAD PUSH8 0xFFFFFFFFFFFFFFFF DUP2 GT ISZERO PUSH2 0x4360 JUMPI PUSH2 0x435F PUSH2 0x386A JUMP JUMPDEST JUMPDEST PUSH2 0x436C DUP7 DUP3 DUP8 ADD PUSH2 0x3C51 JUMP JUMPDEST SWAP3 POP POP PUSH1 0x40 DUP5 ADD CALLDATALOAD PUSH8 0xFFFFFFFFFFFFFFFF DUP2 GT ISZERO PUSH2 0x438D JUMPI PUSH2 0x438C PUSH2 0x386A JUMP JUMPDEST JUMPDEST PUSH2 0x4399 DUP7 DUP3 DUP8 ADD PUSH2 0x3C51 JUMP JUMPDEST SWAP2 POP POP SWAP3 POP SWAP3 POP SWAP3 JUMP JUMPDEST PUSH2 0x43AC DUP2 PUSH2 0x388F JUMP JUMPDEST DUP3 MSTORE POP POP JUMP JUMPDEST PUSH1 0x0 PUSH1 0x20 DUP3 ADD SWAP1 POP PUSH2 0x43C7 PUSH1 0x0 DUP4 ADD DUP5 PUSH2 0x43A3 JUMP JUMPDEST SWAP3 SWAP2 POP POP JUMP JUMPDEST PUSH1 0x0 DUP1 PUSH1 0x0 PUSH1 0x60 DUP5 DUP7 SUB SLT ISZERO PUSH2 0x43E6 JUMPI PUSH2 0x43E5 PUSH2 0x3865 JUMP JUMPDEST JUMPDEST PUSH1 0x0 PUSH2 0x43F4 DUP7 DUP3 DUP8 ADD PUSH2 0x38EE JUMP JUMPDEST SWAP4 POP POP PUSH1 0x20 PUSH2 0x4405 DUP7 DUP3 DUP8 ADD PUSH2 0x38EE JUMP JUMPDEST SWAP3 POP POP PUSH1 0x40 PUSH2 0x4416 DUP7 DUP3 DUP8 ADD PUSH2 0x38B8 JUMP JUMPDEST SWAP2 POP POP SWAP3 POP SWAP3 POP SWAP3 JUMP JUMPDEST PUSH1 0x0 DUP1 PUSH1 0x40 DUP4 DUP6 SUB SLT ISZERO PUSH2 0x4437 JUMPI PUSH2 0x4436 PUSH2 0x3865 JUMP JUMPDEST JUMPDEST PUSH1 0x0 PUSH2 0x4445 DUP6 DUP3 DUP7 ADD PUSH2 0x38B8 JUMP JUMPDEST SWAP3 POP POP PUSH1 0x20 PUSH2 0x4456 DUP6 DUP3 DUP7 ADD PUSH2 0x3C96 JUMP JUMPDEST SWAP2 POP POP SWAP3 POP SWAP3 SWAP1 POP JUMP JUMPDEST PUSH1 0x0 DUP1 PUSH1 0x40 DUP4 DUP6 SUB SLT ISZERO PUSH2 0x4477 JUMPI PUSH2 0x4476 PUSH2 0x3865 JUMP JUMPDEST JUMPDEST PUSH1 0x0 PUSH2 0x4485 DUP6 DUP3 DUP7 ADD PUSH2 0x38B8 JUMP JUMPDEST SWAP3 POP POP PUSH1 0x20 PUSH2 0x4496 DUP6 DUP3 DUP7 ADD PUSH2 0x38B8 JUMP JUMPDEST SWAP2 POP POP SWAP3 POP SWAP3 SWAP1 POP JUMP JUMPDEST PUSH1 0x0 DUP1 PUSH1 0x0 DUP1 PUSH1 0x0 PUSH1 0xA0 DUP7 DUP9 SUB SLT ISZERO PUSH2 0x44BC JUMPI PUSH2 0x44BB PUSH2 0x3865 JUMP JUMPDEST JUMPDEST PUSH1 0x0 PUSH2 0x44CA DUP9 DUP3 DUP10 ADD PUSH2 0x38B8 JUMP JUMPDEST SWAP6 POP POP PUSH1 0x20 PUSH2 0x44DB DUP9 DUP3 DUP10 ADD PUSH2 0x38B8 JUMP JUMPDEST SWAP5 POP POP PUSH1 0x40 PUSH2 0x44EC DUP9 DUP3 DUP10 ADD PUSH2 0x38EE JUMP JUMPDEST SWAP4 POP POP PUSH1 0x60 PUSH2 0x44FD DUP9 DUP3 DUP10 ADD PUSH2 0x38EE JUMP JUMPDEST SWAP3 POP POP PUSH1 0x80 DUP7 ADD CALLDATALOAD PUSH8 0xFFFFFFFFFFFFFFFF DUP2 GT ISZERO PUSH2 0x451E JUMPI PUSH2 0x451D PUSH2 0x386A JUMP JUMPDEST JUMPDEST PUSH2 0x452A DUP9 DUP3 DUP10 ADD PUSH2 0x3E51 JUMP JUMPDEST SWAP2 POP POP SWAP3 SWAP6 POP SWAP3 SWAP6 SWAP1 SWAP4 POP JUMP JUMPDEST PUSH1 0x0 DUP1 PUSH1 0x0 PUSH1 0x60 DUP5 DUP7 SUB SLT ISZERO PUSH2 0x4550 JUMPI PUSH2 0x454F PUSH2 0x3865 JUMP JUMPDEST JUMPDEST PUSH1 0x0 PUSH2 0x455E DUP7 DUP3 DUP8 ADD PUSH2 0x38B8 JUMP JUMPDEST SWAP4 POP POP PUSH1 0x20 PUSH2 0x456F DUP7 DUP3 DUP8 ADD PUSH2 0x38EE JUMP JUMPDEST SWAP3 POP POP PUSH1 0x40 PUSH2 0x4580 DUP7 DUP3 DUP8 ADD PUSH2 0x38EE JUMP JUMPDEST SWAP2 POP POP SWAP3 POP SWAP3 POP SWAP3 JUMP JUMPDEST PUSH32 0x455243313135353A2061646472657373207A65726F206973206E6F7420612076 PUSH1 0x0 DUP3 ADD MSTORE PUSH32 0x616C6964206F776E657200000000000000000000000000000000000000000000 PUSH1 0x20 DUP3 ADD MSTORE POP JUMP JUMPDEST PUSH1 0x0 PUSH2 0x45E6 PUSH1 0x2A DUP4 PUSH2 0x3D3F JUMP JUMPDEST SWAP2 POP PUSH2 0x45F1 DUP3 PUSH2 0x458A JUMP JUMPDEST PUSH1 0x40 DUP3 ADD SWAP1 POP SWAP2 SWAP1 POP JUMP JUMPDEST PUSH1 0x0 PUSH1 0x20 DUP3 ADD SWAP1 POP DUP2 DUP2 SUB PUSH1 0x0 DUP4 ADD MSTORE PUSH2 0x4615 DUP2 PUSH2 0x45D9 JUMP JUMPDEST SWAP1 POP SWAP2 SWAP1 POP JUMP JUMPDEST PUSH32 0x4E487B7100000000000000000000000000000000000000000000000000000000 PUSH1 0x0 MSTORE PUSH1 0x32 PUSH1 0x4 MSTORE PUSH1 0x24 PUSH1 0x0 REVERT JUMPDEST PUSH32 0x796F7572204E4654207374617475732069736E277420636F72726563742E0000 PUSH1 0x0 DUP3 ADD MSTORE POP JUMP JUMPDEST PUSH1 0x0 PUSH2 0x4681 PUSH1 0x1E DUP4 PUSH2 0x3D3F JUMP JUMPDEST SWAP2 POP PUSH2 0x468C DUP3 PUSH2 0x464B JUMP JUMPDEST PUSH1 0x20 DUP3 ADD SWAP1 POP SWAP2 SWAP1 POP JUMP JUMPDEST PUSH1 0x0 PUSH1 0x20 DUP3 ADD SWAP1 POP DUP2 DUP2 SUB PUSH1 0x0 DUP4 ADD MSTORE PUSH2 0x46B0 DUP2 PUSH2 0x4674 JUMP JUMPDEST SWAP1 POP SWAP2 SWAP1 POP JUMP JUMPDEST PUSH32 0x4E487B7100000000000000000000000000000000000000000000000000000000 PUSH1 0x0 MSTORE PUSH1 0x11 PUSH1 0x4 MSTORE PUSH1 0x24 PUSH1 0x0 REVERT JUMPDEST PUSH1 0x0 PUSH2 0x46F1 DUP3 PUSH2 0x38CD JUMP JUMPDEST SWAP2 POP PUSH32 0xFFFFFFFFFFFFFFFFFFFFFFFFFFFFFFFFFFFFFFFFFFFFFFFFFFFFFFFFFFFFFFFF DUP3 EQ ISZERO PUSH2 0x4724 JUMPI PUSH2 0x4723 PUSH2 0x46B7 JUMP JUMPDEST JUMPDEST PUSH1 0x1 DUP3 ADD SWAP1 POP SWAP2 SWAP1 POP JUMP JUMPDEST PUSH32 0x546865207265717569726564204944206973206E6F74207468697320636F6E74 PUSH1 0x0 DUP3 ADD MSTORE PUSH32 0x72616374206F776E65642E000000000000000000000000000000000000000000 PUSH1 0x20 DUP3 ADD MSTORE POP JUMP JUMPDEST PUSH1 0x0 PUSH2 0x478B PUSH1 0x2B DUP4 PUSH2 0x3D3F JUMP JUMPDEST SWAP2 POP PUSH2 0x4796 DUP3 PUSH2 0x472F JUMP JUMPDEST PUSH1 0x40 DUP3 ADD SWAP1 POP SWAP2 SWAP1 POP JUMP JUMPDEST PUSH1 0x0 PUSH1 0x20 DUP3 ADD SWAP1 POP DUP2 DUP2 SUB PUSH1 0x0 DUP4 ADD MSTORE PUSH2 0x47BA DUP2 PUSH2 0x477E JUMP JUMPDEST SWAP1 POP SWAP2 SWAP1 POP JUMP JUMPDEST PUSH1 0x0 DUP2 SWAP1 POP SWAP3 SWAP2 POP POP JUMP JUMPDEST PUSH32 0x68747470733A2F2F7065742D726F636B2D6574682E70616E63616B652E74772F PUSH1 0x0 DUP3 ADD MSTORE PUSH32 0x6E66742F00000000000000000000000000000000000000000000000000000000 PUSH1 0x20 DUP3 ADD MSTORE POP JUMP JUMPDEST PUSH1 0x0 PUSH2 0x4828 PUSH1 0x24 DUP4 PUSH2 0x47C1 JUMP JUMPDEST SWAP2 POP PUSH2 0x4833 DUP3 PUSH2 0x47CC JUMP JUMPDEST PUSH1 0x24 DUP3 ADD SWAP1 POP SWAP2 SWAP1 POP JUMP JUMPDEST PUSH1 0x0 PUSH2 0x4849 DUP3 PUSH2 0x3D34 JUMP JUMPDEST PUSH2 0x4853 DUP2 DUP6 PUSH2 0x47C1 JUMP JUMPDEST SWAP4 POP PUSH2 0x4863 DUP2 DUP6 PUSH1 0x20 DUP7 ADD PUSH2 0x3D50 JUMP JUMPDEST DUP1 DUP5 ADD SWAP2 POP POP SWAP3 SWAP2 POP POP JUMP JUMPDEST PUSH32 0x2E6A736F6E000000000000000000000000000000000000000000000000000000 PUSH1 0x0 DUP3 ADD MSTORE POP JUMP JUMPDEST PUSH1 0x0 PUSH2 0x48A5 PUSH1 0x5 DUP4 PUSH2 0x47C1 JUMP JUMPDEST SWAP2 POP PUSH2 0x48B0 DUP3 PUSH2 0x486F JUMP JUMPDEST PUSH1 0x5 DUP3 ADD SWAP1 POP SWAP2 SWAP1 POP JUMP JUMPDEST PUSH1 0x0 PUSH2 0x48C6 DUP3 PUSH2 0x481B JUMP JUMPDEST SWAP2 POP PUSH2 0x48D2 DUP3 DUP5 PUSH2 0x483E JUMP JUMPDEST SWAP2 POP PUSH2 0x48DD DUP3 PUSH2 0x4898 JUMP JUMPDEST SWAP2 POP DUP2 SWAP1 POP SWAP3 SWAP2 POP POP JUMP JUMPDEST PUSH32 0x74686973204E46542068617320616C7265616479206D696E7400000000000000 PUSH1 0x0 DUP3 ADD MSTORE POP JUMP JUMPDEST PUSH1 0x0 PUSH2 0x491E PUSH1 0x19 DUP4 PUSH2 0x3D3F JUMP JUMPDEST SWAP2 POP PUSH2 0x4929 DUP3 PUSH2 0x48E8 JUMP JUMPDEST PUSH1 0x20 DUP3 ADD SWAP1 POP SWAP2 SWAP1 POP JUMP JUMPDEST PUSH1 0x0 PUSH1 0x20 DUP3 ADD SWAP1 POP DUP2 DUP2 SUB PUSH1 0x0 DUP4 ADD MSTORE PUSH2 0x494D DUP2 PUSH2 0x4911 JUMP JUMPDEST SWAP1 POP SWAP2 SWAP1 POP JUMP JUMPDEST PUSH32 0x74686520696420697320746F6F20626967000000000000000000000000000000 PUSH1 0x0 DUP3 ADD MSTORE POP JUMP JUMPDEST PUSH1 0x0 PUSH2 0x498A PUSH1 0x11 DUP4 PUSH2 0x3D3F JUMP JUMPDEST SWAP2 POP PUSH2 0x4995 DUP3 PUSH2 0x4954 JUMP JUMPDEST PUSH1 0x20 DUP3 ADD SWAP1 POP SWAP2 SWAP1 POP JUMP JUMPDEST PUSH1 0x0 PUSH1 0x20 DUP3 ADD SWAP1 POP DUP2 DUP2 SUB PUSH1 0x0 DUP4 ADD MSTORE PUSH2 0x49B9 DUP2 PUSH2 0x497D JUMP JUMPDEST SWAP1 POP SWAP2 SWAP1 POP JUMP JUMPDEST PUSH1 0x0 PUSH2 0x49CB DUP3 PUSH2 0x38CD JUMP JUMPDEST SWAP2 POP PUSH2 0x49D6 DUP4 PUSH2 0x38CD JUMP JUMPDEST SWAP3 POP DUP3 DUP3 LT ISZERO PUSH2 0x49E9 JUMPI PUSH2 0x49E8 PUSH2 0x46B7 JUMP JUMPDEST JUMPDEST DUP3 DUP3 SUB SWAP1 POP SWAP3 SWAP2 POP POP JUMP JUMPDEST PUSH1 0x0 PUSH2 0x49FF DUP3 PUSH2 0x38CD JUMP JUMPDEST SWAP2 POP PUSH2 0x4A0A DUP4 PUSH2 0x38CD JUMP JUMPDEST SWAP3 POP DUP3 PUSH32 0xFFFFFFFFFFFFFFFFFFFFFFFFFFFFFFFFFFFFFFFFFFFFFFFFFFFFFFFFFFFFFFFF SUB DUP3 GT ISZERO PUSH2 0x4A3F JUMPI PUSH2 0x4A3E PUSH2 0x46B7 JUMP JUMPDEST JUMPDEST DUP3 DUP3 ADD SWAP1 POP SWAP3 SWAP2 POP POP JUMP JUMPDEST PUSH32 0x7469687320616464726573732069736E277420636F6E737472756374206F776E PUSH1 0x0 DUP3 ADD MSTORE PUSH32 0x6572000000000000000000000000000000000000000000000000000000000000 PUSH1 0x20 DUP3 ADD MSTORE POP JUMP JUMPDEST PUSH1 0x0 PUSH2 0x4AA6 PUSH1 0x22 DUP4 PUSH2 0x3D3F JUMP JUMPDEST SWAP2 POP PUSH2 0x4AB1 DUP3 PUSH2 0x4A4A JUMP JUMPDEST PUSH1 0x40 DUP3 ADD SWAP1 POP SWAP2 SWAP1 POP JUMP JUMPDEST PUSH1 0x0 PUSH1 0x20 DUP3 ADD SWAP1 POP DUP2 DUP2 SUB PUSH1 0x0 DUP4 ADD MSTORE PUSH2 0x4AD5 DUP2 PUSH2 0x4A99 JUMP JUMPDEST SWAP1 POP SWAP2 SWAP1 POP JUMP JUMPDEST PUSH32 0x455243313135353A2063616C6C6572206973206E6F7420746F6B656E206F776E PUSH1 0x0 DUP3 ADD MSTORE PUSH32 0x6572206F7220617070726F766564000000000000000000000000000000000000 PUSH1 0x20 DUP3 ADD MSTORE POP JUMP JUMPDEST PUSH1 0x0 PUSH2 0x4B38 PUSH1 0x2E DUP4 PUSH2 0x3D3F JUMP JUMPDEST SWAP2 POP PUSH2 0x4B43 DUP3 PUSH2 0x4ADC JUMP JUMPDEST PUSH1 0x40 DUP3 ADD SWAP1 POP SWAP2 SWAP1 POP JUMP JUMPDEST PUSH1 0x0 PUSH1 0x20 DUP3 ADD SWAP1 POP DUP2 DUP2 SUB PUSH1 0x0 DUP4 ADD MSTORE PUSH2 0x4B67 DUP2 PUSH2 0x4B2B JUMP JUMPDEST SWAP1 POP SWAP2 SWAP1 POP JUMP JUMPDEST PUSH32 0x455243313135353A206163636F756E747320616E6420696473206C656E677468 PUSH1 0x0 DUP3 ADD MSTORE PUSH32 0x206D69736D617463680000000000000000000000000000000000000000000000 PUSH1 0x20 DUP3 ADD MSTORE POP JUMP JUMPDEST PUSH1 0x0 PUSH2 0x4BCA PUSH1 0x29 DUP4 PUSH2 0x3D3F JUMP JUMPDEST SWAP2 POP PUSH2 0x4BD5 DUP3 PUSH2 0x4B6E JUMP JUMPDEST PUSH1 0x40 DUP3 ADD SWAP1 POP SWAP2 SWAP1 POP JUMP JUMPDEST PUSH1 0x0 PUSH1 0x20 DUP3 ADD SWAP1 POP DUP2 DUP2 SUB PUSH1 0x0 DUP4 ADD MSTORE PUSH2 0x4BF9 DUP2 PUSH2 0x4BBD JUMP JUMPDEST SWAP1 POP SWAP2 SWAP1 POP JUMP JUMPDEST PUSH32 0x496E73756666696369656E74206269642E000000000000000000000000000000 PUSH1 0x0 DUP3 ADD MSTORE POP JUMP JUMPDEST PUSH1 0x0 PUSH2 0x4C36 PUSH1 0x11 DUP4 PUSH2 0x3D3F JUMP JUMPDEST SWAP2 POP PUSH2 0x4C41 DUP3 PUSH2 0x4C00 JUMP JUMPDEST PUSH1 0x20 DUP3 ADD SWAP1 POP SWAP2 SWAP1 POP JUMP JUMPDEST PUSH1 0x0 PUSH1 0x20 DUP3 ADD SWAP1 POP DUP2 DUP2 SUB PUSH1 0x0 DUP4 ADD MSTORE PUSH2 0x4C65 DUP2 PUSH2 0x4C29 JUMP JUMPDEST SWAP1 POP SWAP2 SWAP1 POP JUMP JUMPDEST PUSH32 0x746865204E465420616C726561647920756E6C6F636B00000000000000000000 PUSH1 0x0 DUP3 ADD MSTORE POP JUMP JUMPDEST PUSH1 0x0 PUSH2 0x4CA2 PUSH1 0x16 DUP4 PUSH2 0x3D3F JUMP JUMPDEST SWAP2 POP PUSH2 0x4CAD DUP3 PUSH2 0x4C6C JUMP JUMPDEST PUSH1 0x20 DUP3 ADD SWAP1 POP SWAP2 SWAP1 POP JUMP JUMPDEST PUSH1 0x0 PUSH1 0x20 DUP3 ADD SWAP1 POP DUP2 DUP2 SUB PUSH1 0x0 DUP4 ADD MSTORE PUSH2 0x4CD1 DUP2 PUSH2 0x4C95 JUMP JUMPDEST SWAP1 POP SWAP2 SWAP1 POP JUMP JUMPDEST PUSH32 0x746865206C6F636B206973207570646174650000000000000000000000000000 PUSH1 0x0 DUP3 ADD MSTORE POP JUMP JUMPDEST PUSH1 0x0 PUSH2 0x4D0E PUSH1 0x12 DUP4 PUSH2 0x3D3F JUMP JUMPDEST SWAP2 POP PUSH2 0x4D19 DUP3 PUSH2 0x4CD8 JUMP JUMPDEST PUSH1 0x20 DUP3 ADD SWAP1 POP SWAP2 SWAP1 POP JUMP JUMPDEST PUSH1 0x0 PUSH1 0x60 DUP3 ADD SWAP1 POP PUSH2 0x4D39 PUSH1 0x0 DUP4 ADD DUP6 PUSH2 0x43A3 JUMP JUMPDEST PUSH2 0x4D46 PUSH1 0x20 DUP4 ADD DUP5 PUSH2 0x3943 JUMP JUMPDEST DUP2 DUP2 SUB PUSH1 0x40 DUP4 ADD MSTORE PUSH2 0x4D57 DUP2 PUSH2 0x4D01 JUMP JUMPDEST SWAP1 POP SWAP4 SWAP3 POP POP POP JUMP JUMPDEST PUSH32 0x746865206D696E7420697320656E640000000000000000000000000000000000 PUSH1 0x0 DUP3 ADD MSTORE POP JUMP JUMPDEST PUSH1 0x0 PUSH2 0x4D96 PUSH1 0xF DUP4 PUSH2 0x3D3F JUMP JUMPDEST SWAP2 POP PUSH2 0x4DA1 DUP3 PUSH2 0x4D60 JUMP JUMPDEST PUSH1 0x20 DUP3 ADD SWAP1 POP SWAP2 SWAP1 POP JUMP JUMPDEST PUSH1 0x0 PUSH1 0x20 DUP3 ADD SWAP1 POP DUP2 DUP2 SUB PUSH1 0x0 DUP4 ADD MSTORE PUSH2 0x4DC5 DUP2 PUSH2 0x4D89 JUMP JUMPDEST SWAP1 POP SWAP2 SWAP1 POP JUMP JUMPDEST PUSH32 0x546869732073746F6E6520616C72656164792064696500000000000000000000 PUSH1 0x0 DUP3 ADD MSTORE POP JUMP JUMPDEST PUSH1 0x0 PUSH2 0x4E02 PUSH1 0x16 DUP4 PUSH2 0x3D3F JUMP JUMPDEST SWAP2 POP PUSH2 0x4E0D DUP3 PUSH2 0x4DCC JUMP JUMPDEST PUSH1 0x20 DUP3 ADD SWAP1 POP SWAP2 SWAP1 POP JUMP JUMPDEST PUSH1 0x0 PUSH1 0x20 DUP3 ADD SWAP1 POP DUP2 DUP2 SUB PUSH1 0x0 DUP4 ADD MSTORE PUSH2 0x4E31 DUP2 PUSH2 0x4DF5 JUMP JUMPDEST SWAP1 POP SWAP2 SWAP1 POP JUMP JUMPDEST PUSH32 0x54686520666565646572206973206E6F742061646F707465722C20796F757220 PUSH1 0x0 DUP3 ADD MSTORE PUSH32 0x73746F6E652067657420616E6772792E00000000000000000000000000000000 PUSH1 0x20 DUP3 ADD MSTORE POP JUMP JUMPDEST PUSH1 0x0 PUSH2 0x4E94 PUSH1 0x30 DUP4 PUSH2 0x3D3F JUMP JUMPDEST SWAP2 POP PUSH2 0x4E9F DUP3 PUSH2 0x4E38 JUMP JUMPDEST PUSH1 0x40 DUP3 ADD SWAP1 POP SWAP2 SWAP1 POP JUMP JUMPDEST PUSH1 0x0 PUSH1 0x20 DUP3 ADD SWAP1 POP DUP2 DUP2 SUB PUSH1 0x0 DUP4 ADD MSTORE PUSH2 0x4EC3 DUP2 PUSH2 0x4E87 JUMP JUMPDEST SWAP1 POP SWAP2 SWAP1 POP JUMP JUMPDEST PUSH1 0x0 PUSH2 0x4ED5 DUP3 PUSH2 0x38CD JUMP JUMPDEST SWAP2 POP PUSH2 0x4EE0 DUP4 PUSH2 0x38CD JUMP JUMPDEST SWAP3 POP DUP2 PUSH32 0xFFFFFFFFFFFFFFFFFFFFFFFFFFFFFFFFFFFFFFFFFFFFFFFFFFFFFFFFFFFFFFFF DIV DUP4 GT DUP3 ISZERO ISZERO AND ISZERO PUSH2 0x4F19 JUMPI PUSH2 0x4F18 PUSH2 0x46B7 JUMP JUMPDEST JUMPDEST DUP3 DUP3 MUL SWAP1 POP SWAP3 SWAP2 POP POP JUMP JUMPDEST PUSH32 0x496E73756666696369656E7420616D6F756E7420666F7220746F6B656E204944 PUSH1 0x0 DUP3 ADD MSTORE POP JUMP JUMPDEST PUSH1 0x0 PUSH2 0x4F5A PUSH1 0x20 DUP4 PUSH2 0x3D3F JUMP JUMPDEST SWAP2 POP PUSH2 0x4F65 DUP3 PUSH2 0x4F24 JUMP JUMPDEST PUSH1 0x20 DUP3 ADD SWAP1 POP SWAP2 SWAP1 POP JUMP JUMPDEST PUSH1 0x0 PUSH1 0x20 DUP3 ADD SWAP1 POP DUP2 DUP2 SUB PUSH1 0x0 DUP4 ADD MSTORE PUSH2 0x4F89 DUP2 PUSH2 0x4F4D JUMP JUMPDEST SWAP1 POP SWAP2 SWAP1 POP JUMP JUMPDEST PUSH32 0x546865207472616E73616374696F6E20706179207374696C6C206E6F7420646F PUSH1 0x0 DUP3 ADD MSTORE PUSH32 0x6E65207965742E00000000000000000000000000000000000000000000000000 PUSH1 0x20 DUP3 ADD MSTORE POP JUMP JUMPDEST PUSH1 0x0 PUSH2 0x4FEC PUSH1 0x27 DUP4 PUSH2 0x3D3F JUMP JUMPDEST SWAP2 POP PUSH2 0x4FF7 DUP3 PUSH2 0x4F90 JUMP JUMPDEST PUSH1 0x40 DUP3 ADD SWAP1 POP SWAP2 SWAP1 POP JUMP JUMPDEST PUSH1 0x0 PUSH1 0x20 DUP3 ADD SWAP1 POP DUP2 DUP2 SUB PUSH1 0x0 DUP4 ADD MSTORE PUSH2 0x501B DUP2 PUSH2 0x4FDF JUMP JUMPDEST SWAP1 POP SWAP2 SWAP1 POP JUMP JUMPDEST PUSH32 0x4F776E61626C653A206E6577206F776E657220697320746865207A65726F2061 PUSH1 0x0 DUP3 ADD MSTORE PUSH32 0x6464726573730000000000000000000000000000000000000000000000000000 PUSH1 0x20 DUP3 ADD MSTORE POP JUMP JUMPDEST PUSH1 0x0 PUSH2 0x507E PUSH1 0x26 DUP4 PUSH2 0x3D3F JUMP JUMPDEST SWAP2 POP PUSH2 0x5089 DUP3 PUSH2 0x5022 JUMP JUMPDEST PUSH1 0x40 DUP3 ADD SWAP1 POP SWAP2 SWAP1 POP JUMP JUMPDEST PUSH1 0x0 PUSH1 0x20 DUP3 ADD SWAP1 POP DUP2 DUP2 SUB PUSH1 0x0 DUP4 ADD MSTORE PUSH2 0x50AD DUP2 PUSH2 0x5071 JUMP JUMPDEST SWAP1 POP SWAP2 SWAP1 POP JUMP JUMPDEST PUSH32 0x4F776E61626C653A2063616C6C6572206973206E6F7420746865206F776E6572 PUSH1 0x0 DUP3 ADD MSTORE POP JUMP JUMPDEST PUSH1 0x0 PUSH2 0x50EA PUSH1 0x20 DUP4 PUSH2 0x3D3F JUMP JUMPDEST SWAP2 POP PUSH2 0x50F5 DUP3 PUSH2 0x50B4 JUMP JUMPDEST PUSH1 0x20 DUP3 ADD SWAP1 POP SWAP2 SWAP1 POP JUMP JUMPDEST PUSH1 0x0 PUSH1 0x20 DUP3 ADD SWAP1 POP DUP2 DUP2 SUB PUSH1 0x0 DUP4 ADD MSTORE PUSH2 0x5119 DUP2 PUSH2 0x50DD JUMP JUMPDEST SWAP1 POP SWAP2 SWAP1 POP JUMP JUMPDEST PUSH32 0x4E487B7100000000000000000000000000000000000000000000000000000000 PUSH1 0x0 MSTORE PUSH1 0x12 PUSH1 0x4 MSTORE PUSH1 0x24 PUSH1 0x0 REVERT JUMPDEST PUSH32 0x455243313135353A206D696E7420746F20746865207A65726F20616464726573 PUSH1 0x0 DUP3 ADD MSTORE PUSH32 0x7300000000000000000000000000000000000000000000000000000000000000 PUSH1 0x20 DUP3 ADD MSTORE POP JUMP JUMPDEST PUSH1 0x0 PUSH2 0x51AB PUSH1 0x21 DUP4 PUSH2 0x3D3F JUMP JUMPDEST SWAP2 POP PUSH2 0x51B6 DUP3 PUSH2 0x514F JUMP JUMPDEST PUSH1 0x40 DUP3 ADD SWAP1 POP SWAP2 SWAP1 POP JUMP JUMPDEST PUSH1 0x0 PUSH1 0x20 DUP3 ADD SWAP1 POP DUP2 DUP2 SUB PUSH1 0x0 DUP4 ADD MSTORE PUSH2 0x51DA DUP2 PUSH2 0x519E JUMP JUMPDEST SWAP1 POP SWAP2 SWAP1 POP JUMP JUMPDEST PUSH32 0x455243313135353A2069647320616E6420616D6F756E7473206C656E67746820 PUSH1 0x0 DUP3 ADD MSTORE PUSH32 0x6D69736D61746368000000000000000000000000000000000000000000000000 PUSH1 0x20 DUP3 ADD MSTORE POP JUMP JUMPDEST PUSH1 0x0 PUSH2 0x523D PUSH1 0x28 DUP4 PUSH2 0x3D3F JUMP JUMPDEST SWAP2 POP PUSH2 0x5248 DUP3 PUSH2 0x51E1 JUMP JUMPDEST PUSH1 0x40 DUP3 ADD SWAP1 POP SWAP2 SWAP1 POP JUMP JUMPDEST PUSH1 0x0 PUSH1 0x20 DUP3 ADD SWAP1 POP DUP2 DUP2 SUB PUSH1 0x0 DUP4 ADD MSTORE PUSH2 0x526C DUP2 PUSH2 0x5230 JUMP JUMPDEST SWAP1 POP SWAP2 SWAP1 POP JUMP JUMPDEST PUSH1 0x0 PUSH1 0x40 DUP3 ADD SWAP1 POP DUP2 DUP2 SUB PUSH1 0x0 DUP4 ADD MSTORE PUSH2 0x528D DUP2 DUP6 PUSH2 0x4096 JUMP JUMPDEST SWAP1 POP DUP2 DUP2 SUB PUSH1 0x20 DUP4 ADD MSTORE PUSH2 0x52A1 DUP2 DUP5 PUSH2 0x4096 JUMP JUMPDEST SWAP1 POP SWAP4 SWAP3 POP POP POP JUMP JUMPDEST PUSH32 0x4E487B7100000000000000000000000000000000000000000000000000000000 PUSH1 0x0 MSTORE PUSH1 0x1 PUSH1 0x4 MSTORE PUSH1 0x24 PUSH1 0x0 REVERT JUMPDEST PUSH1 0x0 PUSH2 0x52E4 DUP3 PUSH2 0x38CD JUMP JUMPDEST SWAP2 POP PUSH2 0x52EF DUP4 PUSH2 0x38CD JUMP JUMPDEST SWAP3 POP DUP3 PUSH2 0x52FF JUMPI PUSH2 0x52FE PUSH2 0x5120 JUMP JUMPDEST JUMPDEST DUP3 DUP3 DIV SWAP1 POP SWAP3 SWAP2 POP POP JUMP JUMPDEST PUSH32 0x455243313135353A207472616E7366657220746F20746865207A65726F206164 PUSH1 0x0 DUP3 ADD MSTORE PUSH32 0x6472657373000000000000000000000000000000000000000000000000000000 PUSH1 0x20 DUP3 ADD MSTORE POP JUMP JUMPDEST PUSH1 0x0 PUSH2 0x5366 PUSH1 0x25 DUP4 PUSH2 0x3D3F JUMP JUMPDEST SWAP2 POP PUSH2 0x5371 DUP3 PUSH2 0x530A JUMP JUMPDEST PUSH1 0x40 DUP3 ADD SWAP1 POP SWAP2 SWAP1 POP JUMP JUMPDEST PUSH1 0x0 PUSH1 0x20 DUP3 ADD SWAP1 POP DUP2 DUP2 SUB PUSH1 0x0 DUP4 ADD MSTORE PUSH2 0x5395 DUP2 PUSH2 0x5359 JUMP JUMPDEST SWAP1 POP SWAP2 SWAP1 POP JUMP JUMPDEST PUSH32 0x455243313135353A20696E73756666696369656E742062616C616E636520666F PUSH1 0x0 DUP3 ADD MSTORE PUSH32 0x72207472616E7366657200000000000000000000000000000000000000000000 PUSH1 0x20 DUP3 ADD MSTORE POP JUMP JUMPDEST PUSH1 0x0 PUSH2 0x53F8 PUSH1 0x2A DUP4 PUSH2 0x3D3F JUMP JUMPDEST SWAP2 POP PUSH2 0x5403 DUP3 PUSH2 0x539C JUMP JUMPDEST PUSH1 0x40 DUP3 ADD SWAP1 POP SWAP2 SWAP1 POP JUMP JUMPDEST PUSH1 0x0 PUSH1 0x20 DUP3 ADD SWAP1 POP DUP2 DUP2 SUB PUSH1 0x0 DUP4 ADD MSTORE PUSH2 0x5427 DUP2 PUSH2 0x53EB JUMP JUMPDEST SWAP1 POP SWAP2 SWAP1 POP JUMP JUMPDEST PUSH1 0x0 PUSH1 0x40 DUP3 ADD SWAP1 POP PUSH2 0x5443 PUSH1 0x0 DUP4 ADD DUP6 PUSH2 0x3943 JUMP JUMPDEST PUSH2 0x5450 PUSH1 0x20 DUP4 ADD DUP5 PUSH2 0x3943 JUMP JUMPDEST SWAP4 SWAP3 POP POP POP JUMP JUMPDEST PUSH32 0x455243313135353A206275726E2066726F6D20746865207A65726F2061646472 PUSH1 0x0 DUP3 ADD MSTORE PUSH32 0x6573730000000000000000000000000000000000000000000000000000000000 PUSH1 0x20 DUP3 ADD MSTORE POP JUMP JUMPDEST PUSH1 0x0 PUSH2 0x54B3 PUSH1 0x23 DUP4 PUSH2 0x3D3F JUMP JUMPDEST SWAP2 POP PUSH2 0x54BE DUP3 PUSH2 0x5457 JUMP JUMPDEST PUSH1 0x40 DUP3 ADD SWAP1 POP SWAP2 SWAP1 POP JUMP JUMPDEST PUSH1 0x0 PUSH1 0x20 DUP3 ADD SWAP1 POP DUP2 DUP2 SUB PUSH1 0x0 DUP4 ADD MSTORE PUSH2 0x54E2 DUP2 PUSH2 0x54A6 JUMP JUMPDEST SWAP1 POP SWAP2 SWAP1 POP JUMP JUMPDEST PUSH32 0x455243313135353A206275726E20616D6F756E7420657863656564732062616C PUSH1 0x0 DUP3 ADD MSTORE PUSH32 0x616E636500000000000000000000000000000000000000000000000000000000 PUSH1 0x20 DUP3 ADD MSTORE POP JUMP JUMPDEST PUSH1 0x0 PUSH2 0x5545 PUSH1 0x24 DUP4 PUSH2 0x3D3F JUMP JUMPDEST SWAP2 POP PUSH2 0x5550 DUP3 PUSH2 0x54E9 JUMP JUMPDEST PUSH1 0x40 DUP3 ADD SWAP1 POP SWAP2 SWAP1 POP JUMP JUMPDEST PUSH1 0x0 PUSH1 0x20 DUP3 ADD SWAP1 POP DUP2 DUP2 SUB PUSH1 0x0 DUP4 ADD MSTORE PUSH2 0x5574 DUP2 PUSH2 0x5538 JUMP JUMPDEST SWAP1 POP SWAP2 SWAP1 POP JUMP JUMPDEST PUSH32 0x455243313135353A2073657474696E6720617070726F76616C20737461747573 PUSH1 0x0 DUP3 ADD MSTORE PUSH32 0x20666F722073656C660000000000000000000000000000000000000000000000 PUSH1 0x20 DUP3 ADD MSTORE POP JUMP JUMPDEST PUSH1 0x0 PUSH2 0x55D7 PUSH1 0x29 DUP4 PUSH2 0x3D3F JUMP JUMPDEST SWAP2 POP PUSH2 0x55E2 DUP3 PUSH2 0x557B JUMP JUMPDEST PUSH1 0x40 DUP3 ADD SWAP1 POP SWAP2 SWAP1 POP JUMP JUMPDEST PUSH1 0x0 PUSH1 0x20 DUP3 ADD SWAP1 POP DUP2 DUP2 SUB PUSH1 0x0 DUP4 ADD MSTORE PUSH2 0x5606 DUP2 PUSH2 0x55CA JUMP JUMPDEST SWAP1 POP SWAP2 SWAP1 POP JUMP JUMPDEST PUSH1 0x0 DUP2 MLOAD SWAP1 POP SWAP2 SWAP1 POP JUMP JUMPDEST PUSH1 0x0 DUP3 DUP3 MSTORE PUSH1 0x20 DUP3 ADD SWAP1 POP SWAP3 SWAP2 POP POP JUMP JUMPDEST PUSH1 0x0 PUSH2 0x5634 DUP3 PUSH2 0x560D JUMP JUMPDEST PUSH2 0x563E DUP2 DUP6 PUSH2 0x5618 JUMP JUMPDEST SWAP4 POP PUSH2 0x564E DUP2 DUP6 PUSH1 0x20 DUP7 ADD PUSH2 0x3D50 JUMP JUMPDEST PUSH2 0x5657 DUP2 PUSH2 0x3A32 JUMP JUMPDEST DUP5 ADD SWAP2 POP POP SWAP3 SWAP2 POP POP JUMP JUMPDEST PUSH1 0x0 PUSH1 0xA0 DUP3 ADD SWAP1 POP PUSH2 0x5677 PUSH1 0x0 DUP4 ADD DUP9 PUSH2 0x43A3 JUMP JUMPDEST PUSH2 0x5684 PUSH1 0x20 DUP4 ADD DUP8 PUSH2 0x43A3 JUMP JUMPDEST DUP2 DUP2 SUB PUSH1 0x40 DUP4 ADD MSTORE PUSH2 0x5696 DUP2 DUP7 PUSH2 0x4096 JUMP JUMPDEST SWAP1 POP DUP2 DUP2 SUB PUSH1 0x60 DUP4 ADD MSTORE PUSH2 0x56AA DUP2 DUP6 PUSH2 0x4096 JUMP JUMPDEST SWAP1 POP DUP2 DUP2 SUB PUSH1 0x80 DUP4 ADD MSTORE PUSH2 0x56BE DUP2 DUP5 PUSH2 0x5629 JUMP JUMPDEST SWAP1 POP SWAP7 SWAP6 POP POP POP POP POP POP JUMP JUMPDEST PUSH1 0x0 DUP2 MLOAD SWAP1 POP PUSH2 0x56D9 DUP2 PUSH2 0x3999 JUMP JUMPDEST SWAP3 SWAP2 POP POP JUMP JUMPDEST PUSH1 0x0 PUSH1 0x20 DUP3 DUP5 SUB SLT ISZERO PUSH2 0x56F5 JUMPI PUSH2 0x56F4 PUSH2 0x3865 JUMP JUMPDEST JUMPDEST PUSH1 0x0 PUSH2 0x5703 DUP5 DUP3 DUP6 ADD PUSH2 0x56CA JUMP JUMPDEST SWAP2 POP POP SWAP3 SWAP2 POP POP JUMP JUMPDEST PUSH1 0x0 DUP2 PUSH1 0xE0 SHR SWAP1 POP SWAP2 SWAP1 POP JUMP JUMPDEST PUSH1 0x0 PUSH1 0x3 RETURNDATASIZE GT ISZERO PUSH2 0x5738 JUMPI PUSH1 0x4 PUSH1 0x0 DUP1 RETURNDATACOPY PUSH2 0x5735 PUSH1 0x0 MLOAD PUSH2 0x570C JUMP JUMPDEST SWAP1 POP JUMPDEST SWAP1 JUMP JUMPDEST PUSH1 0x0 PUSH1 0x44 RETURNDATASIZE LT ISZERO PUSH2 0x574B JUMPI PUSH2 0x57CE JUMP JUMPDEST PUSH2 0x5753 PUSH2 0x385B JUMP JUMPDEST PUSH1 0x4 RETURNDATASIZE SUB PUSH1 0x4 DUP3 RETURNDATACOPY DUP1 MLOAD RETURNDATASIZE PUSH1 0x24 DUP3 ADD GT PUSH8 0xFFFFFFFFFFFFFFFF DUP3 GT OR ISZERO PUSH2 0x577B JUMPI POP POP PUSH2 0x57CE JUMP JUMPDEST DUP1 DUP3 ADD DUP1 MLOAD PUSH8 0xFFFFFFFFFFFFFFFF DUP2 GT ISZERO PUSH2 0x5799 JUMPI POP POP POP POP PUSH2 0x57CE JUMP JUMPDEST DUP1 PUSH1 0x20 DUP4 ADD ADD PUSH1 0x4 RETURNDATASIZE SUB DUP6 ADD DUP2 GT ISZERO PUSH2 0x57B6 JUMPI POP POP POP POP POP PUSH2 0x57CE JUMP JUMPDEST PUSH2 0x57C5 DUP3 PUSH1 0x20 ADD DUP6 ADD DUP7 PUSH2 0x3A72 JUMP JUMPDEST DUP3 SWAP6 POP POP POP POP POP POP JUMPDEST SWAP1 JUMP JUMPDEST PUSH32 0x455243313135353A207472616E7366657220746F206E6F6E2D45524331313535 PUSH1 0x0 DUP3 ADD MSTORE PUSH32 0x526563656976657220696D706C656D656E746572000000000000000000000000 PUSH1 0x20 DUP3 ADD MSTORE POP JUMP JUMPDEST PUSH1 0x0 PUSH2 0x582D PUSH1 0x34 DUP4 PUSH2 0x3D3F JUMP JUMPDEST SWAP2 POP PUSH2 0x5838 DUP3 PUSH2 0x57D1 JUMP JUMPDEST PUSH1 0x40 DUP3 ADD SWAP1 POP SWAP2 SWAP1 POP JUMP JUMPDEST PUSH1 0x0 PUSH1 0x20 DUP3 ADD SWAP1 POP DUP2 DUP2 SUB PUSH1 0x0 DUP4 ADD MSTORE PUSH2 0x585C DUP2 PUSH2 0x5820 JUMP JUMPDEST SWAP1 POP SWAP2 SWAP1 POP JUMP JUMPDEST PUSH32 0x455243313135353A204552433131353552656365697665722072656A65637465 PUSH1 0x0 DUP3 ADD MSTORE PUSH32 0x6420746F6B656E73000000000000000000000000000000000000000000000000 PUSH1 0x20 DUP3 ADD MSTORE POP JUMP JUMPDEST PUSH1 0x0 PUSH2 0x58BF PUSH1 0x28 DUP4 PUSH2 0x3D3F JUMP JUMPDEST SWAP2 POP PUSH2 0x58CA DUP3 PUSH2 0x5863 JUMP JUMPDEST PUSH1 0x40 DUP3 ADD SWAP1 POP SWAP2 SWAP1 POP JUMP JUMPDEST PUSH1 0x0 PUSH1 0x20 DUP3 ADD SWAP1 POP DUP2 DUP2 SUB PUSH1 0x0 DUP4 ADD MSTORE PUSH2 0x58EE DUP2 PUSH2 0x58B2 JUMP JUMPDEST SWAP1 POP SWAP2 SWAP1 POP JUMP JUMPDEST PUSH1 0x0 PUSH1 0xA0 DUP3 ADD SWAP1 POP PUSH2 0x590A PUSH1 0x0 DUP4 ADD DUP9 PUSH2 0x43A3 JUMP JUMPDEST PUSH2 0x5917 PUSH1 0x20 DUP4 ADD DUP8 PUSH2 0x43A3 JUMP JUMPDEST PUSH2 0x5924 PUSH1 0x40 DUP4 ADD DUP7 PUSH2 0x3943 JUMP JUMPDEST PUSH2 0x5931 PUSH1 0x60 DUP4 ADD DUP6 PUSH2 0x3943 JUMP JUMPDEST DUP2 DUP2 SUB PUSH1 0x80 DUP4 ADD MSTORE PUSH2 0x5943 DUP2 DUP5 PUSH2 0x5629 JUMP JUMPDEST SWAP1 POP SWAP7 SWAP6 POP POP POP POP POP POP JUMP JUMPDEST PUSH32 0x4E487B7100000000000000000000000000000000000000000000000000000000 PUSH1 0x0 MSTORE PUSH1 0x22 PUSH1 0x4 MSTORE PUSH1 0x24 PUSH1 0x0 REVERT JUMPDEST PUSH1 0x0 PUSH1 0x2 DUP3 DIV SWAP1 POP PUSH1 0x1 DUP3 AND DUP1 PUSH2 0x5996 JUMPI PUSH1 0x7F DUP3 AND SWAP2 POP JUMPDEST PUSH1 0x20 DUP3 LT DUP2 EQ ISZERO PUSH2 0x59AA JUMPI PUSH2 0x59A9 PUSH2 0x594F JUMP JUMPDEST JUMPDEST POP SWAP2 SWAP1 POP JUMP INVALID LOG2 PUSH5 0x6970667358 0x22 SLT KECCAK256 0xDE MLOAD 0xFC 0xDA MLOAD EXTCODECOPY SHR SWAP8 RETURNDATACOPY 0xCE 0x2D SAR SWAP6 DUP16 CALLVALUE GASLIMIT 0xA7 PUSH19 0xEAEB2EC7E5F9EA49B06C5FD2ED1664736F6C63 NUMBER STOP ADDMOD MULMOD STOP CALLER PUSH9 0x747470733A2F2F7065 PUSH21 0x2D726F636B2D6574682E70616E63616B652E74772F PUSH15 0x66742F7B69647D2E6A736F6E000000 "
		},
		"gasEstimates": {
			"creation": {
				"codeDepositCost": "4602800",
				"executionCost": "infinite",
				"totalCost": "infinite"
			},
			"external": {
				"balanceOf(address,uint256)": "infinite",
				"balanceOfBatch(address[],uint256[])": "infinite",
				"burn(address,uint256,uint256)": "infinite",
				"burnBatch(address,uint256[],uint256[])": "infinite",
				"check_batch_lock(uint256[],bool)": "infinite",
				"check_locked(uint256)": "3040",
				"chenge_construct_owner(address)": "26959",
				"die(uint256)": "27369",
				"feed(uint256,uint256,address)": "infinite",
				"findstone(address)": "infinite",
				"get_ETH()": "infinite",
				"get_adopt_time(uint256)": "infinite",
				"get_feed(uint256)": "infinite",
				"get_health_point_percentage_or_burn(uint256)": "infinite",
				"get_lock_status(uint256)": "2967",
				"get_struct(uint256)": "infinite",
				"get_token_adopter(uint256)": "2916",
				"isApprovedForAll(address,address)": "infinite",
				"left_stone_number()": "infinite",
				"mint(address)": "infinite",
				"mintBatch(address,uint256[],uint256[],bytes)": "infinite",
				"owner()": "2633",
				"renounceOwnership()": "30510",
				"safeBatchTransferFrom(address,address,uint256[],uint256[],bytes)": "infinite",
				"safeTransferFrom(address,address,uint256,uint256,bytes)": "infinite",
				"setApprovalForAll(address,bool)": "infinite",
				"setURI(string)": "infinite",
				"set_batch_lock(uint256[],bool)": "infinite",
				"supportsInterface(bytes4)": "842",
				"transferOwnership(address)": "30813",
				"unlock_payment(uint256)": "infinite",
				"uri(uint256)": "infinite"
			},
			"internal": {
				"divide(uint256,uint256)": "infinite",
				"findstone_arrayposition(address,uint256)": "infinite"
			}
		},
		"methodIdentifiers": {
			"balanceOf(address,uint256)": "00fdd58e",
			"balanceOfBatch(address[],uint256[])": "4e1273f4",
			"burn(address,uint256,uint256)": "f5298aca",
			"burnBatch(address,uint256[],uint256[])": "6b20c454",
			"check_batch_lock(uint256[],bool)": "0b291dd9",
			"check_locked(uint256)": "87199cbc",
			"chenge_construct_owner(address)": "a019f571",
			"die(uint256)": "29aa8e9b",
			"feed(uint256,uint256,address)": "84b147cb",
			"findstone(address)": "39200300",
			"get_ETH()": "2c01bfe4",
			"get_adopt_time(uint256)": "639031b1",
			"get_feed(uint256)": "6a781b0a",
			"get_health_point_percentage_or_burn(uint256)": "2b71f94b",
			"get_lock_status(uint256)": "3495f0fa",
			"get_struct(uint256)": "699d3127",
			"get_token_adopter(uint256)": "74d9f5f9",
			"isApprovedForAll(address,address)": "e985e9c5",
			"left_stone_number()": "fe283f16",
			"mint(address)": "6a627842",
			"mintBatch(address,uint256[],uint256[],bytes)": "1f7fdffa",
			"owner()": "8da5cb5b",
			"renounceOwnership()": "715018a6",
			"safeBatchTransferFrom(address,address,uint256[],uint256[],bytes)": "2eb2c2d6",
			"safeTransferFrom(address,address,uint256,uint256,bytes)": "f242432a",
			"setApprovalForAll(address,bool)": "a22cb465",
			"setURI(string)": "02fe5305",
			"set_batch_lock(uint256[],bool)": "9e921dd1",
			"supportsInterface(bytes4)": "01ffc9a7",
			"transferOwnership(address)": "f2fde38b",
			"unlock_payment(uint256)": "68d1102b",
			"uri(uint256)": "0e89341c"
		}
	},
	"abi": [
		{
			"inputs": [],
			"stateMutability": "nonpayable",
			"type": "constructor"
		},
		{
			"anonymous": false,
			"inputs": [
				{
					"indexed": true,
					"internalType": "address",
					"name": "account",
					"type": "address"
				},
				{
					"indexed": true,
					"internalType": "address",
					"name": "operator",
					"type": "address"
				},
				{
					"indexed": false,
					"internalType": "bool",
					"name": "approved",
					"type": "bool"
				}
			],
			"name": "ApprovalForAll",
			"type": "event"
		},
		{
			"anonymous": false,
			"inputs": [
				{
					"indexed": true,
					"internalType": "address",
					"name": "previousOwner",
					"type": "address"
				},
				{
					"indexed": true,
					"internalType": "address",
					"name": "newOwner",
					"type": "address"
				}
			],
			"name": "OwnershipTransferred",
			"type": "event"
		},
		{
			"anonymous": false,
			"inputs": [
				{
					"indexed": false,
					"internalType": "address",
					"name": "_sender",
					"type": "address"
				},
				{
					"indexed": false,
					"internalType": "uint256",
					"name": "_value",
					"type": "uint256"
				},
				{
					"indexed": false,
					"internalType": "string",
					"name": "_message",
					"type": "string"
				}
			],
			"name": "Received",
			"type": "event"
		},
		{
			"anonymous": false,
			"inputs": [
				{
					"indexed": true,
					"internalType": "address",
					"name": "operator",
					"type": "address"
				},
				{
					"indexed": true,
					"internalType": "address",
					"name": "from",
					"type": "address"
				},
				{
					"indexed": true,
					"internalType": "address",
					"name": "to",
					"type": "address"
				},
				{
					"indexed": false,
					"internalType": "uint256[]",
					"name": "ids",
					"type": "uint256[]"
				},
				{
					"indexed": false,
					"internalType": "uint256[]",
					"name": "values",
					"type": "uint256[]"
				}
			],
			"name": "TransferBatch",
			"type": "event"
		},
		{
			"anonymous": false,
			"inputs": [
				{
					"indexed": true,
					"internalType": "address",
					"name": "operator",
					"type": "address"
				},
				{
					"indexed": true,
					"internalType": "address",
					"name": "from",
					"type": "address"
				},
				{
					"indexed": true,
					"internalType": "address",
					"name": "to",
					"type": "address"
				},
				{
					"indexed": false,
					"internalType": "uint256",
					"name": "id",
					"type": "uint256"
				},
				{
					"indexed": false,
					"internalType": "uint256",
					"name": "value",
					"type": "uint256"
				}
			],
			"name": "TransferSingle",
			"type": "event"
		},
		{
			"anonymous": false,
			"inputs": [
				{
					"indexed": false,
					"internalType": "string",
					"name": "value",
					"type": "string"
				},
				{
					"indexed": true,
					"internalType": "uint256",
					"name": "id",
					"type": "uint256"
				}
			],
			"name": "URI",
			"type": "event"
		},
		{
			"inputs": [
				{
					"internalType": "address",
					"name": "account",
					"type": "address"
				},
				{
					"internalType": "uint256",
					"name": "id",
					"type": "uint256"
				}
			],
			"name": "balanceOf",
			"outputs": [
				{
					"internalType": "uint256",
					"name": "",
					"type": "uint256"
				}
			],
			"stateMutability": "view",
			"type": "function"
		},
		{
			"inputs": [
				{
					"internalType": "address[]",
					"name": "accounts",
					"type": "address[]"
				},
				{
					"internalType": "uint256[]",
					"name": "ids",
					"type": "uint256[]"
				}
			],
			"name": "balanceOfBatch",
			"outputs": [
				{
					"internalType": "uint256[]",
					"name": "",
					"type": "uint256[]"
				}
			],
			"stateMutability": "view",
			"type": "function"
		},
		{
			"inputs": [
				{
					"internalType": "address",
					"name": "account",
					"type": "address"
				},
				{
					"internalType": "uint256",
					"name": "id",
					"type": "uint256"
				},
				{
					"internalType": "uint256",
					"name": "value",
					"type": "uint256"
				}
			],
			"name": "burn",
			"outputs": [],
			"stateMutability": "nonpayable",
			"type": "function"
		},
		{
			"inputs": [
				{
					"internalType": "address",
					"name": "account",
					"type": "address"
				},
				{
					"internalType": "uint256[]",
					"name": "ids",
					"type": "uint256[]"
				},
				{
					"internalType": "uint256[]",
					"name": "values",
					"type": "uint256[]"
				}
			],
			"name": "burnBatch",
			"outputs": [],
			"stateMutability": "nonpayable",
			"type": "function"
		},
		{
			"inputs": [
				{
					"internalType": "uint256[]",
					"name": "ids",
					"type": "uint256[]"
				},
				{
					"internalType": "bool",
					"name": "status",
					"type": "bool"
				}
			],
			"name": "check_batch_lock",
			"outputs": [
				{
					"internalType": "bool",
					"name": "",
					"type": "bool"
				}
			],
			"stateMutability": "view",
			"type": "function"
		},
		{
			"inputs": [
				{
					"internalType": "uint256",
					"name": "id",
					"type": "uint256"
				}
			],
			"name": "check_locked",
			"outputs": [
				{
					"internalType": "bool",
					"name": "",
					"type": "bool"
				}
			],
			"stateMutability": "view",
			"type": "function"
		},
		{
			"inputs": [
				{
					"internalType": "address",
					"name": "newowner",
					"type": "address"
				}
			],
			"name": "chenge_construct_owner",
			"outputs": [],
			"stateMutability": "nonpayable",
			"type": "function"
		},
		{
			"inputs": [
				{
					"internalType": "uint256",
					"name": "id",
					"type": "uint256"
				}
			],
			"name": "die",
			"outputs": [
				{
					"internalType": "bool",
					"name": "",
					"type": "bool"
				}
			],
			"stateMutability": "nonpayable",
			"type": "function"
		},
		{
			"inputs": [
				{
					"internalType": "uint256",
					"name": "id",
					"type": "uint256"
				},
				{
					"internalType": "uint256",
					"name": "feed_days",
					"type": "uint256"
				},
				{
					"internalType": "address",
					"name": "adopter",
					"type": "address"
				}
			],
			"name": "feed",
			"outputs": [],
			"stateMutability": "nonpayable",
			"type": "function"
		},
		{
			"inputs": [
				{
					"internalType": "address",
					"name": "account",
					"type": "address"
				}
			],
			"name": "findstone",
			"outputs": [
				{
					"internalType": "uint256[]",
					"name": "",
					"type": "uint256[]"
				}
			],
			"stateMutability": "view",
			"type": "function"
		},
		{
			"inputs": [],
			"name": "get_ETH",
			"outputs": [],
			"stateMutability": "nonpayable",
			"type": "function"
		},
		{
			"inputs": [
				{
					"internalType": "uint256",
					"name": "id",
					"type": "uint256"
				}
			],
			"name": "get_adopt_time",
			"outputs": [
				{
					"internalType": "uint256",
					"name": "",
					"type": "uint256"
				}
			],
			"stateMutability": "view",
			"type": "function"
		},
		{
			"inputs": [
				{
					"internalType": "uint256",
					"name": "id",
					"type": "uint256"
				}
			],
			"name": "get_feed",
			"outputs": [
				{
					"internalType": "uint256",
					"name": "",
					"type": "uint256"
				}
			],
			"stateMutability": "view",
			"type": "function"
		},
		{
			"inputs": [
				{
					"internalType": "uint256",
					"name": "id",
					"type": "uint256"
				}
			],
			"name": "get_health_point_percentage_or_burn",
			"outputs": [
				{
					"internalType": "uint256",
					"name": "health_digits18",
					"type": "uint256"
				}
			],
			"stateMutability": "nonpayable",
			"type": "function"
		},
		{
			"inputs": [
				{
					"internalType": "uint256",
					"name": "id",
					"type": "uint256"
				}
			],
			"name": "get_lock_status",
			"outputs": [
				{
					"internalType": "bool",
					"name": "",
					"type": "bool"
				}
			],
			"stateMutability": "view",
			"type": "function"
		},
		{
			"inputs": [
				{
					"internalType": "uint256",
					"name": "id",
					"type": "uint256"
				}
			],
			"name": "get_struct",
			"outputs": [
				{
					"components": [
						{
							"internalType": "uint256",
							"name": "id",
							"type": "uint256"
						},
						{
							"internalType": "address",
							"name": "adopter_address",
							"type": "address"
						},
						{
							"internalType": "uint256",
							"name": "adopt_date_timestamp",
							"type": "uint256"
						},
						{
							"internalType": "uint256",
							"name": "feed",
							"type": "uint256"
						},
						{
							"internalType": "uint256",
							"name": "healthPointPercentage_18digits",
							"type": "uint256"
						},
						{
							"internalType": "bool",
							"name": "lock_status",
							"type": "bool"
						},
						{
							"internalType": "bool",
							"name": "live_status",
							"type": "bool"
						}
					],
					"internalType": "struct MyToken.Stone",
					"name": "",
					"type": "tuple"
				}
			],
			"stateMutability": "view",
			"type": "function"
		},
		{
			"inputs": [
				{
					"internalType": "uint256",
					"name": "id",
					"type": "uint256"
				}
			],
			"name": "get_token_adopter",
			"outputs": [
				{
					"internalType": "address",
					"name": "adopter",
					"type": "address"
				}
			],
			"stateMutability": "view",
			"type": "function"
		},
		{
			"inputs": [
				{
					"internalType": "address",
					"name": "account",
					"type": "address"
				},
				{
					"internalType": "address",
					"name": "operator",
					"type": "address"
				}
			],
			"name": "isApprovedForAll",
			"outputs": [
				{
					"internalType": "bool",
					"name": "",
					"type": "bool"
				}
			],
			"stateMutability": "view",
			"type": "function"
		},
		{
			"inputs": [],
			"name": "left_stone_number",
			"outputs": [
				{
					"internalType": "uint256",
					"name": "",
					"type": "uint256"
				}
			],
			"stateMutability": "view",
			"type": "function"
		},
		{
			"inputs": [
				{
					"internalType": "address",
					"name": "account_address",
					"type": "address"
				}
			],
			"name": "mint",
			"outputs": [],
			"stateMutability": "nonpayable",
			"type": "function"
		},
		{
			"inputs": [
				{
					"internalType": "address",
					"name": "to",
					"type": "address"
				},
				{
					"internalType": "uint256[]",
					"name": "ids",
					"type": "uint256[]"
				},
				{
					"internalType": "uint256[]",
					"name": "amounts",
					"type": "uint256[]"
				},
				{
					"internalType": "bytes",
					"name": "data",
					"type": "bytes"
				}
			],
			"name": "mintBatch",
			"outputs": [],
			"stateMutability": "nonpayable",
			"type": "function"
		},
		{
			"inputs": [],
			"name": "owner",
			"outputs": [
				{
					"internalType": "address",
					"name": "",
					"type": "address"
				}
			],
			"stateMutability": "view",
			"type": "function"
		},
		{
			"inputs": [],
			"name": "renounceOwnership",
			"outputs": [],
			"stateMutability": "nonpayable",
			"type": "function"
		},
		{
			"inputs": [
				{
					"internalType": "address",
					"name": "from",
					"type": "address"
				},
				{
					"internalType": "address",
					"name": "to",
					"type": "address"
				},
				{
					"internalType": "uint256[]",
					"name": "ids",
					"type": "uint256[]"
				},
				{
					"internalType": "uint256[]",
					"name": "amounts",
					"type": "uint256[]"
				},
				{
					"internalType": "bytes",
					"name": "data",
					"type": "bytes"
				}
			],
			"name": "safeBatchTransferFrom",
			"outputs": [],
			"stateMutability": "nonpayable",
			"type": "function"
		},
		{
			"inputs": [
				{
					"internalType": "address",
					"name": "from",
					"type": "address"
				},
				{
					"internalType": "address",
					"name": "to",
					"type": "address"
				},
				{
					"internalType": "uint256",
					"name": "id",
					"type": "uint256"
				},
				{
					"internalType": "uint256",
					"name": "amount",
					"type": "uint256"
				},
				{
					"internalType": "bytes",
					"name": "data",
					"type": "bytes"
				}
			],
			"name": "safeTransferFrom",
			"outputs": [],
			"stateMutability": "nonpayable",
			"type": "function"
		},
		{
			"inputs": [
				{
					"internalType": "address",
					"name": "operator",
					"type": "address"
				},
				{
					"internalType": "bool",
					"name": "approved",
					"type": "bool"
				}
			],
			"name": "setApprovalForAll",
			"outputs": [],
			"stateMutability": "nonpayable",
			"type": "function"
		},
		{
			"inputs": [
				{
					"internalType": "string",
					"name": "newuri",
					"type": "string"
				}
			],
			"name": "setURI",
			"outputs": [],
			"stateMutability": "nonpayable",
			"type": "function"
		},
		{
			"inputs": [
				{
					"internalType": "uint256[]",
					"name": "ids",
					"type": "uint256[]"
				},
				{
					"internalType": "bool",
					"name": "lock_status",
					"type": "bool"
				}
			],
			"name": "set_batch_lock",
			"outputs": [],
			"stateMutability": "nonpayable",
			"type": "function"
		},
		{
			"inputs": [
				{
					"internalType": "bytes4",
					"name": "interfaceId",
					"type": "bytes4"
				}
			],
			"name": "supportsInterface",
			"outputs": [
				{
					"internalType": "bool",
					"name": "",
					"type": "bool"
				}
			],
			"stateMutability": "view",
			"type": "function"
		},
		{
			"inputs": [
				{
					"internalType": "address",
					"name": "newOwner",
					"type": "address"
				}
			],
			"name": "transferOwnership",
			"outputs": [],
			"stateMutability": "nonpayable",
			"type": "function"
		},
		{
			"inputs": [
				{
					"internalType": "uint256",
					"name": "id",
					"type": "uint256"
				}
			],
			"name": "unlock_payment",
			"outputs": [],
			"stateMutability": "payable",
			"type": "function"
		},
		{
			"inputs": [
				{
					"internalType": "uint256",
					"name": "id",
					"type": "uint256"
				}
			],
			"name": "uri",
			"outputs": [
				{
					"internalType": "string",
					"name": "",
					"type": "string"
				}
			],
			"stateMutability": "view",
			"type": "function"
		}
	]
}