{
	"data": {
		"bytecode": {
			"linkReferences": {},
			"object": "610123610030600b82828239805160001a6073146000811461002057610022565bfe5b5030600052607381538281f30073000000000000000000000000000000000000000030146080604052600436106060576000357c0100000000000000000000000000000000000000000000000000000000900463ffffffff168063771602f7146065578063a5f3c23b1460a1575b600080fd5b608b600480360381019080803590602001909291908035906020019092919050505060dd565b6040518082815260200191505060405180910390f35b60c7600480360381019080803590602001909291908035906020019092919050505060ea565b6040518082815260200191505060405180910390f35b6000818301905092915050565b60008183019050929150505600a165627a7a72305820394091d3191f80620447457d9d5d0bae704e3e5e6967600ea9ef64207f62a9370029",
			"opcodes": "PUSH2 0x123 PUSH2 0x30 PUSH1 0xB DUP3 DUP3 DUP3 CODECOPY DUP1 MLOAD PUSH1 0x0 BYTE PUSH1 0x73 EQ PUSH1 0x0 DUP2 EQ PUSH2 0x20 JUMPI PUSH2 0x22 JUMP JUMPDEST INVALID JUMPDEST POP ADDRESS PUSH1 0x0 MSTORE PUSH1 0x73 DUP2 MSTORE8 DUP3 DUP2 RETURN STOP PUSH20 0x0 ADDRESS EQ PUSH1 0x80 PUSH1 0x40 MSTORE PUSH1 0x4 CALLDATASIZE LT PUSH1 0x60 JUMPI PUSH1 0x0 CALLDATALOAD PUSH29 0x100000000000000000000000000000000000000000000000000000000 SWAP1 DIV PUSH4 0xFFFFFFFF AND DUP1 PUSH4 0x771602F7 EQ PUSH1 0x65 JUMPI DUP1 PUSH4 0xA5F3C23B EQ PUSH1 0xA1 JUMPI JUMPDEST PUSH1 0x0 DUP1 REVERT JUMPDEST PUSH1 0x8B PUSH1 0x4 DUP1 CALLDATASIZE SUB DUP2 ADD SWAP1 DUP1 DUP1 CALLDATALOAD SWAP1 PUSH1 0x20 ADD SWAP1 SWAP3 SWAP2 SWAP1 DUP1 CALLDATALOAD SWAP1 PUSH1 0x20 ADD SWAP1 SWAP3 SWAP2 SWAP1 POP POP POP PUSH1 0xDD JUMP JUMPDEST PUSH1 0x40 MLOAD DUP1 DUP3 DUP2 MSTORE PUSH1 0x20 ADD SWAP2 POP POP PUSH1 0x40 MLOAD DUP1 SWAP2 SUB SWAP1 RETURN JUMPDEST PUSH1 0xC7 PUSH1 0x4 DUP1 CALLDATASIZE SUB DUP2 ADD SWAP1 DUP1 DUP1 CALLDATALOAD SWAP1 PUSH1 0x20 ADD SWAP1 SWAP3 SWAP2 SWAP1 DUP1 CALLDATALOAD SWAP1 PUSH1 0x20 ADD SWAP1 SWAP3 SWAP2 SWAP1 POP POP POP PUSH1 0xEA JUMP JUMPDEST PUSH1 0x40 MLOAD DUP1 DUP3 DUP2 MSTORE PUSH1 0x20 ADD SWAP2 POP POP PUSH1 0x40 MLOAD DUP1 SWAP2 SUB SWAP1 RETURN JUMPDEST PUSH1 0x0 DUP2 DUP4 ADD SWAP1 POP SWAP3 SWAP2 POP POP JUMP JUMPDEST PUSH1 0x0 DUP2 DUP4 ADD SWAP1 POP SWAP3 SWAP2 POP POP JUMP STOP LOG1 PUSH6 0x627A7A723058 KECCAK256 CODECOPY BLOCKHASH SWAP2 0xd3 NOT 0x1f DUP1 PUSH3 0x44745 PUSH30 0x9D5D0BAE704E3E5E6967600EA9EF64207F62A93700290000000000000000 "
		},
		"gasEstimates": {
			"creation": {
				"codeDepositCost": "58200",
				"executionCost": "158",
				"totalCost": "58358"
			},
			"external": {
				"add(int256,int256)": "304",
				"add(uint256,uint256)": "282"
			}
		},
		"methodIdentifiers": {
			"add(int256,int256)": "a5f3c23b",
			"add(uint256,uint256)": "771602f7"
		}
	},
	"abi": [
		{
			"constant": true,
			"inputs": [
				{
					"name": "a",
					"type": "uint256"
				},
				{
					"name": "b",
					"type": "uint256"
				}
			],
			"name": "add",
			"outputs": [
				{
					"name": "c",
					"type": "uint256"
				}
			],
			"payable": false,
			"stateMutability": "view",
			"type": "function"
		},
		{
			"constant": true,
			"inputs": [
				{
					"name": "a",
					"type": "int256"
				},
				{
					"name": "b",
					"type": "int256"
				}
			],
			"name": "add",
			"outputs": [
				{
					"name": "c",
					"type": "int256"
				}
			],
			"payable": false,
			"stateMutability": "view",
			"type": "function"
		}
	]
}