{
	"data": {
		"bytecode": {
			"linkReferences": {},
			"object": "6080604052605a60015534801561001557600080fd5b50336000806101000a81548173ffffffffffffffffffffffffffffffffffffffff021916908373ffffffffffffffffffffffffffffffffffffffff16021790555060e9806100646000396000f3006080604052600436106049576000357c0100000000000000000000000000000000000000000000000000000000900463ffffffff1680631fc376f714604e578063d46300fd146062575b600080fd5b348015605957600080fd5b506060608a565b005b348015606d57600080fd5b50607460b3565b6040518082815260200191505060405180910390f35b600154600081905060006001549050604660018190555050600154905060506001819055505050565b60006001549050905600a165627a7a72305820c95d98bc8844320f547991829f0f53c6603e36bcf203774c4be818efa2f65c3f0029",
			"opcodes": "PUSH1 0x80 PUSH1 0x40 MSTORE PUSH1 0x5A PUSH1 0x1 SSTORE CALLVALUE DUP1 ISZERO PUSH2 0x15 JUMPI PUSH1 0x0 DUP1 REVERT JUMPDEST POP CALLER PUSH1 0x0 DUP1 PUSH2 0x100 EXP DUP2 SLOAD DUP2 PUSH20 0xFFFFFFFFFFFFFFFFFFFFFFFFFFFFFFFFFFFFFFFF MUL NOT AND SWAP1 DUP4 PUSH20 0xFFFFFFFFFFFFFFFFFFFFFFFFFFFFFFFFFFFFFFFF AND MUL OR SWAP1 SSTORE POP PUSH1 0xE9 DUP1 PUSH2 0x64 PUSH1 0x0 CODECOPY PUSH1 0x0 RETURN STOP PUSH1 0x80 PUSH1 0x40 MSTORE PUSH1 0x4 CALLDATASIZE LT PUSH1 0x49 JUMPI PUSH1 0x0 CALLDATALOAD PUSH29 0x100000000000000000000000000000000000000000000000000000000 SWAP1 DIV PUSH4 0xFFFFFFFF AND DUP1 PUSH4 0x1FC376F7 EQ PUSH1 0x4E JUMPI DUP1 PUSH4 0xD46300FD EQ PUSH1 0x62 JUMPI JUMPDEST PUSH1 0x0 DUP1 REVERT JUMPDEST CALLVALUE DUP1 ISZERO PUSH1 0x59 JUMPI PUSH1 0x0 DUP1 REVERT JUMPDEST POP PUSH1 0x60 PUSH1 0x8A JUMP JUMPDEST STOP JUMPDEST CALLVALUE DUP1 ISZERO PUSH1 0x6D JUMPI PUSH1 0x0 DUP1 REVERT JUMPDEST POP PUSH1 0x74 PUSH1 0xB3 JUMP JUMPDEST PUSH1 0x40 MLOAD DUP1 DUP3 DUP2 MSTORE PUSH1 0x20 ADD SWAP2 POP POP PUSH1 0x40 MLOAD DUP1 SWAP2 SUB SWAP1 RETURN JUMPDEST PUSH1 0x1 SLOAD PUSH1 0x0 DUP2 SWAP1 POP PUSH1 0x0 PUSH1 0x1 SLOAD SWAP1 POP PUSH1 0x46 PUSH1 0x1 DUP2 SWAP1 SSTORE POP POP PUSH1 0x1 SLOAD SWAP1 POP PUSH1 0x50 PUSH1 0x1 DUP2 SWAP1 SSTORE POP POP POP JUMP JUMPDEST PUSH1 0x0 PUSH1 0x1 SLOAD SWAP1 POP SWAP1 JUMP STOP LOG1 PUSH6 0x627A7A723058 KECCAK256 0xc9 0x5d SWAP9 0xbc DUP9 DIFFICULTY ORIGIN 0xf SLOAD PUSH26 0x91829F0F53C6603E36BCF203774C4BE818EFA2F65C3F00290000 "
		},
		"gasEstimates": {
			"creation": {
				"codeDepositCost": "46600",
				"executionCost": "40371",
				"totalCost": "86971"
			},
			"external": {
				"getA()": "424",
				"setA()": "25800"
			}
		},
		"methodIdentifiers": {
			"getA()": "d46300fd",
			"setA()": "1fc376f7"
		}
	},
	"abi": [
		{
			"constant": false,
			"inputs": [],
			"name": "setA",
			"outputs": [],
			"payable": false,
			"stateMutability": "nonpayable",
			"type": "function"
		},
		{
			"constant": true,
			"inputs": [],
			"name": "getA",
			"outputs": [
				{
					"name": "",
					"type": "int256"
				}
			],
			"payable": false,
			"stateMutability": "view",
			"type": "function"
		},
		{
			"inputs": [],
			"payable": false,
			"stateMutability": "nonpayable",
			"type": "constructor"
		}
	]
}