{
	"contracts/work/reward.sol": {
		"reward": {
			"abi": [
				{
					"inputs": [],
					"stateMutability": "nonpayable",
					"type": "constructor"
				},
				{
					"anonymous": false,
					"inputs": [
						{
							"indexed": false,
							"internalType": "address",
							"name": "_sender",
							"type": "address"
						},
						{
							"indexed": false,
							"internalType": "uint256",
							"name": "_value",
							"type": "uint256"
						},
						{
							"indexed": false,
							"internalType": "string",
							"name": "_message",
							"type": "string"
						}
					],
					"name": "Received",
					"type": "event"
				},
				{
					"stateMutability": "payable",
					"type": "fallback"
				},
				{
					"inputs": [
						{
							"internalType": "address payable",
							"name": "_address",
							"type": "address"
						}
					],
					"name": "change_owner",
					"outputs": [
						{
							"internalType": "bool",
							"name": "",
							"type": "bool"
						}
					],
					"stateMutability": "nonpayable",
					"type": "function"
				},
				{
					"inputs": [
						{
							"internalType": "address payable[]",
							"name": "_address",
							"type": "address[]"
						},
						{
							"internalType": "uint256[]",
							"name": "_value",
							"type": "uint256[]"
						}
					],
					"name": "pay_reward",
					"outputs": [
						{
							"internalType": "bool",
							"name": "",
							"type": "bool"
						}
					],
					"stateMutability": "payable",
					"type": "function"
				},
				{
					"inputs": [],
					"name": "take_back_money",
					"outputs": [
						{
							"internalType": "bool",
							"name": "",
							"type": "bool"
						}
					],
					"stateMutability": "payable",
					"type": "function"
				},
				{
					"stateMutability": "payable",
					"type": "receive"
				}
			],
			"devdoc": {
				"kind": "dev",
				"methods": {},
				"version": 1
			},
			"evm": {
				"assembly": "    /* \"contracts/work/reward.sol\":61:1496  contract reward{... */\n  mstore(0x40, 0x80)\n    /* \"contracts/work/reward.sol\":305:362  constructor(){... */\n  callvalue\n  dup1\n  iszero\n  tag_1\n  jumpi\n  0x00\n  dup1\n  revert\ntag_1:\n  pop\n    /* \"contracts/work/reward.sol\":343:353  msg.sender */\n  caller\n    /* \"contracts/work/reward.sol\":329:334  owner */\n  0x00\n  dup1\n    /* \"contracts/work/reward.sol\":329:354  owner=payable(msg.sender) */\n  0x0100\n  exp\n  dup2\n  sload\n  dup2\n  0xffffffffffffffffffffffffffffffffffffffff\n  mul\n  not\n  and\n  swap1\n  dup4\n  0xffffffffffffffffffffffffffffffffffffffff\n  and\n  mul\n  or\n  swap1\n  sstore\n  pop\n    /* \"contracts/work/reward.sol\":61:1496  contract reward{... */\n  dataSize(sub_0)\n  dup1\n  dataOffset(sub_0)\n  0x00\n  codecopy\n  0x00\n  return\nstop\n\nsub_0: assembly {\n        /* \"contracts/work/reward.sol\":61:1496  contract reward{... */\n      mstore(0x40, 0x80)\n      jumpi(tag_1, lt(calldatasize, 0x04))\n      shr(0xe0, calldataload(0x00))\n      dup1\n      0x253c8bd4\n      eq\n      tag_3\n      jumpi\n      dup1\n      0x5d16b8de\n      eq\n      tag_4\n      jumpi\n      dup1\n      0xc060541d\n      eq\n      tag_5\n      jumpi\n      jump(tag_2)\n    tag_1:\n      jumpi(tag_2, calldatasize)\n        /* \"contracts/work/reward.sol\":525:578  Received(msg.sender, msg.value, \"receive was called\") */\n      0x59e04c3f0d44b7caf6e8ef854b61d9a51cf1960d7a88ff6356cc5e946b4b5832\n        /* \"contracts/work/reward.sol\":534:544  msg.sender */\n      caller\n        /* \"contracts/work/reward.sol\":546:555  msg.value */\n      callvalue\n        /* \"contracts/work/reward.sol\":525:578  Received(msg.sender, msg.value, \"receive was called\") */\n      mload(0x40)\n      tag_8\n      swap3\n      swap2\n      swap1\n      tag_9\n      jump\t// in\n    tag_8:\n      mload(0x40)\n      dup1\n      swap2\n      sub\n      swap1\n      log1\n        /* \"contracts/work/reward.sol\":61:1496  contract reward{... */\n      stop\n    tag_2:\n        /* \"contracts/work/reward.sol\":413:467  Received(msg.sender, msg.value, \"fallback was called\") */\n      0x59e04c3f0d44b7caf6e8ef854b61d9a51cf1960d7a88ff6356cc5e946b4b5832\n        /* \"contracts/work/reward.sol\":422:432  msg.sender */\n      caller\n        /* \"contracts/work/reward.sol\":434:443  msg.value */\n      callvalue\n        /* \"contracts/work/reward.sol\":413:467  Received(msg.sender, msg.value, \"fallback was called\") */\n      mload(0x40)\n      tag_12\n      swap3\n      swap2\n      swap1\n      tag_13\n      jump\t// in\n    tag_12:\n      mload(0x40)\n      dup1\n      swap2\n      sub\n      swap1\n      log1\n        /* \"contracts/work/reward.sol\":61:1496  contract reward{... */\n      stop\n        /* \"contracts/work/reward.sol\":594:729  function change_owner(address payable _address) public onlyOwner returns(bool){... */\n    tag_3:\n      callvalue\n      dup1\n      iszero\n      tag_14\n      jumpi\n      0x00\n      dup1\n      revert\n    tag_14:\n      pop\n      tag_15\n      0x04\n      dup1\n      calldatasize\n      sub\n      dup2\n      add\n      swap1\n      tag_16\n      swap2\n      swap1\n      tag_17\n      jump\t// in\n    tag_16:\n      tag_18\n      jump\t// in\n    tag_15:\n      mload(0x40)\n      tag_19\n      swap2\n      swap1\n      tag_20\n      jump\t// in\n    tag_19:\n      mload(0x40)\n      dup1\n      swap2\n      sub\n      swap1\n      return\n        /* \"contracts/work/reward.sol\":1348:1491  function take_back_money() payable public onlyOwner returns(bool){... */\n    tag_4:\n      tag_21\n      tag_22\n      jump\t// in\n    tag_21:\n      mload(0x40)\n      tag_23\n      swap2\n      swap1\n      tag_20\n      jump\t// in\n    tag_23:\n      mload(0x40)\n      dup1\n      swap2\n      sub\n      swap1\n      return\n        /* \"contracts/work/reward.sol\":737:1340  function pay_reward(address payable[] memory _address, uint[] memory _value) payable public returns(bool){... */\n    tag_5:\n      tag_24\n      0x04\n      dup1\n      calldatasize\n      sub\n      dup2\n      add\n      swap1\n      tag_25\n      swap2\n      swap1\n      tag_26\n      jump\t// in\n    tag_25:\n      tag_27\n      jump\t// in\n    tag_24:\n      mload(0x40)\n      tag_28\n      swap2\n      swap1\n      tag_20\n      jump\t// in\n    tag_28:\n      mload(0x40)\n      dup1\n      swap2\n      sub\n      swap1\n      return\n        /* \"contracts/work/reward.sol\":594:729  function change_owner(address payable _address) public onlyOwner returns(bool){... */\n    tag_18:\n        /* \"contracts/work/reward.sol\":667:671  bool */\n      0x00\n        /* \"contracts/work/reward.sol\":237:242  owner */\n      dup1\n      0x00\n      swap1\n      sload\n      swap1\n      0x0100\n      exp\n      swap1\n      div\n      0xffffffffffffffffffffffffffffffffffffffff\n      and\n        /* \"contracts/work/reward.sol\":223:242  msg.sender != owner */\n      0xffffffffffffffffffffffffffffffffffffffff\n      and\n        /* \"contracts/work/reward.sol\":223:233  msg.sender */\n      caller\n        /* \"contracts/work/reward.sol\":223:242  msg.sender != owner */\n      0xffffffffffffffffffffffffffffffffffffffff\n      and\n      eq\n        /* \"contracts/work/reward.sol\":220:278  if(msg.sender != owner){... */\n      tag_30\n      jumpi\n        /* \"contracts/work/reward.sol\":258:266  revert() */\n      0x00\n      dup1\n      revert\n        /* \"contracts/work/reward.sol\":220:278  if(msg.sender != owner){... */\n    tag_30:\n        /* \"contracts/work/reward.sol\":691:699  _address */\n      dup2\n        /* \"contracts/work/reward.sol\":683:688  owner */\n      0x00\n      dup1\n        /* \"contracts/work/reward.sol\":683:699  owner = _address */\n      0x0100\n      exp\n      dup2\n      sload\n      dup2\n      0xffffffffffffffffffffffffffffffffffffffff\n      mul\n      not\n      and\n      swap1\n      dup4\n      0xffffffffffffffffffffffffffffffffffffffff\n      and\n      mul\n      or\n      swap1\n      sstore\n      pop\n        /* \"contracts/work/reward.sol\":717:721  true */\n      0x01\n        /* \"contracts/work/reward.sol\":710:721  return true */\n      swap1\n      pop\n        /* \"contracts/work/reward.sol\":594:729  function change_owner(address payable _address) public onlyOwner returns(bool){... */\n      swap2\n      swap1\n      pop\n      jump\t// out\n        /* \"contracts/work/reward.sol\":1348:1491  function take_back_money() payable public onlyOwner returns(bool){... */\n    tag_22:\n        /* \"contracts/work/reward.sol\":1408:1412  bool */\n      0x00\n        /* \"contracts/work/reward.sol\":237:242  owner */\n      dup1\n      0x00\n      swap1\n      sload\n      swap1\n      0x0100\n      exp\n      swap1\n      div\n      0xffffffffffffffffffffffffffffffffffffffff\n      and\n        /* \"contracts/work/reward.sol\":223:242  msg.sender != owner */\n      0xffffffffffffffffffffffffffffffffffffffff\n      and\n        /* \"contracts/work/reward.sol\":223:233  msg.sender */\n      caller\n        /* \"contracts/work/reward.sol\":223:242  msg.sender != owner */\n      0xffffffffffffffffffffffffffffffffffffffff\n      and\n      eq\n        /* \"contracts/work/reward.sol\":220:278  if(msg.sender != owner){... */\n      tag_33\n      jumpi\n        /* \"contracts/work/reward.sol\":258:266  revert() */\n      0x00\n      dup1\n      revert\n        /* \"contracts/work/reward.sol\":220:278  if(msg.sender != owner){... */\n    tag_33:\n        /* \"contracts/work/reward.sol\":1424:1429  owner */\n      0x00\n      dup1\n      sload\n      swap1\n      0x0100\n      exp\n      swap1\n      div\n      0xffffffffffffffffffffffffffffffffffffffff\n      and\n        /* \"contracts/work/reward.sol\":1424:1438  owner.transfer */\n      0xffffffffffffffffffffffffffffffffffffffff\n      and\n        /* \"contracts/work/reward.sol\":1424:1461  owner.transfer(address(this).balance) */\n      0x08fc\n        /* \"contracts/work/reward.sol\":1439:1460  address(this).balance */\n      selfbalance\n        /* \"contracts/work/reward.sol\":1424:1461  owner.transfer(address(this).balance) */\n      swap1\n      dup2\n      iszero\n      mul\n      swap1\n      mload(0x40)\n      0x00\n      mload(0x40)\n      dup1\n      dup4\n      sub\n      dup2\n      dup6\n      dup9\n      dup9\n      call\n      swap4\n      pop\n      pop\n      pop\n      pop\n      iszero\n      dup1\n      iszero\n      tag_36\n      jumpi\n      returndatasize\n      0x00\n      dup1\n      returndatacopy\n      revert(0x00, returndatasize)\n    tag_36:\n      pop\n        /* \"contracts/work/reward.sol\":1479:1483  true */\n      0x01\n        /* \"contracts/work/reward.sol\":1472:1483  return true */\n      swap1\n      pop\n        /* \"contracts/work/reward.sol\":1348:1491  function take_back_money() payable public onlyOwner returns(bool){... */\n      swap1\n      jump\t// out\n        /* \"contracts/work/reward.sol\":737:1340  function pay_reward(address payable[] memory _address, uint[] memory _value) payable public returns(bool){... */\n    tag_27:\n        /* \"contracts/work/reward.sol\":837:841  bool */\n      0x00\n        /* \"contracts/work/reward.sol\":853:868  uint all_reward */\n      dup1\n        /* \"contracts/work/reward.sol\":869:870  0 */\n      0x00\n        /* \"contracts/work/reward.sol\":853:870  uint all_reward=0 */\n      swap1\n      pop\n        /* \"contracts/work/reward.sol\":887:893  uint i */\n      0x00\n        /* \"contracts/work/reward.sol\":881:972  for  (uint i=0 ; i < _value.length ; i++){... */\n    tag_38:\n        /* \"contracts/work/reward.sol\":902:908  _value */\n      dup4\n        /* \"contracts/work/reward.sol\":902:915  _value.length */\n      mload\n        /* \"contracts/work/reward.sol\":898:899  i */\n      dup2\n        /* \"contracts/work/reward.sol\":898:915  i < _value.length */\n      lt\n        /* \"contracts/work/reward.sol\":881:972  for  (uint i=0 ; i < _value.length ; i++){... */\n      iszero\n      tag_39\n      jumpi\n        /* \"contracts/work/reward.sol\":951:957  _value */\n      dup4\n        /* \"contracts/work/reward.sol\":958:959  i */\n      dup2\n        /* \"contracts/work/reward.sol\":951:960  _value[i] */\n      dup2\n      mload\n      dup2\n      lt\n      tag_41\n      jumpi\n      tag_42\n      tag_43\n      jump\t// in\n    tag_42:\n    tag_41:\n      0x20\n      mul\n      0x20\n      add\n      add\n      mload\n        /* \"contracts/work/reward.sol\":937:960  all_reward += _value[i] */\n      dup3\n      tag_44\n      swap2\n      swap1\n      tag_45\n      jump\t// in\n    tag_44:\n      swap2\n      pop\n        /* \"contracts/work/reward.sol\":918:921  i++ */\n      dup1\n      dup1\n      0x01\n      add\n      swap2\n      pop\n      pop\n        /* \"contracts/work/reward.sol\":881:972  for  (uint i=0 ; i < _value.length ; i++){... */\n      jump(tag_38)\n    tag_39:\n      pop\n        /* \"contracts/work/reward.sol\":1009:1015  _value */\n      dup3\n        /* \"contracts/work/reward.sol\":1009:1022  _value.length */\n      mload\n        /* \"contracts/work/reward.sol\":990:998  _address */\n      dup5\n        /* \"contracts/work/reward.sol\":990:1005  _address.length */\n      mload\n        /* \"contracts/work/reward.sol\":990:1022  _address.length == _value.length */\n      eq\n        /* \"contracts/work/reward.sol\":982:1055  require(_address.length == _value.length,\"Address and ETH are not match\") */\n      tag_46\n      jumpi\n      mload(0x40)\n      0x08c379a000000000000000000000000000000000000000000000000000000000\n      dup2\n      mstore\n      0x04\n      add\n      tag_47\n      swap1\n      tag_48\n      jump\t// in\n    tag_47:\n      mload(0x40)\n      dup1\n      swap2\n      sub\n      swap1\n      revert\n    tag_46:\n        /* \"contracts/work/reward.sol\":1088:1097  msg.value */\n      callvalue\n        /* \"contracts/work/reward.sol\":1074:1084  all_reward */\n      dup2\n        /* \"contracts/work/reward.sol\":1074:1097  all_reward <= msg.value */\n      gt\n      iszero\n        /* \"contracts/work/reward.sol\":1066:1125  require(all_reward <= msg.value,\"ETH value was not enough\") */\n      tag_49\n      jumpi\n      mload(0x40)\n      0x08c379a000000000000000000000000000000000000000000000000000000000\n      dup2\n      mstore\n      0x04\n      add\n      tag_50\n      swap1\n      tag_51\n      jump\t// in\n    tag_50:\n      mload(0x40)\n      dup1\n      swap2\n      sub\n      swap1\n      revert\n    tag_49:\n        /* \"contracts/work/reward.sol\":1141:1199  Received(msg.sender, msg.value, \"reward are all received\") */\n      0x59e04c3f0d44b7caf6e8ef854b61d9a51cf1960d7a88ff6356cc5e946b4b5832\n        /* \"contracts/work/reward.sol\":1150:1160  msg.sender */\n      caller\n        /* \"contracts/work/reward.sol\":1162:1171  msg.value */\n      callvalue\n        /* \"contracts/work/reward.sol\":1141:1199  Received(msg.sender, msg.value, \"reward are all received\") */\n      mload(0x40)\n      tag_52\n      swap3\n      swap2\n      swap1\n      tag_53\n      jump\t// in\n    tag_52:\n      mload(0x40)\n      dup1\n      swap2\n      sub\n      swap1\n      log1\n        /* \"contracts/work/reward.sol\":1216:1222  uint i */\n      0x00\n        /* \"contracts/work/reward.sol\":1210:1311  for  (uint i=0 ; i < _address.length ; i++){... */\n    tag_54:\n        /* \"contracts/work/reward.sol\":1231:1239  _address */\n      dup5\n        /* \"contracts/work/reward.sol\":1231:1246  _address.length */\n      mload\n        /* \"contracts/work/reward.sol\":1227:1228  i */\n      dup2\n        /* \"contracts/work/reward.sol\":1227:1246  i < _address.length */\n      lt\n        /* \"contracts/work/reward.sol\":1210:1311  for  (uint i=0 ; i < _address.length ; i++){... */\n      iszero\n      tag_55\n      jumpi\n        /* \"contracts/work/reward.sol\":1268:1276  _address */\n      dup5\n        /* \"contracts/work/reward.sol\":1277:1278  i */\n      dup2\n        /* \"contracts/work/reward.sol\":1268:1279  _address[i] */\n      dup2\n      mload\n      dup2\n      lt\n      tag_57\n      jumpi\n      tag_58\n      tag_43\n      jump\t// in\n    tag_58:\n    tag_57:\n      0x20\n      mul\n      0x20\n      add\n      add\n      mload\n        /* \"contracts/work/reward.sol\":1268:1288  _address[i].transfer */\n      0xffffffffffffffffffffffffffffffffffffffff\n      and\n        /* \"contracts/work/reward.sol\":1268:1299  _address[i].transfer(_value[i]) */\n      0x08fc\n        /* \"contracts/work/reward.sol\":1289:1295  _value */\n      dup6\n        /* \"contracts/work/reward.sol\":1296:1297  i */\n      dup4\n        /* \"contracts/work/reward.sol\":1289:1298  _value[i] */\n      dup2\n      mload\n      dup2\n      lt\n      tag_59\n      jumpi\n      tag_60\n      tag_43\n      jump\t// in\n    tag_60:\n    tag_59:\n      0x20\n      mul\n      0x20\n      add\n      add\n      mload\n        /* \"contracts/work/reward.sol\":1268:1299  _address[i].transfer(_value[i]) */\n      swap1\n      dup2\n      iszero\n      mul\n      swap1\n      mload(0x40)\n      0x00\n      mload(0x40)\n      dup1\n      dup4\n      sub\n      dup2\n      dup6\n      dup9\n      dup9\n      call\n      swap4\n      pop\n      pop\n      pop\n      pop\n      iszero\n      dup1\n      iszero\n      tag_62\n      jumpi\n      returndatasize\n      0x00\n      dup1\n      returndatacopy\n      revert(0x00, returndatasize)\n    tag_62:\n      pop\n        /* \"contracts/work/reward.sol\":1249:1252  i++ */\n      dup1\n      dup1\n      0x01\n      add\n      swap2\n      pop\n      pop\n        /* \"contracts/work/reward.sol\":1210:1311  for  (uint i=0 ; i < _address.length ; i++){... */\n      jump(tag_54)\n    tag_55:\n      pop\n        /* \"contracts/work/reward.sol\":1328:1332  true */\n      0x01\n        /* \"contracts/work/reward.sol\":1321:1332  return true */\n      swap2\n      pop\n      pop\n        /* \"contracts/work/reward.sol\":737:1340  function pay_reward(address payable[] memory _address, uint[] memory _value) payable public returns(bool){... */\n      swap3\n      swap2\n      pop\n      pop\n      jump\t// out\n        /* \"#utility.yul\":7:133   */\n    tag_63:\n        /* \"#utility.yul\":44:51   */\n      0x00\n        /* \"#utility.yul\":84:126   */\n      0xffffffffffffffffffffffffffffffffffffffff\n        /* \"#utility.yul\":77:82   */\n      dup3\n        /* \"#utility.yul\":73:127   */\n      and\n        /* \"#utility.yul\":62:127   */\n      swap1\n      pop\n        /* \"#utility.yul\":7:133   */\n      swap2\n      swap1\n      pop\n      jump\t// out\n        /* \"#utility.yul\":139:235   */\n    tag_64:\n        /* \"#utility.yul\":176:183   */\n      0x00\n        /* \"#utility.yul\":205:229   */\n      tag_105\n        /* \"#utility.yul\":223:228   */\n      dup3\n        /* \"#utility.yul\":205:229   */\n      tag_63\n      jump\t// in\n    tag_105:\n        /* \"#utility.yul\":194:229   */\n      swap1\n      pop\n        /* \"#utility.yul\":139:235   */\n      swap2\n      swap1\n      pop\n      jump\t// out\n        /* \"#utility.yul\":241:359   */\n    tag_65:\n        /* \"#utility.yul\":328:352   */\n      tag_107\n        /* \"#utility.yul\":346:351   */\n      dup2\n        /* \"#utility.yul\":328:352   */\n      tag_64\n      jump\t// in\n    tag_107:\n        /* \"#utility.yul\":323:326   */\n      dup3\n        /* \"#utility.yul\":316:353   */\n      mstore\n        /* \"#utility.yul\":241:359   */\n      pop\n      pop\n      jump\t// out\n        /* \"#utility.yul\":365:442   */\n    tag_66:\n        /* \"#utility.yul\":402:409   */\n      0x00\n        /* \"#utility.yul\":431:436   */\n      dup2\n        /* \"#utility.yul\":420:436   */\n      swap1\n      pop\n        /* \"#utility.yul\":365:442   */\n      swap2\n      swap1\n      pop\n      jump\t// out\n        /* \"#utility.yul\":448:566   */\n    tag_67:\n        /* \"#utility.yul\":535:559   */\n      tag_110\n        /* \"#utility.yul\":553:558   */\n      dup2\n        /* \"#utility.yul\":535:559   */\n      tag_66\n      jump\t// in\n    tag_110:\n        /* \"#utility.yul\":530:533   */\n      dup3\n        /* \"#utility.yul\":523:560   */\n      mstore\n        /* \"#utility.yul\":448:566   */\n      pop\n      pop\n      jump\t// out\n        /* \"#utility.yul\":572:741   */\n    tag_68:\n        /* \"#utility.yul\":656:667   */\n      0x00\n        /* \"#utility.yul\":690:696   */\n      dup3\n        /* \"#utility.yul\":685:688   */\n      dup3\n        /* \"#utility.yul\":678:697   */\n      mstore\n        /* \"#utility.yul\":730:734   */\n      0x20\n        /* \"#utility.yul\":725:728   */\n      dup3\n        /* \"#utility.yul\":721:735   */\n      add\n        /* \"#utility.yul\":706:735   */\n      swap1\n      pop\n        /* \"#utility.yul\":572:741   */\n      swap3\n      swap2\n      pop\n      pop\n      jump\t// out\n        /* \"#utility.yul\":747:915   */\n    tag_69:\n        /* \"#utility.yul\":887:907   */\n      0x72656365697665207761732063616c6c65640000000000000000000000000000\n        /* \"#utility.yul\":883:884   */\n      0x00\n        /* \"#utility.yul\":875:881   */\n      dup3\n        /* \"#utility.yul\":871:885   */\n      add\n        /* \"#utility.yul\":864:908   */\n      mstore\n        /* \"#utility.yul\":747:915   */\n      pop\n      jump\t// out\n        /* \"#utility.yul\":921:1287   */\n    tag_70:\n        /* \"#utility.yul\":1063:1066   */\n      0x00\n        /* \"#utility.yul\":1084:1151   */\n      tag_114\n        /* \"#utility.yul\":1148:1150   */\n      0x12\n        /* \"#utility.yul\":1143:1146   */\n      dup4\n        /* \"#utility.yul\":1084:1151   */\n      tag_68\n      jump\t// in\n    tag_114:\n        /* \"#utility.yul\":1077:1151   */\n      swap2\n      pop\n        /* \"#utility.yul\":1160:1253   */\n      tag_115\n        /* \"#utility.yul\":1249:1252   */\n      dup3\n        /* \"#utility.yul\":1160:1253   */\n      tag_69\n      jump\t// in\n    tag_115:\n        /* \"#utility.yul\":1278:1280   */\n      0x20\n        /* \"#utility.yul\":1273:1276   */\n      dup3\n        /* \"#utility.yul\":1269:1281   */\n      add\n        /* \"#utility.yul\":1262:1281   */\n      swap1\n      pop\n        /* \"#utility.yul\":921:1287   */\n      swap2\n      swap1\n      pop\n      jump\t// out\n        /* \"#utility.yul\":1293:1932   */\n    tag_9:\n        /* \"#utility.yul\":1515:1519   */\n      0x00\n        /* \"#utility.yul\":1553:1555   */\n      0x60\n        /* \"#utility.yul\":1542:1551   */\n      dup3\n        /* \"#utility.yul\":1538:1556   */\n      add\n        /* \"#utility.yul\":1530:1556   */\n      swap1\n      pop\n        /* \"#utility.yul\":1566:1637   */\n      tag_117\n        /* \"#utility.yul\":1634:1635   */\n      0x00\n        /* \"#utility.yul\":1623:1632   */\n      dup4\n        /* \"#utility.yul\":1619:1636   */\n      add\n        /* \"#utility.yul\":1610:1616   */\n      dup6\n        /* \"#utility.yul\":1566:1637   */\n      tag_65\n      jump\t// in\n    tag_117:\n        /* \"#utility.yul\":1647:1719   */\n      tag_118\n        /* \"#utility.yul\":1715:1717   */\n      0x20\n        /* \"#utility.yul\":1704:1713   */\n      dup4\n        /* \"#utility.yul\":1700:1718   */\n      add\n        /* \"#utility.yul\":1691:1697   */\n      dup5\n        /* \"#utility.yul\":1647:1719   */\n      tag_67\n      jump\t// in\n    tag_118:\n        /* \"#utility.yul\":1766:1775   */\n      dup2\n        /* \"#utility.yul\":1760:1764   */\n      dup2\n        /* \"#utility.yul\":1756:1776   */\n      sub\n        /* \"#utility.yul\":1751:1753   */\n      0x40\n        /* \"#utility.yul\":1740:1749   */\n      dup4\n        /* \"#utility.yul\":1736:1754   */\n      add\n        /* \"#utility.yul\":1729:1777   */\n      mstore\n        /* \"#utility.yul\":1794:1925   */\n      tag_119\n        /* \"#utility.yul\":1920:1924   */\n      dup2\n        /* \"#utility.yul\":1794:1925   */\n      tag_70\n      jump\t// in\n    tag_119:\n        /* \"#utility.yul\":1786:1925   */\n      swap1\n      pop\n        /* \"#utility.yul\":1293:1932   */\n      swap4\n      swap3\n      pop\n      pop\n      pop\n      jump\t// out\n        /* \"#utility.yul\":1938:2107   */\n    tag_71:\n        /* \"#utility.yul\":2078:2099   */\n      0x66616c6c6261636b207761732063616c6c656400000000000000000000000000\n        /* \"#utility.yul\":2074:2075   */\n      0x00\n        /* \"#utility.yul\":2066:2072   */\n      dup3\n        /* \"#utility.yul\":2062:2076   */\n      add\n        /* \"#utility.yul\":2055:2100   */\n      mstore\n        /* \"#utility.yul\":1938:2107   */\n      pop\n      jump\t// out\n        /* \"#utility.yul\":2113:2479   */\n    tag_72:\n        /* \"#utility.yul\":2255:2258   */\n      0x00\n        /* \"#utility.yul\":2276:2343   */\n      tag_122\n        /* \"#utility.yul\":2340:2342   */\n      0x13\n        /* \"#utility.yul\":2335:2338   */\n      dup4\n        /* \"#utility.yul\":2276:2343   */\n      tag_68\n      jump\t// in\n    tag_122:\n        /* \"#utility.yul\":2269:2343   */\n      swap2\n      pop\n        /* \"#utility.yul\":2352:2445   */\n      tag_123\n        /* \"#utility.yul\":2441:2444   */\n      dup3\n        /* \"#utility.yul\":2352:2445   */\n      tag_71\n      jump\t// in\n    tag_123:\n        /* \"#utility.yul\":2470:2472   */\n      0x20\n        /* \"#utility.yul\":2465:2468   */\n      dup3\n        /* \"#utility.yul\":2461:2473   */\n      add\n        /* \"#utility.yul\":2454:2473   */\n      swap1\n      pop\n        /* \"#utility.yul\":2113:2479   */\n      swap2\n      swap1\n      pop\n      jump\t// out\n        /* \"#utility.yul\":2485:3124   */\n    tag_13:\n        /* \"#utility.yul\":2707:2711   */\n      0x00\n        /* \"#utility.yul\":2745:2747   */\n      0x60\n        /* \"#utility.yul\":2734:2743   */\n      dup3\n        /* \"#utility.yul\":2730:2748   */\n      add\n        /* \"#utility.yul\":2722:2748   */\n      swap1\n      pop\n        /* \"#utility.yul\":2758:2829   */\n      tag_125\n        /* \"#utility.yul\":2826:2827   */\n      0x00\n        /* \"#utility.yul\":2815:2824   */\n      dup4\n        /* \"#utility.yul\":2811:2828   */\n      add\n        /* \"#utility.yul\":2802:2808   */\n      dup6\n        /* \"#utility.yul\":2758:2829   */\n      tag_65\n      jump\t// in\n    tag_125:\n        /* \"#utility.yul\":2839:2911   */\n      tag_126\n        /* \"#utility.yul\":2907:2909   */\n      0x20\n        /* \"#utility.yul\":2896:2905   */\n      dup4\n        /* \"#utility.yul\":2892:2910   */\n      add\n        /* \"#utility.yul\":2883:2889   */\n      dup5\n        /* \"#utility.yul\":2839:2911   */\n      tag_67\n      jump\t// in\n    tag_126:\n        /* \"#utility.yul\":2958:2967   */\n      dup2\n        /* \"#utility.yul\":2952:2956   */\n      dup2\n        /* \"#utility.yul\":2948:2968   */\n      sub\n        /* \"#utility.yul\":2943:2945   */\n      0x40\n        /* \"#utility.yul\":2932:2941   */\n      dup4\n        /* \"#utility.yul\":2928:2946   */\n      add\n        /* \"#utility.yul\":2921:2969   */\n      mstore\n        /* \"#utility.yul\":2986:3117   */\n      tag_127\n        /* \"#utility.yul\":3112:3116   */\n      dup2\n        /* \"#utility.yul\":2986:3117   */\n      tag_72\n      jump\t// in\n    tag_127:\n        /* \"#utility.yul\":2978:3117   */\n      swap1\n      pop\n        /* \"#utility.yul\":2485:3124   */\n      swap4\n      swap3\n      pop\n      pop\n      pop\n      jump\t// out\n        /* \"#utility.yul\":3130:3205   */\n    tag_73:\n        /* \"#utility.yul\":3163:3169   */\n      0x00\n        /* \"#utility.yul\":3196:3198   */\n      0x40\n        /* \"#utility.yul\":3190:3199   */\n      mload\n        /* \"#utility.yul\":3180:3199   */\n      swap1\n      pop\n        /* \"#utility.yul\":3130:3205   */\n      swap1\n      jump\t// out\n        /* \"#utility.yul\":3211:3328   */\n    tag_74:\n        /* \"#utility.yul\":3320:3321   */\n      0x00\n        /* \"#utility.yul\":3317:3318   */\n      dup1\n        /* \"#utility.yul\":3310:3322   */\n      revert\n        /* \"#utility.yul\":3334:3451   */\n    tag_75:\n        /* \"#utility.yul\":3443:3444   */\n      0x00\n        /* \"#utility.yul\":3440:3441   */\n      dup1\n        /* \"#utility.yul\":3433:3445   */\n      revert\n        /* \"#utility.yul\":3457:3561   */\n    tag_76:\n        /* \"#utility.yul\":3502:3509   */\n      0x00\n        /* \"#utility.yul\":3531:3555   */\n      tag_132\n        /* \"#utility.yul\":3549:3554   */\n      dup3\n        /* \"#utility.yul\":3531:3555   */\n      tag_63\n      jump\t// in\n    tag_132:\n        /* \"#utility.yul\":3520:3555   */\n      swap1\n      pop\n        /* \"#utility.yul\":3457:3561   */\n      swap2\n      swap1\n      pop\n      jump\t// out\n        /* \"#utility.yul\":3567:3705   */\n    tag_77:\n        /* \"#utility.yul\":3648:3680   */\n      tag_134\n        /* \"#utility.yul\":3674:3679   */\n      dup2\n        /* \"#utility.yul\":3648:3680   */\n      tag_76\n      jump\t// in\n    tag_134:\n        /* \"#utility.yul\":3641:3646   */\n      dup2\n        /* \"#utility.yul\":3638:3681   */\n      eq\n        /* \"#utility.yul\":3628:3699   */\n      tag_135\n      jumpi\n        /* \"#utility.yul\":3695:3696   */\n      0x00\n        /* \"#utility.yul\":3692:3693   */\n      dup1\n        /* \"#utility.yul\":3685:3697   */\n      revert\n        /* \"#utility.yul\":3628:3699   */\n    tag_135:\n        /* \"#utility.yul\":3567:3705   */\n      pop\n      jump\t// out\n        /* \"#utility.yul\":3711:3866   */\n    tag_78:\n        /* \"#utility.yul\":3765:3770   */\n      0x00\n        /* \"#utility.yul\":3803:3809   */\n      dup2\n        /* \"#utility.yul\":3790:3810   */\n      calldataload\n        /* \"#utility.yul\":3781:3810   */\n      swap1\n      pop\n        /* \"#utility.yul\":3819:3860   */\n      tag_137\n        /* \"#utility.yul\":3854:3859   */\n      dup2\n        /* \"#utility.yul\":3819:3860   */\n      tag_77\n      jump\t// in\n    tag_137:\n        /* \"#utility.yul\":3711:3866   */\n      swap3\n      swap2\n      pop\n      pop\n      jump\t// out\n        /* \"#utility.yul\":3872:4217   */\n    tag_17:\n        /* \"#utility.yul\":3939:3945   */\n      0x00\n        /* \"#utility.yul\":3988:3990   */\n      0x20\n        /* \"#utility.yul\":3976:3985   */\n      dup3\n        /* \"#utility.yul\":3967:3974   */\n      dup5\n        /* \"#utility.yul\":3963:3986   */\n      sub\n        /* \"#utility.yul\":3959:3991   */\n      slt\n        /* \"#utility.yul\":3956:4075   */\n      iszero\n      tag_139\n      jumpi\n        /* \"#utility.yul\":3994:4073   */\n      tag_140\n      tag_74\n      jump\t// in\n    tag_140:\n        /* \"#utility.yul\":3956:4075   */\n    tag_139:\n        /* \"#utility.yul\":4114:4115   */\n      0x00\n        /* \"#utility.yul\":4139:4200   */\n      tag_141\n        /* \"#utility.yul\":4192:4199   */\n      dup5\n        /* \"#utility.yul\":4183:4189   */\n      dup3\n        /* \"#utility.yul\":4172:4181   */\n      dup6\n        /* \"#utility.yul\":4168:4190   */\n      add\n        /* \"#utility.yul\":4139:4200   */\n      tag_78\n      jump\t// in\n    tag_141:\n        /* \"#utility.yul\":4129:4200   */\n      swap2\n      pop\n        /* \"#utility.yul\":4085:4210   */\n      pop\n        /* \"#utility.yul\":3872:4217   */\n      swap3\n      swap2\n      pop\n      pop\n      jump\t// out\n        /* \"#utility.yul\":4223:4313   */\n    tag_79:\n        /* \"#utility.yul\":4257:4264   */\n      0x00\n        /* \"#utility.yul\":4300:4305   */\n      dup2\n        /* \"#utility.yul\":4293:4306   */\n      iszero\n        /* \"#utility.yul\":4286:4307   */\n      iszero\n        /* \"#utility.yul\":4275:4307   */\n      swap1\n      pop\n        /* \"#utility.yul\":4223:4313   */\n      swap2\n      swap1\n      pop\n      jump\t// out\n        /* \"#utility.yul\":4319:4428   */\n    tag_80:\n        /* \"#utility.yul\":4400:4421   */\n      tag_144\n        /* \"#utility.yul\":4415:4420   */\n      dup2\n        /* \"#utility.yul\":4400:4421   */\n      tag_79\n      jump\t// in\n    tag_144:\n        /* \"#utility.yul\":4395:4398   */\n      dup3\n        /* \"#utility.yul\":4388:4422   */\n      mstore\n        /* \"#utility.yul\":4319:4428   */\n      pop\n      pop\n      jump\t// out\n        /* \"#utility.yul\":4434:4644   */\n    tag_20:\n        /* \"#utility.yul\":4521:4525   */\n      0x00\n        /* \"#utility.yul\":4559:4561   */\n      0x20\n        /* \"#utility.yul\":4548:4557   */\n      dup3\n        /* \"#utility.yul\":4544:4562   */\n      add\n        /* \"#utility.yul\":4536:4562   */\n      swap1\n      pop\n        /* \"#utility.yul\":4572:4637   */\n      tag_146\n        /* \"#utility.yul\":4634:4635   */\n      0x00\n        /* \"#utility.yul\":4623:4632   */\n      dup4\n        /* \"#utility.yul\":4619:4636   */\n      add\n        /* \"#utility.yul\":4610:4616   */\n      dup5\n        /* \"#utility.yul\":4572:4637   */\n      tag_80\n      jump\t// in\n    tag_146:\n        /* \"#utility.yul\":4434:4644   */\n      swap3\n      swap2\n      pop\n      pop\n      jump\t// out\n        /* \"#utility.yul\":4650:4767   */\n    tag_81:\n        /* \"#utility.yul\":4759:4760   */\n      0x00\n        /* \"#utility.yul\":4756:4757   */\n      dup1\n        /* \"#utility.yul\":4749:4761   */\n      revert\n        /* \"#utility.yul\":4773:4875   */\n    tag_82:\n        /* \"#utility.yul\":4814:4820   */\n      0x00\n        /* \"#utility.yul\":4865:4867   */\n      0x1f\n        /* \"#utility.yul\":4861:4868   */\n      not\n        /* \"#utility.yul\":4856:4858   */\n      0x1f\n        /* \"#utility.yul\":4849:4854   */\n      dup4\n        /* \"#utility.yul\":4845:4859   */\n      add\n        /* \"#utility.yul\":4841:4869   */\n      and\n        /* \"#utility.yul\":4831:4869   */\n      swap1\n      pop\n        /* \"#utility.yul\":4773:4875   */\n      swap2\n      swap1\n      pop\n      jump\t// out\n        /* \"#utility.yul\":4881:5061   */\n    tag_83:\n        /* \"#utility.yul\":4929:5006   */\n      0x4e487b7100000000000000000000000000000000000000000000000000000000\n        /* \"#utility.yul\":4926:4927   */\n      0x00\n        /* \"#utility.yul\":4919:5007   */\n      mstore\n        /* \"#utility.yul\":5026:5030   */\n      0x41\n        /* \"#utility.yul\":5023:5024   */\n      0x04\n        /* \"#utility.yul\":5016:5031   */\n      mstore\n        /* \"#utility.yul\":5050:5054   */\n      0x24\n        /* \"#utility.yul\":5047:5048   */\n      0x00\n        /* \"#utility.yul\":5040:5055   */\n      revert\n        /* \"#utility.yul\":5067:5348   */\n    tag_84:\n        /* \"#utility.yul\":5150:5177   */\n      tag_151\n        /* \"#utility.yul\":5172:5176   */\n      dup3\n        /* \"#utility.yul\":5150:5177   */\n      tag_82\n      jump\t// in\n    tag_151:\n        /* \"#utility.yul\":5142:5148   */\n      dup2\n        /* \"#utility.yul\":5138:5178   */\n      add\n        /* \"#utility.yul\":5280:5286   */\n      dup2\n        /* \"#utility.yul\":5268:5278   */\n      dup2\n        /* \"#utility.yul\":5265:5287   */\n      lt\n        /* \"#utility.yul\":5244:5262   */\n      0xffffffffffffffff\n        /* \"#utility.yul\":5232:5242   */\n      dup3\n        /* \"#utility.yul\":5229:5263   */\n      gt\n        /* \"#utility.yul\":5226:5288   */\n      or\n        /* \"#utility.yul\":5223:5311   */\n      iszero\n      tag_152\n      jumpi\n        /* \"#utility.yul\":5291:5309   */\n      tag_153\n      tag_83\n      jump\t// in\n    tag_153:\n        /* \"#utility.yul\":5223:5311   */\n    tag_152:\n        /* \"#utility.yul\":5331:5341   */\n      dup1\n        /* \"#utility.yul\":5327:5329   */\n      0x40\n        /* \"#utility.yul\":5320:5342   */\n      mstore\n        /* \"#utility.yul\":5110:5348   */\n      pop\n        /* \"#utility.yul\":5067:5348   */\n      pop\n      pop\n      jump\t// out\n        /* \"#utility.yul\":5354:5483   */\n    tag_85:\n        /* \"#utility.yul\":5388:5394   */\n      0x00\n        /* \"#utility.yul\":5415:5435   */\n      tag_155\n      tag_73\n      jump\t// in\n    tag_155:\n        /* \"#utility.yul\":5405:5435   */\n      swap1\n      pop\n        /* \"#utility.yul\":5444:5477   */\n      tag_156\n        /* \"#utility.yul\":5472:5476   */\n      dup3\n        /* \"#utility.yul\":5464:5470   */\n      dup3\n        /* \"#utility.yul\":5444:5477   */\n      tag_84\n      jump\t// in\n    tag_156:\n        /* \"#utility.yul\":5354:5483   */\n      swap2\n      swap1\n      pop\n      jump\t// out\n        /* \"#utility.yul\":5489:5808   */\n    tag_86:\n        /* \"#utility.yul\":5574:5578   */\n      0x00\n        /* \"#utility.yul\":5664:5682   */\n      0xffffffffffffffff\n        /* \"#utility.yul\":5656:5662   */\n      dup3\n        /* \"#utility.yul\":5653:5683   */\n      gt\n        /* \"#utility.yul\":5650:5706   */\n      iszero\n      tag_158\n      jumpi\n        /* \"#utility.yul\":5686:5704   */\n      tag_159\n      tag_83\n      jump\t// in\n    tag_159:\n        /* \"#utility.yul\":5650:5706   */\n    tag_158:\n        /* \"#utility.yul\":5736:5740   */\n      0x20\n        /* \"#utility.yul\":5728:5734   */\n      dup3\n        /* \"#utility.yul\":5724:5741   */\n      mul\n        /* \"#utility.yul\":5716:5741   */\n      swap1\n      pop\n        /* \"#utility.yul\":5796:5800   */\n      0x20\n        /* \"#utility.yul\":5790:5794   */\n      dup2\n        /* \"#utility.yul\":5786:5801   */\n      add\n        /* \"#utility.yul\":5778:5801   */\n      swap1\n      pop\n        /* \"#utility.yul\":5489:5808   */\n      swap2\n      swap1\n      pop\n      jump\t// out\n        /* \"#utility.yul\":5814:5931   */\n    tag_87:\n        /* \"#utility.yul\":5923:5924   */\n      0x00\n        /* \"#utility.yul\":5920:5921   */\n      dup1\n        /* \"#utility.yul\":5913:5925   */\n      revert\n        /* \"#utility.yul\":5962:6696   */\n    tag_88:\n        /* \"#utility.yul\":6066:6071   */\n      0x00\n        /* \"#utility.yul\":6091:6180   */\n      tag_162\n        /* \"#utility.yul\":6107:6179   */\n      tag_163\n        /* \"#utility.yul\":6172:6178   */\n      dup5\n        /* \"#utility.yul\":6107:6179   */\n      tag_86\n      jump\t// in\n    tag_163:\n        /* \"#utility.yul\":6091:6180   */\n      tag_85\n      jump\t// in\n    tag_162:\n        /* \"#utility.yul\":6082:6180   */\n      swap1\n      pop\n        /* \"#utility.yul\":6200:6205   */\n      dup1\n        /* \"#utility.yul\":6229:6235   */\n      dup4\n        /* \"#utility.yul\":6222:6227   */\n      dup3\n        /* \"#utility.yul\":6215:6236   */\n      mstore\n        /* \"#utility.yul\":6263:6267   */\n      0x20\n        /* \"#utility.yul\":6256:6261   */\n      dup3\n        /* \"#utility.yul\":6252:6268   */\n      add\n        /* \"#utility.yul\":6245:6268   */\n      swap1\n      pop\n        /* \"#utility.yul\":6316:6320   */\n      0x20\n        /* \"#utility.yul\":6308:6314   */\n      dup5\n        /* \"#utility.yul\":6304:6321   */\n      mul\n        /* \"#utility.yul\":6296:6302   */\n      dup4\n        /* \"#utility.yul\":6292:6322   */\n      add\n        /* \"#utility.yul\":6345:6348   */\n      dup6\n        /* \"#utility.yul\":6337:6343   */\n      dup2\n        /* \"#utility.yul\":6334:6349   */\n      gt\n        /* \"#utility.yul\":6331:6453   */\n      iszero\n      tag_164\n      jumpi\n        /* \"#utility.yul\":6364:6443   */\n      tag_165\n      tag_87\n      jump\t// in\n    tag_165:\n        /* \"#utility.yul\":6331:6453   */\n    tag_164:\n        /* \"#utility.yul\":6479:6485   */\n      dup4\n        /* \"#utility.yul\":6462:6690   */\n    tag_166:\n        /* \"#utility.yul\":6496:6502   */\n      dup2\n        /* \"#utility.yul\":6491:6494   */\n      dup2\n        /* \"#utility.yul\":6488:6503   */\n      lt\n        /* \"#utility.yul\":6462:6690   */\n      iszero\n      tag_168\n      jumpi\n        /* \"#utility.yul\":6571:6574   */\n      dup1\n        /* \"#utility.yul\":6600:6645   */\n      tag_169\n        /* \"#utility.yul\":6641:6644   */\n      dup9\n        /* \"#utility.yul\":6629:6639   */\n      dup3\n        /* \"#utility.yul\":6600:6645   */\n      tag_78\n      jump\t// in\n    tag_169:\n        /* \"#utility.yul\":6595:6598   */\n      dup5\n        /* \"#utility.yul\":6588:6646   */\n      mstore\n        /* \"#utility.yul\":6675:6679   */\n      0x20\n        /* \"#utility.yul\":6670:6673   */\n      dup5\n        /* \"#utility.yul\":6666:6680   */\n      add\n        /* \"#utility.yul\":6659:6680   */\n      swap4\n      pop\n        /* \"#utility.yul\":6538:6690   */\n      pop\n        /* \"#utility.yul\":6522:6526   */\n      0x20\n        /* \"#utility.yul\":6517:6520   */\n      dup2\n        /* \"#utility.yul\":6513:6527   */\n      add\n        /* \"#utility.yul\":6506:6527   */\n      swap1\n      pop\n        /* \"#utility.yul\":6462:6690   */\n      jump(tag_166)\n    tag_168:\n        /* \"#utility.yul\":6466:6487   */\n      pop\n        /* \"#utility.yul\":6072:6696   */\n      pop\n      pop\n        /* \"#utility.yul\":5962:6696   */\n      swap4\n      swap3\n      pop\n      pop\n      pop\n      jump\t// out\n        /* \"#utility.yul\":6727:7113   */\n    tag_89:\n        /* \"#utility.yul\":6806:6811   */\n      0x00\n        /* \"#utility.yul\":6855:6858   */\n      dup3\n        /* \"#utility.yul\":6848:6852   */\n      0x1f\n        /* \"#utility.yul\":6840:6846   */\n      dup4\n        /* \"#utility.yul\":6836:6853   */\n      add\n        /* \"#utility.yul\":6832:6859   */\n      slt\n        /* \"#utility.yul\":6822:6944   */\n      tag_171\n      jumpi\n        /* \"#utility.yul\":6863:6942   */\n      tag_172\n      tag_81\n      jump\t// in\n    tag_172:\n        /* \"#utility.yul\":6822:6944   */\n    tag_171:\n        /* \"#utility.yul\":6980:6986   */\n      dup2\n        /* \"#utility.yul\":6967:6987   */\n      calldataload\n        /* \"#utility.yul\":7005:7107   */\n      tag_173\n        /* \"#utility.yul\":7103:7106   */\n      dup5\n        /* \"#utility.yul\":7095:7101   */\n      dup3\n        /* \"#utility.yul\":7088:7092   */\n      0x20\n        /* \"#utility.yul\":7080:7086   */\n      dup7\n        /* \"#utility.yul\":7076:7093   */\n      add\n        /* \"#utility.yul\":7005:7107   */\n      tag_88\n      jump\t// in\n    tag_173:\n        /* \"#utility.yul\":6996:7107   */\n      swap2\n      pop\n        /* \"#utility.yul\":6812:7113   */\n      pop\n        /* \"#utility.yul\":6727:7113   */\n      swap3\n      swap2\n      pop\n      pop\n      jump\t// out\n        /* \"#utility.yul\":7119:7430   */\n    tag_90:\n        /* \"#utility.yul\":7196:7200   */\n      0x00\n        /* \"#utility.yul\":7286:7304   */\n      0xffffffffffffffff\n        /* \"#utility.yul\":7278:7284   */\n      dup3\n        /* \"#utility.yul\":7275:7305   */\n      gt\n        /* \"#utility.yul\":7272:7328   */\n      iszero\n      tag_175\n      jumpi\n        /* \"#utility.yul\":7308:7326   */\n      tag_176\n      tag_83\n      jump\t// in\n    tag_176:\n        /* \"#utility.yul\":7272:7328   */\n    tag_175:\n        /* \"#utility.yul\":7358:7362   */\n      0x20\n        /* \"#utility.yul\":7350:7356   */\n      dup3\n        /* \"#utility.yul\":7346:7363   */\n      mul\n        /* \"#utility.yul\":7338:7363   */\n      swap1\n      pop\n        /* \"#utility.yul\":7418:7422   */\n      0x20\n        /* \"#utility.yul\":7412:7416   */\n      dup2\n        /* \"#utility.yul\":7408:7423   */\n      add\n        /* \"#utility.yul\":7400:7423   */\n      swap1\n      pop\n        /* \"#utility.yul\":7119:7430   */\n      swap2\n      swap1\n      pop\n      jump\t// out\n        /* \"#utility.yul\":7436:7558   */\n    tag_91:\n        /* \"#utility.yul\":7509:7533   */\n      tag_178\n        /* \"#utility.yul\":7527:7532   */\n      dup2\n        /* \"#utility.yul\":7509:7533   */\n      tag_66\n      jump\t// in\n    tag_178:\n        /* \"#utility.yul\":7502:7507   */\n      dup2\n        /* \"#utility.yul\":7499:7534   */\n      eq\n        /* \"#utility.yul\":7489:7552   */\n      tag_179\n      jumpi\n        /* \"#utility.yul\":7548:7549   */\n      0x00\n        /* \"#utility.yul\":7545:7546   */\n      dup1\n        /* \"#utility.yul\":7538:7550   */\n      revert\n        /* \"#utility.yul\":7489:7552   */\n    tag_179:\n        /* \"#utility.yul\":7436:7558   */\n      pop\n      jump\t// out\n        /* \"#utility.yul\":7564:7703   */\n    tag_92:\n        /* \"#utility.yul\":7610:7615   */\n      0x00\n        /* \"#utility.yul\":7648:7654   */\n      dup2\n        /* \"#utility.yul\":7635:7655   */\n      calldataload\n        /* \"#utility.yul\":7626:7655   */\n      swap1\n      pop\n        /* \"#utility.yul\":7664:7697   */\n      tag_181\n        /* \"#utility.yul\":7691:7696   */\n      dup2\n        /* \"#utility.yul\":7664:7697   */\n      tag_91\n      jump\t// in\n    tag_181:\n        /* \"#utility.yul\":7564:7703   */\n      swap3\n      swap2\n      pop\n      pop\n      jump\t// out\n        /* \"#utility.yul\":7726:8436   */\n    tag_93:\n        /* \"#utility.yul\":7822:7827   */\n      0x00\n        /* \"#utility.yul\":7847:7928   */\n      tag_183\n        /* \"#utility.yul\":7863:7927   */\n      tag_184\n        /* \"#utility.yul\":7920:7926   */\n      dup5\n        /* \"#utility.yul\":7863:7927   */\n      tag_90\n      jump\t// in\n    tag_184:\n        /* \"#utility.yul\":7847:7928   */\n      tag_85\n      jump\t// in\n    tag_183:\n        /* \"#utility.yul\":7838:7928   */\n      swap1\n      pop\n        /* \"#utility.yul\":7948:7953   */\n      dup1\n        /* \"#utility.yul\":7977:7983   */\n      dup4\n        /* \"#utility.yul\":7970:7975   */\n      dup3\n        /* \"#utility.yul\":7963:7984   */\n      mstore\n        /* \"#utility.yul\":8011:8015   */\n      0x20\n        /* \"#utility.yul\":8004:8009   */\n      dup3\n        /* \"#utility.yul\":8000:8016   */\n      add\n        /* \"#utility.yul\":7993:8016   */\n      swap1\n      pop\n        /* \"#utility.yul\":8064:8068   */\n      0x20\n        /* \"#utility.yul\":8056:8062   */\n      dup5\n        /* \"#utility.yul\":8052:8069   */\n      mul\n        /* \"#utility.yul\":8044:8050   */\n      dup4\n        /* \"#utility.yul\":8040:8070   */\n      add\n        /* \"#utility.yul\":8093:8096   */\n      dup6\n        /* \"#utility.yul\":8085:8091   */\n      dup2\n        /* \"#utility.yul\":8082:8097   */\n      gt\n        /* \"#utility.yul\":8079:8201   */\n      iszero\n      tag_185\n      jumpi\n        /* \"#utility.yul\":8112:8191   */\n      tag_186\n      tag_87\n      jump\t// in\n    tag_186:\n        /* \"#utility.yul\":8079:8201   */\n    tag_185:\n        /* \"#utility.yul\":8227:8233   */\n      dup4\n        /* \"#utility.yul\":8210:8430   */\n    tag_187:\n        /* \"#utility.yul\":8244:8250   */\n      dup2\n        /* \"#utility.yul\":8239:8242   */\n      dup2\n        /* \"#utility.yul\":8236:8251   */\n      lt\n        /* \"#utility.yul\":8210:8430   */\n      iszero\n      tag_189\n      jumpi\n        /* \"#utility.yul\":8319:8322   */\n      dup1\n        /* \"#utility.yul\":8348:8385   */\n      tag_190\n        /* \"#utility.yul\":8381:8384   */\n      dup9\n        /* \"#utility.yul\":8369:8379   */\n      dup3\n        /* \"#utility.yul\":8348:8385   */\n      tag_92\n      jump\t// in\n    tag_190:\n        /* \"#utility.yul\":8343:8346   */\n      dup5\n        /* \"#utility.yul\":8336:8386   */\n      mstore\n        /* \"#utility.yul\":8415:8419   */\n      0x20\n        /* \"#utility.yul\":8410:8413   */\n      dup5\n        /* \"#utility.yul\":8406:8420   */\n      add\n        /* \"#utility.yul\":8399:8420   */\n      swap4\n      pop\n        /* \"#utility.yul\":8286:8430   */\n      pop\n        /* \"#utility.yul\":8270:8274   */\n      0x20\n        /* \"#utility.yul\":8265:8268   */\n      dup2\n        /* \"#utility.yul\":8261:8275   */\n      add\n        /* \"#utility.yul\":8254:8275   */\n      swap1\n      pop\n        /* \"#utility.yul\":8210:8430   */\n      jump(tag_187)\n    tag_189:\n        /* \"#utility.yul\":8214:8235   */\n      pop\n        /* \"#utility.yul\":7828:8436   */\n      pop\n      pop\n        /* \"#utility.yul\":7726:8436   */\n      swap4\n      swap3\n      pop\n      pop\n      pop\n      jump\t// out\n        /* \"#utility.yul\":8459:8829   */\n    tag_94:\n        /* \"#utility.yul\":8530:8535   */\n      0x00\n        /* \"#utility.yul\":8579:8582   */\n      dup3\n        /* \"#utility.yul\":8572:8576   */\n      0x1f\n        /* \"#utility.yul\":8564:8570   */\n      dup4\n        /* \"#utility.yul\":8560:8577   */\n      add\n        /* \"#utility.yul\":8556:8583   */\n      slt\n        /* \"#utility.yul\":8546:8668   */\n      tag_192\n      jumpi\n        /* \"#utility.yul\":8587:8666   */\n      tag_193\n      tag_81\n      jump\t// in\n    tag_193:\n        /* \"#utility.yul\":8546:8668   */\n    tag_192:\n        /* \"#utility.yul\":8704:8710   */\n      dup2\n        /* \"#utility.yul\":8691:8711   */\n      calldataload\n        /* \"#utility.yul\":8729:8823   */\n      tag_194\n        /* \"#utility.yul\":8819:8822   */\n      dup5\n        /* \"#utility.yul\":8811:8817   */\n      dup3\n        /* \"#utility.yul\":8804:8808   */\n      0x20\n        /* \"#utility.yul\":8796:8802   */\n      dup7\n        /* \"#utility.yul\":8792:8809   */\n      add\n        /* \"#utility.yul\":8729:8823   */\n      tag_93\n      jump\t// in\n    tag_194:\n        /* \"#utility.yul\":8720:8823   */\n      swap2\n      pop\n        /* \"#utility.yul\":8536:8829   */\n      pop\n        /* \"#utility.yul\":8459:8829   */\n      swap3\n      swap2\n      pop\n      pop\n      jump\t// out\n        /* \"#utility.yul\":8835:9745   */\n    tag_26:\n        /* \"#utility.yul\":8961:8967   */\n      0x00\n        /* \"#utility.yul\":8969:8975   */\n      dup1\n        /* \"#utility.yul\":9018:9020   */\n      0x40\n        /* \"#utility.yul\":9006:9015   */\n      dup4\n        /* \"#utility.yul\":8997:9004   */\n      dup6\n        /* \"#utility.yul\":8993:9016   */\n      sub\n        /* \"#utility.yul\":8989:9021   */\n      slt\n        /* \"#utility.yul\":8986:9105   */\n      iszero\n      tag_196\n      jumpi\n        /* \"#utility.yul\":9024:9103   */\n      tag_197\n      tag_74\n      jump\t// in\n    tag_197:\n        /* \"#utility.yul\":8986:9105   */\n    tag_196:\n        /* \"#utility.yul\":9172:9173   */\n      0x00\n        /* \"#utility.yul\":9161:9170   */\n      dup4\n        /* \"#utility.yul\":9157:9174   */\n      add\n        /* \"#utility.yul\":9144:9175   */\n      calldataload\n        /* \"#utility.yul\":9202:9220   */\n      0xffffffffffffffff\n        /* \"#utility.yul\":9194:9200   */\n      dup2\n        /* \"#utility.yul\":9191:9221   */\n      gt\n        /* \"#utility.yul\":9188:9305   */\n      iszero\n      tag_198\n      jumpi\n        /* \"#utility.yul\":9224:9303   */\n      tag_199\n      tag_75\n      jump\t// in\n    tag_199:\n        /* \"#utility.yul\":9188:9305   */\n    tag_198:\n        /* \"#utility.yul\":9329:9415   */\n      tag_200\n        /* \"#utility.yul\":9407:9414   */\n      dup6\n        /* \"#utility.yul\":9398:9404   */\n      dup3\n        /* \"#utility.yul\":9387:9396   */\n      dup7\n        /* \"#utility.yul\":9383:9405   */\n      add\n        /* \"#utility.yul\":9329:9415   */\n      tag_89\n      jump\t// in\n    tag_200:\n        /* \"#utility.yul\":9319:9415   */\n      swap3\n      pop\n        /* \"#utility.yul\":9115:9425   */\n      pop\n        /* \"#utility.yul\":9492:9494   */\n      0x20\n        /* \"#utility.yul\":9481:9490   */\n      dup4\n        /* \"#utility.yul\":9477:9495   */\n      add\n        /* \"#utility.yul\":9464:9496   */\n      calldataload\n        /* \"#utility.yul\":9523:9541   */\n      0xffffffffffffffff\n        /* \"#utility.yul\":9515:9521   */\n      dup2\n        /* \"#utility.yul\":9512:9542   */\n      gt\n        /* \"#utility.yul\":9509:9626   */\n      iszero\n      tag_201\n      jumpi\n        /* \"#utility.yul\":9545:9624   */\n      tag_202\n      tag_75\n      jump\t// in\n    tag_202:\n        /* \"#utility.yul\":9509:9626   */\n    tag_201:\n        /* \"#utility.yul\":9650:9728   */\n      tag_203\n        /* \"#utility.yul\":9720:9727   */\n      dup6\n        /* \"#utility.yul\":9711:9717   */\n      dup3\n        /* \"#utility.yul\":9700:9709   */\n      dup7\n        /* \"#utility.yul\":9696:9718   */\n      add\n        /* \"#utility.yul\":9650:9728   */\n      tag_94\n      jump\t// in\n    tag_203:\n        /* \"#utility.yul\":9640:9728   */\n      swap2\n      pop\n        /* \"#utility.yul\":9435:9738   */\n      pop\n        /* \"#utility.yul\":8835:9745   */\n      swap3\n      pop\n      swap3\n      swap1\n      pop\n      jump\t// out\n        /* \"#utility.yul\":9751:9931   */\n    tag_43:\n        /* \"#utility.yul\":9799:9876   */\n      0x4e487b7100000000000000000000000000000000000000000000000000000000\n        /* \"#utility.yul\":9796:9797   */\n      0x00\n        /* \"#utility.yul\":9789:9877   */\n      mstore\n        /* \"#utility.yul\":9896:9900   */\n      0x32\n        /* \"#utility.yul\":9893:9894   */\n      0x04\n        /* \"#utility.yul\":9886:9901   */\n      mstore\n        /* \"#utility.yul\":9920:9924   */\n      0x24\n        /* \"#utility.yul\":9917:9918   */\n      0x00\n        /* \"#utility.yul\":9910:9925   */\n      revert\n        /* \"#utility.yul\":9937:10117   */\n    tag_95:\n        /* \"#utility.yul\":9985:10062   */\n      0x4e487b7100000000000000000000000000000000000000000000000000000000\n        /* \"#utility.yul\":9982:9983   */\n      0x00\n        /* \"#utility.yul\":9975:10063   */\n      mstore\n        /* \"#utility.yul\":10082:10086   */\n      0x11\n        /* \"#utility.yul\":10079:10080   */\n      0x04\n        /* \"#utility.yul\":10072:10087   */\n      mstore\n        /* \"#utility.yul\":10106:10110   */\n      0x24\n        /* \"#utility.yul\":10103:10104   */\n      0x00\n        /* \"#utility.yul\":10096:10111   */\n      revert\n        /* \"#utility.yul\":10123:10314   */\n    tag_45:\n        /* \"#utility.yul\":10163:10166   */\n      0x00\n        /* \"#utility.yul\":10182:10202   */\n      tag_207\n        /* \"#utility.yul\":10200:10201   */\n      dup3\n        /* \"#utility.yul\":10182:10202   */\n      tag_66\n      jump\t// in\n    tag_207:\n        /* \"#utility.yul\":10177:10202   */\n      swap2\n      pop\n        /* \"#utility.yul\":10216:10236   */\n      tag_208\n        /* \"#utility.yul\":10234:10235   */\n      dup4\n        /* \"#utility.yul\":10216:10236   */\n      tag_66\n      jump\t// in\n    tag_208:\n        /* \"#utility.yul\":10211:10236   */\n      swap3\n      pop\n        /* \"#utility.yul\":10259:10260   */\n      dup3\n        /* \"#utility.yul\":10256:10257   */\n      dup3\n        /* \"#utility.yul\":10252:10261   */\n      add\n        /* \"#utility.yul\":10245:10261   */\n      swap1\n      pop\n        /* \"#utility.yul\":10280:10283   */\n      dup1\n        /* \"#utility.yul\":10277:10278   */\n      dup3\n        /* \"#utility.yul\":10274:10284   */\n      gt\n        /* \"#utility.yul\":10271:10307   */\n      iszero\n      tag_209\n      jumpi\n        /* \"#utility.yul\":10287:10305   */\n      tag_210\n      tag_95\n      jump\t// in\n    tag_210:\n        /* \"#utility.yul\":10271:10307   */\n    tag_209:\n        /* \"#utility.yul\":10123:10314   */\n      swap3\n      swap2\n      pop\n      pop\n      jump\t// out\n        /* \"#utility.yul\":10320:10499   */\n    tag_96:\n        /* \"#utility.yul\":10460:10491   */\n      0x4164647265737320616e642045544820617265206e6f74206d61746368000000\n        /* \"#utility.yul\":10456:10457   */\n      0x00\n        /* \"#utility.yul\":10448:10454   */\n      dup3\n        /* \"#utility.yul\":10444:10458   */\n      add\n        /* \"#utility.yul\":10437:10492   */\n      mstore\n        /* \"#utility.yul\":10320:10499   */\n      pop\n      jump\t// out\n        /* \"#utility.yul\":10505:10871   */\n    tag_97:\n        /* \"#utility.yul\":10647:10650   */\n      0x00\n        /* \"#utility.yul\":10668:10735   */\n      tag_213\n        /* \"#utility.yul\":10732:10734   */\n      0x1d\n        /* \"#utility.yul\":10727:10730   */\n      dup4\n        /* \"#utility.yul\":10668:10735   */\n      tag_68\n      jump\t// in\n    tag_213:\n        /* \"#utility.yul\":10661:10735   */\n      swap2\n      pop\n        /* \"#utility.yul\":10744:10837   */\n      tag_214\n        /* \"#utility.yul\":10833:10836   */\n      dup3\n        /* \"#utility.yul\":10744:10837   */\n      tag_96\n      jump\t// in\n    tag_214:\n        /* \"#utility.yul\":10862:10864   */\n      0x20\n        /* \"#utility.yul\":10857:10860   */\n      dup3\n        /* \"#utility.yul\":10853:10865   */\n      add\n        /* \"#utility.yul\":10846:10865   */\n      swap1\n      pop\n        /* \"#utility.yul\":10505:10871   */\n      swap2\n      swap1\n      pop\n      jump\t// out\n        /* \"#utility.yul\":10877:11296   */\n    tag_48:\n        /* \"#utility.yul\":11043:11047   */\n      0x00\n        /* \"#utility.yul\":11081:11083   */\n      0x20\n        /* \"#utility.yul\":11070:11079   */\n      dup3\n        /* \"#utility.yul\":11066:11084   */\n      add\n        /* \"#utility.yul\":11058:11084   */\n      swap1\n      pop\n        /* \"#utility.yul\":11130:11139   */\n      dup2\n        /* \"#utility.yul\":11124:11128   */\n      dup2\n        /* \"#utility.yul\":11120:11140   */\n      sub\n        /* \"#utility.yul\":11116:11117   */\n      0x00\n        /* \"#utility.yul\":11105:11114   */\n      dup4\n        /* \"#utility.yul\":11101:11118   */\n      add\n        /* \"#utility.yul\":11094:11141   */\n      mstore\n        /* \"#utility.yul\":11158:11289   */\n      tag_216\n        /* \"#utility.yul\":11284:11288   */\n      dup2\n        /* \"#utility.yul\":11158:11289   */\n      tag_97\n      jump\t// in\n    tag_216:\n        /* \"#utility.yul\":11150:11289   */\n      swap1\n      pop\n        /* \"#utility.yul\":10877:11296   */\n      swap2\n      swap1\n      pop\n      jump\t// out\n        /* \"#utility.yul\":11302:11476   */\n    tag_98:\n        /* \"#utility.yul\":11442:11468   */\n      0x4554482076616c756520776173206e6f7420656e6f7567680000000000000000\n        /* \"#utility.yul\":11438:11439   */\n      0x00\n        /* \"#utility.yul\":11430:11436   */\n      dup3\n        /* \"#utility.yul\":11426:11440   */\n      add\n        /* \"#utility.yul\":11419:11469   */\n      mstore\n        /* \"#utility.yul\":11302:11476   */\n      pop\n      jump\t// out\n        /* \"#utility.yul\":11482:11848   */\n    tag_99:\n        /* \"#utility.yul\":11624:11627   */\n      0x00\n        /* \"#utility.yul\":11645:11712   */\n      tag_219\n        /* \"#utility.yul\":11709:11711   */\n      0x18\n        /* \"#utility.yul\":11704:11707   */\n      dup4\n        /* \"#utility.yul\":11645:11712   */\n      tag_68\n      jump\t// in\n    tag_219:\n        /* \"#utility.yul\":11638:11712   */\n      swap2\n      pop\n        /* \"#utility.yul\":11721:11814   */\n      tag_220\n        /* \"#utility.yul\":11810:11813   */\n      dup3\n        /* \"#utility.yul\":11721:11814   */\n      tag_98\n      jump\t// in\n    tag_220:\n        /* \"#utility.yul\":11839:11841   */\n      0x20\n        /* \"#utility.yul\":11834:11837   */\n      dup3\n        /* \"#utility.yul\":11830:11842   */\n      add\n        /* \"#utility.yul\":11823:11842   */\n      swap1\n      pop\n        /* \"#utility.yul\":11482:11848   */\n      swap2\n      swap1\n      pop\n      jump\t// out\n        /* \"#utility.yul\":11854:12273   */\n    tag_51:\n        /* \"#utility.yul\":12020:12024   */\n      0x00\n        /* \"#utility.yul\":12058:12060   */\n      0x20\n        /* \"#utility.yul\":12047:12056   */\n      dup3\n        /* \"#utility.yul\":12043:12061   */\n      add\n        /* \"#utility.yul\":12035:12061   */\n      swap1\n      pop\n        /* \"#utility.yul\":12107:12116   */\n      dup2\n        /* \"#utility.yul\":12101:12105   */\n      dup2\n        /* \"#utility.yul\":12097:12117   */\n      sub\n        /* \"#utility.yul\":12093:12094   */\n      0x00\n        /* \"#utility.yul\":12082:12091   */\n      dup4\n        /* \"#utility.yul\":12078:12095   */\n      add\n        /* \"#utility.yul\":12071:12118   */\n      mstore\n        /* \"#utility.yul\":12135:12266   */\n      tag_222\n        /* \"#utility.yul\":12261:12265   */\n      dup2\n        /* \"#utility.yul\":12135:12266   */\n      tag_99\n      jump\t// in\n    tag_222:\n        /* \"#utility.yul\":12127:12266   */\n      swap1\n      pop\n        /* \"#utility.yul\":11854:12273   */\n      swap2\n      swap1\n      pop\n      jump\t// out\n        /* \"#utility.yul\":12279:12452   */\n    tag_100:\n        /* \"#utility.yul\":12419:12444   */\n      0x7265776172642061726520616c6c207265636569766564000000000000000000\n        /* \"#utility.yul\":12415:12416   */\n      0x00\n        /* \"#utility.yul\":12407:12413   */\n      dup3\n        /* \"#utility.yul\":12403:12417   */\n      add\n        /* \"#utility.yul\":12396:12445   */\n      mstore\n        /* \"#utility.yul\":12279:12452   */\n      pop\n      jump\t// out\n        /* \"#utility.yul\":12458:12824   */\n    tag_101:\n        /* \"#utility.yul\":12600:12603   */\n      0x00\n        /* \"#utility.yul\":12621:12688   */\n      tag_225\n        /* \"#utility.yul\":12685:12687   */\n      0x17\n        /* \"#utility.yul\":12680:12683   */\n      dup4\n        /* \"#utility.yul\":12621:12688   */\n      tag_68\n      jump\t// in\n    tag_225:\n        /* \"#utility.yul\":12614:12688   */\n      swap2\n      pop\n        /* \"#utility.yul\":12697:12790   */\n      tag_226\n        /* \"#utility.yul\":12786:12789   */\n      dup3\n        /* \"#utility.yul\":12697:12790   */\n      tag_100\n      jump\t// in\n    tag_226:\n        /* \"#utility.yul\":12815:12817   */\n      0x20\n        /* \"#utility.yul\":12810:12813   */\n      dup3\n        /* \"#utility.yul\":12806:12818   */\n      add\n        /* \"#utility.yul\":12799:12818   */\n      swap1\n      pop\n        /* \"#utility.yul\":12458:12824   */\n      swap2\n      swap1\n      pop\n      jump\t// out\n        /* \"#utility.yul\":12830:13469   */\n    tag_53:\n        /* \"#utility.yul\":13052:13056   */\n      0x00\n        /* \"#utility.yul\":13090:13092   */\n      0x60\n        /* \"#utility.yul\":13079:13088   */\n      dup3\n        /* \"#utility.yul\":13075:13093   */\n      add\n        /* \"#utility.yul\":13067:13093   */\n      swap1\n      pop\n        /* \"#utility.yul\":13103:13174   */\n      tag_228\n        /* \"#utility.yul\":13171:13172   */\n      0x00\n        /* \"#utility.yul\":13160:13169   */\n      dup4\n        /* \"#utility.yul\":13156:13173   */\n      add\n        /* \"#utility.yul\":13147:13153   */\n      dup6\n        /* \"#utility.yul\":13103:13174   */\n      tag_65\n      jump\t// in\n    tag_228:\n        /* \"#utility.yul\":13184:13256   */\n      tag_229\n        /* \"#utility.yul\":13252:13254   */\n      0x20\n        /* \"#utility.yul\":13241:13250   */\n      dup4\n        /* \"#utility.yul\":13237:13255   */\n      add\n        /* \"#utility.yul\":13228:13234   */\n      dup5\n        /* \"#utility.yul\":13184:13256   */\n      tag_67\n      jump\t// in\n    tag_229:\n        /* \"#utility.yul\":13303:13312   */\n      dup2\n        /* \"#utility.yul\":13297:13301   */\n      dup2\n        /* \"#utility.yul\":13293:13313   */\n      sub\n        /* \"#utility.yul\":13288:13290   */\n      0x40\n        /* \"#utility.yul\":13277:13286   */\n      dup4\n        /* \"#utility.yul\":13273:13291   */\n      add\n        /* \"#utility.yul\":13266:13314   */\n      mstore\n        /* \"#utility.yul\":13331:13462   */\n      tag_230\n        /* \"#utility.yul\":13457:13461   */\n      dup2\n        /* \"#utility.yul\":13331:13462   */\n      tag_101\n      jump\t// in\n    tag_230:\n        /* \"#utility.yul\":13323:13462   */\n      swap1\n      pop\n        /* \"#utility.yul\":12830:13469   */\n      swap4\n      swap3\n      pop\n      pop\n      pop\n      jump\t// out\n\n    auxdata: 0xa2646970667358221220b85f831ff4d1719a1f5fef0baff00eb1cf6eb30e15402373496ae4f66155443864736f6c63430008170033\n}\n",
				"bytecode": {
					"linkReferences": {},
					"object": "608060405234801561000f575f80fd5b50335f806101000a81548173ffffffffffffffffffffffffffffffffffffffff021916908373ffffffffffffffffffffffffffffffffffffffff160217905550610b208061005c5f395ff3fe608060405260043610610037575f3560e01c8063253c8bd4146100b25780635d16b8de146100ee578063c060541d1461010c57610077565b36610077577f59e04c3f0d44b7caf6e8ef854b61d9a51cf1960d7a88ff6356cc5e946b4b5832333460405161006d9291906104f1565b60405180910390a1005b7f59e04c3f0d44b7caf6e8ef854b61d9a51cf1960d7a88ff6356cc5e946b4b583233346040516100a8929190610575565b60405180910390a1005b3480156100bd575f80fd5b506100d860048036038101906100d391906105fb565b61013c565b6040516100e59190610640565b60405180910390f35b6100f66101dc565b6040516101039190610640565b60405180910390f35b61012660048036038101906101219190610893565b61029e565b6040516101339190610640565b60405180910390f35b5f805f9054906101000a900473ffffffffffffffffffffffffffffffffffffffff1673ffffffffffffffffffffffffffffffffffffffff163373ffffffffffffffffffffffffffffffffffffffff1614610194575f80fd5b815f806101000a81548173ffffffffffffffffffffffffffffffffffffffff021916908373ffffffffffffffffffffffffffffffffffffffff16021790555060019050919050565b5f805f9054906101000a900473ffffffffffffffffffffffffffffffffffffffff1673ffffffffffffffffffffffffffffffffffffffff163373ffffffffffffffffffffffffffffffffffffffff1614610234575f80fd5b5f8054906101000a900473ffffffffffffffffffffffffffffffffffffffff1673ffffffffffffffffffffffffffffffffffffffff166108fc4790811502906040515f60405180830381858888f19350505050158015610296573d5f803e3d5ffd5b506001905090565b5f805f90505f5b83518110156102e3578381815181106102c1576102c0610909565b5b6020026020010151826102d49190610963565b915080806001019150506102a5565b508251845114610328576040517f08c379a000000000000000000000000000000000000000000000000000000000815260040161031f906109e0565b60405180910390fd5b3481111561036b576040517f08c379a000000000000000000000000000000000000000000000000000000000815260040161036290610a48565b60405180910390fd5b7f59e04c3f0d44b7caf6e8ef854b61d9a51cf1960d7a88ff6356cc5e946b4b5832333460405161039c929190610ab0565b60405180910390a15f5b8451811015610434578481815181106103c2576103c1610909565b5b602002602001015173ffffffffffffffffffffffffffffffffffffffff166108fc8583815181106103f6576103f5610909565b5b602002602001015190811502906040515f60405180830381858888f19350505050158015610426573d5f803e3d5ffd5b5080806001019150506103a6565b50600191505092915050565b5f73ffffffffffffffffffffffffffffffffffffffff82169050919050565b5f61046982610440565b9050919050565b6104798161045f565b82525050565b5f819050919050565b6104918161047f565b82525050565b5f82825260208201905092915050565b7f72656365697665207761732063616c6c656400000000000000000000000000005f82015250565b5f6104db601283610497565b91506104e6826104a7565b602082019050919050565b5f6060820190506105045f830185610470565b6105116020830184610488565b8181036040830152610522816104cf565b90509392505050565b7f66616c6c6261636b207761732063616c6c6564000000000000000000000000005f82015250565b5f61055f601383610497565b915061056a8261052b565b602082019050919050565b5f6060820190506105885f830185610470565b6105956020830184610488565b81810360408301526105a681610553565b90509392505050565b5f604051905090565b5f80fd5b5f80fd5b5f6105ca82610440565b9050919050565b6105da816105c0565b81146105e4575f80fd5b50565b5f813590506105f5816105d1565b92915050565b5f602082840312156106105761060f6105b8565b5b5f61061d848285016105e7565b91505092915050565b5f8115159050919050565b61063a81610626565b82525050565b5f6020820190506106535f830184610631565b92915050565b5f80fd5b5f601f19601f8301169050919050565b7f4e487b71000000000000000000000000000000000000000000000000000000005f52604160045260245ffd5b6106a38261065d565b810181811067ffffffffffffffff821117156106c2576106c161066d565b5b80604052505050565b5f6106d46105af565b90506106e0828261069a565b919050565b5f67ffffffffffffffff8211156106ff576106fe61066d565b5b602082029050602081019050919050565b5f80fd5b5f610726610721846106e5565b6106cb565b9050808382526020820190506020840283018581111561074957610748610710565b5b835b81811015610772578061075e88826105e7565b84526020840193505060208101905061074b565b5050509392505050565b5f82601f8301126107905761078f610659565b5b81356107a0848260208601610714565b91505092915050565b5f67ffffffffffffffff8211156107c3576107c261066d565b5b602082029050602081019050919050565b6107dd8161047f565b81146107e7575f80fd5b50565b5f813590506107f8816107d4565b92915050565b5f61081061080b846107a9565b6106cb565b9050808382526020820190506020840283018581111561083357610832610710565b5b835b8181101561085c578061084888826107ea565b845260208401935050602081019050610835565b5050509392505050565b5f82601f83011261087a57610879610659565b5b813561088a8482602086016107fe565b91505092915050565b5f80604083850312156108a9576108a86105b8565b5b5f83013567ffffffffffffffff8111156108c6576108c56105bc565b5b6108d28582860161077c565b925050602083013567ffffffffffffffff8111156108f3576108f26105bc565b5b6108ff85828601610866565b9150509250929050565b7f4e487b71000000000000000000000000000000000000000000000000000000005f52603260045260245ffd5b7f4e487b71000000000000000000000000000000000000000000000000000000005f52601160045260245ffd5b5f61096d8261047f565b91506109788361047f565b92508282019050808211156109905761098f610936565b5b92915050565b7f4164647265737320616e642045544820617265206e6f74206d617463680000005f82015250565b5f6109ca601d83610497565b91506109d582610996565b602082019050919050565b5f6020820190508181035f8301526109f7816109be565b9050919050565b7f4554482076616c756520776173206e6f7420656e6f75676800000000000000005f82015250565b5f610a32601883610497565b9150610a3d826109fe565b602082019050919050565b5f6020820190508181035f830152610a5f81610a26565b9050919050565b7f7265776172642061726520616c6c2072656365697665640000000000000000005f82015250565b5f610a9a601783610497565b9150610aa582610a66565b602082019050919050565b5f606082019050610ac35f830185610470565b610ad06020830184610488565b8181036040830152610ae181610a8e565b9050939250505056fea2646970667358221220b85f831ff4d1719a1f5fef0baff00eb1cf6eb30e15402373496ae4f66155443864736f6c63430008170033",
					"opcodes": "PUSH1 0x80 PUSH1 0x40 MSTORE CALLVALUE DUP1 ISZERO PUSH2 0xF JUMPI PUSH0 DUP1 REVERT JUMPDEST POP CALLER PUSH0 DUP1 PUSH2 0x100 EXP DUP2 SLOAD DUP2 PUSH20 0xFFFFFFFFFFFFFFFFFFFFFFFFFFFFFFFFFFFFFFFF MUL NOT AND SWAP1 DUP4 PUSH20 0xFFFFFFFFFFFFFFFFFFFFFFFFFFFFFFFFFFFFFFFF AND MUL OR SWAP1 SSTORE POP PUSH2 0xB20 DUP1 PUSH2 0x5C PUSH0 CODECOPY PUSH0 RETURN INVALID PUSH1 0x80 PUSH1 0x40 MSTORE PUSH1 0x4 CALLDATASIZE LT PUSH2 0x37 JUMPI PUSH0 CALLDATALOAD PUSH1 0xE0 SHR DUP1 PUSH4 0x253C8BD4 EQ PUSH2 0xB2 JUMPI DUP1 PUSH4 0x5D16B8DE EQ PUSH2 0xEE JUMPI DUP1 PUSH4 0xC060541D EQ PUSH2 0x10C JUMPI PUSH2 0x77 JUMP JUMPDEST CALLDATASIZE PUSH2 0x77 JUMPI PUSH32 0x59E04C3F0D44B7CAF6E8EF854B61D9A51CF1960D7A88FF6356CC5E946B4B5832 CALLER CALLVALUE PUSH1 0x40 MLOAD PUSH2 0x6D SWAP3 SWAP2 SWAP1 PUSH2 0x4F1 JUMP JUMPDEST PUSH1 0x40 MLOAD DUP1 SWAP2 SUB SWAP1 LOG1 STOP JUMPDEST PUSH32 0x59E04C3F0D44B7CAF6E8EF854B61D9A51CF1960D7A88FF6356CC5E946B4B5832 CALLER CALLVALUE PUSH1 0x40 MLOAD PUSH2 0xA8 SWAP3 SWAP2 SWAP1 PUSH2 0x575 JUMP JUMPDEST PUSH1 0x40 MLOAD DUP1 SWAP2 SUB SWAP1 LOG1 STOP JUMPDEST CALLVALUE DUP1 ISZERO PUSH2 0xBD JUMPI PUSH0 DUP1 REVERT JUMPDEST POP PUSH2 0xD8 PUSH1 0x4 DUP1 CALLDATASIZE SUB DUP2 ADD SWAP1 PUSH2 0xD3 SWAP2 SWAP1 PUSH2 0x5FB JUMP JUMPDEST PUSH2 0x13C JUMP JUMPDEST PUSH1 0x40 MLOAD PUSH2 0xE5 SWAP2 SWAP1 PUSH2 0x640 JUMP JUMPDEST PUSH1 0x40 MLOAD DUP1 SWAP2 SUB SWAP1 RETURN JUMPDEST PUSH2 0xF6 PUSH2 0x1DC JUMP JUMPDEST PUSH1 0x40 MLOAD PUSH2 0x103 SWAP2 SWAP1 PUSH2 0x640 JUMP JUMPDEST PUSH1 0x40 MLOAD DUP1 SWAP2 SUB SWAP1 RETURN JUMPDEST PUSH2 0x126 PUSH1 0x4 DUP1 CALLDATASIZE SUB DUP2 ADD SWAP1 PUSH2 0x121 SWAP2 SWAP1 PUSH2 0x893 JUMP JUMPDEST PUSH2 0x29E JUMP JUMPDEST PUSH1 0x40 MLOAD PUSH2 0x133 SWAP2 SWAP1 PUSH2 0x640 JUMP JUMPDEST PUSH1 0x40 MLOAD DUP1 SWAP2 SUB SWAP1 RETURN JUMPDEST PUSH0 DUP1 PUSH0 SWAP1 SLOAD SWAP1 PUSH2 0x100 EXP SWAP1 DIV PUSH20 0xFFFFFFFFFFFFFFFFFFFFFFFFFFFFFFFFFFFFFFFF AND PUSH20 0xFFFFFFFFFFFFFFFFFFFFFFFFFFFFFFFFFFFFFFFF AND CALLER PUSH20 0xFFFFFFFFFFFFFFFFFFFFFFFFFFFFFFFFFFFFFFFF AND EQ PUSH2 0x194 JUMPI PUSH0 DUP1 REVERT JUMPDEST DUP2 PUSH0 DUP1 PUSH2 0x100 EXP DUP2 SLOAD DUP2 PUSH20 0xFFFFFFFFFFFFFFFFFFFFFFFFFFFFFFFFFFFFFFFF MUL NOT AND SWAP1 DUP4 PUSH20 0xFFFFFFFFFFFFFFFFFFFFFFFFFFFFFFFFFFFFFFFF AND MUL OR SWAP1 SSTORE POP PUSH1 0x1 SWAP1 POP SWAP2 SWAP1 POP JUMP JUMPDEST PUSH0 DUP1 PUSH0 SWAP1 SLOAD SWAP1 PUSH2 0x100 EXP SWAP1 DIV PUSH20 0xFFFFFFFFFFFFFFFFFFFFFFFFFFFFFFFFFFFFFFFF AND PUSH20 0xFFFFFFFFFFFFFFFFFFFFFFFFFFFFFFFFFFFFFFFF AND CALLER PUSH20 0xFFFFFFFFFFFFFFFFFFFFFFFFFFFFFFFFFFFFFFFF AND EQ PUSH2 0x234 JUMPI PUSH0 DUP1 REVERT JUMPDEST PUSH0 DUP1 SLOAD SWAP1 PUSH2 0x100 EXP SWAP1 DIV PUSH20 0xFFFFFFFFFFFFFFFFFFFFFFFFFFFFFFFFFFFFFFFF AND PUSH20 0xFFFFFFFFFFFFFFFFFFFFFFFFFFFFFFFFFFFFFFFF AND PUSH2 0x8FC SELFBALANCE SWAP1 DUP2 ISZERO MUL SWAP1 PUSH1 0x40 MLOAD PUSH0 PUSH1 0x40 MLOAD DUP1 DUP4 SUB DUP2 DUP6 DUP9 DUP9 CALL SWAP4 POP POP POP POP ISZERO DUP1 ISZERO PUSH2 0x296 JUMPI RETURNDATASIZE PUSH0 DUP1 RETURNDATACOPY RETURNDATASIZE PUSH0 REVERT JUMPDEST POP PUSH1 0x1 SWAP1 POP SWAP1 JUMP JUMPDEST PUSH0 DUP1 PUSH0 SWAP1 POP PUSH0 JUMPDEST DUP4 MLOAD DUP2 LT ISZERO PUSH2 0x2E3 JUMPI DUP4 DUP2 DUP2 MLOAD DUP2 LT PUSH2 0x2C1 JUMPI PUSH2 0x2C0 PUSH2 0x909 JUMP JUMPDEST JUMPDEST PUSH1 0x20 MUL PUSH1 0x20 ADD ADD MLOAD DUP3 PUSH2 0x2D4 SWAP2 SWAP1 PUSH2 0x963 JUMP JUMPDEST SWAP2 POP DUP1 DUP1 PUSH1 0x1 ADD SWAP2 POP POP PUSH2 0x2A5 JUMP JUMPDEST POP DUP3 MLOAD DUP5 MLOAD EQ PUSH2 0x328 JUMPI PUSH1 0x40 MLOAD PUSH32 0x8C379A000000000000000000000000000000000000000000000000000000000 DUP2 MSTORE PUSH1 0x4 ADD PUSH2 0x31F SWAP1 PUSH2 0x9E0 JUMP JUMPDEST PUSH1 0x40 MLOAD DUP1 SWAP2 SUB SWAP1 REVERT JUMPDEST CALLVALUE DUP2 GT ISZERO PUSH2 0x36B JUMPI PUSH1 0x40 MLOAD PUSH32 0x8C379A000000000000000000000000000000000000000000000000000000000 DUP2 MSTORE PUSH1 0x4 ADD PUSH2 0x362 SWAP1 PUSH2 0xA48 JUMP JUMPDEST PUSH1 0x40 MLOAD DUP1 SWAP2 SUB SWAP1 REVERT JUMPDEST PUSH32 0x59E04C3F0D44B7CAF6E8EF854B61D9A51CF1960D7A88FF6356CC5E946B4B5832 CALLER CALLVALUE PUSH1 0x40 MLOAD PUSH2 0x39C SWAP3 SWAP2 SWAP1 PUSH2 0xAB0 JUMP JUMPDEST PUSH1 0x40 MLOAD DUP1 SWAP2 SUB SWAP1 LOG1 PUSH0 JUMPDEST DUP5 MLOAD DUP2 LT ISZERO PUSH2 0x434 JUMPI DUP5 DUP2 DUP2 MLOAD DUP2 LT PUSH2 0x3C2 JUMPI PUSH2 0x3C1 PUSH2 0x909 JUMP JUMPDEST JUMPDEST PUSH1 0x20 MUL PUSH1 0x20 ADD ADD MLOAD PUSH20 0xFFFFFFFFFFFFFFFFFFFFFFFFFFFFFFFFFFFFFFFF AND PUSH2 0x8FC DUP6 DUP4 DUP2 MLOAD DUP2 LT PUSH2 0x3F6 JUMPI PUSH2 0x3F5 PUSH2 0x909 JUMP JUMPDEST JUMPDEST PUSH1 0x20 MUL PUSH1 0x20 ADD ADD MLOAD SWAP1 DUP2 ISZERO MUL SWAP1 PUSH1 0x40 MLOAD PUSH0 PUSH1 0x40 MLOAD DUP1 DUP4 SUB DUP2 DUP6 DUP9 DUP9 CALL SWAP4 POP POP POP POP ISZERO DUP1 ISZERO PUSH2 0x426 JUMPI RETURNDATASIZE PUSH0 DUP1 RETURNDATACOPY RETURNDATASIZE PUSH0 REVERT JUMPDEST POP DUP1 DUP1 PUSH1 0x1 ADD SWAP2 POP POP PUSH2 0x3A6 JUMP JUMPDEST POP PUSH1 0x1 SWAP2 POP POP SWAP3 SWAP2 POP POP JUMP JUMPDEST PUSH0 PUSH20 0xFFFFFFFFFFFFFFFFFFFFFFFFFFFFFFFFFFFFFFFF DUP3 AND SWAP1 POP SWAP2 SWAP1 POP JUMP JUMPDEST PUSH0 PUSH2 0x469 DUP3 PUSH2 0x440 JUMP JUMPDEST SWAP1 POP SWAP2 SWAP1 POP JUMP JUMPDEST PUSH2 0x479 DUP2 PUSH2 0x45F JUMP JUMPDEST DUP3 MSTORE POP POP JUMP JUMPDEST PUSH0 DUP2 SWAP1 POP SWAP2 SWAP1 POP JUMP JUMPDEST PUSH2 0x491 DUP2 PUSH2 0x47F JUMP JUMPDEST DUP3 MSTORE POP POP JUMP JUMPDEST PUSH0 DUP3 DUP3 MSTORE PUSH1 0x20 DUP3 ADD SWAP1 POP SWAP3 SWAP2 POP POP JUMP JUMPDEST PUSH32 0x72656365697665207761732063616C6C65640000000000000000000000000000 PUSH0 DUP3 ADD MSTORE POP JUMP JUMPDEST PUSH0 PUSH2 0x4DB PUSH1 0x12 DUP4 PUSH2 0x497 JUMP JUMPDEST SWAP2 POP PUSH2 0x4E6 DUP3 PUSH2 0x4A7 JUMP JUMPDEST PUSH1 0x20 DUP3 ADD SWAP1 POP SWAP2 SWAP1 POP JUMP JUMPDEST PUSH0 PUSH1 0x60 DUP3 ADD SWAP1 POP PUSH2 0x504 PUSH0 DUP4 ADD DUP6 PUSH2 0x470 JUMP JUMPDEST PUSH2 0x511 PUSH1 0x20 DUP4 ADD DUP5 PUSH2 0x488 JUMP JUMPDEST DUP2 DUP2 SUB PUSH1 0x40 DUP4 ADD MSTORE PUSH2 0x522 DUP2 PUSH2 0x4CF JUMP JUMPDEST SWAP1 POP SWAP4 SWAP3 POP POP POP JUMP JUMPDEST PUSH32 0x66616C6C6261636B207761732063616C6C656400000000000000000000000000 PUSH0 DUP3 ADD MSTORE POP JUMP JUMPDEST PUSH0 PUSH2 0x55F PUSH1 0x13 DUP4 PUSH2 0x497 JUMP JUMPDEST SWAP2 POP PUSH2 0x56A DUP3 PUSH2 0x52B JUMP JUMPDEST PUSH1 0x20 DUP3 ADD SWAP1 POP SWAP2 SWAP1 POP JUMP JUMPDEST PUSH0 PUSH1 0x60 DUP3 ADD SWAP1 POP PUSH2 0x588 PUSH0 DUP4 ADD DUP6 PUSH2 0x470 JUMP JUMPDEST PUSH2 0x595 PUSH1 0x20 DUP4 ADD DUP5 PUSH2 0x488 JUMP JUMPDEST DUP2 DUP2 SUB PUSH1 0x40 DUP4 ADD MSTORE PUSH2 0x5A6 DUP2 PUSH2 0x553 JUMP JUMPDEST SWAP1 POP SWAP4 SWAP3 POP POP POP JUMP JUMPDEST PUSH0 PUSH1 0x40 MLOAD SWAP1 POP SWAP1 JUMP JUMPDEST PUSH0 DUP1 REVERT JUMPDEST PUSH0 DUP1 REVERT JUMPDEST PUSH0 PUSH2 0x5CA DUP3 PUSH2 0x440 JUMP JUMPDEST SWAP1 POP SWAP2 SWAP1 POP JUMP JUMPDEST PUSH2 0x5DA DUP2 PUSH2 0x5C0 JUMP JUMPDEST DUP2 EQ PUSH2 0x5E4 JUMPI PUSH0 DUP1 REVERT JUMPDEST POP JUMP JUMPDEST PUSH0 DUP2 CALLDATALOAD SWAP1 POP PUSH2 0x5F5 DUP2 PUSH2 0x5D1 JUMP JUMPDEST SWAP3 SWAP2 POP POP JUMP JUMPDEST PUSH0 PUSH1 0x20 DUP3 DUP5 SUB SLT ISZERO PUSH2 0x610 JUMPI PUSH2 0x60F PUSH2 0x5B8 JUMP JUMPDEST JUMPDEST PUSH0 PUSH2 0x61D DUP5 DUP3 DUP6 ADD PUSH2 0x5E7 JUMP JUMPDEST SWAP2 POP POP SWAP3 SWAP2 POP POP JUMP JUMPDEST PUSH0 DUP2 ISZERO ISZERO SWAP1 POP SWAP2 SWAP1 POP JUMP JUMPDEST PUSH2 0x63A DUP2 PUSH2 0x626 JUMP JUMPDEST DUP3 MSTORE POP POP JUMP JUMPDEST PUSH0 PUSH1 0x20 DUP3 ADD SWAP1 POP PUSH2 0x653 PUSH0 DUP4 ADD DUP5 PUSH2 0x631 JUMP JUMPDEST SWAP3 SWAP2 POP POP JUMP JUMPDEST PUSH0 DUP1 REVERT JUMPDEST PUSH0 PUSH1 0x1F NOT PUSH1 0x1F DUP4 ADD AND SWAP1 POP SWAP2 SWAP1 POP JUMP JUMPDEST PUSH32 0x4E487B7100000000000000000000000000000000000000000000000000000000 PUSH0 MSTORE PUSH1 0x41 PUSH1 0x4 MSTORE PUSH1 0x24 PUSH0 REVERT JUMPDEST PUSH2 0x6A3 DUP3 PUSH2 0x65D JUMP JUMPDEST DUP2 ADD DUP2 DUP2 LT PUSH8 0xFFFFFFFFFFFFFFFF DUP3 GT OR ISZERO PUSH2 0x6C2 JUMPI PUSH2 0x6C1 PUSH2 0x66D JUMP JUMPDEST JUMPDEST DUP1 PUSH1 0x40 MSTORE POP POP POP JUMP JUMPDEST PUSH0 PUSH2 0x6D4 PUSH2 0x5AF JUMP JUMPDEST SWAP1 POP PUSH2 0x6E0 DUP3 DUP3 PUSH2 0x69A JUMP JUMPDEST SWAP2 SWAP1 POP JUMP JUMPDEST PUSH0 PUSH8 0xFFFFFFFFFFFFFFFF DUP3 GT ISZERO PUSH2 0x6FF JUMPI PUSH2 0x6FE PUSH2 0x66D JUMP JUMPDEST JUMPDEST PUSH1 0x20 DUP3 MUL SWAP1 POP PUSH1 0x20 DUP2 ADD SWAP1 POP SWAP2 SWAP1 POP JUMP JUMPDEST PUSH0 DUP1 REVERT JUMPDEST PUSH0 PUSH2 0x726 PUSH2 0x721 DUP5 PUSH2 0x6E5 JUMP JUMPDEST PUSH2 0x6CB JUMP JUMPDEST SWAP1 POP DUP1 DUP4 DUP3 MSTORE PUSH1 0x20 DUP3 ADD SWAP1 POP PUSH1 0x20 DUP5 MUL DUP4 ADD DUP6 DUP2 GT ISZERO PUSH2 0x749 JUMPI PUSH2 0x748 PUSH2 0x710 JUMP JUMPDEST JUMPDEST DUP4 JUMPDEST DUP2 DUP2 LT ISZERO PUSH2 0x772 JUMPI DUP1 PUSH2 0x75E DUP9 DUP3 PUSH2 0x5E7 JUMP JUMPDEST DUP5 MSTORE PUSH1 0x20 DUP5 ADD SWAP4 POP POP PUSH1 0x20 DUP2 ADD SWAP1 POP PUSH2 0x74B JUMP JUMPDEST POP POP POP SWAP4 SWAP3 POP POP POP JUMP JUMPDEST PUSH0 DUP3 PUSH1 0x1F DUP4 ADD SLT PUSH2 0x790 JUMPI PUSH2 0x78F PUSH2 0x659 JUMP JUMPDEST JUMPDEST DUP2 CALLDATALOAD PUSH2 0x7A0 DUP5 DUP3 PUSH1 0x20 DUP7 ADD PUSH2 0x714 JUMP JUMPDEST SWAP2 POP POP SWAP3 SWAP2 POP POP JUMP JUMPDEST PUSH0 PUSH8 0xFFFFFFFFFFFFFFFF DUP3 GT ISZERO PUSH2 0x7C3 JUMPI PUSH2 0x7C2 PUSH2 0x66D JUMP JUMPDEST JUMPDEST PUSH1 0x20 DUP3 MUL SWAP1 POP PUSH1 0x20 DUP2 ADD SWAP1 POP SWAP2 SWAP1 POP JUMP JUMPDEST PUSH2 0x7DD DUP2 PUSH2 0x47F JUMP JUMPDEST DUP2 EQ PUSH2 0x7E7 JUMPI PUSH0 DUP1 REVERT JUMPDEST POP JUMP JUMPDEST PUSH0 DUP2 CALLDATALOAD SWAP1 POP PUSH2 0x7F8 DUP2 PUSH2 0x7D4 JUMP JUMPDEST SWAP3 SWAP2 POP POP JUMP JUMPDEST PUSH0 PUSH2 0x810 PUSH2 0x80B DUP5 PUSH2 0x7A9 JUMP JUMPDEST PUSH2 0x6CB JUMP JUMPDEST SWAP1 POP DUP1 DUP4 DUP3 MSTORE PUSH1 0x20 DUP3 ADD SWAP1 POP PUSH1 0x20 DUP5 MUL DUP4 ADD DUP6 DUP2 GT ISZERO PUSH2 0x833 JUMPI PUSH2 0x832 PUSH2 0x710 JUMP JUMPDEST JUMPDEST DUP4 JUMPDEST DUP2 DUP2 LT ISZERO PUSH2 0x85C JUMPI DUP1 PUSH2 0x848 DUP9 DUP3 PUSH2 0x7EA JUMP JUMPDEST DUP5 MSTORE PUSH1 0x20 DUP5 ADD SWAP4 POP POP PUSH1 0x20 DUP2 ADD SWAP1 POP PUSH2 0x835 JUMP JUMPDEST POP POP POP SWAP4 SWAP3 POP POP POP JUMP JUMPDEST PUSH0 DUP3 PUSH1 0x1F DUP4 ADD SLT PUSH2 0x87A JUMPI PUSH2 0x879 PUSH2 0x659 JUMP JUMPDEST JUMPDEST DUP2 CALLDATALOAD PUSH2 0x88A DUP5 DUP3 PUSH1 0x20 DUP7 ADD PUSH2 0x7FE JUMP JUMPDEST SWAP2 POP POP SWAP3 SWAP2 POP POP JUMP JUMPDEST PUSH0 DUP1 PUSH1 0x40 DUP4 DUP6 SUB SLT ISZERO PUSH2 0x8A9 JUMPI PUSH2 0x8A8 PUSH2 0x5B8 JUMP JUMPDEST JUMPDEST PUSH0 DUP4 ADD CALLDATALOAD PUSH8 0xFFFFFFFFFFFFFFFF DUP2 GT ISZERO PUSH2 0x8C6 JUMPI PUSH2 0x8C5 PUSH2 0x5BC JUMP JUMPDEST JUMPDEST PUSH2 0x8D2 DUP6 DUP3 DUP7 ADD PUSH2 0x77C JUMP JUMPDEST SWAP3 POP POP PUSH1 0x20 DUP4 ADD CALLDATALOAD PUSH8 0xFFFFFFFFFFFFFFFF DUP2 GT ISZERO PUSH2 0x8F3 JUMPI PUSH2 0x8F2 PUSH2 0x5BC JUMP JUMPDEST JUMPDEST PUSH2 0x8FF DUP6 DUP3 DUP7 ADD PUSH2 0x866 JUMP JUMPDEST SWAP2 POP POP SWAP3 POP SWAP3 SWAP1 POP JUMP JUMPDEST PUSH32 0x4E487B7100000000000000000000000000000000000000000000000000000000 PUSH0 MSTORE PUSH1 0x32 PUSH1 0x4 MSTORE PUSH1 0x24 PUSH0 REVERT JUMPDEST PUSH32 0x4E487B7100000000000000000000000000000000000000000000000000000000 PUSH0 MSTORE PUSH1 0x11 PUSH1 0x4 MSTORE PUSH1 0x24 PUSH0 REVERT JUMPDEST PUSH0 PUSH2 0x96D DUP3 PUSH2 0x47F JUMP JUMPDEST SWAP2 POP PUSH2 0x978 DUP4 PUSH2 0x47F JUMP JUMPDEST SWAP3 POP DUP3 DUP3 ADD SWAP1 POP DUP1 DUP3 GT ISZERO PUSH2 0x990 JUMPI PUSH2 0x98F PUSH2 0x936 JUMP JUMPDEST JUMPDEST SWAP3 SWAP2 POP POP JUMP JUMPDEST PUSH32 0x4164647265737320616E642045544820617265206E6F74206D61746368000000 PUSH0 DUP3 ADD MSTORE POP JUMP JUMPDEST PUSH0 PUSH2 0x9CA PUSH1 0x1D DUP4 PUSH2 0x497 JUMP JUMPDEST SWAP2 POP PUSH2 0x9D5 DUP3 PUSH2 0x996 JUMP JUMPDEST PUSH1 0x20 DUP3 ADD SWAP1 POP SWAP2 SWAP1 POP JUMP JUMPDEST PUSH0 PUSH1 0x20 DUP3 ADD SWAP1 POP DUP2 DUP2 SUB PUSH0 DUP4 ADD MSTORE PUSH2 0x9F7 DUP2 PUSH2 0x9BE JUMP JUMPDEST SWAP1 POP SWAP2 SWAP1 POP JUMP JUMPDEST PUSH32 0x4554482076616C756520776173206E6F7420656E6F7567680000000000000000 PUSH0 DUP3 ADD MSTORE POP JUMP JUMPDEST PUSH0 PUSH2 0xA32 PUSH1 0x18 DUP4 PUSH2 0x497 JUMP JUMPDEST SWAP2 POP PUSH2 0xA3D DUP3 PUSH2 0x9FE JUMP JUMPDEST PUSH1 0x20 DUP3 ADD SWAP1 POP SWAP2 SWAP1 POP JUMP JUMPDEST PUSH0 PUSH1 0x20 DUP3 ADD SWAP1 POP DUP2 DUP2 SUB PUSH0 DUP4 ADD MSTORE PUSH2 0xA5F DUP2 PUSH2 0xA26 JUMP JUMPDEST SWAP1 POP SWAP2 SWAP1 POP JUMP JUMPDEST PUSH32 0x7265776172642061726520616C6C207265636569766564000000000000000000 PUSH0 DUP3 ADD MSTORE POP JUMP JUMPDEST PUSH0 PUSH2 0xA9A PUSH1 0x17 DUP4 PUSH2 0x497 JUMP JUMPDEST SWAP2 POP PUSH2 0xAA5 DUP3 PUSH2 0xA66 JUMP JUMPDEST PUSH1 0x20 DUP3 ADD SWAP1 POP SWAP2 SWAP1 POP JUMP JUMPDEST PUSH0 PUSH1 0x60 DUP3 ADD SWAP1 POP PUSH2 0xAC3 PUSH0 DUP4 ADD DUP6 PUSH2 0x470 JUMP JUMPDEST PUSH2 0xAD0 PUSH1 0x20 DUP4 ADD DUP5 PUSH2 0x488 JUMP JUMPDEST DUP2 DUP2 SUB PUSH1 0x40 DUP4 ADD MSTORE PUSH2 0xAE1 DUP2 PUSH2 0xA8E JUMP JUMPDEST SWAP1 POP SWAP4 SWAP3 POP POP POP JUMP INVALID LOG2 PUSH5 0x6970667358 0x22 SLT KECCAK256 0xB8 PUSH0 DUP4 0x1F DELEGATECALL 0xD1 PUSH18 0x9A1F5FEF0BAFF00EB1CF6EB30E1540237349 PUSH11 0xE4F66155443864736F6C63 NUMBER STOP ADDMOD OR STOP CALLER "
				},
				"gasEstimates": {
					"creation": {
						"codeDepositCost": "569600",
						"executionCost": "24863",
						"totalCost": "594463"
					},
					"external": {
						"": "2687",
						"change_owner(address)": "27060",
						"pay_reward(address[],uint256[])": "infinite",
						"take_back_money()": "infinite"
					}
				},
				"methodIdentifiers": {
					"change_owner(address)": "253c8bd4",
					"pay_reward(address[],uint256[])": "c060541d",
					"take_back_money()": "5d16b8de"
				}
			},
			"storageLayout": {
				"storage": [
					{
						"astId": 3,
						"contract": "contracts/work/reward.sol:reward",
						"label": "owner",
						"offset": 0,
						"slot": "0",
						"type": "t_address_payable"
					}
				],
				"types": {
					"t_address_payable": {
						"encoding": "inplace",
						"label": "address payable",
						"numberOfBytes": "20"
					}
				}
			},
			"userdoc": {
				"kind": "user",
				"methods": {},
				"version": 1
			}
		}
	}
}