{
	"contracts/work/customer.sol": {
		"customer": {
			"abi": [
				{
					"inputs": [],
					"stateMutability": "nonpayable",
					"type": "constructor"
				},
				{
					"anonymous": false,
					"inputs": [
						{
							"indexed": false,
							"internalType": "address",
							"name": "customer_address",
							"type": "address"
						},
						{
							"indexed": false,
							"internalType": "uint256",
							"name": "reward_value",
							"type": "uint256"
						},
						{
							"indexed": false,
							"internalType": "uint256",
							"name": "staking_value",
							"type": "uint256"
						}
					],
					"name": "Give_Reward",
					"type": "event"
				},
				{
					"inputs": [
						{
							"internalType": "address",
							"name": "_customer_address",
							"type": "address"
						},
						{
							"internalType": "uint256",
							"name": "_value",
							"type": "uint256"
						}
					],
					"name": "add_customer",
					"outputs": [],
					"stateMutability": "nonpayable",
					"type": "function"
				},
				{
					"inputs": [
						{
							"internalType": "address",
							"name": "_address",
							"type": "address"
						}
					],
					"name": "add_manager",
					"outputs": [],
					"stateMutability": "nonpayable",
					"type": "function"
				},
				{
					"inputs": [
						{
							"internalType": "address",
							"name": "_customer_address",
							"type": "address"
						},
						{
							"internalType": "uint256",
							"name": "_value",
							"type": "uint256"
						},
						{
							"internalType": "uint256",
							"name": "_add_value",
							"type": "uint256"
						},
						{
							"internalType": "uint256",
							"name": "_time",
							"type": "uint256"
						},
						{
							"internalType": "uint256",
							"name": "_newtime",
							"type": "uint256"
						}
					],
					"name": "change_customer_data",
					"outputs": [],
					"stateMutability": "nonpayable",
					"type": "function"
				},
				{
					"inputs": [
						{
							"internalType": "address",
							"name": "_address",
							"type": "address"
						}
					],
					"name": "change_owner",
					"outputs": [],
					"stateMutability": "nonpayable",
					"type": "function"
				},
				{
					"inputs": [
						{
							"internalType": "address",
							"name": "_customer_address",
							"type": "address"
						},
						{
							"internalType": "uint256",
							"name": "_value",
							"type": "uint256"
						}
					],
					"name": "change_staking_add_value",
					"outputs": [],
					"stateMutability": "nonpayable",
					"type": "function"
				},
				{
					"inputs": [
						{
							"internalType": "address",
							"name": "_customer_address",
							"type": "address"
						},
						{
							"internalType": "uint256",
							"name": "_value",
							"type": "uint256"
						}
					],
					"name": "change_staking_value",
					"outputs": [],
					"stateMutability": "nonpayable",
					"type": "function"
				},
				{
					"inputs": [
						{
							"internalType": "address",
							"name": "_customer_address",
							"type": "address"
						}
					],
					"name": "delete_customer",
					"outputs": [],
					"stateMutability": "nonpayable",
					"type": "function"
				},
				{
					"inputs": [
						{
							"internalType": "address",
							"name": "_address",
							"type": "address"
						}
					],
					"name": "delete_manager",
					"outputs": [],
					"stateMutability": "nonpayable",
					"type": "function"
				},
				{
					"inputs": [],
					"name": "getOwner",
					"outputs": [
						{
							"internalType": "address",
							"name": "",
							"type": "address"
						}
					],
					"stateMutability": "view",
					"type": "function"
				},
				{
					"inputs": [],
					"name": "get_allcustomer_reward",
					"outputs": [
						{
							"internalType": "uint256",
							"name": "",
							"type": "uint256"
						}
					],
					"stateMutability": "view",
					"type": "function"
				},
				{
					"inputs": [
						{
							"internalType": "address",
							"name": "_address",
							"type": "address"
						}
					],
					"name": "get_customer_address",
					"outputs": [
						{
							"internalType": "address",
							"name": "",
							"type": "address"
						}
					],
					"stateMutability": "view",
					"type": "function"
				},
				{
					"inputs": [
						{
							"internalType": "address",
							"name": "_address",
							"type": "address"
						}
					],
					"name": "get_customer_data",
					"outputs": [
						{
							"components": [
								{
									"internalType": "address",
									"name": "customer_address",
									"type": "address"
								},
								{
									"internalType": "uint256",
									"name": "value",
									"type": "uint256"
								},
								{
									"internalType": "uint256",
									"name": "add_value",
									"type": "uint256"
								},
								{
									"internalType": "uint256",
									"name": "time",
									"type": "uint256"
								},
								{
									"internalType": "uint256",
									"name": "newtime",
									"type": "uint256"
								},
								{
									"internalType": "uint256",
									"name": "id",
									"type": "uint256"
								}
							],
							"internalType": "struct customer.Customer",
							"name": "",
							"type": "tuple"
						}
					],
					"stateMutability": "view",
					"type": "function"
				},
				{
					"inputs": [
						{
							"internalType": "address",
							"name": "_address",
							"type": "address"
						}
					],
					"name": "get_customer_id",
					"outputs": [
						{
							"internalType": "uint256",
							"name": "",
							"type": "uint256"
						}
					],
					"stateMutability": "view",
					"type": "function"
				},
				{
					"inputs": [
						{
							"internalType": "address",
							"name": "_address",
							"type": "address"
						}
					],
					"name": "get_staking_value",
					"outputs": [
						{
							"internalType": "uint256",
							"name": "",
							"type": "uint256"
						}
					],
					"stateMutability": "view",
					"type": "function"
				},
				{
					"inputs": [],
					"name": "give_all_reward",
					"outputs": [],
					"stateMutability": "payable",
					"type": "function"
				},
				{
					"inputs": [
						{
							"internalType": "address",
							"name": "_customer_address",
							"type": "address"
						},
						{
							"internalType": "uint256",
							"name": "_time",
							"type": "uint256"
						}
					],
					"name": "increase_staking_time",
					"outputs": [],
					"stateMutability": "nonpayable",
					"type": "function"
				},
				{
					"inputs": [
						{
							"internalType": "address",
							"name": "_customer_address",
							"type": "address"
						},
						{
							"internalType": "uint256",
							"name": "_value",
							"type": "uint256"
						}
					],
					"name": "increase_staking_value",
					"outputs": [],
					"stateMutability": "nonpayable",
					"type": "function"
				},
				{
					"inputs": [
						{
							"internalType": "address",
							"name": "_customer_address",
							"type": "address"
						},
						{
							"internalType": "uint256",
							"name": "_time",
							"type": "uint256"
						}
					],
					"name": "reduce_staking_time",
					"outputs": [],
					"stateMutability": "nonpayable",
					"type": "function"
				},
				{
					"inputs": [
						{
							"internalType": "address",
							"name": "_customer_address",
							"type": "address"
						},
						{
							"internalType": "uint256",
							"name": "_value",
							"type": "uint256"
						}
					],
					"name": "reduce_staking_value",
					"outputs": [],
					"stateMutability": "nonpayable",
					"type": "function"
				},
				{
					"inputs": [
						{
							"internalType": "address payable",
							"name": "_address",
							"type": "address"
						}
					],
					"name": "take_out_ETH",
					"outputs": [],
					"stateMutability": "nonpayable",
					"type": "function"
				}
			],
			"devdoc": {
				"kind": "dev",
				"methods": {},
				"version": 1
			},
			"evm": {
				"assembly": "    /* \"contracts/work/customer.sol\":2278:11411  contract customer is Owner{... */\n  mstore(0x40, 0x80)\n    /* \"contracts/work/customer.sol\":447:448  1 */\n  0x01\n    /* \"contracts/work/customer.sol\":429:448  uint private id = 1 */\n  0x03\n  sstore\n    /* \"contracts/work/customer.sol\":2325:2326  0 */\n  0x00\n    /* \"contracts/work/customer.sol\":2311:2326  uint amount = 0 */\n  0x04\n  sstore\n    /* \"contracts/work/customer.sol\":2914:2975  constructor(){... */\n  callvalue\n  dup1\n  iszero\n  tag_1\n  jumpi\n  0x00\n  dup1\n  revert\ntag_1:\n  pop\n    /* \"contracts/work/customer.sol\":639:649  msg.sender */\n  caller\n    /* \"contracts/work/customer.sol\":631:636  owner */\n  0x00\n  dup1\n    /* \"contracts/work/customer.sol\":631:649  owner = msg.sender */\n  0x0100\n  exp\n  dup2\n  sload\n  dup2\n  0xffffffffffffffffffffffffffffffffffffffff\n  mul\n  not\n  and\n  swap1\n  dup4\n  0xffffffffffffffffffffffffffffffffffffffff\n  and\n  mul\n  or\n  swap1\n  sstore\n  pop\n    /* \"contracts/work/customer.sol\":755:776  Manager(msg.sender,0) */\n  mload(0x40)\n  dup1\n  0x40\n  add\n  0x40\n  mstore\n  dup1\n    /* \"contracts/work/customer.sol\":763:773  msg.sender */\n  caller\n    /* \"contracts/work/customer.sol\":755:776  Manager(msg.sender,0) */\n  0xffffffffffffffffffffffffffffffffffffffff\n  and\n  dup2\n  mstore\n  0x20\n  add\n    /* \"contracts/work/customer.sol\":774:775  0 */\n  0x00\n    /* \"contracts/work/customer.sol\":755:776  Manager(msg.sender,0) */\n  dup2\n  mstore\n  pop\n    /* \"contracts/work/customer.sol\":729:740  manager_map */\n  0x02\n    /* \"contracts/work/customer.sol\":729:752  manager_map[msg.sender] */\n  0x00\n    /* \"contracts/work/customer.sol\":741:751  msg.sender */\n  caller\n    /* \"contracts/work/customer.sol\":729:752  manager_map[msg.sender] */\n  0xffffffffffffffffffffffffffffffffffffffff\n  and\n  0xffffffffffffffffffffffffffffffffffffffff\n  and\n  dup2\n  mstore\n  0x20\n  add\n  swap1\n  dup2\n  mstore\n  0x20\n  add\n  0x00\n  keccak256\n    /* \"contracts/work/customer.sol\":729:776  manager_map[msg.sender] = Manager(msg.sender,0) */\n  0x00\n  dup3\n  add\n  mload\n  dup2\n  0x00\n  add\n  exp(0x0100, 0x00)\n  dup2\n  sload\n  dup2\n  0xffffffffffffffffffffffffffffffffffffffff\n  mul\n  not\n  and\n  swap1\n  dup4\n  0xffffffffffffffffffffffffffffffffffffffff\n  and\n  mul\n  or\n  swap1\n  sstore\n  pop\n  0x20\n  dup3\n  add\n  mload\n  dup2\n  0x01\n  add\n  sstore\n  swap1\n  pop\n  pop\n    /* \"contracts/work/customer.sol\":787:794  manager */\n  0x01\n    /* \"contracts/work/customer.sol\":800:810  msg.sender */\n  caller\n    /* \"contracts/work/customer.sol\":787:811  manager.push(msg.sender) */\n  swap1\n  dup1\n  0x01\n  dup2\n  sload\n  add\n  dup1\n  dup3\n  sstore\n  dup1\n  swap2\n  pop\n  pop\n  0x01\n  swap1\n  sub\n  swap1\n  0x00\n  mstore\n  keccak256(0x00, 0x20)\n  add\n  0x00\n  swap1\n  swap2\n  swap1\n  swap2\n  swap1\n  swap2\n  0x0100\n  exp\n  dup2\n  sload\n  dup2\n  0xffffffffffffffffffffffffffffffffffffffff\n  mul\n  not\n  and\n  swap1\n  dup4\n  0xffffffffffffffffffffffffffffffffffffffff\n  and\n  mul\n  or\n  swap1\n  sstore\n  pop\n    /* \"contracts/work/customer.sol\":2952:2967  block.timestamp */\n  timestamp\n    /* \"contracts/work/customer.sol\":2938:2949  reward_time */\n  0x05\n    /* \"contracts/work/customer.sol\":2938:2967  reward_time = block.timestamp */\n  dup2\n  swap1\n  sstore\n  pop\n    /* \"contracts/work/customer.sol\":2278:11411  contract customer is Owner{... */\n  dataSize(sub_0)\n  dup1\n  dataOffset(sub_0)\n  0x00\n  codecopy\n  0x00\n  return\nstop\n\nsub_0: assembly {\n        /* \"contracts/work/customer.sol\":2278:11411  contract customer is Owner{... */\n      mstore(0x40, 0x80)\n      jumpi(tag_1, lt(calldatasize, 0x04))\n      shr(0xe0, calldataload(0x00))\n      dup1\n      0x656b6b7e\n      gt\n      tag_22\n      jumpi\n      dup1\n      0x85afee73\n      gt\n      tag_23\n      jumpi\n      dup1\n      0x85afee73\n      eq\n      tag_17\n      jumpi\n      dup1\n      0x893d20e8\n      eq\n      tag_18\n      jumpi\n      dup1\n      0x97e3af60\n      eq\n      tag_19\n      jumpi\n      dup1\n      0xa4686b8f\n      eq\n      tag_20\n      jumpi\n      dup1\n      0xd7fa1083\n      eq\n      tag_21\n      jumpi\n      jump(tag_1)\n    tag_23:\n      dup1\n      0x656b6b7e\n      eq\n      tag_12\n      jumpi\n      dup1\n      0x6997f1e2\n      eq\n      tag_13\n      jumpi\n      dup1\n      0x70e2f488\n      eq\n      tag_14\n      jumpi\n      dup1\n      0x7c1c1d23\n      eq\n      tag_15\n      jumpi\n      dup1\n      0x7ea17dcc\n      eq\n      tag_16\n      jumpi\n      jump(tag_1)\n    tag_22:\n      dup1\n      0x26aed97d\n      gt\n      tag_24\n      jumpi\n      dup1\n      0x26aed97d\n      eq\n      tag_7\n      jumpi\n      dup1\n      0x2a663c2c\n      eq\n      tag_8\n      jumpi\n      dup1\n      0x31b3fac2\n      eq\n      tag_9\n      jumpi\n      dup1\n      0x3922d551\n      eq\n      tag_10\n      jumpi\n      dup1\n      0x3fdeec79\n      eq\n      tag_11\n      jumpi\n      jump(tag_1)\n    tag_24:\n      dup1\n      0x1408d756\n      eq\n      tag_2\n      jumpi\n      dup1\n      0x15a0b37b\n      eq\n      tag_3\n      jumpi\n      dup1\n      0x2057c859\n      eq\n      tag_4\n      jumpi\n      dup1\n      0x20da9698\n      eq\n      tag_5\n      jumpi\n      dup1\n      0x253c8bd4\n      eq\n      tag_6\n      jumpi\n    tag_1:\n      0x00\n      dup1\n      revert\n        /* \"contracts/work/customer.sol\":3399:4503  function add_customer(address _customer_address , uint _value) onlyOwner public{       //新增客戶資訊 建議可用hash替換位址... */\n    tag_2:\n      callvalue\n      dup1\n      iszero\n      tag_25\n      jumpi\n      0x00\n      dup1\n      revert\n    tag_25:\n      pop\n      tag_26\n      0x04\n      dup1\n      calldatasize\n      sub\n      dup2\n      add\n      swap1\n      tag_27\n      swap2\n      swap1\n      tag_28\n      jump\t// in\n    tag_27:\n      tag_29\n      jump\t// in\n    tag_26:\n      stop\n        /* \"contracts/work/customer.sol\":7021:7343  function increase_staking_time(address _customer_address, uint _time) onlyOwner public {     //將未入帳質押日期延後(以天為單位)... */\n    tag_3:\n      callvalue\n      dup1\n      iszero\n      tag_30\n      jumpi\n      0x00\n      dup1\n      revert\n    tag_30:\n      pop\n      tag_31\n      0x04\n      dup1\n      calldatasize\n      sub\n      dup2\n      add\n      swap1\n      tag_32\n      swap2\n      swap1\n      tag_28\n      jump\t// in\n    tag_32:\n      tag_33\n      jump\t// in\n    tag_31:\n      stop\n        /* \"contracts/work/customer.sol\":5821:6019  function change_staking_add_value(address _customer_address, uint _value) onlyOwner public{... */\n    tag_4:\n      callvalue\n      dup1\n      iszero\n      tag_34\n      jumpi\n      0x00\n      dup1\n      revert\n    tag_34:\n      pop\n      tag_35\n      0x04\n      dup1\n      calldatasize\n      sub\n      dup2\n      add\n      swap1\n      tag_36\n      swap2\n      swap1\n      tag_28\n      jump\t// in\n    tag_36:\n      tag_37\n      jump\t// in\n    tag_35:\n      stop\n        /* \"contracts/work/customer.sol\":9472:10969  function give_all_reward() onlyOwner payable public{            //按照比例分配獎勵給全部客戶... */\n    tag_5:\n      tag_38\n      tag_39\n      jump\t// in\n    tag_38:\n      stop\n        /* \"contracts/work/customer.sol\":1220:1345  function change_owner(address _address) onlyOwner public{           //更改合約擁有人... */\n    tag_6:\n      callvalue\n      dup1\n      iszero\n      tag_40\n      jumpi\n      0x00\n      dup1\n      revert\n    tag_40:\n      pop\n      tag_41\n      0x04\n      dup1\n      calldatasize\n      sub\n      dup2\n      add\n      swap1\n      tag_42\n      swap2\n      swap1\n      tag_43\n      jump\t// in\n    tag_42:\n      tag_44\n      jump\t// in\n    tag_41:\n      stop\n        /* \"contracts/work/customer.sol\":4512:5282  function change_customer_data(address _customer_address , uint _value, uint _add_value, uint _time, uint _newtime) onlyOwner public{       //更改客戶資訊 建議可用hash替換位址... */\n    tag_7:\n      callvalue\n      dup1\n      iszero\n      tag_45\n      jumpi\n      0x00\n      dup1\n      revert\n    tag_45:\n      pop\n      tag_46\n      0x04\n      dup1\n      calldatasize\n      sub\n      dup2\n      add\n      swap1\n      tag_47\n      swap2\n      swap1\n      tag_48\n      jump\t// in\n    tag_47:\n      tag_49\n      jump\t// in\n    tag_46:\n      stop\n        /* \"contracts/work/customer.sol\":7679:7908  function get_customer_data(address _address) view public returns(Customer memory){... */\n    tag_8:\n      callvalue\n      dup1\n      iszero\n      tag_50\n      jumpi\n      0x00\n      dup1\n      revert\n    tag_50:\n      pop\n      tag_51\n      0x04\n      dup1\n      calldatasize\n      sub\n      dup2\n      add\n      swap1\n      tag_52\n      swap2\n      swap1\n      tag_43\n      jump\t// in\n    tag_52:\n      tag_53\n      jump\t// in\n    tag_51:\n      mload(0x40)\n      tag_54\n      swap2\n      swap1\n      tag_55\n      jump\t// in\n    tag_54:\n      mload(0x40)\n      dup1\n      swap2\n      sub\n      swap1\n      return\n        /* \"contracts/work/customer.sol\":10984:11108  function take_out_ETH(address payable _address) onlyOwner public {... */\n    tag_9:\n      callvalue\n      dup1\n      iszero\n      tag_56\n      jumpi\n      0x00\n      dup1\n      revert\n    tag_56:\n      pop\n      tag_57\n      0x04\n      dup1\n      calldatasize\n      sub\n      dup2\n      add\n      swap1\n      tag_58\n      swap2\n      swap1\n      tag_59\n      jump\t// in\n    tag_58:\n      tag_60\n      jump\t// in\n    tag_57:\n      stop\n        /* \"contracts/work/customer.sol\":1353:1524  function add_manager(address _address) onlyManager public{... */\n    tag_10:\n      callvalue\n      dup1\n      iszero\n      tag_61\n      jumpi\n      0x00\n      dup1\n      revert\n    tag_61:\n      pop\n      tag_62\n      0x04\n      dup1\n      calldatasize\n      sub\n      dup2\n      add\n      swap1\n      tag_63\n      swap2\n      swap1\n      tag_43\n      jump\t// in\n    tag_63:\n      tag_64\n      jump\t// in\n    tag_62:\n      stop\n        /* \"contracts/work/customer.sol\":5291:5613  function delete_customer(address _customer_address) onlyOwner public{       //刪除客戶資訊... */\n    tag_11:\n      callvalue\n      dup1\n      iszero\n      tag_65\n      jumpi\n      0x00\n      dup1\n      revert\n    tag_65:\n      pop\n      tag_66\n      0x04\n      dup1\n      calldatasize\n      sub\n      dup2\n      add\n      swap1\n      tag_67\n      swap2\n      swap1\n      tag_43\n      jump\t// in\n    tag_67:\n      tag_68\n      jump\t// in\n    tag_66:\n      stop\n        /* \"contracts/work/customer.sol\":1532:1698  function delete_manager(address _address) onlyManager public{... */\n    tag_12:\n      callvalue\n      dup1\n      iszero\n      tag_69\n      jumpi\n      0x00\n      dup1\n      revert\n    tag_69:\n      pop\n      tag_70\n      0x04\n      dup1\n      calldatasize\n      sub\n      dup2\n      add\n      swap1\n      tag_71\n      swap2\n      swap1\n      tag_43\n      jump\t// in\n    tag_71:\n      tag_72\n      jump\t// in\n    tag_70:\n      stop\n        /* \"contracts/work/customer.sol\":7351:7671  function reduce_staking_time(address _customer_address, uint _time) onlyOwner public {     //將未入帳質押日期提前(以天為單位)... */\n    tag_13:\n      callvalue\n      dup1\n      iszero\n      tag_73\n      jumpi\n      0x00\n      dup1\n      revert\n    tag_73:\n      pop\n      tag_74\n      0x04\n      dup1\n      calldatasize\n      sub\n      dup2\n      add\n      swap1\n      tag_75\n      swap2\n      swap1\n      tag_28\n      jump\t// in\n    tag_75:\n      tag_76\n      jump\t// in\n    tag_74:\n      stop\n        /* \"contracts/work/customer.sol\":8661:9165  function get_allcustomer_reward() view onlyOwner public returns(uint){          //取得目前可分配獎勵之總質押金額... */\n    tag_14:\n      callvalue\n      dup1\n      iszero\n      tag_77\n      jumpi\n      0x00\n      dup1\n      revert\n    tag_77:\n      pop\n      tag_78\n      tag_79\n      jump\t// in\n    tag_78:\n      mload(0x40)\n      tag_80\n      swap2\n      swap1\n      tag_81\n      jump\t// in\n    tag_80:\n      mload(0x40)\n      dup1\n      swap2\n      sub\n      swap1\n      return\n        /* \"contracts/work/customer.sol\":6029:6356  function increase_staking_value(address _customer_address, uint _value) onlyOwner public{           //增加質押金額... */\n    tag_15:\n      callvalue\n      dup1\n      iszero\n      tag_82\n      jumpi\n      0x00\n      dup1\n      revert\n    tag_82:\n      pop\n      tag_83\n      0x04\n      dup1\n      calldatasize\n      sub\n      dup2\n      add\n      swap1\n      tag_84\n      swap2\n      swap1\n      tag_28\n      jump\t// in\n    tag_84:\n      tag_85\n      jump\t// in\n    tag_83:\n      stop\n        /* \"contracts/work/customer.sol\":7916:8157  function get_customer_address(address _address) view public returns(address){... */\n    tag_16:\n      callvalue\n      dup1\n      iszero\n      tag_86\n      jumpi\n      0x00\n      dup1\n      revert\n    tag_86:\n      pop\n      tag_87\n      0x04\n      dup1\n      calldatasize\n      sub\n      dup2\n      add\n      swap1\n      tag_88\n      swap2\n      swap1\n      tag_43\n      jump\t// in\n    tag_88:\n      tag_89\n      jump\t// in\n    tag_87:\n      mload(0x40)\n      tag_90\n      swap2\n      swap1\n      tag_91\n      jump\t// in\n    tag_90:\n      mload(0x40)\n      dup1\n      swap2\n      sub\n      swap1\n      return\n        /* \"contracts/work/customer.sol\":5621:5811  function change_staking_value(address _customer_address, uint _value) onlyOwner public{... */\n    tag_17:\n      callvalue\n      dup1\n      iszero\n      tag_92\n      jumpi\n      0x00\n      dup1\n      revert\n    tag_92:\n      pop\n      tag_93\n      0x04\n      dup1\n      calldatasize\n      sub\n      dup2\n      add\n      swap1\n      tag_94\n      swap2\n      swap1\n      tag_28\n      jump\t// in\n    tag_94:\n      tag_95\n      jump\t// in\n    tag_93:\n      stop\n        /* \"contracts/work/customer.sol\":1706:1785  function getOwner() view public returns(address){... */\n    tag_18:\n      callvalue\n      dup1\n      iszero\n      tag_96\n      jumpi\n      0x00\n      dup1\n      revert\n    tag_96:\n      pop\n      tag_97\n      tag_98\n      jump\t// in\n    tag_97:\n      mload(0x40)\n      tag_99\n      swap2\n      swap1\n      tag_91\n      jump\t// in\n    tag_99:\n      mload(0x40)\n      dup1\n      swap2\n      sub\n      swap1\n      return\n        /* \"contracts/work/customer.sol\":6364:7013  function reduce_staking_value(address _customer_address, uint _value) onlyOwner public{         //減少質押金額... */\n    tag_19:\n      callvalue\n      dup1\n      iszero\n      tag_100\n      jumpi\n      0x00\n      dup1\n      revert\n    tag_100:\n      pop\n      tag_101\n      0x04\n      dup1\n      calldatasize\n      sub\n      dup2\n      add\n      swap1\n      tag_102\n      swap2\n      swap1\n      tag_28\n      jump\t// in\n    tag_102:\n      tag_103\n      jump\t// in\n    tag_101:\n      stop\n        /* \"contracts/work/customer.sol\":8434:8653  function get_customer_id(address _address) view public returns(uint){... */\n    tag_20:\n      callvalue\n      dup1\n      iszero\n      tag_104\n      jumpi\n      0x00\n      dup1\n      revert\n    tag_104:\n      pop\n      tag_105\n      0x04\n      dup1\n      calldatasize\n      sub\n      dup2\n      add\n      swap1\n      tag_106\n      swap2\n      swap1\n      tag_43\n      jump\t// in\n    tag_106:\n      tag_107\n      jump\t// in\n    tag_105:\n      mload(0x40)\n      tag_108\n      swap2\n      swap1\n      tag_81\n      jump\t// in\n    tag_108:\n      mload(0x40)\n      dup1\n      swap2\n      sub\n      swap1\n      return\n        /* \"contracts/work/customer.sol\":8165:8426  function get_staking_value(address _address) view public returns(uint){... */\n    tag_21:\n      callvalue\n      dup1\n      iszero\n      tag_109\n      jumpi\n      0x00\n      dup1\n      revert\n    tag_109:\n      pop\n      tag_110\n      0x04\n      dup1\n      calldatasize\n      sub\n      dup2\n      add\n      swap1\n      tag_111\n      swap2\n      swap1\n      tag_43\n      jump\t// in\n    tag_111:\n      tag_112\n      jump\t// in\n    tag_110:\n      mload(0x40)\n      tag_113\n      swap2\n      swap1\n      tag_81\n      jump\t// in\n    tag_113:\n      mload(0x40)\n      dup1\n      swap2\n      sub\n      swap1\n      return\n        /* \"contracts/work/customer.sol\":3399:4503  function add_customer(address _customer_address , uint _value) onlyOwner public{       //新增客戶資訊 建議可用hash替換位址... */\n    tag_29:\n        /* \"contracts/work/customer.sol\":917:927  msg.sender */\n      caller\n        /* \"contracts/work/customer.sol\":908:927  owner == msg.sender */\n      0xffffffffffffffffffffffffffffffffffffffff\n      and\n        /* \"contracts/work/customer.sol\":908:913  owner */\n      0x00\n      dup1\n      sload\n      swap1\n      0x0100\n      exp\n      swap1\n      div\n      0xffffffffffffffffffffffffffffffffffffffff\n      and\n        /* \"contracts/work/customer.sol\":908:927  owner == msg.sender */\n      0xffffffffffffffffffffffffffffffffffffffff\n      and\n      eq\n        /* \"contracts/work/customer.sol\":900:965  require(owner == msg.sender,\"This address is not contract Owner\") */\n      tag_115\n      jumpi\n      mload(0x40)\n      0x08c379a000000000000000000000000000000000000000000000000000000000\n      dup2\n      mstore\n      0x04\n      add\n      tag_116\n      swap1\n      tag_117\n      jump\t// in\n    tag_116:\n      mload(0x40)\n      dup1\n      swap2\n      sub\n      swap1\n      revert\n    tag_115:\n        /* \"contracts/work/customer.sol\":3613:3614  0 */\n      0x00\n        /* \"contracts/work/customer.sol\":3553:3615  customer_map[_customer_address].customer_address == address(0) */\n      0xffffffffffffffffffffffffffffffffffffffff\n      and\n        /* \"contracts/work/customer.sol\":3553:3565  customer_map */\n      0x07\n        /* \"contracts/work/customer.sol\":3553:3584  customer_map[_customer_address] */\n      0x00\n        /* \"contracts/work/customer.sol\":3566:3583  _customer_address */\n      dup5\n        /* \"contracts/work/customer.sol\":3553:3584  customer_map[_customer_address] */\n      0xffffffffffffffffffffffffffffffffffffffff\n      and\n      0xffffffffffffffffffffffffffffffffffffffff\n      and\n      dup2\n      mstore\n      0x20\n      add\n      swap1\n      dup2\n      mstore\n      0x20\n      add\n      0x00\n      keccak256\n        /* \"contracts/work/customer.sol\":3553:3601  customer_map[_customer_address].customer_address */\n      0x00\n      add\n      0x00\n      swap1\n      sload\n      swap1\n      0x0100\n      exp\n      swap1\n      div\n      0xffffffffffffffffffffffffffffffffffffffff\n      and\n        /* \"contracts/work/customer.sol\":3553:3615  customer_map[_customer_address].customer_address == address(0) */\n      0xffffffffffffffffffffffffffffffffffffffff\n      and\n      eq\n        /* \"contracts/work/customer.sol\":3545:3648  require(customer_map[_customer_address].customer_address == address(0),\"This account is already exist\") */\n      tag_119\n      jumpi\n      mload(0x40)\n      0x08c379a000000000000000000000000000000000000000000000000000000000\n      dup2\n      mstore\n      0x04\n      add\n      tag_120\n      swap1\n      tag_121\n      jump\t// in\n    tag_120:\n      mload(0x40)\n      dup1\n      swap2\n      sub\n      swap1\n      revert\n    tag_119:\n        /* \"contracts/work/customer.sol\":3785:3813  Customer memory new_customer */\n      0x00\n        /* \"contracts/work/customer.sol\":3816:4238  Customer({           //建立一個Customer物件命名為new_customer儲存客戶資訊... */\n      mload(0x40)\n      dup1\n      0xc0\n      add\n      0x40\n      mstore\n      dup1\n        /* \"contracts/work/customer.sol\":3937:3954  _customer_address */\n      dup5\n        /* \"contracts/work/customer.sol\":3816:4238  Customer({           //建立一個Customer物件命名為new_customer儲存客戶資訊... */\n      0xffffffffffffffffffffffffffffffffffffffff\n      and\n      dup2\n      mstore\n      0x20\n      add\n        /* \"contracts/work/customer.sol\":3977:3983  _value */\n      dup4\n        /* \"contracts/work/customer.sol\":3816:4238  Customer({           //建立一個Customer物件命名為new_customer儲存客戶資訊... */\n      dup2\n      mstore\n      0x20\n      add\n        /* \"contracts/work/customer.sol\":4010:4011  0 */\n      0x00\n        /* \"contracts/work/customer.sol\":3816:4238  Customer({           //建立一個Customer物件命名為new_customer儲存客戶資訊... */\n      dup2\n      mstore\n      0x20\n      add\n        /* \"contracts/work/customer.sol\":4051:4058  2592000 */\n      0x278d00\n        /* \"contracts/work/customer.sol\":4033:4048  block.timestamp */\n      timestamp\n        /* \"contracts/work/customer.sol\":4033:4058  block.timestamp - 2592000 */\n      tag_122\n      swap2\n      swap1\n      tag_123\n      jump\t// in\n    tag_122:\n        /* \"contracts/work/customer.sol\":3816:4238  Customer({           //建立一個Customer物件命名為new_customer儲存客戶資訊... */\n      dup2\n      mstore\n      0x20\n      add\n        /* \"contracts/work/customer.sol\":4185:4200  block.timestamp */\n      timestamp\n        /* \"contracts/work/customer.sol\":3816:4238  Customer({           //建立一個Customer物件命名為new_customer儲存客戶資訊... */\n      dup2\n      mstore\n      0x20\n      add\n        /* \"contracts/work/customer.sol\":4220:4226  amount */\n      sload(0x04)\n        /* \"contracts/work/customer.sol\":3816:4238  Customer({           //建立一個Customer物件命名為new_customer儲存客戶資訊... */\n      dup2\n      mstore\n      pop\n        /* \"contracts/work/customer.sol\":3785:4238  Customer memory new_customer = Customer({           //建立一個Customer物件命名為new_customer儲存客戶資訊... */\n      swap1\n      pop\n        /* \"contracts/work/customer.sol\":4283:4295  new_customer */\n      dup1\n        /* \"contracts/work/customer.sol\":4249:4261  customer_map */\n      0x07\n        /* \"contracts/work/customer.sol\":4249:4280  customer_map[_customer_address] */\n      0x00\n        /* \"contracts/work/customer.sol\":4262:4279  _customer_address */\n      dup6\n        /* \"contracts/work/customer.sol\":4249:4280  customer_map[_customer_address] */\n      0xffffffffffffffffffffffffffffffffffffffff\n      and\n      0xffffffffffffffffffffffffffffffffffffffff\n      and\n      dup2\n      mstore\n      0x20\n      add\n      swap1\n      dup2\n      mstore\n      0x20\n      add\n      0x00\n      keccak256\n        /* \"contracts/work/customer.sol\":4249:4295  customer_map[_customer_address] = new_customer */\n      0x00\n      dup3\n      add\n      mload\n      dup2\n      0x00\n      add\n      exp(0x0100, 0x00)\n      dup2\n      sload\n      dup2\n      0xffffffffffffffffffffffffffffffffffffffff\n      mul\n      not\n      and\n      swap1\n      dup4\n      0xffffffffffffffffffffffffffffffffffffffff\n      and\n      mul\n      or\n      swap1\n      sstore\n      pop\n      0x20\n      dup3\n      add\n      mload\n      dup2\n      0x01\n      add\n      sstore\n      0x40\n      dup3\n      add\n      mload\n      dup2\n      0x02\n      add\n      sstore\n      0x60\n      dup3\n      add\n      mload\n      dup2\n      0x03\n      add\n      sstore\n      0x80\n      dup3\n      add\n      mload\n      dup2\n      0x04\n      add\n      sstore\n      0xa0\n      dup3\n      add\n      mload\n      dup2\n      0x05\n      add\n      sstore\n      swap1\n      pop\n      pop\n        /* \"contracts/work/customer.sol\":4378:4385  account */\n      0x06\n        /* \"contracts/work/customer.sol\":4391:4408  _customer_address */\n      dup4\n        /* \"contracts/work/customer.sol\":4378:4409  account.push(_customer_address) */\n      swap1\n      dup1\n      0x01\n      dup2\n      sload\n      add\n      dup1\n      dup3\n      sstore\n      dup1\n      swap2\n      pop\n      pop\n      0x01\n      swap1\n      sub\n      swap1\n      0x00\n      mstore\n      keccak256(0x00, 0x20)\n      add\n      0x00\n      swap1\n      swap2\n      swap1\n      swap2\n      swap1\n      swap2\n      0x0100\n      exp\n      dup2\n      sload\n      dup2\n      0xffffffffffffffffffffffffffffffffffffffff\n      mul\n      not\n      and\n      swap1\n      dup4\n      0xffffffffffffffffffffffffffffffffffffffff\n      and\n      mul\n      or\n      swap1\n      sstore\n      pop\n        /* \"contracts/work/customer.sol\":4494:4495  1 */\n      0x01\n        /* \"contracts/work/customer.sol\":4484:4490  amount */\n      0x04\n      0x00\n        /* \"contracts/work/customer.sol\":4484:4495  amount += 1 */\n      dup3\n      dup3\n      sload\n      tag_125\n      swap2\n      swap1\n      tag_126\n      jump\t// in\n    tag_125:\n      swap3\n      pop\n      pop\n      dup2\n      swap1\n      sstore\n      pop\n        /* \"contracts/work/customer.sol\":3478:4503  {       //新增客戶資訊 建議可用hash替換位址... */\n      pop\n        /* \"contracts/work/customer.sol\":3399:4503  function add_customer(address _customer_address , uint _value) onlyOwner public{       //新增客戶資訊 建議可用hash替換位址... */\n      pop\n      pop\n      jump\t// out\n        /* \"contracts/work/customer.sol\":7021:7343  function increase_staking_time(address _customer_address, uint _time) onlyOwner public {     //將未入帳質押日期延後(以天為單位)... */\n    tag_33:\n        /* \"contracts/work/customer.sol\":917:927  msg.sender */\n      caller\n        /* \"contracts/work/customer.sol\":908:927  owner == msg.sender */\n      0xffffffffffffffffffffffffffffffffffffffff\n      and\n        /* \"contracts/work/customer.sol\":908:913  owner */\n      0x00\n      dup1\n      sload\n      swap1\n      0x0100\n      exp\n      swap1\n      div\n      0xffffffffffffffffffffffffffffffffffffffff\n      and\n        /* \"contracts/work/customer.sol\":908:927  owner == msg.sender */\n      0xffffffffffffffffffffffffffffffffffffffff\n      and\n      eq\n        /* \"contracts/work/customer.sol\":900:965  require(owner == msg.sender,\"This address is not contract Owner\") */\n      tag_128\n      jumpi\n      mload(0x40)\n      0x08c379a000000000000000000000000000000000000000000000000000000000\n      dup2\n      mstore\n      0x04\n      add\n      tag_129\n      swap1\n      tag_117\n      jump\t// in\n    tag_129:\n      mload(0x40)\n      dup1\n      swap2\n      sub\n      swap1\n      revert\n    tag_128:\n        /* \"contracts/work/customer.sol\":7241:7242  0 */\n      0x00\n        /* \"contracts/work/customer.sol\":7181:7243  customer_map[_customer_address].customer_address != address(0) */\n      0xffffffffffffffffffffffffffffffffffffffff\n      and\n        /* \"contracts/work/customer.sol\":7181:7193  customer_map */\n      0x07\n        /* \"contracts/work/customer.sol\":7181:7212  customer_map[_customer_address] */\n      0x00\n        /* \"contracts/work/customer.sol\":7194:7211  _customer_address */\n      dup5\n        /* \"contracts/work/customer.sol\":7181:7212  customer_map[_customer_address] */\n      0xffffffffffffffffffffffffffffffffffffffff\n      and\n      0xffffffffffffffffffffffffffffffffffffffff\n      and\n      dup2\n      mstore\n      0x20\n      add\n      swap1\n      dup2\n      mstore\n      0x20\n      add\n      0x00\n      keccak256\n        /* \"contracts/work/customer.sol\":7181:7229  customer_map[_customer_address].customer_address */\n      0x00\n      add\n      0x00\n      swap1\n      sload\n      swap1\n      0x0100\n      exp\n      swap1\n      div\n      0xffffffffffffffffffffffffffffffffffffffff\n      and\n        /* \"contracts/work/customer.sol\":7181:7243  customer_map[_customer_address].customer_address != address(0) */\n      0xffffffffffffffffffffffffffffffffffffffff\n      and\n      sub\n        /* \"contracts/work/customer.sol\":7173:7271  require(customer_map[_customer_address].customer_address != address(0),\"This account isn't exist\") */\n      tag_131\n      jumpi\n      mload(0x40)\n      0x08c379a000000000000000000000000000000000000000000000000000000000\n      dup2\n      mstore\n      0x04\n      add\n      tag_132\n      swap1\n      tag_133\n      jump\t// in\n    tag_132:\n      mload(0x40)\n      dup1\n      swap2\n      sub\n      swap1\n      revert\n    tag_131:\n        /* \"contracts/work/customer.sol\":7330:7335  86400 */\n      0x015180\n        /* \"contracts/work/customer.sol\":7322:7327  _time */\n      dup2\n        /* \"contracts/work/customer.sol\":7322:7335  _time * 86400 */\n      tag_134\n      swap2\n      swap1\n      tag_135\n      jump\t// in\n    tag_134:\n        /* \"contracts/work/customer.sol\":7282:7294  customer_map */\n      0x07\n        /* \"contracts/work/customer.sol\":7282:7313  customer_map[_customer_address] */\n      0x00\n        /* \"contracts/work/customer.sol\":7295:7312  _customer_address */\n      dup5\n        /* \"contracts/work/customer.sol\":7282:7313  customer_map[_customer_address] */\n      0xffffffffffffffffffffffffffffffffffffffff\n      and\n      0xffffffffffffffffffffffffffffffffffffffff\n      and\n      dup2\n      mstore\n      0x20\n      add\n      swap1\n      dup2\n      mstore\n      0x20\n      add\n      0x00\n      keccak256\n        /* \"contracts/work/customer.sol\":7282:7318  customer_map[_customer_address].time */\n      0x03\n      add\n      0x00\n        /* \"contracts/work/customer.sol\":7282:7335  customer_map[_customer_address].time += _time * 86400 */\n      dup3\n      dup3\n      sload\n      tag_136\n      swap2\n      swap1\n      tag_126\n      jump\t// in\n    tag_136:\n      swap3\n      pop\n      pop\n      dup2\n      swap1\n      sstore\n      pop\n        /* \"contracts/work/customer.sol\":7021:7343  function increase_staking_time(address _customer_address, uint _time) onlyOwner public {     //將未入帳質押日期延後(以天為單位)... */\n      pop\n      pop\n      jump\t// out\n        /* \"contracts/work/customer.sol\":5821:6019  function change_staking_add_value(address _customer_address, uint _value) onlyOwner public{... */\n    tag_37:\n        /* \"contracts/work/customer.sol\":917:927  msg.sender */\n      caller\n        /* \"contracts/work/customer.sol\":908:927  owner == msg.sender */\n      0xffffffffffffffffffffffffffffffffffffffff\n      and\n        /* \"contracts/work/customer.sol\":908:913  owner */\n      0x00\n      dup1\n      sload\n      swap1\n      0x0100\n      exp\n      swap1\n      div\n      0xffffffffffffffffffffffffffffffffffffffff\n      and\n        /* \"contracts/work/customer.sol\":908:927  owner == msg.sender */\n      0xffffffffffffffffffffffffffffffffffffffff\n      and\n      eq\n        /* \"contracts/work/customer.sol\":900:965  require(owner == msg.sender,\"This address is not contract Owner\") */\n      tag_138\n      jumpi\n      mload(0x40)\n      0x08c379a000000000000000000000000000000000000000000000000000000000\n      dup2\n      mstore\n      0x04\n      add\n      tag_139\n      swap1\n      tag_117\n      jump\t// in\n    tag_139:\n      mload(0x40)\n      dup1\n      swap2\n      sub\n      swap1\n      revert\n    tag_138:\n        /* \"contracts/work/customer.sol\":5966:5972  _value */\n      dup1\n        /* \"contracts/work/customer.sol\":5922:5934  customer_map */\n      0x07\n        /* \"contracts/work/customer.sol\":5922:5953  customer_map[_customer_address] */\n      0x00\n        /* \"contracts/work/customer.sol\":5935:5952  _customer_address */\n      dup5\n        /* \"contracts/work/customer.sol\":5922:5953  customer_map[_customer_address] */\n      0xffffffffffffffffffffffffffffffffffffffff\n      and\n      0xffffffffffffffffffffffffffffffffffffffff\n      and\n      dup2\n      mstore\n      0x20\n      add\n      swap1\n      dup2\n      mstore\n      0x20\n      add\n      0x00\n      keccak256\n        /* \"contracts/work/customer.sol\":5922:5963  customer_map[_customer_address].add_value */\n      0x02\n      add\n        /* \"contracts/work/customer.sol\":5922:5972  customer_map[_customer_address].add_value = _value */\n      dup2\n      swap1\n      sstore\n      pop\n        /* \"contracts/work/customer.sol\":5821:6019  function change_staking_add_value(address _customer_address, uint _value) onlyOwner public{... */\n      pop\n      pop\n      jump\t// out\n        /* \"contracts/work/customer.sol\":9472:10969  function give_all_reward() onlyOwner payable public{            //按照比例分配獎勵給全部客戶... */\n    tag_39:\n        /* \"contracts/work/customer.sol\":917:927  msg.sender */\n      caller\n        /* \"contracts/work/customer.sol\":908:927  owner == msg.sender */\n      0xffffffffffffffffffffffffffffffffffffffff\n      and\n        /* \"contracts/work/customer.sol\":908:913  owner */\n      0x00\n      dup1\n      sload\n      swap1\n      0x0100\n      exp\n      swap1\n      div\n      0xffffffffffffffffffffffffffffffffffffffff\n      and\n        /* \"contracts/work/customer.sol\":908:927  owner == msg.sender */\n      0xffffffffffffffffffffffffffffffffffffffff\n      and\n      eq\n        /* \"contracts/work/customer.sol\":900:965  require(owner == msg.sender,\"This address is not contract Owner\") */\n      tag_142\n      jumpi\n      mload(0x40)\n      0x08c379a000000000000000000000000000000000000000000000000000000000\n      dup2\n      mstore\n      0x04\n      add\n      tag_143\n      swap1\n      tag_117\n      jump\t// in\n    tag_143:\n      mload(0x40)\n      dup1\n      swap2\n      sub\n      swap1\n      revert\n    tag_142:\n        /* \"contracts/work/customer.sol\":9607:9608  0 */\n      0x00\n        /* \"contracts/work/customer.sol\":9595:9604  msg.value */\n      callvalue\n        /* \"contracts/work/customer.sol\":9595:9608  msg.value > 0 */\n      gt\n        /* \"contracts/work/customer.sol\":9587:9630  require(msg.value > 0,\"You don't give ETH\") */\n      tag_145\n      jumpi\n      mload(0x40)\n      0x08c379a000000000000000000000000000000000000000000000000000000000\n      dup2\n      mstore\n      0x04\n      add\n      tag_146\n      swap1\n      tag_147\n      jump\t// in\n    tag_146:\n      mload(0x40)\n      dup1\n      swap2\n      sub\n      swap1\n      revert\n    tag_145:\n        /* \"contracts/work/customer.sol\":9641:9664  uint all_stakling_value */\n      0x00\n        /* \"contracts/work/customer.sol\":9667:9691  get_allcustomer_reward() */\n      tag_148\n        /* \"contracts/work/customer.sol\":9667:9689  get_allcustomer_reward */\n      tag_79\n        /* \"contracts/work/customer.sol\":9667:9691  get_allcustomer_reward() */\n      jump\t// in\n    tag_148:\n        /* \"contracts/work/customer.sol\":9641:9691  uint all_stakling_value = get_allcustomer_reward() */\n      swap1\n      pop\n        /* \"contracts/work/customer.sol\":9707:9713  uint i */\n      0x00\n        /* \"contracts/work/customer.sol\":9702:10873  for (uint i = 0 ; i < amount ; i++){... */\n    tag_149:\n        /* \"contracts/work/customer.sol\":9724:9730  amount */\n      sload(0x04)\n        /* \"contracts/work/customer.sol\":9720:9721  i */\n      dup2\n        /* \"contracts/work/customer.sol\":9720:9730  i < amount */\n      lt\n        /* \"contracts/work/customer.sol\":9702:10873  for (uint i = 0 ; i < amount ; i++){... */\n      iszero\n      tag_150\n      jumpi\n        /* \"contracts/work/customer.sol\":9752:9763  uint reward */\n      0x00\n        /* \"contracts/work/customer.sol\":9819:9820  0 */\n      dup1\n        /* \"contracts/work/customer.sol\":9785:9797  customer_map */\n      0x07\n        /* \"contracts/work/customer.sol\":9785:9809  customer_map[account[i]] */\n      0x00\n        /* \"contracts/work/customer.sol\":9798:9805  account */\n      0x06\n        /* \"contracts/work/customer.sol\":9806:9807  i */\n      dup6\n        /* \"contracts/work/customer.sol\":9798:9808  account[i] */\n      dup2\n      sload\n      dup2\n      lt\n      tag_152\n      jumpi\n      tag_153\n      tag_154\n      jump\t// in\n    tag_153:\n    tag_152:\n      swap1\n      0x00\n      mstore\n      keccak256(0x00, 0x20)\n      add\n      0x00\n      swap1\n      sload\n      swap1\n      0x0100\n      exp\n      swap1\n      div\n      0xffffffffffffffffffffffffffffffffffffffff\n      and\n        /* \"contracts/work/customer.sol\":9785:9809  customer_map[account[i]] */\n      0xffffffffffffffffffffffffffffffffffffffff\n      and\n      0xffffffffffffffffffffffffffffffffffffffff\n      and\n      dup2\n      mstore\n      0x20\n      add\n      swap1\n      dup2\n      mstore\n      0x20\n      add\n      0x00\n      keccak256\n        /* \"contracts/work/customer.sol\":9785:9815  customer_map[account[i]].value */\n      0x01\n      add\n      sload\n        /* \"contracts/work/customer.sol\":9785:9820  customer_map[account[i]].value != 0 */\n      eq\n      iszero\n        /* \"contracts/work/customer.sol\":9785:9868  customer_map[account[i]].value != 0 && reward_time >= customer_map[account[i]].time */\n      dup1\n      iszero\n      tag_156\n      jumpi\n      pop\n        /* \"contracts/work/customer.sol\":9839:9851  customer_map */\n      0x07\n        /* \"contracts/work/customer.sol\":9839:9863  customer_map[account[i]] */\n      0x00\n        /* \"contracts/work/customer.sol\":9852:9859  account */\n      0x06\n        /* \"contracts/work/customer.sol\":9860:9861  i */\n      dup5\n        /* \"contracts/work/customer.sol\":9852:9862  account[i] */\n      dup2\n      sload\n      dup2\n      lt\n      tag_157\n      jumpi\n      tag_158\n      tag_154\n      jump\t// in\n    tag_158:\n    tag_157:\n      swap1\n      0x00\n      mstore\n      keccak256(0x00, 0x20)\n      add\n      0x00\n      swap1\n      sload\n      swap1\n      0x0100\n      exp\n      swap1\n      div\n      0xffffffffffffffffffffffffffffffffffffffff\n      and\n        /* \"contracts/work/customer.sol\":9839:9863  customer_map[account[i]] */\n      0xffffffffffffffffffffffffffffffffffffffff\n      and\n      0xffffffffffffffffffffffffffffffffffffffff\n      and\n      dup2\n      mstore\n      0x20\n      add\n      swap1\n      dup2\n      mstore\n      0x20\n      add\n      0x00\n      keccak256\n        /* \"contracts/work/customer.sol\":9839:9868  customer_map[account[i]].time */\n      0x03\n      add\n      sload\n        /* \"contracts/work/customer.sol\":9824:9835  reward_time */\n      sload(0x05)\n        /* \"contracts/work/customer.sol\":9824:9868  reward_time >= customer_map[account[i]].time */\n      lt\n      iszero\n        /* \"contracts/work/customer.sol\":9785:9868  customer_map[account[i]].value != 0 && reward_time >= customer_map[account[i]].time */\n    tag_156:\n        /* \"contracts/work/customer.sol\":9782:10020  if(customer_map[account[i]].value != 0 && reward_time >= customer_map[account[i]].time){      //條件要滿足有質押金額且質押時間為上次發放獎勵前... */\n      iszero\n      tag_160\n      jumpi\n        /* \"contracts/work/customer.sol\":9974:9986  customer_map */\n      0x07\n        /* \"contracts/work/customer.sol\":9974:9998  customer_map[account[i]] */\n      0x00\n        /* \"contracts/work/customer.sol\":9987:9994  account */\n      0x06\n        /* \"contracts/work/customer.sol\":9995:9996  i */\n      dup5\n        /* \"contracts/work/customer.sol\":9987:9997  account[i] */\n      dup2\n      sload\n      dup2\n      lt\n      tag_161\n      jumpi\n      tag_162\n      tag_154\n      jump\t// in\n    tag_162:\n    tag_161:\n      swap1\n      0x00\n      mstore\n      keccak256(0x00, 0x20)\n      add\n      0x00\n      swap1\n      sload\n      swap1\n      0x0100\n      exp\n      swap1\n      div\n      0xffffffffffffffffffffffffffffffffffffffff\n      and\n        /* \"contracts/work/customer.sol\":9974:9998  customer_map[account[i]] */\n      0xffffffffffffffffffffffffffffffffffffffff\n      and\n      0xffffffffffffffffffffffffffffffffffffffff\n      and\n      dup2\n      mstore\n      0x20\n      add\n      swap1\n      dup2\n      mstore\n      0x20\n      add\n      0x00\n      keccak256\n        /* \"contracts/work/customer.sol\":9974:10004  customer_map[account[i]].value */\n      0x01\n      add\n      sload\n        /* \"contracts/work/customer.sol\":9965:10004  reward = customer_map[account[i]].value */\n      swap1\n      pop\n        /* \"contracts/work/customer.sol\":9782:10020  if(customer_map[account[i]].value != 0 && reward_time >= customer_map[account[i]].time){      //條件要滿足有質押金額且質押時間為上次發放獎勵前... */\n    tag_160:\n        /* \"contracts/work/customer.sol\":10075:10076  0 */\n      0x00\n        /* \"contracts/work/customer.sol\":10037:10049  customer_map */\n      0x07\n        /* \"contracts/work/customer.sol\":10037:10061  customer_map[account[i]] */\n      0x00\n        /* \"contracts/work/customer.sol\":10050:10057  account */\n      0x06\n        /* \"contracts/work/customer.sol\":10058:10059  i */\n      dup6\n        /* \"contracts/work/customer.sol\":10050:10060  account[i] */\n      dup2\n      sload\n      dup2\n      lt\n      tag_164\n      jumpi\n      tag_165\n      tag_154\n      jump\t// in\n    tag_165:\n    tag_164:\n      swap1\n      0x00\n      mstore\n      keccak256(0x00, 0x20)\n      add\n      0x00\n      swap1\n      sload\n      swap1\n      0x0100\n      exp\n      swap1\n      div\n      0xffffffffffffffffffffffffffffffffffffffff\n      and\n        /* \"contracts/work/customer.sol\":10037:10061  customer_map[account[i]] */\n      0xffffffffffffffffffffffffffffffffffffffff\n      and\n      0xffffffffffffffffffffffffffffffffffffffff\n      and\n      dup2\n      mstore\n      0x20\n      add\n      swap1\n      dup2\n      mstore\n      0x20\n      add\n      0x00\n      keccak256\n        /* \"contracts/work/customer.sol\":10037:10071  customer_map[account[i]].add_value */\n      0x02\n      add\n      sload\n        /* \"contracts/work/customer.sol\":10037:10076  customer_map[account[i]].add_value != 0 */\n      eq\n        /* \"contracts/work/customer.sol\":10034:10421  if(customer_map[account[i]].add_value != 0){      //要有新增的質押金額才執行... */\n      tag_167\n      jumpi\n        /* \"contracts/work/customer.sol\":10174:10186  customer_map */\n      0x07\n        /* \"contracts/work/customer.sol\":10174:10198  customer_map[account[i]] */\n      0x00\n        /* \"contracts/work/customer.sol\":10187:10194  account */\n      0x06\n        /* \"contracts/work/customer.sol\":10195:10196  i */\n      dup5\n        /* \"contracts/work/customer.sol\":10187:10197  account[i] */\n      dup2\n      sload\n      dup2\n      lt\n      tag_168\n      jumpi\n      tag_169\n      tag_154\n      jump\t// in\n    tag_169:\n    tag_168:\n      swap1\n      0x00\n      mstore\n      keccak256(0x00, 0x20)\n      add\n      0x00\n      swap1\n      sload\n      swap1\n      0x0100\n      exp\n      swap1\n      div\n      0xffffffffffffffffffffffffffffffffffffffff\n      and\n        /* \"contracts/work/customer.sol\":10174:10198  customer_map[account[i]] */\n      0xffffffffffffffffffffffffffffffffffffffff\n      and\n      0xffffffffffffffffffffffffffffffffffffffff\n      and\n      dup2\n      mstore\n      0x20\n      add\n      swap1\n      dup2\n      mstore\n      0x20\n      add\n      0x00\n      keccak256\n        /* \"contracts/work/customer.sol\":10174:10208  customer_map[account[i]].add_value */\n      0x02\n      add\n      sload\n        /* \"contracts/work/customer.sol\":10140:10152  customer_map */\n      0x07\n        /* \"contracts/work/customer.sol\":10140:10164  customer_map[account[i]] */\n      0x00\n        /* \"contracts/work/customer.sol\":10153:10160  account */\n      0x06\n        /* \"contracts/work/customer.sol\":10161:10162  i */\n      dup6\n        /* \"contracts/work/customer.sol\":10153:10163  account[i] */\n      dup2\n      sload\n      dup2\n      lt\n      tag_171\n      jumpi\n      tag_172\n      tag_154\n      jump\t// in\n    tag_172:\n    tag_171:\n      swap1\n      0x00\n      mstore\n      keccak256(0x00, 0x20)\n      add\n      0x00\n      swap1\n      sload\n      swap1\n      0x0100\n      exp\n      swap1\n      div\n      0xffffffffffffffffffffffffffffffffffffffff\n      and\n        /* \"contracts/work/customer.sol\":10140:10164  customer_map[account[i]] */\n      0xffffffffffffffffffffffffffffffffffffffff\n      and\n      0xffffffffffffffffffffffffffffffffffffffff\n      and\n      dup2\n      mstore\n      0x20\n      add\n      swap1\n      dup2\n      mstore\n      0x20\n      add\n      0x00\n      keccak256\n        /* \"contracts/work/customer.sol\":10140:10170  customer_map[account[i]].value */\n      0x01\n      add\n      0x00\n        /* \"contracts/work/customer.sol\":10140:10208  customer_map[account[i]].value += customer_map[account[i]].add_value */\n      dup3\n      dup3\n      sload\n      tag_174\n      swap2\n      swap1\n      tag_126\n      jump\t// in\n    tag_174:\n      swap3\n      pop\n      pop\n      dup2\n      swap1\n      sstore\n      pop\n        /* \"contracts/work/customer.sol\":10372:10373  0 */\n      0x00\n        /* \"contracts/work/customer.sol\":10335:10347  customer_map */\n      0x07\n        /* \"contracts/work/customer.sol\":10335:10359  customer_map[account[i]] */\n      0x00\n        /* \"contracts/work/customer.sol\":10348:10355  account */\n      0x06\n        /* \"contracts/work/customer.sol\":10356:10357  i */\n      dup6\n        /* \"contracts/work/customer.sol\":10348:10358  account[i] */\n      dup2\n      sload\n      dup2\n      lt\n      tag_175\n      jumpi\n      tag_176\n      tag_154\n      jump\t// in\n    tag_176:\n    tag_175:\n      swap1\n      0x00\n      mstore\n      keccak256(0x00, 0x20)\n      add\n      0x00\n      swap1\n      sload\n      swap1\n      0x0100\n      exp\n      swap1\n      div\n      0xffffffffffffffffffffffffffffffffffffffff\n      and\n        /* \"contracts/work/customer.sol\":10335:10359  customer_map[account[i]] */\n      0xffffffffffffffffffffffffffffffffffffffff\n      and\n      0xffffffffffffffffffffffffffffffffffffffff\n      and\n      dup2\n      mstore\n      0x20\n      add\n      swap1\n      dup2\n      mstore\n      0x20\n      add\n      0x00\n      keccak256\n        /* \"contracts/work/customer.sol\":10335:10369  customer_map[account[i]].add_value */\n      0x02\n      add\n        /* \"contracts/work/customer.sol\":10335:10373  customer_map[account[i]].add_value = 0 */\n      dup2\n      swap1\n      sstore\n      pop\n        /* \"contracts/work/customer.sol\":10034:10421  if(customer_map[account[i]].add_value != 0){      //要有新增的質押金額才執行... */\n    tag_167:\n        /* \"contracts/work/customer.sol\":10448:10449  0 */\n      0x00\n        /* \"contracts/work/customer.sol\":10438:10444  reward */\n      dup2\n        /* \"contracts/work/customer.sol\":10438:10449  reward == 0 */\n      sub\n        /* \"contracts/work/customer.sol\":10435:10494  if(reward == 0){... */\n      tag_178\n      jumpi\n        /* \"contracts/work/customer.sol\":10469:10477  continue */\n      pop\n      jump(tag_151)\n        /* \"contracts/work/customer.sol\":10435:10494  if(reward == 0){... */\n    tag_178:\n        /* \"contracts/work/customer.sol\":10508:10524  uint give_reward */\n      0x00\n        /* \"contracts/work/customer.sol\":10548:10566  all_stakling_value */\n      dup4\n        /* \"contracts/work/customer.sol\":10536:10545  msg.value */\n      callvalue\n        /* \"contracts/work/customer.sol\":10527:10533  reward */\n      dup4\n        /* \"contracts/work/customer.sol\":10527:10545  reward * msg.value */\n      tag_179\n      swap2\n      swap1\n      tag_135\n      jump\t// in\n    tag_179:\n        /* \"contracts/work/customer.sol\":10527:10566  reward * msg.value / all_stakling_value */\n      tag_180\n      swap2\n      swap1\n      tag_181\n      jump\t// in\n    tag_180:\n        /* \"contracts/work/customer.sol\":10508:10566  uint give_reward = reward * msg.value / all_stakling_value */\n      swap1\n      pop\n        /* \"contracts/work/customer.sol\":10581:10605  address payable _address */\n      0x00\n        /* \"contracts/work/customer.sol\":10616:10628  customer_map */\n      0x07\n        /* \"contracts/work/customer.sol\":10616:10640  customer_map[account[i]] */\n      0x00\n        /* \"contracts/work/customer.sol\":10629:10636  account */\n      0x06\n        /* \"contracts/work/customer.sol\":10637:10638  i */\n      dup7\n        /* \"contracts/work/customer.sol\":10629:10639  account[i] */\n      dup2\n      sload\n      dup2\n      lt\n      tag_182\n      jumpi\n      tag_183\n      tag_154\n      jump\t// in\n    tag_183:\n    tag_182:\n      swap1\n      0x00\n      mstore\n      keccak256(0x00, 0x20)\n      add\n      0x00\n      swap1\n      sload\n      swap1\n      0x0100\n      exp\n      swap1\n      div\n      0xffffffffffffffffffffffffffffffffffffffff\n      and\n        /* \"contracts/work/customer.sol\":10616:10640  customer_map[account[i]] */\n      0xffffffffffffffffffffffffffffffffffffffff\n      and\n      0xffffffffffffffffffffffffffffffffffffffff\n      and\n      dup2\n      mstore\n      0x20\n      add\n      swap1\n      dup2\n      mstore\n      0x20\n      add\n      0x00\n      keccak256\n        /* \"contracts/work/customer.sol\":10616:10657  customer_map[account[i]].customer_address */\n      0x00\n      add\n      0x00\n      swap1\n      sload\n      swap1\n      0x0100\n      exp\n      swap1\n      div\n      0xffffffffffffffffffffffffffffffffffffffff\n      and\n        /* \"contracts/work/customer.sol\":10581:10658  address payable _address = payable(customer_map[account[i]].customer_address) */\n      swap1\n      pop\n        /* \"contracts/work/customer.sol\":10728:10736  _address */\n      dup1\n        /* \"contracts/work/customer.sol\":10728:10745  _address.transfer */\n      0xffffffffffffffffffffffffffffffffffffffff\n      and\n        /* \"contracts/work/customer.sol\":10728:10758  _address.transfer(give_reward) */\n      0x08fc\n        /* \"contracts/work/customer.sol\":10746:10757  give_reward */\n      dup4\n        /* \"contracts/work/customer.sol\":10728:10758  _address.transfer(give_reward) */\n      swap1\n      dup2\n      iszero\n      mul\n      swap1\n      mload(0x40)\n      0x00\n      mload(0x40)\n      dup1\n      dup4\n      sub\n      dup2\n      dup6\n      dup9\n      dup9\n      call\n      swap4\n      pop\n      pop\n      pop\n      pop\n      iszero\n      dup1\n      iszero\n      tag_186\n      jumpi\n      returndatasize\n      0x00\n      dup1\n      returndatacopy\n      revert(0x00, returndatasize)\n    tag_186:\n      pop\n        /* \"contracts/work/customer.sol\":10778:10820  Give_Reward(_address, give_reward, reward) */\n      0xd8e54f1dc02cc5a9165e48bb0c19d3dc0d14902829bc2c791083d3180150f1de\n        /* \"contracts/work/customer.sol\":10790:10798  _address */\n      dup2\n        /* \"contracts/work/customer.sol\":10800:10811  give_reward */\n      dup4\n        /* \"contracts/work/customer.sol\":10813:10819  reward */\n      dup6\n        /* \"contracts/work/customer.sol\":10778:10820  Give_Reward(_address, give_reward, reward) */\n      mload(0x40)\n      tag_187\n      swap4\n      swap3\n      swap2\n      swap1\n      tag_188\n      jump\t// in\n    tag_187:\n      mload(0x40)\n      dup1\n      swap2\n      sub\n      swap1\n      log1\n        /* \"contracts/work/customer.sol\":9737:10873  {... */\n      pop\n      pop\n      pop\n        /* \"contracts/work/customer.sol\":9702:10873  for (uint i = 0 ; i < amount ; i++){... */\n    tag_151:\n        /* \"contracts/work/customer.sol\":9733:9736  i++ */\n      dup1\n      dup1\n      0x01\n      add\n      swap2\n      pop\n      pop\n        /* \"contracts/work/customer.sol\":9702:10873  for (uint i = 0 ; i < amount ; i++){... */\n      jump(tag_149)\n    tag_150:\n      pop\n        /* \"contracts/work/customer.sol\":10897:10912  block.timestamp */\n      timestamp\n        /* \"contracts/work/customer.sol\":10883:10894  reward_time */\n      0x05\n        /* \"contracts/work/customer.sol\":10883:10912  reward_time = block.timestamp */\n      dup2\n      swap1\n      sstore\n      pop\n        /* \"contracts/work/customer.sol\":9523:10969  {            //按照比例分配獎勵給全部客戶... */\n      pop\n        /* \"contracts/work/customer.sol\":9472:10969  function give_all_reward() onlyOwner payable public{            //按照比例分配獎勵給全部客戶... */\n      jump\t// out\n        /* \"contracts/work/customer.sol\":1220:1345  function change_owner(address _address) onlyOwner public{           //更改合約擁有人... */\n    tag_44:\n        /* \"contracts/work/customer.sol\":917:927  msg.sender */\n      caller\n        /* \"contracts/work/customer.sol\":908:927  owner == msg.sender */\n      0xffffffffffffffffffffffffffffffffffffffff\n      and\n        /* \"contracts/work/customer.sol\":908:913  owner */\n      0x00\n      dup1\n      sload\n      swap1\n      0x0100\n      exp\n      swap1\n      div\n      0xffffffffffffffffffffffffffffffffffffffff\n      and\n        /* \"contracts/work/customer.sol\":908:927  owner == msg.sender */\n      0xffffffffffffffffffffffffffffffffffffffff\n      and\n      eq\n        /* \"contracts/work/customer.sol\":900:965  require(owner == msg.sender,\"This address is not contract Owner\") */\n      tag_190\n      jumpi\n      mload(0x40)\n      0x08c379a000000000000000000000000000000000000000000000000000000000\n      dup2\n      mstore\n      0x04\n      add\n      tag_191\n      swap1\n      tag_117\n      jump\t// in\n    tag_191:\n      mload(0x40)\n      dup1\n      swap2\n      sub\n      swap1\n      revert\n    tag_190:\n        /* \"contracts/work/customer.sol\":1329:1337  _address */\n      dup1\n        /* \"contracts/work/customer.sol\":1321:1326  owner */\n      0x00\n      dup1\n        /* \"contracts/work/customer.sol\":1321:1337  owner = _address */\n      0x0100\n      exp\n      dup2\n      sload\n      dup2\n      0xffffffffffffffffffffffffffffffffffffffff\n      mul\n      not\n      and\n      swap1\n      dup4\n      0xffffffffffffffffffffffffffffffffffffffff\n      and\n      mul\n      or\n      swap1\n      sstore\n      pop\n        /* \"contracts/work/customer.sol\":1220:1345  function change_owner(address _address) onlyOwner public{           //更改合約擁有人... */\n      pop\n      jump\t// out\n        /* \"contracts/work/customer.sol\":4512:5282  function change_customer_data(address _customer_address , uint _value, uint _add_value, uint _time, uint _newtime) onlyOwner public{       //更改客戶資訊 建議可用hash替換位址... */\n    tag_49:\n        /* \"contracts/work/customer.sol\":917:927  msg.sender */\n      caller\n        /* \"contracts/work/customer.sol\":908:927  owner == msg.sender */\n      0xffffffffffffffffffffffffffffffffffffffff\n      and\n        /* \"contracts/work/customer.sol\":908:913  owner */\n      0x00\n      dup1\n      sload\n      swap1\n      0x0100\n      exp\n      swap1\n      div\n      0xffffffffffffffffffffffffffffffffffffffff\n      and\n        /* \"contracts/work/customer.sol\":908:927  owner == msg.sender */\n      0xffffffffffffffffffffffffffffffffffffffff\n      and\n      eq\n        /* \"contracts/work/customer.sol\":900:965  require(owner == msg.sender,\"This address is not contract Owner\") */\n      tag_194\n      jumpi\n      mload(0x40)\n      0x08c379a000000000000000000000000000000000000000000000000000000000\n      dup2\n      mstore\n      0x04\n      add\n      tag_195\n      swap1\n      tag_117\n      jump\t// in\n    tag_195:\n      mload(0x40)\n      dup1\n      swap2\n      sub\n      swap1\n      revert\n    tag_194:\n        /* \"contracts/work/customer.sol\":4778:4779  0 */\n      0x00\n        /* \"contracts/work/customer.sol\":4718:4780  customer_map[_customer_address].customer_address != address(0) */\n      0xffffffffffffffffffffffffffffffffffffffff\n      and\n        /* \"contracts/work/customer.sol\":4718:4730  customer_map */\n      0x07\n        /* \"contracts/work/customer.sol\":4718:4749  customer_map[_customer_address] */\n      0x00\n        /* \"contracts/work/customer.sol\":4731:4748  _customer_address */\n      dup8\n        /* \"contracts/work/customer.sol\":4718:4749  customer_map[_customer_address] */\n      0xffffffffffffffffffffffffffffffffffffffff\n      and\n      0xffffffffffffffffffffffffffffffffffffffff\n      and\n      dup2\n      mstore\n      0x20\n      add\n      swap1\n      dup2\n      mstore\n      0x20\n      add\n      0x00\n      keccak256\n        /* \"contracts/work/customer.sol\":4718:4766  customer_map[_customer_address].customer_address */\n      0x00\n      add\n      0x00\n      swap1\n      sload\n      swap1\n      0x0100\n      exp\n      swap1\n      div\n      0xffffffffffffffffffffffffffffffffffffffff\n      and\n        /* \"contracts/work/customer.sol\":4718:4780  customer_map[_customer_address].customer_address != address(0) */\n      0xffffffffffffffffffffffffffffffffffffffff\n      and\n      sub\n        /* \"contracts/work/customer.sol\":4710:4808  require(customer_map[_customer_address].customer_address != address(0),\"This account isn't exist\") */\n      tag_197\n      jumpi\n      mload(0x40)\n      0x08c379a000000000000000000000000000000000000000000000000000000000\n      dup2\n      mstore\n      0x04\n      add\n      tag_198\n      swap1\n      tag_133\n      jump\t// in\n    tag_198:\n      mload(0x40)\n      dup1\n      swap2\n      sub\n      swap1\n      revert\n    tag_197:\n        /* \"contracts/work/customer.sol\":4819:4850  Customer memory change_customer */\n      0x00\n        /* \"contracts/work/customer.sol\":4853:5077  Customer({... */\n      mload(0x40)\n      dup1\n      0xc0\n      add\n      0x40\n      mstore\n      dup1\n        /* \"contracts/work/customer.sol\":4896:4913  _customer_address */\n      dup8\n        /* \"contracts/work/customer.sol\":4853:5077  Customer({... */\n      0xffffffffffffffffffffffffffffffffffffffff\n      and\n      dup2\n      mstore\n      0x20\n      add\n        /* \"contracts/work/customer.sol\":4936:4942  _value */\n      dup7\n        /* \"contracts/work/customer.sol\":4853:5077  Customer({... */\n      dup2\n      mstore\n      0x20\n      add\n        /* \"contracts/work/customer.sol\":4969:4979  _add_value */\n      dup6\n        /* \"contracts/work/customer.sol\":4853:5077  Customer({... */\n      dup2\n      mstore\n      0x20\n      add\n        /* \"contracts/work/customer.sol\":5001:5006  _time */\n      dup5\n        /* \"contracts/work/customer.sol\":4853:5077  Customer({... */\n      dup2\n      mstore\n      0x20\n      add\n        /* \"contracts/work/customer.sol\":5031:5039  _newtime */\n      dup4\n        /* \"contracts/work/customer.sol\":4853:5077  Customer({... */\n      dup2\n      mstore\n      0x20\n      add\n        /* \"contracts/work/customer.sol\":5059:5065  amount */\n      sload(0x04)\n        /* \"contracts/work/customer.sol\":4853:5077  Customer({... */\n      dup2\n      mstore\n      pop\n        /* \"contracts/work/customer.sol\":4819:5077  Customer memory change_customer = Customer({... */\n      swap1\n      pop\n        /* \"contracts/work/customer.sol\":5122:5137  change_customer */\n      dup1\n        /* \"contracts/work/customer.sol\":5088:5100  customer_map */\n      0x07\n        /* \"contracts/work/customer.sol\":5088:5119  customer_map[_customer_address] */\n      0x00\n        /* \"contracts/work/customer.sol\":5101:5118  _customer_address */\n      dup9\n        /* \"contracts/work/customer.sol\":5088:5119  customer_map[_customer_address] */\n      0xffffffffffffffffffffffffffffffffffffffff\n      and\n      0xffffffffffffffffffffffffffffffffffffffff\n      and\n      dup2\n      mstore\n      0x20\n      add\n      swap1\n      dup2\n      mstore\n      0x20\n      add\n      0x00\n      keccak256\n        /* \"contracts/work/customer.sol\":5088:5137  customer_map[_customer_address] = change_customer */\n      0x00\n      dup3\n      add\n      mload\n      dup2\n      0x00\n      add\n      exp(0x0100, 0x00)\n      dup2\n      sload\n      dup2\n      0xffffffffffffffffffffffffffffffffffffffff\n      mul\n      not\n      and\n      swap1\n      dup4\n      0xffffffffffffffffffffffffffffffffffffffff\n      and\n      mul\n      or\n      swap1\n      sstore\n      pop\n      0x20\n      dup3\n      add\n      mload\n      dup2\n      0x01\n      add\n      sstore\n      0x40\n      dup3\n      add\n      mload\n      dup2\n      0x02\n      add\n      sstore\n      0x60\n      dup3\n      add\n      mload\n      dup2\n      0x03\n      add\n      sstore\n      0x80\n      dup3\n      add\n      mload\n      dup2\n      0x04\n      add\n      sstore\n      0xa0\n      dup3\n      add\n      mload\n      dup2\n      0x05\n      add\n      sstore\n      swap1\n      pop\n      pop\n        /* \"contracts/work/customer.sol\":5226:5243  _customer_address */\n      dup6\n        /* \"contracts/work/customer.sol\":5180:5187  account */\n      0x06\n        /* \"contracts/work/customer.sol\":5188:5200  customer_map */\n      0x07\n        /* \"contracts/work/customer.sol\":5188:5219  customer_map[_customer_address] */\n      0x00\n        /* \"contracts/work/customer.sol\":5201:5218  _customer_address */\n      dup10\n        /* \"contracts/work/customer.sol\":5188:5219  customer_map[_customer_address] */\n      0xffffffffffffffffffffffffffffffffffffffff\n      and\n      0xffffffffffffffffffffffffffffffffffffffff\n      and\n      dup2\n      mstore\n      0x20\n      add\n      swap1\n      dup2\n      mstore\n      0x20\n      add\n      0x00\n      keccak256\n        /* \"contracts/work/customer.sol\":5188:5222  customer_map[_customer_address].id */\n      0x05\n      add\n      sload\n        /* \"contracts/work/customer.sol\":5180:5223  account[customer_map[_customer_address].id] */\n      dup2\n      sload\n      dup2\n      lt\n      tag_199\n      jumpi\n      tag_200\n      tag_154\n      jump\t// in\n    tag_200:\n    tag_199:\n      swap1\n      0x00\n      mstore\n      keccak256(0x00, 0x20)\n      add\n      0x00\n        /* \"contracts/work/customer.sol\":5180:5243  account[customer_map[_customer_address].id] = _customer_address */\n      0x0100\n      exp\n      dup2\n      sload\n      dup2\n      0xffffffffffffffffffffffffffffffffffffffff\n      mul\n      not\n      and\n      swap1\n      dup4\n      0xffffffffffffffffffffffffffffffffffffffff\n      and\n      mul\n      or\n      swap1\n      sstore\n      pop\n        /* \"contracts/work/customer.sol\":4643:5282  {       //更改客戶資訊 建議可用hash替換位址... */\n      pop\n        /* \"contracts/work/customer.sol\":4512:5282  function change_customer_data(address _customer_address , uint _value, uint _add_value, uint _time, uint _newtime) onlyOwner public{       //更改客戶資訊 建議可用hash替換位址... */\n      pop\n      pop\n      pop\n      pop\n      pop\n      jump\t// out\n        /* \"contracts/work/customer.sol\":7679:7908  function get_customer_data(address _address) view public returns(Customer memory){... */\n    tag_53:\n        /* \"contracts/work/customer.sol\":7744:7759  Customer memory */\n      tag_202\n      tag_203\n      jump\t// in\n    tag_202:\n        /* \"contracts/work/customer.sol\":7830:7831  0 */\n      0x00\n        /* \"contracts/work/customer.sol\":7779:7832  customer_map[_address].customer_address != address(0) */\n      0xffffffffffffffffffffffffffffffffffffffff\n      and\n        /* \"contracts/work/customer.sol\":7779:7791  customer_map */\n      0x07\n        /* \"contracts/work/customer.sol\":7779:7801  customer_map[_address] */\n      0x00\n        /* \"contracts/work/customer.sol\":7792:7800  _address */\n      dup5\n        /* \"contracts/work/customer.sol\":7779:7801  customer_map[_address] */\n      0xffffffffffffffffffffffffffffffffffffffff\n      and\n      0xffffffffffffffffffffffffffffffffffffffff\n      and\n      dup2\n      mstore\n      0x20\n      add\n      swap1\n      dup2\n      mstore\n      0x20\n      add\n      0x00\n      keccak256\n        /* \"contracts/work/customer.sol\":7779:7818  customer_map[_address].customer_address */\n      0x00\n      add\n      0x00\n      swap1\n      sload\n      swap1\n      0x0100\n      exp\n      swap1\n      div\n      0xffffffffffffffffffffffffffffffffffffffff\n      and\n        /* \"contracts/work/customer.sol\":7779:7832  customer_map[_address].customer_address != address(0) */\n      0xffffffffffffffffffffffffffffffffffffffff\n      and\n      sub\n        /* \"contracts/work/customer.sol\":7771:7860  require(customer_map[_address].customer_address != address(0),\"This account isn't exist\") */\n      tag_205\n      jumpi\n      mload(0x40)\n      0x08c379a000000000000000000000000000000000000000000000000000000000\n      dup2\n      mstore\n      0x04\n      add\n      tag_206\n      swap1\n      tag_133\n      jump\t// in\n    tag_206:\n      mload(0x40)\n      dup1\n      swap2\n      sub\n      swap1\n      revert\n    tag_205:\n        /* \"contracts/work/customer.sol\":7878:7890  customer_map */\n      0x07\n        /* \"contracts/work/customer.sol\":7878:7900  customer_map[_address] */\n      0x00\n        /* \"contracts/work/customer.sol\":7891:7899  _address */\n      dup4\n        /* \"contracts/work/customer.sol\":7878:7900  customer_map[_address] */\n      0xffffffffffffffffffffffffffffffffffffffff\n      and\n      0xffffffffffffffffffffffffffffffffffffffff\n      and\n      dup2\n      mstore\n      0x20\n      add\n      swap1\n      dup2\n      mstore\n      0x20\n      add\n      0x00\n      keccak256\n        /* \"contracts/work/customer.sol\":7871:7900  return customer_map[_address] */\n      mload(0x40)\n      dup1\n      0xc0\n      add\n      0x40\n      mstore\n      swap1\n      dup2\n      0x00\n      dup3\n      add\n      0x00\n      swap1\n      sload\n      swap1\n      0x0100\n      exp\n      swap1\n      div\n      0xffffffffffffffffffffffffffffffffffffffff\n      and\n      0xffffffffffffffffffffffffffffffffffffffff\n      and\n      0xffffffffffffffffffffffffffffffffffffffff\n      and\n      dup2\n      mstore\n      0x20\n      add\n      0x01\n      dup3\n      add\n      sload\n      dup2\n      mstore\n      0x20\n      add\n      0x02\n      dup3\n      add\n      sload\n      dup2\n      mstore\n      0x20\n      add\n      0x03\n      dup3\n      add\n      sload\n      dup2\n      mstore\n      0x20\n      add\n      0x04\n      dup3\n      add\n      sload\n      dup2\n      mstore\n      0x20\n      add\n      0x05\n      dup3\n      add\n      sload\n      dup2\n      mstore\n      pop\n      pop\n      swap1\n      pop\n        /* \"contracts/work/customer.sol\":7679:7908  function get_customer_data(address _address) view public returns(Customer memory){... */\n      swap2\n      swap1\n      pop\n      jump\t// out\n        /* \"contracts/work/customer.sol\":10984:11108  function take_out_ETH(address payable _address) onlyOwner public {... */\n    tag_60:\n        /* \"contracts/work/customer.sol\":917:927  msg.sender */\n      caller\n        /* \"contracts/work/customer.sol\":908:927  owner == msg.sender */\n      0xffffffffffffffffffffffffffffffffffffffff\n      and\n        /* \"contracts/work/customer.sol\":908:913  owner */\n      0x00\n      dup1\n      sload\n      swap1\n      0x0100\n      exp\n      swap1\n      div\n      0xffffffffffffffffffffffffffffffffffffffff\n      and\n        /* \"contracts/work/customer.sol\":908:927  owner == msg.sender */\n      0xffffffffffffffffffffffffffffffffffffffff\n      and\n      eq\n        /* \"contracts/work/customer.sol\":900:965  require(owner == msg.sender,\"This address is not contract Owner\") */\n      tag_208\n      jumpi\n      mload(0x40)\n      0x08c379a000000000000000000000000000000000000000000000000000000000\n      dup2\n      mstore\n      0x04\n      add\n      tag_209\n      swap1\n      tag_117\n      jump\t// in\n    tag_209:\n      mload(0x40)\n      dup1\n      swap2\n      sub\n      swap1\n      revert\n    tag_208:\n        /* \"contracts/work/customer.sol\":11060:11068  _address */\n      dup1\n        /* \"contracts/work/customer.sol\":11060:11077  _address.transfer */\n      0xffffffffffffffffffffffffffffffffffffffff\n      and\n        /* \"contracts/work/customer.sol\":11060:11100  _address.transfer(address(this).balance) */\n      0x08fc\n        /* \"contracts/work/customer.sol\":11078:11099  address(this).balance */\n      selfbalance\n        /* \"contracts/work/customer.sol\":11060:11100  _address.transfer(address(this).balance) */\n      swap1\n      dup2\n      iszero\n      mul\n      swap1\n      mload(0x40)\n      0x00\n      mload(0x40)\n      dup1\n      dup4\n      sub\n      dup2\n      dup6\n      dup9\n      dup9\n      call\n      swap4\n      pop\n      pop\n      pop\n      pop\n      iszero\n      dup1\n      iszero\n      tag_212\n      jumpi\n      returndatasize\n      0x00\n      dup1\n      returndatacopy\n      revert(0x00, returndatasize)\n    tag_212:\n      pop\n        /* \"contracts/work/customer.sol\":10984:11108  function take_out_ETH(address payable _address) onlyOwner public {... */\n      pop\n      jump\t// out\n        /* \"contracts/work/customer.sol\":1353:1524  function add_manager(address _address) onlyManager public{... */\n    tag_64:\n        /* \"contracts/work/customer.sol\":1115:1116  0 */\n      0x00\n        /* \"contracts/work/customer.sol\":1064:1117  manager_map[msg.sender].manager_address != address(0) */\n      0xffffffffffffffffffffffffffffffffffffffff\n      and\n        /* \"contracts/work/customer.sol\":1064:1075  manager_map */\n      0x02\n        /* \"contracts/work/customer.sol\":1064:1087  manager_map[msg.sender] */\n      0x00\n        /* \"contracts/work/customer.sol\":1076:1086  msg.sender */\n      caller\n        /* \"contracts/work/customer.sol\":1064:1087  manager_map[msg.sender] */\n      0xffffffffffffffffffffffffffffffffffffffff\n      and\n      0xffffffffffffffffffffffffffffffffffffffff\n      and\n      dup2\n      mstore\n      0x20\n      add\n      swap1\n      dup2\n      mstore\n      0x20\n      add\n      0x00\n      keccak256\n        /* \"contracts/work/customer.sol\":1064:1103  manager_map[msg.sender].manager_address */\n      0x00\n      add\n      0x00\n      swap1\n      sload\n      swap1\n      0x0100\n      exp\n      swap1\n      div\n      0xffffffffffffffffffffffffffffffffffffffff\n      and\n        /* \"contracts/work/customer.sol\":1064:1117  manager_map[msg.sender].manager_address != address(0) */\n      0xffffffffffffffffffffffffffffffffffffffff\n      and\n      sub\n        /* \"contracts/work/customer.sol\":1056:1162  require(manager_map[msg.sender].manager_address != address(0),\"This address has insufficient permissions\") */\n      tag_214\n      jumpi\n      mload(0x40)\n      0x08c379a000000000000000000000000000000000000000000000000000000000\n      dup2\n      mstore\n      0x04\n      add\n      tag_215\n      swap1\n      tag_216\n      jump\t// in\n    tag_215:\n      mload(0x40)\n      dup1\n      swap2\n      sub\n      swap1\n      revert\n    tag_214:\n        /* \"contracts/work/customer.sol\":1445:1465  Manager(_address,id) */\n      mload(0x40)\n      dup1\n      0x40\n      add\n      0x40\n      mstore\n      dup1\n        /* \"contracts/work/customer.sol\":1453:1461  _address */\n      dup3\n        /* \"contracts/work/customer.sol\":1445:1465  Manager(_address,id) */\n      0xffffffffffffffffffffffffffffffffffffffff\n      and\n      dup2\n      mstore\n      0x20\n      add\n        /* \"contracts/work/customer.sol\":1462:1464  id */\n      sload(0x03)\n        /* \"contracts/work/customer.sol\":1445:1465  Manager(_address,id) */\n      dup2\n      mstore\n      pop\n        /* \"contracts/work/customer.sol\":1421:1432  manager_map */\n      0x02\n        /* \"contracts/work/customer.sol\":1421:1442  manager_map[_address] */\n      0x00\n        /* \"contracts/work/customer.sol\":1433:1441  _address */\n      dup4\n        /* \"contracts/work/customer.sol\":1421:1442  manager_map[_address] */\n      0xffffffffffffffffffffffffffffffffffffffff\n      and\n      0xffffffffffffffffffffffffffffffffffffffff\n      and\n      dup2\n      mstore\n      0x20\n      add\n      swap1\n      dup2\n      mstore\n      0x20\n      add\n      0x00\n      keccak256\n        /* \"contracts/work/customer.sol\":1421:1465  manager_map[_address] = Manager(_address,id) */\n      0x00\n      dup3\n      add\n      mload\n      dup2\n      0x00\n      add\n      exp(0x0100, 0x00)\n      dup2\n      sload\n      dup2\n      0xffffffffffffffffffffffffffffffffffffffff\n      mul\n      not\n      and\n      swap1\n      dup4\n      0xffffffffffffffffffffffffffffffffffffffff\n      and\n      mul\n      or\n      swap1\n      sstore\n      pop\n      0x20\n      dup3\n      add\n      mload\n      dup2\n      0x01\n      add\n      sstore\n      swap1\n      pop\n      pop\n        /* \"contracts/work/customer.sol\":1476:1483  manager */\n      0x01\n        /* \"contracts/work/customer.sol\":1489:1497  _address */\n      dup2\n        /* \"contracts/work/customer.sol\":1476:1498  manager.push(_address) */\n      swap1\n      dup1\n      0x01\n      dup2\n      sload\n      add\n      dup1\n      dup3\n      sstore\n      dup1\n      swap2\n      pop\n      pop\n      0x01\n      swap1\n      sub\n      swap1\n      0x00\n      mstore\n      keccak256(0x00, 0x20)\n      add\n      0x00\n      swap1\n      swap2\n      swap1\n      swap2\n      swap1\n      swap2\n      0x0100\n      exp\n      dup2\n      sload\n      dup2\n      0xffffffffffffffffffffffffffffffffffffffff\n      mul\n      not\n      and\n      swap1\n      dup4\n      0xffffffffffffffffffffffffffffffffffffffff\n      and\n      mul\n      or\n      swap1\n      sstore\n      pop\n        /* \"contracts/work/customer.sol\":1515:1516  1 */\n      0x01\n        /* \"contracts/work/customer.sol\":1509:1511  id */\n      0x03\n      0x00\n        /* \"contracts/work/customer.sol\":1509:1516  id += 1 */\n      dup3\n      dup3\n      sload\n      tag_219\n      swap2\n      swap1\n      tag_126\n      jump\t// in\n    tag_219:\n      swap3\n      pop\n      pop\n      dup2\n      swap1\n      sstore\n      pop\n        /* \"contracts/work/customer.sol\":1353:1524  function add_manager(address _address) onlyManager public{... */\n      pop\n      jump\t// out\n        /* \"contracts/work/customer.sol\":5291:5613  function delete_customer(address _customer_address) onlyOwner public{       //刪除客戶資訊... */\n    tag_68:\n        /* \"contracts/work/customer.sol\":917:927  msg.sender */\n      caller\n        /* \"contracts/work/customer.sol\":908:927  owner == msg.sender */\n      0xffffffffffffffffffffffffffffffffffffffff\n      and\n        /* \"contracts/work/customer.sol\":908:913  owner */\n      0x00\n      dup1\n      sload\n      swap1\n      0x0100\n      exp\n      swap1\n      div\n      0xffffffffffffffffffffffffffffffffffffffff\n      and\n        /* \"contracts/work/customer.sol\":908:927  owner == msg.sender */\n      0xffffffffffffffffffffffffffffffffffffffff\n      and\n      eq\n        /* \"contracts/work/customer.sol\":900:965  require(owner == msg.sender,\"This address is not contract Owner\") */\n      tag_221\n      jumpi\n      mload(0x40)\n      0x08c379a000000000000000000000000000000000000000000000000000000000\n      dup2\n      mstore\n      0x04\n      add\n      tag_222\n      swap1\n      tag_117\n      jump\t// in\n    tag_222:\n      mload(0x40)\n      dup1\n      swap2\n      sub\n      swap1\n      revert\n    tag_221:\n        /* \"contracts/work/customer.sol\":5465:5466  0 */\n      0x00\n        /* \"contracts/work/customer.sol\":5405:5467  customer_map[_customer_address].customer_address != address(0) */\n      0xffffffffffffffffffffffffffffffffffffffff\n      and\n        /* \"contracts/work/customer.sol\":5405:5417  customer_map */\n      0x07\n        /* \"contracts/work/customer.sol\":5405:5436  customer_map[_customer_address] */\n      0x00\n        /* \"contracts/work/customer.sol\":5418:5435  _customer_address */\n      dup4\n        /* \"contracts/work/customer.sol\":5405:5436  customer_map[_customer_address] */\n      0xffffffffffffffffffffffffffffffffffffffff\n      and\n      0xffffffffffffffffffffffffffffffffffffffff\n      and\n      dup2\n      mstore\n      0x20\n      add\n      swap1\n      dup2\n      mstore\n      0x20\n      add\n      0x00\n      keccak256\n        /* \"contracts/work/customer.sol\":5405:5453  customer_map[_customer_address].customer_address */\n      0x00\n      add\n      0x00\n      swap1\n      sload\n      swap1\n      0x0100\n      exp\n      swap1\n      div\n      0xffffffffffffffffffffffffffffffffffffffff\n      and\n        /* \"contracts/work/customer.sol\":5405:5467  customer_map[_customer_address].customer_address != address(0) */\n      0xffffffffffffffffffffffffffffffffffffffff\n      and\n      sub\n        /* \"contracts/work/customer.sol\":5397:5495  require(customer_map[_customer_address].customer_address != address(0),\"This account isn't exist\") */\n      tag_224\n      jumpi\n      mload(0x40)\n      0x08c379a000000000000000000000000000000000000000000000000000000000\n      dup2\n      mstore\n      0x04\n      add\n      tag_225\n      swap1\n      tag_133\n      jump\t// in\n    tag_225:\n      mload(0x40)\n      dup1\n      swap2\n      sub\n      swap1\n      revert\n    tag_224:\n        /* \"contracts/work/customer.sol\":5513:5520  account */\n      0x06\n        /* \"contracts/work/customer.sol\":5521:5533  customer_map */\n      0x07\n        /* \"contracts/work/customer.sol\":5521:5552  customer_map[_customer_address] */\n      0x00\n        /* \"contracts/work/customer.sol\":5534:5551  _customer_address */\n      dup4\n        /* \"contracts/work/customer.sol\":5521:5552  customer_map[_customer_address] */\n      0xffffffffffffffffffffffffffffffffffffffff\n      and\n      0xffffffffffffffffffffffffffffffffffffffff\n      and\n      dup2\n      mstore\n      0x20\n      add\n      swap1\n      dup2\n      mstore\n      0x20\n      add\n      0x00\n      keccak256\n        /* \"contracts/work/customer.sol\":5521:5555  customer_map[_customer_address].id */\n      0x05\n      add\n      sload\n        /* \"contracts/work/customer.sol\":5513:5556  account[customer_map[_customer_address].id] */\n      dup2\n      sload\n      dup2\n      lt\n      tag_226\n      jumpi\n      tag_227\n      tag_154\n      jump\t// in\n    tag_227:\n    tag_226:\n      swap1\n      0x00\n      mstore\n      keccak256(0x00, 0x20)\n      add\n      0x00\n        /* \"contracts/work/customer.sol\":5506:5556  delete account[customer_map[_customer_address].id] */\n      0x0100\n      exp\n      dup2\n      sload\n      swap1\n      0xffffffffffffffffffffffffffffffffffffffff\n      mul\n      not\n      and\n      swap1\n      sstore\n        /* \"contracts/work/customer.sol\":5574:5586  customer_map */\n      0x07\n        /* \"contracts/work/customer.sol\":5574:5605  customer_map[_customer_address] */\n      0x00\n        /* \"contracts/work/customer.sol\":5587:5604  _customer_address */\n      dup3\n        /* \"contracts/work/customer.sol\":5574:5605  customer_map[_customer_address] */\n      0xffffffffffffffffffffffffffffffffffffffff\n      and\n      0xffffffffffffffffffffffffffffffffffffffff\n      and\n      dup2\n      mstore\n      0x20\n      add\n      swap1\n      dup2\n      mstore\n      0x20\n      add\n      0x00\n      keccak256\n      0x00\n        /* \"contracts/work/customer.sol\":5567:5605  delete customer_map[_customer_address] */\n      dup1\n      dup3\n      add\n      exp(0x0100, 0x00)\n      dup2\n      sload\n      swap1\n      0xffffffffffffffffffffffffffffffffffffffff\n      mul\n      not\n      and\n      swap1\n      sstore\n      0x01\n      dup3\n      add\n      0x00\n      swap1\n      sstore\n      0x02\n      dup3\n      add\n      0x00\n      swap1\n      sstore\n      0x03\n      dup3\n      add\n      0x00\n      swap1\n      sstore\n      0x04\n      dup3\n      add\n      0x00\n      swap1\n      sstore\n      0x05\n      dup3\n      add\n      0x00\n      swap1\n      sstore\n      pop\n      pop\n        /* \"contracts/work/customer.sol\":5291:5613  function delete_customer(address _customer_address) onlyOwner public{       //刪除客戶資訊... */\n      pop\n      jump\t// out\n        /* \"contracts/work/customer.sol\":1532:1698  function delete_manager(address _address) onlyManager public{... */\n    tag_72:\n        /* \"contracts/work/customer.sol\":1115:1116  0 */\n      0x00\n        /* \"contracts/work/customer.sol\":1064:1117  manager_map[msg.sender].manager_address != address(0) */\n      0xffffffffffffffffffffffffffffffffffffffff\n      and\n        /* \"contracts/work/customer.sol\":1064:1075  manager_map */\n      0x02\n        /* \"contracts/work/customer.sol\":1064:1087  manager_map[msg.sender] */\n      0x00\n        /* \"contracts/work/customer.sol\":1076:1086  msg.sender */\n      caller\n        /* \"contracts/work/customer.sol\":1064:1087  manager_map[msg.sender] */\n      0xffffffffffffffffffffffffffffffffffffffff\n      and\n      0xffffffffffffffffffffffffffffffffffffffff\n      and\n      dup2\n      mstore\n      0x20\n      add\n      swap1\n      dup2\n      mstore\n      0x20\n      add\n      0x00\n      keccak256\n        /* \"contracts/work/customer.sol\":1064:1103  manager_map[msg.sender].manager_address */\n      0x00\n      add\n      0x00\n      swap1\n      sload\n      swap1\n      0x0100\n      exp\n      swap1\n      div\n      0xffffffffffffffffffffffffffffffffffffffff\n      and\n        /* \"contracts/work/customer.sol\":1064:1117  manager_map[msg.sender].manager_address != address(0) */\n      0xffffffffffffffffffffffffffffffffffffffff\n      and\n      sub\n        /* \"contracts/work/customer.sol\":1056:1162  require(manager_map[msg.sender].manager_address != address(0),\"This address has insufficient permissions\") */\n      tag_230\n      jumpi\n      mload(0x40)\n      0x08c379a000000000000000000000000000000000000000000000000000000000\n      dup2\n      mstore\n      0x04\n      add\n      tag_231\n      swap1\n      tag_216\n      jump\t// in\n    tag_231:\n      mload(0x40)\n      dup1\n      swap2\n      sub\n      swap1\n      revert\n    tag_230:\n        /* \"contracts/work/customer.sol\":1610:1617  manager */\n      0x01\n        /* \"contracts/work/customer.sol\":1618:1629  manager_map */\n      0x02\n        /* \"contracts/work/customer.sol\":1618:1639  manager_map[_address] */\n      0x00\n        /* \"contracts/work/customer.sol\":1630:1638  _address */\n      dup4\n        /* \"contracts/work/customer.sol\":1618:1639  manager_map[_address] */\n      0xffffffffffffffffffffffffffffffffffffffff\n      and\n      0xffffffffffffffffffffffffffffffffffffffff\n      and\n      dup2\n      mstore\n      0x20\n      add\n      swap1\n      dup2\n      mstore\n      0x20\n      add\n      0x00\n      keccak256\n        /* \"contracts/work/customer.sol\":1618:1650  manager_map[_address].manager_id */\n      0x01\n      add\n      sload\n        /* \"contracts/work/customer.sol\":1610:1651  manager[manager_map[_address].manager_id] */\n      dup2\n      sload\n      dup2\n      lt\n      tag_233\n      jumpi\n      tag_234\n      tag_154\n      jump\t// in\n    tag_234:\n    tag_233:\n      swap1\n      0x00\n      mstore\n      keccak256(0x00, 0x20)\n      add\n      0x00\n        /* \"contracts/work/customer.sol\":1603:1651  delete manager[manager_map[_address].manager_id] */\n      0x0100\n      exp\n      dup2\n      sload\n      swap1\n      0xffffffffffffffffffffffffffffffffffffffff\n      mul\n      not\n      and\n      swap1\n      sstore\n        /* \"contracts/work/customer.sol\":1669:1680  manager_map */\n      0x02\n        /* \"contracts/work/customer.sol\":1669:1690  manager_map[_address] */\n      0x00\n        /* \"contracts/work/customer.sol\":1681:1689  _address */\n      dup3\n        /* \"contracts/work/customer.sol\":1669:1690  manager_map[_address] */\n      0xffffffffffffffffffffffffffffffffffffffff\n      and\n      0xffffffffffffffffffffffffffffffffffffffff\n      and\n      dup2\n      mstore\n      0x20\n      add\n      swap1\n      dup2\n      mstore\n      0x20\n      add\n      0x00\n      keccak256\n      0x00\n        /* \"contracts/work/customer.sol\":1662:1690  delete manager_map[_address] */\n      dup1\n      dup3\n      add\n      exp(0x0100, 0x00)\n      dup2\n      sload\n      swap1\n      0xffffffffffffffffffffffffffffffffffffffff\n      mul\n      not\n      and\n      swap1\n      sstore\n      0x01\n      dup3\n      add\n      0x00\n      swap1\n      sstore\n      pop\n      pop\n        /* \"contracts/work/customer.sol\":1532:1698  function delete_manager(address _address) onlyManager public{... */\n      pop\n      jump\t// out\n        /* \"contracts/work/customer.sol\":7351:7671  function reduce_staking_time(address _customer_address, uint _time) onlyOwner public {     //將未入帳質押日期提前(以天為單位)... */\n    tag_76:\n        /* \"contracts/work/customer.sol\":917:927  msg.sender */\n      caller\n        /* \"contracts/work/customer.sol\":908:927  owner == msg.sender */\n      0xffffffffffffffffffffffffffffffffffffffff\n      and\n        /* \"contracts/work/customer.sol\":908:913  owner */\n      0x00\n      dup1\n      sload\n      swap1\n      0x0100\n      exp\n      swap1\n      div\n      0xffffffffffffffffffffffffffffffffffffffff\n      and\n        /* \"contracts/work/customer.sol\":908:927  owner == msg.sender */\n      0xffffffffffffffffffffffffffffffffffffffff\n      and\n      eq\n        /* \"contracts/work/customer.sol\":900:965  require(owner == msg.sender,\"This address is not contract Owner\") */\n      tag_237\n      jumpi\n      mload(0x40)\n      0x08c379a000000000000000000000000000000000000000000000000000000000\n      dup2\n      mstore\n      0x04\n      add\n      tag_238\n      swap1\n      tag_117\n      jump\t// in\n    tag_238:\n      mload(0x40)\n      dup1\n      swap2\n      sub\n      swap1\n      revert\n    tag_237:\n        /* \"contracts/work/customer.sol\":7569:7570  0 */\n      0x00\n        /* \"contracts/work/customer.sol\":7509:7571  customer_map[_customer_address].customer_address != address(0) */\n      0xffffffffffffffffffffffffffffffffffffffff\n      and\n        /* \"contracts/work/customer.sol\":7509:7521  customer_map */\n      0x07\n        /* \"contracts/work/customer.sol\":7509:7540  customer_map[_customer_address] */\n      0x00\n        /* \"contracts/work/customer.sol\":7522:7539  _customer_address */\n      dup5\n        /* \"contracts/work/customer.sol\":7509:7540  customer_map[_customer_address] */\n      0xffffffffffffffffffffffffffffffffffffffff\n      and\n      0xffffffffffffffffffffffffffffffffffffffff\n      and\n      dup2\n      mstore\n      0x20\n      add\n      swap1\n      dup2\n      mstore\n      0x20\n      add\n      0x00\n      keccak256\n        /* \"contracts/work/customer.sol\":7509:7557  customer_map[_customer_address].customer_address */\n      0x00\n      add\n      0x00\n      swap1\n      sload\n      swap1\n      0x0100\n      exp\n      swap1\n      div\n      0xffffffffffffffffffffffffffffffffffffffff\n      and\n        /* \"contracts/work/customer.sol\":7509:7571  customer_map[_customer_address].customer_address != address(0) */\n      0xffffffffffffffffffffffffffffffffffffffff\n      and\n      sub\n        /* \"contracts/work/customer.sol\":7501:7599  require(customer_map[_customer_address].customer_address != address(0),\"This account isn't exist\") */\n      tag_240\n      jumpi\n      mload(0x40)\n      0x08c379a000000000000000000000000000000000000000000000000000000000\n      dup2\n      mstore\n      0x04\n      add\n      tag_241\n      swap1\n      tag_133\n      jump\t// in\n    tag_241:\n      mload(0x40)\n      dup1\n      swap2\n      sub\n      swap1\n      revert\n    tag_240:\n        /* \"contracts/work/customer.sol\":7658:7663  86400 */\n      0x015180\n        /* \"contracts/work/customer.sol\":7650:7655  _time */\n      dup2\n        /* \"contracts/work/customer.sol\":7650:7663  _time * 86400 */\n      tag_242\n      swap2\n      swap1\n      tag_135\n      jump\t// in\n    tag_242:\n        /* \"contracts/work/customer.sol\":7610:7622  customer_map */\n      0x07\n        /* \"contracts/work/customer.sol\":7610:7641  customer_map[_customer_address] */\n      0x00\n        /* \"contracts/work/customer.sol\":7623:7640  _customer_address */\n      dup5\n        /* \"contracts/work/customer.sol\":7610:7641  customer_map[_customer_address] */\n      0xffffffffffffffffffffffffffffffffffffffff\n      and\n      0xffffffffffffffffffffffffffffffffffffffff\n      and\n      dup2\n      mstore\n      0x20\n      add\n      swap1\n      dup2\n      mstore\n      0x20\n      add\n      0x00\n      keccak256\n        /* \"contracts/work/customer.sol\":7610:7646  customer_map[_customer_address].time */\n      0x03\n      add\n      0x00\n        /* \"contracts/work/customer.sol\":7610:7663  customer_map[_customer_address].time -= _time * 86400 */\n      dup3\n      dup3\n      sload\n      tag_243\n      swap2\n      swap1\n      tag_123\n      jump\t// in\n    tag_243:\n      swap3\n      pop\n      pop\n      dup2\n      swap1\n      sstore\n      pop\n        /* \"contracts/work/customer.sol\":7351:7671  function reduce_staking_time(address _customer_address, uint _time) onlyOwner public {     //將未入帳質押日期提前(以天為單位)... */\n      pop\n      pop\n      jump\t// out\n        /* \"contracts/work/customer.sol\":8661:9165  function get_allcustomer_reward() view onlyOwner public returns(uint){          //取得目前可分配獎勵之總質押金額... */\n    tag_79:\n        /* \"contracts/work/customer.sol\":8725:8729  uint */\n      0x00\n        /* \"contracts/work/customer.sol\":917:927  msg.sender */\n      caller\n        /* \"contracts/work/customer.sol\":908:927  owner == msg.sender */\n      0xffffffffffffffffffffffffffffffffffffffff\n      and\n        /* \"contracts/work/customer.sol\":908:913  owner */\n      0x00\n      dup1\n      sload\n      swap1\n      0x0100\n      exp\n      swap1\n      div\n      0xffffffffffffffffffffffffffffffffffffffff\n      and\n        /* \"contracts/work/customer.sol\":908:927  owner == msg.sender */\n      0xffffffffffffffffffffffffffffffffffffffff\n      and\n      eq\n        /* \"contracts/work/customer.sol\":900:965  require(owner == msg.sender,\"This address is not contract Owner\") */\n      tag_245\n      jumpi\n      mload(0x40)\n      0x08c379a000000000000000000000000000000000000000000000000000000000\n      dup2\n      mstore\n      0x04\n      add\n      tag_246\n      swap1\n      tag_117\n      jump\t// in\n    tag_246:\n      mload(0x40)\n      dup1\n      swap2\n      sub\n      swap1\n      revert\n    tag_245:\n        /* \"contracts/work/customer.sol\":8798:8814  uint all_staking */\n      0x00\n        /* \"contracts/work/customer.sol\":8832:8838  uint i */\n      dup1\n        /* \"contracts/work/customer.sol\":8827:9129  for (uint i = 0 ; i < amount ; i++){... */\n    tag_248:\n        /* \"contracts/work/customer.sol\":8849:8855  amount */\n      sload(0x04)\n        /* \"contracts/work/customer.sol\":8845:8846  i */\n      dup2\n        /* \"contracts/work/customer.sol\":8845:8855  i < amount */\n      lt\n        /* \"contracts/work/customer.sol\":8827:9129  for (uint i = 0 ; i < amount ; i++){... */\n      iszero\n      tag_249\n      jumpi\n        /* \"contracts/work/customer.sol\":8914:8915  0 */\n      0x00\n        /* \"contracts/work/customer.sol\":8880:8892  customer_map */\n      0x07\n        /* \"contracts/work/customer.sol\":8880:8904  customer_map[account[i]] */\n      0x00\n        /* \"contracts/work/customer.sol\":8893:8900  account */\n      0x06\n        /* \"contracts/work/customer.sol\":8901:8902  i */\n      dup5\n        /* \"contracts/work/customer.sol\":8893:8903  account[i] */\n      dup2\n      sload\n      dup2\n      lt\n      tag_251\n      jumpi\n      tag_252\n      tag_154\n      jump\t// in\n    tag_252:\n    tag_251:\n      swap1\n      0x00\n      mstore\n      keccak256(0x00, 0x20)\n      add\n      0x00\n      swap1\n      sload\n      swap1\n      0x0100\n      exp\n      swap1\n      div\n      0xffffffffffffffffffffffffffffffffffffffff\n      and\n        /* \"contracts/work/customer.sol\":8880:8904  customer_map[account[i]] */\n      0xffffffffffffffffffffffffffffffffffffffff\n      and\n      0xffffffffffffffffffffffffffffffffffffffff\n      and\n      dup2\n      mstore\n      0x20\n      add\n      swap1\n      dup2\n      mstore\n      0x20\n      add\n      0x00\n      keccak256\n        /* \"contracts/work/customer.sol\":8880:8910  customer_map[account[i]].value */\n      0x01\n      add\n      sload\n        /* \"contracts/work/customer.sol\":8880:8915  customer_map[account[i]].value != 0 */\n      eq\n      iszero\n        /* \"contracts/work/customer.sol\":8880:8963  customer_map[account[i]].value != 0 && reward_time >= customer_map[account[i]].time */\n      dup1\n      iszero\n      tag_254\n      jumpi\n      pop\n        /* \"contracts/work/customer.sol\":8934:8946  customer_map */\n      0x07\n        /* \"contracts/work/customer.sol\":8934:8958  customer_map[account[i]] */\n      0x00\n        /* \"contracts/work/customer.sol\":8947:8954  account */\n      0x06\n        /* \"contracts/work/customer.sol\":8955:8956  i */\n      dup4\n        /* \"contracts/work/customer.sol\":8947:8957  account[i] */\n      dup2\n      sload\n      dup2\n      lt\n      tag_255\n      jumpi\n      tag_256\n      tag_154\n      jump\t// in\n    tag_256:\n    tag_255:\n      swap1\n      0x00\n      mstore\n      keccak256(0x00, 0x20)\n      add\n      0x00\n      swap1\n      sload\n      swap1\n      0x0100\n      exp\n      swap1\n      div\n      0xffffffffffffffffffffffffffffffffffffffff\n      and\n        /* \"contracts/work/customer.sol\":8934:8958  customer_map[account[i]] */\n      0xffffffffffffffffffffffffffffffffffffffff\n      and\n      0xffffffffffffffffffffffffffffffffffffffff\n      and\n      dup2\n      mstore\n      0x20\n      add\n      swap1\n      dup2\n      mstore\n      0x20\n      add\n      0x00\n      keccak256\n        /* \"contracts/work/customer.sol\":8934:8963  customer_map[account[i]].time */\n      0x03\n      add\n      sload\n        /* \"contracts/work/customer.sol\":8919:8930  reward_time */\n      sload(0x05)\n        /* \"contracts/work/customer.sol\":8919:8963  reward_time >= customer_map[account[i]].time */\n      lt\n      iszero\n        /* \"contracts/work/customer.sol\":8880:8963  customer_map[account[i]].value != 0 && reward_time >= customer_map[account[i]].time */\n    tag_254:\n        /* \"contracts/work/customer.sol\":8877:9118  if(customer_map[account[i]].value != 0 && reward_time >= customer_map[account[i]].time){      //條件要滿足有質押金額且質押超過一個月(2592000秒)... */\n      iszero\n      tag_258\n      jumpi\n        /* \"contracts/work/customer.sol\":9072:9084  customer_map */\n      0x07\n        /* \"contracts/work/customer.sol\":9072:9096  customer_map[account[i]] */\n      0x00\n        /* \"contracts/work/customer.sol\":9085:9092  account */\n      0x06\n        /* \"contracts/work/customer.sol\":9093:9094  i */\n      dup4\n        /* \"contracts/work/customer.sol\":9085:9095  account[i] */\n      dup2\n      sload\n      dup2\n      lt\n      tag_259\n      jumpi\n      tag_260\n      tag_154\n      jump\t// in\n    tag_260:\n    tag_259:\n      swap1\n      0x00\n      mstore\n      keccak256(0x00, 0x20)\n      add\n      0x00\n      swap1\n      sload\n      swap1\n      0x0100\n      exp\n      swap1\n      div\n      0xffffffffffffffffffffffffffffffffffffffff\n      and\n        /* \"contracts/work/customer.sol\":9072:9096  customer_map[account[i]] */\n      0xffffffffffffffffffffffffffffffffffffffff\n      and\n      0xffffffffffffffffffffffffffffffffffffffff\n      and\n      dup2\n      mstore\n      0x20\n      add\n      swap1\n      dup2\n      mstore\n      0x20\n      add\n      0x00\n      keccak256\n        /* \"contracts/work/customer.sol\":9072:9102  customer_map[account[i]].value */\n      0x01\n      add\n      sload\n        /* \"contracts/work/customer.sol\":9057:9102  all_staking += customer_map[account[i]].value */\n      dup3\n      tag_262\n      swap2\n      swap1\n      tag_126\n      jump\t// in\n    tag_262:\n      swap2\n      pop\n        /* \"contracts/work/customer.sol\":8877:9118  if(customer_map[account[i]].value != 0 && reward_time >= customer_map[account[i]].time){      //條件要滿足有質押金額且質押超過一個月(2592000秒)... */\n    tag_258:\n        /* \"contracts/work/customer.sol\":8858:8861  i++ */\n      dup1\n      dup1\n      0x01\n      add\n      swap2\n      pop\n      pop\n        /* \"contracts/work/customer.sol\":8827:9129  for (uint i = 0 ; i < amount ; i++){... */\n      jump(tag_248)\n    tag_249:\n      pop\n        /* \"contracts/work/customer.sol\":9146:9157  all_staking */\n      dup1\n        /* \"contracts/work/customer.sol\":9139:9157  return all_staking */\n      swap2\n      pop\n      pop\n        /* \"contracts/work/customer.sol\":8661:9165  function get_allcustomer_reward() view onlyOwner public returns(uint){          //取得目前可分配獎勵之總質押金額... */\n      swap1\n      jump\t// out\n        /* \"contracts/work/customer.sol\":6029:6356  function increase_staking_value(address _customer_address, uint _value) onlyOwner public{           //增加質押金額... */\n    tag_85:\n        /* \"contracts/work/customer.sol\":917:927  msg.sender */\n      caller\n        /* \"contracts/work/customer.sol\":908:927  owner == msg.sender */\n      0xffffffffffffffffffffffffffffffffffffffff\n      and\n        /* \"contracts/work/customer.sol\":908:913  owner */\n      0x00\n      dup1\n      sload\n      swap1\n      0x0100\n      exp\n      swap1\n      div\n      0xffffffffffffffffffffffffffffffffffffffff\n      and\n        /* \"contracts/work/customer.sol\":908:927  owner == msg.sender */\n      0xffffffffffffffffffffffffffffffffffffffff\n      and\n      eq\n        /* \"contracts/work/customer.sol\":900:965  require(owner == msg.sender,\"This address is not contract Owner\") */\n      tag_264\n      jumpi\n      mload(0x40)\n      0x08c379a000000000000000000000000000000000000000000000000000000000\n      dup2\n      mstore\n      0x04\n      add\n      tag_265\n      swap1\n      tag_117\n      jump\t// in\n    tag_265:\n      mload(0x40)\n      dup1\n      swap2\n      sub\n      swap1\n      revert\n    tag_264:\n        /* \"contracts/work/customer.sol\":6204:6210  _value */\n      dup1\n        /* \"contracts/work/customer.sol\":6159:6171  customer_map */\n      0x07\n        /* \"contracts/work/customer.sol\":6159:6190  customer_map[_customer_address] */\n      0x00\n        /* \"contracts/work/customer.sol\":6172:6189  _customer_address */\n      dup5\n        /* \"contracts/work/customer.sol\":6159:6190  customer_map[_customer_address] */\n      0xffffffffffffffffffffffffffffffffffffffff\n      and\n      0xffffffffffffffffffffffffffffffffffffffff\n      and\n      dup2\n      mstore\n      0x20\n      add\n      swap1\n      dup2\n      mstore\n      0x20\n      add\n      0x00\n      keccak256\n        /* \"contracts/work/customer.sol\":6159:6200  customer_map[_customer_address].add_value */\n      0x02\n      add\n      0x00\n        /* \"contracts/work/customer.sol\":6159:6210  customer_map[_customer_address].add_value += _value */\n      dup3\n      dup3\n      sload\n      tag_267\n      swap2\n      swap1\n      tag_126\n      jump\t// in\n    tag_267:\n      swap3\n      pop\n      pop\n      dup2\n      swap1\n      sstore\n      pop\n        /* \"contracts/work/customer.sol\":6333:6348  block.timestamp */\n      timestamp\n        /* \"contracts/work/customer.sol\":6291:6303  customer_map */\n      0x07\n        /* \"contracts/work/customer.sol\":6291:6322  customer_map[_customer_address] */\n      0x00\n        /* \"contracts/work/customer.sol\":6304:6321  _customer_address */\n      dup5\n        /* \"contracts/work/customer.sol\":6291:6322  customer_map[_customer_address] */\n      0xffffffffffffffffffffffffffffffffffffffff\n      and\n      0xffffffffffffffffffffffffffffffffffffffff\n      and\n      dup2\n      mstore\n      0x20\n      add\n      swap1\n      dup2\n      mstore\n      0x20\n      add\n      0x00\n      keccak256\n        /* \"contracts/work/customer.sol\":6291:6330  customer_map[_customer_address].newtime */\n      0x04\n      add\n        /* \"contracts/work/customer.sol\":6291:6348  customer_map[_customer_address].newtime = block.timestamp */\n      dup2\n      swap1\n      sstore\n      pop\n        /* \"contracts/work/customer.sol\":6029:6356  function increase_staking_value(address _customer_address, uint _value) onlyOwner public{           //增加質押金額... */\n      pop\n      pop\n      jump\t// out\n        /* \"contracts/work/customer.sol\":7916:8157  function get_customer_address(address _address) view public returns(address){... */\n    tag_89:\n        /* \"contracts/work/customer.sol\":7984:7991  address */\n      0x00\n        /* \"contracts/work/customer.sol\":8062:8063  0 */\n      dup1\n        /* \"contracts/work/customer.sol\":8011:8064  customer_map[_address].customer_address != address(0) */\n      0xffffffffffffffffffffffffffffffffffffffff\n      and\n        /* \"contracts/work/customer.sol\":8011:8023  customer_map */\n      0x07\n        /* \"contracts/work/customer.sol\":8011:8033  customer_map[_address] */\n      0x00\n        /* \"contracts/work/customer.sol\":8024:8032  _address */\n      dup5\n        /* \"contracts/work/customer.sol\":8011:8033  customer_map[_address] */\n      0xffffffffffffffffffffffffffffffffffffffff\n      and\n      0xffffffffffffffffffffffffffffffffffffffff\n      and\n      dup2\n      mstore\n      0x20\n      add\n      swap1\n      dup2\n      mstore\n      0x20\n      add\n      0x00\n      keccak256\n        /* \"contracts/work/customer.sol\":8011:8050  customer_map[_address].customer_address */\n      0x00\n      add\n      0x00\n      swap1\n      sload\n      swap1\n      0x0100\n      exp\n      swap1\n      div\n      0xffffffffffffffffffffffffffffffffffffffff\n      and\n        /* \"contracts/work/customer.sol\":8011:8064  customer_map[_address].customer_address != address(0) */\n      0xffffffffffffffffffffffffffffffffffffffff\n      and\n      sub\n        /* \"contracts/work/customer.sol\":8003:8092  require(customer_map[_address].customer_address != address(0),\"This account isn't exist\") */\n      tag_269\n      jumpi\n      mload(0x40)\n      0x08c379a000000000000000000000000000000000000000000000000000000000\n      dup2\n      mstore\n      0x04\n      add\n      tag_270\n      swap1\n      tag_133\n      jump\t// in\n    tag_270:\n      mload(0x40)\n      dup1\n      swap2\n      sub\n      swap1\n      revert\n    tag_269:\n        /* \"contracts/work/customer.sol\":8110:8122  customer_map */\n      0x07\n        /* \"contracts/work/customer.sol\":8110:8132  customer_map[_address] */\n      0x00\n        /* \"contracts/work/customer.sol\":8123:8131  _address */\n      dup4\n        /* \"contracts/work/customer.sol\":8110:8132  customer_map[_address] */\n      0xffffffffffffffffffffffffffffffffffffffff\n      and\n      0xffffffffffffffffffffffffffffffffffffffff\n      and\n      dup2\n      mstore\n      0x20\n      add\n      swap1\n      dup2\n      mstore\n      0x20\n      add\n      0x00\n      keccak256\n        /* \"contracts/work/customer.sol\":8110:8149  customer_map[_address].customer_address */\n      0x00\n      add\n      0x00\n      swap1\n      sload\n      swap1\n      0x0100\n      exp\n      swap1\n      div\n      0xffffffffffffffffffffffffffffffffffffffff\n      and\n        /* \"contracts/work/customer.sol\":8103:8149  return customer_map[_address].customer_address */\n      swap1\n      pop\n        /* \"contracts/work/customer.sol\":7916:8157  function get_customer_address(address _address) view public returns(address){... */\n      swap2\n      swap1\n      pop\n      jump\t// out\n        /* \"contracts/work/customer.sol\":5621:5811  function change_staking_value(address _customer_address, uint _value) onlyOwner public{... */\n    tag_95:\n        /* \"contracts/work/customer.sol\":917:927  msg.sender */\n      caller\n        /* \"contracts/work/customer.sol\":908:927  owner == msg.sender */\n      0xffffffffffffffffffffffffffffffffffffffff\n      and\n        /* \"contracts/work/customer.sol\":908:913  owner */\n      0x00\n      dup1\n      sload\n      swap1\n      0x0100\n      exp\n      swap1\n      div\n      0xffffffffffffffffffffffffffffffffffffffff\n      and\n        /* \"contracts/work/customer.sol\":908:927  owner == msg.sender */\n      0xffffffffffffffffffffffffffffffffffffffff\n      and\n      eq\n        /* \"contracts/work/customer.sol\":900:965  require(owner == msg.sender,\"This address is not contract Owner\") */\n      tag_272\n      jumpi\n      mload(0x40)\n      0x08c379a000000000000000000000000000000000000000000000000000000000\n      dup2\n      mstore\n      0x04\n      add\n      tag_273\n      swap1\n      tag_117\n      jump\t// in\n    tag_273:\n      mload(0x40)\n      dup1\n      swap2\n      sub\n      swap1\n      revert\n    tag_272:\n        /* \"contracts/work/customer.sol\":5758:5764  _value */\n      dup1\n        /* \"contracts/work/customer.sol\":5718:5730  customer_map */\n      0x07\n        /* \"contracts/work/customer.sol\":5718:5749  customer_map[_customer_address] */\n      0x00\n        /* \"contracts/work/customer.sol\":5731:5748  _customer_address */\n      dup5\n        /* \"contracts/work/customer.sol\":5718:5749  customer_map[_customer_address] */\n      0xffffffffffffffffffffffffffffffffffffffff\n      and\n      0xffffffffffffffffffffffffffffffffffffffff\n      and\n      dup2\n      mstore\n      0x20\n      add\n      swap1\n      dup2\n      mstore\n      0x20\n      add\n      0x00\n      keccak256\n        /* \"contracts/work/customer.sol\":5718:5755  customer_map[_customer_address].value */\n      0x01\n      add\n        /* \"contracts/work/customer.sol\":5718:5764  customer_map[_customer_address].value = _value */\n      dup2\n      swap1\n      sstore\n      pop\n        /* \"contracts/work/customer.sol\":5621:5811  function change_staking_value(address _customer_address, uint _value) onlyOwner public{... */\n      pop\n      pop\n      jump\t// out\n        /* \"contracts/work/customer.sol\":1706:1785  function getOwner() view public returns(address){... */\n    tag_98:\n        /* \"contracts/work/customer.sol\":1746:1753  address */\n      0x00\n        /* \"contracts/work/customer.sol\":1772:1777  owner */\n      dup1\n      0x00\n      swap1\n      sload\n      swap1\n      0x0100\n      exp\n      swap1\n      div\n      0xffffffffffffffffffffffffffffffffffffffff\n      and\n        /* \"contracts/work/customer.sol\":1765:1777  return owner */\n      swap1\n      pop\n        /* \"contracts/work/customer.sol\":1706:1785  function getOwner() view public returns(address){... */\n      swap1\n      jump\t// out\n        /* \"contracts/work/customer.sol\":6364:7013  function reduce_staking_value(address _customer_address, uint _value) onlyOwner public{         //減少質押金額... */\n    tag_103:\n        /* \"contracts/work/customer.sol\":917:927  msg.sender */\n      caller\n        /* \"contracts/work/customer.sol\":908:927  owner == msg.sender */\n      0xffffffffffffffffffffffffffffffffffffffff\n      and\n        /* \"contracts/work/customer.sol\":908:913  owner */\n      0x00\n      dup1\n      sload\n      swap1\n      0x0100\n      exp\n      swap1\n      div\n      0xffffffffffffffffffffffffffffffffffffffff\n      and\n        /* \"contracts/work/customer.sol\":908:927  owner == msg.sender */\n      0xffffffffffffffffffffffffffffffffffffffff\n      and\n      eq\n        /* \"contracts/work/customer.sol\":900:965  require(owner == msg.sender,\"This address is not contract Owner\") */\n      tag_277\n      jumpi\n      mload(0x40)\n      0x08c379a000000000000000000000000000000000000000000000000000000000\n      dup2\n      mstore\n      0x04\n      add\n      tag_278\n      swap1\n      tag_117\n      jump\t// in\n    tag_278:\n      mload(0x40)\n      dup1\n      swap2\n      sub\n      swap1\n      revert\n    tag_277:\n        /* \"contracts/work/customer.sol\":6548:6560  customer_map */\n      0x07\n        /* \"contracts/work/customer.sol\":6548:6579  customer_map[_customer_address] */\n      0x00\n        /* \"contracts/work/customer.sol\":6561:6578  _customer_address */\n      dup4\n        /* \"contracts/work/customer.sol\":6548:6579  customer_map[_customer_address] */\n      0xffffffffffffffffffffffffffffffffffffffff\n      and\n      0xffffffffffffffffffffffffffffffffffffffff\n      and\n      dup2\n      mstore\n      0x20\n      add\n      swap1\n      dup2\n      mstore\n      0x20\n      add\n      0x00\n      keccak256\n        /* \"contracts/work/customer.sol\":6548:6589  customer_map[_customer_address].add_value */\n      0x02\n      add\n      sload\n        /* \"contracts/work/customer.sol\":6508:6520  customer_map */\n      0x07\n        /* \"contracts/work/customer.sol\":6508:6539  customer_map[_customer_address] */\n      0x00\n        /* \"contracts/work/customer.sol\":6521:6538  _customer_address */\n      dup5\n        /* \"contracts/work/customer.sol\":6508:6539  customer_map[_customer_address] */\n      0xffffffffffffffffffffffffffffffffffffffff\n      and\n      0xffffffffffffffffffffffffffffffffffffffff\n      and\n      dup2\n      mstore\n      0x20\n      add\n      swap1\n      dup2\n      mstore\n      0x20\n      add\n      0x00\n      keccak256\n        /* \"contracts/work/customer.sol\":6508:6545  customer_map[_customer_address].value */\n      0x01\n      add\n      sload\n        /* \"contracts/work/customer.sol\":6508:6589  customer_map[_customer_address].value + customer_map[_customer_address].add_value */\n      tag_280\n      swap2\n      swap1\n      tag_126\n      jump\t// in\n    tag_280:\n        /* \"contracts/work/customer.sol\":6498:6504  _value */\n      dup2\n        /* \"contracts/work/customer.sol\":6498:6589  _value <= customer_map[_customer_address].value + customer_map[_customer_address].add_value */\n      gt\n      iszero\n        /* \"contracts/work/customer.sol\":6490:6622  require(_value <= customer_map[_customer_address].value + customer_map[_customer_address].add_value , \"Staking value is not enough\") */\n      tag_281\n      jumpi\n      mload(0x40)\n      0x08c379a000000000000000000000000000000000000000000000000000000000\n      dup2\n      mstore\n      0x04\n      add\n      tag_282\n      swap1\n      tag_283\n      jump\t// in\n    tag_282:\n      mload(0x40)\n      dup1\n      swap2\n      sub\n      swap1\n      revert\n    tag_281:\n        /* \"contracts/work/customer.sol\":6682:6694  customer_map */\n      0x07\n        /* \"contracts/work/customer.sol\":6682:6713  customer_map[_customer_address] */\n      0x00\n        /* \"contracts/work/customer.sol\":6695:6712  _customer_address */\n      dup4\n        /* \"contracts/work/customer.sol\":6682:6713  customer_map[_customer_address] */\n      0xffffffffffffffffffffffffffffffffffffffff\n      and\n      0xffffffffffffffffffffffffffffffffffffffff\n      and\n      dup2\n      mstore\n      0x20\n      add\n      swap1\n      dup2\n      mstore\n      0x20\n      add\n      0x00\n      keccak256\n        /* \"contracts/work/customer.sol\":6682:6723  customer_map[_customer_address].add_value */\n      0x02\n      add\n      sload\n        /* \"contracts/work/customer.sol\":6673:6679  _value */\n      dup2\n        /* \"contracts/work/customer.sol\":6673:6723  _value > customer_map[_customer_address].add_value */\n      gt\n        /* \"contracts/work/customer.sol\":6669:7006  if (_value > customer_map[_customer_address].add_value){... */\n      iszero\n      tag_284\n      jumpi\n        /* \"contracts/work/customer.sol\":6783:6784  0 */\n      0x00\n        /* \"contracts/work/customer.sol\":6739:6751  customer_map */\n      0x07\n        /* \"contracts/work/customer.sol\":6739:6770  customer_map[_customer_address] */\n      0x00\n        /* \"contracts/work/customer.sol\":6752:6769  _customer_address */\n      dup5\n        /* \"contracts/work/customer.sol\":6739:6770  customer_map[_customer_address] */\n      0xffffffffffffffffffffffffffffffffffffffff\n      and\n      0xffffffffffffffffffffffffffffffffffffffff\n      and\n      dup2\n      mstore\n      0x20\n      add\n      swap1\n      dup2\n      mstore\n      0x20\n      add\n      0x00\n      keccak256\n        /* \"contracts/work/customer.sol\":6739:6780  customer_map[_customer_address].add_value */\n      0x02\n      add\n        /* \"contracts/work/customer.sol\":6739:6784  customer_map[_customer_address].add_value = 0 */\n      dup2\n      swap1\n      sstore\n      pop\n        /* \"contracts/work/customer.sol\":6809:6821  customer_map */\n      0x07\n        /* \"contracts/work/customer.sol\":6809:6840  customer_map[_customer_address] */\n      0x00\n        /* \"contracts/work/customer.sol\":6822:6839  _customer_address */\n      dup4\n        /* \"contracts/work/customer.sol\":6809:6840  customer_map[_customer_address] */\n      0xffffffffffffffffffffffffffffffffffffffff\n      and\n      0xffffffffffffffffffffffffffffffffffffffff\n      and\n      dup2\n      mstore\n      0x20\n      add\n      swap1\n      dup2\n      mstore\n      0x20\n      add\n      0x00\n      keccak256\n        /* \"contracts/work/customer.sol\":6809:6850  customer_map[_customer_address].add_value */\n      0x02\n      add\n      sload\n        /* \"contracts/work/customer.sol\":6799:6850  _value -= customer_map[_customer_address].add_value */\n      dup2\n      tag_285\n      swap2\n      swap1\n      tag_123\n      jump\t// in\n    tag_285:\n      swap1\n      pop\n        /* \"contracts/work/customer.sol\":6906:6912  _value */\n      dup1\n        /* \"contracts/work/customer.sol\":6865:6877  customer_map */\n      0x07\n        /* \"contracts/work/customer.sol\":6865:6896  customer_map[_customer_address] */\n      0x00\n        /* \"contracts/work/customer.sol\":6878:6895  _customer_address */\n      dup5\n        /* \"contracts/work/customer.sol\":6865:6896  customer_map[_customer_address] */\n      0xffffffffffffffffffffffffffffffffffffffff\n      and\n      0xffffffffffffffffffffffffffffffffffffffff\n      and\n      dup2\n      mstore\n      0x20\n      add\n      swap1\n      dup2\n      mstore\n      0x20\n      add\n      0x00\n      keccak256\n        /* \"contracts/work/customer.sol\":6865:6902  customer_map[_customer_address].value */\n      0x01\n      add\n      0x00\n        /* \"contracts/work/customer.sol\":6865:6912  customer_map[_customer_address].value -= _value */\n      dup3\n      dup3\n      sload\n      tag_286\n      swap2\n      swap1\n      tag_123\n      jump\t// in\n    tag_286:\n      swap3\n      pop\n      pop\n      dup2\n      swap1\n      sstore\n      pop\n        /* \"contracts/work/customer.sol\":6669:7006  if (_value > customer_map[_customer_address].add_value){... */\n      jump(tag_287)\n    tag_284:\n        /* \"contracts/work/customer.sol\":6988:6994  _value */\n      dup1\n        /* \"contracts/work/customer.sol\":6943:6955  customer_map */\n      0x07\n        /* \"contracts/work/customer.sol\":6943:6974  customer_map[_customer_address] */\n      0x00\n        /* \"contracts/work/customer.sol\":6956:6973  _customer_address */\n      dup5\n        /* \"contracts/work/customer.sol\":6943:6974  customer_map[_customer_address] */\n      0xffffffffffffffffffffffffffffffffffffffff\n      and\n      0xffffffffffffffffffffffffffffffffffffffff\n      and\n      dup2\n      mstore\n      0x20\n      add\n      swap1\n      dup2\n      mstore\n      0x20\n      add\n      0x00\n      keccak256\n        /* \"contracts/work/customer.sol\":6943:6984  customer_map[_customer_address].add_value */\n      0x02\n      add\n      0x00\n        /* \"contracts/work/customer.sol\":6943:6994  customer_map[_customer_address].add_value -= _value */\n      dup3\n      dup3\n      sload\n      tag_288\n      swap2\n      swap1\n      tag_123\n      jump\t// in\n    tag_288:\n      swap3\n      pop\n      pop\n      dup2\n      swap1\n      sstore\n      pop\n        /* \"contracts/work/customer.sol\":6669:7006  if (_value > customer_map[_customer_address].add_value){... */\n    tag_287:\n        /* \"contracts/work/customer.sol\":6364:7013  function reduce_staking_value(address _customer_address, uint _value) onlyOwner public{         //減少質押金額... */\n      pop\n      pop\n      jump\t// out\n        /* \"contracts/work/customer.sol\":8434:8653  function get_customer_id(address _address) view public returns(uint){... */\n    tag_107:\n        /* \"contracts/work/customer.sol\":8497:8501  uint */\n      0x00\n        /* \"contracts/work/customer.sol\":8572:8573  0 */\n      dup1\n        /* \"contracts/work/customer.sol\":8521:8574  customer_map[_address].customer_address != address(0) */\n      0xffffffffffffffffffffffffffffffffffffffff\n      and\n        /* \"contracts/work/customer.sol\":8521:8533  customer_map */\n      0x07\n        /* \"contracts/work/customer.sol\":8521:8543  customer_map[_address] */\n      0x00\n        /* \"contracts/work/customer.sol\":8534:8542  _address */\n      dup5\n        /* \"contracts/work/customer.sol\":8521:8543  customer_map[_address] */\n      0xffffffffffffffffffffffffffffffffffffffff\n      and\n      0xffffffffffffffffffffffffffffffffffffffff\n      and\n      dup2\n      mstore\n      0x20\n      add\n      swap1\n      dup2\n      mstore\n      0x20\n      add\n      0x00\n      keccak256\n        /* \"contracts/work/customer.sol\":8521:8560  customer_map[_address].customer_address */\n      0x00\n      add\n      0x00\n      swap1\n      sload\n      swap1\n      0x0100\n      exp\n      swap1\n      div\n      0xffffffffffffffffffffffffffffffffffffffff\n      and\n        /* \"contracts/work/customer.sol\":8521:8574  customer_map[_address].customer_address != address(0) */\n      0xffffffffffffffffffffffffffffffffffffffff\n      and\n      sub\n        /* \"contracts/work/customer.sol\":8513:8602  require(customer_map[_address].customer_address != address(0),\"This account isn't exist\") */\n      tag_290\n      jumpi\n      mload(0x40)\n      0x08c379a000000000000000000000000000000000000000000000000000000000\n      dup2\n      mstore\n      0x04\n      add\n      tag_291\n      swap1\n      tag_133\n      jump\t// in\n    tag_291:\n      mload(0x40)\n      dup1\n      swap2\n      sub\n      swap1\n      revert\n    tag_290:\n        /* \"contracts/work/customer.sol\":8620:8632  customer_map */\n      0x07\n        /* \"contracts/work/customer.sol\":8620:8642  customer_map[_address] */\n      0x00\n        /* \"contracts/work/customer.sol\":8633:8641  _address */\n      dup4\n        /* \"contracts/work/customer.sol\":8620:8642  customer_map[_address] */\n      0xffffffffffffffffffffffffffffffffffffffff\n      and\n      0xffffffffffffffffffffffffffffffffffffffff\n      and\n      dup2\n      mstore\n      0x20\n      add\n      swap1\n      dup2\n      mstore\n      0x20\n      add\n      0x00\n      keccak256\n        /* \"contracts/work/customer.sol\":8620:8645  customer_map[_address].id */\n      0x05\n      add\n      sload\n        /* \"contracts/work/customer.sol\":8613:8645  return customer_map[_address].id */\n      swap1\n      pop\n        /* \"contracts/work/customer.sol\":8434:8653  function get_customer_id(address _address) view public returns(uint){... */\n      swap2\n      swap1\n      pop\n      jump\t// out\n        /* \"contracts/work/customer.sol\":8165:8426  function get_staking_value(address _address) view public returns(uint){... */\n    tag_112:\n        /* \"contracts/work/customer.sol\":8230:8234  uint */\n      0x00\n        /* \"contracts/work/customer.sol\":8305:8306  0 */\n      dup1\n        /* \"contracts/work/customer.sol\":8254:8307  customer_map[_address].customer_address != address(0) */\n      0xffffffffffffffffffffffffffffffffffffffff\n      and\n        /* \"contracts/work/customer.sol\":8254:8266  customer_map */\n      0x07\n        /* \"contracts/work/customer.sol\":8254:8276  customer_map[_address] */\n      0x00\n        /* \"contracts/work/customer.sol\":8267:8275  _address */\n      dup5\n        /* \"contracts/work/customer.sol\":8254:8276  customer_map[_address] */\n      0xffffffffffffffffffffffffffffffffffffffff\n      and\n      0xffffffffffffffffffffffffffffffffffffffff\n      and\n      dup2\n      mstore\n      0x20\n      add\n      swap1\n      dup2\n      mstore\n      0x20\n      add\n      0x00\n      keccak256\n        /* \"contracts/work/customer.sol\":8254:8293  customer_map[_address].customer_address */\n      0x00\n      add\n      0x00\n      swap1\n      sload\n      swap1\n      0x0100\n      exp\n      swap1\n      div\n      0xffffffffffffffffffffffffffffffffffffffff\n      and\n        /* \"contracts/work/customer.sol\":8254:8307  customer_map[_address].customer_address != address(0) */\n      0xffffffffffffffffffffffffffffffffffffffff\n      and\n      sub\n        /* \"contracts/work/customer.sol\":8246:8335  require(customer_map[_address].customer_address != address(0),\"This account isn't exist\") */\n      tag_293\n      jumpi\n      mload(0x40)\n      0x08c379a000000000000000000000000000000000000000000000000000000000\n      dup2\n      mstore\n      0x04\n      add\n      tag_294\n      swap1\n      tag_133\n      jump\t// in\n    tag_294:\n      mload(0x40)\n      dup1\n      swap2\n      sub\n      swap1\n      revert\n    tag_293:\n        /* \"contracts/work/customer.sol\":8385:8397  customer_map */\n      0x07\n        /* \"contracts/work/customer.sol\":8385:8407  customer_map[_address] */\n      0x00\n        /* \"contracts/work/customer.sol\":8398:8406  _address */\n      dup4\n        /* \"contracts/work/customer.sol\":8385:8407  customer_map[_address] */\n      0xffffffffffffffffffffffffffffffffffffffff\n      and\n      0xffffffffffffffffffffffffffffffffffffffff\n      and\n      dup2\n      mstore\n      0x20\n      add\n      swap1\n      dup2\n      mstore\n      0x20\n      add\n      0x00\n      keccak256\n        /* \"contracts/work/customer.sol\":8385:8417  customer_map[_address].add_value */\n      0x02\n      add\n      sload\n        /* \"contracts/work/customer.sol\":8354:8366  customer_map */\n      0x07\n        /* \"contracts/work/customer.sol\":8354:8376  customer_map[_address] */\n      0x00\n        /* \"contracts/work/customer.sol\":8367:8375  _address */\n      dup5\n        /* \"contracts/work/customer.sol\":8354:8376  customer_map[_address] */\n      0xffffffffffffffffffffffffffffffffffffffff\n      and\n      0xffffffffffffffffffffffffffffffffffffffff\n      and\n      dup2\n      mstore\n      0x20\n      add\n      swap1\n      dup2\n      mstore\n      0x20\n      add\n      0x00\n      keccak256\n        /* \"contracts/work/customer.sol\":8354:8382  customer_map[_address].value */\n      0x01\n      add\n      sload\n        /* \"contracts/work/customer.sol\":8354:8417  customer_map[_address].value + customer_map[_address].add_value */\n      tag_295\n      swap2\n      swap1\n      tag_126\n      jump\t// in\n    tag_295:\n        /* \"contracts/work/customer.sol\":8346:8418  return (customer_map[_address].value + customer_map[_address].add_value) */\n      swap1\n      pop\n        /* \"contracts/work/customer.sol\":8165:8426  function get_staking_value(address _address) view public returns(uint){... */\n      swap2\n      swap1\n      pop\n      jump\t// out\n    tag_203:\n      mload(0x40)\n      dup1\n      0xc0\n      add\n      0x40\n      mstore\n      dup1\n      and(0xffffffffffffffffffffffffffffffffffffffff, 0x00)\n      dup2\n      mstore\n      0x20\n      add\n      0x00\n      dup2\n      mstore\n      0x20\n      add\n      0x00\n      dup2\n      mstore\n      0x20\n      add\n      0x00\n      dup2\n      mstore\n      0x20\n      add\n      0x00\n      dup2\n      mstore\n      0x20\n      add\n      0x00\n      dup2\n      mstore\n      pop\n      swap1\n      jump\t// out\n        /* \"#utility.yul\":88:205   */\n    tag_297:\n        /* \"#utility.yul\":197:198   */\n      0x00\n        /* \"#utility.yul\":194:195   */\n      dup1\n        /* \"#utility.yul\":187:199   */\n      revert\n        /* \"#utility.yul\":334:460   */\n    tag_299:\n        /* \"#utility.yul\":371:378   */\n      0x00\n        /* \"#utility.yul\":411:453   */\n      0xffffffffffffffffffffffffffffffffffffffff\n        /* \"#utility.yul\":404:409   */\n      dup3\n        /* \"#utility.yul\":400:454   */\n      and\n        /* \"#utility.yul\":389:454   */\n      swap1\n      pop\n        /* \"#utility.yul\":334:460   */\n      swap2\n      swap1\n      pop\n      jump\t// out\n        /* \"#utility.yul\":466:562   */\n    tag_300:\n        /* \"#utility.yul\":503:510   */\n      0x00\n        /* \"#utility.yul\":532:556   */\n      tag_340\n        /* \"#utility.yul\":550:555   */\n      dup3\n        /* \"#utility.yul\":532:556   */\n      tag_299\n      jump\t// in\n    tag_340:\n        /* \"#utility.yul\":521:556   */\n      swap1\n      pop\n        /* \"#utility.yul\":466:562   */\n      swap2\n      swap1\n      pop\n      jump\t// out\n        /* \"#utility.yul\":568:690   */\n    tag_301:\n        /* \"#utility.yul\":641:665   */\n      tag_342\n        /* \"#utility.yul\":659:664   */\n      dup2\n        /* \"#utility.yul\":641:665   */\n      tag_300\n      jump\t// in\n    tag_342:\n        /* \"#utility.yul\":634:639   */\n      dup2\n        /* \"#utility.yul\":631:666   */\n      eq\n        /* \"#utility.yul\":621:684   */\n      tag_343\n      jumpi\n        /* \"#utility.yul\":680:681   */\n      0x00\n        /* \"#utility.yul\":677:678   */\n      dup1\n        /* \"#utility.yul\":670:682   */\n      revert\n        /* \"#utility.yul\":621:684   */\n    tag_343:\n        /* \"#utility.yul\":568:690   */\n      pop\n      jump\t// out\n        /* \"#utility.yul\":696:835   */\n    tag_302:\n        /* \"#utility.yul\":742:747   */\n      0x00\n        /* \"#utility.yul\":780:786   */\n      dup2\n        /* \"#utility.yul\":767:787   */\n      calldataload\n        /* \"#utility.yul\":758:787   */\n      swap1\n      pop\n        /* \"#utility.yul\":796:829   */\n      tag_345\n        /* \"#utility.yul\":823:828   */\n      dup2\n        /* \"#utility.yul\":796:829   */\n      tag_301\n      jump\t// in\n    tag_345:\n        /* \"#utility.yul\":696:835   */\n      swap3\n      swap2\n      pop\n      pop\n      jump\t// out\n        /* \"#utility.yul\":841:918   */\n    tag_303:\n        /* \"#utility.yul\":878:885   */\n      0x00\n        /* \"#utility.yul\":907:912   */\n      dup2\n        /* \"#utility.yul\":896:912   */\n      swap1\n      pop\n        /* \"#utility.yul\":841:918   */\n      swap2\n      swap1\n      pop\n      jump\t// out\n        /* \"#utility.yul\":924:1046   */\n    tag_304:\n        /* \"#utility.yul\":997:1021   */\n      tag_348\n        /* \"#utility.yul\":1015:1020   */\n      dup2\n        /* \"#utility.yul\":997:1021   */\n      tag_303\n      jump\t// in\n    tag_348:\n        /* \"#utility.yul\":990:995   */\n      dup2\n        /* \"#utility.yul\":987:1022   */\n      eq\n        /* \"#utility.yul\":977:1040   */\n      tag_349\n      jumpi\n        /* \"#utility.yul\":1036:1037   */\n      0x00\n        /* \"#utility.yul\":1033:1034   */\n      dup1\n        /* \"#utility.yul\":1026:1038   */\n      revert\n        /* \"#utility.yul\":977:1040   */\n    tag_349:\n        /* \"#utility.yul\":924:1046   */\n      pop\n      jump\t// out\n        /* \"#utility.yul\":1052:1191   */\n    tag_305:\n        /* \"#utility.yul\":1098:1103   */\n      0x00\n        /* \"#utility.yul\":1136:1142   */\n      dup2\n        /* \"#utility.yul\":1123:1143   */\n      calldataload\n        /* \"#utility.yul\":1114:1143   */\n      swap1\n      pop\n        /* \"#utility.yul\":1152:1185   */\n      tag_351\n        /* \"#utility.yul\":1179:1184   */\n      dup2\n        /* \"#utility.yul\":1152:1185   */\n      tag_304\n      jump\t// in\n    tag_351:\n        /* \"#utility.yul\":1052:1191   */\n      swap3\n      swap2\n      pop\n      pop\n      jump\t// out\n        /* \"#utility.yul\":1197:1671   */\n    tag_28:\n        /* \"#utility.yul\":1265:1271   */\n      0x00\n        /* \"#utility.yul\":1273:1279   */\n      dup1\n        /* \"#utility.yul\":1322:1324   */\n      0x40\n        /* \"#utility.yul\":1310:1319   */\n      dup4\n        /* \"#utility.yul\":1301:1308   */\n      dup6\n        /* \"#utility.yul\":1297:1320   */\n      sub\n        /* \"#utility.yul\":1293:1325   */\n      slt\n        /* \"#utility.yul\":1290:1409   */\n      iszero\n      tag_353\n      jumpi\n        /* \"#utility.yul\":1328:1407   */\n      tag_354\n      tag_297\n      jump\t// in\n    tag_354:\n        /* \"#utility.yul\":1290:1409   */\n    tag_353:\n        /* \"#utility.yul\":1448:1449   */\n      0x00\n        /* \"#utility.yul\":1473:1526   */\n      tag_355\n        /* \"#utility.yul\":1518:1525   */\n      dup6\n        /* \"#utility.yul\":1509:1515   */\n      dup3\n        /* \"#utility.yul\":1498:1507   */\n      dup7\n        /* \"#utility.yul\":1494:1516   */\n      add\n        /* \"#utility.yul\":1473:1526   */\n      tag_302\n      jump\t// in\n    tag_355:\n        /* \"#utility.yul\":1463:1526   */\n      swap3\n      pop\n        /* \"#utility.yul\":1419:1536   */\n      pop\n        /* \"#utility.yul\":1575:1577   */\n      0x20\n        /* \"#utility.yul\":1601:1654   */\n      tag_356\n        /* \"#utility.yul\":1646:1653   */\n      dup6\n        /* \"#utility.yul\":1637:1643   */\n      dup3\n        /* \"#utility.yul\":1626:1635   */\n      dup7\n        /* \"#utility.yul\":1622:1644   */\n      add\n        /* \"#utility.yul\":1601:1654   */\n      tag_305\n      jump\t// in\n    tag_356:\n        /* \"#utility.yul\":1591:1654   */\n      swap2\n      pop\n        /* \"#utility.yul\":1546:1664   */\n      pop\n        /* \"#utility.yul\":1197:1671   */\n      swap3\n      pop\n      swap3\n      swap1\n      pop\n      jump\t// out\n        /* \"#utility.yul\":1677:2006   */\n    tag_43:\n        /* \"#utility.yul\":1736:1742   */\n      0x00\n        /* \"#utility.yul\":1785:1787   */\n      0x20\n        /* \"#utility.yul\":1773:1782   */\n      dup3\n        /* \"#utility.yul\":1764:1771   */\n      dup5\n        /* \"#utility.yul\":1760:1783   */\n      sub\n        /* \"#utility.yul\":1756:1788   */\n      slt\n        /* \"#utility.yul\":1753:1872   */\n      iszero\n      tag_358\n      jumpi\n        /* \"#utility.yul\":1791:1870   */\n      tag_359\n      tag_297\n      jump\t// in\n    tag_359:\n        /* \"#utility.yul\":1753:1872   */\n    tag_358:\n        /* \"#utility.yul\":1911:1912   */\n      0x00\n        /* \"#utility.yul\":1936:1989   */\n      tag_360\n        /* \"#utility.yul\":1981:1988   */\n      dup5\n        /* \"#utility.yul\":1972:1978   */\n      dup3\n        /* \"#utility.yul\":1961:1970   */\n      dup6\n        /* \"#utility.yul\":1957:1979   */\n      add\n        /* \"#utility.yul\":1936:1989   */\n      tag_302\n      jump\t// in\n    tag_360:\n        /* \"#utility.yul\":1926:1989   */\n      swap2\n      pop\n        /* \"#utility.yul\":1882:1999   */\n      pop\n        /* \"#utility.yul\":1677:2006   */\n      swap3\n      swap2\n      pop\n      pop\n      jump\t// out\n        /* \"#utility.yul\":2012:2923   */\n    tag_48:\n        /* \"#utility.yul\":2107:2113   */\n      0x00\n        /* \"#utility.yul\":2115:2121   */\n      dup1\n        /* \"#utility.yul\":2123:2129   */\n      0x00\n        /* \"#utility.yul\":2131:2137   */\n      dup1\n        /* \"#utility.yul\":2139:2145   */\n      0x00\n        /* \"#utility.yul\":2188:2191   */\n      0xa0\n        /* \"#utility.yul\":2176:2185   */\n      dup7\n        /* \"#utility.yul\":2167:2174   */\n      dup9\n        /* \"#utility.yul\":2163:2186   */\n      sub\n        /* \"#utility.yul\":2159:2192   */\n      slt\n        /* \"#utility.yul\":2156:2276   */\n      iszero\n      tag_362\n      jumpi\n        /* \"#utility.yul\":2195:2274   */\n      tag_363\n      tag_297\n      jump\t// in\n    tag_363:\n        /* \"#utility.yul\":2156:2276   */\n    tag_362:\n        /* \"#utility.yul\":2315:2316   */\n      0x00\n        /* \"#utility.yul\":2340:2393   */\n      tag_364\n        /* \"#utility.yul\":2385:2392   */\n      dup9\n        /* \"#utility.yul\":2376:2382   */\n      dup3\n        /* \"#utility.yul\":2365:2374   */\n      dup10\n        /* \"#utility.yul\":2361:2383   */\n      add\n        /* \"#utility.yul\":2340:2393   */\n      tag_302\n      jump\t// in\n    tag_364:\n        /* \"#utility.yul\":2330:2393   */\n      swap6\n      pop\n        /* \"#utility.yul\":2286:2403   */\n      pop\n        /* \"#utility.yul\":2442:2444   */\n      0x20\n        /* \"#utility.yul\":2468:2521   */\n      tag_365\n        /* \"#utility.yul\":2513:2520   */\n      dup9\n        /* \"#utility.yul\":2504:2510   */\n      dup3\n        /* \"#utility.yul\":2493:2502   */\n      dup10\n        /* \"#utility.yul\":2489:2511   */\n      add\n        /* \"#utility.yul\":2468:2521   */\n      tag_305\n      jump\t// in\n    tag_365:\n        /* \"#utility.yul\":2458:2521   */\n      swap5\n      pop\n        /* \"#utility.yul\":2413:2531   */\n      pop\n        /* \"#utility.yul\":2570:2572   */\n      0x40\n        /* \"#utility.yul\":2596:2649   */\n      tag_366\n        /* \"#utility.yul\":2641:2648   */\n      dup9\n        /* \"#utility.yul\":2632:2638   */\n      dup3\n        /* \"#utility.yul\":2621:2630   */\n      dup10\n        /* \"#utility.yul\":2617:2639   */\n      add\n        /* \"#utility.yul\":2596:2649   */\n      tag_305\n      jump\t// in\n    tag_366:\n        /* \"#utility.yul\":2586:2649   */\n      swap4\n      pop\n        /* \"#utility.yul\":2541:2659   */\n      pop\n        /* \"#utility.yul\":2698:2700   */\n      0x60\n        /* \"#utility.yul\":2724:2777   */\n      tag_367\n        /* \"#utility.yul\":2769:2776   */\n      dup9\n        /* \"#utility.yul\":2760:2766   */\n      dup3\n        /* \"#utility.yul\":2749:2758   */\n      dup10\n        /* \"#utility.yul\":2745:2767   */\n      add\n        /* \"#utility.yul\":2724:2777   */\n      tag_305\n      jump\t// in\n    tag_367:\n        /* \"#utility.yul\":2714:2777   */\n      swap3\n      pop\n        /* \"#utility.yul\":2669:2787   */\n      pop\n        /* \"#utility.yul\":2826:2829   */\n      0x80\n        /* \"#utility.yul\":2853:2906   */\n      tag_368\n        /* \"#utility.yul\":2898:2905   */\n      dup9\n        /* \"#utility.yul\":2889:2895   */\n      dup3\n        /* \"#utility.yul\":2878:2887   */\n      dup10\n        /* \"#utility.yul\":2874:2896   */\n      add\n        /* \"#utility.yul\":2853:2906   */\n      tag_305\n      jump\t// in\n    tag_368:\n        /* \"#utility.yul\":2843:2906   */\n      swap2\n      pop\n        /* \"#utility.yul\":2797:2916   */\n      pop\n        /* \"#utility.yul\":2012:2923   */\n      swap3\n      swap6\n      pop\n      swap3\n      swap6\n      swap1\n      swap4\n      pop\n      jump\t// out\n        /* \"#utility.yul\":2929:3037   */\n    tag_306:\n        /* \"#utility.yul\":3006:3030   */\n      tag_370\n        /* \"#utility.yul\":3024:3029   */\n      dup2\n        /* \"#utility.yul\":3006:3030   */\n      tag_300\n      jump\t// in\n    tag_370:\n        /* \"#utility.yul\":3001:3004   */\n      dup3\n        /* \"#utility.yul\":2994:3031   */\n      mstore\n        /* \"#utility.yul\":2929:3037   */\n      pop\n      pop\n      jump\t// out\n        /* \"#utility.yul\":3043:3151   */\n    tag_307:\n        /* \"#utility.yul\":3120:3144   */\n      tag_372\n        /* \"#utility.yul\":3138:3143   */\n      dup2\n        /* \"#utility.yul\":3120:3144   */\n      tag_303\n      jump\t// in\n    tag_372:\n        /* \"#utility.yul\":3115:3118   */\n      dup3\n        /* \"#utility.yul\":3108:3145   */\n      mstore\n        /* \"#utility.yul\":3043:3151   */\n      pop\n      pop\n      jump\t// out\n        /* \"#utility.yul\":3217:4439   */\n    tag_308:\n        /* \"#utility.yul\":3364:3368   */\n      0xc0\n        /* \"#utility.yul\":3359:3362   */\n      dup3\n        /* \"#utility.yul\":3355:3369   */\n      add\n        /* \"#utility.yul\":3463:3467   */\n      0x00\n        /* \"#utility.yul\":3456:3461   */\n      dup3\n        /* \"#utility.yul\":3452:3468   */\n      add\n        /* \"#utility.yul\":3446:3469   */\n      mload\n        /* \"#utility.yul\":3482:3545   */\n      tag_374\n        /* \"#utility.yul\":3539:3543   */\n      0x00\n        /* \"#utility.yul\":3534:3537   */\n      dup6\n        /* \"#utility.yul\":3530:3544   */\n      add\n        /* \"#utility.yul\":3516:3528   */\n      dup3\n        /* \"#utility.yul\":3482:3545   */\n      tag_306\n      jump\t// in\n    tag_374:\n        /* \"#utility.yul\":3379:3555   */\n      pop\n        /* \"#utility.yul\":3638:3642   */\n      0x20\n        /* \"#utility.yul\":3631:3636   */\n      dup3\n        /* \"#utility.yul\":3627:3643   */\n      add\n        /* \"#utility.yul\":3621:3644   */\n      mload\n        /* \"#utility.yul\":3657:3720   */\n      tag_375\n        /* \"#utility.yul\":3714:3718   */\n      0x20\n        /* \"#utility.yul\":3709:3712   */\n      dup6\n        /* \"#utility.yul\":3705:3719   */\n      add\n        /* \"#utility.yul\":3691:3703   */\n      dup3\n        /* \"#utility.yul\":3657:3720   */\n      tag_307\n      jump\t// in\n    tag_375:\n        /* \"#utility.yul\":3565:3730   */\n      pop\n        /* \"#utility.yul\":3817:3821   */\n      0x40\n        /* \"#utility.yul\":3810:3815   */\n      dup3\n        /* \"#utility.yul\":3806:3822   */\n      add\n        /* \"#utility.yul\":3800:3823   */\n      mload\n        /* \"#utility.yul\":3836:3899   */\n      tag_376\n        /* \"#utility.yul\":3893:3897   */\n      0x40\n        /* \"#utility.yul\":3888:3891   */\n      dup6\n        /* \"#utility.yul\":3884:3898   */\n      add\n        /* \"#utility.yul\":3870:3882   */\n      dup3\n        /* \"#utility.yul\":3836:3899   */\n      tag_307\n      jump\t// in\n    tag_376:\n        /* \"#utility.yul\":3740:3909   */\n      pop\n        /* \"#utility.yul\":3991:3995   */\n      0x60\n        /* \"#utility.yul\":3984:3989   */\n      dup3\n        /* \"#utility.yul\":3980:3996   */\n      add\n        /* \"#utility.yul\":3974:3997   */\n      mload\n        /* \"#utility.yul\":4010:4073   */\n      tag_377\n        /* \"#utility.yul\":4067:4071   */\n      0x60\n        /* \"#utility.yul\":4062:4065   */\n      dup6\n        /* \"#utility.yul\":4058:4072   */\n      add\n        /* \"#utility.yul\":4044:4056   */\n      dup3\n        /* \"#utility.yul\":4010:4073   */\n      tag_307\n      jump\t// in\n    tag_377:\n        /* \"#utility.yul\":3919:4083   */\n      pop\n        /* \"#utility.yul\":4168:4172   */\n      0x80\n        /* \"#utility.yul\":4161:4166   */\n      dup3\n        /* \"#utility.yul\":4157:4173   */\n      add\n        /* \"#utility.yul\":4151:4174   */\n      mload\n        /* \"#utility.yul\":4187:4250   */\n      tag_378\n        /* \"#utility.yul\":4244:4248   */\n      0x80\n        /* \"#utility.yul\":4239:4242   */\n      dup6\n        /* \"#utility.yul\":4235:4249   */\n      add\n        /* \"#utility.yul\":4221:4233   */\n      dup3\n        /* \"#utility.yul\":4187:4250   */\n      tag_307\n      jump\t// in\n    tag_378:\n        /* \"#utility.yul\":4093:4260   */\n      pop\n        /* \"#utility.yul\":4340:4344   */\n      0xa0\n        /* \"#utility.yul\":4333:4338   */\n      dup3\n        /* \"#utility.yul\":4329:4345   */\n      add\n        /* \"#utility.yul\":4323:4346   */\n      mload\n        /* \"#utility.yul\":4359:4422   */\n      tag_379\n        /* \"#utility.yul\":4416:4420   */\n      0xa0\n        /* \"#utility.yul\":4411:4414   */\n      dup6\n        /* \"#utility.yul\":4407:4421   */\n      add\n        /* \"#utility.yul\":4393:4405   */\n      dup3\n        /* \"#utility.yul\":4359:4422   */\n      tag_307\n      jump\t// in\n    tag_379:\n        /* \"#utility.yul\":4270:4432   */\n      pop\n        /* \"#utility.yul\":3333:4439   */\n      pop\n        /* \"#utility.yul\":3217:4439   */\n      pop\n      pop\n      jump\t// out\n        /* \"#utility.yul\":4445:4768   */\n    tag_55:\n        /* \"#utility.yul\":4588:4592   */\n      0x00\n        /* \"#utility.yul\":4626:4629   */\n      0xc0\n        /* \"#utility.yul\":4615:4624   */\n      dup3\n        /* \"#utility.yul\":4611:4630   */\n      add\n        /* \"#utility.yul\":4603:4630   */\n      swap1\n      pop\n        /* \"#utility.yul\":4640:4761   */\n      tag_381\n        /* \"#utility.yul\":4758:4759   */\n      0x00\n        /* \"#utility.yul\":4747:4756   */\n      dup4\n        /* \"#utility.yul\":4743:4760   */\n      add\n        /* \"#utility.yul\":4734:4740   */\n      dup5\n        /* \"#utility.yul\":4640:4761   */\n      tag_308\n      jump\t// in\n    tag_381:\n        /* \"#utility.yul\":4445:4768   */\n      swap3\n      swap2\n      pop\n      pop\n      jump\t// out\n        /* \"#utility.yul\":4774:4878   */\n    tag_309:\n        /* \"#utility.yul\":4819:4826   */\n      0x00\n        /* \"#utility.yul\":4848:4872   */\n      tag_383\n        /* \"#utility.yul\":4866:4871   */\n      dup3\n        /* \"#utility.yul\":4848:4872   */\n      tag_299\n      jump\t// in\n    tag_383:\n        /* \"#utility.yul\":4837:4872   */\n      swap1\n      pop\n        /* \"#utility.yul\":4774:4878   */\n      swap2\n      swap1\n      pop\n      jump\t// out\n        /* \"#utility.yul\":4884:5022   */\n    tag_310:\n        /* \"#utility.yul\":4965:4997   */\n      tag_385\n        /* \"#utility.yul\":4991:4996   */\n      dup2\n        /* \"#utility.yul\":4965:4997   */\n      tag_309\n      jump\t// in\n    tag_385:\n        /* \"#utility.yul\":4958:4963   */\n      dup2\n        /* \"#utility.yul\":4955:4998   */\n      eq\n        /* \"#utility.yul\":4945:5016   */\n      tag_386\n      jumpi\n        /* \"#utility.yul\":5012:5013   */\n      0x00\n        /* \"#utility.yul\":5009:5010   */\n      dup1\n        /* \"#utility.yul\":5002:5014   */\n      revert\n        /* \"#utility.yul\":4945:5016   */\n    tag_386:\n        /* \"#utility.yul\":4884:5022   */\n      pop\n      jump\t// out\n        /* \"#utility.yul\":5028:5183   */\n    tag_311:\n        /* \"#utility.yul\":5082:5087   */\n      0x00\n        /* \"#utility.yul\":5120:5126   */\n      dup2\n        /* \"#utility.yul\":5107:5127   */\n      calldataload\n        /* \"#utility.yul\":5098:5127   */\n      swap1\n      pop\n        /* \"#utility.yul\":5136:5177   */\n      tag_388\n        /* \"#utility.yul\":5171:5176   */\n      dup2\n        /* \"#utility.yul\":5136:5177   */\n      tag_310\n      jump\t// in\n    tag_388:\n        /* \"#utility.yul\":5028:5183   */\n      swap3\n      swap2\n      pop\n      pop\n      jump\t// out\n        /* \"#utility.yul\":5189:5534   */\n    tag_59:\n        /* \"#utility.yul\":5256:5262   */\n      0x00\n        /* \"#utility.yul\":5305:5307   */\n      0x20\n        /* \"#utility.yul\":5293:5302   */\n      dup3\n        /* \"#utility.yul\":5284:5291   */\n      dup5\n        /* \"#utility.yul\":5280:5303   */\n      sub\n        /* \"#utility.yul\":5276:5308   */\n      slt\n        /* \"#utility.yul\":5273:5392   */\n      iszero\n      tag_390\n      jumpi\n        /* \"#utility.yul\":5311:5390   */\n      tag_391\n      tag_297\n      jump\t// in\n    tag_391:\n        /* \"#utility.yul\":5273:5392   */\n    tag_390:\n        /* \"#utility.yul\":5431:5432   */\n      0x00\n        /* \"#utility.yul\":5456:5517   */\n      tag_392\n        /* \"#utility.yul\":5509:5516   */\n      dup5\n        /* \"#utility.yul\":5500:5506   */\n      dup3\n        /* \"#utility.yul\":5489:5498   */\n      dup6\n        /* \"#utility.yul\":5485:5507   */\n      add\n        /* \"#utility.yul\":5456:5517   */\n      tag_311\n      jump\t// in\n    tag_392:\n        /* \"#utility.yul\":5446:5517   */\n      swap2\n      pop\n        /* \"#utility.yul\":5402:5527   */\n      pop\n        /* \"#utility.yul\":5189:5534   */\n      swap3\n      swap2\n      pop\n      pop\n      jump\t// out\n        /* \"#utility.yul\":5540:5658   */\n    tag_312:\n        /* \"#utility.yul\":5627:5651   */\n      tag_394\n        /* \"#utility.yul\":5645:5650   */\n      dup2\n        /* \"#utility.yul\":5627:5651   */\n      tag_303\n      jump\t// in\n    tag_394:\n        /* \"#utility.yul\":5622:5625   */\n      dup3\n        /* \"#utility.yul\":5615:5652   */\n      mstore\n        /* \"#utility.yul\":5540:5658   */\n      pop\n      pop\n      jump\t// out\n        /* \"#utility.yul\":5664:5886   */\n    tag_81:\n        /* \"#utility.yul\":5757:5761   */\n      0x00\n        /* \"#utility.yul\":5795:5797   */\n      0x20\n        /* \"#utility.yul\":5784:5793   */\n      dup3\n        /* \"#utility.yul\":5780:5798   */\n      add\n        /* \"#utility.yul\":5772:5798   */\n      swap1\n      pop\n        /* \"#utility.yul\":5808:5879   */\n      tag_396\n        /* \"#utility.yul\":5876:5877   */\n      0x00\n        /* \"#utility.yul\":5865:5874   */\n      dup4\n        /* \"#utility.yul\":5861:5878   */\n      add\n        /* \"#utility.yul\":5852:5858   */\n      dup5\n        /* \"#utility.yul\":5808:5879   */\n      tag_312\n      jump\t// in\n    tag_396:\n        /* \"#utility.yul\":5664:5886   */\n      swap3\n      swap2\n      pop\n      pop\n      jump\t// out\n        /* \"#utility.yul\":5892:6010   */\n    tag_313:\n        /* \"#utility.yul\":5979:6003   */\n      tag_398\n        /* \"#utility.yul\":5997:6002   */\n      dup2\n        /* \"#utility.yul\":5979:6003   */\n      tag_300\n      jump\t// in\n    tag_398:\n        /* \"#utility.yul\":5974:5977   */\n      dup3\n        /* \"#utility.yul\":5967:6004   */\n      mstore\n        /* \"#utility.yul\":5892:6010   */\n      pop\n      pop\n      jump\t// out\n        /* \"#utility.yul\":6016:6238   */\n    tag_91:\n        /* \"#utility.yul\":6109:6113   */\n      0x00\n        /* \"#utility.yul\":6147:6149   */\n      0x20\n        /* \"#utility.yul\":6136:6145   */\n      dup3\n        /* \"#utility.yul\":6132:6150   */\n      add\n        /* \"#utility.yul\":6124:6150   */\n      swap1\n      pop\n        /* \"#utility.yul\":6160:6231   */\n      tag_400\n        /* \"#utility.yul\":6228:6229   */\n      0x00\n        /* \"#utility.yul\":6217:6226   */\n      dup4\n        /* \"#utility.yul\":6213:6230   */\n      add\n        /* \"#utility.yul\":6204:6210   */\n      dup5\n        /* \"#utility.yul\":6160:6231   */\n      tag_313\n      jump\t// in\n    tag_400:\n        /* \"#utility.yul\":6016:6238   */\n      swap3\n      swap2\n      pop\n      pop\n      jump\t// out\n        /* \"#utility.yul\":6244:6413   */\n    tag_314:\n        /* \"#utility.yul\":6328:6339   */\n      0x00\n        /* \"#utility.yul\":6362:6368   */\n      dup3\n        /* \"#utility.yul\":6357:6360   */\n      dup3\n        /* \"#utility.yul\":6350:6369   */\n      mstore\n        /* \"#utility.yul\":6402:6406   */\n      0x20\n        /* \"#utility.yul\":6397:6400   */\n      dup3\n        /* \"#utility.yul\":6393:6407   */\n      add\n        /* \"#utility.yul\":6378:6407   */\n      swap1\n      pop\n        /* \"#utility.yul\":6244:6413   */\n      swap3\n      swap2\n      pop\n      pop\n      jump\t// out\n        /* \"#utility.yul\":6419:6640   */\n    tag_315:\n        /* \"#utility.yul\":6559:6593   */\n      0x546869732061646472657373206973206e6f7420636f6e7472616374204f776e\n        /* \"#utility.yul\":6555:6556   */\n      0x00\n        /* \"#utility.yul\":6547:6553   */\n      dup3\n        /* \"#utility.yul\":6543:6557   */\n      add\n        /* \"#utility.yul\":6536:6594   */\n      mstore\n        /* \"#utility.yul\":6628:6632   */\n      0x6572000000000000000000000000000000000000000000000000000000000000\n        /* \"#utility.yul\":6623:6625   */\n      0x20\n        /* \"#utility.yul\":6615:6621   */\n      dup3\n        /* \"#utility.yul\":6611:6626   */\n      add\n        /* \"#utility.yul\":6604:6633   */\n      mstore\n        /* \"#utility.yul\":6419:6640   */\n      pop\n      jump\t// out\n        /* \"#utility.yul\":6646:7012   */\n    tag_316:\n        /* \"#utility.yul\":6788:6791   */\n      0x00\n        /* \"#utility.yul\":6809:6876   */\n      tag_404\n        /* \"#utility.yul\":6873:6875   */\n      0x22\n        /* \"#utility.yul\":6868:6871   */\n      dup4\n        /* \"#utility.yul\":6809:6876   */\n      tag_314\n      jump\t// in\n    tag_404:\n        /* \"#utility.yul\":6802:6876   */\n      swap2\n      pop\n        /* \"#utility.yul\":6885:6978   */\n      tag_405\n        /* \"#utility.yul\":6974:6977   */\n      dup3\n        /* \"#utility.yul\":6885:6978   */\n      tag_315\n      jump\t// in\n    tag_405:\n        /* \"#utility.yul\":7003:7005   */\n      0x40\n        /* \"#utility.yul\":6998:7001   */\n      dup3\n        /* \"#utility.yul\":6994:7006   */\n      add\n        /* \"#utility.yul\":6987:7006   */\n      swap1\n      pop\n        /* \"#utility.yul\":6646:7012   */\n      swap2\n      swap1\n      pop\n      jump\t// out\n        /* \"#utility.yul\":7018:7437   */\n    tag_117:\n        /* \"#utility.yul\":7184:7188   */\n      0x00\n        /* \"#utility.yul\":7222:7224   */\n      0x20\n        /* \"#utility.yul\":7211:7220   */\n      dup3\n        /* \"#utility.yul\":7207:7225   */\n      add\n        /* \"#utility.yul\":7199:7225   */\n      swap1\n      pop\n        /* \"#utility.yul\":7271:7280   */\n      dup2\n        /* \"#utility.yul\":7265:7269   */\n      dup2\n        /* \"#utility.yul\":7261:7281   */\n      sub\n        /* \"#utility.yul\":7257:7258   */\n      0x00\n        /* \"#utility.yul\":7246:7255   */\n      dup4\n        /* \"#utility.yul\":7242:7259   */\n      add\n        /* \"#utility.yul\":7235:7282   */\n      mstore\n        /* \"#utility.yul\":7299:7430   */\n      tag_407\n        /* \"#utility.yul\":7425:7429   */\n      dup2\n        /* \"#utility.yul\":7299:7430   */\n      tag_316\n      jump\t// in\n    tag_407:\n        /* \"#utility.yul\":7291:7430   */\n      swap1\n      pop\n        /* \"#utility.yul\":7018:7437   */\n      swap2\n      swap1\n      pop\n      jump\t// out\n        /* \"#utility.yul\":7443:7622   */\n    tag_317:\n        /* \"#utility.yul\":7583:7614   */\n      0x54686973206163636f756e7420697320616c7265616479206578697374000000\n        /* \"#utility.yul\":7579:7580   */\n      0x00\n        /* \"#utility.yul\":7571:7577   */\n      dup3\n        /* \"#utility.yul\":7567:7581   */\n      add\n        /* \"#utility.yul\":7560:7615   */\n      mstore\n        /* \"#utility.yul\":7443:7622   */\n      pop\n      jump\t// out\n        /* \"#utility.yul\":7628:7994   */\n    tag_318:\n        /* \"#utility.yul\":7770:7773   */\n      0x00\n        /* \"#utility.yul\":7791:7858   */\n      tag_410\n        /* \"#utility.yul\":7855:7857   */\n      0x1d\n        /* \"#utility.yul\":7850:7853   */\n      dup4\n        /* \"#utility.yul\":7791:7858   */\n      tag_314\n      jump\t// in\n    tag_410:\n        /* \"#utility.yul\":7784:7858   */\n      swap2\n      pop\n        /* \"#utility.yul\":7867:7960   */\n      tag_411\n        /* \"#utility.yul\":7956:7959   */\n      dup3\n        /* \"#utility.yul\":7867:7960   */\n      tag_317\n      jump\t// in\n    tag_411:\n        /* \"#utility.yul\":7985:7987   */\n      0x20\n        /* \"#utility.yul\":7980:7983   */\n      dup3\n        /* \"#utility.yul\":7976:7988   */\n      add\n        /* \"#utility.yul\":7969:7988   */\n      swap1\n      pop\n        /* \"#utility.yul\":7628:7994   */\n      swap2\n      swap1\n      pop\n      jump\t// out\n        /* \"#utility.yul\":8000:8419   */\n    tag_121:\n        /* \"#utility.yul\":8166:8170   */\n      0x00\n        /* \"#utility.yul\":8204:8206   */\n      0x20\n        /* \"#utility.yul\":8193:8202   */\n      dup3\n        /* \"#utility.yul\":8189:8207   */\n      add\n        /* \"#utility.yul\":8181:8207   */\n      swap1\n      pop\n        /* \"#utility.yul\":8253:8262   */\n      dup2\n        /* \"#utility.yul\":8247:8251   */\n      dup2\n        /* \"#utility.yul\":8243:8263   */\n      sub\n        /* \"#utility.yul\":8239:8240   */\n      0x00\n        /* \"#utility.yul\":8228:8237   */\n      dup4\n        /* \"#utility.yul\":8224:8241   */\n      add\n        /* \"#utility.yul\":8217:8264   */\n      mstore\n        /* \"#utility.yul\":8281:8412   */\n      tag_413\n        /* \"#utility.yul\":8407:8411   */\n      dup2\n        /* \"#utility.yul\":8281:8412   */\n      tag_318\n      jump\t// in\n    tag_413:\n        /* \"#utility.yul\":8273:8412   */\n      swap1\n      pop\n        /* \"#utility.yul\":8000:8419   */\n      swap2\n      swap1\n      pop\n      jump\t// out\n        /* \"#utility.yul\":8425:8605   */\n    tag_319:\n        /* \"#utility.yul\":8473:8550   */\n      0x4e487b7100000000000000000000000000000000000000000000000000000000\n        /* \"#utility.yul\":8470:8471   */\n      0x00\n        /* \"#utility.yul\":8463:8551   */\n      mstore\n        /* \"#utility.yul\":8570:8574   */\n      0x11\n        /* \"#utility.yul\":8567:8568   */\n      0x04\n        /* \"#utility.yul\":8560:8575   */\n      mstore\n        /* \"#utility.yul\":8594:8598   */\n      0x24\n        /* \"#utility.yul\":8591:8592   */\n      0x00\n        /* \"#utility.yul\":8584:8599   */\n      revert\n        /* \"#utility.yul\":8611:8805   */\n    tag_123:\n        /* \"#utility.yul\":8651:8655   */\n      0x00\n        /* \"#utility.yul\":8671:8691   */\n      tag_416\n        /* \"#utility.yul\":8689:8690   */\n      dup3\n        /* \"#utility.yul\":8671:8691   */\n      tag_303\n      jump\t// in\n    tag_416:\n        /* \"#utility.yul\":8666:8691   */\n      swap2\n      pop\n        /* \"#utility.yul\":8705:8725   */\n      tag_417\n        /* \"#utility.yul\":8723:8724   */\n      dup4\n        /* \"#utility.yul\":8705:8725   */\n      tag_303\n      jump\t// in\n    tag_417:\n        /* \"#utility.yul\":8700:8725   */\n      swap3\n      pop\n        /* \"#utility.yul\":8749:8750   */\n      dup3\n        /* \"#utility.yul\":8746:8747   */\n      dup3\n        /* \"#utility.yul\":8742:8751   */\n      sub\n        /* \"#utility.yul\":8734:8751   */\n      swap1\n      pop\n        /* \"#utility.yul\":8773:8774   */\n      dup2\n        /* \"#utility.yul\":8767:8771   */\n      dup2\n        /* \"#utility.yul\":8764:8775   */\n      gt\n        /* \"#utility.yul\":8761:8798   */\n      iszero\n      tag_418\n      jumpi\n        /* \"#utility.yul\":8778:8796   */\n      tag_419\n      tag_319\n      jump\t// in\n    tag_419:\n        /* \"#utility.yul\":8761:8798   */\n    tag_418:\n        /* \"#utility.yul\":8611:8805   */\n      swap3\n      swap2\n      pop\n      pop\n      jump\t// out\n        /* \"#utility.yul\":8811:9002   */\n    tag_126:\n        /* \"#utility.yul\":8851:8854   */\n      0x00\n        /* \"#utility.yul\":8870:8890   */\n      tag_421\n        /* \"#utility.yul\":8888:8889   */\n      dup3\n        /* \"#utility.yul\":8870:8890   */\n      tag_303\n      jump\t// in\n    tag_421:\n        /* \"#utility.yul\":8865:8890   */\n      swap2\n      pop\n        /* \"#utility.yul\":8904:8924   */\n      tag_422\n        /* \"#utility.yul\":8922:8923   */\n      dup4\n        /* \"#utility.yul\":8904:8924   */\n      tag_303\n      jump\t// in\n    tag_422:\n        /* \"#utility.yul\":8899:8924   */\n      swap3\n      pop\n        /* \"#utility.yul\":8947:8948   */\n      dup3\n        /* \"#utility.yul\":8944:8945   */\n      dup3\n        /* \"#utility.yul\":8940:8949   */\n      add\n        /* \"#utility.yul\":8933:8949   */\n      swap1\n      pop\n        /* \"#utility.yul\":8968:8971   */\n      dup1\n        /* \"#utility.yul\":8965:8966   */\n      dup3\n        /* \"#utility.yul\":8962:8972   */\n      gt\n        /* \"#utility.yul\":8959:8995   */\n      iszero\n      tag_423\n      jumpi\n        /* \"#utility.yul\":8975:8993   */\n      tag_424\n      tag_319\n      jump\t// in\n    tag_424:\n        /* \"#utility.yul\":8959:8995   */\n    tag_423:\n        /* \"#utility.yul\":8811:9002   */\n      swap3\n      swap2\n      pop\n      pop\n      jump\t// out\n        /* \"#utility.yul\":9008:9182   */\n    tag_320:\n        /* \"#utility.yul\":9148:9174   */\n      0x54686973206163636f756e742069736e27742065786973740000000000000000\n        /* \"#utility.yul\":9144:9145   */\n      0x00\n        /* \"#utility.yul\":9136:9142   */\n      dup3\n        /* \"#utility.yul\":9132:9146   */\n      add\n        /* \"#utility.yul\":9125:9175   */\n      mstore\n        /* \"#utility.yul\":9008:9182   */\n      pop\n      jump\t// out\n        /* \"#utility.yul\":9188:9554   */\n    tag_321:\n        /* \"#utility.yul\":9330:9333   */\n      0x00\n        /* \"#utility.yul\":9351:9418   */\n      tag_427\n        /* \"#utility.yul\":9415:9417   */\n      0x18\n        /* \"#utility.yul\":9410:9413   */\n      dup4\n        /* \"#utility.yul\":9351:9418   */\n      tag_314\n      jump\t// in\n    tag_427:\n        /* \"#utility.yul\":9344:9418   */\n      swap2\n      pop\n        /* \"#utility.yul\":9427:9520   */\n      tag_428\n        /* \"#utility.yul\":9516:9519   */\n      dup3\n        /* \"#utility.yul\":9427:9520   */\n      tag_320\n      jump\t// in\n    tag_428:\n        /* \"#utility.yul\":9545:9547   */\n      0x20\n        /* \"#utility.yul\":9540:9543   */\n      dup3\n        /* \"#utility.yul\":9536:9548   */\n      add\n        /* \"#utility.yul\":9529:9548   */\n      swap1\n      pop\n        /* \"#utility.yul\":9188:9554   */\n      swap2\n      swap1\n      pop\n      jump\t// out\n        /* \"#utility.yul\":9560:9979   */\n    tag_133:\n        /* \"#utility.yul\":9726:9730   */\n      0x00\n        /* \"#utility.yul\":9764:9766   */\n      0x20\n        /* \"#utility.yul\":9753:9762   */\n      dup3\n        /* \"#utility.yul\":9749:9767   */\n      add\n        /* \"#utility.yul\":9741:9767   */\n      swap1\n      pop\n        /* \"#utility.yul\":9813:9822   */\n      dup2\n        /* \"#utility.yul\":9807:9811   */\n      dup2\n        /* \"#utility.yul\":9803:9823   */\n      sub\n        /* \"#utility.yul\":9799:9800   */\n      0x00\n        /* \"#utility.yul\":9788:9797   */\n      dup4\n        /* \"#utility.yul\":9784:9801   */\n      add\n        /* \"#utility.yul\":9777:9824   */\n      mstore\n        /* \"#utility.yul\":9841:9972   */\n      tag_430\n        /* \"#utility.yul\":9967:9971   */\n      dup2\n        /* \"#utility.yul\":9841:9972   */\n      tag_321\n      jump\t// in\n    tag_430:\n        /* \"#utility.yul\":9833:9972   */\n      swap1\n      pop\n        /* \"#utility.yul\":9560:9979   */\n      swap2\n      swap1\n      pop\n      jump\t// out\n        /* \"#utility.yul\":9985:10395   */\n    tag_135:\n        /* \"#utility.yul\":10025:10032   */\n      0x00\n        /* \"#utility.yul\":10048:10068   */\n      tag_432\n        /* \"#utility.yul\":10066:10067   */\n      dup3\n        /* \"#utility.yul\":10048:10068   */\n      tag_303\n      jump\t// in\n    tag_432:\n        /* \"#utility.yul\":10043:10068   */\n      swap2\n      pop\n        /* \"#utility.yul\":10082:10102   */\n      tag_433\n        /* \"#utility.yul\":10100:10101   */\n      dup4\n        /* \"#utility.yul\":10082:10102   */\n      tag_303\n      jump\t// in\n    tag_433:\n        /* \"#utility.yul\":10077:10102   */\n      swap3\n      pop\n        /* \"#utility.yul\":10137:10138   */\n      dup3\n        /* \"#utility.yul\":10134:10135   */\n      dup3\n        /* \"#utility.yul\":10130:10139   */\n      mul\n        /* \"#utility.yul\":10159:10189   */\n      tag_434\n        /* \"#utility.yul\":10177:10188   */\n      dup2\n        /* \"#utility.yul\":10159:10189   */\n      tag_303\n      jump\t// in\n    tag_434:\n        /* \"#utility.yul\":10148:10189   */\n      swap2\n      pop\n        /* \"#utility.yul\":10338:10339   */\n      dup3\n        /* \"#utility.yul\":10329:10336   */\n      dup3\n        /* \"#utility.yul\":10325:10340   */\n      div\n        /* \"#utility.yul\":10322:10323   */\n      dup5\n        /* \"#utility.yul\":10319:10341   */\n      eq\n        /* \"#utility.yul\":10299:10300   */\n      dup4\n        /* \"#utility.yul\":10292:10301   */\n      iszero\n        /* \"#utility.yul\":10272:10355   */\n      or\n        /* \"#utility.yul\":10249:10388   */\n      tag_435\n      jumpi\n        /* \"#utility.yul\":10368:10386   */\n      tag_436\n      tag_319\n      jump\t// in\n    tag_436:\n        /* \"#utility.yul\":10249:10388   */\n    tag_435:\n        /* \"#utility.yul\":10033:10395   */\n      pop\n        /* \"#utility.yul\":9985:10395   */\n      swap3\n      swap2\n      pop\n      pop\n      jump\t// out\n        /* \"#utility.yul\":10401:10569   */\n    tag_322:\n        /* \"#utility.yul\":10541:10561   */\n      0x596f7520646f6e27742067697665204554480000000000000000000000000000\n        /* \"#utility.yul\":10537:10538   */\n      0x00\n        /* \"#utility.yul\":10529:10535   */\n      dup3\n        /* \"#utility.yul\":10525:10539   */\n      add\n        /* \"#utility.yul\":10518:10562   */\n      mstore\n        /* \"#utility.yul\":10401:10569   */\n      pop\n      jump\t// out\n        /* \"#utility.yul\":10575:10941   */\n    tag_323:\n        /* \"#utility.yul\":10717:10720   */\n      0x00\n        /* \"#utility.yul\":10738:10805   */\n      tag_439\n        /* \"#utility.yul\":10802:10804   */\n      0x12\n        /* \"#utility.yul\":10797:10800   */\n      dup4\n        /* \"#utility.yul\":10738:10805   */\n      tag_314\n      jump\t// in\n    tag_439:\n        /* \"#utility.yul\":10731:10805   */\n      swap2\n      pop\n        /* \"#utility.yul\":10814:10907   */\n      tag_440\n        /* \"#utility.yul\":10903:10906   */\n      dup3\n        /* \"#utility.yul\":10814:10907   */\n      tag_322\n      jump\t// in\n    tag_440:\n        /* \"#utility.yul\":10932:10934   */\n      0x20\n        /* \"#utility.yul\":10927:10930   */\n      dup3\n        /* \"#utility.yul\":10923:10935   */\n      add\n        /* \"#utility.yul\":10916:10935   */\n      swap1\n      pop\n        /* \"#utility.yul\":10575:10941   */\n      swap2\n      swap1\n      pop\n      jump\t// out\n        /* \"#utility.yul\":10947:11366   */\n    tag_147:\n        /* \"#utility.yul\":11113:11117   */\n      0x00\n        /* \"#utility.yul\":11151:11153   */\n      0x20\n        /* \"#utility.yul\":11140:11149   */\n      dup3\n        /* \"#utility.yul\":11136:11154   */\n      add\n        /* \"#utility.yul\":11128:11154   */\n      swap1\n      pop\n        /* \"#utility.yul\":11200:11209   */\n      dup2\n        /* \"#utility.yul\":11194:11198   */\n      dup2\n        /* \"#utility.yul\":11190:11210   */\n      sub\n        /* \"#utility.yul\":11186:11187   */\n      0x00\n        /* \"#utility.yul\":11175:11184   */\n      dup4\n        /* \"#utility.yul\":11171:11188   */\n      add\n        /* \"#utility.yul\":11164:11211   */\n      mstore\n        /* \"#utility.yul\":11228:11359   */\n      tag_442\n        /* \"#utility.yul\":11354:11358   */\n      dup2\n        /* \"#utility.yul\":11228:11359   */\n      tag_323\n      jump\t// in\n    tag_442:\n        /* \"#utility.yul\":11220:11359   */\n      swap1\n      pop\n        /* \"#utility.yul\":10947:11366   */\n      swap2\n      swap1\n      pop\n      jump\t// out\n        /* \"#utility.yul\":11372:11552   */\n    tag_154:\n        /* \"#utility.yul\":11420:11497   */\n      0x4e487b7100000000000000000000000000000000000000000000000000000000\n        /* \"#utility.yul\":11417:11418   */\n      0x00\n        /* \"#utility.yul\":11410:11498   */\n      mstore\n        /* \"#utility.yul\":11517:11521   */\n      0x32\n        /* \"#utility.yul\":11514:11515   */\n      0x04\n        /* \"#utility.yul\":11507:11522   */\n      mstore\n        /* \"#utility.yul\":11541:11545   */\n      0x24\n        /* \"#utility.yul\":11538:11539   */\n      0x00\n        /* \"#utility.yul\":11531:11546   */\n      revert\n        /* \"#utility.yul\":11558:11738   */\n    tag_324:\n        /* \"#utility.yul\":11606:11683   */\n      0x4e487b7100000000000000000000000000000000000000000000000000000000\n        /* \"#utility.yul\":11603:11604   */\n      0x00\n        /* \"#utility.yul\":11596:11684   */\n      mstore\n        /* \"#utility.yul\":11703:11707   */\n      0x12\n        /* \"#utility.yul\":11700:11701   */\n      0x04\n        /* \"#utility.yul\":11693:11708   */\n      mstore\n        /* \"#utility.yul\":11727:11731   */\n      0x24\n        /* \"#utility.yul\":11724:11725   */\n      0x00\n        /* \"#utility.yul\":11717:11732   */\n      revert\n        /* \"#utility.yul\":11744:11929   */\n    tag_181:\n        /* \"#utility.yul\":11784:11785   */\n      0x00\n        /* \"#utility.yul\":11801:11821   */\n      tag_446\n        /* \"#utility.yul\":11819:11820   */\n      dup3\n        /* \"#utility.yul\":11801:11821   */\n      tag_303\n      jump\t// in\n    tag_446:\n        /* \"#utility.yul\":11796:11821   */\n      swap2\n      pop\n        /* \"#utility.yul\":11835:11855   */\n      tag_447\n        /* \"#utility.yul\":11853:11854   */\n      dup4\n        /* \"#utility.yul\":11835:11855   */\n      tag_303\n      jump\t// in\n    tag_447:\n        /* \"#utility.yul\":11830:11855   */\n      swap3\n      pop\n        /* \"#utility.yul\":11874:11875   */\n      dup3\n        /* \"#utility.yul\":11864:11899   */\n      tag_448\n      jumpi\n        /* \"#utility.yul\":11879:11897   */\n      tag_449\n      tag_324\n      jump\t// in\n    tag_449:\n        /* \"#utility.yul\":11864:11899   */\n    tag_448:\n        /* \"#utility.yul\":11921:11922   */\n      dup3\n        /* \"#utility.yul\":11918:11919   */\n      dup3\n        /* \"#utility.yul\":11914:11923   */\n      div\n        /* \"#utility.yul\":11909:11923   */\n      swap1\n      pop\n        /* \"#utility.yul\":11744:11929   */\n      swap3\n      swap2\n      pop\n      pop\n      jump\t// out\n        /* \"#utility.yul\":11935:11995   */\n    tag_325:\n        /* \"#utility.yul\":11963:11966   */\n      0x00\n        /* \"#utility.yul\":11984:11989   */\n      dup2\n        /* \"#utility.yul\":11977:11989   */\n      swap1\n      pop\n        /* \"#utility.yul\":11935:11995   */\n      swap2\n      swap1\n      pop\n      jump\t// out\n        /* \"#utility.yul\":12001:12143   */\n    tag_326:\n        /* \"#utility.yul\":12051:12060   */\n      0x00\n        /* \"#utility.yul\":12084:12137   */\n      tag_452\n        /* \"#utility.yul\":12102:12136   */\n      tag_453\n        /* \"#utility.yul\":12111:12135   */\n      tag_454\n        /* \"#utility.yul\":12129:12134   */\n      dup5\n        /* \"#utility.yul\":12111:12135   */\n      tag_299\n      jump\t// in\n    tag_454:\n        /* \"#utility.yul\":12102:12136   */\n      tag_325\n      jump\t// in\n    tag_453:\n        /* \"#utility.yul\":12084:12137   */\n      tag_299\n      jump\t// in\n    tag_452:\n        /* \"#utility.yul\":12071:12137   */\n      swap1\n      pop\n        /* \"#utility.yul\":12001:12143   */\n      swap2\n      swap1\n      pop\n      jump\t// out\n        /* \"#utility.yul\":12149:12275   */\n    tag_327:\n        /* \"#utility.yul\":12199:12208   */\n      0x00\n        /* \"#utility.yul\":12232:12269   */\n      tag_456\n        /* \"#utility.yul\":12263:12268   */\n      dup3\n        /* \"#utility.yul\":12232:12269   */\n      tag_326\n      jump\t// in\n    tag_456:\n        /* \"#utility.yul\":12219:12269   */\n      swap1\n      pop\n        /* \"#utility.yul\":12149:12275   */\n      swap2\n      swap1\n      pop\n      jump\t// out\n        /* \"#utility.yul\":12281:12415   */\n    tag_328:\n        /* \"#utility.yul\":12339:12348   */\n      0x00\n        /* \"#utility.yul\":12372:12409   */\n      tag_458\n        /* \"#utility.yul\":12403:12408   */\n      dup3\n        /* \"#utility.yul\":12372:12409   */\n      tag_327\n      jump\t// in\n    tag_458:\n        /* \"#utility.yul\":12359:12409   */\n      swap1\n      pop\n        /* \"#utility.yul\":12281:12415   */\n      swap2\n      swap1\n      pop\n      jump\t// out\n        /* \"#utility.yul\":12421:12568   */\n    tag_329:\n        /* \"#utility.yul\":12516:12561   */\n      tag_460\n        /* \"#utility.yul\":12555:12560   */\n      dup2\n        /* \"#utility.yul\":12516:12561   */\n      tag_328\n      jump\t// in\n    tag_460:\n        /* \"#utility.yul\":12511:12514   */\n      dup3\n        /* \"#utility.yul\":12504:12562   */\n      mstore\n        /* \"#utility.yul\":12421:12568   */\n      pop\n      pop\n      jump\t// out\n        /* \"#utility.yul\":12574:13032   */\n    tag_188:\n        /* \"#utility.yul\":12731:12735   */\n      0x00\n        /* \"#utility.yul\":12769:12771   */\n      0x60\n        /* \"#utility.yul\":12758:12767   */\n      dup3\n        /* \"#utility.yul\":12754:12772   */\n      add\n        /* \"#utility.yul\":12746:12772   */\n      swap1\n      pop\n        /* \"#utility.yul\":12782:12861   */\n      tag_462\n        /* \"#utility.yul\":12858:12859   */\n      0x00\n        /* \"#utility.yul\":12847:12856   */\n      dup4\n        /* \"#utility.yul\":12843:12860   */\n      add\n        /* \"#utility.yul\":12834:12840   */\n      dup7\n        /* \"#utility.yul\":12782:12861   */\n      tag_329\n      jump\t// in\n    tag_462:\n        /* \"#utility.yul\":12871:12943   */\n      tag_463\n        /* \"#utility.yul\":12939:12941   */\n      0x20\n        /* \"#utility.yul\":12928:12937   */\n      dup4\n        /* \"#utility.yul\":12924:12942   */\n      add\n        /* \"#utility.yul\":12915:12921   */\n      dup6\n        /* \"#utility.yul\":12871:12943   */\n      tag_312\n      jump\t// in\n    tag_463:\n        /* \"#utility.yul\":12953:13025   */\n      tag_464\n        /* \"#utility.yul\":13021:13023   */\n      0x40\n        /* \"#utility.yul\":13010:13019   */\n      dup4\n        /* \"#utility.yul\":13006:13024   */\n      add\n        /* \"#utility.yul\":12997:13003   */\n      dup5\n        /* \"#utility.yul\":12953:13025   */\n      tag_312\n      jump\t// in\n    tag_464:\n        /* \"#utility.yul\":12574:13032   */\n      swap5\n      swap4\n      pop\n      pop\n      pop\n      pop\n      jump\t// out\n        /* \"#utility.yul\":13038:13266   */\n    tag_330:\n        /* \"#utility.yul\":13178:13212   */\n      0x5468697320616464726573732068617320696e73756666696369656e74207065\n        /* \"#utility.yul\":13174:13175   */\n      0x00\n        /* \"#utility.yul\":13166:13172   */\n      dup3\n        /* \"#utility.yul\":13162:13176   */\n      add\n        /* \"#utility.yul\":13155:13213   */\n      mstore\n        /* \"#utility.yul\":13247:13258   */\n      0x726d697373696f6e730000000000000000000000000000000000000000000000\n        /* \"#utility.yul\":13242:13244   */\n      0x20\n        /* \"#utility.yul\":13234:13240   */\n      dup3\n        /* \"#utility.yul\":13230:13245   */\n      add\n        /* \"#utility.yul\":13223:13259   */\n      mstore\n        /* \"#utility.yul\":13038:13266   */\n      pop\n      jump\t// out\n        /* \"#utility.yul\":13272:13638   */\n    tag_331:\n        /* \"#utility.yul\":13414:13417   */\n      0x00\n        /* \"#utility.yul\":13435:13502   */\n      tag_467\n        /* \"#utility.yul\":13499:13501   */\n      0x29\n        /* \"#utility.yul\":13494:13497   */\n      dup4\n        /* \"#utility.yul\":13435:13502   */\n      tag_314\n      jump\t// in\n    tag_467:\n        /* \"#utility.yul\":13428:13502   */\n      swap2\n      pop\n        /* \"#utility.yul\":13511:13604   */\n      tag_468\n        /* \"#utility.yul\":13600:13603   */\n      dup3\n        /* \"#utility.yul\":13511:13604   */\n      tag_330\n      jump\t// in\n    tag_468:\n        /* \"#utility.yul\":13629:13631   */\n      0x40\n        /* \"#utility.yul\":13624:13627   */\n      dup3\n        /* \"#utility.yul\":13620:13632   */\n      add\n        /* \"#utility.yul\":13613:13632   */\n      swap1\n      pop\n        /* \"#utility.yul\":13272:13638   */\n      swap2\n      swap1\n      pop\n      jump\t// out\n        /* \"#utility.yul\":13644:14063   */\n    tag_216:\n        /* \"#utility.yul\":13810:13814   */\n      0x00\n        /* \"#utility.yul\":13848:13850   */\n      0x20\n        /* \"#utility.yul\":13837:13846   */\n      dup3\n        /* \"#utility.yul\":13833:13851   */\n      add\n        /* \"#utility.yul\":13825:13851   */\n      swap1\n      pop\n        /* \"#utility.yul\":13897:13906   */\n      dup2\n        /* \"#utility.yul\":13891:13895   */\n      dup2\n        /* \"#utility.yul\":13887:13907   */\n      sub\n        /* \"#utility.yul\":13883:13884   */\n      0x00\n        /* \"#utility.yul\":13872:13881   */\n      dup4\n        /* \"#utility.yul\":13868:13885   */\n      add\n        /* \"#utility.yul\":13861:13908   */\n      mstore\n        /* \"#utility.yul\":13925:14056   */\n      tag_470\n        /* \"#utility.yul\":14051:14055   */\n      dup2\n        /* \"#utility.yul\":13925:14056   */\n      tag_331\n      jump\t// in\n    tag_470:\n        /* \"#utility.yul\":13917:14056   */\n      swap1\n      pop\n        /* \"#utility.yul\":13644:14063   */\n      swap2\n      swap1\n      pop\n      jump\t// out\n        /* \"#utility.yul\":14069:14246   */\n    tag_332:\n        /* \"#utility.yul\":14209:14238   */\n      0x5374616b696e672076616c7565206973206e6f7420656e6f7567680000000000\n        /* \"#utility.yul\":14205:14206   */\n      0x00\n        /* \"#utility.yul\":14197:14203   */\n      dup3\n        /* \"#utility.yul\":14193:14207   */\n      add\n        /* \"#utility.yul\":14186:14239   */\n      mstore\n        /* \"#utility.yul\":14069:14246   */\n      pop\n      jump\t// out\n        /* \"#utility.yul\":14252:14618   */\n    tag_333:\n        /* \"#utility.yul\":14394:14397   */\n      0x00\n        /* \"#utility.yul\":14415:14482   */\n      tag_473\n        /* \"#utility.yul\":14479:14481   */\n      0x1b\n        /* \"#utility.yul\":14474:14477   */\n      dup4\n        /* \"#utility.yul\":14415:14482   */\n      tag_314\n      jump\t// in\n    tag_473:\n        /* \"#utility.yul\":14408:14482   */\n      swap2\n      pop\n        /* \"#utility.yul\":14491:14584   */\n      tag_474\n        /* \"#utility.yul\":14580:14583   */\n      dup3\n        /* \"#utility.yul\":14491:14584   */\n      tag_332\n      jump\t// in\n    tag_474:\n        /* \"#utility.yul\":14609:14611   */\n      0x20\n        /* \"#utility.yul\":14604:14607   */\n      dup3\n        /* \"#utility.yul\":14600:14612   */\n      add\n        /* \"#utility.yul\":14593:14612   */\n      swap1\n      pop\n        /* \"#utility.yul\":14252:14618   */\n      swap2\n      swap1\n      pop\n      jump\t// out\n        /* \"#utility.yul\":14624:15043   */\n    tag_283:\n        /* \"#utility.yul\":14790:14794   */\n      0x00\n        /* \"#utility.yul\":14828:14830   */\n      0x20\n        /* \"#utility.yul\":14817:14826   */\n      dup3\n        /* \"#utility.yul\":14813:14831   */\n      add\n        /* \"#utility.yul\":14805:14831   */\n      swap1\n      pop\n        /* \"#utility.yul\":14877:14886   */\n      dup2\n        /* \"#utility.yul\":14871:14875   */\n      dup2\n        /* \"#utility.yul\":14867:14887   */\n      sub\n        /* \"#utility.yul\":14863:14864   */\n      0x00\n        /* \"#utility.yul\":14852:14861   */\n      dup4\n        /* \"#utility.yul\":14848:14865   */\n      add\n        /* \"#utility.yul\":14841:14888   */\n      mstore\n        /* \"#utility.yul\":14905:15036   */\n      tag_476\n        /* \"#utility.yul\":15031:15035   */\n      dup2\n        /* \"#utility.yul\":14905:15036   */\n      tag_333\n      jump\t// in\n    tag_476:\n        /* \"#utility.yul\":14897:15036   */\n      swap1\n      pop\n        /* \"#utility.yul\":14624:15043   */\n      swap2\n      swap1\n      pop\n      jump\t// out\n\n    auxdata: 0xa2646970667358221220d10efb86df349b7ed3f5cf91019b92a8388c3932197ed7aa8a04efbcaea87f8464736f6c63430008160033\n}\n",
				"bytecode": {
					"linkReferences": {},
					"object": "608060405260016003555f600455348015610018575f80fd5b50335f806101000a81548173ffffffffffffffffffffffffffffffffffffffff021916908373ffffffffffffffffffffffffffffffffffffffff16021790555060405180604001604052803373ffffffffffffffffffffffffffffffffffffffff1681526020015f81525060025f3373ffffffffffffffffffffffffffffffffffffffff1673ffffffffffffffffffffffffffffffffffffffff1681526020019081526020015f205f820151815f015f6101000a81548173ffffffffffffffffffffffffffffffffffffffff021916908373ffffffffffffffffffffffffffffffffffffffff16021790555060208201518160010155905050600133908060018154018082558091505060019003905f5260205f20015f9091909190916101000a81548173ffffffffffffffffffffffffffffffffffffffff021916908373ffffffffffffffffffffffffffffffffffffffff1602179055504260058190555061310a806101855f395ff3fe60806040526004361061011e575f3560e01c8063656b6b7e1161009f57806385afee731161006357806385afee7314610386578063893d20e8146103ae57806397e3af60146103d8578063a4686b8f14610400578063d7fa10831461043c5761011e565b8063656b6b7e146102a85780636997f1e2146102d057806370e2f488146102f85780637c1c1d23146103225780637ea17dcc1461034a5761011e565b806326aed97d116100e657806326aed97d146101cc5780632a663c2c146101f457806331b3fac2146102305780633922d551146102585780633fdeec79146102805761011e565b80631408d7561461012257806315a0b37b1461014a5780632057c8591461017257806320da96981461019a578063253c8bd4146101a4575b5f80fd5b34801561012d575f80fd5b50610148600480360381019061014391906129d4565b610478565b005b348015610155575f80fd5b50610170600480360381019061016b91906129d4565b61075c565b005b34801561017d575f80fd5b50610198600480360381019061019391906129d4565b61091d565b005b6101a26109f3565b005b3480156101af575f80fd5b506101ca60048036038101906101c59190612a12565b610fd4565b005b3480156101d7575f80fd5b506101f260048036038101906101ed9190612a3d565b6110a3565b005b3480156101ff575f80fd5b5061021a60048036038101906102159190612a12565b61139d565b6040516102279190612b4b565b60405180910390f35b34801561023b575f80fd5b5061025660048036038101906102519190612b9f565b611546565b005b348015610263575f80fd5b5061027e60048036038101906102799190612a12565b61161a565b005b34801561028b575f80fd5b506102a660048036038101906102a19190612a12565b61181d565b005b3480156102b3575f80fd5b506102ce60048036038101906102c99190612a12565b611a7f565b005b3480156102db575f80fd5b506102f660048036038101906102f191906129d4565b611c38565b005b348015610303575f80fd5b5061030c611df9565b6040516103199190612bd9565b60405180910390f35b34801561032d575f80fd5b50610348600480360381019061034391906129d4565b612040565b005b348015610355575f80fd5b50610370600480360381019061036b9190612a12565b61216c565b60405161037d9190612c01565b60405180910390f35b348015610391575f80fd5b506103ac60048036038101906103a791906129d4565b61229f565b005b3480156103b9575f80fd5b506103c2612375565b6040516103cf9190612c01565b60405180910390f35b3480156103e3575f80fd5b506103fe60048036038101906103f991906129d4565b61239c565b005b34801561040b575f80fd5b5061042660048036038101906104219190612a12565b612688565b6040516104339190612bd9565b60405180910390f35b348015610447575f80fd5b50610462600480360381019061045d9190612a12565b61279d565b60405161046f9190612bd9565b60405180910390f35b3373ffffffffffffffffffffffffffffffffffffffff165f8054906101000a900473ffffffffffffffffffffffffffffffffffffffff1673ffffffffffffffffffffffffffffffffffffffff1614610505576040517f08c379a00000000000000000000000000000000000000000000000000000000081526004016104fc90612c9a565b60405180910390fd5b5f73ffffffffffffffffffffffffffffffffffffffff1660075f8473ffffffffffffffffffffffffffffffffffffffff1673ffffffffffffffffffffffffffffffffffffffff1681526020019081526020015f205f015f9054906101000a900473ffffffffffffffffffffffffffffffffffffffff1673ffffffffffffffffffffffffffffffffffffffff16146105d1576040517f08c379a00000000000000000000000000000000000000000000000000000000081526004016105c890612d02565b60405180910390fd5b5f6040518060c001604052808473ffffffffffffffffffffffffffffffffffffffff1681526020018381526020015f815260200162278d00426106149190612d4d565b815260200142815260200160045481525090508060075f8573ffffffffffffffffffffffffffffffffffffffff1673ffffffffffffffffffffffffffffffffffffffff1681526020019081526020015f205f820151815f015f6101000a81548173ffffffffffffffffffffffffffffffffffffffff021916908373ffffffffffffffffffffffffffffffffffffffff1602179055506020820151816001015560408201518160020155606082015181600301556080820151816004015560a08201518160050155905050600683908060018154018082558091505060019003905f5260205f20015f9091909190916101000a81548173ffffffffffffffffffffffffffffffffffffffff021916908373ffffffffffffffffffffffffffffffffffffffff160217905550600160045f8282546107509190612d80565b92505081905550505050565b3373ffffffffffffffffffffffffffffffffffffffff165f8054906101000a900473ffffffffffffffffffffffffffffffffffffffff1673ffffffffffffffffffffffffffffffffffffffff16146107e9576040517f08c379a00000000000000000000000000000000000000000000000000000000081526004016107e090612c9a565b60405180910390fd5b5f73ffffffffffffffffffffffffffffffffffffffff1660075f8473ffffffffffffffffffffffffffffffffffffffff1673ffffffffffffffffffffffffffffffffffffffff1681526020019081526020015f205f015f9054906101000a900473ffffffffffffffffffffffffffffffffffffffff1673ffffffffffffffffffffffffffffffffffffffff16036108b5576040517f08c379a00000000000000000000000000000000000000000000000000000000081526004016108ac90612dfd565b60405180910390fd5b62015180816108c49190612e1b565b60075f8473ffffffffffffffffffffffffffffffffffffffff1673ffffffffffffffffffffffffffffffffffffffff1681526020019081526020015f206003015f8282546109129190612d80565b925050819055505050565b3373ffffffffffffffffffffffffffffffffffffffff165f8054906101000a900473ffffffffffffffffffffffffffffffffffffffff1673ffffffffffffffffffffffffffffffffffffffff16146109aa576040517f08c379a00000000000000000000000000000000000000000000000000000000081526004016109a190612c9a565b60405180910390fd5b8060075f8473ffffffffffffffffffffffffffffffffffffffff1673ffffffffffffffffffffffffffffffffffffffff1681526020019081526020015f20600201819055505050565b3373ffffffffffffffffffffffffffffffffffffffff165f8054906101000a900473ffffffffffffffffffffffffffffffffffffffff1673ffffffffffffffffffffffffffffffffffffffff1614610a80576040517f08c379a0000000000000000000000000000000000000000000000000000000008152600401610a7790612c9a565b60405180910390fd5b5f3411610ac2576040517f08c379a0000000000000000000000000000000000000000000000000000000008152600401610ab990612ea6565b60405180910390fd5b5f610acb611df9565b90505f5b600454811015610fc9575f8060075f60068581548110610af257610af1612ec4565b5b905f5260205f20015f9054906101000a900473ffffffffffffffffffffffffffffffffffffffff1673ffffffffffffffffffffffffffffffffffffffff1673ffffffffffffffffffffffffffffffffffffffff1681526020019081526020015f206001015414158015610be2575060075f60068481548110610b7757610b76612ec4565b5b905f5260205f20015f9054906101000a900473ffffffffffffffffffffffffffffffffffffffff1673ffffffffffffffffffffffffffffffffffffffff1673ffffffffffffffffffffffffffffffffffffffff1681526020019081526020015f206003015460055410155b15610c665760075f60068481548110610bfe57610bfd612ec4565b5b905f5260205f20015f9054906101000a900473ffffffffffffffffffffffffffffffffffffffff1673ffffffffffffffffffffffffffffffffffffffff1673ffffffffffffffffffffffffffffffffffffffff1681526020019081526020015f206001015490505b5f60075f60068581548110610c7e57610c7d612ec4565b5b905f5260205f20015f9054906101000a900473ffffffffffffffffffffffffffffffffffffffff1673ffffffffffffffffffffffffffffffffffffffff1673ffffffffffffffffffffffffffffffffffffffff1681526020019081526020015f206002015414610e755760075f60068481548110610cff57610cfe612ec4565b5b905f5260205f20015f9054906101000a900473ffffffffffffffffffffffffffffffffffffffff1673ffffffffffffffffffffffffffffffffffffffff1673ffffffffffffffffffffffffffffffffffffffff1681526020019081526020015f206002015460075f60068581548110610d7b57610d7a612ec4565b5b905f5260205f20015f9054906101000a900473ffffffffffffffffffffffffffffffffffffffff1673ffffffffffffffffffffffffffffffffffffffff1673ffffffffffffffffffffffffffffffffffffffff1681526020019081526020015f206001015f828254610ded9190612d80565b925050819055505f60075f60068581548110610e0c57610e0b612ec4565b5b905f5260205f20015f9054906101000a900473ffffffffffffffffffffffffffffffffffffffff1673ffffffffffffffffffffffffffffffffffffffff1673ffffffffffffffffffffffffffffffffffffffff1681526020019081526020015f20600201819055505b5f8103610e825750610fbc565b5f833483610e909190612e1b565b610e9a9190612f1e565b90505f60075f60068681548110610eb457610eb3612ec4565b5b905f5260205f20015f9054906101000a900473ffffffffffffffffffffffffffffffffffffffff1673ffffffffffffffffffffffffffffffffffffffff1673ffffffffffffffffffffffffffffffffffffffff1681526020019081526020015f205f015f9054906101000a900473ffffffffffffffffffffffffffffffffffffffff1690508073ffffffffffffffffffffffffffffffffffffffff166108fc8390811502906040515f60405180830381858888f19350505050158015610f7c573d5f803e3d5ffd5b507fd8e54f1dc02cc5a9165e48bb0c19d3dc0d14902829bc2c791083d3180150f1de818385604051610fb093929190612fa9565b60405180910390a15050505b8080600101915050610acf565b504260058190555050565b3373ffffffffffffffffffffffffffffffffffffffff165f8054906101000a900473ffffffffffffffffffffffffffffffffffffffff1673ffffffffffffffffffffffffffffffffffffffff1614611061576040517f08c379a000000000000000000000000000000000000000000000000000000000815260040161105890612c9a565b60405180910390fd5b805f806101000a81548173ffffffffffffffffffffffffffffffffffffffff021916908373ffffffffffffffffffffffffffffffffffffffff16021790555050565b3373ffffffffffffffffffffffffffffffffffffffff165f8054906101000a900473ffffffffffffffffffffffffffffffffffffffff1673ffffffffffffffffffffffffffffffffffffffff1614611130576040517f08c379a000000000000000000000000000000000000000000000000000000000815260040161112790612c9a565b60405180910390fd5b5f73ffffffffffffffffffffffffffffffffffffffff1660075f8773ffffffffffffffffffffffffffffffffffffffff1673ffffffffffffffffffffffffffffffffffffffff1681526020019081526020015f205f015f9054906101000a900473ffffffffffffffffffffffffffffffffffffffff1673ffffffffffffffffffffffffffffffffffffffff16036111fc576040517f08c379a00000000000000000000000000000000000000000000000000000000081526004016111f390612dfd565b60405180910390fd5b5f6040518060c001604052808773ffffffffffffffffffffffffffffffffffffffff16815260200186815260200185815260200184815260200183815260200160045481525090508060075f8873ffffffffffffffffffffffffffffffffffffffff1673ffffffffffffffffffffffffffffffffffffffff1681526020019081526020015f205f820151815f015f6101000a81548173ffffffffffffffffffffffffffffffffffffffff021916908373ffffffffffffffffffffffffffffffffffffffff1602179055506020820151816001015560408201518160020155606082015181600301556080820151816004015560a0820151816005015590505085600660075f8973ffffffffffffffffffffffffffffffffffffffff1673ffffffffffffffffffffffffffffffffffffffff1681526020019081526020015f2060050154815481106113505761134f612ec4565b5b905f5260205f20015f6101000a81548173ffffffffffffffffffffffffffffffffffffffff021916908373ffffffffffffffffffffffffffffffffffffffff160217905550505050505050565b6113a56128fd565b5f73ffffffffffffffffffffffffffffffffffffffff1660075f8473ffffffffffffffffffffffffffffffffffffffff1673ffffffffffffffffffffffffffffffffffffffff1681526020019081526020015f205f015f9054906101000a900473ffffffffffffffffffffffffffffffffffffffff1673ffffffffffffffffffffffffffffffffffffffff1603611471576040517f08c379a000000000000000000000000000000000000000000000000000000000815260040161146890612dfd565b60405180910390fd5b60075f8373ffffffffffffffffffffffffffffffffffffffff1673ffffffffffffffffffffffffffffffffffffffff1681526020019081526020015f206040518060c00160405290815f82015f9054906101000a900473ffffffffffffffffffffffffffffffffffffffff1673ffffffffffffffffffffffffffffffffffffffff1673ffffffffffffffffffffffffffffffffffffffff168152602001600182015481526020016002820154815260200160038201548152602001600482015481526020016005820154815250509050919050565b3373ffffffffffffffffffffffffffffffffffffffff165f8054906101000a900473ffffffffffffffffffffffffffffffffffffffff1673ffffffffffffffffffffffffffffffffffffffff16146115d3576040517f08c379a00000000000000000000000000000000000000000000000000000000081526004016115ca90612c9a565b60405180910390fd5b8073ffffffffffffffffffffffffffffffffffffffff166108fc4790811502906040515f60405180830381858888f19350505050158015611616573d5f803e3d5ffd5b5050565b5f73ffffffffffffffffffffffffffffffffffffffff1660025f3373ffffffffffffffffffffffffffffffffffffffff1673ffffffffffffffffffffffffffffffffffffffff1681526020019081526020015f205f015f9054906101000a900473ffffffffffffffffffffffffffffffffffffffff1673ffffffffffffffffffffffffffffffffffffffff16036116e6576040517f08c379a00000000000000000000000000000000000000000000000000000000081526004016116dd9061304e565b60405180910390fd5b60405180604001604052808273ffffffffffffffffffffffffffffffffffffffff16815260200160035481525060025f8373ffffffffffffffffffffffffffffffffffffffff1673ffffffffffffffffffffffffffffffffffffffff1681526020019081526020015f205f820151815f015f6101000a81548173ffffffffffffffffffffffffffffffffffffffff021916908373ffffffffffffffffffffffffffffffffffffffff16021790555060208201518160010155905050600181908060018154018082558091505060019003905f5260205f20015f9091909190916101000a81548173ffffffffffffffffffffffffffffffffffffffff021916908373ffffffffffffffffffffffffffffffffffffffff160217905550600160035f8282546118139190612d80565b9250508190555050565b3373ffffffffffffffffffffffffffffffffffffffff165f8054906101000a900473ffffffffffffffffffffffffffffffffffffffff1673ffffffffffffffffffffffffffffffffffffffff16146118aa576040517f08c379a00000000000000000000000000000000000000000000000000000000081526004016118a190612c9a565b60405180910390fd5b5f73ffffffffffffffffffffffffffffffffffffffff1660075f8373ffffffffffffffffffffffffffffffffffffffff1673ffffffffffffffffffffffffffffffffffffffff1681526020019081526020015f205f015f9054906101000a900473ffffffffffffffffffffffffffffffffffffffff1673ffffffffffffffffffffffffffffffffffffffff1603611976576040517f08c379a000000000000000000000000000000000000000000000000000000000815260040161196d90612dfd565b60405180910390fd5b600660075f8373ffffffffffffffffffffffffffffffffffffffff1673ffffffffffffffffffffffffffffffffffffffff1681526020019081526020015f2060050154815481106119ca576119c9612ec4565b5b905f5260205f20015f6101000a81549073ffffffffffffffffffffffffffffffffffffffff021916905560075f8273ffffffffffffffffffffffffffffffffffffffff1673ffffffffffffffffffffffffffffffffffffffff1681526020019081526020015f205f8082015f6101000a81549073ffffffffffffffffffffffffffffffffffffffff0219169055600182015f9055600282015f9055600382015f9055600482015f9055600582015f9055505050565b5f73ffffffffffffffffffffffffffffffffffffffff1660025f3373ffffffffffffffffffffffffffffffffffffffff1673ffffffffffffffffffffffffffffffffffffffff1681526020019081526020015f205f015f9054906101000a900473ffffffffffffffffffffffffffffffffffffffff1673ffffffffffffffffffffffffffffffffffffffff1603611b4b576040517f08c379a0000000000000000000000000000000000000000000000000000000008152600401611b429061304e565b60405180910390fd5b600160025f8373ffffffffffffffffffffffffffffffffffffffff1673ffffffffffffffffffffffffffffffffffffffff1681526020019081526020015f206001015481548110611b9f57611b9e612ec4565b5b905f5260205f20015f6101000a81549073ffffffffffffffffffffffffffffffffffffffff021916905560025f8273ffffffffffffffffffffffffffffffffffffffff1673ffffffffffffffffffffffffffffffffffffffff1681526020019081526020015f205f8082015f6101000a81549073ffffffffffffffffffffffffffffffffffffffff0219169055600182015f9055505050565b3373ffffffffffffffffffffffffffffffffffffffff165f8054906101000a900473ffffffffffffffffffffffffffffffffffffffff1673ffffffffffffffffffffffffffffffffffffffff1614611cc5576040517f08c379a0000000000000000000000000000000000000000000000000000000008152600401611cbc90612c9a565b60405180910390fd5b5f73ffffffffffffffffffffffffffffffffffffffff1660075f8473ffffffffffffffffffffffffffffffffffffffff1673ffffffffffffffffffffffffffffffffffffffff1681526020019081526020015f205f015f9054906101000a900473ffffffffffffffffffffffffffffffffffffffff1673ffffffffffffffffffffffffffffffffffffffff1603611d91576040517f08c379a0000000000000000000000000000000000000000000000000000000008152600401611d8890612dfd565b60405180910390fd5b6201518081611da09190612e1b565b60075f8473ffffffffffffffffffffffffffffffffffffffff1673ffffffffffffffffffffffffffffffffffffffff1681526020019081526020015f206003015f828254611dee9190612d4d565b925050819055505050565b5f3373ffffffffffffffffffffffffffffffffffffffff165f8054906101000a900473ffffffffffffffffffffffffffffffffffffffff1673ffffffffffffffffffffffffffffffffffffffff1614611e87576040517f08c379a0000000000000000000000000000000000000000000000000000000008152600401611e7e90612c9a565b60405180910390fd5b5f805b600454811015612038575f60075f60068481548110611eac57611eab612ec4565b5b905f5260205f20015f9054906101000a900473ffffffffffffffffffffffffffffffffffffffff1673ffffffffffffffffffffffffffffffffffffffff1673ffffffffffffffffffffffffffffffffffffffff1681526020019081526020015f206001015414158015611f9c575060075f60068381548110611f3157611f30612ec4565b5b905f5260205f20015f9054906101000a900473ffffffffffffffffffffffffffffffffffffffff1673ffffffffffffffffffffffffffffffffffffffff1673ffffffffffffffffffffffffffffffffffffffff1681526020019081526020015f206003015460055410155b1561202b5760075f60068381548110611fb857611fb7612ec4565b5b905f5260205f20015f9054906101000a900473ffffffffffffffffffffffffffffffffffffffff1673ffffffffffffffffffffffffffffffffffffffff1673ffffffffffffffffffffffffffffffffffffffff1681526020019081526020015f2060010154826120289190612d80565b91505b8080600101915050611e8a565b508091505090565b3373ffffffffffffffffffffffffffffffffffffffff165f8054906101000a900473ffffffffffffffffffffffffffffffffffffffff1673ffffffffffffffffffffffffffffffffffffffff16146120cd576040517f08c379a00000000000000000000000000000000000000000000000000000000081526004016120c490612c9a565b60405180910390fd5b8060075f8473ffffffffffffffffffffffffffffffffffffffff1673ffffffffffffffffffffffffffffffffffffffff1681526020019081526020015f206002015f82825461211c9190612d80565b925050819055504260075f8473ffffffffffffffffffffffffffffffffffffffff1673ffffffffffffffffffffffffffffffffffffffff1681526020019081526020015f20600401819055505050565b5f8073ffffffffffffffffffffffffffffffffffffffff1660075f8473ffffffffffffffffffffffffffffffffffffffff1673ffffffffffffffffffffffffffffffffffffffff1681526020019081526020015f205f015f9054906101000a900473ffffffffffffffffffffffffffffffffffffffff1673ffffffffffffffffffffffffffffffffffffffff1603612239576040517f08c379a000000000000000000000000000000000000000000000000000000000815260040161223090612dfd565b60405180910390fd5b60075f8373ffffffffffffffffffffffffffffffffffffffff1673ffffffffffffffffffffffffffffffffffffffff1681526020019081526020015f205f015f9054906101000a900473ffffffffffffffffffffffffffffffffffffffff169050919050565b3373ffffffffffffffffffffffffffffffffffffffff165f8054906101000a900473ffffffffffffffffffffffffffffffffffffffff1673ffffffffffffffffffffffffffffffffffffffff161461232c576040517f08c379a000000000000000000000000000000000000000000000000000000000815260040161232390612c9a565b60405180910390fd5b8060075f8473ffffffffffffffffffffffffffffffffffffffff1673ffffffffffffffffffffffffffffffffffffffff1681526020019081526020015f20600101819055505050565b5f805f9054906101000a900473ffffffffffffffffffffffffffffffffffffffff16905090565b3373ffffffffffffffffffffffffffffffffffffffff165f8054906101000a900473ffffffffffffffffffffffffffffffffffffffff1673ffffffffffffffffffffffffffffffffffffffff1614612429576040517f08c379a000000000000000000000000000000000000000000000000000000000815260040161242090612c9a565b60405180910390fd5b60075f8373ffffffffffffffffffffffffffffffffffffffff1673ffffffffffffffffffffffffffffffffffffffff1681526020019081526020015f206002015460075f8473ffffffffffffffffffffffffffffffffffffffff1673ffffffffffffffffffffffffffffffffffffffff1681526020019081526020015f20600101546124b59190612d80565b8111156124f7576040517f08c379a00000000000000000000000000000000000000000000000000000000081526004016124ee906130b6565b60405180910390fd5b60075f8373ffffffffffffffffffffffffffffffffffffffff1673ffffffffffffffffffffffffffffffffffffffff1681526020019081526020015f206002015481111561262d575f60075f8473ffffffffffffffffffffffffffffffffffffffff1673ffffffffffffffffffffffffffffffffffffffff1681526020019081526020015f206002018190555060075f8373ffffffffffffffffffffffffffffffffffffffff1673ffffffffffffffffffffffffffffffffffffffff1681526020019081526020015f2060020154816125d09190612d4d565b90508060075f8473ffffffffffffffffffffffffffffffffffffffff1673ffffffffffffffffffffffffffffffffffffffff1681526020019081526020015f206001015f8282546126219190612d4d565b92505081905550612684565b8060075f8473ffffffffffffffffffffffffffffffffffffffff1673ffffffffffffffffffffffffffffffffffffffff1681526020019081526020015f206002015f82825461267c9190612d4d565b925050819055505b5050565b5f8073ffffffffffffffffffffffffffffffffffffffff1660075f8473ffffffffffffffffffffffffffffffffffffffff1673ffffffffffffffffffffffffffffffffffffffff1681526020019081526020015f205f015f9054906101000a900473ffffffffffffffffffffffffffffffffffffffff1673ffffffffffffffffffffffffffffffffffffffff1603612755576040517f08c379a000000000000000000000000000000000000000000000000000000000815260040161274c90612dfd565b60405180910390fd5b60075f8373ffffffffffffffffffffffffffffffffffffffff1673ffffffffffffffffffffffffffffffffffffffff1681526020019081526020015f20600501549050919050565b5f8073ffffffffffffffffffffffffffffffffffffffff1660075f8473ffffffffffffffffffffffffffffffffffffffff1673ffffffffffffffffffffffffffffffffffffffff1681526020019081526020015f205f015f9054906101000a900473ffffffffffffffffffffffffffffffffffffffff1673ffffffffffffffffffffffffffffffffffffffff160361286a576040517f08c379a000000000000000000000000000000000000000000000000000000000815260040161286190612dfd565b60405180910390fd5b60075f8373ffffffffffffffffffffffffffffffffffffffff1673ffffffffffffffffffffffffffffffffffffffff1681526020019081526020015f206002015460075f8473ffffffffffffffffffffffffffffffffffffffff1673ffffffffffffffffffffffffffffffffffffffff1681526020019081526020015f20600101546128f69190612d80565b9050919050565b6040518060c001604052805f73ffffffffffffffffffffffffffffffffffffffff1681526020015f81526020015f81526020015f81526020015f81526020015f81525090565b5f80fd5b5f73ffffffffffffffffffffffffffffffffffffffff82169050919050565b5f61297082612947565b9050919050565b61298081612966565b811461298a575f80fd5b50565b5f8135905061299b81612977565b92915050565b5f819050919050565b6129b3816129a1565b81146129bd575f80fd5b50565b5f813590506129ce816129aa565b92915050565b5f80604083850312156129ea576129e9612943565b5b5f6129f78582860161298d565b9250506020612a08858286016129c0565b9150509250929050565b5f60208284031215612a2757612a26612943565b5b5f612a348482850161298d565b91505092915050565b5f805f805f60a08688031215612a5657612a55612943565b5b5f612a638882890161298d565b9550506020612a74888289016129c0565b9450506040612a85888289016129c0565b9350506060612a96888289016129c0565b9250506080612aa7888289016129c0565b9150509295509295909350565b612abd81612966565b82525050565b612acc816129a1565b82525050565b60c082015f820151612ae65f850182612ab4565b506020820151612af96020850182612ac3565b506040820151612b0c6040850182612ac3565b506060820151612b1f6060850182612ac3565b506080820151612b326080850182612ac3565b5060a0820151612b4560a0850182612ac3565b50505050565b5f60c082019050612b5e5f830184612ad2565b92915050565b5f612b6e82612947565b9050919050565b612b7e81612b64565b8114612b88575f80fd5b50565b5f81359050612b9981612b75565b92915050565b5f60208284031215612bb457612bb3612943565b5b5f612bc184828501612b8b565b91505092915050565b612bd3816129a1565b82525050565b5f602082019050612bec5f830184612bca565b92915050565b612bfb81612966565b82525050565b5f602082019050612c145f830184612bf2565b92915050565b5f82825260208201905092915050565b7f546869732061646472657373206973206e6f7420636f6e7472616374204f776e5f8201527f6572000000000000000000000000000000000000000000000000000000000000602082015250565b5f612c84602283612c1a565b9150612c8f82612c2a565b604082019050919050565b5f6020820190508181035f830152612cb181612c78565b9050919050565b7f54686973206163636f756e7420697320616c72656164792065786973740000005f82015250565b5f612cec601d83612c1a565b9150612cf782612cb8565b602082019050919050565b5f6020820190508181035f830152612d1981612ce0565b9050919050565b7f4e487b71000000000000000000000000000000000000000000000000000000005f52601160045260245ffd5b5f612d57826129a1565b9150612d62836129a1565b9250828203905081811115612d7a57612d79612d20565b5b92915050565b5f612d8a826129a1565b9150612d95836129a1565b9250828201905080821115612dad57612dac612d20565b5b92915050565b7f54686973206163636f756e742069736e277420657869737400000000000000005f82015250565b5f612de7601883612c1a565b9150612df282612db3565b602082019050919050565b5f6020820190508181035f830152612e1481612ddb565b9050919050565b5f612e25826129a1565b9150612e30836129a1565b9250828202612e3e816129a1565b91508282048414831517612e5557612e54612d20565b5b5092915050565b7f596f7520646f6e277420676976652045544800000000000000000000000000005f82015250565b5f612e90601283612c1a565b9150612e9b82612e5c565b602082019050919050565b5f6020820190508181035f830152612ebd81612e84565b9050919050565b7f4e487b71000000000000000000000000000000000000000000000000000000005f52603260045260245ffd5b7f4e487b71000000000000000000000000000000000000000000000000000000005f52601260045260245ffd5b5f612f28826129a1565b9150612f33836129a1565b925082612f4357612f42612ef1565b5b828204905092915050565b5f819050919050565b5f612f71612f6c612f6784612947565b612f4e565b612947565b9050919050565b5f612f8282612f57565b9050919050565b5f612f9382612f78565b9050919050565b612fa381612f89565b82525050565b5f606082019050612fbc5f830186612f9a565b612fc96020830185612bca565b612fd66040830184612bca565b949350505050565b7f5468697320616464726573732068617320696e73756666696369656e742070655f8201527f726d697373696f6e730000000000000000000000000000000000000000000000602082015250565b5f613038602983612c1a565b915061304382612fde565b604082019050919050565b5f6020820190508181035f8301526130658161302c565b9050919050565b7f5374616b696e672076616c7565206973206e6f7420656e6f75676800000000005f82015250565b5f6130a0601b83612c1a565b91506130ab8261306c565b602082019050919050565b5f6020820190508181035f8301526130cd81613094565b905091905056fea2646970667358221220d10efb86df349b7ed3f5cf91019b92a8388c3932197ed7aa8a04efbcaea87f8464736f6c63430008160033",
					"opcodes": "PUSH1 0x80 PUSH1 0x40 MSTORE PUSH1 0x1 PUSH1 0x3 SSTORE PUSH0 PUSH1 0x4 SSTORE CALLVALUE DUP1 ISZERO PUSH2 0x18 JUMPI PUSH0 DUP1 REVERT JUMPDEST POP CALLER PUSH0 DUP1 PUSH2 0x100 EXP DUP2 SLOAD DUP2 PUSH20 0xFFFFFFFFFFFFFFFFFFFFFFFFFFFFFFFFFFFFFFFF MUL NOT AND SWAP1 DUP4 PUSH20 0xFFFFFFFFFFFFFFFFFFFFFFFFFFFFFFFFFFFFFFFF AND MUL OR SWAP1 SSTORE POP PUSH1 0x40 MLOAD DUP1 PUSH1 0x40 ADD PUSH1 0x40 MSTORE DUP1 CALLER PUSH20 0xFFFFFFFFFFFFFFFFFFFFFFFFFFFFFFFFFFFFFFFF AND DUP2 MSTORE PUSH1 0x20 ADD PUSH0 DUP2 MSTORE POP PUSH1 0x2 PUSH0 CALLER PUSH20 0xFFFFFFFFFFFFFFFFFFFFFFFFFFFFFFFFFFFFFFFF AND PUSH20 0xFFFFFFFFFFFFFFFFFFFFFFFFFFFFFFFFFFFFFFFF AND DUP2 MSTORE PUSH1 0x20 ADD SWAP1 DUP2 MSTORE PUSH1 0x20 ADD PUSH0 KECCAK256 PUSH0 DUP3 ADD MLOAD DUP2 PUSH0 ADD PUSH0 PUSH2 0x100 EXP DUP2 SLOAD DUP2 PUSH20 0xFFFFFFFFFFFFFFFFFFFFFFFFFFFFFFFFFFFFFFFF MUL NOT AND SWAP1 DUP4 PUSH20 0xFFFFFFFFFFFFFFFFFFFFFFFFFFFFFFFFFFFFFFFF AND MUL OR SWAP1 SSTORE POP PUSH1 0x20 DUP3 ADD MLOAD DUP2 PUSH1 0x1 ADD SSTORE SWAP1 POP POP PUSH1 0x1 CALLER SWAP1 DUP1 PUSH1 0x1 DUP2 SLOAD ADD DUP1 DUP3 SSTORE DUP1 SWAP2 POP POP PUSH1 0x1 SWAP1 SUB SWAP1 PUSH0 MSTORE PUSH1 0x20 PUSH0 KECCAK256 ADD PUSH0 SWAP1 SWAP2 SWAP1 SWAP2 SWAP1 SWAP2 PUSH2 0x100 EXP DUP2 SLOAD DUP2 PUSH20 0xFFFFFFFFFFFFFFFFFFFFFFFFFFFFFFFFFFFFFFFF MUL NOT AND SWAP1 DUP4 PUSH20 0xFFFFFFFFFFFFFFFFFFFFFFFFFFFFFFFFFFFFFFFF AND MUL OR SWAP1 SSTORE POP TIMESTAMP PUSH1 0x5 DUP2 SWAP1 SSTORE POP PUSH2 0x310A DUP1 PUSH2 0x185 PUSH0 CODECOPY PUSH0 RETURN INVALID PUSH1 0x80 PUSH1 0x40 MSTORE PUSH1 0x4 CALLDATASIZE LT PUSH2 0x11E JUMPI PUSH0 CALLDATALOAD PUSH1 0xE0 SHR DUP1 PUSH4 0x656B6B7E GT PUSH2 0x9F JUMPI DUP1 PUSH4 0x85AFEE73 GT PUSH2 0x63 JUMPI DUP1 PUSH4 0x85AFEE73 EQ PUSH2 0x386 JUMPI DUP1 PUSH4 0x893D20E8 EQ PUSH2 0x3AE JUMPI DUP1 PUSH4 0x97E3AF60 EQ PUSH2 0x3D8 JUMPI DUP1 PUSH4 0xA4686B8F EQ PUSH2 0x400 JUMPI DUP1 PUSH4 0xD7FA1083 EQ PUSH2 0x43C JUMPI PUSH2 0x11E JUMP JUMPDEST DUP1 PUSH4 0x656B6B7E EQ PUSH2 0x2A8 JUMPI DUP1 PUSH4 0x6997F1E2 EQ PUSH2 0x2D0 JUMPI DUP1 PUSH4 0x70E2F488 EQ PUSH2 0x2F8 JUMPI DUP1 PUSH4 0x7C1C1D23 EQ PUSH2 0x322 JUMPI DUP1 PUSH4 0x7EA17DCC EQ PUSH2 0x34A JUMPI PUSH2 0x11E JUMP JUMPDEST DUP1 PUSH4 0x26AED97D GT PUSH2 0xE6 JUMPI DUP1 PUSH4 0x26AED97D EQ PUSH2 0x1CC JUMPI DUP1 PUSH4 0x2A663C2C EQ PUSH2 0x1F4 JUMPI DUP1 PUSH4 0x31B3FAC2 EQ PUSH2 0x230 JUMPI DUP1 PUSH4 0x3922D551 EQ PUSH2 0x258 JUMPI DUP1 PUSH4 0x3FDEEC79 EQ PUSH2 0x280 JUMPI PUSH2 0x11E JUMP JUMPDEST DUP1 PUSH4 0x1408D756 EQ PUSH2 0x122 JUMPI DUP1 PUSH4 0x15A0B37B EQ PUSH2 0x14A JUMPI DUP1 PUSH4 0x2057C859 EQ PUSH2 0x172 JUMPI DUP1 PUSH4 0x20DA9698 EQ PUSH2 0x19A JUMPI DUP1 PUSH4 0x253C8BD4 EQ PUSH2 0x1A4 JUMPI JUMPDEST PUSH0 DUP1 REVERT JUMPDEST CALLVALUE DUP1 ISZERO PUSH2 0x12D JUMPI PUSH0 DUP1 REVERT JUMPDEST POP PUSH2 0x148 PUSH1 0x4 DUP1 CALLDATASIZE SUB DUP2 ADD SWAP1 PUSH2 0x143 SWAP2 SWAP1 PUSH2 0x29D4 JUMP JUMPDEST PUSH2 0x478 JUMP JUMPDEST STOP JUMPDEST CALLVALUE DUP1 ISZERO PUSH2 0x155 JUMPI PUSH0 DUP1 REVERT JUMPDEST POP PUSH2 0x170 PUSH1 0x4 DUP1 CALLDATASIZE SUB DUP2 ADD SWAP1 PUSH2 0x16B SWAP2 SWAP1 PUSH2 0x29D4 JUMP JUMPDEST PUSH2 0x75C JUMP JUMPDEST STOP JUMPDEST CALLVALUE DUP1 ISZERO PUSH2 0x17D JUMPI PUSH0 DUP1 REVERT JUMPDEST POP PUSH2 0x198 PUSH1 0x4 DUP1 CALLDATASIZE SUB DUP2 ADD SWAP1 PUSH2 0x193 SWAP2 SWAP1 PUSH2 0x29D4 JUMP JUMPDEST PUSH2 0x91D JUMP JUMPDEST STOP JUMPDEST PUSH2 0x1A2 PUSH2 0x9F3 JUMP JUMPDEST STOP JUMPDEST CALLVALUE DUP1 ISZERO PUSH2 0x1AF JUMPI PUSH0 DUP1 REVERT JUMPDEST POP PUSH2 0x1CA PUSH1 0x4 DUP1 CALLDATASIZE SUB DUP2 ADD SWAP1 PUSH2 0x1C5 SWAP2 SWAP1 PUSH2 0x2A12 JUMP JUMPDEST PUSH2 0xFD4 JUMP JUMPDEST STOP JUMPDEST CALLVALUE DUP1 ISZERO PUSH2 0x1D7 JUMPI PUSH0 DUP1 REVERT JUMPDEST POP PUSH2 0x1F2 PUSH1 0x4 DUP1 CALLDATASIZE SUB DUP2 ADD SWAP1 PUSH2 0x1ED SWAP2 SWAP1 PUSH2 0x2A3D JUMP JUMPDEST PUSH2 0x10A3 JUMP JUMPDEST STOP JUMPDEST CALLVALUE DUP1 ISZERO PUSH2 0x1FF JUMPI PUSH0 DUP1 REVERT JUMPDEST POP PUSH2 0x21A PUSH1 0x4 DUP1 CALLDATASIZE SUB DUP2 ADD SWAP1 PUSH2 0x215 SWAP2 SWAP1 PUSH2 0x2A12 JUMP JUMPDEST PUSH2 0x139D JUMP JUMPDEST PUSH1 0x40 MLOAD PUSH2 0x227 SWAP2 SWAP1 PUSH2 0x2B4B JUMP JUMPDEST PUSH1 0x40 MLOAD DUP1 SWAP2 SUB SWAP1 RETURN JUMPDEST CALLVALUE DUP1 ISZERO PUSH2 0x23B JUMPI PUSH0 DUP1 REVERT JUMPDEST POP PUSH2 0x256 PUSH1 0x4 DUP1 CALLDATASIZE SUB DUP2 ADD SWAP1 PUSH2 0x251 SWAP2 SWAP1 PUSH2 0x2B9F JUMP JUMPDEST PUSH2 0x1546 JUMP JUMPDEST STOP JUMPDEST CALLVALUE DUP1 ISZERO PUSH2 0x263 JUMPI PUSH0 DUP1 REVERT JUMPDEST POP PUSH2 0x27E PUSH1 0x4 DUP1 CALLDATASIZE SUB DUP2 ADD SWAP1 PUSH2 0x279 SWAP2 SWAP1 PUSH2 0x2A12 JUMP JUMPDEST PUSH2 0x161A JUMP JUMPDEST STOP JUMPDEST CALLVALUE DUP1 ISZERO PUSH2 0x28B JUMPI PUSH0 DUP1 REVERT JUMPDEST POP PUSH2 0x2A6 PUSH1 0x4 DUP1 CALLDATASIZE SUB DUP2 ADD SWAP1 PUSH2 0x2A1 SWAP2 SWAP1 PUSH2 0x2A12 JUMP JUMPDEST PUSH2 0x181D JUMP JUMPDEST STOP JUMPDEST CALLVALUE DUP1 ISZERO PUSH2 0x2B3 JUMPI PUSH0 DUP1 REVERT JUMPDEST POP PUSH2 0x2CE PUSH1 0x4 DUP1 CALLDATASIZE SUB DUP2 ADD SWAP1 PUSH2 0x2C9 SWAP2 SWAP1 PUSH2 0x2A12 JUMP JUMPDEST PUSH2 0x1A7F JUMP JUMPDEST STOP JUMPDEST CALLVALUE DUP1 ISZERO PUSH2 0x2DB JUMPI PUSH0 DUP1 REVERT JUMPDEST POP PUSH2 0x2F6 PUSH1 0x4 DUP1 CALLDATASIZE SUB DUP2 ADD SWAP1 PUSH2 0x2F1 SWAP2 SWAP1 PUSH2 0x29D4 JUMP JUMPDEST PUSH2 0x1C38 JUMP JUMPDEST STOP JUMPDEST CALLVALUE DUP1 ISZERO PUSH2 0x303 JUMPI PUSH0 DUP1 REVERT JUMPDEST POP PUSH2 0x30C PUSH2 0x1DF9 JUMP JUMPDEST PUSH1 0x40 MLOAD PUSH2 0x319 SWAP2 SWAP1 PUSH2 0x2BD9 JUMP JUMPDEST PUSH1 0x40 MLOAD DUP1 SWAP2 SUB SWAP1 RETURN JUMPDEST CALLVALUE DUP1 ISZERO PUSH2 0x32D JUMPI PUSH0 DUP1 REVERT JUMPDEST POP PUSH2 0x348 PUSH1 0x4 DUP1 CALLDATASIZE SUB DUP2 ADD SWAP1 PUSH2 0x343 SWAP2 SWAP1 PUSH2 0x29D4 JUMP JUMPDEST PUSH2 0x2040 JUMP JUMPDEST STOP JUMPDEST CALLVALUE DUP1 ISZERO PUSH2 0x355 JUMPI PUSH0 DUP1 REVERT JUMPDEST POP PUSH2 0x370 PUSH1 0x4 DUP1 CALLDATASIZE SUB DUP2 ADD SWAP1 PUSH2 0x36B SWAP2 SWAP1 PUSH2 0x2A12 JUMP JUMPDEST PUSH2 0x216C JUMP JUMPDEST PUSH1 0x40 MLOAD PUSH2 0x37D SWAP2 SWAP1 PUSH2 0x2C01 JUMP JUMPDEST PUSH1 0x40 MLOAD DUP1 SWAP2 SUB SWAP1 RETURN JUMPDEST CALLVALUE DUP1 ISZERO PUSH2 0x391 JUMPI PUSH0 DUP1 REVERT JUMPDEST POP PUSH2 0x3AC PUSH1 0x4 DUP1 CALLDATASIZE SUB DUP2 ADD SWAP1 PUSH2 0x3A7 SWAP2 SWAP1 PUSH2 0x29D4 JUMP JUMPDEST PUSH2 0x229F JUMP JUMPDEST STOP JUMPDEST CALLVALUE DUP1 ISZERO PUSH2 0x3B9 JUMPI PUSH0 DUP1 REVERT JUMPDEST POP PUSH2 0x3C2 PUSH2 0x2375 JUMP JUMPDEST PUSH1 0x40 MLOAD PUSH2 0x3CF SWAP2 SWAP1 PUSH2 0x2C01 JUMP JUMPDEST PUSH1 0x40 MLOAD DUP1 SWAP2 SUB SWAP1 RETURN JUMPDEST CALLVALUE DUP1 ISZERO PUSH2 0x3E3 JUMPI PUSH0 DUP1 REVERT JUMPDEST POP PUSH2 0x3FE PUSH1 0x4 DUP1 CALLDATASIZE SUB DUP2 ADD SWAP1 PUSH2 0x3F9 SWAP2 SWAP1 PUSH2 0x29D4 JUMP JUMPDEST PUSH2 0x239C JUMP JUMPDEST STOP JUMPDEST CALLVALUE DUP1 ISZERO PUSH2 0x40B JUMPI PUSH0 DUP1 REVERT JUMPDEST POP PUSH2 0x426 PUSH1 0x4 DUP1 CALLDATASIZE SUB DUP2 ADD SWAP1 PUSH2 0x421 SWAP2 SWAP1 PUSH2 0x2A12 JUMP JUMPDEST PUSH2 0x2688 JUMP JUMPDEST PUSH1 0x40 MLOAD PUSH2 0x433 SWAP2 SWAP1 PUSH2 0x2BD9 JUMP JUMPDEST PUSH1 0x40 MLOAD DUP1 SWAP2 SUB SWAP1 RETURN JUMPDEST CALLVALUE DUP1 ISZERO PUSH2 0x447 JUMPI PUSH0 DUP1 REVERT JUMPDEST POP PUSH2 0x462 PUSH1 0x4 DUP1 CALLDATASIZE SUB DUP2 ADD SWAP1 PUSH2 0x45D SWAP2 SWAP1 PUSH2 0x2A12 JUMP JUMPDEST PUSH2 0x279D JUMP JUMPDEST PUSH1 0x40 MLOAD PUSH2 0x46F SWAP2 SWAP1 PUSH2 0x2BD9 JUMP JUMPDEST PUSH1 0x40 MLOAD DUP1 SWAP2 SUB SWAP1 RETURN JUMPDEST CALLER PUSH20 0xFFFFFFFFFFFFFFFFFFFFFFFFFFFFFFFFFFFFFFFF AND PUSH0 DUP1 SLOAD SWAP1 PUSH2 0x100 EXP SWAP1 DIV PUSH20 0xFFFFFFFFFFFFFFFFFFFFFFFFFFFFFFFFFFFFFFFF AND PUSH20 0xFFFFFFFFFFFFFFFFFFFFFFFFFFFFFFFFFFFFFFFF AND EQ PUSH2 0x505 JUMPI PUSH1 0x40 MLOAD PUSH32 0x8C379A000000000000000000000000000000000000000000000000000000000 DUP2 MSTORE PUSH1 0x4 ADD PUSH2 0x4FC SWAP1 PUSH2 0x2C9A JUMP JUMPDEST PUSH1 0x40 MLOAD DUP1 SWAP2 SUB SWAP1 REVERT JUMPDEST PUSH0 PUSH20 0xFFFFFFFFFFFFFFFFFFFFFFFFFFFFFFFFFFFFFFFF AND PUSH1 0x7 PUSH0 DUP5 PUSH20 0xFFFFFFFFFFFFFFFFFFFFFFFFFFFFFFFFFFFFFFFF AND PUSH20 0xFFFFFFFFFFFFFFFFFFFFFFFFFFFFFFFFFFFFFFFF AND DUP2 MSTORE PUSH1 0x20 ADD SWAP1 DUP2 MSTORE PUSH1 0x20 ADD PUSH0 KECCAK256 PUSH0 ADD PUSH0 SWAP1 SLOAD SWAP1 PUSH2 0x100 EXP SWAP1 DIV PUSH20 0xFFFFFFFFFFFFFFFFFFFFFFFFFFFFFFFFFFFFFFFF AND PUSH20 0xFFFFFFFFFFFFFFFFFFFFFFFFFFFFFFFFFFFFFFFF AND EQ PUSH2 0x5D1 JUMPI PUSH1 0x40 MLOAD PUSH32 0x8C379A000000000000000000000000000000000000000000000000000000000 DUP2 MSTORE PUSH1 0x4 ADD PUSH2 0x5C8 SWAP1 PUSH2 0x2D02 JUMP JUMPDEST PUSH1 0x40 MLOAD DUP1 SWAP2 SUB SWAP1 REVERT JUMPDEST PUSH0 PUSH1 0x40 MLOAD DUP1 PUSH1 0xC0 ADD PUSH1 0x40 MSTORE DUP1 DUP5 PUSH20 0xFFFFFFFFFFFFFFFFFFFFFFFFFFFFFFFFFFFFFFFF AND DUP2 MSTORE PUSH1 0x20 ADD DUP4 DUP2 MSTORE PUSH1 0x20 ADD PUSH0 DUP2 MSTORE PUSH1 0x20 ADD PUSH3 0x278D00 TIMESTAMP PUSH2 0x614 SWAP2 SWAP1 PUSH2 0x2D4D JUMP JUMPDEST DUP2 MSTORE PUSH1 0x20 ADD TIMESTAMP DUP2 MSTORE PUSH1 0x20 ADD PUSH1 0x4 SLOAD DUP2 MSTORE POP SWAP1 POP DUP1 PUSH1 0x7 PUSH0 DUP6 PUSH20 0xFFFFFFFFFFFFFFFFFFFFFFFFFFFFFFFFFFFFFFFF AND PUSH20 0xFFFFFFFFFFFFFFFFFFFFFFFFFFFFFFFFFFFFFFFF AND DUP2 MSTORE PUSH1 0x20 ADD SWAP1 DUP2 MSTORE PUSH1 0x20 ADD PUSH0 KECCAK256 PUSH0 DUP3 ADD MLOAD DUP2 PUSH0 ADD PUSH0 PUSH2 0x100 EXP DUP2 SLOAD DUP2 PUSH20 0xFFFFFFFFFFFFFFFFFFFFFFFFFFFFFFFFFFFFFFFF MUL NOT AND SWAP1 DUP4 PUSH20 0xFFFFFFFFFFFFFFFFFFFFFFFFFFFFFFFFFFFFFFFF AND MUL OR SWAP1 SSTORE POP PUSH1 0x20 DUP3 ADD MLOAD DUP2 PUSH1 0x1 ADD SSTORE PUSH1 0x40 DUP3 ADD MLOAD DUP2 PUSH1 0x2 ADD SSTORE PUSH1 0x60 DUP3 ADD MLOAD DUP2 PUSH1 0x3 ADD SSTORE PUSH1 0x80 DUP3 ADD MLOAD DUP2 PUSH1 0x4 ADD SSTORE PUSH1 0xA0 DUP3 ADD MLOAD DUP2 PUSH1 0x5 ADD SSTORE SWAP1 POP POP PUSH1 0x6 DUP4 SWAP1 DUP1 PUSH1 0x1 DUP2 SLOAD ADD DUP1 DUP3 SSTORE DUP1 SWAP2 POP POP PUSH1 0x1 SWAP1 SUB SWAP1 PUSH0 MSTORE PUSH1 0x20 PUSH0 KECCAK256 ADD PUSH0 SWAP1 SWAP2 SWAP1 SWAP2 SWAP1 SWAP2 PUSH2 0x100 EXP DUP2 SLOAD DUP2 PUSH20 0xFFFFFFFFFFFFFFFFFFFFFFFFFFFFFFFFFFFFFFFF MUL NOT AND SWAP1 DUP4 PUSH20 0xFFFFFFFFFFFFFFFFFFFFFFFFFFFFFFFFFFFFFFFF AND MUL OR SWAP1 SSTORE POP PUSH1 0x1 PUSH1 0x4 PUSH0 DUP3 DUP3 SLOAD PUSH2 0x750 SWAP2 SWAP1 PUSH2 0x2D80 JUMP JUMPDEST SWAP3 POP POP DUP2 SWAP1 SSTORE POP POP POP POP JUMP JUMPDEST CALLER PUSH20 0xFFFFFFFFFFFFFFFFFFFFFFFFFFFFFFFFFFFFFFFF AND PUSH0 DUP1 SLOAD SWAP1 PUSH2 0x100 EXP SWAP1 DIV PUSH20 0xFFFFFFFFFFFFFFFFFFFFFFFFFFFFFFFFFFFFFFFF AND PUSH20 0xFFFFFFFFFFFFFFFFFFFFFFFFFFFFFFFFFFFFFFFF AND EQ PUSH2 0x7E9 JUMPI PUSH1 0x40 MLOAD PUSH32 0x8C379A000000000000000000000000000000000000000000000000000000000 DUP2 MSTORE PUSH1 0x4 ADD PUSH2 0x7E0 SWAP1 PUSH2 0x2C9A JUMP JUMPDEST PUSH1 0x40 MLOAD DUP1 SWAP2 SUB SWAP1 REVERT JUMPDEST PUSH0 PUSH20 0xFFFFFFFFFFFFFFFFFFFFFFFFFFFFFFFFFFFFFFFF AND PUSH1 0x7 PUSH0 DUP5 PUSH20 0xFFFFFFFFFFFFFFFFFFFFFFFFFFFFFFFFFFFFFFFF AND PUSH20 0xFFFFFFFFFFFFFFFFFFFFFFFFFFFFFFFFFFFFFFFF AND DUP2 MSTORE PUSH1 0x20 ADD SWAP1 DUP2 MSTORE PUSH1 0x20 ADD PUSH0 KECCAK256 PUSH0 ADD PUSH0 SWAP1 SLOAD SWAP1 PUSH2 0x100 EXP SWAP1 DIV PUSH20 0xFFFFFFFFFFFFFFFFFFFFFFFFFFFFFFFFFFFFFFFF AND PUSH20 0xFFFFFFFFFFFFFFFFFFFFFFFFFFFFFFFFFFFFFFFF AND SUB PUSH2 0x8B5 JUMPI PUSH1 0x40 MLOAD PUSH32 0x8C379A000000000000000000000000000000000000000000000000000000000 DUP2 MSTORE PUSH1 0x4 ADD PUSH2 0x8AC SWAP1 PUSH2 0x2DFD JUMP JUMPDEST PUSH1 0x40 MLOAD DUP1 SWAP2 SUB SWAP1 REVERT JUMPDEST PUSH3 0x15180 DUP2 PUSH2 0x8C4 SWAP2 SWAP1 PUSH2 0x2E1B JUMP JUMPDEST PUSH1 0x7 PUSH0 DUP5 PUSH20 0xFFFFFFFFFFFFFFFFFFFFFFFFFFFFFFFFFFFFFFFF AND PUSH20 0xFFFFFFFFFFFFFFFFFFFFFFFFFFFFFFFFFFFFFFFF AND DUP2 MSTORE PUSH1 0x20 ADD SWAP1 DUP2 MSTORE PUSH1 0x20 ADD PUSH0 KECCAK256 PUSH1 0x3 ADD PUSH0 DUP3 DUP3 SLOAD PUSH2 0x912 SWAP2 SWAP1 PUSH2 0x2D80 JUMP JUMPDEST SWAP3 POP POP DUP2 SWAP1 SSTORE POP POP POP JUMP JUMPDEST CALLER PUSH20 0xFFFFFFFFFFFFFFFFFFFFFFFFFFFFFFFFFFFFFFFF AND PUSH0 DUP1 SLOAD SWAP1 PUSH2 0x100 EXP SWAP1 DIV PUSH20 0xFFFFFFFFFFFFFFFFFFFFFFFFFFFFFFFFFFFFFFFF AND PUSH20 0xFFFFFFFFFFFFFFFFFFFFFFFFFFFFFFFFFFFFFFFF AND EQ PUSH2 0x9AA JUMPI PUSH1 0x40 MLOAD PUSH32 0x8C379A000000000000000000000000000000000000000000000000000000000 DUP2 MSTORE PUSH1 0x4 ADD PUSH2 0x9A1 SWAP1 PUSH2 0x2C9A JUMP JUMPDEST PUSH1 0x40 MLOAD DUP1 SWAP2 SUB SWAP1 REVERT JUMPDEST DUP1 PUSH1 0x7 PUSH0 DUP5 PUSH20 0xFFFFFFFFFFFFFFFFFFFFFFFFFFFFFFFFFFFFFFFF AND PUSH20 0xFFFFFFFFFFFFFFFFFFFFFFFFFFFFFFFFFFFFFFFF AND DUP2 MSTORE PUSH1 0x20 ADD SWAP1 DUP2 MSTORE PUSH1 0x20 ADD PUSH0 KECCAK256 PUSH1 0x2 ADD DUP2 SWAP1 SSTORE POP POP POP JUMP JUMPDEST CALLER PUSH20 0xFFFFFFFFFFFFFFFFFFFFFFFFFFFFFFFFFFFFFFFF AND PUSH0 DUP1 SLOAD SWAP1 PUSH2 0x100 EXP SWAP1 DIV PUSH20 0xFFFFFFFFFFFFFFFFFFFFFFFFFFFFFFFFFFFFFFFF AND PUSH20 0xFFFFFFFFFFFFFFFFFFFFFFFFFFFFFFFFFFFFFFFF AND EQ PUSH2 0xA80 JUMPI PUSH1 0x40 MLOAD PUSH32 0x8C379A000000000000000000000000000000000000000000000000000000000 DUP2 MSTORE PUSH1 0x4 ADD PUSH2 0xA77 SWAP1 PUSH2 0x2C9A JUMP JUMPDEST PUSH1 0x40 MLOAD DUP1 SWAP2 SUB SWAP1 REVERT JUMPDEST PUSH0 CALLVALUE GT PUSH2 0xAC2 JUMPI PUSH1 0x40 MLOAD PUSH32 0x8C379A000000000000000000000000000000000000000000000000000000000 DUP2 MSTORE PUSH1 0x4 ADD PUSH2 0xAB9 SWAP1 PUSH2 0x2EA6 JUMP JUMPDEST PUSH1 0x40 MLOAD DUP1 SWAP2 SUB SWAP1 REVERT JUMPDEST PUSH0 PUSH2 0xACB PUSH2 0x1DF9 JUMP JUMPDEST SWAP1 POP PUSH0 JUMPDEST PUSH1 0x4 SLOAD DUP2 LT ISZERO PUSH2 0xFC9 JUMPI PUSH0 DUP1 PUSH1 0x7 PUSH0 PUSH1 0x6 DUP6 DUP2 SLOAD DUP2 LT PUSH2 0xAF2 JUMPI PUSH2 0xAF1 PUSH2 0x2EC4 JUMP JUMPDEST JUMPDEST SWAP1 PUSH0 MSTORE PUSH1 0x20 PUSH0 KECCAK256 ADD PUSH0 SWAP1 SLOAD SWAP1 PUSH2 0x100 EXP SWAP1 DIV PUSH20 0xFFFFFFFFFFFFFFFFFFFFFFFFFFFFFFFFFFFFFFFF AND PUSH20 0xFFFFFFFFFFFFFFFFFFFFFFFFFFFFFFFFFFFFFFFF AND PUSH20 0xFFFFFFFFFFFFFFFFFFFFFFFFFFFFFFFFFFFFFFFF AND DUP2 MSTORE PUSH1 0x20 ADD SWAP1 DUP2 MSTORE PUSH1 0x20 ADD PUSH0 KECCAK256 PUSH1 0x1 ADD SLOAD EQ ISZERO DUP1 ISZERO PUSH2 0xBE2 JUMPI POP PUSH1 0x7 PUSH0 PUSH1 0x6 DUP5 DUP2 SLOAD DUP2 LT PUSH2 0xB77 JUMPI PUSH2 0xB76 PUSH2 0x2EC4 JUMP JUMPDEST JUMPDEST SWAP1 PUSH0 MSTORE PUSH1 0x20 PUSH0 KECCAK256 ADD PUSH0 SWAP1 SLOAD SWAP1 PUSH2 0x100 EXP SWAP1 DIV PUSH20 0xFFFFFFFFFFFFFFFFFFFFFFFFFFFFFFFFFFFFFFFF AND PUSH20 0xFFFFFFFFFFFFFFFFFFFFFFFFFFFFFFFFFFFFFFFF AND PUSH20 0xFFFFFFFFFFFFFFFFFFFFFFFFFFFFFFFFFFFFFFFF AND DUP2 MSTORE PUSH1 0x20 ADD SWAP1 DUP2 MSTORE PUSH1 0x20 ADD PUSH0 KECCAK256 PUSH1 0x3 ADD SLOAD PUSH1 0x5 SLOAD LT ISZERO JUMPDEST ISZERO PUSH2 0xC66 JUMPI PUSH1 0x7 PUSH0 PUSH1 0x6 DUP5 DUP2 SLOAD DUP2 LT PUSH2 0xBFE JUMPI PUSH2 0xBFD PUSH2 0x2EC4 JUMP JUMPDEST JUMPDEST SWAP1 PUSH0 MSTORE PUSH1 0x20 PUSH0 KECCAK256 ADD PUSH0 SWAP1 SLOAD SWAP1 PUSH2 0x100 EXP SWAP1 DIV PUSH20 0xFFFFFFFFFFFFFFFFFFFFFFFFFFFFFFFFFFFFFFFF AND PUSH20 0xFFFFFFFFFFFFFFFFFFFFFFFFFFFFFFFFFFFFFFFF AND PUSH20 0xFFFFFFFFFFFFFFFFFFFFFFFFFFFFFFFFFFFFFFFF AND DUP2 MSTORE PUSH1 0x20 ADD SWAP1 DUP2 MSTORE PUSH1 0x20 ADD PUSH0 KECCAK256 PUSH1 0x1 ADD SLOAD SWAP1 POP JUMPDEST PUSH0 PUSH1 0x7 PUSH0 PUSH1 0x6 DUP6 DUP2 SLOAD DUP2 LT PUSH2 0xC7E JUMPI PUSH2 0xC7D PUSH2 0x2EC4 JUMP JUMPDEST JUMPDEST SWAP1 PUSH0 MSTORE PUSH1 0x20 PUSH0 KECCAK256 ADD PUSH0 SWAP1 SLOAD SWAP1 PUSH2 0x100 EXP SWAP1 DIV PUSH20 0xFFFFFFFFFFFFFFFFFFFFFFFFFFFFFFFFFFFFFFFF AND PUSH20 0xFFFFFFFFFFFFFFFFFFFFFFFFFFFFFFFFFFFFFFFF AND PUSH20 0xFFFFFFFFFFFFFFFFFFFFFFFFFFFFFFFFFFFFFFFF AND DUP2 MSTORE PUSH1 0x20 ADD SWAP1 DUP2 MSTORE PUSH1 0x20 ADD PUSH0 KECCAK256 PUSH1 0x2 ADD SLOAD EQ PUSH2 0xE75 JUMPI PUSH1 0x7 PUSH0 PUSH1 0x6 DUP5 DUP2 SLOAD DUP2 LT PUSH2 0xCFF JUMPI PUSH2 0xCFE PUSH2 0x2EC4 JUMP JUMPDEST JUMPDEST SWAP1 PUSH0 MSTORE PUSH1 0x20 PUSH0 KECCAK256 ADD PUSH0 SWAP1 SLOAD SWAP1 PUSH2 0x100 EXP SWAP1 DIV PUSH20 0xFFFFFFFFFFFFFFFFFFFFFFFFFFFFFFFFFFFFFFFF AND PUSH20 0xFFFFFFFFFFFFFFFFFFFFFFFFFFFFFFFFFFFFFFFF AND PUSH20 0xFFFFFFFFFFFFFFFFFFFFFFFFFFFFFFFFFFFFFFFF AND DUP2 MSTORE PUSH1 0x20 ADD SWAP1 DUP2 MSTORE PUSH1 0x20 ADD PUSH0 KECCAK256 PUSH1 0x2 ADD SLOAD PUSH1 0x7 PUSH0 PUSH1 0x6 DUP6 DUP2 SLOAD DUP2 LT PUSH2 0xD7B JUMPI PUSH2 0xD7A PUSH2 0x2EC4 JUMP JUMPDEST JUMPDEST SWAP1 PUSH0 MSTORE PUSH1 0x20 PUSH0 KECCAK256 ADD PUSH0 SWAP1 SLOAD SWAP1 PUSH2 0x100 EXP SWAP1 DIV PUSH20 0xFFFFFFFFFFFFFFFFFFFFFFFFFFFFFFFFFFFFFFFF AND PUSH20 0xFFFFFFFFFFFFFFFFFFFFFFFFFFFFFFFFFFFFFFFF AND PUSH20 0xFFFFFFFFFFFFFFFFFFFFFFFFFFFFFFFFFFFFFFFF AND DUP2 MSTORE PUSH1 0x20 ADD SWAP1 DUP2 MSTORE PUSH1 0x20 ADD PUSH0 KECCAK256 PUSH1 0x1 ADD PUSH0 DUP3 DUP3 SLOAD PUSH2 0xDED SWAP2 SWAP1 PUSH2 0x2D80 JUMP JUMPDEST SWAP3 POP POP DUP2 SWAP1 SSTORE POP PUSH0 PUSH1 0x7 PUSH0 PUSH1 0x6 DUP6 DUP2 SLOAD DUP2 LT PUSH2 0xE0C JUMPI PUSH2 0xE0B PUSH2 0x2EC4 JUMP JUMPDEST JUMPDEST SWAP1 PUSH0 MSTORE PUSH1 0x20 PUSH0 KECCAK256 ADD PUSH0 SWAP1 SLOAD SWAP1 PUSH2 0x100 EXP SWAP1 DIV PUSH20 0xFFFFFFFFFFFFFFFFFFFFFFFFFFFFFFFFFFFFFFFF AND PUSH20 0xFFFFFFFFFFFFFFFFFFFFFFFFFFFFFFFFFFFFFFFF AND PUSH20 0xFFFFFFFFFFFFFFFFFFFFFFFFFFFFFFFFFFFFFFFF AND DUP2 MSTORE PUSH1 0x20 ADD SWAP1 DUP2 MSTORE PUSH1 0x20 ADD PUSH0 KECCAK256 PUSH1 0x2 ADD DUP2 SWAP1 SSTORE POP JUMPDEST PUSH0 DUP2 SUB PUSH2 0xE82 JUMPI POP PUSH2 0xFBC JUMP JUMPDEST PUSH0 DUP4 CALLVALUE DUP4 PUSH2 0xE90 SWAP2 SWAP1 PUSH2 0x2E1B JUMP JUMPDEST PUSH2 0xE9A SWAP2 SWAP1 PUSH2 0x2F1E JUMP JUMPDEST SWAP1 POP PUSH0 PUSH1 0x7 PUSH0 PUSH1 0x6 DUP7 DUP2 SLOAD DUP2 LT PUSH2 0xEB4 JUMPI PUSH2 0xEB3 PUSH2 0x2EC4 JUMP JUMPDEST JUMPDEST SWAP1 PUSH0 MSTORE PUSH1 0x20 PUSH0 KECCAK256 ADD PUSH0 SWAP1 SLOAD SWAP1 PUSH2 0x100 EXP SWAP1 DIV PUSH20 0xFFFFFFFFFFFFFFFFFFFFFFFFFFFFFFFFFFFFFFFF AND PUSH20 0xFFFFFFFFFFFFFFFFFFFFFFFFFFFFFFFFFFFFFFFF AND PUSH20 0xFFFFFFFFFFFFFFFFFFFFFFFFFFFFFFFFFFFFFFFF AND DUP2 MSTORE PUSH1 0x20 ADD SWAP1 DUP2 MSTORE PUSH1 0x20 ADD PUSH0 KECCAK256 PUSH0 ADD PUSH0 SWAP1 SLOAD SWAP1 PUSH2 0x100 EXP SWAP1 DIV PUSH20 0xFFFFFFFFFFFFFFFFFFFFFFFFFFFFFFFFFFFFFFFF AND SWAP1 POP DUP1 PUSH20 0xFFFFFFFFFFFFFFFFFFFFFFFFFFFFFFFFFFFFFFFF AND PUSH2 0x8FC DUP4 SWAP1 DUP2 ISZERO MUL SWAP1 PUSH1 0x40 MLOAD PUSH0 PUSH1 0x40 MLOAD DUP1 DUP4 SUB DUP2 DUP6 DUP9 DUP9 CALL SWAP4 POP POP POP POP ISZERO DUP1 ISZERO PUSH2 0xF7C JUMPI RETURNDATASIZE PUSH0 DUP1 RETURNDATACOPY RETURNDATASIZE PUSH0 REVERT JUMPDEST POP PUSH32 0xD8E54F1DC02CC5A9165E48BB0C19D3DC0D14902829BC2C791083D3180150F1DE DUP2 DUP4 DUP6 PUSH1 0x40 MLOAD PUSH2 0xFB0 SWAP4 SWAP3 SWAP2 SWAP1 PUSH2 0x2FA9 JUMP JUMPDEST PUSH1 0x40 MLOAD DUP1 SWAP2 SUB SWAP1 LOG1 POP POP POP JUMPDEST DUP1 DUP1 PUSH1 0x1 ADD SWAP2 POP POP PUSH2 0xACF JUMP JUMPDEST POP TIMESTAMP PUSH1 0x5 DUP2 SWAP1 SSTORE POP POP JUMP JUMPDEST CALLER PUSH20 0xFFFFFFFFFFFFFFFFFFFFFFFFFFFFFFFFFFFFFFFF AND PUSH0 DUP1 SLOAD SWAP1 PUSH2 0x100 EXP SWAP1 DIV PUSH20 0xFFFFFFFFFFFFFFFFFFFFFFFFFFFFFFFFFFFFFFFF AND PUSH20 0xFFFFFFFFFFFFFFFFFFFFFFFFFFFFFFFFFFFFFFFF AND EQ PUSH2 0x1061 JUMPI PUSH1 0x40 MLOAD PUSH32 0x8C379A000000000000000000000000000000000000000000000000000000000 DUP2 MSTORE PUSH1 0x4 ADD PUSH2 0x1058 SWAP1 PUSH2 0x2C9A JUMP JUMPDEST PUSH1 0x40 MLOAD DUP1 SWAP2 SUB SWAP1 REVERT JUMPDEST DUP1 PUSH0 DUP1 PUSH2 0x100 EXP DUP2 SLOAD DUP2 PUSH20 0xFFFFFFFFFFFFFFFFFFFFFFFFFFFFFFFFFFFFFFFF MUL NOT AND SWAP1 DUP4 PUSH20 0xFFFFFFFFFFFFFFFFFFFFFFFFFFFFFFFFFFFFFFFF AND MUL OR SWAP1 SSTORE POP POP JUMP JUMPDEST CALLER PUSH20 0xFFFFFFFFFFFFFFFFFFFFFFFFFFFFFFFFFFFFFFFF AND PUSH0 DUP1 SLOAD SWAP1 PUSH2 0x100 EXP SWAP1 DIV PUSH20 0xFFFFFFFFFFFFFFFFFFFFFFFFFFFFFFFFFFFFFFFF AND PUSH20 0xFFFFFFFFFFFFFFFFFFFFFFFFFFFFFFFFFFFFFFFF AND EQ PUSH2 0x1130 JUMPI PUSH1 0x40 MLOAD PUSH32 0x8C379A000000000000000000000000000000000000000000000000000000000 DUP2 MSTORE PUSH1 0x4 ADD PUSH2 0x1127 SWAP1 PUSH2 0x2C9A JUMP JUMPDEST PUSH1 0x40 MLOAD DUP1 SWAP2 SUB SWAP1 REVERT JUMPDEST PUSH0 PUSH20 0xFFFFFFFFFFFFFFFFFFFFFFFFFFFFFFFFFFFFFFFF AND PUSH1 0x7 PUSH0 DUP8 PUSH20 0xFFFFFFFFFFFFFFFFFFFFFFFFFFFFFFFFFFFFFFFF AND PUSH20 0xFFFFFFFFFFFFFFFFFFFFFFFFFFFFFFFFFFFFFFFF AND DUP2 MSTORE PUSH1 0x20 ADD SWAP1 DUP2 MSTORE PUSH1 0x20 ADD PUSH0 KECCAK256 PUSH0 ADD PUSH0 SWAP1 SLOAD SWAP1 PUSH2 0x100 EXP SWAP1 DIV PUSH20 0xFFFFFFFFFFFFFFFFFFFFFFFFFFFFFFFFFFFFFFFF AND PUSH20 0xFFFFFFFFFFFFFFFFFFFFFFFFFFFFFFFFFFFFFFFF AND SUB PUSH2 0x11FC JUMPI PUSH1 0x40 MLOAD PUSH32 0x8C379A000000000000000000000000000000000000000000000000000000000 DUP2 MSTORE PUSH1 0x4 ADD PUSH2 0x11F3 SWAP1 PUSH2 0x2DFD JUMP JUMPDEST PUSH1 0x40 MLOAD DUP1 SWAP2 SUB SWAP1 REVERT JUMPDEST PUSH0 PUSH1 0x40 MLOAD DUP1 PUSH1 0xC0 ADD PUSH1 0x40 MSTORE DUP1 DUP8 PUSH20 0xFFFFFFFFFFFFFFFFFFFFFFFFFFFFFFFFFFFFFFFF AND DUP2 MSTORE PUSH1 0x20 ADD DUP7 DUP2 MSTORE PUSH1 0x20 ADD DUP6 DUP2 MSTORE PUSH1 0x20 ADD DUP5 DUP2 MSTORE PUSH1 0x20 ADD DUP4 DUP2 MSTORE PUSH1 0x20 ADD PUSH1 0x4 SLOAD DUP2 MSTORE POP SWAP1 POP DUP1 PUSH1 0x7 PUSH0 DUP9 PUSH20 0xFFFFFFFFFFFFFFFFFFFFFFFFFFFFFFFFFFFFFFFF AND PUSH20 0xFFFFFFFFFFFFFFFFFFFFFFFFFFFFFFFFFFFFFFFF AND DUP2 MSTORE PUSH1 0x20 ADD SWAP1 DUP2 MSTORE PUSH1 0x20 ADD PUSH0 KECCAK256 PUSH0 DUP3 ADD MLOAD DUP2 PUSH0 ADD PUSH0 PUSH2 0x100 EXP DUP2 SLOAD DUP2 PUSH20 0xFFFFFFFFFFFFFFFFFFFFFFFFFFFFFFFFFFFFFFFF MUL NOT AND SWAP1 DUP4 PUSH20 0xFFFFFFFFFFFFFFFFFFFFFFFFFFFFFFFFFFFFFFFF AND MUL OR SWAP1 SSTORE POP PUSH1 0x20 DUP3 ADD MLOAD DUP2 PUSH1 0x1 ADD SSTORE PUSH1 0x40 DUP3 ADD MLOAD DUP2 PUSH1 0x2 ADD SSTORE PUSH1 0x60 DUP3 ADD MLOAD DUP2 PUSH1 0x3 ADD SSTORE PUSH1 0x80 DUP3 ADD MLOAD DUP2 PUSH1 0x4 ADD SSTORE PUSH1 0xA0 DUP3 ADD MLOAD DUP2 PUSH1 0x5 ADD SSTORE SWAP1 POP POP DUP6 PUSH1 0x6 PUSH1 0x7 PUSH0 DUP10 PUSH20 0xFFFFFFFFFFFFFFFFFFFFFFFFFFFFFFFFFFFFFFFF AND PUSH20 0xFFFFFFFFFFFFFFFFFFFFFFFFFFFFFFFFFFFFFFFF AND DUP2 MSTORE PUSH1 0x20 ADD SWAP1 DUP2 MSTORE PUSH1 0x20 ADD PUSH0 KECCAK256 PUSH1 0x5 ADD SLOAD DUP2 SLOAD DUP2 LT PUSH2 0x1350 JUMPI PUSH2 0x134F PUSH2 0x2EC4 JUMP JUMPDEST JUMPDEST SWAP1 PUSH0 MSTORE PUSH1 0x20 PUSH0 KECCAK256 ADD PUSH0 PUSH2 0x100 EXP DUP2 SLOAD DUP2 PUSH20 0xFFFFFFFFFFFFFFFFFFFFFFFFFFFFFFFFFFFFFFFF MUL NOT AND SWAP1 DUP4 PUSH20 0xFFFFFFFFFFFFFFFFFFFFFFFFFFFFFFFFFFFFFFFF AND MUL OR SWAP1 SSTORE POP POP POP POP POP POP POP JUMP JUMPDEST PUSH2 0x13A5 PUSH2 0x28FD JUMP JUMPDEST PUSH0 PUSH20 0xFFFFFFFFFFFFFFFFFFFFFFFFFFFFFFFFFFFFFFFF AND PUSH1 0x7 PUSH0 DUP5 PUSH20 0xFFFFFFFFFFFFFFFFFFFFFFFFFFFFFFFFFFFFFFFF AND PUSH20 0xFFFFFFFFFFFFFFFFFFFFFFFFFFFFFFFFFFFFFFFF AND DUP2 MSTORE PUSH1 0x20 ADD SWAP1 DUP2 MSTORE PUSH1 0x20 ADD PUSH0 KECCAK256 PUSH0 ADD PUSH0 SWAP1 SLOAD SWAP1 PUSH2 0x100 EXP SWAP1 DIV PUSH20 0xFFFFFFFFFFFFFFFFFFFFFFFFFFFFFFFFFFFFFFFF AND PUSH20 0xFFFFFFFFFFFFFFFFFFFFFFFFFFFFFFFFFFFFFFFF AND SUB PUSH2 0x1471 JUMPI PUSH1 0x40 MLOAD PUSH32 0x8C379A000000000000000000000000000000000000000000000000000000000 DUP2 MSTORE PUSH1 0x4 ADD PUSH2 0x1468 SWAP1 PUSH2 0x2DFD JUMP JUMPDEST PUSH1 0x40 MLOAD DUP1 SWAP2 SUB SWAP1 REVERT JUMPDEST PUSH1 0x7 PUSH0 DUP4 PUSH20 0xFFFFFFFFFFFFFFFFFFFFFFFFFFFFFFFFFFFFFFFF AND PUSH20 0xFFFFFFFFFFFFFFFFFFFFFFFFFFFFFFFFFFFFFFFF AND DUP2 MSTORE PUSH1 0x20 ADD SWAP1 DUP2 MSTORE PUSH1 0x20 ADD PUSH0 KECCAK256 PUSH1 0x40 MLOAD DUP1 PUSH1 0xC0 ADD PUSH1 0x40 MSTORE SWAP1 DUP2 PUSH0 DUP3 ADD PUSH0 SWAP1 SLOAD SWAP1 PUSH2 0x100 EXP SWAP1 DIV PUSH20 0xFFFFFFFFFFFFFFFFFFFFFFFFFFFFFFFFFFFFFFFF AND PUSH20 0xFFFFFFFFFFFFFFFFFFFFFFFFFFFFFFFFFFFFFFFF AND PUSH20 0xFFFFFFFFFFFFFFFFFFFFFFFFFFFFFFFFFFFFFFFF AND DUP2 MSTORE PUSH1 0x20 ADD PUSH1 0x1 DUP3 ADD SLOAD DUP2 MSTORE PUSH1 0x20 ADD PUSH1 0x2 DUP3 ADD SLOAD DUP2 MSTORE PUSH1 0x20 ADD PUSH1 0x3 DUP3 ADD SLOAD DUP2 MSTORE PUSH1 0x20 ADD PUSH1 0x4 DUP3 ADD SLOAD DUP2 MSTORE PUSH1 0x20 ADD PUSH1 0x5 DUP3 ADD SLOAD DUP2 MSTORE POP POP SWAP1 POP SWAP2 SWAP1 POP JUMP JUMPDEST CALLER PUSH20 0xFFFFFFFFFFFFFFFFFFFFFFFFFFFFFFFFFFFFFFFF AND PUSH0 DUP1 SLOAD SWAP1 PUSH2 0x100 EXP SWAP1 DIV PUSH20 0xFFFFFFFFFFFFFFFFFFFFFFFFFFFFFFFFFFFFFFFF AND PUSH20 0xFFFFFFFFFFFFFFFFFFFFFFFFFFFFFFFFFFFFFFFF AND EQ PUSH2 0x15D3 JUMPI PUSH1 0x40 MLOAD PUSH32 0x8C379A000000000000000000000000000000000000000000000000000000000 DUP2 MSTORE PUSH1 0x4 ADD PUSH2 0x15CA SWAP1 PUSH2 0x2C9A JUMP JUMPDEST PUSH1 0x40 MLOAD DUP1 SWAP2 SUB SWAP1 REVERT JUMPDEST DUP1 PUSH20 0xFFFFFFFFFFFFFFFFFFFFFFFFFFFFFFFFFFFFFFFF AND PUSH2 0x8FC SELFBALANCE SWAP1 DUP2 ISZERO MUL SWAP1 PUSH1 0x40 MLOAD PUSH0 PUSH1 0x40 MLOAD DUP1 DUP4 SUB DUP2 DUP6 DUP9 DUP9 CALL SWAP4 POP POP POP POP ISZERO DUP1 ISZERO PUSH2 0x1616 JUMPI RETURNDATASIZE PUSH0 DUP1 RETURNDATACOPY RETURNDATASIZE PUSH0 REVERT JUMPDEST POP POP JUMP JUMPDEST PUSH0 PUSH20 0xFFFFFFFFFFFFFFFFFFFFFFFFFFFFFFFFFFFFFFFF AND PUSH1 0x2 PUSH0 CALLER PUSH20 0xFFFFFFFFFFFFFFFFFFFFFFFFFFFFFFFFFFFFFFFF AND PUSH20 0xFFFFFFFFFFFFFFFFFFFFFFFFFFFFFFFFFFFFFFFF AND DUP2 MSTORE PUSH1 0x20 ADD SWAP1 DUP2 MSTORE PUSH1 0x20 ADD PUSH0 KECCAK256 PUSH0 ADD PUSH0 SWAP1 SLOAD SWAP1 PUSH2 0x100 EXP SWAP1 DIV PUSH20 0xFFFFFFFFFFFFFFFFFFFFFFFFFFFFFFFFFFFFFFFF AND PUSH20 0xFFFFFFFFFFFFFFFFFFFFFFFFFFFFFFFFFFFFFFFF AND SUB PUSH2 0x16E6 JUMPI PUSH1 0x40 MLOAD PUSH32 0x8C379A000000000000000000000000000000000000000000000000000000000 DUP2 MSTORE PUSH1 0x4 ADD PUSH2 0x16DD SWAP1 PUSH2 0x304E JUMP JUMPDEST PUSH1 0x40 MLOAD DUP1 SWAP2 SUB SWAP1 REVERT JUMPDEST PUSH1 0x40 MLOAD DUP1 PUSH1 0x40 ADD PUSH1 0x40 MSTORE DUP1 DUP3 PUSH20 0xFFFFFFFFFFFFFFFFFFFFFFFFFFFFFFFFFFFFFFFF AND DUP2 MSTORE PUSH1 0x20 ADD PUSH1 0x3 SLOAD DUP2 MSTORE POP PUSH1 0x2 PUSH0 DUP4 PUSH20 0xFFFFFFFFFFFFFFFFFFFFFFFFFFFFFFFFFFFFFFFF AND PUSH20 0xFFFFFFFFFFFFFFFFFFFFFFFFFFFFFFFFFFFFFFFF AND DUP2 MSTORE PUSH1 0x20 ADD SWAP1 DUP2 MSTORE PUSH1 0x20 ADD PUSH0 KECCAK256 PUSH0 DUP3 ADD MLOAD DUP2 PUSH0 ADD PUSH0 PUSH2 0x100 EXP DUP2 SLOAD DUP2 PUSH20 0xFFFFFFFFFFFFFFFFFFFFFFFFFFFFFFFFFFFFFFFF MUL NOT AND SWAP1 DUP4 PUSH20 0xFFFFFFFFFFFFFFFFFFFFFFFFFFFFFFFFFFFFFFFF AND MUL OR SWAP1 SSTORE POP PUSH1 0x20 DUP3 ADD MLOAD DUP2 PUSH1 0x1 ADD SSTORE SWAP1 POP POP PUSH1 0x1 DUP2 SWAP1 DUP1 PUSH1 0x1 DUP2 SLOAD ADD DUP1 DUP3 SSTORE DUP1 SWAP2 POP POP PUSH1 0x1 SWAP1 SUB SWAP1 PUSH0 MSTORE PUSH1 0x20 PUSH0 KECCAK256 ADD PUSH0 SWAP1 SWAP2 SWAP1 SWAP2 SWAP1 SWAP2 PUSH2 0x100 EXP DUP2 SLOAD DUP2 PUSH20 0xFFFFFFFFFFFFFFFFFFFFFFFFFFFFFFFFFFFFFFFF MUL NOT AND SWAP1 DUP4 PUSH20 0xFFFFFFFFFFFFFFFFFFFFFFFFFFFFFFFFFFFFFFFF AND MUL OR SWAP1 SSTORE POP PUSH1 0x1 PUSH1 0x3 PUSH0 DUP3 DUP3 SLOAD PUSH2 0x1813 SWAP2 SWAP1 PUSH2 0x2D80 JUMP JUMPDEST SWAP3 POP POP DUP2 SWAP1 SSTORE POP POP JUMP JUMPDEST CALLER PUSH20 0xFFFFFFFFFFFFFFFFFFFFFFFFFFFFFFFFFFFFFFFF AND PUSH0 DUP1 SLOAD SWAP1 PUSH2 0x100 EXP SWAP1 DIV PUSH20 0xFFFFFFFFFFFFFFFFFFFFFFFFFFFFFFFFFFFFFFFF AND PUSH20 0xFFFFFFFFFFFFFFFFFFFFFFFFFFFFFFFFFFFFFFFF AND EQ PUSH2 0x18AA JUMPI PUSH1 0x40 MLOAD PUSH32 0x8C379A000000000000000000000000000000000000000000000000000000000 DUP2 MSTORE PUSH1 0x4 ADD PUSH2 0x18A1 SWAP1 PUSH2 0x2C9A JUMP JUMPDEST PUSH1 0x40 MLOAD DUP1 SWAP2 SUB SWAP1 REVERT JUMPDEST PUSH0 PUSH20 0xFFFFFFFFFFFFFFFFFFFFFFFFFFFFFFFFFFFFFFFF AND PUSH1 0x7 PUSH0 DUP4 PUSH20 0xFFFFFFFFFFFFFFFFFFFFFFFFFFFFFFFFFFFFFFFF AND PUSH20 0xFFFFFFFFFFFFFFFFFFFFFFFFFFFFFFFFFFFFFFFF AND DUP2 MSTORE PUSH1 0x20 ADD SWAP1 DUP2 MSTORE PUSH1 0x20 ADD PUSH0 KECCAK256 PUSH0 ADD PUSH0 SWAP1 SLOAD SWAP1 PUSH2 0x100 EXP SWAP1 DIV PUSH20 0xFFFFFFFFFFFFFFFFFFFFFFFFFFFFFFFFFFFFFFFF AND PUSH20 0xFFFFFFFFFFFFFFFFFFFFFFFFFFFFFFFFFFFFFFFF AND SUB PUSH2 0x1976 JUMPI PUSH1 0x40 MLOAD PUSH32 0x8C379A000000000000000000000000000000000000000000000000000000000 DUP2 MSTORE PUSH1 0x4 ADD PUSH2 0x196D SWAP1 PUSH2 0x2DFD JUMP JUMPDEST PUSH1 0x40 MLOAD DUP1 SWAP2 SUB SWAP1 REVERT JUMPDEST PUSH1 0x6 PUSH1 0x7 PUSH0 DUP4 PUSH20 0xFFFFFFFFFFFFFFFFFFFFFFFFFFFFFFFFFFFFFFFF AND PUSH20 0xFFFFFFFFFFFFFFFFFFFFFFFFFFFFFFFFFFFFFFFF AND DUP2 MSTORE PUSH1 0x20 ADD SWAP1 DUP2 MSTORE PUSH1 0x20 ADD PUSH0 KECCAK256 PUSH1 0x5 ADD SLOAD DUP2 SLOAD DUP2 LT PUSH2 0x19CA JUMPI PUSH2 0x19C9 PUSH2 0x2EC4 JUMP JUMPDEST JUMPDEST SWAP1 PUSH0 MSTORE PUSH1 0x20 PUSH0 KECCAK256 ADD PUSH0 PUSH2 0x100 EXP DUP2 SLOAD SWAP1 PUSH20 0xFFFFFFFFFFFFFFFFFFFFFFFFFFFFFFFFFFFFFFFF MUL NOT AND SWAP1 SSTORE PUSH1 0x7 PUSH0 DUP3 PUSH20 0xFFFFFFFFFFFFFFFFFFFFFFFFFFFFFFFFFFFFFFFF AND PUSH20 0xFFFFFFFFFFFFFFFFFFFFFFFFFFFFFFFFFFFFFFFF AND DUP2 MSTORE PUSH1 0x20 ADD SWAP1 DUP2 MSTORE PUSH1 0x20 ADD PUSH0 KECCAK256 PUSH0 DUP1 DUP3 ADD PUSH0 PUSH2 0x100 EXP DUP2 SLOAD SWAP1 PUSH20 0xFFFFFFFFFFFFFFFFFFFFFFFFFFFFFFFFFFFFFFFF MUL NOT AND SWAP1 SSTORE PUSH1 0x1 DUP3 ADD PUSH0 SWAP1 SSTORE PUSH1 0x2 DUP3 ADD PUSH0 SWAP1 SSTORE PUSH1 0x3 DUP3 ADD PUSH0 SWAP1 SSTORE PUSH1 0x4 DUP3 ADD PUSH0 SWAP1 SSTORE PUSH1 0x5 DUP3 ADD PUSH0 SWAP1 SSTORE POP POP POP JUMP JUMPDEST PUSH0 PUSH20 0xFFFFFFFFFFFFFFFFFFFFFFFFFFFFFFFFFFFFFFFF AND PUSH1 0x2 PUSH0 CALLER PUSH20 0xFFFFFFFFFFFFFFFFFFFFFFFFFFFFFFFFFFFFFFFF AND PUSH20 0xFFFFFFFFFFFFFFFFFFFFFFFFFFFFFFFFFFFFFFFF AND DUP2 MSTORE PUSH1 0x20 ADD SWAP1 DUP2 MSTORE PUSH1 0x20 ADD PUSH0 KECCAK256 PUSH0 ADD PUSH0 SWAP1 SLOAD SWAP1 PUSH2 0x100 EXP SWAP1 DIV PUSH20 0xFFFFFFFFFFFFFFFFFFFFFFFFFFFFFFFFFFFFFFFF AND PUSH20 0xFFFFFFFFFFFFFFFFFFFFFFFFFFFFFFFFFFFFFFFF AND SUB PUSH2 0x1B4B JUMPI PUSH1 0x40 MLOAD PUSH32 0x8C379A000000000000000000000000000000000000000000000000000000000 DUP2 MSTORE PUSH1 0x4 ADD PUSH2 0x1B42 SWAP1 PUSH2 0x304E JUMP JUMPDEST PUSH1 0x40 MLOAD DUP1 SWAP2 SUB SWAP1 REVERT JUMPDEST PUSH1 0x1 PUSH1 0x2 PUSH0 DUP4 PUSH20 0xFFFFFFFFFFFFFFFFFFFFFFFFFFFFFFFFFFFFFFFF AND PUSH20 0xFFFFFFFFFFFFFFFFFFFFFFFFFFFFFFFFFFFFFFFF AND DUP2 MSTORE PUSH1 0x20 ADD SWAP1 DUP2 MSTORE PUSH1 0x20 ADD PUSH0 KECCAK256 PUSH1 0x1 ADD SLOAD DUP2 SLOAD DUP2 LT PUSH2 0x1B9F JUMPI PUSH2 0x1B9E PUSH2 0x2EC4 JUMP JUMPDEST JUMPDEST SWAP1 PUSH0 MSTORE PUSH1 0x20 PUSH0 KECCAK256 ADD PUSH0 PUSH2 0x100 EXP DUP2 SLOAD SWAP1 PUSH20 0xFFFFFFFFFFFFFFFFFFFFFFFFFFFFFFFFFFFFFFFF MUL NOT AND SWAP1 SSTORE PUSH1 0x2 PUSH0 DUP3 PUSH20 0xFFFFFFFFFFFFFFFFFFFFFFFFFFFFFFFFFFFFFFFF AND PUSH20 0xFFFFFFFFFFFFFFFFFFFFFFFFFFFFFFFFFFFFFFFF AND DUP2 MSTORE PUSH1 0x20 ADD SWAP1 DUP2 MSTORE PUSH1 0x20 ADD PUSH0 KECCAK256 PUSH0 DUP1 DUP3 ADD PUSH0 PUSH2 0x100 EXP DUP2 SLOAD SWAP1 PUSH20 0xFFFFFFFFFFFFFFFFFFFFFFFFFFFFFFFFFFFFFFFF MUL NOT AND SWAP1 SSTORE PUSH1 0x1 DUP3 ADD PUSH0 SWAP1 SSTORE POP POP POP JUMP JUMPDEST CALLER PUSH20 0xFFFFFFFFFFFFFFFFFFFFFFFFFFFFFFFFFFFFFFFF AND PUSH0 DUP1 SLOAD SWAP1 PUSH2 0x100 EXP SWAP1 DIV PUSH20 0xFFFFFFFFFFFFFFFFFFFFFFFFFFFFFFFFFFFFFFFF AND PUSH20 0xFFFFFFFFFFFFFFFFFFFFFFFFFFFFFFFFFFFFFFFF AND EQ PUSH2 0x1CC5 JUMPI PUSH1 0x40 MLOAD PUSH32 0x8C379A000000000000000000000000000000000000000000000000000000000 DUP2 MSTORE PUSH1 0x4 ADD PUSH2 0x1CBC SWAP1 PUSH2 0x2C9A JUMP JUMPDEST PUSH1 0x40 MLOAD DUP1 SWAP2 SUB SWAP1 REVERT JUMPDEST PUSH0 PUSH20 0xFFFFFFFFFFFFFFFFFFFFFFFFFFFFFFFFFFFFFFFF AND PUSH1 0x7 PUSH0 DUP5 PUSH20 0xFFFFFFFFFFFFFFFFFFFFFFFFFFFFFFFFFFFFFFFF AND PUSH20 0xFFFFFFFFFFFFFFFFFFFFFFFFFFFFFFFFFFFFFFFF AND DUP2 MSTORE PUSH1 0x20 ADD SWAP1 DUP2 MSTORE PUSH1 0x20 ADD PUSH0 KECCAK256 PUSH0 ADD PUSH0 SWAP1 SLOAD SWAP1 PUSH2 0x100 EXP SWAP1 DIV PUSH20 0xFFFFFFFFFFFFFFFFFFFFFFFFFFFFFFFFFFFFFFFF AND PUSH20 0xFFFFFFFFFFFFFFFFFFFFFFFFFFFFFFFFFFFFFFFF AND SUB PUSH2 0x1D91 JUMPI PUSH1 0x40 MLOAD PUSH32 0x8C379A000000000000000000000000000000000000000000000000000000000 DUP2 MSTORE PUSH1 0x4 ADD PUSH2 0x1D88 SWAP1 PUSH2 0x2DFD JUMP JUMPDEST PUSH1 0x40 MLOAD DUP1 SWAP2 SUB SWAP1 REVERT JUMPDEST PUSH3 0x15180 DUP2 PUSH2 0x1DA0 SWAP2 SWAP1 PUSH2 0x2E1B JUMP JUMPDEST PUSH1 0x7 PUSH0 DUP5 PUSH20 0xFFFFFFFFFFFFFFFFFFFFFFFFFFFFFFFFFFFFFFFF AND PUSH20 0xFFFFFFFFFFFFFFFFFFFFFFFFFFFFFFFFFFFFFFFF AND DUP2 MSTORE PUSH1 0x20 ADD SWAP1 DUP2 MSTORE PUSH1 0x20 ADD PUSH0 KECCAK256 PUSH1 0x3 ADD PUSH0 DUP3 DUP3 SLOAD PUSH2 0x1DEE SWAP2 SWAP1 PUSH2 0x2D4D JUMP JUMPDEST SWAP3 POP POP DUP2 SWAP1 SSTORE POP POP POP JUMP JUMPDEST PUSH0 CALLER PUSH20 0xFFFFFFFFFFFFFFFFFFFFFFFFFFFFFFFFFFFFFFFF AND PUSH0 DUP1 SLOAD SWAP1 PUSH2 0x100 EXP SWAP1 DIV PUSH20 0xFFFFFFFFFFFFFFFFFFFFFFFFFFFFFFFFFFFFFFFF AND PUSH20 0xFFFFFFFFFFFFFFFFFFFFFFFFFFFFFFFFFFFFFFFF AND EQ PUSH2 0x1E87 JUMPI PUSH1 0x40 MLOAD PUSH32 0x8C379A000000000000000000000000000000000000000000000000000000000 DUP2 MSTORE PUSH1 0x4 ADD PUSH2 0x1E7E SWAP1 PUSH2 0x2C9A JUMP JUMPDEST PUSH1 0x40 MLOAD DUP1 SWAP2 SUB SWAP1 REVERT JUMPDEST PUSH0 DUP1 JUMPDEST PUSH1 0x4 SLOAD DUP2 LT ISZERO PUSH2 0x2038 JUMPI PUSH0 PUSH1 0x7 PUSH0 PUSH1 0x6 DUP5 DUP2 SLOAD DUP2 LT PUSH2 0x1EAC JUMPI PUSH2 0x1EAB PUSH2 0x2EC4 JUMP JUMPDEST JUMPDEST SWAP1 PUSH0 MSTORE PUSH1 0x20 PUSH0 KECCAK256 ADD PUSH0 SWAP1 SLOAD SWAP1 PUSH2 0x100 EXP SWAP1 DIV PUSH20 0xFFFFFFFFFFFFFFFFFFFFFFFFFFFFFFFFFFFFFFFF AND PUSH20 0xFFFFFFFFFFFFFFFFFFFFFFFFFFFFFFFFFFFFFFFF AND PUSH20 0xFFFFFFFFFFFFFFFFFFFFFFFFFFFFFFFFFFFFFFFF AND DUP2 MSTORE PUSH1 0x20 ADD SWAP1 DUP2 MSTORE PUSH1 0x20 ADD PUSH0 KECCAK256 PUSH1 0x1 ADD SLOAD EQ ISZERO DUP1 ISZERO PUSH2 0x1F9C JUMPI POP PUSH1 0x7 PUSH0 PUSH1 0x6 DUP4 DUP2 SLOAD DUP2 LT PUSH2 0x1F31 JUMPI PUSH2 0x1F30 PUSH2 0x2EC4 JUMP JUMPDEST JUMPDEST SWAP1 PUSH0 MSTORE PUSH1 0x20 PUSH0 KECCAK256 ADD PUSH0 SWAP1 SLOAD SWAP1 PUSH2 0x100 EXP SWAP1 DIV PUSH20 0xFFFFFFFFFFFFFFFFFFFFFFFFFFFFFFFFFFFFFFFF AND PUSH20 0xFFFFFFFFFFFFFFFFFFFFFFFFFFFFFFFFFFFFFFFF AND PUSH20 0xFFFFFFFFFFFFFFFFFFFFFFFFFFFFFFFFFFFFFFFF AND DUP2 MSTORE PUSH1 0x20 ADD SWAP1 DUP2 MSTORE PUSH1 0x20 ADD PUSH0 KECCAK256 PUSH1 0x3 ADD SLOAD PUSH1 0x5 SLOAD LT ISZERO JUMPDEST ISZERO PUSH2 0x202B JUMPI PUSH1 0x7 PUSH0 PUSH1 0x6 DUP4 DUP2 SLOAD DUP2 LT PUSH2 0x1FB8 JUMPI PUSH2 0x1FB7 PUSH2 0x2EC4 JUMP JUMPDEST JUMPDEST SWAP1 PUSH0 MSTORE PUSH1 0x20 PUSH0 KECCAK256 ADD PUSH0 SWAP1 SLOAD SWAP1 PUSH2 0x100 EXP SWAP1 DIV PUSH20 0xFFFFFFFFFFFFFFFFFFFFFFFFFFFFFFFFFFFFFFFF AND PUSH20 0xFFFFFFFFFFFFFFFFFFFFFFFFFFFFFFFFFFFFFFFF AND PUSH20 0xFFFFFFFFFFFFFFFFFFFFFFFFFFFFFFFFFFFFFFFF AND DUP2 MSTORE PUSH1 0x20 ADD SWAP1 DUP2 MSTORE PUSH1 0x20 ADD PUSH0 KECCAK256 PUSH1 0x1 ADD SLOAD DUP3 PUSH2 0x2028 SWAP2 SWAP1 PUSH2 0x2D80 JUMP JUMPDEST SWAP2 POP JUMPDEST DUP1 DUP1 PUSH1 0x1 ADD SWAP2 POP POP PUSH2 0x1E8A JUMP JUMPDEST POP DUP1 SWAP2 POP POP SWAP1 JUMP JUMPDEST CALLER PUSH20 0xFFFFFFFFFFFFFFFFFFFFFFFFFFFFFFFFFFFFFFFF AND PUSH0 DUP1 SLOAD SWAP1 PUSH2 0x100 EXP SWAP1 DIV PUSH20 0xFFFFFFFFFFFFFFFFFFFFFFFFFFFFFFFFFFFFFFFF AND PUSH20 0xFFFFFFFFFFFFFFFFFFFFFFFFFFFFFFFFFFFFFFFF AND EQ PUSH2 0x20CD JUMPI PUSH1 0x40 MLOAD PUSH32 0x8C379A000000000000000000000000000000000000000000000000000000000 DUP2 MSTORE PUSH1 0x4 ADD PUSH2 0x20C4 SWAP1 PUSH2 0x2C9A JUMP JUMPDEST PUSH1 0x40 MLOAD DUP1 SWAP2 SUB SWAP1 REVERT JUMPDEST DUP1 PUSH1 0x7 PUSH0 DUP5 PUSH20 0xFFFFFFFFFFFFFFFFFFFFFFFFFFFFFFFFFFFFFFFF AND PUSH20 0xFFFFFFFFFFFFFFFFFFFFFFFFFFFFFFFFFFFFFFFF AND DUP2 MSTORE PUSH1 0x20 ADD SWAP1 DUP2 MSTORE PUSH1 0x20 ADD PUSH0 KECCAK256 PUSH1 0x2 ADD PUSH0 DUP3 DUP3 SLOAD PUSH2 0x211C SWAP2 SWAP1 PUSH2 0x2D80 JUMP JUMPDEST SWAP3 POP POP DUP2 SWAP1 SSTORE POP TIMESTAMP PUSH1 0x7 PUSH0 DUP5 PUSH20 0xFFFFFFFFFFFFFFFFFFFFFFFFFFFFFFFFFFFFFFFF AND PUSH20 0xFFFFFFFFFFFFFFFFFFFFFFFFFFFFFFFFFFFFFFFF AND DUP2 MSTORE PUSH1 0x20 ADD SWAP1 DUP2 MSTORE PUSH1 0x20 ADD PUSH0 KECCAK256 PUSH1 0x4 ADD DUP2 SWAP1 SSTORE POP POP POP JUMP JUMPDEST PUSH0 DUP1 PUSH20 0xFFFFFFFFFFFFFFFFFFFFFFFFFFFFFFFFFFFFFFFF AND PUSH1 0x7 PUSH0 DUP5 PUSH20 0xFFFFFFFFFFFFFFFFFFFFFFFFFFFFFFFFFFFFFFFF AND PUSH20 0xFFFFFFFFFFFFFFFFFFFFFFFFFFFFFFFFFFFFFFFF AND DUP2 MSTORE PUSH1 0x20 ADD SWAP1 DUP2 MSTORE PUSH1 0x20 ADD PUSH0 KECCAK256 PUSH0 ADD PUSH0 SWAP1 SLOAD SWAP1 PUSH2 0x100 EXP SWAP1 DIV PUSH20 0xFFFFFFFFFFFFFFFFFFFFFFFFFFFFFFFFFFFFFFFF AND PUSH20 0xFFFFFFFFFFFFFFFFFFFFFFFFFFFFFFFFFFFFFFFF AND SUB PUSH2 0x2239 JUMPI PUSH1 0x40 MLOAD PUSH32 0x8C379A000000000000000000000000000000000000000000000000000000000 DUP2 MSTORE PUSH1 0x4 ADD PUSH2 0x2230 SWAP1 PUSH2 0x2DFD JUMP JUMPDEST PUSH1 0x40 MLOAD DUP1 SWAP2 SUB SWAP1 REVERT JUMPDEST PUSH1 0x7 PUSH0 DUP4 PUSH20 0xFFFFFFFFFFFFFFFFFFFFFFFFFFFFFFFFFFFFFFFF AND PUSH20 0xFFFFFFFFFFFFFFFFFFFFFFFFFFFFFFFFFFFFFFFF AND DUP2 MSTORE PUSH1 0x20 ADD SWAP1 DUP2 MSTORE PUSH1 0x20 ADD PUSH0 KECCAK256 PUSH0 ADD PUSH0 SWAP1 SLOAD SWAP1 PUSH2 0x100 EXP SWAP1 DIV PUSH20 0xFFFFFFFFFFFFFFFFFFFFFFFFFFFFFFFFFFFFFFFF AND SWAP1 POP SWAP2 SWAP1 POP JUMP JUMPDEST CALLER PUSH20 0xFFFFFFFFFFFFFFFFFFFFFFFFFFFFFFFFFFFFFFFF AND PUSH0 DUP1 SLOAD SWAP1 PUSH2 0x100 EXP SWAP1 DIV PUSH20 0xFFFFFFFFFFFFFFFFFFFFFFFFFFFFFFFFFFFFFFFF AND PUSH20 0xFFFFFFFFFFFFFFFFFFFFFFFFFFFFFFFFFFFFFFFF AND EQ PUSH2 0x232C JUMPI PUSH1 0x40 MLOAD PUSH32 0x8C379A000000000000000000000000000000000000000000000000000000000 DUP2 MSTORE PUSH1 0x4 ADD PUSH2 0x2323 SWAP1 PUSH2 0x2C9A JUMP JUMPDEST PUSH1 0x40 MLOAD DUP1 SWAP2 SUB SWAP1 REVERT JUMPDEST DUP1 PUSH1 0x7 PUSH0 DUP5 PUSH20 0xFFFFFFFFFFFFFFFFFFFFFFFFFFFFFFFFFFFFFFFF AND PUSH20 0xFFFFFFFFFFFFFFFFFFFFFFFFFFFFFFFFFFFFFFFF AND DUP2 MSTORE PUSH1 0x20 ADD SWAP1 DUP2 MSTORE PUSH1 0x20 ADD PUSH0 KECCAK256 PUSH1 0x1 ADD DUP2 SWAP1 SSTORE POP POP POP JUMP JUMPDEST PUSH0 DUP1 PUSH0 SWAP1 SLOAD SWAP1 PUSH2 0x100 EXP SWAP1 DIV PUSH20 0xFFFFFFFFFFFFFFFFFFFFFFFFFFFFFFFFFFFFFFFF AND SWAP1 POP SWAP1 JUMP JUMPDEST CALLER PUSH20 0xFFFFFFFFFFFFFFFFFFFFFFFFFFFFFFFFFFFFFFFF AND PUSH0 DUP1 SLOAD SWAP1 PUSH2 0x100 EXP SWAP1 DIV PUSH20 0xFFFFFFFFFFFFFFFFFFFFFFFFFFFFFFFFFFFFFFFF AND PUSH20 0xFFFFFFFFFFFFFFFFFFFFFFFFFFFFFFFFFFFFFFFF AND EQ PUSH2 0x2429 JUMPI PUSH1 0x40 MLOAD PUSH32 0x8C379A000000000000000000000000000000000000000000000000000000000 DUP2 MSTORE PUSH1 0x4 ADD PUSH2 0x2420 SWAP1 PUSH2 0x2C9A JUMP JUMPDEST PUSH1 0x40 MLOAD DUP1 SWAP2 SUB SWAP1 REVERT JUMPDEST PUSH1 0x7 PUSH0 DUP4 PUSH20 0xFFFFFFFFFFFFFFFFFFFFFFFFFFFFFFFFFFFFFFFF AND PUSH20 0xFFFFFFFFFFFFFFFFFFFFFFFFFFFFFFFFFFFFFFFF AND DUP2 MSTORE PUSH1 0x20 ADD SWAP1 DUP2 MSTORE PUSH1 0x20 ADD PUSH0 KECCAK256 PUSH1 0x2 ADD SLOAD PUSH1 0x7 PUSH0 DUP5 PUSH20 0xFFFFFFFFFFFFFFFFFFFFFFFFFFFFFFFFFFFFFFFF AND PUSH20 0xFFFFFFFFFFFFFFFFFFFFFFFFFFFFFFFFFFFFFFFF AND DUP2 MSTORE PUSH1 0x20 ADD SWAP1 DUP2 MSTORE PUSH1 0x20 ADD PUSH0 KECCAK256 PUSH1 0x1 ADD SLOAD PUSH2 0x24B5 SWAP2 SWAP1 PUSH2 0x2D80 JUMP JUMPDEST DUP2 GT ISZERO PUSH2 0x24F7 JUMPI PUSH1 0x40 MLOAD PUSH32 0x8C379A000000000000000000000000000000000000000000000000000000000 DUP2 MSTORE PUSH1 0x4 ADD PUSH2 0x24EE SWAP1 PUSH2 0x30B6 JUMP JUMPDEST PUSH1 0x40 MLOAD DUP1 SWAP2 SUB SWAP1 REVERT JUMPDEST PUSH1 0x7 PUSH0 DUP4 PUSH20 0xFFFFFFFFFFFFFFFFFFFFFFFFFFFFFFFFFFFFFFFF AND PUSH20 0xFFFFFFFFFFFFFFFFFFFFFFFFFFFFFFFFFFFFFFFF AND DUP2 MSTORE PUSH1 0x20 ADD SWAP1 DUP2 MSTORE PUSH1 0x20 ADD PUSH0 KECCAK256 PUSH1 0x2 ADD SLOAD DUP2 GT ISZERO PUSH2 0x262D JUMPI PUSH0 PUSH1 0x7 PUSH0 DUP5 PUSH20 0xFFFFFFFFFFFFFFFFFFFFFFFFFFFFFFFFFFFFFFFF AND PUSH20 0xFFFFFFFFFFFFFFFFFFFFFFFFFFFFFFFFFFFFFFFF AND DUP2 MSTORE PUSH1 0x20 ADD SWAP1 DUP2 MSTORE PUSH1 0x20 ADD PUSH0 KECCAK256 PUSH1 0x2 ADD DUP2 SWAP1 SSTORE POP PUSH1 0x7 PUSH0 DUP4 PUSH20 0xFFFFFFFFFFFFFFFFFFFFFFFFFFFFFFFFFFFFFFFF AND PUSH20 0xFFFFFFFFFFFFFFFFFFFFFFFFFFFFFFFFFFFFFFFF AND DUP2 MSTORE PUSH1 0x20 ADD SWAP1 DUP2 MSTORE PUSH1 0x20 ADD PUSH0 KECCAK256 PUSH1 0x2 ADD SLOAD DUP2 PUSH2 0x25D0 SWAP2 SWAP1 PUSH2 0x2D4D JUMP JUMPDEST SWAP1 POP DUP1 PUSH1 0x7 PUSH0 DUP5 PUSH20 0xFFFFFFFFFFFFFFFFFFFFFFFFFFFFFFFFFFFFFFFF AND PUSH20 0xFFFFFFFFFFFFFFFFFFFFFFFFFFFFFFFFFFFFFFFF AND DUP2 MSTORE PUSH1 0x20 ADD SWAP1 DUP2 MSTORE PUSH1 0x20 ADD PUSH0 KECCAK256 PUSH1 0x1 ADD PUSH0 DUP3 DUP3 SLOAD PUSH2 0x2621 SWAP2 SWAP1 PUSH2 0x2D4D JUMP JUMPDEST SWAP3 POP POP DUP2 SWAP1 SSTORE POP PUSH2 0x2684 JUMP JUMPDEST DUP1 PUSH1 0x7 PUSH0 DUP5 PUSH20 0xFFFFFFFFFFFFFFFFFFFFFFFFFFFFFFFFFFFFFFFF AND PUSH20 0xFFFFFFFFFFFFFFFFFFFFFFFFFFFFFFFFFFFFFFFF AND DUP2 MSTORE PUSH1 0x20 ADD SWAP1 DUP2 MSTORE PUSH1 0x20 ADD PUSH0 KECCAK256 PUSH1 0x2 ADD PUSH0 DUP3 DUP3 SLOAD PUSH2 0x267C SWAP2 SWAP1 PUSH2 0x2D4D JUMP JUMPDEST SWAP3 POP POP DUP2 SWAP1 SSTORE POP JUMPDEST POP POP JUMP JUMPDEST PUSH0 DUP1 PUSH20 0xFFFFFFFFFFFFFFFFFFFFFFFFFFFFFFFFFFFFFFFF AND PUSH1 0x7 PUSH0 DUP5 PUSH20 0xFFFFFFFFFFFFFFFFFFFFFFFFFFFFFFFFFFFFFFFF AND PUSH20 0xFFFFFFFFFFFFFFFFFFFFFFFFFFFFFFFFFFFFFFFF AND DUP2 MSTORE PUSH1 0x20 ADD SWAP1 DUP2 MSTORE PUSH1 0x20 ADD PUSH0 KECCAK256 PUSH0 ADD PUSH0 SWAP1 SLOAD SWAP1 PUSH2 0x100 EXP SWAP1 DIV PUSH20 0xFFFFFFFFFFFFFFFFFFFFFFFFFFFFFFFFFFFFFFFF AND PUSH20 0xFFFFFFFFFFFFFFFFFFFFFFFFFFFFFFFFFFFFFFFF AND SUB PUSH2 0x2755 JUMPI PUSH1 0x40 MLOAD PUSH32 0x8C379A000000000000000000000000000000000000000000000000000000000 DUP2 MSTORE PUSH1 0x4 ADD PUSH2 0x274C SWAP1 PUSH2 0x2DFD JUMP JUMPDEST PUSH1 0x40 MLOAD DUP1 SWAP2 SUB SWAP1 REVERT JUMPDEST PUSH1 0x7 PUSH0 DUP4 PUSH20 0xFFFFFFFFFFFFFFFFFFFFFFFFFFFFFFFFFFFFFFFF AND PUSH20 0xFFFFFFFFFFFFFFFFFFFFFFFFFFFFFFFFFFFFFFFF AND DUP2 MSTORE PUSH1 0x20 ADD SWAP1 DUP2 MSTORE PUSH1 0x20 ADD PUSH0 KECCAK256 PUSH1 0x5 ADD SLOAD SWAP1 POP SWAP2 SWAP1 POP JUMP JUMPDEST PUSH0 DUP1 PUSH20 0xFFFFFFFFFFFFFFFFFFFFFFFFFFFFFFFFFFFFFFFF AND PUSH1 0x7 PUSH0 DUP5 PUSH20 0xFFFFFFFFFFFFFFFFFFFFFFFFFFFFFFFFFFFFFFFF AND PUSH20 0xFFFFFFFFFFFFFFFFFFFFFFFFFFFFFFFFFFFFFFFF AND DUP2 MSTORE PUSH1 0x20 ADD SWAP1 DUP2 MSTORE PUSH1 0x20 ADD PUSH0 KECCAK256 PUSH0 ADD PUSH0 SWAP1 SLOAD SWAP1 PUSH2 0x100 EXP SWAP1 DIV PUSH20 0xFFFFFFFFFFFFFFFFFFFFFFFFFFFFFFFFFFFFFFFF AND PUSH20 0xFFFFFFFFFFFFFFFFFFFFFFFFFFFFFFFFFFFFFFFF AND SUB PUSH2 0x286A JUMPI PUSH1 0x40 MLOAD PUSH32 0x8C379A000000000000000000000000000000000000000000000000000000000 DUP2 MSTORE PUSH1 0x4 ADD PUSH2 0x2861 SWAP1 PUSH2 0x2DFD JUMP JUMPDEST PUSH1 0x40 MLOAD DUP1 SWAP2 SUB SWAP1 REVERT JUMPDEST PUSH1 0x7 PUSH0 DUP4 PUSH20 0xFFFFFFFFFFFFFFFFFFFFFFFFFFFFFFFFFFFFFFFF AND PUSH20 0xFFFFFFFFFFFFFFFFFFFFFFFFFFFFFFFFFFFFFFFF AND DUP2 MSTORE PUSH1 0x20 ADD SWAP1 DUP2 MSTORE PUSH1 0x20 ADD PUSH0 KECCAK256 PUSH1 0x2 ADD SLOAD PUSH1 0x7 PUSH0 DUP5 PUSH20 0xFFFFFFFFFFFFFFFFFFFFFFFFFFFFFFFFFFFFFFFF AND PUSH20 0xFFFFFFFFFFFFFFFFFFFFFFFFFFFFFFFFFFFFFFFF AND DUP2 MSTORE PUSH1 0x20 ADD SWAP1 DUP2 MSTORE PUSH1 0x20 ADD PUSH0 KECCAK256 PUSH1 0x1 ADD SLOAD PUSH2 0x28F6 SWAP2 SWAP1 PUSH2 0x2D80 JUMP JUMPDEST SWAP1 POP SWAP2 SWAP1 POP JUMP JUMPDEST PUSH1 0x40 MLOAD DUP1 PUSH1 0xC0 ADD PUSH1 0x40 MSTORE DUP1 PUSH0 PUSH20 0xFFFFFFFFFFFFFFFFFFFFFFFFFFFFFFFFFFFFFFFF AND DUP2 MSTORE PUSH1 0x20 ADD PUSH0 DUP2 MSTORE PUSH1 0x20 ADD PUSH0 DUP2 MSTORE PUSH1 0x20 ADD PUSH0 DUP2 MSTORE PUSH1 0x20 ADD PUSH0 DUP2 MSTORE PUSH1 0x20 ADD PUSH0 DUP2 MSTORE POP SWAP1 JUMP JUMPDEST PUSH0 DUP1 REVERT JUMPDEST PUSH0 PUSH20 0xFFFFFFFFFFFFFFFFFFFFFFFFFFFFFFFFFFFFFFFF DUP3 AND SWAP1 POP SWAP2 SWAP1 POP JUMP JUMPDEST PUSH0 PUSH2 0x2970 DUP3 PUSH2 0x2947 JUMP JUMPDEST SWAP1 POP SWAP2 SWAP1 POP JUMP JUMPDEST PUSH2 0x2980 DUP2 PUSH2 0x2966 JUMP JUMPDEST DUP2 EQ PUSH2 0x298A JUMPI PUSH0 DUP1 REVERT JUMPDEST POP JUMP JUMPDEST PUSH0 DUP2 CALLDATALOAD SWAP1 POP PUSH2 0x299B DUP2 PUSH2 0x2977 JUMP JUMPDEST SWAP3 SWAP2 POP POP JUMP JUMPDEST PUSH0 DUP2 SWAP1 POP SWAP2 SWAP1 POP JUMP JUMPDEST PUSH2 0x29B3 DUP2 PUSH2 0x29A1 JUMP JUMPDEST DUP2 EQ PUSH2 0x29BD JUMPI PUSH0 DUP1 REVERT JUMPDEST POP JUMP JUMPDEST PUSH0 DUP2 CALLDATALOAD SWAP1 POP PUSH2 0x29CE DUP2 PUSH2 0x29AA JUMP JUMPDEST SWAP3 SWAP2 POP POP JUMP JUMPDEST PUSH0 DUP1 PUSH1 0x40 DUP4 DUP6 SUB SLT ISZERO PUSH2 0x29EA JUMPI PUSH2 0x29E9 PUSH2 0x2943 JUMP JUMPDEST JUMPDEST PUSH0 PUSH2 0x29F7 DUP6 DUP3 DUP7 ADD PUSH2 0x298D JUMP JUMPDEST SWAP3 POP POP PUSH1 0x20 PUSH2 0x2A08 DUP6 DUP3 DUP7 ADD PUSH2 0x29C0 JUMP JUMPDEST SWAP2 POP POP SWAP3 POP SWAP3 SWAP1 POP JUMP JUMPDEST PUSH0 PUSH1 0x20 DUP3 DUP5 SUB SLT ISZERO PUSH2 0x2A27 JUMPI PUSH2 0x2A26 PUSH2 0x2943 JUMP JUMPDEST JUMPDEST PUSH0 PUSH2 0x2A34 DUP5 DUP3 DUP6 ADD PUSH2 0x298D JUMP JUMPDEST SWAP2 POP POP SWAP3 SWAP2 POP POP JUMP JUMPDEST PUSH0 DUP1 PUSH0 DUP1 PUSH0 PUSH1 0xA0 DUP7 DUP9 SUB SLT ISZERO PUSH2 0x2A56 JUMPI PUSH2 0x2A55 PUSH2 0x2943 JUMP JUMPDEST JUMPDEST PUSH0 PUSH2 0x2A63 DUP9 DUP3 DUP10 ADD PUSH2 0x298D JUMP JUMPDEST SWAP6 POP POP PUSH1 0x20 PUSH2 0x2A74 DUP9 DUP3 DUP10 ADD PUSH2 0x29C0 JUMP JUMPDEST SWAP5 POP POP PUSH1 0x40 PUSH2 0x2A85 DUP9 DUP3 DUP10 ADD PUSH2 0x29C0 JUMP JUMPDEST SWAP4 POP POP PUSH1 0x60 PUSH2 0x2A96 DUP9 DUP3 DUP10 ADD PUSH2 0x29C0 JUMP JUMPDEST SWAP3 POP POP PUSH1 0x80 PUSH2 0x2AA7 DUP9 DUP3 DUP10 ADD PUSH2 0x29C0 JUMP JUMPDEST SWAP2 POP POP SWAP3 SWAP6 POP SWAP3 SWAP6 SWAP1 SWAP4 POP JUMP JUMPDEST PUSH2 0x2ABD DUP2 PUSH2 0x2966 JUMP JUMPDEST DUP3 MSTORE POP POP JUMP JUMPDEST PUSH2 0x2ACC DUP2 PUSH2 0x29A1 JUMP JUMPDEST DUP3 MSTORE POP POP JUMP JUMPDEST PUSH1 0xC0 DUP3 ADD PUSH0 DUP3 ADD MLOAD PUSH2 0x2AE6 PUSH0 DUP6 ADD DUP3 PUSH2 0x2AB4 JUMP JUMPDEST POP PUSH1 0x20 DUP3 ADD MLOAD PUSH2 0x2AF9 PUSH1 0x20 DUP6 ADD DUP3 PUSH2 0x2AC3 JUMP JUMPDEST POP PUSH1 0x40 DUP3 ADD MLOAD PUSH2 0x2B0C PUSH1 0x40 DUP6 ADD DUP3 PUSH2 0x2AC3 JUMP JUMPDEST POP PUSH1 0x60 DUP3 ADD MLOAD PUSH2 0x2B1F PUSH1 0x60 DUP6 ADD DUP3 PUSH2 0x2AC3 JUMP JUMPDEST POP PUSH1 0x80 DUP3 ADD MLOAD PUSH2 0x2B32 PUSH1 0x80 DUP6 ADD DUP3 PUSH2 0x2AC3 JUMP JUMPDEST POP PUSH1 0xA0 DUP3 ADD MLOAD PUSH2 0x2B45 PUSH1 0xA0 DUP6 ADD DUP3 PUSH2 0x2AC3 JUMP JUMPDEST POP POP POP POP JUMP JUMPDEST PUSH0 PUSH1 0xC0 DUP3 ADD SWAP1 POP PUSH2 0x2B5E PUSH0 DUP4 ADD DUP5 PUSH2 0x2AD2 JUMP JUMPDEST SWAP3 SWAP2 POP POP JUMP JUMPDEST PUSH0 PUSH2 0x2B6E DUP3 PUSH2 0x2947 JUMP JUMPDEST SWAP1 POP SWAP2 SWAP1 POP JUMP JUMPDEST PUSH2 0x2B7E DUP2 PUSH2 0x2B64 JUMP JUMPDEST DUP2 EQ PUSH2 0x2B88 JUMPI PUSH0 DUP1 REVERT JUMPDEST POP JUMP JUMPDEST PUSH0 DUP2 CALLDATALOAD SWAP1 POP PUSH2 0x2B99 DUP2 PUSH2 0x2B75 JUMP JUMPDEST SWAP3 SWAP2 POP POP JUMP JUMPDEST PUSH0 PUSH1 0x20 DUP3 DUP5 SUB SLT ISZERO PUSH2 0x2BB4 JUMPI PUSH2 0x2BB3 PUSH2 0x2943 JUMP JUMPDEST JUMPDEST PUSH0 PUSH2 0x2BC1 DUP5 DUP3 DUP6 ADD PUSH2 0x2B8B JUMP JUMPDEST SWAP2 POP POP SWAP3 SWAP2 POP POP JUMP JUMPDEST PUSH2 0x2BD3 DUP2 PUSH2 0x29A1 JUMP JUMPDEST DUP3 MSTORE POP POP JUMP JUMPDEST PUSH0 PUSH1 0x20 DUP3 ADD SWAP1 POP PUSH2 0x2BEC PUSH0 DUP4 ADD DUP5 PUSH2 0x2BCA JUMP JUMPDEST SWAP3 SWAP2 POP POP JUMP JUMPDEST PUSH2 0x2BFB DUP2 PUSH2 0x2966 JUMP JUMPDEST DUP3 MSTORE POP POP JUMP JUMPDEST PUSH0 PUSH1 0x20 DUP3 ADD SWAP1 POP PUSH2 0x2C14 PUSH0 DUP4 ADD DUP5 PUSH2 0x2BF2 JUMP JUMPDEST SWAP3 SWAP2 POP POP JUMP JUMPDEST PUSH0 DUP3 DUP3 MSTORE PUSH1 0x20 DUP3 ADD SWAP1 POP SWAP3 SWAP2 POP POP JUMP JUMPDEST PUSH32 0x546869732061646472657373206973206E6F7420636F6E7472616374204F776E PUSH0 DUP3 ADD MSTORE PUSH32 0x6572000000000000000000000000000000000000000000000000000000000000 PUSH1 0x20 DUP3 ADD MSTORE POP JUMP JUMPDEST PUSH0 PUSH2 0x2C84 PUSH1 0x22 DUP4 PUSH2 0x2C1A JUMP JUMPDEST SWAP2 POP PUSH2 0x2C8F DUP3 PUSH2 0x2C2A JUMP JUMPDEST PUSH1 0x40 DUP3 ADD SWAP1 POP SWAP2 SWAP1 POP JUMP JUMPDEST PUSH0 PUSH1 0x20 DUP3 ADD SWAP1 POP DUP2 DUP2 SUB PUSH0 DUP4 ADD MSTORE PUSH2 0x2CB1 DUP2 PUSH2 0x2C78 JUMP JUMPDEST SWAP1 POP SWAP2 SWAP1 POP JUMP JUMPDEST PUSH32 0x54686973206163636F756E7420697320616C7265616479206578697374000000 PUSH0 DUP3 ADD MSTORE POP JUMP JUMPDEST PUSH0 PUSH2 0x2CEC PUSH1 0x1D DUP4 PUSH2 0x2C1A JUMP JUMPDEST SWAP2 POP PUSH2 0x2CF7 DUP3 PUSH2 0x2CB8 JUMP JUMPDEST PUSH1 0x20 DUP3 ADD SWAP1 POP SWAP2 SWAP1 POP JUMP JUMPDEST PUSH0 PUSH1 0x20 DUP3 ADD SWAP1 POP DUP2 DUP2 SUB PUSH0 DUP4 ADD MSTORE PUSH2 0x2D19 DUP2 PUSH2 0x2CE0 JUMP JUMPDEST SWAP1 POP SWAP2 SWAP1 POP JUMP JUMPDEST PUSH32 0x4E487B7100000000000000000000000000000000000000000000000000000000 PUSH0 MSTORE PUSH1 0x11 PUSH1 0x4 MSTORE PUSH1 0x24 PUSH0 REVERT JUMPDEST PUSH0 PUSH2 0x2D57 DUP3 PUSH2 0x29A1 JUMP JUMPDEST SWAP2 POP PUSH2 0x2D62 DUP4 PUSH2 0x29A1 JUMP JUMPDEST SWAP3 POP DUP3 DUP3 SUB SWAP1 POP DUP2 DUP2 GT ISZERO PUSH2 0x2D7A JUMPI PUSH2 0x2D79 PUSH2 0x2D20 JUMP JUMPDEST JUMPDEST SWAP3 SWAP2 POP POP JUMP JUMPDEST PUSH0 PUSH2 0x2D8A DUP3 PUSH2 0x29A1 JUMP JUMPDEST SWAP2 POP PUSH2 0x2D95 DUP4 PUSH2 0x29A1 JUMP JUMPDEST SWAP3 POP DUP3 DUP3 ADD SWAP1 POP DUP1 DUP3 GT ISZERO PUSH2 0x2DAD JUMPI PUSH2 0x2DAC PUSH2 0x2D20 JUMP JUMPDEST JUMPDEST SWAP3 SWAP2 POP POP JUMP JUMPDEST PUSH32 0x54686973206163636F756E742069736E27742065786973740000000000000000 PUSH0 DUP3 ADD MSTORE POP JUMP JUMPDEST PUSH0 PUSH2 0x2DE7 PUSH1 0x18 DUP4 PUSH2 0x2C1A JUMP JUMPDEST SWAP2 POP PUSH2 0x2DF2 DUP3 PUSH2 0x2DB3 JUMP JUMPDEST PUSH1 0x20 DUP3 ADD SWAP1 POP SWAP2 SWAP1 POP JUMP JUMPDEST PUSH0 PUSH1 0x20 DUP3 ADD SWAP1 POP DUP2 DUP2 SUB PUSH0 DUP4 ADD MSTORE PUSH2 0x2E14 DUP2 PUSH2 0x2DDB JUMP JUMPDEST SWAP1 POP SWAP2 SWAP1 POP JUMP JUMPDEST PUSH0 PUSH2 0x2E25 DUP3 PUSH2 0x29A1 JUMP JUMPDEST SWAP2 POP PUSH2 0x2E30 DUP4 PUSH2 0x29A1 JUMP JUMPDEST SWAP3 POP DUP3 DUP3 MUL PUSH2 0x2E3E DUP2 PUSH2 0x29A1 JUMP JUMPDEST SWAP2 POP DUP3 DUP3 DIV DUP5 EQ DUP4 ISZERO OR PUSH2 0x2E55 JUMPI PUSH2 0x2E54 PUSH2 0x2D20 JUMP JUMPDEST JUMPDEST POP SWAP3 SWAP2 POP POP JUMP JUMPDEST PUSH32 0x596F7520646F6E27742067697665204554480000000000000000000000000000 PUSH0 DUP3 ADD MSTORE POP JUMP JUMPDEST PUSH0 PUSH2 0x2E90 PUSH1 0x12 DUP4 PUSH2 0x2C1A JUMP JUMPDEST SWAP2 POP PUSH2 0x2E9B DUP3 PUSH2 0x2E5C JUMP JUMPDEST PUSH1 0x20 DUP3 ADD SWAP1 POP SWAP2 SWAP1 POP JUMP JUMPDEST PUSH0 PUSH1 0x20 DUP3 ADD SWAP1 POP DUP2 DUP2 SUB PUSH0 DUP4 ADD MSTORE PUSH2 0x2EBD DUP2 PUSH2 0x2E84 JUMP JUMPDEST SWAP1 POP SWAP2 SWAP1 POP JUMP JUMPDEST PUSH32 0x4E487B7100000000000000000000000000000000000000000000000000000000 PUSH0 MSTORE PUSH1 0x32 PUSH1 0x4 MSTORE PUSH1 0x24 PUSH0 REVERT JUMPDEST PUSH32 0x4E487B7100000000000000000000000000000000000000000000000000000000 PUSH0 MSTORE PUSH1 0x12 PUSH1 0x4 MSTORE PUSH1 0x24 PUSH0 REVERT JUMPDEST PUSH0 PUSH2 0x2F28 DUP3 PUSH2 0x29A1 JUMP JUMPDEST SWAP2 POP PUSH2 0x2F33 DUP4 PUSH2 0x29A1 JUMP JUMPDEST SWAP3 POP DUP3 PUSH2 0x2F43 JUMPI PUSH2 0x2F42 PUSH2 0x2EF1 JUMP JUMPDEST JUMPDEST DUP3 DUP3 DIV SWAP1 POP SWAP3 SWAP2 POP POP JUMP JUMPDEST PUSH0 DUP2 SWAP1 POP SWAP2 SWAP1 POP JUMP JUMPDEST PUSH0 PUSH2 0x2F71 PUSH2 0x2F6C PUSH2 0x2F67 DUP5 PUSH2 0x2947 JUMP JUMPDEST PUSH2 0x2F4E JUMP JUMPDEST PUSH2 0x2947 JUMP JUMPDEST SWAP1 POP SWAP2 SWAP1 POP JUMP JUMPDEST PUSH0 PUSH2 0x2F82 DUP3 PUSH2 0x2F57 JUMP JUMPDEST SWAP1 POP SWAP2 SWAP1 POP JUMP JUMPDEST PUSH0 PUSH2 0x2F93 DUP3 PUSH2 0x2F78 JUMP JUMPDEST SWAP1 POP SWAP2 SWAP1 POP JUMP JUMPDEST PUSH2 0x2FA3 DUP2 PUSH2 0x2F89 JUMP JUMPDEST DUP3 MSTORE POP POP JUMP JUMPDEST PUSH0 PUSH1 0x60 DUP3 ADD SWAP1 POP PUSH2 0x2FBC PUSH0 DUP4 ADD DUP7 PUSH2 0x2F9A JUMP JUMPDEST PUSH2 0x2FC9 PUSH1 0x20 DUP4 ADD DUP6 PUSH2 0x2BCA JUMP JUMPDEST PUSH2 0x2FD6 PUSH1 0x40 DUP4 ADD DUP5 PUSH2 0x2BCA JUMP JUMPDEST SWAP5 SWAP4 POP POP POP POP JUMP JUMPDEST PUSH32 0x5468697320616464726573732068617320696E73756666696369656E74207065 PUSH0 DUP3 ADD MSTORE PUSH32 0x726D697373696F6E730000000000000000000000000000000000000000000000 PUSH1 0x20 DUP3 ADD MSTORE POP JUMP JUMPDEST PUSH0 PUSH2 0x3038 PUSH1 0x29 DUP4 PUSH2 0x2C1A JUMP JUMPDEST SWAP2 POP PUSH2 0x3043 DUP3 PUSH2 0x2FDE JUMP JUMPDEST PUSH1 0x40 DUP3 ADD SWAP1 POP SWAP2 SWAP1 POP JUMP JUMPDEST PUSH0 PUSH1 0x20 DUP3 ADD SWAP1 POP DUP2 DUP2 SUB PUSH0 DUP4 ADD MSTORE PUSH2 0x3065 DUP2 PUSH2 0x302C JUMP JUMPDEST SWAP1 POP SWAP2 SWAP1 POP JUMP JUMPDEST PUSH32 0x5374616B696E672076616C7565206973206E6F7420656E6F7567680000000000 PUSH0 DUP3 ADD MSTORE POP JUMP JUMPDEST PUSH0 PUSH2 0x30A0 PUSH1 0x1B DUP4 PUSH2 0x2C1A JUMP JUMPDEST SWAP2 POP PUSH2 0x30AB DUP3 PUSH2 0x306C JUMP JUMPDEST PUSH1 0x20 DUP3 ADD SWAP1 POP SWAP2 SWAP1 POP JUMP JUMPDEST PUSH0 PUSH1 0x20 DUP3 ADD SWAP1 POP DUP2 DUP2 SUB PUSH0 DUP4 ADD MSTORE PUSH2 0x30CD DUP2 PUSH2 0x3094 JUMP JUMPDEST SWAP1 POP SWAP2 SWAP1 POP JUMP INVALID LOG2 PUSH5 0x6970667358 0x22 SLT KECCAK256 0xD1 0xE 0xFB DUP7 0xDF CALLVALUE SWAP12 PUSH31 0xD3F5CF91019B92A8388C3932197ED7AA8A04EFBCAEA87F8464736F6C634300 ADDMOD AND STOP CALLER "
				},
				"gasEstimates": {
					"creation": {
						"codeDepositCost": "2510800",
						"executionCost": "154223",
						"totalCost": "2665023"
					},
					"external": {
						"add_customer(address,uint256)": "infinite",
						"add_manager(address)": "infinite",
						"change_customer_data(address,uint256,uint256,uint256,uint256)": "infinite",
						"change_owner(address)": "26993",
						"change_staking_add_value(address,uint256)": "25062",
						"change_staking_value(address,uint256)": "25016",
						"delete_customer(address)": "83015",
						"delete_manager(address)": "60704",
						"getOwner()": "2559",
						"get_allcustomer_reward()": "infinite",
						"get_customer_address(address)": "infinite",
						"get_customer_data(address)": "infinite",
						"get_customer_id(address)": "5186",
						"get_staking_value(address)": "infinite",
						"give_all_reward()": "infinite",
						"increase_staking_time(address,uint256)": "infinite",
						"increase_staking_value(address,uint256)": "infinite",
						"reduce_staking_time(address,uint256)": "infinite",
						"reduce_staking_value(address,uint256)": "infinite",
						"take_out_ETH(address)": "infinite"
					}
				},
				"methodIdentifiers": {
					"add_customer(address,uint256)": "1408d756",
					"add_manager(address)": "3922d551",
					"change_customer_data(address,uint256,uint256,uint256,uint256)": "26aed97d",
					"change_owner(address)": "253c8bd4",
					"change_staking_add_value(address,uint256)": "2057c859",
					"change_staking_value(address,uint256)": "85afee73",
					"delete_customer(address)": "3fdeec79",
					"delete_manager(address)": "656b6b7e",
					"getOwner()": "893d20e8",
					"get_allcustomer_reward()": "70e2f488",
					"get_customer_address(address)": "7ea17dcc",
					"get_customer_data(address)": "2a663c2c",
					"get_customer_id(address)": "a4686b8f",
					"get_staking_value(address)": "d7fa1083",
					"give_all_reward()": "20da9698",
					"increase_staking_time(address,uint256)": "15a0b37b",
					"increase_staking_value(address,uint256)": "7c1c1d23",
					"reduce_staking_time(address,uint256)": "6997f1e2",
					"reduce_staking_value(address,uint256)": "97e3af60",
					"take_out_ETH(address)": "31b3fac2"
				}
			},
			"storageLayout": {
				"storage": [
					{
						"astId": 3,
						"contract": "contracts/work/customer.sol:customer",
						"label": "owner",
						"offset": 0,
						"slot": "0",
						"type": "t_address"
					},
					{
						"astId": 6,
						"contract": "contracts/work/customer.sol:customer",
						"label": "manager",
						"offset": 0,
						"slot": "1",
						"type": "t_array(t_address)dyn_storage"
					},
					{
						"astId": 11,
						"contract": "contracts/work/customer.sol:customer",
						"label": "manager_map",
						"offset": 0,
						"slot": "2",
						"type": "t_mapping(t_address,t_struct(Manager)19_storage)"
					},
					{
						"astId": 14,
						"contract": "contracts/work/customer.sol:customer",
						"label": "id",
						"offset": 0,
						"slot": "3",
						"type": "t_uint256"
					},
					{
						"astId": 150,
						"contract": "contracts/work/customer.sol:customer",
						"label": "amount",
						"offset": 0,
						"slot": "4",
						"type": "t_uint256"
					},
					{
						"astId": 152,
						"contract": "contracts/work/customer.sol:customer",
						"label": "reward_time",
						"offset": 0,
						"slot": "5",
						"type": "t_uint256"
					},
					{
						"astId": 155,
						"contract": "contracts/work/customer.sol:customer",
						"label": "account",
						"offset": 0,
						"slot": "6",
						"type": "t_array(t_address)dyn_storage"
					},
					{
						"astId": 160,
						"contract": "contracts/work/customer.sol:customer",
						"label": "customer_map",
						"offset": 0,
						"slot": "7",
						"type": "t_mapping(t_address,t_struct(Customer)190_storage)"
					}
				],
				"types": {
					"t_address": {
						"encoding": "inplace",
						"label": "address",
						"numberOfBytes": "20"
					},
					"t_array(t_address)dyn_storage": {
						"base": "t_address",
						"encoding": "dynamic_array",
						"label": "address[]",
						"numberOfBytes": "32"
					},
					"t_mapping(t_address,t_struct(Customer)190_storage)": {
						"encoding": "mapping",
						"key": "t_address",
						"label": "mapping(address => struct customer.Customer)",
						"numberOfBytes": "32",
						"value": "t_struct(Customer)190_storage"
					},
					"t_mapping(t_address,t_struct(Manager)19_storage)": {
						"encoding": "mapping",
						"key": "t_address",
						"label": "mapping(address => struct Owner.Manager)",
						"numberOfBytes": "32",
						"value": "t_struct(Manager)19_storage"
					},
					"t_struct(Customer)190_storage": {
						"encoding": "inplace",
						"label": "struct customer.Customer",
						"members": [
							{
								"astId": 179,
								"contract": "contracts/work/customer.sol:customer",
								"label": "customer_address",
								"offset": 0,
								"slot": "0",
								"type": "t_address"
							},
							{
								"astId": 181,
								"contract": "contracts/work/customer.sol:customer",
								"label": "value",
								"offset": 0,
								"slot": "1",
								"type": "t_uint256"
							},
							{
								"astId": 183,
								"contract": "contracts/work/customer.sol:customer",
								"label": "add_value",
								"offset": 0,
								"slot": "2",
								"type": "t_uint256"
							},
							{
								"astId": 185,
								"contract": "contracts/work/customer.sol:customer",
								"label": "time",
								"offset": 0,
								"slot": "3",
								"type": "t_uint256"
							},
							{
								"astId": 187,
								"contract": "contracts/work/customer.sol:customer",
								"label": "newtime",
								"offset": 0,
								"slot": "4",
								"type": "t_uint256"
							},
							{
								"astId": 189,
								"contract": "contracts/work/customer.sol:customer",
								"label": "id",
								"offset": 0,
								"slot": "5",
								"type": "t_uint256"
							}
						],
						"numberOfBytes": "192"
					},
					"t_struct(Manager)19_storage": {
						"encoding": "inplace",
						"label": "struct Owner.Manager",
						"members": [
							{
								"astId": 16,
								"contract": "contracts/work/customer.sol:customer",
								"label": "manager_address",
								"offset": 0,
								"slot": "0",
								"type": "t_address"
							},
							{
								"astId": 18,
								"contract": "contracts/work/customer.sol:customer",
								"label": "manager_id",
								"offset": 0,
								"slot": "1",
								"type": "t_uint256"
							}
						],
						"numberOfBytes": "64"
					},
					"t_uint256": {
						"encoding": "inplace",
						"label": "uint256",
						"numberOfBytes": "32"
					}
				}
			},
			"userdoc": {
				"kind": "user",
				"methods": {},
				"version": 1
			}
		}
	}
}