{
	"contracts/contracts/work/customer1.sol": {
		"customer": {
			"abi": [
				{
					"inputs": [],
					"stateMutability": "nonpayable",
					"type": "constructor"
				},
				{
					"anonymous": false,
					"inputs": [
						{
							"indexed": false,
							"internalType": "address",
							"name": "customer_address",
							"type": "address"
						},
						{
							"indexed": false,
							"internalType": "uint256",
							"name": "reward_value",
							"type": "uint256"
						},
						{
							"indexed": false,
							"internalType": "uint256",
							"name": "staking_value",
							"type": "uint256"
						}
					],
					"name": "Give_Reward",
					"type": "event"
				},
				{
					"inputs": [
						{
							"internalType": "address",
							"name": "_customer_address",
							"type": "address"
						}
					],
					"name": "add_customer",
					"outputs": [],
					"stateMutability": "payable",
					"type": "function"
				},
				{
					"inputs": [
						{
							"internalType": "address",
							"name": "_address",
							"type": "address"
						}
					],
					"name": "add_manager",
					"outputs": [],
					"stateMutability": "nonpayable",
					"type": "function"
				},
				{
					"inputs": [
						{
							"internalType": "address",
							"name": "_address",
							"type": "address"
						}
					],
					"name": "change_owner",
					"outputs": [],
					"stateMutability": "nonpayable",
					"type": "function"
				},
				{
					"inputs": [
						{
							"internalType": "address payable",
							"name": "_address",
							"type": "address"
						}
					],
					"name": "change_staking_account",
					"outputs": [],
					"stateMutability": "nonpayable",
					"type": "function"
				},
				{
					"inputs": [
						{
							"internalType": "address",
							"name": "_customer_address",
							"type": "address"
						},
						{
							"internalType": "uint256",
							"name": "_value",
							"type": "uint256"
						}
					],
					"name": "change_staking_add_value",
					"outputs": [],
					"stateMutability": "nonpayable",
					"type": "function"
				},
				{
					"inputs": [
						{
							"internalType": "address",
							"name": "_customer_address",
							"type": "address"
						},
						{
							"internalType": "uint256",
							"name": "_value",
							"type": "uint256"
						}
					],
					"name": "change_staking_value",
					"outputs": [],
					"stateMutability": "nonpayable",
					"type": "function"
				},
				{
					"inputs": [
						{
							"internalType": "address payable",
							"name": "_customer_address",
							"type": "address"
						}
					],
					"name": "delete_customer",
					"outputs": [],
					"stateMutability": "payable",
					"type": "function"
				},
				{
					"inputs": [
						{
							"internalType": "address",
							"name": "_address",
							"type": "address"
						}
					],
					"name": "delete_manager",
					"outputs": [],
					"stateMutability": "nonpayable",
					"type": "function"
				},
				{
					"inputs": [],
					"name": "getOwner",
					"outputs": [
						{
							"internalType": "address",
							"name": "",
							"type": "address"
						}
					],
					"stateMutability": "view",
					"type": "function"
				},
				{
					"inputs": [],
					"name": "get_allcustomer_reward",
					"outputs": [
						{
							"internalType": "uint256",
							"name": "",
							"type": "uint256"
						}
					],
					"stateMutability": "view",
					"type": "function"
				},
				{
					"inputs": [
						{
							"internalType": "address",
							"name": "_address",
							"type": "address"
						}
					],
					"name": "get_customer_address",
					"outputs": [
						{
							"internalType": "address",
							"name": "",
							"type": "address"
						}
					],
					"stateMutability": "view",
					"type": "function"
				},
				{
					"inputs": [
						{
							"internalType": "address",
							"name": "_address",
							"type": "address"
						}
					],
					"name": "get_customer_data",
					"outputs": [
						{
							"components": [
								{
									"internalType": "address",
									"name": "customer_address",
									"type": "address"
								},
								{
									"internalType": "uint256",
									"name": "value",
									"type": "uint256"
								},
								{
									"internalType": "uint256",
									"name": "add_value",
									"type": "uint256"
								},
								{
									"internalType": "uint256",
									"name": "time",
									"type": "uint256"
								},
								{
									"internalType": "uint256",
									"name": "newtime",
									"type": "uint256"
								},
								{
									"internalType": "uint256",
									"name": "id",
									"type": "uint256"
								}
							],
							"internalType": "struct customer.Customer",
							"name": "",
							"type": "tuple"
						}
					],
					"stateMutability": "view",
					"type": "function"
				},
				{
					"inputs": [
						{
							"internalType": "address",
							"name": "_address",
							"type": "address"
						}
					],
					"name": "get_customer_id",
					"outputs": [
						{
							"internalType": "uint256",
							"name": "",
							"type": "uint256"
						}
					],
					"stateMutability": "view",
					"type": "function"
				},
				{
					"inputs": [
						{
							"internalType": "address",
							"name": "_address",
							"type": "address"
						}
					],
					"name": "get_staking_value",
					"outputs": [
						{
							"internalType": "uint256",
							"name": "",
							"type": "uint256"
						}
					],
					"stateMutability": "view",
					"type": "function"
				},
				{
					"inputs": [],
					"name": "give_all_reward",
					"outputs": [],
					"stateMutability": "payable",
					"type": "function"
				},
				{
					"inputs": [
						{
							"internalType": "address",
							"name": "_customer_address",
							"type": "address"
						},
						{
							"internalType": "uint256",
							"name": "_time",
							"type": "uint256"
						}
					],
					"name": "increase_staking_time",
					"outputs": [],
					"stateMutability": "nonpayable",
					"type": "function"
				},
				{
					"inputs": [
						{
							"internalType": "address",
							"name": "_customer_address",
							"type": "address"
						}
					],
					"name": "increase_staking_value",
					"outputs": [],
					"stateMutability": "payable",
					"type": "function"
				},
				{
					"inputs": [
						{
							"internalType": "address",
							"name": "_customer_address",
							"type": "address"
						},
						{
							"internalType": "uint256",
							"name": "_time",
							"type": "uint256"
						}
					],
					"name": "reduce_staking_time",
					"outputs": [],
					"stateMutability": "nonpayable",
					"type": "function"
				},
				{
					"inputs": [
						{
							"internalType": "address",
							"name": "_customer_address",
							"type": "address"
						}
					],
					"name": "reduce_staking_value",
					"outputs": [],
					"stateMutability": "payable",
					"type": "function"
				},
				{
					"inputs": [
						{
							"internalType": "address payable",
							"name": "_address",
							"type": "address"
						}
					],
					"name": "take_out_ETH",
					"outputs": [],
					"stateMutability": "nonpayable",
					"type": "function"
				}
			],
			"devdoc": {
				"kind": "dev",
				"methods": {},
				"version": 1
			},
			"evm": {
				"assembly": "    /* \"contracts/contracts/work/customer1.sol\":2433:12565  contract customer is Owner{... */\n  mstore(0x40, 0x80)\n    /* \"contracts/contracts/work/customer1.sol\":447:448  1 */\n  0x01\n    /* \"contracts/contracts/work/customer1.sol\":429:448  uint private id = 1 */\n  0x03\n  sstore\n    /* \"contracts/contracts/work/customer1.sol\":2480:2481  0 */\n  0x00\n    /* \"contracts/contracts/work/customer1.sol\":2466:2481  uint amount = 0 */\n  0x04\n  sstore\n    /* \"contracts/contracts/work/customer1.sol\":3159:3268  constructor(){... */\n  callvalue\n  dup1\n  iszero\n  tag_1\n  jumpi\n  0x00\n  dup1\n  revert\ntag_1:\n  pop\n    /* \"contracts/contracts/work/customer1.sol\":639:649  msg.sender */\n  caller\n    /* \"contracts/contracts/work/customer1.sol\":631:636  owner */\n  0x00\n  dup1\n    /* \"contracts/contracts/work/customer1.sol\":631:649  owner = msg.sender */\n  0x0100\n  exp\n  dup2\n  sload\n  dup2\n  0xffffffffffffffffffffffffffffffffffffffff\n  mul\n  not\n  and\n  swap1\n  dup4\n  0xffffffffffffffffffffffffffffffffffffffff\n  and\n  mul\n  or\n  swap1\n  sstore\n  pop\n    /* \"contracts/contracts/work/customer1.sol\":755:776  Manager(msg.sender,0) */\n  mload(0x40)\n  dup1\n  0x40\n  add\n  0x40\n  mstore\n  dup1\n    /* \"contracts/contracts/work/customer1.sol\":763:773  msg.sender */\n  caller\n    /* \"contracts/contracts/work/customer1.sol\":755:776  Manager(msg.sender,0) */\n  0xffffffffffffffffffffffffffffffffffffffff\n  and\n  dup2\n  mstore\n  0x20\n  add\n    /* \"contracts/contracts/work/customer1.sol\":774:775  0 */\n  0x00\n    /* \"contracts/contracts/work/customer1.sol\":755:776  Manager(msg.sender,0) */\n  dup2\n  mstore\n  pop\n    /* \"contracts/contracts/work/customer1.sol\":729:740  manager_map */\n  0x02\n    /* \"contracts/contracts/work/customer1.sol\":729:752  manager_map[msg.sender] */\n  0x00\n    /* \"contracts/contracts/work/customer1.sol\":741:751  msg.sender */\n  caller\n    /* \"contracts/contracts/work/customer1.sol\":729:752  manager_map[msg.sender] */\n  0xffffffffffffffffffffffffffffffffffffffff\n  and\n  0xffffffffffffffffffffffffffffffffffffffff\n  and\n  dup2\n  mstore\n  0x20\n  add\n  swap1\n  dup2\n  mstore\n  0x20\n  add\n  0x00\n  keccak256\n    /* \"contracts/contracts/work/customer1.sol\":729:776  manager_map[msg.sender] = Manager(msg.sender,0) */\n  0x00\n  dup3\n  add\n  mload\n  dup2\n  0x00\n  add\n  exp(0x0100, 0x00)\n  dup2\n  sload\n  dup2\n  0xffffffffffffffffffffffffffffffffffffffff\n  mul\n  not\n  and\n  swap1\n  dup4\n  0xffffffffffffffffffffffffffffffffffffffff\n  and\n  mul\n  or\n  swap1\n  sstore\n  pop\n  0x20\n  dup3\n  add\n  mload\n  dup2\n  0x01\n  add\n  sstore\n  swap1\n  pop\n  pop\n    /* \"contracts/contracts/work/customer1.sol\":787:794  manager */\n  0x01\n    /* \"contracts/contracts/work/customer1.sol\":800:810  msg.sender */\n  caller\n    /* \"contracts/contracts/work/customer1.sol\":787:811  manager.push(msg.sender) */\n  swap1\n  dup1\n  0x01\n  dup2\n  sload\n  add\n  dup1\n  dup3\n  sstore\n  dup1\n  swap2\n  pop\n  pop\n  0x01\n  swap1\n  sub\n  swap1\n  0x00\n  mstore\n  keccak256(0x00, 0x20)\n  add\n  0x00\n  swap1\n  swap2\n  swap1\n  swap2\n  swap1\n  swap2\n  0x0100\n  exp\n  dup2\n  sload\n  dup2\n  0xffffffffffffffffffffffffffffffffffffffff\n  mul\n  not\n  and\n  swap1\n  dup4\n  0xffffffffffffffffffffffffffffffffffffffff\n  and\n  mul\n  or\n  swap1\n  sstore\n  pop\n    /* \"contracts/contracts/work/customer1.sol\":3197:3212  block.timestamp */\n  timestamp\n    /* \"contracts/contracts/work/customer1.sol\":3183:3194  reward_time */\n  0x05\n    /* \"contracts/contracts/work/customer1.sol\":3183:3212  reward_time = block.timestamp */\n  dup2\n  swap1\n  sstore\n  pop\n    /* \"contracts/contracts/work/customer1.sol\":3249:3259  msg.sender */\n  caller\n    /* \"contracts/contracts/work/customer1.sol\":3223:3238  staking_account */\n  0x07\n  0x00\n    /* \"contracts/contracts/work/customer1.sol\":3223:3260  staking_account = payable(msg.sender) */\n  0x0100\n  exp\n  dup2\n  sload\n  dup2\n  0xffffffffffffffffffffffffffffffffffffffff\n  mul\n  not\n  and\n  swap1\n  dup4\n  0xffffffffffffffffffffffffffffffffffffffff\n  and\n  mul\n  or\n  swap1\n  sstore\n  pop\n    /* \"contracts/contracts/work/customer1.sol\":2433:12565  contract customer is Owner{... */\n  dataSize(sub_0)\n  dup1\n  dataOffset(sub_0)\n  0x00\n  codecopy\n  0x00\n  return\nstop\n\nsub_0: assembly {\n        /* \"contracts/contracts/work/customer1.sol\":2433:12565  contract customer is Owner{... */\n      mstore(0x40, 0x80)\n      jumpi(tag_1, lt(calldatasize, 0x04))\n      shr(0xe0, calldataload(0x00))\n      dup1\n      0x70e2f488\n      gt\n      tag_22\n      jumpi\n      dup1\n      0xa4686b8f\n      gt\n      tag_23\n      jumpi\n      dup1\n      0xa4686b8f\n      eq\n      tag_17\n      jumpi\n      dup1\n      0xa643a04f\n      eq\n      tag_18\n      jumpi\n      dup1\n      0xb45b7fe4\n      eq\n      tag_19\n      jumpi\n      dup1\n      0xd3b318fb\n      eq\n      tag_20\n      jumpi\n      dup1\n      0xd7fa1083\n      eq\n      tag_21\n      jumpi\n      jump(tag_1)\n    tag_23:\n      dup1\n      0x70e2f488\n      eq\n      tag_12\n      jumpi\n      dup1\n      0x7ea17dcc\n      eq\n      tag_13\n      jumpi\n      dup1\n      0x85afee73\n      eq\n      tag_14\n      jumpi\n      dup1\n      0x893d20e8\n      eq\n      tag_15\n      jumpi\n      dup1\n      0x9b8163ef\n      eq\n      tag_16\n      jumpi\n      jump(tag_1)\n    tag_22:\n      dup1\n      0x31b3fac2\n      gt\n      tag_24\n      jumpi\n      dup1\n      0x31b3fac2\n      eq\n      tag_7\n      jumpi\n      dup1\n      0x3922d551\n      eq\n      tag_8\n      jumpi\n      dup1\n      0x3fdeec79\n      eq\n      tag_9\n      jumpi\n      dup1\n      0x656b6b7e\n      eq\n      tag_10\n      jumpi\n      dup1\n      0x6997f1e2\n      eq\n      tag_11\n      jumpi\n      jump(tag_1)\n    tag_24:\n      dup1\n      0x15a0b37b\n      eq\n      tag_2\n      jumpi\n      dup1\n      0x2057c859\n      eq\n      tag_3\n      jumpi\n      dup1\n      0x20da9698\n      eq\n      tag_4\n      jumpi\n      dup1\n      0x253c8bd4\n      eq\n      tag_5\n      jumpi\n      dup1\n      0x2a663c2c\n      eq\n      tag_6\n      jumpi\n    tag_1:\n      0x00\n      dup1\n      revert\n        /* \"contracts/contracts/work/customer1.sol\":8175:8497  function increase_staking_time(address _customer_address, uint _time) onlyOwner public {     //將未入帳質押日期延後(以天為單位)... */\n    tag_2:\n      callvalue\n      dup1\n      iszero\n      tag_25\n      jumpi\n      0x00\n      dup1\n      revert\n    tag_25:\n      pop\n      tag_26\n      0x04\n      dup1\n      calldatasize\n      sub\n      dup2\n      add\n      swap1\n      tag_27\n      swap2\n      swap1\n      tag_28\n      jump\t// in\n    tag_27:\n      tag_29\n      jump\t// in\n    tag_26:\n      stop\n        /* \"contracts/contracts/work/customer1.sol\":6333:6678  function change_staking_add_value(address _customer_address, uint _value) onlyOwner public{         //(由大哥大address使用)... */\n    tag_3:\n      callvalue\n      dup1\n      iszero\n      tag_30\n      jumpi\n      0x00\n      dup1\n      revert\n    tag_30:\n      pop\n      tag_31\n      0x04\n      dup1\n      calldatasize\n      sub\n      dup2\n      add\n      swap1\n      tag_32\n      swap2\n      swap1\n      tag_28\n      jump\t// in\n    tag_32:\n      tag_33\n      jump\t// in\n    tag_31:\n      stop\n        /* \"contracts/contracts/work/customer1.sol\":10626:12123  function give_all_reward() onlyOwner payable public{            //按照比例分配獎勵給全部客戶... */\n    tag_4:\n      tag_34\n      tag_35\n      jump\t// in\n    tag_34:\n      stop\n        /* \"contracts/contracts/work/customer1.sol\":1220:1345  function change_owner(address _address) onlyOwner public{           //更改合約擁有人... */\n    tag_5:\n      callvalue\n      dup1\n      iszero\n      tag_36\n      jumpi\n      0x00\n      dup1\n      revert\n    tag_36:\n      pop\n      tag_37\n      0x04\n      dup1\n      calldatasize\n      sub\n      dup2\n      add\n      swap1\n      tag_38\n      swap2\n      swap1\n      tag_39\n      jump\t// in\n    tag_38:\n      tag_40\n      jump\t// in\n    tag_37:\n      stop\n        /* \"contracts/contracts/work/customer1.sol\":8833:9062  function get_customer_data(address _address) view public returns(Customer memory){... */\n    tag_6:\n      callvalue\n      dup1\n      iszero\n      tag_41\n      jumpi\n      0x00\n      dup1\n      revert\n    tag_41:\n      pop\n      tag_42\n      0x04\n      dup1\n      calldatasize\n      sub\n      dup2\n      add\n      swap1\n      tag_43\n      swap2\n      swap1\n      tag_39\n      jump\t// in\n    tag_43:\n      tag_44\n      jump\t// in\n    tag_42:\n      mload(0x40)\n      tag_45\n      swap2\n      swap1\n      tag_46\n      jump\t// in\n    tag_45:\n      mload(0x40)\n      dup1\n      swap2\n      sub\n      swap1\n      return\n        /* \"contracts/contracts/work/customer1.sol\":12138:12262  function take_out_ETH(address payable _address) onlyOwner public {... */\n    tag_7:\n      callvalue\n      dup1\n      iszero\n      tag_47\n      jumpi\n      0x00\n      dup1\n      revert\n    tag_47:\n      pop\n      tag_48\n      0x04\n      dup1\n      calldatasize\n      sub\n      dup2\n      add\n      swap1\n      tag_49\n      swap2\n      swap1\n      tag_50\n      jump\t// in\n    tag_49:\n      tag_51\n      jump\t// in\n    tag_48:\n      stop\n        /* \"contracts/contracts/work/customer1.sol\":1353:1524  function add_manager(address _address) onlyManager public{... */\n    tag_8:\n      callvalue\n      dup1\n      iszero\n      tag_52\n      jumpi\n      0x00\n      dup1\n      revert\n    tag_52:\n      pop\n      tag_53\n      0x04\n      dup1\n      calldatasize\n      sub\n      dup2\n      add\n      swap1\n      tag_54\n      swap2\n      swap1\n      tag_39\n      jump\t// in\n    tag_54:\n      tag_55\n      jump\t// in\n    tag_53:\n      stop\n        /* \"contracts/contracts/work/customer1.sol\":5186:5974  function delete_customer(address payable _customer_address) onlyManager payable public{       //刪除客戶資訊同時歸還質押金額(由大哥大address使用)... */\n    tag_9:\n      tag_56\n      0x04\n      dup1\n      calldatasize\n      sub\n      dup2\n      add\n      swap1\n      tag_57\n      swap2\n      swap1\n      tag_50\n      jump\t// in\n    tag_57:\n      tag_58\n      jump\t// in\n    tag_56:\n      stop\n        /* \"contracts/contracts/work/customer1.sol\":1532:1698  function delete_manager(address _address) onlyManager public{... */\n    tag_10:\n      callvalue\n      dup1\n      iszero\n      tag_59\n      jumpi\n      0x00\n      dup1\n      revert\n    tag_59:\n      pop\n      tag_60\n      0x04\n      dup1\n      calldatasize\n      sub\n      dup2\n      add\n      swap1\n      tag_61\n      swap2\n      swap1\n      tag_39\n      jump\t// in\n    tag_61:\n      tag_62\n      jump\t// in\n    tag_60:\n      stop\n        /* \"contracts/contracts/work/customer1.sol\":8505:8825  function reduce_staking_time(address _customer_address, uint _time) onlyOwner public {     //將未入帳質押日期提前(以天為單位)... */\n    tag_11:\n      callvalue\n      dup1\n      iszero\n      tag_63\n      jumpi\n      0x00\n      dup1\n      revert\n    tag_63:\n      pop\n      tag_64\n      0x04\n      dup1\n      calldatasize\n      sub\n      dup2\n      add\n      swap1\n      tag_65\n      swap2\n      swap1\n      tag_28\n      jump\t// in\n    tag_65:\n      tag_66\n      jump\t// in\n    tag_64:\n      stop\n        /* \"contracts/contracts/work/customer1.sol\":9815:10319  function get_allcustomer_reward() view onlyOwner public returns(uint){          //取得目前可分配獎勵之總質押金額... */\n    tag_12:\n      callvalue\n      dup1\n      iszero\n      tag_67\n      jumpi\n      0x00\n      dup1\n      revert\n    tag_67:\n      pop\n      tag_68\n      tag_69\n      jump\t// in\n    tag_68:\n      mload(0x40)\n      tag_70\n      swap2\n      swap1\n      tag_71\n      jump\t// in\n    tag_70:\n      mload(0x40)\n      dup1\n      swap2\n      sub\n      swap1\n      return\n        /* \"contracts/contracts/work/customer1.sol\":9070:9311  function get_customer_address(address _address) view public returns(address){... */\n    tag_13:\n      callvalue\n      dup1\n      iszero\n      tag_72\n      jumpi\n      0x00\n      dup1\n      revert\n    tag_72:\n      pop\n      tag_73\n      0x04\n      dup1\n      calldatasize\n      sub\n      dup2\n      add\n      swap1\n      tag_74\n      swap2\n      swap1\n      tag_39\n      jump\t// in\n    tag_74:\n      tag_75\n      jump\t// in\n    tag_73:\n      mload(0x40)\n      tag_76\n      swap2\n      swap1\n      tag_77\n      jump\t// in\n    tag_76:\n      mload(0x40)\n      dup1\n      swap2\n      sub\n      swap1\n      return\n        /* \"contracts/contracts/work/customer1.sol\":5982:6323  function change_staking_value(address _customer_address, uint _value) onlyOwner public{             //(由大哥大address使用)... */\n    tag_14:\n      callvalue\n      dup1\n      iszero\n      tag_78\n      jumpi\n      0x00\n      dup1\n      revert\n    tag_78:\n      pop\n      tag_79\n      0x04\n      dup1\n      calldatasize\n      sub\n      dup2\n      add\n      swap1\n      tag_80\n      swap2\n      swap1\n      tag_28\n      jump\t// in\n    tag_80:\n      tag_81\n      jump\t// in\n    tag_79:\n      stop\n        /* \"contracts/contracts/work/customer1.sol\":1706:1785  function getOwner() view public returns(address){... */\n    tag_15:\n      callvalue\n      dup1\n      iszero\n      tag_82\n      jumpi\n      0x00\n      dup1\n      revert\n    tag_82:\n      pop\n      tag_83\n      tag_84\n      jump\t// in\n    tag_83:\n      mload(0x40)\n      tag_85\n      swap2\n      swap1\n      tag_77\n      jump\t// in\n    tag_85:\n      mload(0x40)\n      dup1\n      swap2\n      sub\n      swap1\n      return\n        /* \"contracts/contracts/work/customer1.sol\":3692:3811  function change_staking_account(address payable _address) onlyOwner public{... */\n    tag_16:\n      callvalue\n      dup1\n      iszero\n      tag_86\n      jumpi\n      0x00\n      dup1\n      revert\n    tag_86:\n      pop\n      tag_87\n      0x04\n      dup1\n      calldatasize\n      sub\n      dup2\n      add\n      swap1\n      tag_88\n      swap2\n      swap1\n      tag_50\n      jump\t// in\n    tag_88:\n      tag_89\n      jump\t// in\n    tag_87:\n      stop\n        /* \"contracts/contracts/work/customer1.sol\":9588:9807  function get_customer_id(address _address) view public returns(uint){... */\n    tag_17:\n      callvalue\n      dup1\n      iszero\n      tag_90\n      jumpi\n      0x00\n      dup1\n      revert\n    tag_90:\n      pop\n      tag_91\n      0x04\n      dup1\n      calldatasize\n      sub\n      dup2\n      add\n      swap1\n      tag_92\n      swap2\n      swap1\n      tag_39\n      jump\t// in\n    tag_92:\n      tag_93\n      jump\t// in\n    tag_91:\n      mload(0x40)\n      tag_94\n      swap2\n      swap1\n      tag_71\n      jump\t// in\n    tag_94:\n      mload(0x40)\n      dup1\n      swap2\n      sub\n      swap1\n      return\n        /* \"contracts/contracts/work/customer1.sol\":3819:5177  function add_customer(address _customer_address) payable public{       //新增客戶資訊 並將ETH轉入專用帳戶 建議可用hash替換位址(由客戶支出ETH的address使用)(需改善問題點為若是客戶自行私下與合約交互將會使公司記錄與智能合約不符)... */\n    tag_18:\n      tag_95\n      0x04\n      dup1\n      calldatasize\n      sub\n      dup2\n      add\n      swap1\n      tag_96\n      swap2\n      swap1\n      tag_39\n      jump\t// in\n    tag_96:\n      tag_97\n      jump\t// in\n    tag_95:\n      stop\n        /* \"contracts/contracts/work/customer1.sol\":7252:8167  function reduce_staking_value(address _customer_address) onlyManager payable public{         //減少質押金額並轉帳(由大哥大address使用)... */\n    tag_19:\n      tag_98\n      0x04\n      dup1\n      calldatasize\n      sub\n      dup2\n      add\n      swap1\n      tag_99\n      swap2\n      swap1\n      tag_39\n      jump\t// in\n    tag_99:\n      tag_100\n      jump\t// in\n    tag_98:\n      stop\n        /* \"contracts/contracts/work/customer1.sol\":6688:7244  function increase_staking_value(address _customer_address) payable public{           //增加質押金額並轉帳(由客戶address使用)... */\n    tag_20:\n      tag_101\n      0x04\n      dup1\n      calldatasize\n      sub\n      dup2\n      add\n      swap1\n      tag_102\n      swap2\n      swap1\n      tag_39\n      jump\t// in\n    tag_102:\n      tag_103\n      jump\t// in\n    tag_101:\n      stop\n        /* \"contracts/contracts/work/customer1.sol\":9319:9580  function get_staking_value(address _address) view public returns(uint){... */\n    tag_21:\n      callvalue\n      dup1\n      iszero\n      tag_104\n      jumpi\n      0x00\n      dup1\n      revert\n    tag_104:\n      pop\n      tag_105\n      0x04\n      dup1\n      calldatasize\n      sub\n      dup2\n      add\n      swap1\n      tag_106\n      swap2\n      swap1\n      tag_39\n      jump\t// in\n    tag_106:\n      tag_107\n      jump\t// in\n    tag_105:\n      mload(0x40)\n      tag_108\n      swap2\n      swap1\n      tag_71\n      jump\t// in\n    tag_108:\n      mload(0x40)\n      dup1\n      swap2\n      sub\n      swap1\n      return\n        /* \"contracts/contracts/work/customer1.sol\":8175:8497  function increase_staking_time(address _customer_address, uint _time) onlyOwner public {     //將未入帳質押日期延後(以天為單位)... */\n    tag_29:\n        /* \"contracts/contracts/work/customer1.sol\":917:927  msg.sender */\n      caller\n        /* \"contracts/contracts/work/customer1.sol\":908:927  owner == msg.sender */\n      0xffffffffffffffffffffffffffffffffffffffff\n      and\n        /* \"contracts/contracts/work/customer1.sol\":908:913  owner */\n      0x00\n      dup1\n      sload\n      swap1\n      0x0100\n      exp\n      swap1\n      div\n      0xffffffffffffffffffffffffffffffffffffffff\n      and\n        /* \"contracts/contracts/work/customer1.sol\":908:927  owner == msg.sender */\n      0xffffffffffffffffffffffffffffffffffffffff\n      and\n      eq\n        /* \"contracts/contracts/work/customer1.sol\":900:965  require(owner == msg.sender,\"This address is not contract Owner\") */\n      tag_110\n      jumpi\n      mload(0x40)\n      0x08c379a000000000000000000000000000000000000000000000000000000000\n      dup2\n      mstore\n      0x04\n      add\n      tag_111\n      swap1\n      tag_112\n      jump\t// in\n    tag_111:\n      mload(0x40)\n      dup1\n      swap2\n      sub\n      swap1\n      revert\n    tag_110:\n        /* \"contracts/contracts/work/customer1.sol\":8395:8396  0 */\n      0x00\n        /* \"contracts/contracts/work/customer1.sol\":8335:8397  customer_map[_customer_address].customer_address != address(0) */\n      0xffffffffffffffffffffffffffffffffffffffff\n      and\n        /* \"contracts/contracts/work/customer1.sol\":8335:8347  customer_map */\n      0x08\n        /* \"contracts/contracts/work/customer1.sol\":8335:8366  customer_map[_customer_address] */\n      0x00\n        /* \"contracts/contracts/work/customer1.sol\":8348:8365  _customer_address */\n      dup5\n        /* \"contracts/contracts/work/customer1.sol\":8335:8366  customer_map[_customer_address] */\n      0xffffffffffffffffffffffffffffffffffffffff\n      and\n      0xffffffffffffffffffffffffffffffffffffffff\n      and\n      dup2\n      mstore\n      0x20\n      add\n      swap1\n      dup2\n      mstore\n      0x20\n      add\n      0x00\n      keccak256\n        /* \"contracts/contracts/work/customer1.sol\":8335:8383  customer_map[_customer_address].customer_address */\n      0x00\n      add\n      0x00\n      swap1\n      sload\n      swap1\n      0x0100\n      exp\n      swap1\n      div\n      0xffffffffffffffffffffffffffffffffffffffff\n      and\n        /* \"contracts/contracts/work/customer1.sol\":8335:8397  customer_map[_customer_address].customer_address != address(0) */\n      0xffffffffffffffffffffffffffffffffffffffff\n      and\n      sub\n        /* \"contracts/contracts/work/customer1.sol\":8327:8425  require(customer_map[_customer_address].customer_address != address(0),\"This account isn't exist\") */\n      tag_114\n      jumpi\n      mload(0x40)\n      0x08c379a000000000000000000000000000000000000000000000000000000000\n      dup2\n      mstore\n      0x04\n      add\n      tag_115\n      swap1\n      tag_116\n      jump\t// in\n    tag_115:\n      mload(0x40)\n      dup1\n      swap2\n      sub\n      swap1\n      revert\n    tag_114:\n        /* \"contracts/contracts/work/customer1.sol\":8484:8489  86400 */\n      0x015180\n        /* \"contracts/contracts/work/customer1.sol\":8476:8481  _time */\n      dup2\n        /* \"contracts/contracts/work/customer1.sol\":8476:8489  _time * 86400 */\n      tag_117\n      swap2\n      swap1\n      tag_118\n      jump\t// in\n    tag_117:\n        /* \"contracts/contracts/work/customer1.sol\":8436:8448  customer_map */\n      0x08\n        /* \"contracts/contracts/work/customer1.sol\":8436:8467  customer_map[_customer_address] */\n      0x00\n        /* \"contracts/contracts/work/customer1.sol\":8449:8466  _customer_address */\n      dup5\n        /* \"contracts/contracts/work/customer1.sol\":8436:8467  customer_map[_customer_address] */\n      0xffffffffffffffffffffffffffffffffffffffff\n      and\n      0xffffffffffffffffffffffffffffffffffffffff\n      and\n      dup2\n      mstore\n      0x20\n      add\n      swap1\n      dup2\n      mstore\n      0x20\n      add\n      0x00\n      keccak256\n        /* \"contracts/contracts/work/customer1.sol\":8436:8472  customer_map[_customer_address].time */\n      0x03\n      add\n      0x00\n        /* \"contracts/contracts/work/customer1.sol\":8436:8489  customer_map[_customer_address].time += _time * 86400 */\n      dup3\n      dup3\n      sload\n      tag_119\n      swap2\n      swap1\n      tag_120\n      jump\t// in\n    tag_119:\n      swap3\n      pop\n      pop\n      dup2\n      swap1\n      sstore\n      pop\n        /* \"contracts/contracts/work/customer1.sol\":8175:8497  function increase_staking_time(address _customer_address, uint _time) onlyOwner public {     //將未入帳質押日期延後(以天為單位)... */\n      pop\n      pop\n      jump\t// out\n        /* \"contracts/contracts/work/customer1.sol\":6333:6678  function change_staking_add_value(address _customer_address, uint _value) onlyOwner public{         //(由大哥大address使用)... */\n    tag_33:\n        /* \"contracts/contracts/work/customer1.sol\":917:927  msg.sender */\n      caller\n        /* \"contracts/contracts/work/customer1.sol\":908:927  owner == msg.sender */\n      0xffffffffffffffffffffffffffffffffffffffff\n      and\n        /* \"contracts/contracts/work/customer1.sol\":908:913  owner */\n      0x00\n      dup1\n      sload\n      swap1\n      0x0100\n      exp\n      swap1\n      div\n      0xffffffffffffffffffffffffffffffffffffffff\n      and\n        /* \"contracts/contracts/work/customer1.sol\":908:927  owner == msg.sender */\n      0xffffffffffffffffffffffffffffffffffffffff\n      and\n      eq\n        /* \"contracts/contracts/work/customer1.sol\":900:965  require(owner == msg.sender,\"This address is not contract Owner\") */\n      tag_122\n      jumpi\n      mload(0x40)\n      0x08c379a000000000000000000000000000000000000000000000000000000000\n      dup2\n      mstore\n      0x04\n      add\n      tag_123\n      swap1\n      tag_112\n      jump\t// in\n    tag_123:\n      mload(0x40)\n      dup1\n      swap2\n      sub\n      swap1\n      revert\n    tag_122:\n        /* \"contracts/contracts/work/customer1.sol\":6540:6541  0 */\n      0x00\n        /* \"contracts/contracts/work/customer1.sol\":6480:6542  customer_map[_customer_address].customer_address != address(0) */\n      0xffffffffffffffffffffffffffffffffffffffff\n      and\n        /* \"contracts/contracts/work/customer1.sol\":6480:6492  customer_map */\n      0x08\n        /* \"contracts/contracts/work/customer1.sol\":6480:6511  customer_map[_customer_address] */\n      0x00\n        /* \"contracts/contracts/work/customer1.sol\":6493:6510  _customer_address */\n      dup5\n        /* \"contracts/contracts/work/customer1.sol\":6480:6511  customer_map[_customer_address] */\n      0xffffffffffffffffffffffffffffffffffffffff\n      and\n      0xffffffffffffffffffffffffffffffffffffffff\n      and\n      dup2\n      mstore\n      0x20\n      add\n      swap1\n      dup2\n      mstore\n      0x20\n      add\n      0x00\n      keccak256\n        /* \"contracts/contracts/work/customer1.sol\":6480:6528  customer_map[_customer_address].customer_address */\n      0x00\n      add\n      0x00\n      swap1\n      sload\n      swap1\n      0x0100\n      exp\n      swap1\n      div\n      0xffffffffffffffffffffffffffffffffffffffff\n      and\n        /* \"contracts/contracts/work/customer1.sol\":6480:6542  customer_map[_customer_address].customer_address != address(0) */\n      0xffffffffffffffffffffffffffffffffffffffff\n      and\n      sub\n        /* \"contracts/contracts/work/customer1.sol\":6472:6570  require(customer_map[_customer_address].customer_address != address(0),\"This account isn't exist\") */\n      tag_125\n      jumpi\n      mload(0x40)\n      0x08c379a000000000000000000000000000000000000000000000000000000000\n      dup2\n      mstore\n      0x04\n      add\n      tag_126\n      swap1\n      tag_116\n      jump\t// in\n    tag_126:\n      mload(0x40)\n      dup1\n      swap2\n      sub\n      swap1\n      revert\n    tag_125:\n        /* \"contracts/contracts/work/customer1.sol\":6625:6631  _value */\n      dup1\n        /* \"contracts/contracts/work/customer1.sol\":6581:6593  customer_map */\n      0x08\n        /* \"contracts/contracts/work/customer1.sol\":6581:6612  customer_map[_customer_address] */\n      0x00\n        /* \"contracts/contracts/work/customer1.sol\":6594:6611  _customer_address */\n      dup5\n        /* \"contracts/contracts/work/customer1.sol\":6581:6612  customer_map[_customer_address] */\n      0xffffffffffffffffffffffffffffffffffffffff\n      and\n      0xffffffffffffffffffffffffffffffffffffffff\n      and\n      dup2\n      mstore\n      0x20\n      add\n      swap1\n      dup2\n      mstore\n      0x20\n      add\n      0x00\n      keccak256\n        /* \"contracts/contracts/work/customer1.sol\":6581:6622  customer_map[_customer_address].add_value */\n      0x02\n      add\n        /* \"contracts/contracts/work/customer1.sol\":6581:6631  customer_map[_customer_address].add_value = _value */\n      dup2\n      swap1\n      sstore\n      pop\n        /* \"contracts/contracts/work/customer1.sol\":6333:6678  function change_staking_add_value(address _customer_address, uint _value) onlyOwner public{         //(由大哥大address使用)... */\n      pop\n      pop\n      jump\t// out\n        /* \"contracts/contracts/work/customer1.sol\":10626:12123  function give_all_reward() onlyOwner payable public{            //按照比例分配獎勵給全部客戶... */\n    tag_35:\n        /* \"contracts/contracts/work/customer1.sol\":917:927  msg.sender */\n      caller\n        /* \"contracts/contracts/work/customer1.sol\":908:927  owner == msg.sender */\n      0xffffffffffffffffffffffffffffffffffffffff\n      and\n        /* \"contracts/contracts/work/customer1.sol\":908:913  owner */\n      0x00\n      dup1\n      sload\n      swap1\n      0x0100\n      exp\n      swap1\n      div\n      0xffffffffffffffffffffffffffffffffffffffff\n      and\n        /* \"contracts/contracts/work/customer1.sol\":908:927  owner == msg.sender */\n      0xffffffffffffffffffffffffffffffffffffffff\n      and\n      eq\n        /* \"contracts/contracts/work/customer1.sol\":900:965  require(owner == msg.sender,\"This address is not contract Owner\") */\n      tag_128\n      jumpi\n      mload(0x40)\n      0x08c379a000000000000000000000000000000000000000000000000000000000\n      dup2\n      mstore\n      0x04\n      add\n      tag_129\n      swap1\n      tag_112\n      jump\t// in\n    tag_129:\n      mload(0x40)\n      dup1\n      swap2\n      sub\n      swap1\n      revert\n    tag_128:\n        /* \"contracts/contracts/work/customer1.sol\":10761:10762  0 */\n      0x00\n        /* \"contracts/contracts/work/customer1.sol\":10749:10758  msg.value */\n      callvalue\n        /* \"contracts/contracts/work/customer1.sol\":10749:10762  msg.value > 0 */\n      gt\n        /* \"contracts/contracts/work/customer1.sol\":10741:10784  require(msg.value > 0,\"You don't give ETH\") */\n      tag_131\n      jumpi\n      mload(0x40)\n      0x08c379a000000000000000000000000000000000000000000000000000000000\n      dup2\n      mstore\n      0x04\n      add\n      tag_132\n      swap1\n      tag_133\n      jump\t// in\n    tag_132:\n      mload(0x40)\n      dup1\n      swap2\n      sub\n      swap1\n      revert\n    tag_131:\n        /* \"contracts/contracts/work/customer1.sol\":10795:10818  uint all_stakling_value */\n      0x00\n        /* \"contracts/contracts/work/customer1.sol\":10821:10845  get_allcustomer_reward() */\n      tag_134\n        /* \"contracts/contracts/work/customer1.sol\":10821:10843  get_allcustomer_reward */\n      tag_69\n        /* \"contracts/contracts/work/customer1.sol\":10821:10845  get_allcustomer_reward() */\n      jump\t// in\n    tag_134:\n        /* \"contracts/contracts/work/customer1.sol\":10795:10845  uint all_stakling_value = get_allcustomer_reward() */\n      swap1\n      pop\n        /* \"contracts/contracts/work/customer1.sol\":10861:10867  uint i */\n      0x00\n        /* \"contracts/contracts/work/customer1.sol\":10856:12027  for (uint i = 0 ; i < amount ; i++){... */\n    tag_135:\n        /* \"contracts/contracts/work/customer1.sol\":10878:10884  amount */\n      sload(0x04)\n        /* \"contracts/contracts/work/customer1.sol\":10874:10875  i */\n      dup2\n        /* \"contracts/contracts/work/customer1.sol\":10874:10884  i < amount */\n      lt\n        /* \"contracts/contracts/work/customer1.sol\":10856:12027  for (uint i = 0 ; i < amount ; i++){... */\n      iszero\n      tag_136\n      jumpi\n        /* \"contracts/contracts/work/customer1.sol\":10906:10917  uint reward */\n      0x00\n        /* \"contracts/contracts/work/customer1.sol\":10973:10974  0 */\n      dup1\n        /* \"contracts/contracts/work/customer1.sol\":10939:10951  customer_map */\n      0x08\n        /* \"contracts/contracts/work/customer1.sol\":10939:10963  customer_map[account[i]] */\n      0x00\n        /* \"contracts/contracts/work/customer1.sol\":10952:10959  account */\n      0x06\n        /* \"contracts/contracts/work/customer1.sol\":10960:10961  i */\n      dup6\n        /* \"contracts/contracts/work/customer1.sol\":10952:10962  account[i] */\n      dup2\n      sload\n      dup2\n      lt\n      tag_138\n      jumpi\n      tag_139\n      tag_140\n      jump\t// in\n    tag_139:\n    tag_138:\n      swap1\n      0x00\n      mstore\n      keccak256(0x00, 0x20)\n      add\n      0x00\n      swap1\n      sload\n      swap1\n      0x0100\n      exp\n      swap1\n      div\n      0xffffffffffffffffffffffffffffffffffffffff\n      and\n        /* \"contracts/contracts/work/customer1.sol\":10939:10963  customer_map[account[i]] */\n      0xffffffffffffffffffffffffffffffffffffffff\n      and\n      0xffffffffffffffffffffffffffffffffffffffff\n      and\n      dup2\n      mstore\n      0x20\n      add\n      swap1\n      dup2\n      mstore\n      0x20\n      add\n      0x00\n      keccak256\n        /* \"contracts/contracts/work/customer1.sol\":10939:10969  customer_map[account[i]].value */\n      0x01\n      add\n      sload\n        /* \"contracts/contracts/work/customer1.sol\":10939:10974  customer_map[account[i]].value != 0 */\n      eq\n      iszero\n        /* \"contracts/contracts/work/customer1.sol\":10939:11022  customer_map[account[i]].value != 0 && reward_time >= customer_map[account[i]].time */\n      dup1\n      iszero\n      tag_142\n      jumpi\n      pop\n        /* \"contracts/contracts/work/customer1.sol\":10993:11005  customer_map */\n      0x08\n        /* \"contracts/contracts/work/customer1.sol\":10993:11017  customer_map[account[i]] */\n      0x00\n        /* \"contracts/contracts/work/customer1.sol\":11006:11013  account */\n      0x06\n        /* \"contracts/contracts/work/customer1.sol\":11014:11015  i */\n      dup5\n        /* \"contracts/contracts/work/customer1.sol\":11006:11016  account[i] */\n      dup2\n      sload\n      dup2\n      lt\n      tag_143\n      jumpi\n      tag_144\n      tag_140\n      jump\t// in\n    tag_144:\n    tag_143:\n      swap1\n      0x00\n      mstore\n      keccak256(0x00, 0x20)\n      add\n      0x00\n      swap1\n      sload\n      swap1\n      0x0100\n      exp\n      swap1\n      div\n      0xffffffffffffffffffffffffffffffffffffffff\n      and\n        /* \"contracts/contracts/work/customer1.sol\":10993:11017  customer_map[account[i]] */\n      0xffffffffffffffffffffffffffffffffffffffff\n      and\n      0xffffffffffffffffffffffffffffffffffffffff\n      and\n      dup2\n      mstore\n      0x20\n      add\n      swap1\n      dup2\n      mstore\n      0x20\n      add\n      0x00\n      keccak256\n        /* \"contracts/contracts/work/customer1.sol\":10993:11022  customer_map[account[i]].time */\n      0x03\n      add\n      sload\n        /* \"contracts/contracts/work/customer1.sol\":10978:10989  reward_time */\n      sload(0x05)\n        /* \"contracts/contracts/work/customer1.sol\":10978:11022  reward_time >= customer_map[account[i]].time */\n      lt\n      iszero\n        /* \"contracts/contracts/work/customer1.sol\":10939:11022  customer_map[account[i]].value != 0 && reward_time >= customer_map[account[i]].time */\n    tag_142:\n        /* \"contracts/contracts/work/customer1.sol\":10936:11174  if(customer_map[account[i]].value != 0 && reward_time >= customer_map[account[i]].time){      //條件要滿足有質押金額且質押時間為上次發放獎勵前... */\n      iszero\n      tag_146\n      jumpi\n        /* \"contracts/contracts/work/customer1.sol\":11128:11140  customer_map */\n      0x08\n        /* \"contracts/contracts/work/customer1.sol\":11128:11152  customer_map[account[i]] */\n      0x00\n        /* \"contracts/contracts/work/customer1.sol\":11141:11148  account */\n      0x06\n        /* \"contracts/contracts/work/customer1.sol\":11149:11150  i */\n      dup5\n        /* \"contracts/contracts/work/customer1.sol\":11141:11151  account[i] */\n      dup2\n      sload\n      dup2\n      lt\n      tag_147\n      jumpi\n      tag_148\n      tag_140\n      jump\t// in\n    tag_148:\n    tag_147:\n      swap1\n      0x00\n      mstore\n      keccak256(0x00, 0x20)\n      add\n      0x00\n      swap1\n      sload\n      swap1\n      0x0100\n      exp\n      swap1\n      div\n      0xffffffffffffffffffffffffffffffffffffffff\n      and\n        /* \"contracts/contracts/work/customer1.sol\":11128:11152  customer_map[account[i]] */\n      0xffffffffffffffffffffffffffffffffffffffff\n      and\n      0xffffffffffffffffffffffffffffffffffffffff\n      and\n      dup2\n      mstore\n      0x20\n      add\n      swap1\n      dup2\n      mstore\n      0x20\n      add\n      0x00\n      keccak256\n        /* \"contracts/contracts/work/customer1.sol\":11128:11158  customer_map[account[i]].value */\n      0x01\n      add\n      sload\n        /* \"contracts/contracts/work/customer1.sol\":11119:11158  reward = customer_map[account[i]].value */\n      swap1\n      pop\n        /* \"contracts/contracts/work/customer1.sol\":10936:11174  if(customer_map[account[i]].value != 0 && reward_time >= customer_map[account[i]].time){      //條件要滿足有質押金額且質押時間為上次發放獎勵前... */\n    tag_146:\n        /* \"contracts/contracts/work/customer1.sol\":11229:11230  0 */\n      0x00\n        /* \"contracts/contracts/work/customer1.sol\":11191:11203  customer_map */\n      0x08\n        /* \"contracts/contracts/work/customer1.sol\":11191:11215  customer_map[account[i]] */\n      0x00\n        /* \"contracts/contracts/work/customer1.sol\":11204:11211  account */\n      0x06\n        /* \"contracts/contracts/work/customer1.sol\":11212:11213  i */\n      dup6\n        /* \"contracts/contracts/work/customer1.sol\":11204:11214  account[i] */\n      dup2\n      sload\n      dup2\n      lt\n      tag_150\n      jumpi\n      tag_151\n      tag_140\n      jump\t// in\n    tag_151:\n    tag_150:\n      swap1\n      0x00\n      mstore\n      keccak256(0x00, 0x20)\n      add\n      0x00\n      swap1\n      sload\n      swap1\n      0x0100\n      exp\n      swap1\n      div\n      0xffffffffffffffffffffffffffffffffffffffff\n      and\n        /* \"contracts/contracts/work/customer1.sol\":11191:11215  customer_map[account[i]] */\n      0xffffffffffffffffffffffffffffffffffffffff\n      and\n      0xffffffffffffffffffffffffffffffffffffffff\n      and\n      dup2\n      mstore\n      0x20\n      add\n      swap1\n      dup2\n      mstore\n      0x20\n      add\n      0x00\n      keccak256\n        /* \"contracts/contracts/work/customer1.sol\":11191:11225  customer_map[account[i]].add_value */\n      0x02\n      add\n      sload\n        /* \"contracts/contracts/work/customer1.sol\":11191:11230  customer_map[account[i]].add_value != 0 */\n      eq\n        /* \"contracts/contracts/work/customer1.sol\":11188:11575  if(customer_map[account[i]].add_value != 0){      //要有新增的質押金額才執行... */\n      tag_153\n      jumpi\n        /* \"contracts/contracts/work/customer1.sol\":11328:11340  customer_map */\n      0x08\n        /* \"contracts/contracts/work/customer1.sol\":11328:11352  customer_map[account[i]] */\n      0x00\n        /* \"contracts/contracts/work/customer1.sol\":11341:11348  account */\n      0x06\n        /* \"contracts/contracts/work/customer1.sol\":11349:11350  i */\n      dup5\n        /* \"contracts/contracts/work/customer1.sol\":11341:11351  account[i] */\n      dup2\n      sload\n      dup2\n      lt\n      tag_154\n      jumpi\n      tag_155\n      tag_140\n      jump\t// in\n    tag_155:\n    tag_154:\n      swap1\n      0x00\n      mstore\n      keccak256(0x00, 0x20)\n      add\n      0x00\n      swap1\n      sload\n      swap1\n      0x0100\n      exp\n      swap1\n      div\n      0xffffffffffffffffffffffffffffffffffffffff\n      and\n        /* \"contracts/contracts/work/customer1.sol\":11328:11352  customer_map[account[i]] */\n      0xffffffffffffffffffffffffffffffffffffffff\n      and\n      0xffffffffffffffffffffffffffffffffffffffff\n      and\n      dup2\n      mstore\n      0x20\n      add\n      swap1\n      dup2\n      mstore\n      0x20\n      add\n      0x00\n      keccak256\n        /* \"contracts/contracts/work/customer1.sol\":11328:11362  customer_map[account[i]].add_value */\n      0x02\n      add\n      sload\n        /* \"contracts/contracts/work/customer1.sol\":11294:11306  customer_map */\n      0x08\n        /* \"contracts/contracts/work/customer1.sol\":11294:11318  customer_map[account[i]] */\n      0x00\n        /* \"contracts/contracts/work/customer1.sol\":11307:11314  account */\n      0x06\n        /* \"contracts/contracts/work/customer1.sol\":11315:11316  i */\n      dup6\n        /* \"contracts/contracts/work/customer1.sol\":11307:11317  account[i] */\n      dup2\n      sload\n      dup2\n      lt\n      tag_157\n      jumpi\n      tag_158\n      tag_140\n      jump\t// in\n    tag_158:\n    tag_157:\n      swap1\n      0x00\n      mstore\n      keccak256(0x00, 0x20)\n      add\n      0x00\n      swap1\n      sload\n      swap1\n      0x0100\n      exp\n      swap1\n      div\n      0xffffffffffffffffffffffffffffffffffffffff\n      and\n        /* \"contracts/contracts/work/customer1.sol\":11294:11318  customer_map[account[i]] */\n      0xffffffffffffffffffffffffffffffffffffffff\n      and\n      0xffffffffffffffffffffffffffffffffffffffff\n      and\n      dup2\n      mstore\n      0x20\n      add\n      swap1\n      dup2\n      mstore\n      0x20\n      add\n      0x00\n      keccak256\n        /* \"contracts/contracts/work/customer1.sol\":11294:11324  customer_map[account[i]].value */\n      0x01\n      add\n      0x00\n        /* \"contracts/contracts/work/customer1.sol\":11294:11362  customer_map[account[i]].value += customer_map[account[i]].add_value */\n      dup3\n      dup3\n      sload\n      tag_160\n      swap2\n      swap1\n      tag_120\n      jump\t// in\n    tag_160:\n      swap3\n      pop\n      pop\n      dup2\n      swap1\n      sstore\n      pop\n        /* \"contracts/contracts/work/customer1.sol\":11526:11527  0 */\n      0x00\n        /* \"contracts/contracts/work/customer1.sol\":11489:11501  customer_map */\n      0x08\n        /* \"contracts/contracts/work/customer1.sol\":11489:11513  customer_map[account[i]] */\n      0x00\n        /* \"contracts/contracts/work/customer1.sol\":11502:11509  account */\n      0x06\n        /* \"contracts/contracts/work/customer1.sol\":11510:11511  i */\n      dup6\n        /* \"contracts/contracts/work/customer1.sol\":11502:11512  account[i] */\n      dup2\n      sload\n      dup2\n      lt\n      tag_161\n      jumpi\n      tag_162\n      tag_140\n      jump\t// in\n    tag_162:\n    tag_161:\n      swap1\n      0x00\n      mstore\n      keccak256(0x00, 0x20)\n      add\n      0x00\n      swap1\n      sload\n      swap1\n      0x0100\n      exp\n      swap1\n      div\n      0xffffffffffffffffffffffffffffffffffffffff\n      and\n        /* \"contracts/contracts/work/customer1.sol\":11489:11513  customer_map[account[i]] */\n      0xffffffffffffffffffffffffffffffffffffffff\n      and\n      0xffffffffffffffffffffffffffffffffffffffff\n      and\n      dup2\n      mstore\n      0x20\n      add\n      swap1\n      dup2\n      mstore\n      0x20\n      add\n      0x00\n      keccak256\n        /* \"contracts/contracts/work/customer1.sol\":11489:11523  customer_map[account[i]].add_value */\n      0x02\n      add\n        /* \"contracts/contracts/work/customer1.sol\":11489:11527  customer_map[account[i]].add_value = 0 */\n      dup2\n      swap1\n      sstore\n      pop\n        /* \"contracts/contracts/work/customer1.sol\":11188:11575  if(customer_map[account[i]].add_value != 0){      //要有新增的質押金額才執行... */\n    tag_153:\n        /* \"contracts/contracts/work/customer1.sol\":11602:11603  0 */\n      0x00\n        /* \"contracts/contracts/work/customer1.sol\":11592:11598  reward */\n      dup2\n        /* \"contracts/contracts/work/customer1.sol\":11592:11603  reward == 0 */\n      sub\n        /* \"contracts/contracts/work/customer1.sol\":11589:11648  if(reward == 0){... */\n      tag_164\n      jumpi\n        /* \"contracts/contracts/work/customer1.sol\":11623:11631  continue */\n      pop\n      jump(tag_137)\n        /* \"contracts/contracts/work/customer1.sol\":11589:11648  if(reward == 0){... */\n    tag_164:\n        /* \"contracts/contracts/work/customer1.sol\":11662:11678  uint give_reward */\n      0x00\n        /* \"contracts/contracts/work/customer1.sol\":11702:11720  all_stakling_value */\n      dup4\n        /* \"contracts/contracts/work/customer1.sol\":11690:11699  msg.value */\n      callvalue\n        /* \"contracts/contracts/work/customer1.sol\":11681:11687  reward */\n      dup4\n        /* \"contracts/contracts/work/customer1.sol\":11681:11699  reward * msg.value */\n      tag_165\n      swap2\n      swap1\n      tag_118\n      jump\t// in\n    tag_165:\n        /* \"contracts/contracts/work/customer1.sol\":11681:11720  reward * msg.value / all_stakling_value */\n      tag_166\n      swap2\n      swap1\n      tag_167\n      jump\t// in\n    tag_166:\n        /* \"contracts/contracts/work/customer1.sol\":11662:11720  uint give_reward = reward * msg.value / all_stakling_value */\n      swap1\n      pop\n        /* \"contracts/contracts/work/customer1.sol\":11735:11759  address payable _address */\n      0x00\n        /* \"contracts/contracts/work/customer1.sol\":11770:11782  customer_map */\n      0x08\n        /* \"contracts/contracts/work/customer1.sol\":11770:11794  customer_map[account[i]] */\n      0x00\n        /* \"contracts/contracts/work/customer1.sol\":11783:11790  account */\n      0x06\n        /* \"contracts/contracts/work/customer1.sol\":11791:11792  i */\n      dup7\n        /* \"contracts/contracts/work/customer1.sol\":11783:11793  account[i] */\n      dup2\n      sload\n      dup2\n      lt\n      tag_168\n      jumpi\n      tag_169\n      tag_140\n      jump\t// in\n    tag_169:\n    tag_168:\n      swap1\n      0x00\n      mstore\n      keccak256(0x00, 0x20)\n      add\n      0x00\n      swap1\n      sload\n      swap1\n      0x0100\n      exp\n      swap1\n      div\n      0xffffffffffffffffffffffffffffffffffffffff\n      and\n        /* \"contracts/contracts/work/customer1.sol\":11770:11794  customer_map[account[i]] */\n      0xffffffffffffffffffffffffffffffffffffffff\n      and\n      0xffffffffffffffffffffffffffffffffffffffff\n      and\n      dup2\n      mstore\n      0x20\n      add\n      swap1\n      dup2\n      mstore\n      0x20\n      add\n      0x00\n      keccak256\n        /* \"contracts/contracts/work/customer1.sol\":11770:11811  customer_map[account[i]].customer_address */\n      0x00\n      add\n      0x00\n      swap1\n      sload\n      swap1\n      0x0100\n      exp\n      swap1\n      div\n      0xffffffffffffffffffffffffffffffffffffffff\n      and\n        /* \"contracts/contracts/work/customer1.sol\":11735:11812  address payable _address = payable(customer_map[account[i]].customer_address) */\n      swap1\n      pop\n        /* \"contracts/contracts/work/customer1.sol\":11882:11890  _address */\n      dup1\n        /* \"contracts/contracts/work/customer1.sol\":11882:11899  _address.transfer */\n      0xffffffffffffffffffffffffffffffffffffffff\n      and\n        /* \"contracts/contracts/work/customer1.sol\":11882:11912  _address.transfer(give_reward) */\n      0x08fc\n        /* \"contracts/contracts/work/customer1.sol\":11900:11911  give_reward */\n      dup4\n        /* \"contracts/contracts/work/customer1.sol\":11882:11912  _address.transfer(give_reward) */\n      swap1\n      dup2\n      iszero\n      mul\n      swap1\n      mload(0x40)\n      0x00\n      mload(0x40)\n      dup1\n      dup4\n      sub\n      dup2\n      dup6\n      dup9\n      dup9\n      call\n      swap4\n      pop\n      pop\n      pop\n      pop\n      iszero\n      dup1\n      iszero\n      tag_172\n      jumpi\n      returndatasize\n      0x00\n      dup1\n      returndatacopy\n      revert(0x00, returndatasize)\n    tag_172:\n      pop\n        /* \"contracts/contracts/work/customer1.sol\":11932:11974  Give_Reward(_address, give_reward, reward) */\n      0xd8e54f1dc02cc5a9165e48bb0c19d3dc0d14902829bc2c791083d3180150f1de\n        /* \"contracts/contracts/work/customer1.sol\":11944:11952  _address */\n      dup2\n        /* \"contracts/contracts/work/customer1.sol\":11954:11965  give_reward */\n      dup4\n        /* \"contracts/contracts/work/customer1.sol\":11967:11973  reward */\n      dup6\n        /* \"contracts/contracts/work/customer1.sol\":11932:11974  Give_Reward(_address, give_reward, reward) */\n      mload(0x40)\n      tag_173\n      swap4\n      swap3\n      swap2\n      swap1\n      tag_174\n      jump\t// in\n    tag_173:\n      mload(0x40)\n      dup1\n      swap2\n      sub\n      swap1\n      log1\n        /* \"contracts/contracts/work/customer1.sol\":10891:12027  {... */\n      pop\n      pop\n      pop\n        /* \"contracts/contracts/work/customer1.sol\":10856:12027  for (uint i = 0 ; i < amount ; i++){... */\n    tag_137:\n        /* \"contracts/contracts/work/customer1.sol\":10887:10890  i++ */\n      dup1\n      dup1\n      0x01\n      add\n      swap2\n      pop\n      pop\n        /* \"contracts/contracts/work/customer1.sol\":10856:12027  for (uint i = 0 ; i < amount ; i++){... */\n      jump(tag_135)\n    tag_136:\n      pop\n        /* \"contracts/contracts/work/customer1.sol\":12051:12066  block.timestamp */\n      timestamp\n        /* \"contracts/contracts/work/customer1.sol\":12037:12048  reward_time */\n      0x05\n        /* \"contracts/contracts/work/customer1.sol\":12037:12066  reward_time = block.timestamp */\n      dup2\n      swap1\n      sstore\n      pop\n        /* \"contracts/contracts/work/customer1.sol\":10677:12123  {            //按照比例分配獎勵給全部客戶... */\n      pop\n        /* \"contracts/contracts/work/customer1.sol\":10626:12123  function give_all_reward() onlyOwner payable public{            //按照比例分配獎勵給全部客戶... */\n      jump\t// out\n        /* \"contracts/contracts/work/customer1.sol\":1220:1345  function change_owner(address _address) onlyOwner public{           //更改合約擁有人... */\n    tag_40:\n        /* \"contracts/contracts/work/customer1.sol\":917:927  msg.sender */\n      caller\n        /* \"contracts/contracts/work/customer1.sol\":908:927  owner == msg.sender */\n      0xffffffffffffffffffffffffffffffffffffffff\n      and\n        /* \"contracts/contracts/work/customer1.sol\":908:913  owner */\n      0x00\n      dup1\n      sload\n      swap1\n      0x0100\n      exp\n      swap1\n      div\n      0xffffffffffffffffffffffffffffffffffffffff\n      and\n        /* \"contracts/contracts/work/customer1.sol\":908:927  owner == msg.sender */\n      0xffffffffffffffffffffffffffffffffffffffff\n      and\n      eq\n        /* \"contracts/contracts/work/customer1.sol\":900:965  require(owner == msg.sender,\"This address is not contract Owner\") */\n      tag_176\n      jumpi\n      mload(0x40)\n      0x08c379a000000000000000000000000000000000000000000000000000000000\n      dup2\n      mstore\n      0x04\n      add\n      tag_177\n      swap1\n      tag_112\n      jump\t// in\n    tag_177:\n      mload(0x40)\n      dup1\n      swap2\n      sub\n      swap1\n      revert\n    tag_176:\n        /* \"contracts/contracts/work/customer1.sol\":1329:1337  _address */\n      dup1\n        /* \"contracts/contracts/work/customer1.sol\":1321:1326  owner */\n      0x00\n      dup1\n        /* \"contracts/contracts/work/customer1.sol\":1321:1337  owner = _address */\n      0x0100\n      exp\n      dup2\n      sload\n      dup2\n      0xffffffffffffffffffffffffffffffffffffffff\n      mul\n      not\n      and\n      swap1\n      dup4\n      0xffffffffffffffffffffffffffffffffffffffff\n      and\n      mul\n      or\n      swap1\n      sstore\n      pop\n        /* \"contracts/contracts/work/customer1.sol\":1220:1345  function change_owner(address _address) onlyOwner public{           //更改合約擁有人... */\n      pop\n      jump\t// out\n        /* \"contracts/contracts/work/customer1.sol\":8833:9062  function get_customer_data(address _address) view public returns(Customer memory){... */\n    tag_44:\n        /* \"contracts/contracts/work/customer1.sol\":8898:8913  Customer memory */\n      tag_179\n      tag_180\n      jump\t// in\n    tag_179:\n        /* \"contracts/contracts/work/customer1.sol\":8984:8985  0 */\n      0x00\n        /* \"contracts/contracts/work/customer1.sol\":8933:8986  customer_map[_address].customer_address != address(0) */\n      0xffffffffffffffffffffffffffffffffffffffff\n      and\n        /* \"contracts/contracts/work/customer1.sol\":8933:8945  customer_map */\n      0x08\n        /* \"contracts/contracts/work/customer1.sol\":8933:8955  customer_map[_address] */\n      0x00\n        /* \"contracts/contracts/work/customer1.sol\":8946:8954  _address */\n      dup5\n        /* \"contracts/contracts/work/customer1.sol\":8933:8955  customer_map[_address] */\n      0xffffffffffffffffffffffffffffffffffffffff\n      and\n      0xffffffffffffffffffffffffffffffffffffffff\n      and\n      dup2\n      mstore\n      0x20\n      add\n      swap1\n      dup2\n      mstore\n      0x20\n      add\n      0x00\n      keccak256\n        /* \"contracts/contracts/work/customer1.sol\":8933:8972  customer_map[_address].customer_address */\n      0x00\n      add\n      0x00\n      swap1\n      sload\n      swap1\n      0x0100\n      exp\n      swap1\n      div\n      0xffffffffffffffffffffffffffffffffffffffff\n      and\n        /* \"contracts/contracts/work/customer1.sol\":8933:8986  customer_map[_address].customer_address != address(0) */\n      0xffffffffffffffffffffffffffffffffffffffff\n      and\n      sub\n        /* \"contracts/contracts/work/customer1.sol\":8925:9014  require(customer_map[_address].customer_address != address(0),\"This account isn't exist\") */\n      tag_182\n      jumpi\n      mload(0x40)\n      0x08c379a000000000000000000000000000000000000000000000000000000000\n      dup2\n      mstore\n      0x04\n      add\n      tag_183\n      swap1\n      tag_116\n      jump\t// in\n    tag_183:\n      mload(0x40)\n      dup1\n      swap2\n      sub\n      swap1\n      revert\n    tag_182:\n        /* \"contracts/contracts/work/customer1.sol\":9032:9044  customer_map */\n      0x08\n        /* \"contracts/contracts/work/customer1.sol\":9032:9054  customer_map[_address] */\n      0x00\n        /* \"contracts/contracts/work/customer1.sol\":9045:9053  _address */\n      dup4\n        /* \"contracts/contracts/work/customer1.sol\":9032:9054  customer_map[_address] */\n      0xffffffffffffffffffffffffffffffffffffffff\n      and\n      0xffffffffffffffffffffffffffffffffffffffff\n      and\n      dup2\n      mstore\n      0x20\n      add\n      swap1\n      dup2\n      mstore\n      0x20\n      add\n      0x00\n      keccak256\n        /* \"contracts/contracts/work/customer1.sol\":9025:9054  return customer_map[_address] */\n      mload(0x40)\n      dup1\n      0xc0\n      add\n      0x40\n      mstore\n      swap1\n      dup2\n      0x00\n      dup3\n      add\n      0x00\n      swap1\n      sload\n      swap1\n      0x0100\n      exp\n      swap1\n      div\n      0xffffffffffffffffffffffffffffffffffffffff\n      and\n      0xffffffffffffffffffffffffffffffffffffffff\n      and\n      0xffffffffffffffffffffffffffffffffffffffff\n      and\n      dup2\n      mstore\n      0x20\n      add\n      0x01\n      dup3\n      add\n      sload\n      dup2\n      mstore\n      0x20\n      add\n      0x02\n      dup3\n      add\n      sload\n      dup2\n      mstore\n      0x20\n      add\n      0x03\n      dup3\n      add\n      sload\n      dup2\n      mstore\n      0x20\n      add\n      0x04\n      dup3\n      add\n      sload\n      dup2\n      mstore\n      0x20\n      add\n      0x05\n      dup3\n      add\n      sload\n      dup2\n      mstore\n      pop\n      pop\n      swap1\n      pop\n        /* \"contracts/contracts/work/customer1.sol\":8833:9062  function get_customer_data(address _address) view public returns(Customer memory){... */\n      swap2\n      swap1\n      pop\n      jump\t// out\n        /* \"contracts/contracts/work/customer1.sol\":12138:12262  function take_out_ETH(address payable _address) onlyOwner public {... */\n    tag_51:\n        /* \"contracts/contracts/work/customer1.sol\":917:927  msg.sender */\n      caller\n        /* \"contracts/contracts/work/customer1.sol\":908:927  owner == msg.sender */\n      0xffffffffffffffffffffffffffffffffffffffff\n      and\n        /* \"contracts/contracts/work/customer1.sol\":908:913  owner */\n      0x00\n      dup1\n      sload\n      swap1\n      0x0100\n      exp\n      swap1\n      div\n      0xffffffffffffffffffffffffffffffffffffffff\n      and\n        /* \"contracts/contracts/work/customer1.sol\":908:927  owner == msg.sender */\n      0xffffffffffffffffffffffffffffffffffffffff\n      and\n      eq\n        /* \"contracts/contracts/work/customer1.sol\":900:965  require(owner == msg.sender,\"This address is not contract Owner\") */\n      tag_185\n      jumpi\n      mload(0x40)\n      0x08c379a000000000000000000000000000000000000000000000000000000000\n      dup2\n      mstore\n      0x04\n      add\n      tag_186\n      swap1\n      tag_112\n      jump\t// in\n    tag_186:\n      mload(0x40)\n      dup1\n      swap2\n      sub\n      swap1\n      revert\n    tag_185:\n        /* \"contracts/contracts/work/customer1.sol\":12214:12222  _address */\n      dup1\n        /* \"contracts/contracts/work/customer1.sol\":12214:12231  _address.transfer */\n      0xffffffffffffffffffffffffffffffffffffffff\n      and\n        /* \"contracts/contracts/work/customer1.sol\":12214:12254  _address.transfer(address(this).balance) */\n      0x08fc\n        /* \"contracts/contracts/work/customer1.sol\":12232:12253  address(this).balance */\n      selfbalance\n        /* \"contracts/contracts/work/customer1.sol\":12214:12254  _address.transfer(address(this).balance) */\n      swap1\n      dup2\n      iszero\n      mul\n      swap1\n      mload(0x40)\n      0x00\n      mload(0x40)\n      dup1\n      dup4\n      sub\n      dup2\n      dup6\n      dup9\n      dup9\n      call\n      swap4\n      pop\n      pop\n      pop\n      pop\n      iszero\n      dup1\n      iszero\n      tag_189\n      jumpi\n      returndatasize\n      0x00\n      dup1\n      returndatacopy\n      revert(0x00, returndatasize)\n    tag_189:\n      pop\n        /* \"contracts/contracts/work/customer1.sol\":12138:12262  function take_out_ETH(address payable _address) onlyOwner public {... */\n      pop\n      jump\t// out\n        /* \"contracts/contracts/work/customer1.sol\":1353:1524  function add_manager(address _address) onlyManager public{... */\n    tag_55:\n        /* \"contracts/contracts/work/customer1.sol\":1115:1116  0 */\n      0x00\n        /* \"contracts/contracts/work/customer1.sol\":1064:1117  manager_map[msg.sender].manager_address != address(0) */\n      0xffffffffffffffffffffffffffffffffffffffff\n      and\n        /* \"contracts/contracts/work/customer1.sol\":1064:1075  manager_map */\n      0x02\n        /* \"contracts/contracts/work/customer1.sol\":1064:1087  manager_map[msg.sender] */\n      0x00\n        /* \"contracts/contracts/work/customer1.sol\":1076:1086  msg.sender */\n      caller\n        /* \"contracts/contracts/work/customer1.sol\":1064:1087  manager_map[msg.sender] */\n      0xffffffffffffffffffffffffffffffffffffffff\n      and\n      0xffffffffffffffffffffffffffffffffffffffff\n      and\n      dup2\n      mstore\n      0x20\n      add\n      swap1\n      dup2\n      mstore\n      0x20\n      add\n      0x00\n      keccak256\n        /* \"contracts/contracts/work/customer1.sol\":1064:1103  manager_map[msg.sender].manager_address */\n      0x00\n      add\n      0x00\n      swap1\n      sload\n      swap1\n      0x0100\n      exp\n      swap1\n      div\n      0xffffffffffffffffffffffffffffffffffffffff\n      and\n        /* \"contracts/contracts/work/customer1.sol\":1064:1117  manager_map[msg.sender].manager_address != address(0) */\n      0xffffffffffffffffffffffffffffffffffffffff\n      and\n      sub\n        /* \"contracts/contracts/work/customer1.sol\":1056:1162  require(manager_map[msg.sender].manager_address != address(0),\"This address has insufficient permissions\") */\n      tag_191\n      jumpi\n      mload(0x40)\n      0x08c379a000000000000000000000000000000000000000000000000000000000\n      dup2\n      mstore\n      0x04\n      add\n      tag_192\n      swap1\n      tag_193\n      jump\t// in\n    tag_192:\n      mload(0x40)\n      dup1\n      swap2\n      sub\n      swap1\n      revert\n    tag_191:\n        /* \"contracts/contracts/work/customer1.sol\":1445:1465  Manager(_address,id) */\n      mload(0x40)\n      dup1\n      0x40\n      add\n      0x40\n      mstore\n      dup1\n        /* \"contracts/contracts/work/customer1.sol\":1453:1461  _address */\n      dup3\n        /* \"contracts/contracts/work/customer1.sol\":1445:1465  Manager(_address,id) */\n      0xffffffffffffffffffffffffffffffffffffffff\n      and\n      dup2\n      mstore\n      0x20\n      add\n        /* \"contracts/contracts/work/customer1.sol\":1462:1464  id */\n      sload(0x03)\n        /* \"contracts/contracts/work/customer1.sol\":1445:1465  Manager(_address,id) */\n      dup2\n      mstore\n      pop\n        /* \"contracts/contracts/work/customer1.sol\":1421:1432  manager_map */\n      0x02\n        /* \"contracts/contracts/work/customer1.sol\":1421:1442  manager_map[_address] */\n      0x00\n        /* \"contracts/contracts/work/customer1.sol\":1433:1441  _address */\n      dup4\n        /* \"contracts/contracts/work/customer1.sol\":1421:1442  manager_map[_address] */\n      0xffffffffffffffffffffffffffffffffffffffff\n      and\n      0xffffffffffffffffffffffffffffffffffffffff\n      and\n      dup2\n      mstore\n      0x20\n      add\n      swap1\n      dup2\n      mstore\n      0x20\n      add\n      0x00\n      keccak256\n        /* \"contracts/contracts/work/customer1.sol\":1421:1465  manager_map[_address] = Manager(_address,id) */\n      0x00\n      dup3\n      add\n      mload\n      dup2\n      0x00\n      add\n      exp(0x0100, 0x00)\n      dup2\n      sload\n      dup2\n      0xffffffffffffffffffffffffffffffffffffffff\n      mul\n      not\n      and\n      swap1\n      dup4\n      0xffffffffffffffffffffffffffffffffffffffff\n      and\n      mul\n      or\n      swap1\n      sstore\n      pop\n      0x20\n      dup3\n      add\n      mload\n      dup2\n      0x01\n      add\n      sstore\n      swap1\n      pop\n      pop\n        /* \"contracts/contracts/work/customer1.sol\":1476:1483  manager */\n      0x01\n        /* \"contracts/contracts/work/customer1.sol\":1489:1497  _address */\n      dup2\n        /* \"contracts/contracts/work/customer1.sol\":1476:1498  manager.push(_address) */\n      swap1\n      dup1\n      0x01\n      dup2\n      sload\n      add\n      dup1\n      dup3\n      sstore\n      dup1\n      swap2\n      pop\n      pop\n      0x01\n      swap1\n      sub\n      swap1\n      0x00\n      mstore\n      keccak256(0x00, 0x20)\n      add\n      0x00\n      swap1\n      swap2\n      swap1\n      swap2\n      swap1\n      swap2\n      0x0100\n      exp\n      dup2\n      sload\n      dup2\n      0xffffffffffffffffffffffffffffffffffffffff\n      mul\n      not\n      and\n      swap1\n      dup4\n      0xffffffffffffffffffffffffffffffffffffffff\n      and\n      mul\n      or\n      swap1\n      sstore\n      pop\n        /* \"contracts/contracts/work/customer1.sol\":1515:1516  1 */\n      0x01\n        /* \"contracts/contracts/work/customer1.sol\":1509:1511  id */\n      0x03\n      0x00\n        /* \"contracts/contracts/work/customer1.sol\":1509:1516  id += 1 */\n      dup3\n      dup3\n      sload\n      tag_196\n      swap2\n      swap1\n      tag_120\n      jump\t// in\n    tag_196:\n      swap3\n      pop\n      pop\n      dup2\n      swap1\n      sstore\n      pop\n        /* \"contracts/contracts/work/customer1.sol\":1353:1524  function add_manager(address _address) onlyManager public{... */\n      pop\n      jump\t// out\n        /* \"contracts/contracts/work/customer1.sol\":5186:5974  function delete_customer(address payable _customer_address) onlyManager payable public{       //刪除客戶資訊同時歸還質押金額(由大哥大address使用)... */\n    tag_58:\n        /* \"contracts/contracts/work/customer1.sol\":1115:1116  0 */\n      0x00\n        /* \"contracts/contracts/work/customer1.sol\":1064:1117  manager_map[msg.sender].manager_address != address(0) */\n      0xffffffffffffffffffffffffffffffffffffffff\n      and\n        /* \"contracts/contracts/work/customer1.sol\":1064:1075  manager_map */\n      0x02\n        /* \"contracts/contracts/work/customer1.sol\":1064:1087  manager_map[msg.sender] */\n      0x00\n        /* \"contracts/contracts/work/customer1.sol\":1076:1086  msg.sender */\n      caller\n        /* \"contracts/contracts/work/customer1.sol\":1064:1087  manager_map[msg.sender] */\n      0xffffffffffffffffffffffffffffffffffffffff\n      and\n      0xffffffffffffffffffffffffffffffffffffffff\n      and\n      dup2\n      mstore\n      0x20\n      add\n      swap1\n      dup2\n      mstore\n      0x20\n      add\n      0x00\n      keccak256\n        /* \"contracts/contracts/work/customer1.sol\":1064:1103  manager_map[msg.sender].manager_address */\n      0x00\n      add\n      0x00\n      swap1\n      sload\n      swap1\n      0x0100\n      exp\n      swap1\n      div\n      0xffffffffffffffffffffffffffffffffffffffff\n      and\n        /* \"contracts/contracts/work/customer1.sol\":1064:1117  manager_map[msg.sender].manager_address != address(0) */\n      0xffffffffffffffffffffffffffffffffffffffff\n      and\n      sub\n        /* \"contracts/contracts/work/customer1.sol\":1056:1162  require(manager_map[msg.sender].manager_address != address(0),\"This address has insufficient permissions\") */\n      tag_198\n      jumpi\n      mload(0x40)\n      0x08c379a000000000000000000000000000000000000000000000000000000000\n      dup2\n      mstore\n      0x04\n      add\n      tag_199\n      swap1\n      tag_193\n      jump\t// in\n    tag_199:\n      mload(0x40)\n      dup1\n      swap2\n      sub\n      swap1\n      revert\n    tag_198:\n        /* \"contracts/contracts/work/customer1.sol\":5429:5430  0 */\n      0x00\n        /* \"contracts/contracts/work/customer1.sol\":5369:5431  customer_map[_customer_address].customer_address != address(0) */\n      0xffffffffffffffffffffffffffffffffffffffff\n      and\n        /* \"contracts/contracts/work/customer1.sol\":5369:5381  customer_map */\n      0x08\n        /* \"contracts/contracts/work/customer1.sol\":5369:5400  customer_map[_customer_address] */\n      0x00\n        /* \"contracts/contracts/work/customer1.sol\":5382:5399  _customer_address */\n      dup4\n        /* \"contracts/contracts/work/customer1.sol\":5369:5400  customer_map[_customer_address] */\n      0xffffffffffffffffffffffffffffffffffffffff\n      and\n      0xffffffffffffffffffffffffffffffffffffffff\n      and\n      dup2\n      mstore\n      0x20\n      add\n      swap1\n      dup2\n      mstore\n      0x20\n      add\n      0x00\n      keccak256\n        /* \"contracts/contracts/work/customer1.sol\":5369:5417  customer_map[_customer_address].customer_address */\n      0x00\n      add\n      0x00\n      swap1\n      sload\n      swap1\n      0x0100\n      exp\n      swap1\n      div\n      0xffffffffffffffffffffffffffffffffffffffff\n      and\n        /* \"contracts/contracts/work/customer1.sol\":5369:5431  customer_map[_customer_address].customer_address != address(0) */\n      0xffffffffffffffffffffffffffffffffffffffff\n      and\n      sub\n        /* \"contracts/contracts/work/customer1.sol\":5361:5459  require(customer_map[_customer_address].customer_address != address(0),\"This account isn't exist\") */\n      tag_201\n      jumpi\n      mload(0x40)\n      0x08c379a000000000000000000000000000000000000000000000000000000000\n      dup2\n      mstore\n      0x04\n      add\n      tag_202\n      swap1\n      tag_116\n      jump\t// in\n    tag_202:\n      mload(0x40)\n      dup1\n      swap2\n      sub\n      swap1\n      revert\n    tag_201:\n        /* \"contracts/contracts/work/customer1.sol\":5531:5543  customer_map */\n      0x08\n        /* \"contracts/contracts/work/customer1.sol\":5531:5562  customer_map[_customer_address] */\n      0x00\n        /* \"contracts/contracts/work/customer1.sol\":5544:5561  _customer_address */\n      dup3\n        /* \"contracts/contracts/work/customer1.sol\":5531:5562  customer_map[_customer_address] */\n      0xffffffffffffffffffffffffffffffffffffffff\n      and\n      0xffffffffffffffffffffffffffffffffffffffff\n      and\n      dup2\n      mstore\n      0x20\n      add\n      swap1\n      dup2\n      mstore\n      0x20\n      add\n      0x00\n      keccak256\n        /* \"contracts/contracts/work/customer1.sol\":5531:5572  customer_map[_customer_address].add_value */\n      0x02\n      add\n      sload\n        /* \"contracts/contracts/work/customer1.sol\":5491:5503  customer_map */\n      0x08\n        /* \"contracts/contracts/work/customer1.sol\":5491:5522  customer_map[_customer_address] */\n      0x00\n        /* \"contracts/contracts/work/customer1.sol\":5504:5521  _customer_address */\n      dup4\n        /* \"contracts/contracts/work/customer1.sol\":5491:5522  customer_map[_customer_address] */\n      0xffffffffffffffffffffffffffffffffffffffff\n      and\n      0xffffffffffffffffffffffffffffffffffffffff\n      and\n      dup2\n      mstore\n      0x20\n      add\n      swap1\n      dup2\n      mstore\n      0x20\n      add\n      0x00\n      keccak256\n        /* \"contracts/contracts/work/customer1.sol\":5491:5528  customer_map[_customer_address].value */\n      0x01\n      add\n      sload\n        /* \"contracts/contracts/work/customer1.sol\":5491:5572  customer_map[_customer_address].value + customer_map[_customer_address].add_value */\n      tag_203\n      swap2\n      swap1\n      tag_120\n      jump\t// in\n    tag_203:\n        /* \"contracts/contracts/work/customer1.sol\":5478:5487  msg.value */\n      callvalue\n        /* \"contracts/contracts/work/customer1.sol\":5478:5572  msg.value >= customer_map[_customer_address].value + customer_map[_customer_address].add_value */\n      lt\n      iszero\n        /* \"contracts/contracts/work/customer1.sol\":5470:5619  require(msg.value >= customer_map[_customer_address].value + customer_map[_customer_address].add_value,\"We need pay off the staking to the customer\") */\n      tag_204\n      jumpi\n      mload(0x40)\n      0x08c379a000000000000000000000000000000000000000000000000000000000\n      dup2\n      mstore\n      0x04\n      add\n      tag_205\n      swap1\n      tag_206\n      jump\t// in\n    tag_205:\n      mload(0x40)\n      dup1\n      swap2\n      sub\n      swap1\n      revert\n    tag_204:\n        /* \"contracts/contracts/work/customer1.sol\":5719:5720  0 */\n      0x00\n        /* \"contracts/contracts/work/customer1.sol\":5674:5686  customer_map */\n      0x08\n        /* \"contracts/contracts/work/customer1.sol\":5674:5705  customer_map[_customer_address] */\n      0x00\n        /* \"contracts/contracts/work/customer1.sol\":5687:5704  _customer_address */\n      dup4\n        /* \"contracts/contracts/work/customer1.sol\":5674:5705  customer_map[_customer_address] */\n      0xffffffffffffffffffffffffffffffffffffffff\n      and\n      0xffffffffffffffffffffffffffffffffffffffff\n      and\n      dup2\n      mstore\n      0x20\n      add\n      swap1\n      dup2\n      mstore\n      0x20\n      add\n      0x00\n      keccak256\n        /* \"contracts/contracts/work/customer1.sol\":5674:5715  customer_map[_customer_address].add_value */\n      0x02\n      add\n      sload\n        /* \"contracts/contracts/work/customer1.sol\":5634:5646  customer_map */\n      0x08\n        /* \"contracts/contracts/work/customer1.sol\":5634:5665  customer_map[_customer_address] */\n      0x00\n        /* \"contracts/contracts/work/customer1.sol\":5647:5664  _customer_address */\n      dup5\n        /* \"contracts/contracts/work/customer1.sol\":5634:5665  customer_map[_customer_address] */\n      0xffffffffffffffffffffffffffffffffffffffff\n      and\n      0xffffffffffffffffffffffffffffffffffffffff\n      and\n      dup2\n      mstore\n      0x20\n      add\n      swap1\n      dup2\n      mstore\n      0x20\n      add\n      0x00\n      keccak256\n        /* \"contracts/contracts/work/customer1.sol\":5634:5671  customer_map[_customer_address].value */\n      0x01\n      add\n      sload\n        /* \"contracts/contracts/work/customer1.sol\":5634:5715  customer_map[_customer_address].value + customer_map[_customer_address].add_value */\n      tag_207\n      swap2\n      swap1\n      tag_120\n      jump\t// in\n    tag_207:\n        /* \"contracts/contracts/work/customer1.sol\":5634:5720  customer_map[_customer_address].value + customer_map[_customer_address].add_value != 0 */\n      eq\n        /* \"contracts/contracts/work/customer1.sol\":5630:5857  if (customer_map[_customer_address].value + customer_map[_customer_address].add_value != 0){... */\n      tag_208\n      jumpi\n        /* \"contracts/contracts/work/customer1.sol\":5736:5753  _customer_address */\n      dup1\n        /* \"contracts/contracts/work/customer1.sol\":5736:5762  _customer_address.transfer */\n      0xffffffffffffffffffffffffffffffffffffffff\n      and\n        /* \"contracts/contracts/work/customer1.sol\":5736:5845  _customer_address.transfer(customer_map[_customer_address].value + customer_map[_customer_address].add_value) */\n      0x08fc\n        /* \"contracts/contracts/work/customer1.sol\":5803:5815  customer_map */\n      0x08\n        /* \"contracts/contracts/work/customer1.sol\":5803:5834  customer_map[_customer_address] */\n      0x00\n        /* \"contracts/contracts/work/customer1.sol\":5816:5833  _customer_address */\n      dup5\n        /* \"contracts/contracts/work/customer1.sol\":5803:5834  customer_map[_customer_address] */\n      0xffffffffffffffffffffffffffffffffffffffff\n      and\n      0xffffffffffffffffffffffffffffffffffffffff\n      and\n      dup2\n      mstore\n      0x20\n      add\n      swap1\n      dup2\n      mstore\n      0x20\n      add\n      0x00\n      keccak256\n        /* \"contracts/contracts/work/customer1.sol\":5803:5844  customer_map[_customer_address].add_value */\n      0x02\n      add\n      sload\n        /* \"contracts/contracts/work/customer1.sol\":5763:5775  customer_map */\n      0x08\n        /* \"contracts/contracts/work/customer1.sol\":5763:5794  customer_map[_customer_address] */\n      0x00\n        /* \"contracts/contracts/work/customer1.sol\":5776:5793  _customer_address */\n      dup6\n        /* \"contracts/contracts/work/customer1.sol\":5763:5794  customer_map[_customer_address] */\n      0xffffffffffffffffffffffffffffffffffffffff\n      and\n      0xffffffffffffffffffffffffffffffffffffffff\n      and\n      dup2\n      mstore\n      0x20\n      add\n      swap1\n      dup2\n      mstore\n      0x20\n      add\n      0x00\n      keccak256\n        /* \"contracts/contracts/work/customer1.sol\":5763:5800  customer_map[_customer_address].value */\n      0x01\n      add\n      sload\n        /* \"contracts/contracts/work/customer1.sol\":5763:5844  customer_map[_customer_address].value + customer_map[_customer_address].add_value */\n      tag_209\n      swap2\n      swap1\n      tag_120\n      jump\t// in\n    tag_209:\n        /* \"contracts/contracts/work/customer1.sol\":5736:5845  _customer_address.transfer(customer_map[_customer_address].value + customer_map[_customer_address].add_value) */\n      swap1\n      dup2\n      iszero\n      mul\n      swap1\n      mload(0x40)\n      0x00\n      mload(0x40)\n      dup1\n      dup4\n      sub\n      dup2\n      dup6\n      dup9\n      dup9\n      call\n      swap4\n      pop\n      pop\n      pop\n      pop\n      iszero\n      dup1\n      iszero\n      tag_211\n      jumpi\n      returndatasize\n      0x00\n      dup1\n      returndatacopy\n      revert(0x00, returndatasize)\n    tag_211:\n      pop\n        /* \"contracts/contracts/work/customer1.sol\":5630:5857  if (customer_map[_customer_address].value + customer_map[_customer_address].add_value != 0){... */\n    tag_208:\n        /* \"contracts/contracts/work/customer1.sol\":5874:5881  account */\n      0x06\n        /* \"contracts/contracts/work/customer1.sol\":5882:5894  customer_map */\n      0x08\n        /* \"contracts/contracts/work/customer1.sol\":5882:5913  customer_map[_customer_address] */\n      0x00\n        /* \"contracts/contracts/work/customer1.sol\":5895:5912  _customer_address */\n      dup4\n        /* \"contracts/contracts/work/customer1.sol\":5882:5913  customer_map[_customer_address] */\n      0xffffffffffffffffffffffffffffffffffffffff\n      and\n      0xffffffffffffffffffffffffffffffffffffffff\n      and\n      dup2\n      mstore\n      0x20\n      add\n      swap1\n      dup2\n      mstore\n      0x20\n      add\n      0x00\n      keccak256\n        /* \"contracts/contracts/work/customer1.sol\":5882:5916  customer_map[_customer_address].id */\n      0x05\n      add\n      sload\n        /* \"contracts/contracts/work/customer1.sol\":5874:5917  account[customer_map[_customer_address].id] */\n      dup2\n      sload\n      dup2\n      lt\n      tag_212\n      jumpi\n      tag_213\n      tag_140\n      jump\t// in\n    tag_213:\n    tag_212:\n      swap1\n      0x00\n      mstore\n      keccak256(0x00, 0x20)\n      add\n      0x00\n        /* \"contracts/contracts/work/customer1.sol\":5867:5917  delete account[customer_map[_customer_address].id] */\n      0x0100\n      exp\n      dup2\n      sload\n      swap1\n      0xffffffffffffffffffffffffffffffffffffffff\n      mul\n      not\n      and\n      swap1\n      sstore\n        /* \"contracts/contracts/work/customer1.sol\":5935:5947  customer_map */\n      0x08\n        /* \"contracts/contracts/work/customer1.sol\":5935:5966  customer_map[_customer_address] */\n      0x00\n        /* \"contracts/contracts/work/customer1.sol\":5948:5965  _customer_address */\n      dup3\n        /* \"contracts/contracts/work/customer1.sol\":5935:5966  customer_map[_customer_address] */\n      0xffffffffffffffffffffffffffffffffffffffff\n      and\n      0xffffffffffffffffffffffffffffffffffffffff\n      and\n      dup2\n      mstore\n      0x20\n      add\n      swap1\n      dup2\n      mstore\n      0x20\n      add\n      0x00\n      keccak256\n      0x00\n        /* \"contracts/contracts/work/customer1.sol\":5928:5966  delete customer_map[_customer_address] */\n      dup1\n      dup3\n      add\n      exp(0x0100, 0x00)\n      dup2\n      sload\n      swap1\n      0xffffffffffffffffffffffffffffffffffffffff\n      mul\n      not\n      and\n      swap1\n      sstore\n      0x01\n      dup3\n      add\n      0x00\n      swap1\n      sstore\n      0x02\n      dup3\n      add\n      0x00\n      swap1\n      sstore\n      0x03\n      dup3\n      add\n      0x00\n      swap1\n      sstore\n      0x04\n      dup3\n      add\n      0x00\n      swap1\n      sstore\n      0x05\n      dup3\n      add\n      0x00\n      swap1\n      sstore\n      pop\n      pop\n        /* \"contracts/contracts/work/customer1.sol\":5186:5974  function delete_customer(address payable _customer_address) onlyManager payable public{       //刪除客戶資訊同時歸還質押金額(由大哥大address使用)... */\n      pop\n      jump\t// out\n        /* \"contracts/contracts/work/customer1.sol\":1532:1698  function delete_manager(address _address) onlyManager public{... */\n    tag_62:\n        /* \"contracts/contracts/work/customer1.sol\":1115:1116  0 */\n      0x00\n        /* \"contracts/contracts/work/customer1.sol\":1064:1117  manager_map[msg.sender].manager_address != address(0) */\n      0xffffffffffffffffffffffffffffffffffffffff\n      and\n        /* \"contracts/contracts/work/customer1.sol\":1064:1075  manager_map */\n      0x02\n        /* \"contracts/contracts/work/customer1.sol\":1064:1087  manager_map[msg.sender] */\n      0x00\n        /* \"contracts/contracts/work/customer1.sol\":1076:1086  msg.sender */\n      caller\n        /* \"contracts/contracts/work/customer1.sol\":1064:1087  manager_map[msg.sender] */\n      0xffffffffffffffffffffffffffffffffffffffff\n      and\n      0xffffffffffffffffffffffffffffffffffffffff\n      and\n      dup2\n      mstore\n      0x20\n      add\n      swap1\n      dup2\n      mstore\n      0x20\n      add\n      0x00\n      keccak256\n        /* \"contracts/contracts/work/customer1.sol\":1064:1103  manager_map[msg.sender].manager_address */\n      0x00\n      add\n      0x00\n      swap1\n      sload\n      swap1\n      0x0100\n      exp\n      swap1\n      div\n      0xffffffffffffffffffffffffffffffffffffffff\n      and\n        /* \"contracts/contracts/work/customer1.sol\":1064:1117  manager_map[msg.sender].manager_address != address(0) */\n      0xffffffffffffffffffffffffffffffffffffffff\n      and\n      sub\n        /* \"contracts/contracts/work/customer1.sol\":1056:1162  require(manager_map[msg.sender].manager_address != address(0),\"This address has insufficient permissions\") */\n      tag_216\n      jumpi\n      mload(0x40)\n      0x08c379a000000000000000000000000000000000000000000000000000000000\n      dup2\n      mstore\n      0x04\n      add\n      tag_217\n      swap1\n      tag_193\n      jump\t// in\n    tag_217:\n      mload(0x40)\n      dup1\n      swap2\n      sub\n      swap1\n      revert\n    tag_216:\n        /* \"contracts/contracts/work/customer1.sol\":1610:1617  manager */\n      0x01\n        /* \"contracts/contracts/work/customer1.sol\":1618:1629  manager_map */\n      0x02\n        /* \"contracts/contracts/work/customer1.sol\":1618:1639  manager_map[_address] */\n      0x00\n        /* \"contracts/contracts/work/customer1.sol\":1630:1638  _address */\n      dup4\n        /* \"contracts/contracts/work/customer1.sol\":1618:1639  manager_map[_address] */\n      0xffffffffffffffffffffffffffffffffffffffff\n      and\n      0xffffffffffffffffffffffffffffffffffffffff\n      and\n      dup2\n      mstore\n      0x20\n      add\n      swap1\n      dup2\n      mstore\n      0x20\n      add\n      0x00\n      keccak256\n        /* \"contracts/contracts/work/customer1.sol\":1618:1650  manager_map[_address].manager_id */\n      0x01\n      add\n      sload\n        /* \"contracts/contracts/work/customer1.sol\":1610:1651  manager[manager_map[_address].manager_id] */\n      dup2\n      sload\n      dup2\n      lt\n      tag_219\n      jumpi\n      tag_220\n      tag_140\n      jump\t// in\n    tag_220:\n    tag_219:\n      swap1\n      0x00\n      mstore\n      keccak256(0x00, 0x20)\n      add\n      0x00\n        /* \"contracts/contracts/work/customer1.sol\":1603:1651  delete manager[manager_map[_address].manager_id] */\n      0x0100\n      exp\n      dup2\n      sload\n      swap1\n      0xffffffffffffffffffffffffffffffffffffffff\n      mul\n      not\n      and\n      swap1\n      sstore\n        /* \"contracts/contracts/work/customer1.sol\":1669:1680  manager_map */\n      0x02\n        /* \"contracts/contracts/work/customer1.sol\":1669:1690  manager_map[_address] */\n      0x00\n        /* \"contracts/contracts/work/customer1.sol\":1681:1689  _address */\n      dup3\n        /* \"contracts/contracts/work/customer1.sol\":1669:1690  manager_map[_address] */\n      0xffffffffffffffffffffffffffffffffffffffff\n      and\n      0xffffffffffffffffffffffffffffffffffffffff\n      and\n      dup2\n      mstore\n      0x20\n      add\n      swap1\n      dup2\n      mstore\n      0x20\n      add\n      0x00\n      keccak256\n      0x00\n        /* \"contracts/contracts/work/customer1.sol\":1662:1690  delete manager_map[_address] */\n      dup1\n      dup3\n      add\n      exp(0x0100, 0x00)\n      dup2\n      sload\n      swap1\n      0xffffffffffffffffffffffffffffffffffffffff\n      mul\n      not\n      and\n      swap1\n      sstore\n      0x01\n      dup3\n      add\n      0x00\n      swap1\n      sstore\n      pop\n      pop\n        /* \"contracts/contracts/work/customer1.sol\":1532:1698  function delete_manager(address _address) onlyManager public{... */\n      pop\n      jump\t// out\n        /* \"contracts/contracts/work/customer1.sol\":8505:8825  function reduce_staking_time(address _customer_address, uint _time) onlyOwner public {     //將未入帳質押日期提前(以天為單位)... */\n    tag_66:\n        /* \"contracts/contracts/work/customer1.sol\":917:927  msg.sender */\n      caller\n        /* \"contracts/contracts/work/customer1.sol\":908:927  owner == msg.sender */\n      0xffffffffffffffffffffffffffffffffffffffff\n      and\n        /* \"contracts/contracts/work/customer1.sol\":908:913  owner */\n      0x00\n      dup1\n      sload\n      swap1\n      0x0100\n      exp\n      swap1\n      div\n      0xffffffffffffffffffffffffffffffffffffffff\n      and\n        /* \"contracts/contracts/work/customer1.sol\":908:927  owner == msg.sender */\n      0xffffffffffffffffffffffffffffffffffffffff\n      and\n      eq\n        /* \"contracts/contracts/work/customer1.sol\":900:965  require(owner == msg.sender,\"This address is not contract Owner\") */\n      tag_223\n      jumpi\n      mload(0x40)\n      0x08c379a000000000000000000000000000000000000000000000000000000000\n      dup2\n      mstore\n      0x04\n      add\n      tag_224\n      swap1\n      tag_112\n      jump\t// in\n    tag_224:\n      mload(0x40)\n      dup1\n      swap2\n      sub\n      swap1\n      revert\n    tag_223:\n        /* \"contracts/contracts/work/customer1.sol\":8723:8724  0 */\n      0x00\n        /* \"contracts/contracts/work/customer1.sol\":8663:8725  customer_map[_customer_address].customer_address != address(0) */\n      0xffffffffffffffffffffffffffffffffffffffff\n      and\n        /* \"contracts/contracts/work/customer1.sol\":8663:8675  customer_map */\n      0x08\n        /* \"contracts/contracts/work/customer1.sol\":8663:8694  customer_map[_customer_address] */\n      0x00\n        /* \"contracts/contracts/work/customer1.sol\":8676:8693  _customer_address */\n      dup5\n        /* \"contracts/contracts/work/customer1.sol\":8663:8694  customer_map[_customer_address] */\n      0xffffffffffffffffffffffffffffffffffffffff\n      and\n      0xffffffffffffffffffffffffffffffffffffffff\n      and\n      dup2\n      mstore\n      0x20\n      add\n      swap1\n      dup2\n      mstore\n      0x20\n      add\n      0x00\n      keccak256\n        /* \"contracts/contracts/work/customer1.sol\":8663:8711  customer_map[_customer_address].customer_address */\n      0x00\n      add\n      0x00\n      swap1\n      sload\n      swap1\n      0x0100\n      exp\n      swap1\n      div\n      0xffffffffffffffffffffffffffffffffffffffff\n      and\n        /* \"contracts/contracts/work/customer1.sol\":8663:8725  customer_map[_customer_address].customer_address != address(0) */\n      0xffffffffffffffffffffffffffffffffffffffff\n      and\n      sub\n        /* \"contracts/contracts/work/customer1.sol\":8655:8753  require(customer_map[_customer_address].customer_address != address(0),\"This account isn't exist\") */\n      tag_226\n      jumpi\n      mload(0x40)\n      0x08c379a000000000000000000000000000000000000000000000000000000000\n      dup2\n      mstore\n      0x04\n      add\n      tag_227\n      swap1\n      tag_116\n      jump\t// in\n    tag_227:\n      mload(0x40)\n      dup1\n      swap2\n      sub\n      swap1\n      revert\n    tag_226:\n        /* \"contracts/contracts/work/customer1.sol\":8812:8817  86400 */\n      0x015180\n        /* \"contracts/contracts/work/customer1.sol\":8804:8809  _time */\n      dup2\n        /* \"contracts/contracts/work/customer1.sol\":8804:8817  _time * 86400 */\n      tag_228\n      swap2\n      swap1\n      tag_118\n      jump\t// in\n    tag_228:\n        /* \"contracts/contracts/work/customer1.sol\":8764:8776  customer_map */\n      0x08\n        /* \"contracts/contracts/work/customer1.sol\":8764:8795  customer_map[_customer_address] */\n      0x00\n        /* \"contracts/contracts/work/customer1.sol\":8777:8794  _customer_address */\n      dup5\n        /* \"contracts/contracts/work/customer1.sol\":8764:8795  customer_map[_customer_address] */\n      0xffffffffffffffffffffffffffffffffffffffff\n      and\n      0xffffffffffffffffffffffffffffffffffffffff\n      and\n      dup2\n      mstore\n      0x20\n      add\n      swap1\n      dup2\n      mstore\n      0x20\n      add\n      0x00\n      keccak256\n        /* \"contracts/contracts/work/customer1.sol\":8764:8800  customer_map[_customer_address].time */\n      0x03\n      add\n      0x00\n        /* \"contracts/contracts/work/customer1.sol\":8764:8817  customer_map[_customer_address].time -= _time * 86400 */\n      dup3\n      dup3\n      sload\n      tag_229\n      swap2\n      swap1\n      tag_230\n      jump\t// in\n    tag_229:\n      swap3\n      pop\n      pop\n      dup2\n      swap1\n      sstore\n      pop\n        /* \"contracts/contracts/work/customer1.sol\":8505:8825  function reduce_staking_time(address _customer_address, uint _time) onlyOwner public {     //將未入帳質押日期提前(以天為單位)... */\n      pop\n      pop\n      jump\t// out\n        /* \"contracts/contracts/work/customer1.sol\":9815:10319  function get_allcustomer_reward() view onlyOwner public returns(uint){          //取得目前可分配獎勵之總質押金額... */\n    tag_69:\n        /* \"contracts/contracts/work/customer1.sol\":9879:9883  uint */\n      0x00\n        /* \"contracts/contracts/work/customer1.sol\":917:927  msg.sender */\n      caller\n        /* \"contracts/contracts/work/customer1.sol\":908:927  owner == msg.sender */\n      0xffffffffffffffffffffffffffffffffffffffff\n      and\n        /* \"contracts/contracts/work/customer1.sol\":908:913  owner */\n      0x00\n      dup1\n      sload\n      swap1\n      0x0100\n      exp\n      swap1\n      div\n      0xffffffffffffffffffffffffffffffffffffffff\n      and\n        /* \"contracts/contracts/work/customer1.sol\":908:927  owner == msg.sender */\n      0xffffffffffffffffffffffffffffffffffffffff\n      and\n      eq\n        /* \"contracts/contracts/work/customer1.sol\":900:965  require(owner == msg.sender,\"This address is not contract Owner\") */\n      tag_232\n      jumpi\n      mload(0x40)\n      0x08c379a000000000000000000000000000000000000000000000000000000000\n      dup2\n      mstore\n      0x04\n      add\n      tag_233\n      swap1\n      tag_112\n      jump\t// in\n    tag_233:\n      mload(0x40)\n      dup1\n      swap2\n      sub\n      swap1\n      revert\n    tag_232:\n        /* \"contracts/contracts/work/customer1.sol\":9952:9968  uint all_staking */\n      0x00\n        /* \"contracts/contracts/work/customer1.sol\":9986:9992  uint i */\n      dup1\n        /* \"contracts/contracts/work/customer1.sol\":9981:10283  for (uint i = 0 ; i < amount ; i++){... */\n    tag_235:\n        /* \"contracts/contracts/work/customer1.sol\":10003:10009  amount */\n      sload(0x04)\n        /* \"contracts/contracts/work/customer1.sol\":9999:10000  i */\n      dup2\n        /* \"contracts/contracts/work/customer1.sol\":9999:10009  i < amount */\n      lt\n        /* \"contracts/contracts/work/customer1.sol\":9981:10283  for (uint i = 0 ; i < amount ; i++){... */\n      iszero\n      tag_236\n      jumpi\n        /* \"contracts/contracts/work/customer1.sol\":10068:10069  0 */\n      0x00\n        /* \"contracts/contracts/work/customer1.sol\":10034:10046  customer_map */\n      0x08\n        /* \"contracts/contracts/work/customer1.sol\":10034:10058  customer_map[account[i]] */\n      0x00\n        /* \"contracts/contracts/work/customer1.sol\":10047:10054  account */\n      0x06\n        /* \"contracts/contracts/work/customer1.sol\":10055:10056  i */\n      dup5\n        /* \"contracts/contracts/work/customer1.sol\":10047:10057  account[i] */\n      dup2\n      sload\n      dup2\n      lt\n      tag_238\n      jumpi\n      tag_239\n      tag_140\n      jump\t// in\n    tag_239:\n    tag_238:\n      swap1\n      0x00\n      mstore\n      keccak256(0x00, 0x20)\n      add\n      0x00\n      swap1\n      sload\n      swap1\n      0x0100\n      exp\n      swap1\n      div\n      0xffffffffffffffffffffffffffffffffffffffff\n      and\n        /* \"contracts/contracts/work/customer1.sol\":10034:10058  customer_map[account[i]] */\n      0xffffffffffffffffffffffffffffffffffffffff\n      and\n      0xffffffffffffffffffffffffffffffffffffffff\n      and\n      dup2\n      mstore\n      0x20\n      add\n      swap1\n      dup2\n      mstore\n      0x20\n      add\n      0x00\n      keccak256\n        /* \"contracts/contracts/work/customer1.sol\":10034:10064  customer_map[account[i]].value */\n      0x01\n      add\n      sload\n        /* \"contracts/contracts/work/customer1.sol\":10034:10069  customer_map[account[i]].value != 0 */\n      eq\n      iszero\n        /* \"contracts/contracts/work/customer1.sol\":10034:10117  customer_map[account[i]].value != 0 && reward_time >= customer_map[account[i]].time */\n      dup1\n      iszero\n      tag_241\n      jumpi\n      pop\n        /* \"contracts/contracts/work/customer1.sol\":10088:10100  customer_map */\n      0x08\n        /* \"contracts/contracts/work/customer1.sol\":10088:10112  customer_map[account[i]] */\n      0x00\n        /* \"contracts/contracts/work/customer1.sol\":10101:10108  account */\n      0x06\n        /* \"contracts/contracts/work/customer1.sol\":10109:10110  i */\n      dup4\n        /* \"contracts/contracts/work/customer1.sol\":10101:10111  account[i] */\n      dup2\n      sload\n      dup2\n      lt\n      tag_242\n      jumpi\n      tag_243\n      tag_140\n      jump\t// in\n    tag_243:\n    tag_242:\n      swap1\n      0x00\n      mstore\n      keccak256(0x00, 0x20)\n      add\n      0x00\n      swap1\n      sload\n      swap1\n      0x0100\n      exp\n      swap1\n      div\n      0xffffffffffffffffffffffffffffffffffffffff\n      and\n        /* \"contracts/contracts/work/customer1.sol\":10088:10112  customer_map[account[i]] */\n      0xffffffffffffffffffffffffffffffffffffffff\n      and\n      0xffffffffffffffffffffffffffffffffffffffff\n      and\n      dup2\n      mstore\n      0x20\n      add\n      swap1\n      dup2\n      mstore\n      0x20\n      add\n      0x00\n      keccak256\n        /* \"contracts/contracts/work/customer1.sol\":10088:10117  customer_map[account[i]].time */\n      0x03\n      add\n      sload\n        /* \"contracts/contracts/work/customer1.sol\":10073:10084  reward_time */\n      sload(0x05)\n        /* \"contracts/contracts/work/customer1.sol\":10073:10117  reward_time >= customer_map[account[i]].time */\n      lt\n      iszero\n        /* \"contracts/contracts/work/customer1.sol\":10034:10117  customer_map[account[i]].value != 0 && reward_time >= customer_map[account[i]].time */\n    tag_241:\n        /* \"contracts/contracts/work/customer1.sol\":10031:10272  if(customer_map[account[i]].value != 0 && reward_time >= customer_map[account[i]].time){      //條件要滿足有質押金額且質押超過一個月(2592000秒)... */\n      iszero\n      tag_245\n      jumpi\n        /* \"contracts/contracts/work/customer1.sol\":10226:10238  customer_map */\n      0x08\n        /* \"contracts/contracts/work/customer1.sol\":10226:10250  customer_map[account[i]] */\n      0x00\n        /* \"contracts/contracts/work/customer1.sol\":10239:10246  account */\n      0x06\n        /* \"contracts/contracts/work/customer1.sol\":10247:10248  i */\n      dup4\n        /* \"contracts/contracts/work/customer1.sol\":10239:10249  account[i] */\n      dup2\n      sload\n      dup2\n      lt\n      tag_246\n      jumpi\n      tag_247\n      tag_140\n      jump\t// in\n    tag_247:\n    tag_246:\n      swap1\n      0x00\n      mstore\n      keccak256(0x00, 0x20)\n      add\n      0x00\n      swap1\n      sload\n      swap1\n      0x0100\n      exp\n      swap1\n      div\n      0xffffffffffffffffffffffffffffffffffffffff\n      and\n        /* \"contracts/contracts/work/customer1.sol\":10226:10250  customer_map[account[i]] */\n      0xffffffffffffffffffffffffffffffffffffffff\n      and\n      0xffffffffffffffffffffffffffffffffffffffff\n      and\n      dup2\n      mstore\n      0x20\n      add\n      swap1\n      dup2\n      mstore\n      0x20\n      add\n      0x00\n      keccak256\n        /* \"contracts/contracts/work/customer1.sol\":10226:10256  customer_map[account[i]].value */\n      0x01\n      add\n      sload\n        /* \"contracts/contracts/work/customer1.sol\":10211:10256  all_staking += customer_map[account[i]].value */\n      dup3\n      tag_249\n      swap2\n      swap1\n      tag_120\n      jump\t// in\n    tag_249:\n      swap2\n      pop\n        /* \"contracts/contracts/work/customer1.sol\":10031:10272  if(customer_map[account[i]].value != 0 && reward_time >= customer_map[account[i]].time){      //條件要滿足有質押金額且質押超過一個月(2592000秒)... */\n    tag_245:\n        /* \"contracts/contracts/work/customer1.sol\":10012:10015  i++ */\n      dup1\n      dup1\n      0x01\n      add\n      swap2\n      pop\n      pop\n        /* \"contracts/contracts/work/customer1.sol\":9981:10283  for (uint i = 0 ; i < amount ; i++){... */\n      jump(tag_235)\n    tag_236:\n      pop\n        /* \"contracts/contracts/work/customer1.sol\":10300:10311  all_staking */\n      dup1\n        /* \"contracts/contracts/work/customer1.sol\":10293:10311  return all_staking */\n      swap2\n      pop\n      pop\n        /* \"contracts/contracts/work/customer1.sol\":9815:10319  function get_allcustomer_reward() view onlyOwner public returns(uint){          //取得目前可分配獎勵之總質押金額... */\n      swap1\n      jump\t// out\n        /* \"contracts/contracts/work/customer1.sol\":9070:9311  function get_customer_address(address _address) view public returns(address){... */\n    tag_75:\n        /* \"contracts/contracts/work/customer1.sol\":9138:9145  address */\n      0x00\n        /* \"contracts/contracts/work/customer1.sol\":9216:9217  0 */\n      dup1\n        /* \"contracts/contracts/work/customer1.sol\":9165:9218  customer_map[_address].customer_address != address(0) */\n      0xffffffffffffffffffffffffffffffffffffffff\n      and\n        /* \"contracts/contracts/work/customer1.sol\":9165:9177  customer_map */\n      0x08\n        /* \"contracts/contracts/work/customer1.sol\":9165:9187  customer_map[_address] */\n      0x00\n        /* \"contracts/contracts/work/customer1.sol\":9178:9186  _address */\n      dup5\n        /* \"contracts/contracts/work/customer1.sol\":9165:9187  customer_map[_address] */\n      0xffffffffffffffffffffffffffffffffffffffff\n      and\n      0xffffffffffffffffffffffffffffffffffffffff\n      and\n      dup2\n      mstore\n      0x20\n      add\n      swap1\n      dup2\n      mstore\n      0x20\n      add\n      0x00\n      keccak256\n        /* \"contracts/contracts/work/customer1.sol\":9165:9204  customer_map[_address].customer_address */\n      0x00\n      add\n      0x00\n      swap1\n      sload\n      swap1\n      0x0100\n      exp\n      swap1\n      div\n      0xffffffffffffffffffffffffffffffffffffffff\n      and\n        /* \"contracts/contracts/work/customer1.sol\":9165:9218  customer_map[_address].customer_address != address(0) */\n      0xffffffffffffffffffffffffffffffffffffffff\n      and\n      sub\n        /* \"contracts/contracts/work/customer1.sol\":9157:9246  require(customer_map[_address].customer_address != address(0),\"This account isn't exist\") */\n      tag_251\n      jumpi\n      mload(0x40)\n      0x08c379a000000000000000000000000000000000000000000000000000000000\n      dup2\n      mstore\n      0x04\n      add\n      tag_252\n      swap1\n      tag_116\n      jump\t// in\n    tag_252:\n      mload(0x40)\n      dup1\n      swap2\n      sub\n      swap1\n      revert\n    tag_251:\n        /* \"contracts/contracts/work/customer1.sol\":9264:9276  customer_map */\n      0x08\n        /* \"contracts/contracts/work/customer1.sol\":9264:9286  customer_map[_address] */\n      0x00\n        /* \"contracts/contracts/work/customer1.sol\":9277:9285  _address */\n      dup4\n        /* \"contracts/contracts/work/customer1.sol\":9264:9286  customer_map[_address] */\n      0xffffffffffffffffffffffffffffffffffffffff\n      and\n      0xffffffffffffffffffffffffffffffffffffffff\n      and\n      dup2\n      mstore\n      0x20\n      add\n      swap1\n      dup2\n      mstore\n      0x20\n      add\n      0x00\n      keccak256\n        /* \"contracts/contracts/work/customer1.sol\":9264:9303  customer_map[_address].customer_address */\n      0x00\n      add\n      0x00\n      swap1\n      sload\n      swap1\n      0x0100\n      exp\n      swap1\n      div\n      0xffffffffffffffffffffffffffffffffffffffff\n      and\n        /* \"contracts/contracts/work/customer1.sol\":9257:9303  return customer_map[_address].customer_address */\n      swap1\n      pop\n        /* \"contracts/contracts/work/customer1.sol\":9070:9311  function get_customer_address(address _address) view public returns(address){... */\n      swap2\n      swap1\n      pop\n      jump\t// out\n        /* \"contracts/contracts/work/customer1.sol\":5982:6323  function change_staking_value(address _customer_address, uint _value) onlyOwner public{             //(由大哥大address使用)... */\n    tag_81:\n        /* \"contracts/contracts/work/customer1.sol\":917:927  msg.sender */\n      caller\n        /* \"contracts/contracts/work/customer1.sol\":908:927  owner == msg.sender */\n      0xffffffffffffffffffffffffffffffffffffffff\n      and\n        /* \"contracts/contracts/work/customer1.sol\":908:913  owner */\n      0x00\n      dup1\n      sload\n      swap1\n      0x0100\n      exp\n      swap1\n      div\n      0xffffffffffffffffffffffffffffffffffffffff\n      and\n        /* \"contracts/contracts/work/customer1.sol\":908:927  owner == msg.sender */\n      0xffffffffffffffffffffffffffffffffffffffff\n      and\n      eq\n        /* \"contracts/contracts/work/customer1.sol\":900:965  require(owner == msg.sender,\"This address is not contract Owner\") */\n      tag_254\n      jumpi\n      mload(0x40)\n      0x08c379a000000000000000000000000000000000000000000000000000000000\n      dup2\n      mstore\n      0x04\n      add\n      tag_255\n      swap1\n      tag_112\n      jump\t// in\n    tag_255:\n      mload(0x40)\n      dup1\n      swap2\n      sub\n      swap1\n      revert\n    tag_254:\n        /* \"contracts/contracts/work/customer1.sol\":6189:6190  0 */\n      0x00\n        /* \"contracts/contracts/work/customer1.sol\":6129:6191  customer_map[_customer_address].customer_address != address(0) */\n      0xffffffffffffffffffffffffffffffffffffffff\n      and\n        /* \"contracts/contracts/work/customer1.sol\":6129:6141  customer_map */\n      0x08\n        /* \"contracts/contracts/work/customer1.sol\":6129:6160  customer_map[_customer_address] */\n      0x00\n        /* \"contracts/contracts/work/customer1.sol\":6142:6159  _customer_address */\n      dup5\n        /* \"contracts/contracts/work/customer1.sol\":6129:6160  customer_map[_customer_address] */\n      0xffffffffffffffffffffffffffffffffffffffff\n      and\n      0xffffffffffffffffffffffffffffffffffffffff\n      and\n      dup2\n      mstore\n      0x20\n      add\n      swap1\n      dup2\n      mstore\n      0x20\n      add\n      0x00\n      keccak256\n        /* \"contracts/contracts/work/customer1.sol\":6129:6177  customer_map[_customer_address].customer_address */\n      0x00\n      add\n      0x00\n      swap1\n      sload\n      swap1\n      0x0100\n      exp\n      swap1\n      div\n      0xffffffffffffffffffffffffffffffffffffffff\n      and\n        /* \"contracts/contracts/work/customer1.sol\":6129:6191  customer_map[_customer_address].customer_address != address(0) */\n      0xffffffffffffffffffffffffffffffffffffffff\n      and\n      sub\n        /* \"contracts/contracts/work/customer1.sol\":6121:6219  require(customer_map[_customer_address].customer_address != address(0),\"This account isn't exist\") */\n      tag_257\n      jumpi\n      mload(0x40)\n      0x08c379a000000000000000000000000000000000000000000000000000000000\n      dup2\n      mstore\n      0x04\n      add\n      tag_258\n      swap1\n      tag_116\n      jump\t// in\n    tag_258:\n      mload(0x40)\n      dup1\n      swap2\n      sub\n      swap1\n      revert\n    tag_257:\n        /* \"contracts/contracts/work/customer1.sol\":6270:6276  _value */\n      dup1\n        /* \"contracts/contracts/work/customer1.sol\":6230:6242  customer_map */\n      0x08\n        /* \"contracts/contracts/work/customer1.sol\":6230:6261  customer_map[_customer_address] */\n      0x00\n        /* \"contracts/contracts/work/customer1.sol\":6243:6260  _customer_address */\n      dup5\n        /* \"contracts/contracts/work/customer1.sol\":6230:6261  customer_map[_customer_address] */\n      0xffffffffffffffffffffffffffffffffffffffff\n      and\n      0xffffffffffffffffffffffffffffffffffffffff\n      and\n      dup2\n      mstore\n      0x20\n      add\n      swap1\n      dup2\n      mstore\n      0x20\n      add\n      0x00\n      keccak256\n        /* \"contracts/contracts/work/customer1.sol\":6230:6267  customer_map[_customer_address].value */\n      0x01\n      add\n        /* \"contracts/contracts/work/customer1.sol\":6230:6276  customer_map[_customer_address].value = _value */\n      dup2\n      swap1\n      sstore\n      pop\n        /* \"contracts/contracts/work/customer1.sol\":5982:6323  function change_staking_value(address _customer_address, uint _value) onlyOwner public{             //(由大哥大address使用)... */\n      pop\n      pop\n      jump\t// out\n        /* \"contracts/contracts/work/customer1.sol\":1706:1785  function getOwner() view public returns(address){... */\n    tag_84:\n        /* \"contracts/contracts/work/customer1.sol\":1746:1753  address */\n      0x00\n        /* \"contracts/contracts/work/customer1.sol\":1772:1777  owner */\n      dup1\n      0x00\n      swap1\n      sload\n      swap1\n      0x0100\n      exp\n      swap1\n      div\n      0xffffffffffffffffffffffffffffffffffffffff\n      and\n        /* \"contracts/contracts/work/customer1.sol\":1765:1777  return owner */\n      swap1\n      pop\n        /* \"contracts/contracts/work/customer1.sol\":1706:1785  function getOwner() view public returns(address){... */\n      swap1\n      jump\t// out\n        /* \"contracts/contracts/work/customer1.sol\":3692:3811  function change_staking_account(address payable _address) onlyOwner public{... */\n    tag_89:\n        /* \"contracts/contracts/work/customer1.sol\":917:927  msg.sender */\n      caller\n        /* \"contracts/contracts/work/customer1.sol\":908:927  owner == msg.sender */\n      0xffffffffffffffffffffffffffffffffffffffff\n      and\n        /* \"contracts/contracts/work/customer1.sol\":908:913  owner */\n      0x00\n      dup1\n      sload\n      swap1\n      0x0100\n      exp\n      swap1\n      div\n      0xffffffffffffffffffffffffffffffffffffffff\n      and\n        /* \"contracts/contracts/work/customer1.sol\":908:927  owner == msg.sender */\n      0xffffffffffffffffffffffffffffffffffffffff\n      and\n      eq\n        /* \"contracts/contracts/work/customer1.sol\":900:965  require(owner == msg.sender,\"This address is not contract Owner\") */\n      tag_261\n      jumpi\n      mload(0x40)\n      0x08c379a000000000000000000000000000000000000000000000000000000000\n      dup2\n      mstore\n      0x04\n      add\n      tag_262\n      swap1\n      tag_112\n      jump\t// in\n    tag_262:\n      mload(0x40)\n      dup1\n      swap2\n      sub\n      swap1\n      revert\n    tag_261:\n        /* \"contracts/contracts/work/customer1.sol\":3795:3803  _address */\n      dup1\n        /* \"contracts/contracts/work/customer1.sol\":3777:3792  staking_account */\n      0x07\n      0x00\n        /* \"contracts/contracts/work/customer1.sol\":3777:3803  staking_account = _address */\n      0x0100\n      exp\n      dup2\n      sload\n      dup2\n      0xffffffffffffffffffffffffffffffffffffffff\n      mul\n      not\n      and\n      swap1\n      dup4\n      0xffffffffffffffffffffffffffffffffffffffff\n      and\n      mul\n      or\n      swap1\n      sstore\n      pop\n        /* \"contracts/contracts/work/customer1.sol\":3692:3811  function change_staking_account(address payable _address) onlyOwner public{... */\n      pop\n      jump\t// out\n        /* \"contracts/contracts/work/customer1.sol\":9588:9807  function get_customer_id(address _address) view public returns(uint){... */\n    tag_93:\n        /* \"contracts/contracts/work/customer1.sol\":9651:9655  uint */\n      0x00\n        /* \"contracts/contracts/work/customer1.sol\":9726:9727  0 */\n      dup1\n        /* \"contracts/contracts/work/customer1.sol\":9675:9728  customer_map[_address].customer_address != address(0) */\n      0xffffffffffffffffffffffffffffffffffffffff\n      and\n        /* \"contracts/contracts/work/customer1.sol\":9675:9687  customer_map */\n      0x08\n        /* \"contracts/contracts/work/customer1.sol\":9675:9697  customer_map[_address] */\n      0x00\n        /* \"contracts/contracts/work/customer1.sol\":9688:9696  _address */\n      dup5\n        /* \"contracts/contracts/work/customer1.sol\":9675:9697  customer_map[_address] */\n      0xffffffffffffffffffffffffffffffffffffffff\n      and\n      0xffffffffffffffffffffffffffffffffffffffff\n      and\n      dup2\n      mstore\n      0x20\n      add\n      swap1\n      dup2\n      mstore\n      0x20\n      add\n      0x00\n      keccak256\n        /* \"contracts/contracts/work/customer1.sol\":9675:9714  customer_map[_address].customer_address */\n      0x00\n      add\n      0x00\n      swap1\n      sload\n      swap1\n      0x0100\n      exp\n      swap1\n      div\n      0xffffffffffffffffffffffffffffffffffffffff\n      and\n        /* \"contracts/contracts/work/customer1.sol\":9675:9728  customer_map[_address].customer_address != address(0) */\n      0xffffffffffffffffffffffffffffffffffffffff\n      and\n      sub\n        /* \"contracts/contracts/work/customer1.sol\":9667:9756  require(customer_map[_address].customer_address != address(0),\"This account isn't exist\") */\n      tag_265\n      jumpi\n      mload(0x40)\n      0x08c379a000000000000000000000000000000000000000000000000000000000\n      dup2\n      mstore\n      0x04\n      add\n      tag_266\n      swap1\n      tag_116\n      jump\t// in\n    tag_266:\n      mload(0x40)\n      dup1\n      swap2\n      sub\n      swap1\n      revert\n    tag_265:\n        /* \"contracts/contracts/work/customer1.sol\":9774:9786  customer_map */\n      0x08\n        /* \"contracts/contracts/work/customer1.sol\":9774:9796  customer_map[_address] */\n      0x00\n        /* \"contracts/contracts/work/customer1.sol\":9787:9795  _address */\n      dup4\n        /* \"contracts/contracts/work/customer1.sol\":9774:9796  customer_map[_address] */\n      0xffffffffffffffffffffffffffffffffffffffff\n      and\n      0xffffffffffffffffffffffffffffffffffffffff\n      and\n      dup2\n      mstore\n      0x20\n      add\n      swap1\n      dup2\n      mstore\n      0x20\n      add\n      0x00\n      keccak256\n        /* \"contracts/contracts/work/customer1.sol\":9774:9799  customer_map[_address].id */\n      0x05\n      add\n      sload\n        /* \"contracts/contracts/work/customer1.sol\":9767:9799  return customer_map[_address].id */\n      swap1\n      pop\n        /* \"contracts/contracts/work/customer1.sol\":9588:9807  function get_customer_id(address _address) view public returns(uint){... */\n      swap2\n      swap1\n      pop\n      jump\t// out\n        /* \"contracts/contracts/work/customer1.sol\":3819:5177  function add_customer(address _customer_address) payable public{       //新增客戶資訊 並將ETH轉入專用帳戶 建議可用hash替換位址(由客戶支出ETH的address使用)(需改善問題點為若是客戶自行私下與合約交互將會使公司記錄與智能合約不符)... */\n    tag_97:\n        /* \"contracts/contracts/work/customer1.sol\":4185:4186  0 */\n      0x00\n        /* \"contracts/contracts/work/customer1.sol\":4125:4187  customer_map[_customer_address].customer_address == address(0) */\n      0xffffffffffffffffffffffffffffffffffffffff\n      and\n        /* \"contracts/contracts/work/customer1.sol\":4125:4137  customer_map */\n      0x08\n        /* \"contracts/contracts/work/customer1.sol\":4125:4156  customer_map[_customer_address] */\n      0x00\n        /* \"contracts/contracts/work/customer1.sol\":4138:4155  _customer_address */\n      dup4\n        /* \"contracts/contracts/work/customer1.sol\":4125:4156  customer_map[_customer_address] */\n      0xffffffffffffffffffffffffffffffffffffffff\n      and\n      0xffffffffffffffffffffffffffffffffffffffff\n      and\n      dup2\n      mstore\n      0x20\n      add\n      swap1\n      dup2\n      mstore\n      0x20\n      add\n      0x00\n      keccak256\n        /* \"contracts/contracts/work/customer1.sol\":4125:4173  customer_map[_customer_address].customer_address */\n      0x00\n      add\n      0x00\n      swap1\n      sload\n      swap1\n      0x0100\n      exp\n      swap1\n      div\n      0xffffffffffffffffffffffffffffffffffffffff\n      and\n        /* \"contracts/contracts/work/customer1.sol\":4125:4187  customer_map[_customer_address].customer_address == address(0) */\n      0xffffffffffffffffffffffffffffffffffffffff\n      and\n      eq\n        /* \"contracts/contracts/work/customer1.sol\":4117:4220  require(customer_map[_customer_address].customer_address == address(0),\"This account is already exist\") */\n      tag_268\n      jumpi\n      mload(0x40)\n      0x08c379a000000000000000000000000000000000000000000000000000000000\n      dup2\n      mstore\n      0x04\n      add\n      tag_269\n      swap1\n      tag_270\n      jump\t// in\n    tag_269:\n      mload(0x40)\n      dup1\n      swap2\n      sub\n      swap1\n      revert\n    tag_268:\n        /* \"contracts/contracts/work/customer1.sol\":4377:4378  0 */\n      0x00\n        /* \"contracts/contracts/work/customer1.sol\":4365:4374  msg.value */\n      callvalue\n        /* \"contracts/contracts/work/customer1.sol\":4365:4378  msg.value > 0 */\n      gt\n        /* \"contracts/contracts/work/customer1.sol\":4357:4399  require(msg.value > 0,\"Didn't supply ETH\") */\n      tag_271\n      jumpi\n      mload(0x40)\n      0x08c379a000000000000000000000000000000000000000000000000000000000\n      dup2\n      mstore\n      0x04\n      add\n      tag_272\n      swap1\n      tag_273\n      jump\t// in\n    tag_272:\n      mload(0x40)\n      dup1\n      swap2\n      sub\n      swap1\n      revert\n    tag_271:\n        /* \"contracts/contracts/work/customer1.sol\":4410:4438  Customer memory new_customer */\n      0x00\n        /* \"contracts/contracts/work/customer1.sol\":4441:4866  Customer({           //建立一個Customer物件命名為new_customer儲存客戶資訊... */\n      mload(0x40)\n      dup1\n      0xc0\n      add\n      0x40\n      mstore\n      dup1\n        /* \"contracts/contracts/work/customer1.sol\":4562:4579  _customer_address */\n      dup4\n        /* \"contracts/contracts/work/customer1.sol\":4441:4866  Customer({           //建立一個Customer物件命名為new_customer儲存客戶資訊... */\n      0xffffffffffffffffffffffffffffffffffffffff\n      and\n      dup2\n      mstore\n      0x20\n      add\n        /* \"contracts/contracts/work/customer1.sol\":4602:4611  msg.value */\n      callvalue\n        /* \"contracts/contracts/work/customer1.sol\":4441:4866  Customer({           //建立一個Customer物件命名為new_customer儲存客戶資訊... */\n      dup2\n      mstore\n      0x20\n      add\n        /* \"contracts/contracts/work/customer1.sol\":4638:4639  0 */\n      0x00\n        /* \"contracts/contracts/work/customer1.sol\":4441:4866  Customer({           //建立一個Customer物件命名為new_customer儲存客戶資訊... */\n      dup2\n      mstore\n      0x20\n      add\n        /* \"contracts/contracts/work/customer1.sol\":4679:4686  2592000 */\n      0x278d00\n        /* \"contracts/contracts/work/customer1.sol\":4661:4676  block.timestamp */\n      timestamp\n        /* \"contracts/contracts/work/customer1.sol\":4661:4686  block.timestamp - 2592000 */\n      tag_274\n      swap2\n      swap1\n      tag_230\n      jump\t// in\n    tag_274:\n        /* \"contracts/contracts/work/customer1.sol\":4441:4866  Customer({           //建立一個Customer物件命名為new_customer儲存客戶資訊... */\n      dup2\n      mstore\n      0x20\n      add\n        /* \"contracts/contracts/work/customer1.sol\":4813:4828  block.timestamp */\n      timestamp\n        /* \"contracts/contracts/work/customer1.sol\":4441:4866  Customer({           //建立一個Customer物件命名為new_customer儲存客戶資訊... */\n      dup2\n      mstore\n      0x20\n      add\n        /* \"contracts/contracts/work/customer1.sol\":4848:4854  amount */\n      sload(0x04)\n        /* \"contracts/contracts/work/customer1.sol\":4441:4866  Customer({           //建立一個Customer物件命名為new_customer儲存客戶資訊... */\n      dup2\n      mstore\n      pop\n        /* \"contracts/contracts/work/customer1.sol\":4410:4866  Customer memory new_customer = Customer({           //建立一個Customer物件命名為new_customer儲存客戶資訊... */\n      swap1\n      pop\n        /* \"contracts/contracts/work/customer1.sol\":4911:4923  new_customer */\n      dup1\n        /* \"contracts/contracts/work/customer1.sol\":4877:4889  customer_map */\n      0x08\n        /* \"contracts/contracts/work/customer1.sol\":4877:4908  customer_map[_customer_address] */\n      0x00\n        /* \"contracts/contracts/work/customer1.sol\":4890:4907  _customer_address */\n      dup5\n        /* \"contracts/contracts/work/customer1.sol\":4877:4908  customer_map[_customer_address] */\n      0xffffffffffffffffffffffffffffffffffffffff\n      and\n      0xffffffffffffffffffffffffffffffffffffffff\n      and\n      dup2\n      mstore\n      0x20\n      add\n      swap1\n      dup2\n      mstore\n      0x20\n      add\n      0x00\n      keccak256\n        /* \"contracts/contracts/work/customer1.sol\":4877:4923  customer_map[_customer_address] = new_customer */\n      0x00\n      dup3\n      add\n      mload\n      dup2\n      0x00\n      add\n      exp(0x0100, 0x00)\n      dup2\n      sload\n      dup2\n      0xffffffffffffffffffffffffffffffffffffffff\n      mul\n      not\n      and\n      swap1\n      dup4\n      0xffffffffffffffffffffffffffffffffffffffff\n      and\n      mul\n      or\n      swap1\n      sstore\n      pop\n      0x20\n      dup3\n      add\n      mload\n      dup2\n      0x01\n      add\n      sstore\n      0x40\n      dup3\n      add\n      mload\n      dup2\n      0x02\n      add\n      sstore\n      0x60\n      dup3\n      add\n      mload\n      dup2\n      0x03\n      add\n      sstore\n      0x80\n      dup3\n      add\n      mload\n      dup2\n      0x04\n      add\n      sstore\n      0xa0\n      dup3\n      add\n      mload\n      dup2\n      0x05\n      add\n      sstore\n      swap1\n      pop\n      pop\n        /* \"contracts/contracts/work/customer1.sol\":5006:5013  account */\n      0x06\n        /* \"contracts/contracts/work/customer1.sol\":5019:5036  _customer_address */\n      dup3\n        /* \"contracts/contracts/work/customer1.sol\":5006:5037  account.push(_customer_address) */\n      swap1\n      dup1\n      0x01\n      dup2\n      sload\n      add\n      dup1\n      dup3\n      sstore\n      dup1\n      swap2\n      pop\n      pop\n      0x01\n      swap1\n      sub\n      swap1\n      0x00\n      mstore\n      keccak256(0x00, 0x20)\n      add\n      0x00\n      swap1\n      swap2\n      swap1\n      swap2\n      swap1\n      swap2\n      0x0100\n      exp\n      dup2\n      sload\n      dup2\n      0xffffffffffffffffffffffffffffffffffffffff\n      mul\n      not\n      and\n      swap1\n      dup4\n      0xffffffffffffffffffffffffffffffffffffffff\n      and\n      mul\n      or\n      swap1\n      sstore\n      pop\n        /* \"contracts/contracts/work/customer1.sol\":5112:5127  staking_account */\n      0x07\n      0x00\n      swap1\n      sload\n      swap1\n      0x0100\n      exp\n      swap1\n      div\n      0xffffffffffffffffffffffffffffffffffffffff\n      and\n        /* \"contracts/contracts/work/customer1.sol\":5112:5136  staking_account.transfer */\n      0xffffffffffffffffffffffffffffffffffffffff\n      and\n        /* \"contracts/contracts/work/customer1.sol\":5112:5147  staking_account.transfer(msg.value) */\n      0x08fc\n        /* \"contracts/contracts/work/customer1.sol\":5137:5146  msg.value */\n      callvalue\n        /* \"contracts/contracts/work/customer1.sol\":5112:5147  staking_account.transfer(msg.value) */\n      swap1\n      dup2\n      iszero\n      mul\n      swap1\n      mload(0x40)\n      0x00\n      mload(0x40)\n      dup1\n      dup4\n      sub\n      dup2\n      dup6\n      dup9\n      dup9\n      call\n      swap4\n      pop\n      pop\n      pop\n      pop\n      iszero\n      dup1\n      iszero\n      tag_277\n      jumpi\n      returndatasize\n      0x00\n      dup1\n      returndatacopy\n      revert(0x00, returndatasize)\n    tag_277:\n      pop\n        /* \"contracts/contracts/work/customer1.sol\":5168:5169  1 */\n      0x01\n        /* \"contracts/contracts/work/customer1.sol\":5158:5164  amount */\n      0x04\n      0x00\n        /* \"contracts/contracts/work/customer1.sol\":5158:5169  amount += 1 */\n      dup3\n      dup3\n      sload\n      tag_278\n      swap2\n      swap1\n      tag_120\n      jump\t// in\n    tag_278:\n      swap3\n      pop\n      pop\n      dup2\n      swap1\n      sstore\n      pop\n        /* \"contracts/contracts/work/customer1.sol\":3882:5177  {       //新增客戶資訊 並將ETH轉入專用帳戶 建議可用hash替換位址(由客戶支出ETH的address使用)(需改善問題點為若是客戶自行私下與合約交互將會使公司記錄與智能合約不符)... */\n      pop\n        /* \"contracts/contracts/work/customer1.sol\":3819:5177  function add_customer(address _customer_address) payable public{       //新增客戶資訊 並將ETH轉入專用帳戶 建議可用hash替換位址(由客戶支出ETH的address使用)(需改善問題點為若是客戶自行私下與合約交互將會使公司記錄與智能合約不符)... */\n      pop\n      jump\t// out\n        /* \"contracts/contracts/work/customer1.sol\":7252:8167  function reduce_staking_value(address _customer_address) onlyManager payable public{         //減少質押金額並轉帳(由大哥大address使用)... */\n    tag_100:\n        /* \"contracts/contracts/work/customer1.sol\":1115:1116  0 */\n      0x00\n        /* \"contracts/contracts/work/customer1.sol\":1064:1117  manager_map[msg.sender].manager_address != address(0) */\n      0xffffffffffffffffffffffffffffffffffffffff\n      and\n        /* \"contracts/contracts/work/customer1.sol\":1064:1075  manager_map */\n      0x02\n        /* \"contracts/contracts/work/customer1.sol\":1064:1087  manager_map[msg.sender] */\n      0x00\n        /* \"contracts/contracts/work/customer1.sol\":1076:1086  msg.sender */\n      caller\n        /* \"contracts/contracts/work/customer1.sol\":1064:1087  manager_map[msg.sender] */\n      0xffffffffffffffffffffffffffffffffffffffff\n      and\n      0xffffffffffffffffffffffffffffffffffffffff\n      and\n      dup2\n      mstore\n      0x20\n      add\n      swap1\n      dup2\n      mstore\n      0x20\n      add\n      0x00\n      keccak256\n        /* \"contracts/contracts/work/customer1.sol\":1064:1103  manager_map[msg.sender].manager_address */\n      0x00\n      add\n      0x00\n      swap1\n      sload\n      swap1\n      0x0100\n      exp\n      swap1\n      div\n      0xffffffffffffffffffffffffffffffffffffffff\n      and\n        /* \"contracts/contracts/work/customer1.sol\":1064:1117  manager_map[msg.sender].manager_address != address(0) */\n      0xffffffffffffffffffffffffffffffffffffffff\n      and\n      sub\n        /* \"contracts/contracts/work/customer1.sol\":1056:1162  require(manager_map[msg.sender].manager_address != address(0),\"This address has insufficient permissions\") */\n      tag_280\n      jumpi\n      mload(0x40)\n      0x08c379a000000000000000000000000000000000000000000000000000000000\n      dup2\n      mstore\n      0x04\n      add\n      tag_281\n      swap1\n      tag_193\n      jump\t// in\n    tag_281:\n      mload(0x40)\n      dup1\n      swap2\n      sub\n      swap1\n      revert\n    tag_280:\n        /* \"contracts/contracts/work/customer1.sol\":7479:7480  0 */\n      0x00\n        /* \"contracts/contracts/work/customer1.sol\":7419:7481  customer_map[_customer_address].customer_address != address(0) */\n      0xffffffffffffffffffffffffffffffffffffffff\n      and\n        /* \"contracts/contracts/work/customer1.sol\":7419:7431  customer_map */\n      0x08\n        /* \"contracts/contracts/work/customer1.sol\":7419:7450  customer_map[_customer_address] */\n      0x00\n        /* \"contracts/contracts/work/customer1.sol\":7432:7449  _customer_address */\n      dup4\n        /* \"contracts/contracts/work/customer1.sol\":7419:7450  customer_map[_customer_address] */\n      0xffffffffffffffffffffffffffffffffffffffff\n      and\n      0xffffffffffffffffffffffffffffffffffffffff\n      and\n      dup2\n      mstore\n      0x20\n      add\n      swap1\n      dup2\n      mstore\n      0x20\n      add\n      0x00\n      keccak256\n        /* \"contracts/contracts/work/customer1.sol\":7419:7467  customer_map[_customer_address].customer_address */\n      0x00\n      add\n      0x00\n      swap1\n      sload\n      swap1\n      0x0100\n      exp\n      swap1\n      div\n      0xffffffffffffffffffffffffffffffffffffffff\n      and\n        /* \"contracts/contracts/work/customer1.sol\":7419:7481  customer_map[_customer_address].customer_address != address(0) */\n      0xffffffffffffffffffffffffffffffffffffffff\n      and\n      sub\n        /* \"contracts/contracts/work/customer1.sol\":7411:7509  require(customer_map[_customer_address].customer_address != address(0),\"This account isn't exist\") */\n      tag_283\n      jumpi\n      mload(0x40)\n      0x08c379a000000000000000000000000000000000000000000000000000000000\n      dup2\n      mstore\n      0x04\n      add\n      tag_284\n      swap1\n      tag_116\n      jump\t// in\n    tag_284:\n      mload(0x40)\n      dup1\n      swap2\n      sub\n      swap1\n      revert\n    tag_283:\n        /* \"contracts/contracts/work/customer1.sol\":7623:7635  customer_map */\n      0x08\n        /* \"contracts/contracts/work/customer1.sol\":7623:7654  customer_map[_customer_address] */\n      0x00\n        /* \"contracts/contracts/work/customer1.sol\":7636:7653  _customer_address */\n      dup3\n        /* \"contracts/contracts/work/customer1.sol\":7623:7654  customer_map[_customer_address] */\n      0xffffffffffffffffffffffffffffffffffffffff\n      and\n      0xffffffffffffffffffffffffffffffffffffffff\n      and\n      dup2\n      mstore\n      0x20\n      add\n      swap1\n      dup2\n      mstore\n      0x20\n      add\n      0x00\n      keccak256\n        /* \"contracts/contracts/work/customer1.sol\":7623:7664  customer_map[_customer_address].add_value */\n      0x02\n      add\n      sload\n        /* \"contracts/contracts/work/customer1.sol\":7583:7595  customer_map */\n      0x08\n        /* \"contracts/contracts/work/customer1.sol\":7583:7614  customer_map[_customer_address] */\n      0x00\n        /* \"contracts/contracts/work/customer1.sol\":7596:7613  _customer_address */\n      dup4\n        /* \"contracts/contracts/work/customer1.sol\":7583:7614  customer_map[_customer_address] */\n      0xffffffffffffffffffffffffffffffffffffffff\n      and\n      0xffffffffffffffffffffffffffffffffffffffff\n      and\n      dup2\n      mstore\n      0x20\n      add\n      swap1\n      dup2\n      mstore\n      0x20\n      add\n      0x00\n      keccak256\n        /* \"contracts/contracts/work/customer1.sol\":7583:7620  customer_map[_customer_address].value */\n      0x01\n      add\n      sload\n        /* \"contracts/contracts/work/customer1.sol\":7583:7664  customer_map[_customer_address].value + customer_map[_customer_address].add_value */\n      tag_285\n      swap2\n      swap1\n      tag_120\n      jump\t// in\n    tag_285:\n        /* \"contracts/contracts/work/customer1.sol\":7570:7579  msg.value */\n      callvalue\n        /* \"contracts/contracts/work/customer1.sol\":7570:7664  msg.value <= customer_map[_customer_address].value + customer_map[_customer_address].add_value */\n      gt\n      iszero\n        /* \"contracts/contracts/work/customer1.sol\":7562:7696  require(msg.value <= customer_map[_customer_address].value + customer_map[_customer_address].add_value, \"Staking value is not enough\") */\n      tag_286\n      jumpi\n      mload(0x40)\n      0x08c379a000000000000000000000000000000000000000000000000000000000\n      dup2\n      mstore\n      0x04\n      add\n      tag_287\n      swap1\n      tag_288\n      jump\t// in\n    tag_287:\n      mload(0x40)\n      dup1\n      swap2\n      sub\n      swap1\n      revert\n    tag_286:\n        /* \"contracts/contracts/work/customer1.sol\":7766:7767  0 */\n      0x00\n        /* \"contracts/contracts/work/customer1.sol\":7754:7763  msg.value */\n      callvalue\n        /* \"contracts/contracts/work/customer1.sol\":7754:7767  msg.value > 0 */\n      gt\n        /* \"contracts/contracts/work/customer1.sol\":7746:7788  require(msg.value > 0,\"Didn't supply ETH\") */\n      tag_289\n      jumpi\n      mload(0x40)\n      0x08c379a000000000000000000000000000000000000000000000000000000000\n      dup2\n      mstore\n      0x04\n      add\n      tag_290\n      swap1\n      tag_273\n      jump\t// in\n    tag_290:\n      mload(0x40)\n      dup1\n      swap2\n      sub\n      swap1\n      revert\n    tag_289:\n        /* \"contracts/contracts/work/customer1.sol\":7815:7827  customer_map */\n      0x08\n        /* \"contracts/contracts/work/customer1.sol\":7815:7846  customer_map[_customer_address] */\n      0x00\n        /* \"contracts/contracts/work/customer1.sol\":7828:7845  _customer_address */\n      dup3\n        /* \"contracts/contracts/work/customer1.sol\":7815:7846  customer_map[_customer_address] */\n      0xffffffffffffffffffffffffffffffffffffffff\n      and\n      0xffffffffffffffffffffffffffffffffffffffff\n      and\n      dup2\n      mstore\n      0x20\n      add\n      swap1\n      dup2\n      mstore\n      0x20\n      add\n      0x00\n      keccak256\n        /* \"contracts/contracts/work/customer1.sol\":7815:7856  customer_map[_customer_address].add_value */\n      0x02\n      add\n      sload\n        /* \"contracts/contracts/work/customer1.sol\":7803:7812  msg.value */\n      callvalue\n        /* \"contracts/contracts/work/customer1.sol\":7803:7856  msg.value > customer_map[_customer_address].add_value */\n      gt\n        /* \"contracts/contracts/work/customer1.sol\":7799:8158  if (msg.value > customer_map[_customer_address].add_value){... */\n      iszero\n      tag_291\n      jumpi\n        /* \"contracts/contracts/work/customer1.sol\":7916:7917  0 */\n      0x00\n        /* \"contracts/contracts/work/customer1.sol\":7872:7884  customer_map */\n      0x08\n        /* \"contracts/contracts/work/customer1.sol\":7872:7903  customer_map[_customer_address] */\n      0x00\n        /* \"contracts/contracts/work/customer1.sol\":7885:7902  _customer_address */\n      dup4\n        /* \"contracts/contracts/work/customer1.sol\":7872:7903  customer_map[_customer_address] */\n      0xffffffffffffffffffffffffffffffffffffffff\n      and\n      0xffffffffffffffffffffffffffffffffffffffff\n      and\n      dup2\n      mstore\n      0x20\n      add\n      swap1\n      dup2\n      mstore\n      0x20\n      add\n      0x00\n      keccak256\n        /* \"contracts/contracts/work/customer1.sol\":7872:7913  customer_map[_customer_address].add_value */\n      0x02\n      add\n        /* \"contracts/contracts/work/customer1.sol\":7872:7917  customer_map[_customer_address].add_value = 0 */\n      dup2\n      swap1\n      sstore\n      pop\n        /* \"contracts/contracts/work/customer1.sol\":7932:7943  uint _value */\n      0x00\n        /* \"contracts/contracts/work/customer1.sol\":7958:7970  customer_map */\n      0x08\n        /* \"contracts/contracts/work/customer1.sol\":7958:7989  customer_map[_customer_address] */\n      0x00\n        /* \"contracts/contracts/work/customer1.sol\":7971:7988  _customer_address */\n      dup4\n        /* \"contracts/contracts/work/customer1.sol\":7958:7989  customer_map[_customer_address] */\n      0xffffffffffffffffffffffffffffffffffffffff\n      and\n      0xffffffffffffffffffffffffffffffffffffffff\n      and\n      dup2\n      mstore\n      0x20\n      add\n      swap1\n      dup2\n      mstore\n      0x20\n      add\n      0x00\n      keccak256\n        /* \"contracts/contracts/work/customer1.sol\":7958:7999  customer_map[_customer_address].add_value */\n      0x02\n      add\n      sload\n        /* \"contracts/contracts/work/customer1.sol\":7946:7955  msg.value */\n      callvalue\n        /* \"contracts/contracts/work/customer1.sol\":7946:7999  msg.value - customer_map[_customer_address].add_value */\n      tag_292\n      swap2\n      swap1\n      tag_230\n      jump\t// in\n    tag_292:\n        /* \"contracts/contracts/work/customer1.sol\":7932:7999  uint _value = msg.value - customer_map[_customer_address].add_value */\n      swap1\n      pop\n        /* \"contracts/contracts/work/customer1.sol\":8055:8061  _value */\n      dup1\n        /* \"contracts/contracts/work/customer1.sol\":8014:8026  customer_map */\n      0x08\n        /* \"contracts/contracts/work/customer1.sol\":8014:8045  customer_map[_customer_address] */\n      0x00\n        /* \"contracts/contracts/work/customer1.sol\":8027:8044  _customer_address */\n      dup5\n        /* \"contracts/contracts/work/customer1.sol\":8014:8045  customer_map[_customer_address] */\n      0xffffffffffffffffffffffffffffffffffffffff\n      and\n      0xffffffffffffffffffffffffffffffffffffffff\n      and\n      dup2\n      mstore\n      0x20\n      add\n      swap1\n      dup2\n      mstore\n      0x20\n      add\n      0x00\n      keccak256\n        /* \"contracts/contracts/work/customer1.sol\":8014:8051  customer_map[_customer_address].value */\n      0x01\n      add\n      0x00\n        /* \"contracts/contracts/work/customer1.sol\":8014:8061  customer_map[_customer_address].value -= _value */\n      dup3\n      dup3\n      sload\n      tag_293\n      swap2\n      swap1\n      tag_230\n      jump\t// in\n    tag_293:\n      swap3\n      pop\n      pop\n      dup2\n      swap1\n      sstore\n      pop\n        /* \"contracts/contracts/work/customer1.sol\":7857:8073  {... */\n      pop\n        /* \"contracts/contracts/work/customer1.sol\":7799:8158  if (msg.value > customer_map[_customer_address].add_value){... */\n      jump(tag_294)\n    tag_291:\n        /* \"contracts/contracts/work/customer1.sol\":8137:8146  msg.value */\n      callvalue\n        /* \"contracts/contracts/work/customer1.sol\":8092:8104  customer_map */\n      0x08\n        /* \"contracts/contracts/work/customer1.sol\":8092:8123  customer_map[_customer_address] */\n      0x00\n        /* \"contracts/contracts/work/customer1.sol\":8105:8122  _customer_address */\n      dup4\n        /* \"contracts/contracts/work/customer1.sol\":8092:8123  customer_map[_customer_address] */\n      0xffffffffffffffffffffffffffffffffffffffff\n      and\n      0xffffffffffffffffffffffffffffffffffffffff\n      and\n      dup2\n      mstore\n      0x20\n      add\n      swap1\n      dup2\n      mstore\n      0x20\n      add\n      0x00\n      keccak256\n        /* \"contracts/contracts/work/customer1.sol\":8092:8133  customer_map[_customer_address].add_value */\n      0x02\n      add\n      0x00\n        /* \"contracts/contracts/work/customer1.sol\":8092:8146  customer_map[_customer_address].add_value -= msg.value */\n      dup3\n      dup3\n      sload\n      tag_295\n      swap2\n      swap1\n      tag_230\n      jump\t// in\n    tag_295:\n      swap3\n      pop\n      pop\n      dup2\n      swap1\n      sstore\n      pop\n        /* \"contracts/contracts/work/customer1.sol\":7799:8158  if (msg.value > customer_map[_customer_address].add_value){... */\n    tag_294:\n        /* \"contracts/contracts/work/customer1.sol\":7252:8167  function reduce_staking_value(address _customer_address) onlyManager payable public{         //減少質押金額並轉帳(由大哥大address使用)... */\n      pop\n      jump\t// out\n        /* \"contracts/contracts/work/customer1.sol\":6688:7244  function increase_staking_value(address _customer_address) payable public{           //增加質押金額並轉帳(由客戶address使用)... */\n    tag_103:\n        /* \"contracts/contracts/work/customer1.sol\":6904:6905  0 */\n      0x00\n        /* \"contracts/contracts/work/customer1.sol\":6844:6906  customer_map[_customer_address].customer_address != address(0) */\n      0xffffffffffffffffffffffffffffffffffffffff\n      and\n        /* \"contracts/contracts/work/customer1.sol\":6844:6856  customer_map */\n      0x08\n        /* \"contracts/contracts/work/customer1.sol\":6844:6875  customer_map[_customer_address] */\n      0x00\n        /* \"contracts/contracts/work/customer1.sol\":6857:6874  _customer_address */\n      dup4\n        /* \"contracts/contracts/work/customer1.sol\":6844:6875  customer_map[_customer_address] */\n      0xffffffffffffffffffffffffffffffffffffffff\n      and\n      0xffffffffffffffffffffffffffffffffffffffff\n      and\n      dup2\n      mstore\n      0x20\n      add\n      swap1\n      dup2\n      mstore\n      0x20\n      add\n      0x00\n      keccak256\n        /* \"contracts/contracts/work/customer1.sol\":6844:6892  customer_map[_customer_address].customer_address */\n      0x00\n      add\n      0x00\n      swap1\n      sload\n      swap1\n      0x0100\n      exp\n      swap1\n      div\n      0xffffffffffffffffffffffffffffffffffffffff\n      and\n        /* \"contracts/contracts/work/customer1.sol\":6844:6906  customer_map[_customer_address].customer_address != address(0) */\n      0xffffffffffffffffffffffffffffffffffffffff\n      and\n      sub\n        /* \"contracts/contracts/work/customer1.sol\":6836:6934  require(customer_map[_customer_address].customer_address != address(0),\"This account isn't exist\") */\n      tag_297\n      jumpi\n      mload(0x40)\n      0x08c379a000000000000000000000000000000000000000000000000000000000\n      dup2\n      mstore\n      0x04\n      add\n      tag_298\n      swap1\n      tag_116\n      jump\t// in\n    tag_298:\n      mload(0x40)\n      dup1\n      swap2\n      sub\n      swap1\n      revert\n    tag_297:\n        /* \"contracts/contracts/work/customer1.sol\":6965:6966  0 */\n      0x00\n        /* \"contracts/contracts/work/customer1.sol\":6953:6962  msg.value */\n      callvalue\n        /* \"contracts/contracts/work/customer1.sol\":6953:6966  msg.value > 0 */\n      gt\n        /* \"contracts/contracts/work/customer1.sol\":6945:6987  require(msg.value > 0,\"Didn't supply ETH\") */\n      tag_299\n      jumpi\n      mload(0x40)\n      0x08c379a000000000000000000000000000000000000000000000000000000000\n      dup2\n      mstore\n      0x04\n      add\n      tag_300\n      swap1\n      tag_273\n      jump\t// in\n    tag_300:\n      mload(0x40)\n      dup1\n      swap2\n      sub\n      swap1\n      revert\n    tag_299:\n        /* \"contracts/contracts/work/customer1.sol\":7043:7052  msg.value */\n      callvalue\n        /* \"contracts/contracts/work/customer1.sol\":6998:7010  customer_map */\n      0x08\n        /* \"contracts/contracts/work/customer1.sol\":6998:7029  customer_map[_customer_address] */\n      0x00\n        /* \"contracts/contracts/work/customer1.sol\":7011:7028  _customer_address */\n      dup4\n        /* \"contracts/contracts/work/customer1.sol\":6998:7029  customer_map[_customer_address] */\n      0xffffffffffffffffffffffffffffffffffffffff\n      and\n      0xffffffffffffffffffffffffffffffffffffffff\n      and\n      dup2\n      mstore\n      0x20\n      add\n      swap1\n      dup2\n      mstore\n      0x20\n      add\n      0x00\n      keccak256\n        /* \"contracts/contracts/work/customer1.sol\":6998:7039  customer_map[_customer_address].add_value */\n      0x02\n      add\n      0x00\n        /* \"contracts/contracts/work/customer1.sol\":6998:7052  customer_map[_customer_address].add_value += msg.value */\n      dup3\n      dup3\n      sload\n      tag_301\n      swap2\n      swap1\n      tag_120\n      jump\t// in\n    tag_301:\n      swap3\n      pop\n      pop\n      dup2\n      swap1\n      sstore\n      pop\n        /* \"contracts/contracts/work/customer1.sol\":7175:7190  block.timestamp */\n      timestamp\n        /* \"contracts/contracts/work/customer1.sol\":7133:7145  customer_map */\n      0x08\n        /* \"contracts/contracts/work/customer1.sol\":7133:7164  customer_map[_customer_address] */\n      0x00\n        /* \"contracts/contracts/work/customer1.sol\":7146:7163  _customer_address */\n      dup4\n        /* \"contracts/contracts/work/customer1.sol\":7133:7164  customer_map[_customer_address] */\n      0xffffffffffffffffffffffffffffffffffffffff\n      and\n      0xffffffffffffffffffffffffffffffffffffffff\n      and\n      dup2\n      mstore\n      0x20\n      add\n      swap1\n      dup2\n      mstore\n      0x20\n      add\n      0x00\n      keccak256\n        /* \"contracts/contracts/work/customer1.sol\":7133:7172  customer_map[_customer_address].newtime */\n      0x04\n      add\n        /* \"contracts/contracts/work/customer1.sol\":7133:7190  customer_map[_customer_address].newtime = block.timestamp */\n      dup2\n      swap1\n      sstore\n      pop\n        /* \"contracts/contracts/work/customer1.sol\":7201:7216  staking_account */\n      0x07\n      0x00\n      swap1\n      sload\n      swap1\n      0x0100\n      exp\n      swap1\n      div\n      0xffffffffffffffffffffffffffffffffffffffff\n      and\n        /* \"contracts/contracts/work/customer1.sol\":7201:7225  staking_account.transfer */\n      0xffffffffffffffffffffffffffffffffffffffff\n      and\n        /* \"contracts/contracts/work/customer1.sol\":7201:7236  staking_account.transfer(msg.value) */\n      0x08fc\n        /* \"contracts/contracts/work/customer1.sol\":7226:7235  msg.value */\n      callvalue\n        /* \"contracts/contracts/work/customer1.sol\":7201:7236  staking_account.transfer(msg.value) */\n      swap1\n      dup2\n      iszero\n      mul\n      swap1\n      mload(0x40)\n      0x00\n      mload(0x40)\n      dup1\n      dup4\n      sub\n      dup2\n      dup6\n      dup9\n      dup9\n      call\n      swap4\n      pop\n      pop\n      pop\n      pop\n      iszero\n      dup1\n      iszero\n      tag_303\n      jumpi\n      returndatasize\n      0x00\n      dup1\n      returndatacopy\n      revert(0x00, returndatasize)\n    tag_303:\n      pop\n        /* \"contracts/contracts/work/customer1.sol\":6688:7244  function increase_staking_value(address _customer_address) payable public{           //增加質押金額並轉帳(由客戶address使用)... */\n      pop\n      jump\t// out\n        /* \"contracts/contracts/work/customer1.sol\":9319:9580  function get_staking_value(address _address) view public returns(uint){... */\n    tag_107:\n        /* \"contracts/contracts/work/customer1.sol\":9384:9388  uint */\n      0x00\n        /* \"contracts/contracts/work/customer1.sol\":9459:9460  0 */\n      dup1\n        /* \"contracts/contracts/work/customer1.sol\":9408:9461  customer_map[_address].customer_address != address(0) */\n      0xffffffffffffffffffffffffffffffffffffffff\n      and\n        /* \"contracts/contracts/work/customer1.sol\":9408:9420  customer_map */\n      0x08\n        /* \"contracts/contracts/work/customer1.sol\":9408:9430  customer_map[_address] */\n      0x00\n        /* \"contracts/contracts/work/customer1.sol\":9421:9429  _address */\n      dup5\n        /* \"contracts/contracts/work/customer1.sol\":9408:9430  customer_map[_address] */\n      0xffffffffffffffffffffffffffffffffffffffff\n      and\n      0xffffffffffffffffffffffffffffffffffffffff\n      and\n      dup2\n      mstore\n      0x20\n      add\n      swap1\n      dup2\n      mstore\n      0x20\n      add\n      0x00\n      keccak256\n        /* \"contracts/contracts/work/customer1.sol\":9408:9447  customer_map[_address].customer_address */\n      0x00\n      add\n      0x00\n      swap1\n      sload\n      swap1\n      0x0100\n      exp\n      swap1\n      div\n      0xffffffffffffffffffffffffffffffffffffffff\n      and\n        /* \"contracts/contracts/work/customer1.sol\":9408:9461  customer_map[_address].customer_address != address(0) */\n      0xffffffffffffffffffffffffffffffffffffffff\n      and\n      sub\n        /* \"contracts/contracts/work/customer1.sol\":9400:9489  require(customer_map[_address].customer_address != address(0),\"This account isn't exist\") */\n      tag_305\n      jumpi\n      mload(0x40)\n      0x08c379a000000000000000000000000000000000000000000000000000000000\n      dup2\n      mstore\n      0x04\n      add\n      tag_306\n      swap1\n      tag_116\n      jump\t// in\n    tag_306:\n      mload(0x40)\n      dup1\n      swap2\n      sub\n      swap1\n      revert\n    tag_305:\n        /* \"contracts/contracts/work/customer1.sol\":9539:9551  customer_map */\n      0x08\n        /* \"contracts/contracts/work/customer1.sol\":9539:9561  customer_map[_address] */\n      0x00\n        /* \"contracts/contracts/work/customer1.sol\":9552:9560  _address */\n      dup4\n        /* \"contracts/contracts/work/customer1.sol\":9539:9561  customer_map[_address] */\n      0xffffffffffffffffffffffffffffffffffffffff\n      and\n      0xffffffffffffffffffffffffffffffffffffffff\n      and\n      dup2\n      mstore\n      0x20\n      add\n      swap1\n      dup2\n      mstore\n      0x20\n      add\n      0x00\n      keccak256\n        /* \"contracts/contracts/work/customer1.sol\":9539:9571  customer_map[_address].add_value */\n      0x02\n      add\n      sload\n        /* \"contracts/contracts/work/customer1.sol\":9508:9520  customer_map */\n      0x08\n        /* \"contracts/contracts/work/customer1.sol\":9508:9530  customer_map[_address] */\n      0x00\n        /* \"contracts/contracts/work/customer1.sol\":9521:9529  _address */\n      dup5\n        /* \"contracts/contracts/work/customer1.sol\":9508:9530  customer_map[_address] */\n      0xffffffffffffffffffffffffffffffffffffffff\n      and\n      0xffffffffffffffffffffffffffffffffffffffff\n      and\n      dup2\n      mstore\n      0x20\n      add\n      swap1\n      dup2\n      mstore\n      0x20\n      add\n      0x00\n      keccak256\n        /* \"contracts/contracts/work/customer1.sol\":9508:9536  customer_map[_address].value */\n      0x01\n      add\n      sload\n        /* \"contracts/contracts/work/customer1.sol\":9508:9571  customer_map[_address].value + customer_map[_address].add_value */\n      tag_307\n      swap2\n      swap1\n      tag_120\n      jump\t// in\n    tag_307:\n        /* \"contracts/contracts/work/customer1.sol\":9500:9572  return (customer_map[_address].value + customer_map[_address].add_value) */\n      swap1\n      pop\n        /* \"contracts/contracts/work/customer1.sol\":9319:9580  function get_staking_value(address _address) view public returns(uint){... */\n      swap2\n      swap1\n      pop\n      jump\t// out\n    tag_180:\n      mload(0x40)\n      dup1\n      0xc0\n      add\n      0x40\n      mstore\n      dup1\n      and(0xffffffffffffffffffffffffffffffffffffffff, 0x00)\n      dup2\n      mstore\n      0x20\n      add\n      0x00\n      dup2\n      mstore\n      0x20\n      add\n      0x00\n      dup2\n      mstore\n      0x20\n      add\n      0x00\n      dup2\n      mstore\n      0x20\n      add\n      0x00\n      dup2\n      mstore\n      0x20\n      add\n      0x00\n      dup2\n      mstore\n      pop\n      swap1\n      jump\t// out\n        /* \"#utility.yul\":88:205   */\n    tag_309:\n        /* \"#utility.yul\":197:198   */\n      0x00\n        /* \"#utility.yul\":194:195   */\n      dup1\n        /* \"#utility.yul\":187:199   */\n      revert\n        /* \"#utility.yul\":334:460   */\n    tag_311:\n        /* \"#utility.yul\":371:378   */\n      0x00\n        /* \"#utility.yul\":411:453   */\n      0xffffffffffffffffffffffffffffffffffffffff\n        /* \"#utility.yul\":404:409   */\n      dup3\n        /* \"#utility.yul\":400:454   */\n      and\n        /* \"#utility.yul\":389:454   */\n      swap1\n      pop\n        /* \"#utility.yul\":334:460   */\n      swap2\n      swap1\n      pop\n      jump\t// out\n        /* \"#utility.yul\":466:562   */\n    tag_312:\n        /* \"#utility.yul\":503:510   */\n      0x00\n        /* \"#utility.yul\":532:556   */\n      tag_356\n        /* \"#utility.yul\":550:555   */\n      dup3\n        /* \"#utility.yul\":532:556   */\n      tag_311\n      jump\t// in\n    tag_356:\n        /* \"#utility.yul\":521:556   */\n      swap1\n      pop\n        /* \"#utility.yul\":466:562   */\n      swap2\n      swap1\n      pop\n      jump\t// out\n        /* \"#utility.yul\":568:690   */\n    tag_313:\n        /* \"#utility.yul\":641:665   */\n      tag_358\n        /* \"#utility.yul\":659:664   */\n      dup2\n        /* \"#utility.yul\":641:665   */\n      tag_312\n      jump\t// in\n    tag_358:\n        /* \"#utility.yul\":634:639   */\n      dup2\n        /* \"#utility.yul\":631:666   */\n      eq\n        /* \"#utility.yul\":621:684   */\n      tag_359\n      jumpi\n        /* \"#utility.yul\":680:681   */\n      0x00\n        /* \"#utility.yul\":677:678   */\n      dup1\n        /* \"#utility.yul\":670:682   */\n      revert\n        /* \"#utility.yul\":621:684   */\n    tag_359:\n        /* \"#utility.yul\":568:690   */\n      pop\n      jump\t// out\n        /* \"#utility.yul\":696:835   */\n    tag_314:\n        /* \"#utility.yul\":742:747   */\n      0x00\n        /* \"#utility.yul\":780:786   */\n      dup2\n        /* \"#utility.yul\":767:787   */\n      calldataload\n        /* \"#utility.yul\":758:787   */\n      swap1\n      pop\n        /* \"#utility.yul\":796:829   */\n      tag_361\n        /* \"#utility.yul\":823:828   */\n      dup2\n        /* \"#utility.yul\":796:829   */\n      tag_313\n      jump\t// in\n    tag_361:\n        /* \"#utility.yul\":696:835   */\n      swap3\n      swap2\n      pop\n      pop\n      jump\t// out\n        /* \"#utility.yul\":841:918   */\n    tag_315:\n        /* \"#utility.yul\":878:885   */\n      0x00\n        /* \"#utility.yul\":907:912   */\n      dup2\n        /* \"#utility.yul\":896:912   */\n      swap1\n      pop\n        /* \"#utility.yul\":841:918   */\n      swap2\n      swap1\n      pop\n      jump\t// out\n        /* \"#utility.yul\":924:1046   */\n    tag_316:\n        /* \"#utility.yul\":997:1021   */\n      tag_364\n        /* \"#utility.yul\":1015:1020   */\n      dup2\n        /* \"#utility.yul\":997:1021   */\n      tag_315\n      jump\t// in\n    tag_364:\n        /* \"#utility.yul\":990:995   */\n      dup2\n        /* \"#utility.yul\":987:1022   */\n      eq\n        /* \"#utility.yul\":977:1040   */\n      tag_365\n      jumpi\n        /* \"#utility.yul\":1036:1037   */\n      0x00\n        /* \"#utility.yul\":1033:1034   */\n      dup1\n        /* \"#utility.yul\":1026:1038   */\n      revert\n        /* \"#utility.yul\":977:1040   */\n    tag_365:\n        /* \"#utility.yul\":924:1046   */\n      pop\n      jump\t// out\n        /* \"#utility.yul\":1052:1191   */\n    tag_317:\n        /* \"#utility.yul\":1098:1103   */\n      0x00\n        /* \"#utility.yul\":1136:1142   */\n      dup2\n        /* \"#utility.yul\":1123:1143   */\n      calldataload\n        /* \"#utility.yul\":1114:1143   */\n      swap1\n      pop\n        /* \"#utility.yul\":1152:1185   */\n      tag_367\n        /* \"#utility.yul\":1179:1184   */\n      dup2\n        /* \"#utility.yul\":1152:1185   */\n      tag_316\n      jump\t// in\n    tag_367:\n        /* \"#utility.yul\":1052:1191   */\n      swap3\n      swap2\n      pop\n      pop\n      jump\t// out\n        /* \"#utility.yul\":1197:1671   */\n    tag_28:\n        /* \"#utility.yul\":1265:1271   */\n      0x00\n        /* \"#utility.yul\":1273:1279   */\n      dup1\n        /* \"#utility.yul\":1322:1324   */\n      0x40\n        /* \"#utility.yul\":1310:1319   */\n      dup4\n        /* \"#utility.yul\":1301:1308   */\n      dup6\n        /* \"#utility.yul\":1297:1320   */\n      sub\n        /* \"#utility.yul\":1293:1325   */\n      slt\n        /* \"#utility.yul\":1290:1409   */\n      iszero\n      tag_369\n      jumpi\n        /* \"#utility.yul\":1328:1407   */\n      tag_370\n      tag_309\n      jump\t// in\n    tag_370:\n        /* \"#utility.yul\":1290:1409   */\n    tag_369:\n        /* \"#utility.yul\":1448:1449   */\n      0x00\n        /* \"#utility.yul\":1473:1526   */\n      tag_371\n        /* \"#utility.yul\":1518:1525   */\n      dup6\n        /* \"#utility.yul\":1509:1515   */\n      dup3\n        /* \"#utility.yul\":1498:1507   */\n      dup7\n        /* \"#utility.yul\":1494:1516   */\n      add\n        /* \"#utility.yul\":1473:1526   */\n      tag_314\n      jump\t// in\n    tag_371:\n        /* \"#utility.yul\":1463:1526   */\n      swap3\n      pop\n        /* \"#utility.yul\":1419:1536   */\n      pop\n        /* \"#utility.yul\":1575:1577   */\n      0x20\n        /* \"#utility.yul\":1601:1654   */\n      tag_372\n        /* \"#utility.yul\":1646:1653   */\n      dup6\n        /* \"#utility.yul\":1637:1643   */\n      dup3\n        /* \"#utility.yul\":1626:1635   */\n      dup7\n        /* \"#utility.yul\":1622:1644   */\n      add\n        /* \"#utility.yul\":1601:1654   */\n      tag_317\n      jump\t// in\n    tag_372:\n        /* \"#utility.yul\":1591:1654   */\n      swap2\n      pop\n        /* \"#utility.yul\":1546:1664   */\n      pop\n        /* \"#utility.yul\":1197:1671   */\n      swap3\n      pop\n      swap3\n      swap1\n      pop\n      jump\t// out\n        /* \"#utility.yul\":1677:2006   */\n    tag_39:\n        /* \"#utility.yul\":1736:1742   */\n      0x00\n        /* \"#utility.yul\":1785:1787   */\n      0x20\n        /* \"#utility.yul\":1773:1782   */\n      dup3\n        /* \"#utility.yul\":1764:1771   */\n      dup5\n        /* \"#utility.yul\":1760:1783   */\n      sub\n        /* \"#utility.yul\":1756:1788   */\n      slt\n        /* \"#utility.yul\":1753:1872   */\n      iszero\n      tag_374\n      jumpi\n        /* \"#utility.yul\":1791:1870   */\n      tag_375\n      tag_309\n      jump\t// in\n    tag_375:\n        /* \"#utility.yul\":1753:1872   */\n    tag_374:\n        /* \"#utility.yul\":1911:1912   */\n      0x00\n        /* \"#utility.yul\":1936:1989   */\n      tag_376\n        /* \"#utility.yul\":1981:1988   */\n      dup5\n        /* \"#utility.yul\":1972:1978   */\n      dup3\n        /* \"#utility.yul\":1961:1970   */\n      dup6\n        /* \"#utility.yul\":1957:1979   */\n      add\n        /* \"#utility.yul\":1936:1989   */\n      tag_314\n      jump\t// in\n    tag_376:\n        /* \"#utility.yul\":1926:1989   */\n      swap2\n      pop\n        /* \"#utility.yul\":1882:1999   */\n      pop\n        /* \"#utility.yul\":1677:2006   */\n      swap3\n      swap2\n      pop\n      pop\n      jump\t// out\n        /* \"#utility.yul\":2012:2120   */\n    tag_318:\n        /* \"#utility.yul\":2089:2113   */\n      tag_378\n        /* \"#utility.yul\":2107:2112   */\n      dup2\n        /* \"#utility.yul\":2089:2113   */\n      tag_312\n      jump\t// in\n    tag_378:\n        /* \"#utility.yul\":2084:2087   */\n      dup3\n        /* \"#utility.yul\":2077:2114   */\n      mstore\n        /* \"#utility.yul\":2012:2120   */\n      pop\n      pop\n      jump\t// out\n        /* \"#utility.yul\":2126:2234   */\n    tag_319:\n        /* \"#utility.yul\":2203:2227   */\n      tag_380\n        /* \"#utility.yul\":2221:2226   */\n      dup2\n        /* \"#utility.yul\":2203:2227   */\n      tag_315\n      jump\t// in\n    tag_380:\n        /* \"#utility.yul\":2198:2201   */\n      dup3\n        /* \"#utility.yul\":2191:2228   */\n      mstore\n        /* \"#utility.yul\":2126:2234   */\n      pop\n      pop\n      jump\t// out\n        /* \"#utility.yul\":2300:3522   */\n    tag_320:\n        /* \"#utility.yul\":2447:2451   */\n      0xc0\n        /* \"#utility.yul\":2442:2445   */\n      dup3\n        /* \"#utility.yul\":2438:2452   */\n      add\n        /* \"#utility.yul\":2546:2550   */\n      0x00\n        /* \"#utility.yul\":2539:2544   */\n      dup3\n        /* \"#utility.yul\":2535:2551   */\n      add\n        /* \"#utility.yul\":2529:2552   */\n      mload\n        /* \"#utility.yul\":2565:2628   */\n      tag_382\n        /* \"#utility.yul\":2622:2626   */\n      0x00\n        /* \"#utility.yul\":2617:2620   */\n      dup6\n        /* \"#utility.yul\":2613:2627   */\n      add\n        /* \"#utility.yul\":2599:2611   */\n      dup3\n        /* \"#utility.yul\":2565:2628   */\n      tag_318\n      jump\t// in\n    tag_382:\n        /* \"#utility.yul\":2462:2638   */\n      pop\n        /* \"#utility.yul\":2721:2725   */\n      0x20\n        /* \"#utility.yul\":2714:2719   */\n      dup3\n        /* \"#utility.yul\":2710:2726   */\n      add\n        /* \"#utility.yul\":2704:2727   */\n      mload\n        /* \"#utility.yul\":2740:2803   */\n      tag_383\n        /* \"#utility.yul\":2797:2801   */\n      0x20\n        /* \"#utility.yul\":2792:2795   */\n      dup6\n        /* \"#utility.yul\":2788:2802   */\n      add\n        /* \"#utility.yul\":2774:2786   */\n      dup3\n        /* \"#utility.yul\":2740:2803   */\n      tag_319\n      jump\t// in\n    tag_383:\n        /* \"#utility.yul\":2648:2813   */\n      pop\n        /* \"#utility.yul\":2900:2904   */\n      0x40\n        /* \"#utility.yul\":2893:2898   */\n      dup3\n        /* \"#utility.yul\":2889:2905   */\n      add\n        /* \"#utility.yul\":2883:2906   */\n      mload\n        /* \"#utility.yul\":2919:2982   */\n      tag_384\n        /* \"#utility.yul\":2976:2980   */\n      0x40\n        /* \"#utility.yul\":2971:2974   */\n      dup6\n        /* \"#utility.yul\":2967:2981   */\n      add\n        /* \"#utility.yul\":2953:2965   */\n      dup3\n        /* \"#utility.yul\":2919:2982   */\n      tag_319\n      jump\t// in\n    tag_384:\n        /* \"#utility.yul\":2823:2992   */\n      pop\n        /* \"#utility.yul\":3074:3078   */\n      0x60\n        /* \"#utility.yul\":3067:3072   */\n      dup3\n        /* \"#utility.yul\":3063:3079   */\n      add\n        /* \"#utility.yul\":3057:3080   */\n      mload\n        /* \"#utility.yul\":3093:3156   */\n      tag_385\n        /* \"#utility.yul\":3150:3154   */\n      0x60\n        /* \"#utility.yul\":3145:3148   */\n      dup6\n        /* \"#utility.yul\":3141:3155   */\n      add\n        /* \"#utility.yul\":3127:3139   */\n      dup3\n        /* \"#utility.yul\":3093:3156   */\n      tag_319\n      jump\t// in\n    tag_385:\n        /* \"#utility.yul\":3002:3166   */\n      pop\n        /* \"#utility.yul\":3251:3255   */\n      0x80\n        /* \"#utility.yul\":3244:3249   */\n      dup3\n        /* \"#utility.yul\":3240:3256   */\n      add\n        /* \"#utility.yul\":3234:3257   */\n      mload\n        /* \"#utility.yul\":3270:3333   */\n      tag_386\n        /* \"#utility.yul\":3327:3331   */\n      0x80\n        /* \"#utility.yul\":3322:3325   */\n      dup6\n        /* \"#utility.yul\":3318:3332   */\n      add\n        /* \"#utility.yul\":3304:3316   */\n      dup3\n        /* \"#utility.yul\":3270:3333   */\n      tag_319\n      jump\t// in\n    tag_386:\n        /* \"#utility.yul\":3176:3343   */\n      pop\n        /* \"#utility.yul\":3423:3427   */\n      0xa0\n        /* \"#utility.yul\":3416:3421   */\n      dup3\n        /* \"#utility.yul\":3412:3428   */\n      add\n        /* \"#utility.yul\":3406:3429   */\n      mload\n        /* \"#utility.yul\":3442:3505   */\n      tag_387\n        /* \"#utility.yul\":3499:3503   */\n      0xa0\n        /* \"#utility.yul\":3494:3497   */\n      dup6\n        /* \"#utility.yul\":3490:3504   */\n      add\n        /* \"#utility.yul\":3476:3488   */\n      dup3\n        /* \"#utility.yul\":3442:3505   */\n      tag_319\n      jump\t// in\n    tag_387:\n        /* \"#utility.yul\":3353:3515   */\n      pop\n        /* \"#utility.yul\":2416:3522   */\n      pop\n        /* \"#utility.yul\":2300:3522   */\n      pop\n      pop\n      jump\t// out\n        /* \"#utility.yul\":3528:3851   */\n    tag_46:\n        /* \"#utility.yul\":3671:3675   */\n      0x00\n        /* \"#utility.yul\":3709:3712   */\n      0xc0\n        /* \"#utility.yul\":3698:3707   */\n      dup3\n        /* \"#utility.yul\":3694:3713   */\n      add\n        /* \"#utility.yul\":3686:3713   */\n      swap1\n      pop\n        /* \"#utility.yul\":3723:3844   */\n      tag_389\n        /* \"#utility.yul\":3841:3842   */\n      0x00\n        /* \"#utility.yul\":3830:3839   */\n      dup4\n        /* \"#utility.yul\":3826:3843   */\n      add\n        /* \"#utility.yul\":3817:3823   */\n      dup5\n        /* \"#utility.yul\":3723:3844   */\n      tag_320\n      jump\t// in\n    tag_389:\n        /* \"#utility.yul\":3528:3851   */\n      swap3\n      swap2\n      pop\n      pop\n      jump\t// out\n        /* \"#utility.yul\":3857:3961   */\n    tag_321:\n        /* \"#utility.yul\":3902:3909   */\n      0x00\n        /* \"#utility.yul\":3931:3955   */\n      tag_391\n        /* \"#utility.yul\":3949:3954   */\n      dup3\n        /* \"#utility.yul\":3931:3955   */\n      tag_311\n      jump\t// in\n    tag_391:\n        /* \"#utility.yul\":3920:3955   */\n      swap1\n      pop\n        /* \"#utility.yul\":3857:3961   */\n      swap2\n      swap1\n      pop\n      jump\t// out\n        /* \"#utility.yul\":3967:4105   */\n    tag_322:\n        /* \"#utility.yul\":4048:4080   */\n      tag_393\n        /* \"#utility.yul\":4074:4079   */\n      dup2\n        /* \"#utility.yul\":4048:4080   */\n      tag_321\n      jump\t// in\n    tag_393:\n        /* \"#utility.yul\":4041:4046   */\n      dup2\n        /* \"#utility.yul\":4038:4081   */\n      eq\n        /* \"#utility.yul\":4028:4099   */\n      tag_394\n      jumpi\n        /* \"#utility.yul\":4095:4096   */\n      0x00\n        /* \"#utility.yul\":4092:4093   */\n      dup1\n        /* \"#utility.yul\":4085:4097   */\n      revert\n        /* \"#utility.yul\":4028:4099   */\n    tag_394:\n        /* \"#utility.yul\":3967:4105   */\n      pop\n      jump\t// out\n        /* \"#utility.yul\":4111:4266   */\n    tag_323:\n        /* \"#utility.yul\":4165:4170   */\n      0x00\n        /* \"#utility.yul\":4203:4209   */\n      dup2\n        /* \"#utility.yul\":4190:4210   */\n      calldataload\n        /* \"#utility.yul\":4181:4210   */\n      swap1\n      pop\n        /* \"#utility.yul\":4219:4260   */\n      tag_396\n        /* \"#utility.yul\":4254:4259   */\n      dup2\n        /* \"#utility.yul\":4219:4260   */\n      tag_322\n      jump\t// in\n    tag_396:\n        /* \"#utility.yul\":4111:4266   */\n      swap3\n      swap2\n      pop\n      pop\n      jump\t// out\n        /* \"#utility.yul\":4272:4617   */\n    tag_50:\n        /* \"#utility.yul\":4339:4345   */\n      0x00\n        /* \"#utility.yul\":4388:4390   */\n      0x20\n        /* \"#utility.yul\":4376:4385   */\n      dup3\n        /* \"#utility.yul\":4367:4374   */\n      dup5\n        /* \"#utility.yul\":4363:4386   */\n      sub\n        /* \"#utility.yul\":4359:4391   */\n      slt\n        /* \"#utility.yul\":4356:4475   */\n      iszero\n      tag_398\n      jumpi\n        /* \"#utility.yul\":4394:4473   */\n      tag_399\n      tag_309\n      jump\t// in\n    tag_399:\n        /* \"#utility.yul\":4356:4475   */\n    tag_398:\n        /* \"#utility.yul\":4514:4515   */\n      0x00\n        /* \"#utility.yul\":4539:4600   */\n      tag_400\n        /* \"#utility.yul\":4592:4599   */\n      dup5\n        /* \"#utility.yul\":4583:4589   */\n      dup3\n        /* \"#utility.yul\":4572:4581   */\n      dup6\n        /* \"#utility.yul\":4568:4590   */\n      add\n        /* \"#utility.yul\":4539:4600   */\n      tag_323\n      jump\t// in\n    tag_400:\n        /* \"#utility.yul\":4529:4600   */\n      swap2\n      pop\n        /* \"#utility.yul\":4485:4610   */\n      pop\n        /* \"#utility.yul\":4272:4617   */\n      swap3\n      swap2\n      pop\n      pop\n      jump\t// out\n        /* \"#utility.yul\":4623:4741   */\n    tag_324:\n        /* \"#utility.yul\":4710:4734   */\n      tag_402\n        /* \"#utility.yul\":4728:4733   */\n      dup2\n        /* \"#utility.yul\":4710:4734   */\n      tag_315\n      jump\t// in\n    tag_402:\n        /* \"#utility.yul\":4705:4708   */\n      dup3\n        /* \"#utility.yul\":4698:4735   */\n      mstore\n        /* \"#utility.yul\":4623:4741   */\n      pop\n      pop\n      jump\t// out\n        /* \"#utility.yul\":4747:4969   */\n    tag_71:\n        /* \"#utility.yul\":4840:4844   */\n      0x00\n        /* \"#utility.yul\":4878:4880   */\n      0x20\n        /* \"#utility.yul\":4867:4876   */\n      dup3\n        /* \"#utility.yul\":4863:4881   */\n      add\n        /* \"#utility.yul\":4855:4881   */\n      swap1\n      pop\n        /* \"#utility.yul\":4891:4962   */\n      tag_404\n        /* \"#utility.yul\":4959:4960   */\n      0x00\n        /* \"#utility.yul\":4948:4957   */\n      dup4\n        /* \"#utility.yul\":4944:4961   */\n      add\n        /* \"#utility.yul\":4935:4941   */\n      dup5\n        /* \"#utility.yul\":4891:4962   */\n      tag_324\n      jump\t// in\n    tag_404:\n        /* \"#utility.yul\":4747:4969   */\n      swap3\n      swap2\n      pop\n      pop\n      jump\t// out\n        /* \"#utility.yul\":4975:5093   */\n    tag_325:\n        /* \"#utility.yul\":5062:5086   */\n      tag_406\n        /* \"#utility.yul\":5080:5085   */\n      dup2\n        /* \"#utility.yul\":5062:5086   */\n      tag_312\n      jump\t// in\n    tag_406:\n        /* \"#utility.yul\":5057:5060   */\n      dup3\n        /* \"#utility.yul\":5050:5087   */\n      mstore\n        /* \"#utility.yul\":4975:5093   */\n      pop\n      pop\n      jump\t// out\n        /* \"#utility.yul\":5099:5321   */\n    tag_77:\n        /* \"#utility.yul\":5192:5196   */\n      0x00\n        /* \"#utility.yul\":5230:5232   */\n      0x20\n        /* \"#utility.yul\":5219:5228   */\n      dup3\n        /* \"#utility.yul\":5215:5233   */\n      add\n        /* \"#utility.yul\":5207:5233   */\n      swap1\n      pop\n        /* \"#utility.yul\":5243:5314   */\n      tag_408\n        /* \"#utility.yul\":5311:5312   */\n      0x00\n        /* \"#utility.yul\":5300:5309   */\n      dup4\n        /* \"#utility.yul\":5296:5313   */\n      add\n        /* \"#utility.yul\":5287:5293   */\n      dup5\n        /* \"#utility.yul\":5243:5314   */\n      tag_325\n      jump\t// in\n    tag_408:\n        /* \"#utility.yul\":5099:5321   */\n      swap3\n      swap2\n      pop\n      pop\n      jump\t// out\n        /* \"#utility.yul\":5327:5496   */\n    tag_326:\n        /* \"#utility.yul\":5411:5422   */\n      0x00\n        /* \"#utility.yul\":5445:5451   */\n      dup3\n        /* \"#utility.yul\":5440:5443   */\n      dup3\n        /* \"#utility.yul\":5433:5452   */\n      mstore\n        /* \"#utility.yul\":5485:5489   */\n      0x20\n        /* \"#utility.yul\":5480:5483   */\n      dup3\n        /* \"#utility.yul\":5476:5490   */\n      add\n        /* \"#utility.yul\":5461:5490   */\n      swap1\n      pop\n        /* \"#utility.yul\":5327:5496   */\n      swap3\n      swap2\n      pop\n      pop\n      jump\t// out\n        /* \"#utility.yul\":5502:5723   */\n    tag_327:\n        /* \"#utility.yul\":5642:5676   */\n      0x546869732061646472657373206973206e6f7420636f6e7472616374204f776e\n        /* \"#utility.yul\":5638:5639   */\n      0x00\n        /* \"#utility.yul\":5630:5636   */\n      dup3\n        /* \"#utility.yul\":5626:5640   */\n      add\n        /* \"#utility.yul\":5619:5677   */\n      mstore\n        /* \"#utility.yul\":5711:5715   */\n      0x6572000000000000000000000000000000000000000000000000000000000000\n        /* \"#utility.yul\":5706:5708   */\n      0x20\n        /* \"#utility.yul\":5698:5704   */\n      dup3\n        /* \"#utility.yul\":5694:5709   */\n      add\n        /* \"#utility.yul\":5687:5716   */\n      mstore\n        /* \"#utility.yul\":5502:5723   */\n      pop\n      jump\t// out\n        /* \"#utility.yul\":5729:6095   */\n    tag_328:\n        /* \"#utility.yul\":5871:5874   */\n      0x00\n        /* \"#utility.yul\":5892:5959   */\n      tag_412\n        /* \"#utility.yul\":5956:5958   */\n      0x22\n        /* \"#utility.yul\":5951:5954   */\n      dup4\n        /* \"#utility.yul\":5892:5959   */\n      tag_326\n      jump\t// in\n    tag_412:\n        /* \"#utility.yul\":5885:5959   */\n      swap2\n      pop\n        /* \"#utility.yul\":5968:6061   */\n      tag_413\n        /* \"#utility.yul\":6057:6060   */\n      dup3\n        /* \"#utility.yul\":5968:6061   */\n      tag_327\n      jump\t// in\n    tag_413:\n        /* \"#utility.yul\":6086:6088   */\n      0x40\n        /* \"#utility.yul\":6081:6084   */\n      dup3\n        /* \"#utility.yul\":6077:6089   */\n      add\n        /* \"#utility.yul\":6070:6089   */\n      swap1\n      pop\n        /* \"#utility.yul\":5729:6095   */\n      swap2\n      swap1\n      pop\n      jump\t// out\n        /* \"#utility.yul\":6101:6520   */\n    tag_112:\n        /* \"#utility.yul\":6267:6271   */\n      0x00\n        /* \"#utility.yul\":6305:6307   */\n      0x20\n        /* \"#utility.yul\":6294:6303   */\n      dup3\n        /* \"#utility.yul\":6290:6308   */\n      add\n        /* \"#utility.yul\":6282:6308   */\n      swap1\n      pop\n        /* \"#utility.yul\":6354:6363   */\n      dup2\n        /* \"#utility.yul\":6348:6352   */\n      dup2\n        /* \"#utility.yul\":6344:6364   */\n      sub\n        /* \"#utility.yul\":6340:6341   */\n      0x00\n        /* \"#utility.yul\":6329:6338   */\n      dup4\n        /* \"#utility.yul\":6325:6342   */\n      add\n        /* \"#utility.yul\":6318:6365   */\n      mstore\n        /* \"#utility.yul\":6382:6513   */\n      tag_415\n        /* \"#utility.yul\":6508:6512   */\n      dup2\n        /* \"#utility.yul\":6382:6513   */\n      tag_328\n      jump\t// in\n    tag_415:\n        /* \"#utility.yul\":6374:6513   */\n      swap1\n      pop\n        /* \"#utility.yul\":6101:6520   */\n      swap2\n      swap1\n      pop\n      jump\t// out\n        /* \"#utility.yul\":6526:6700   */\n    tag_329:\n        /* \"#utility.yul\":6666:6692   */\n      0x54686973206163636f756e742069736e27742065786973740000000000000000\n        /* \"#utility.yul\":6662:6663   */\n      0x00\n        /* \"#utility.yul\":6654:6660   */\n      dup3\n        /* \"#utility.yul\":6650:6664   */\n      add\n        /* \"#utility.yul\":6643:6693   */\n      mstore\n        /* \"#utility.yul\":6526:6700   */\n      pop\n      jump\t// out\n        /* \"#utility.yul\":6706:7072   */\n    tag_330:\n        /* \"#utility.yul\":6848:6851   */\n      0x00\n        /* \"#utility.yul\":6869:6936   */\n      tag_418\n        /* \"#utility.yul\":6933:6935   */\n      0x18\n        /* \"#utility.yul\":6928:6931   */\n      dup4\n        /* \"#utility.yul\":6869:6936   */\n      tag_326\n      jump\t// in\n    tag_418:\n        /* \"#utility.yul\":6862:6936   */\n      swap2\n      pop\n        /* \"#utility.yul\":6945:7038   */\n      tag_419\n        /* \"#utility.yul\":7034:7037   */\n      dup3\n        /* \"#utility.yul\":6945:7038   */\n      tag_329\n      jump\t// in\n    tag_419:\n        /* \"#utility.yul\":7063:7065   */\n      0x20\n        /* \"#utility.yul\":7058:7061   */\n      dup3\n        /* \"#utility.yul\":7054:7066   */\n      add\n        /* \"#utility.yul\":7047:7066   */\n      swap1\n      pop\n        /* \"#utility.yul\":6706:7072   */\n      swap2\n      swap1\n      pop\n      jump\t// out\n        /* \"#utility.yul\":7078:7497   */\n    tag_116:\n        /* \"#utility.yul\":7244:7248   */\n      0x00\n        /* \"#utility.yul\":7282:7284   */\n      0x20\n        /* \"#utility.yul\":7271:7280   */\n      dup3\n        /* \"#utility.yul\":7267:7285   */\n      add\n        /* \"#utility.yul\":7259:7285   */\n      swap1\n      pop\n        /* \"#utility.yul\":7331:7340   */\n      dup2\n        /* \"#utility.yul\":7325:7329   */\n      dup2\n        /* \"#utility.yul\":7321:7341   */\n      sub\n        /* \"#utility.yul\":7317:7318   */\n      0x00\n        /* \"#utility.yul\":7306:7315   */\n      dup4\n        /* \"#utility.yul\":7302:7319   */\n      add\n        /* \"#utility.yul\":7295:7342   */\n      mstore\n        /* \"#utility.yul\":7359:7490   */\n      tag_421\n        /* \"#utility.yul\":7485:7489   */\n      dup2\n        /* \"#utility.yul\":7359:7490   */\n      tag_330\n      jump\t// in\n    tag_421:\n        /* \"#utility.yul\":7351:7490   */\n      swap1\n      pop\n        /* \"#utility.yul\":7078:7497   */\n      swap2\n      swap1\n      pop\n      jump\t// out\n        /* \"#utility.yul\":7503:7683   */\n    tag_331:\n        /* \"#utility.yul\":7551:7628   */\n      0x4e487b7100000000000000000000000000000000000000000000000000000000\n        /* \"#utility.yul\":7548:7549   */\n      0x00\n        /* \"#utility.yul\":7541:7629   */\n      mstore\n        /* \"#utility.yul\":7648:7652   */\n      0x11\n        /* \"#utility.yul\":7645:7646   */\n      0x04\n        /* \"#utility.yul\":7638:7653   */\n      mstore\n        /* \"#utility.yul\":7672:7676   */\n      0x24\n        /* \"#utility.yul\":7669:7670   */\n      0x00\n        /* \"#utility.yul\":7662:7677   */\n      revert\n        /* \"#utility.yul\":7689:8099   */\n    tag_118:\n        /* \"#utility.yul\":7729:7736   */\n      0x00\n        /* \"#utility.yul\":7752:7772   */\n      tag_424\n        /* \"#utility.yul\":7770:7771   */\n      dup3\n        /* \"#utility.yul\":7752:7772   */\n      tag_315\n      jump\t// in\n    tag_424:\n        /* \"#utility.yul\":7747:7772   */\n      swap2\n      pop\n        /* \"#utility.yul\":7786:7806   */\n      tag_425\n        /* \"#utility.yul\":7804:7805   */\n      dup4\n        /* \"#utility.yul\":7786:7806   */\n      tag_315\n      jump\t// in\n    tag_425:\n        /* \"#utility.yul\":7781:7806   */\n      swap3\n      pop\n        /* \"#utility.yul\":7841:7842   */\n      dup3\n        /* \"#utility.yul\":7838:7839   */\n      dup3\n        /* \"#utility.yul\":7834:7843   */\n      mul\n        /* \"#utility.yul\":7863:7893   */\n      tag_426\n        /* \"#utility.yul\":7881:7892   */\n      dup2\n        /* \"#utility.yul\":7863:7893   */\n      tag_315\n      jump\t// in\n    tag_426:\n        /* \"#utility.yul\":7852:7893   */\n      swap2\n      pop\n        /* \"#utility.yul\":8042:8043   */\n      dup3\n        /* \"#utility.yul\":8033:8040   */\n      dup3\n        /* \"#utility.yul\":8029:8044   */\n      div\n        /* \"#utility.yul\":8026:8027   */\n      dup5\n        /* \"#utility.yul\":8023:8045   */\n      eq\n        /* \"#utility.yul\":8003:8004   */\n      dup4\n        /* \"#utility.yul\":7996:8005   */\n      iszero\n        /* \"#utility.yul\":7976:8059   */\n      or\n        /* \"#utility.yul\":7953:8092   */\n      tag_427\n      jumpi\n        /* \"#utility.yul\":8072:8090   */\n      tag_428\n      tag_331\n      jump\t// in\n    tag_428:\n        /* \"#utility.yul\":7953:8092   */\n    tag_427:\n        /* \"#utility.yul\":7737:8099   */\n      pop\n        /* \"#utility.yul\":7689:8099   */\n      swap3\n      swap2\n      pop\n      pop\n      jump\t// out\n        /* \"#utility.yul\":8105:8296   */\n    tag_120:\n        /* \"#utility.yul\":8145:8148   */\n      0x00\n        /* \"#utility.yul\":8164:8184   */\n      tag_430\n        /* \"#utility.yul\":8182:8183   */\n      dup3\n        /* \"#utility.yul\":8164:8184   */\n      tag_315\n      jump\t// in\n    tag_430:\n        /* \"#utility.yul\":8159:8184   */\n      swap2\n      pop\n        /* \"#utility.yul\":8198:8218   */\n      tag_431\n        /* \"#utility.yul\":8216:8217   */\n      dup4\n        /* \"#utility.yul\":8198:8218   */\n      tag_315\n      jump\t// in\n    tag_431:\n        /* \"#utility.yul\":8193:8218   */\n      swap3\n      pop\n        /* \"#utility.yul\":8241:8242   */\n      dup3\n        /* \"#utility.yul\":8238:8239   */\n      dup3\n        /* \"#utility.yul\":8234:8243   */\n      add\n        /* \"#utility.yul\":8227:8243   */\n      swap1\n      pop\n        /* \"#utility.yul\":8262:8265   */\n      dup1\n        /* \"#utility.yul\":8259:8260   */\n      dup3\n        /* \"#utility.yul\":8256:8266   */\n      gt\n        /* \"#utility.yul\":8253:8289   */\n      iszero\n      tag_432\n      jumpi\n        /* \"#utility.yul\":8269:8287   */\n      tag_433\n      tag_331\n      jump\t// in\n    tag_433:\n        /* \"#utility.yul\":8253:8289   */\n    tag_432:\n        /* \"#utility.yul\":8105:8296   */\n      swap3\n      swap2\n      pop\n      pop\n      jump\t// out\n        /* \"#utility.yul\":8302:8470   */\n    tag_332:\n        /* \"#utility.yul\":8442:8462   */\n      0x596f7520646f6e27742067697665204554480000000000000000000000000000\n        /* \"#utility.yul\":8438:8439   */\n      0x00\n        /* \"#utility.yul\":8430:8436   */\n      dup3\n        /* \"#utility.yul\":8426:8440   */\n      add\n        /* \"#utility.yul\":8419:8463   */\n      mstore\n        /* \"#utility.yul\":8302:8470   */\n      pop\n      jump\t// out\n        /* \"#utility.yul\":8476:8842   */\n    tag_333:\n        /* \"#utility.yul\":8618:8621   */\n      0x00\n        /* \"#utility.yul\":8639:8706   */\n      tag_436\n        /* \"#utility.yul\":8703:8705   */\n      0x12\n        /* \"#utility.yul\":8698:8701   */\n      dup4\n        /* \"#utility.yul\":8639:8706   */\n      tag_326\n      jump\t// in\n    tag_436:\n        /* \"#utility.yul\":8632:8706   */\n      swap2\n      pop\n        /* \"#utility.yul\":8715:8808   */\n      tag_437\n        /* \"#utility.yul\":8804:8807   */\n      dup3\n        /* \"#utility.yul\":8715:8808   */\n      tag_332\n      jump\t// in\n    tag_437:\n        /* \"#utility.yul\":8833:8835   */\n      0x20\n        /* \"#utility.yul\":8828:8831   */\n      dup3\n        /* \"#utility.yul\":8824:8836   */\n      add\n        /* \"#utility.yul\":8817:8836   */\n      swap1\n      pop\n        /* \"#utility.yul\":8476:8842   */\n      swap2\n      swap1\n      pop\n      jump\t// out\n        /* \"#utility.yul\":8848:9267   */\n    tag_133:\n        /* \"#utility.yul\":9014:9018   */\n      0x00\n        /* \"#utility.yul\":9052:9054   */\n      0x20\n        /* \"#utility.yul\":9041:9050   */\n      dup3\n        /* \"#utility.yul\":9037:9055   */\n      add\n        /* \"#utility.yul\":9029:9055   */\n      swap1\n      pop\n        /* \"#utility.yul\":9101:9110   */\n      dup2\n        /* \"#utility.yul\":9095:9099   */\n      dup2\n        /* \"#utility.yul\":9091:9111   */\n      sub\n        /* \"#utility.yul\":9087:9088   */\n      0x00\n        /* \"#utility.yul\":9076:9085   */\n      dup4\n        /* \"#utility.yul\":9072:9089   */\n      add\n        /* \"#utility.yul\":9065:9112   */\n      mstore\n        /* \"#utility.yul\":9129:9260   */\n      tag_439\n        /* \"#utility.yul\":9255:9259   */\n      dup2\n        /* \"#utility.yul\":9129:9260   */\n      tag_333\n      jump\t// in\n    tag_439:\n        /* \"#utility.yul\":9121:9260   */\n      swap1\n      pop\n        /* \"#utility.yul\":8848:9267   */\n      swap2\n      swap1\n      pop\n      jump\t// out\n        /* \"#utility.yul\":9273:9453   */\n    tag_140:\n        /* \"#utility.yul\":9321:9398   */\n      0x4e487b7100000000000000000000000000000000000000000000000000000000\n        /* \"#utility.yul\":9318:9319   */\n      0x00\n        /* \"#utility.yul\":9311:9399   */\n      mstore\n        /* \"#utility.yul\":9418:9422   */\n      0x32\n        /* \"#utility.yul\":9415:9416   */\n      0x04\n        /* \"#utility.yul\":9408:9423   */\n      mstore\n        /* \"#utility.yul\":9442:9446   */\n      0x24\n        /* \"#utility.yul\":9439:9440   */\n      0x00\n        /* \"#utility.yul\":9432:9447   */\n      revert\n        /* \"#utility.yul\":9459:9639   */\n    tag_334:\n        /* \"#utility.yul\":9507:9584   */\n      0x4e487b7100000000000000000000000000000000000000000000000000000000\n        /* \"#utility.yul\":9504:9505   */\n      0x00\n        /* \"#utility.yul\":9497:9585   */\n      mstore\n        /* \"#utility.yul\":9604:9608   */\n      0x12\n        /* \"#utility.yul\":9601:9602   */\n      0x04\n        /* \"#utility.yul\":9594:9609   */\n      mstore\n        /* \"#utility.yul\":9628:9632   */\n      0x24\n        /* \"#utility.yul\":9625:9626   */\n      0x00\n        /* \"#utility.yul\":9618:9633   */\n      revert\n        /* \"#utility.yul\":9645:9830   */\n    tag_167:\n        /* \"#utility.yul\":9685:9686   */\n      0x00\n        /* \"#utility.yul\":9702:9722   */\n      tag_443\n        /* \"#utility.yul\":9720:9721   */\n      dup3\n        /* \"#utility.yul\":9702:9722   */\n      tag_315\n      jump\t// in\n    tag_443:\n        /* \"#utility.yul\":9697:9722   */\n      swap2\n      pop\n        /* \"#utility.yul\":9736:9756   */\n      tag_444\n        /* \"#utility.yul\":9754:9755   */\n      dup4\n        /* \"#utility.yul\":9736:9756   */\n      tag_315\n      jump\t// in\n    tag_444:\n        /* \"#utility.yul\":9731:9756   */\n      swap3\n      pop\n        /* \"#utility.yul\":9775:9776   */\n      dup3\n        /* \"#utility.yul\":9765:9800   */\n      tag_445\n      jumpi\n        /* \"#utility.yul\":9780:9798   */\n      tag_446\n      tag_334\n      jump\t// in\n    tag_446:\n        /* \"#utility.yul\":9765:9800   */\n    tag_445:\n        /* \"#utility.yul\":9822:9823   */\n      dup3\n        /* \"#utility.yul\":9819:9820   */\n      dup3\n        /* \"#utility.yul\":9815:9824   */\n      div\n        /* \"#utility.yul\":9810:9824   */\n      swap1\n      pop\n        /* \"#utility.yul\":9645:9830   */\n      swap3\n      swap2\n      pop\n      pop\n      jump\t// out\n        /* \"#utility.yul\":9836:9896   */\n    tag_335:\n        /* \"#utility.yul\":9864:9867   */\n      0x00\n        /* \"#utility.yul\":9885:9890   */\n      dup2\n        /* \"#utility.yul\":9878:9890   */\n      swap1\n      pop\n        /* \"#utility.yul\":9836:9896   */\n      swap2\n      swap1\n      pop\n      jump\t// out\n        /* \"#utility.yul\":9902:10044   */\n    tag_336:\n        /* \"#utility.yul\":9952:9961   */\n      0x00\n        /* \"#utility.yul\":9985:10038   */\n      tag_449\n        /* \"#utility.yul\":10003:10037   */\n      tag_450\n        /* \"#utility.yul\":10012:10036   */\n      tag_451\n        /* \"#utility.yul\":10030:10035   */\n      dup5\n        /* \"#utility.yul\":10012:10036   */\n      tag_311\n      jump\t// in\n    tag_451:\n        /* \"#utility.yul\":10003:10037   */\n      tag_335\n      jump\t// in\n    tag_450:\n        /* \"#utility.yul\":9985:10038   */\n      tag_311\n      jump\t// in\n    tag_449:\n        /* \"#utility.yul\":9972:10038   */\n      swap1\n      pop\n        /* \"#utility.yul\":9902:10044   */\n      swap2\n      swap1\n      pop\n      jump\t// out\n        /* \"#utility.yul\":10050:10176   */\n    tag_337:\n        /* \"#utility.yul\":10100:10109   */\n      0x00\n        /* \"#utility.yul\":10133:10170   */\n      tag_453\n        /* \"#utility.yul\":10164:10169   */\n      dup3\n        /* \"#utility.yul\":10133:10170   */\n      tag_336\n      jump\t// in\n    tag_453:\n        /* \"#utility.yul\":10120:10170   */\n      swap1\n      pop\n        /* \"#utility.yul\":10050:10176   */\n      swap2\n      swap1\n      pop\n      jump\t// out\n        /* \"#utility.yul\":10182:10316   */\n    tag_338:\n        /* \"#utility.yul\":10240:10249   */\n      0x00\n        /* \"#utility.yul\":10273:10310   */\n      tag_455\n        /* \"#utility.yul\":10304:10309   */\n      dup3\n        /* \"#utility.yul\":10273:10310   */\n      tag_337\n      jump\t// in\n    tag_455:\n        /* \"#utility.yul\":10260:10310   */\n      swap1\n      pop\n        /* \"#utility.yul\":10182:10316   */\n      swap2\n      swap1\n      pop\n      jump\t// out\n        /* \"#utility.yul\":10322:10469   */\n    tag_339:\n        /* \"#utility.yul\":10417:10462   */\n      tag_457\n        /* \"#utility.yul\":10456:10461   */\n      dup2\n        /* \"#utility.yul\":10417:10462   */\n      tag_338\n      jump\t// in\n    tag_457:\n        /* \"#utility.yul\":10412:10415   */\n      dup3\n        /* \"#utility.yul\":10405:10463   */\n      mstore\n        /* \"#utility.yul\":10322:10469   */\n      pop\n      pop\n      jump\t// out\n        /* \"#utility.yul\":10475:10933   */\n    tag_174:\n        /* \"#utility.yul\":10632:10636   */\n      0x00\n        /* \"#utility.yul\":10670:10672   */\n      0x60\n        /* \"#utility.yul\":10659:10668   */\n      dup3\n        /* \"#utility.yul\":10655:10673   */\n      add\n        /* \"#utility.yul\":10647:10673   */\n      swap1\n      pop\n        /* \"#utility.yul\":10683:10762   */\n      tag_459\n        /* \"#utility.yul\":10759:10760   */\n      0x00\n        /* \"#utility.yul\":10748:10757   */\n      dup4\n        /* \"#utility.yul\":10744:10761   */\n      add\n        /* \"#utility.yul\":10735:10741   */\n      dup7\n        /* \"#utility.yul\":10683:10762   */\n      tag_339\n      jump\t// in\n    tag_459:\n        /* \"#utility.yul\":10772:10844   */\n      tag_460\n        /* \"#utility.yul\":10840:10842   */\n      0x20\n        /* \"#utility.yul\":10829:10838   */\n      dup4\n        /* \"#utility.yul\":10825:10843   */\n      add\n        /* \"#utility.yul\":10816:10822   */\n      dup6\n        /* \"#utility.yul\":10772:10844   */\n      tag_324\n      jump\t// in\n    tag_460:\n        /* \"#utility.yul\":10854:10926   */\n      tag_461\n        /* \"#utility.yul\":10922:10924   */\n      0x40\n        /* \"#utility.yul\":10911:10920   */\n      dup4\n        /* \"#utility.yul\":10907:10925   */\n      add\n        /* \"#utility.yul\":10898:10904   */\n      dup5\n        /* \"#utility.yul\":10854:10926   */\n      tag_324\n      jump\t// in\n    tag_461:\n        /* \"#utility.yul\":10475:10933   */\n      swap5\n      swap4\n      pop\n      pop\n      pop\n      pop\n      jump\t// out\n        /* \"#utility.yul\":10939:11167   */\n    tag_340:\n        /* \"#utility.yul\":11079:11113   */\n      0x5468697320616464726573732068617320696e73756666696369656e74207065\n        /* \"#utility.yul\":11075:11076   */\n      0x00\n        /* \"#utility.yul\":11067:11073   */\n      dup3\n        /* \"#utility.yul\":11063:11077   */\n      add\n        /* \"#utility.yul\":11056:11114   */\n      mstore\n        /* \"#utility.yul\":11148:11159   */\n      0x726d697373696f6e730000000000000000000000000000000000000000000000\n        /* \"#utility.yul\":11143:11145   */\n      0x20\n        /* \"#utility.yul\":11135:11141   */\n      dup3\n        /* \"#utility.yul\":11131:11146   */\n      add\n        /* \"#utility.yul\":11124:11160   */\n      mstore\n        /* \"#utility.yul\":10939:11167   */\n      pop\n      jump\t// out\n        /* \"#utility.yul\":11173:11539   */\n    tag_341:\n        /* \"#utility.yul\":11315:11318   */\n      0x00\n        /* \"#utility.yul\":11336:11403   */\n      tag_464\n        /* \"#utility.yul\":11400:11402   */\n      0x29\n        /* \"#utility.yul\":11395:11398   */\n      dup4\n        /* \"#utility.yul\":11336:11403   */\n      tag_326\n      jump\t// in\n    tag_464:\n        /* \"#utility.yul\":11329:11403   */\n      swap2\n      pop\n        /* \"#utility.yul\":11412:11505   */\n      tag_465\n        /* \"#utility.yul\":11501:11504   */\n      dup3\n        /* \"#utility.yul\":11412:11505   */\n      tag_340\n      jump\t// in\n    tag_465:\n        /* \"#utility.yul\":11530:11532   */\n      0x40\n        /* \"#utility.yul\":11525:11528   */\n      dup3\n        /* \"#utility.yul\":11521:11533   */\n      add\n        /* \"#utility.yul\":11514:11533   */\n      swap1\n      pop\n        /* \"#utility.yul\":11173:11539   */\n      swap2\n      swap1\n      pop\n      jump\t// out\n        /* \"#utility.yul\":11545:11964   */\n    tag_193:\n        /* \"#utility.yul\":11711:11715   */\n      0x00\n        /* \"#utility.yul\":11749:11751   */\n      0x20\n        /* \"#utility.yul\":11738:11747   */\n      dup3\n        /* \"#utility.yul\":11734:11752   */\n      add\n        /* \"#utility.yul\":11726:11752   */\n      swap1\n      pop\n        /* \"#utility.yul\":11798:11807   */\n      dup2\n        /* \"#utility.yul\":11792:11796   */\n      dup2\n        /* \"#utility.yul\":11788:11808   */\n      sub\n        /* \"#utility.yul\":11784:11785   */\n      0x00\n        /* \"#utility.yul\":11773:11782   */\n      dup4\n        /* \"#utility.yul\":11769:11786   */\n      add\n        /* \"#utility.yul\":11762:11809   */\n      mstore\n        /* \"#utility.yul\":11826:11957   */\n      tag_467\n        /* \"#utility.yul\":11952:11956   */\n      dup2\n        /* \"#utility.yul\":11826:11957   */\n      tag_341\n      jump\t// in\n    tag_467:\n        /* \"#utility.yul\":11818:11957   */\n      swap1\n      pop\n        /* \"#utility.yul\":11545:11964   */\n      swap2\n      swap1\n      pop\n      jump\t// out\n        /* \"#utility.yul\":11970:12200   */\n    tag_342:\n        /* \"#utility.yul\":12110:12144   */\n      0x5765206e65656420706179206f666620746865207374616b696e6720746f2074\n        /* \"#utility.yul\":12106:12107   */\n      0x00\n        /* \"#utility.yul\":12098:12104   */\n      dup3\n        /* \"#utility.yul\":12094:12108   */\n      add\n        /* \"#utility.yul\":12087:12145   */\n      mstore\n        /* \"#utility.yul\":12179:12192   */\n      0x686520637573746f6d6572000000000000000000000000000000000000000000\n        /* \"#utility.yul\":12174:12176   */\n      0x20\n        /* \"#utility.yul\":12166:12172   */\n      dup3\n        /* \"#utility.yul\":12162:12177   */\n      add\n        /* \"#utility.yul\":12155:12193   */\n      mstore\n        /* \"#utility.yul\":11970:12200   */\n      pop\n      jump\t// out\n        /* \"#utility.yul\":12206:12572   */\n    tag_343:\n        /* \"#utility.yul\":12348:12351   */\n      0x00\n        /* \"#utility.yul\":12369:12436   */\n      tag_470\n        /* \"#utility.yul\":12433:12435   */\n      0x2b\n        /* \"#utility.yul\":12428:12431   */\n      dup4\n        /* \"#utility.yul\":12369:12436   */\n      tag_326\n      jump\t// in\n    tag_470:\n        /* \"#utility.yul\":12362:12436   */\n      swap2\n      pop\n        /* \"#utility.yul\":12445:12538   */\n      tag_471\n        /* \"#utility.yul\":12534:12537   */\n      dup3\n        /* \"#utility.yul\":12445:12538   */\n      tag_342\n      jump\t// in\n    tag_471:\n        /* \"#utility.yul\":12563:12565   */\n      0x40\n        /* \"#utility.yul\":12558:12561   */\n      dup3\n        /* \"#utility.yul\":12554:12566   */\n      add\n        /* \"#utility.yul\":12547:12566   */\n      swap1\n      pop\n        /* \"#utility.yul\":12206:12572   */\n      swap2\n      swap1\n      pop\n      jump\t// out\n        /* \"#utility.yul\":12578:12997   */\n    tag_206:\n        /* \"#utility.yul\":12744:12748   */\n      0x00\n        /* \"#utility.yul\":12782:12784   */\n      0x20\n        /* \"#utility.yul\":12771:12780   */\n      dup3\n        /* \"#utility.yul\":12767:12785   */\n      add\n        /* \"#utility.yul\":12759:12785   */\n      swap1\n      pop\n        /* \"#utility.yul\":12831:12840   */\n      dup2\n        /* \"#utility.yul\":12825:12829   */\n      dup2\n        /* \"#utility.yul\":12821:12841   */\n      sub\n        /* \"#utility.yul\":12817:12818   */\n      0x00\n        /* \"#utility.yul\":12806:12815   */\n      dup4\n        /* \"#utility.yul\":12802:12819   */\n      add\n        /* \"#utility.yul\":12795:12842   */\n      mstore\n        /* \"#utility.yul\":12859:12990   */\n      tag_473\n        /* \"#utility.yul\":12985:12989   */\n      dup2\n        /* \"#utility.yul\":12859:12990   */\n      tag_343\n      jump\t// in\n    tag_473:\n        /* \"#utility.yul\":12851:12990   */\n      swap1\n      pop\n        /* \"#utility.yul\":12578:12997   */\n      swap2\n      swap1\n      pop\n      jump\t// out\n        /* \"#utility.yul\":13003:13197   */\n    tag_230:\n        /* \"#utility.yul\":13043:13047   */\n      0x00\n        /* \"#utility.yul\":13063:13083   */\n      tag_475\n        /* \"#utility.yul\":13081:13082   */\n      dup3\n        /* \"#utility.yul\":13063:13083   */\n      tag_315\n      jump\t// in\n    tag_475:\n        /* \"#utility.yul\":13058:13083   */\n      swap2\n      pop\n        /* \"#utility.yul\":13097:13117   */\n      tag_476\n        /* \"#utility.yul\":13115:13116   */\n      dup4\n        /* \"#utility.yul\":13097:13117   */\n      tag_315\n      jump\t// in\n    tag_476:\n        /* \"#utility.yul\":13092:13117   */\n      swap3\n      pop\n        /* \"#utility.yul\":13141:13142   */\n      dup3\n        /* \"#utility.yul\":13138:13139   */\n      dup3\n        /* \"#utility.yul\":13134:13143   */\n      sub\n        /* \"#utility.yul\":13126:13143   */\n      swap1\n      pop\n        /* \"#utility.yul\":13165:13166   */\n      dup2\n        /* \"#utility.yul\":13159:13163   */\n      dup2\n        /* \"#utility.yul\":13156:13167   */\n      gt\n        /* \"#utility.yul\":13153:13190   */\n      iszero\n      tag_477\n      jumpi\n        /* \"#utility.yul\":13170:13188   */\n      tag_478\n      tag_331\n      jump\t// in\n    tag_478:\n        /* \"#utility.yul\":13153:13190   */\n    tag_477:\n        /* \"#utility.yul\":13003:13197   */\n      swap3\n      swap2\n      pop\n      pop\n      jump\t// out\n        /* \"#utility.yul\":13203:13382   */\n    tag_344:\n        /* \"#utility.yul\":13343:13374   */\n      0x54686973206163636f756e7420697320616c7265616479206578697374000000\n        /* \"#utility.yul\":13339:13340   */\n      0x00\n        /* \"#utility.yul\":13331:13337   */\n      dup3\n        /* \"#utility.yul\":13327:13341   */\n      add\n        /* \"#utility.yul\":13320:13375   */\n      mstore\n        /* \"#utility.yul\":13203:13382   */\n      pop\n      jump\t// out\n        /* \"#utility.yul\":13388:13754   */\n    tag_345:\n        /* \"#utility.yul\":13530:13533   */\n      0x00\n        /* \"#utility.yul\":13551:13618   */\n      tag_481\n        /* \"#utility.yul\":13615:13617   */\n      0x1d\n        /* \"#utility.yul\":13610:13613   */\n      dup4\n        /* \"#utility.yul\":13551:13618   */\n      tag_326\n      jump\t// in\n    tag_481:\n        /* \"#utility.yul\":13544:13618   */\n      swap2\n      pop\n        /* \"#utility.yul\":13627:13720   */\n      tag_482\n        /* \"#utility.yul\":13716:13719   */\n      dup3\n        /* \"#utility.yul\":13627:13720   */\n      tag_344\n      jump\t// in\n    tag_482:\n        /* \"#utility.yul\":13745:13747   */\n      0x20\n        /* \"#utility.yul\":13740:13743   */\n      dup3\n        /* \"#utility.yul\":13736:13748   */\n      add\n        /* \"#utility.yul\":13729:13748   */\n      swap1\n      pop\n        /* \"#utility.yul\":13388:13754   */\n      swap2\n      swap1\n      pop\n      jump\t// out\n        /* \"#utility.yul\":13760:14179   */\n    tag_270:\n        /* \"#utility.yul\":13926:13930   */\n      0x00\n        /* \"#utility.yul\":13964:13966   */\n      0x20\n        /* \"#utility.yul\":13953:13962   */\n      dup3\n        /* \"#utility.yul\":13949:13967   */\n      add\n        /* \"#utility.yul\":13941:13967   */\n      swap1\n      pop\n        /* \"#utility.yul\":14013:14022   */\n      dup2\n        /* \"#utility.yul\":14007:14011   */\n      dup2\n        /* \"#utility.yul\":14003:14023   */\n      sub\n        /* \"#utility.yul\":13999:14000   */\n      0x00\n        /* \"#utility.yul\":13988:13997   */\n      dup4\n        /* \"#utility.yul\":13984:14001   */\n      add\n        /* \"#utility.yul\":13977:14024   */\n      mstore\n        /* \"#utility.yul\":14041:14172   */\n      tag_484\n        /* \"#utility.yul\":14167:14171   */\n      dup2\n        /* \"#utility.yul\":14041:14172   */\n      tag_345\n      jump\t// in\n    tag_484:\n        /* \"#utility.yul\":14033:14172   */\n      swap1\n      pop\n        /* \"#utility.yul\":13760:14179   */\n      swap2\n      swap1\n      pop\n      jump\t// out\n        /* \"#utility.yul\":14185:14352   */\n    tag_346:\n        /* \"#utility.yul\":14325:14344   */\n      0x4469646e277420737570706c7920455448000000000000000000000000000000\n        /* \"#utility.yul\":14321:14322   */\n      0x00\n        /* \"#utility.yul\":14313:14319   */\n      dup3\n        /* \"#utility.yul\":14309:14323   */\n      add\n        /* \"#utility.yul\":14302:14345   */\n      mstore\n        /* \"#utility.yul\":14185:14352   */\n      pop\n      jump\t// out\n        /* \"#utility.yul\":14358:14724   */\n    tag_347:\n        /* \"#utility.yul\":14500:14503   */\n      0x00\n        /* \"#utility.yul\":14521:14588   */\n      tag_487\n        /* \"#utility.yul\":14585:14587   */\n      0x11\n        /* \"#utility.yul\":14580:14583   */\n      dup4\n        /* \"#utility.yul\":14521:14588   */\n      tag_326\n      jump\t// in\n    tag_487:\n        /* \"#utility.yul\":14514:14588   */\n      swap2\n      pop\n        /* \"#utility.yul\":14597:14690   */\n      tag_488\n        /* \"#utility.yul\":14686:14689   */\n      dup3\n        /* \"#utility.yul\":14597:14690   */\n      tag_346\n      jump\t// in\n    tag_488:\n        /* \"#utility.yul\":14715:14717   */\n      0x20\n        /* \"#utility.yul\":14710:14713   */\n      dup3\n        /* \"#utility.yul\":14706:14718   */\n      add\n        /* \"#utility.yul\":14699:14718   */\n      swap1\n      pop\n        /* \"#utility.yul\":14358:14724   */\n      swap2\n      swap1\n      pop\n      jump\t// out\n        /* \"#utility.yul\":14730:15149   */\n    tag_273:\n        /* \"#utility.yul\":14896:14900   */\n      0x00\n        /* \"#utility.yul\":14934:14936   */\n      0x20\n        /* \"#utility.yul\":14923:14932   */\n      dup3\n        /* \"#utility.yul\":14919:14937   */\n      add\n        /* \"#utility.yul\":14911:14937   */\n      swap1\n      pop\n        /* \"#utility.yul\":14983:14992   */\n      dup2\n        /* \"#utility.yul\":14977:14981   */\n      dup2\n        /* \"#utility.yul\":14973:14993   */\n      sub\n        /* \"#utility.yul\":14969:14970   */\n      0x00\n        /* \"#utility.yul\":14958:14967   */\n      dup4\n        /* \"#utility.yul\":14954:14971   */\n      add\n        /* \"#utility.yul\":14947:14994   */\n      mstore\n        /* \"#utility.yul\":15011:15142   */\n      tag_490\n        /* \"#utility.yul\":15137:15141   */\n      dup2\n        /* \"#utility.yul\":15011:15142   */\n      tag_347\n      jump\t// in\n    tag_490:\n        /* \"#utility.yul\":15003:15142   */\n      swap1\n      pop\n        /* \"#utility.yul\":14730:15149   */\n      swap2\n      swap1\n      pop\n      jump\t// out\n        /* \"#utility.yul\":15155:15332   */\n    tag_348:\n        /* \"#utility.yul\":15295:15324   */\n      0x5374616b696e672076616c7565206973206e6f7420656e6f7567680000000000\n        /* \"#utility.yul\":15291:15292   */\n      0x00\n        /* \"#utility.yul\":15283:15289   */\n      dup3\n        /* \"#utility.yul\":15279:15293   */\n      add\n        /* \"#utility.yul\":15272:15325   */\n      mstore\n        /* \"#utility.yul\":15155:15332   */\n      pop\n      jump\t// out\n        /* \"#utility.yul\":15338:15704   */\n    tag_349:\n        /* \"#utility.yul\":15480:15483   */\n      0x00\n        /* \"#utility.yul\":15501:15568   */\n      tag_493\n        /* \"#utility.yul\":15565:15567   */\n      0x1b\n        /* \"#utility.yul\":15560:15563   */\n      dup4\n        /* \"#utility.yul\":15501:15568   */\n      tag_326\n      jump\t// in\n    tag_493:\n        /* \"#utility.yul\":15494:15568   */\n      swap2\n      pop\n        /* \"#utility.yul\":15577:15670   */\n      tag_494\n        /* \"#utility.yul\":15666:15669   */\n      dup3\n        /* \"#utility.yul\":15577:15670   */\n      tag_348\n      jump\t// in\n    tag_494:\n        /* \"#utility.yul\":15695:15697   */\n      0x20\n        /* \"#utility.yul\":15690:15693   */\n      dup3\n        /* \"#utility.yul\":15686:15698   */\n      add\n        /* \"#utility.yul\":15679:15698   */\n      swap1\n      pop\n        /* \"#utility.yul\":15338:15704   */\n      swap2\n      swap1\n      pop\n      jump\t// out\n        /* \"#utility.yul\":15710:16129   */\n    tag_288:\n        /* \"#utility.yul\":15876:15880   */\n      0x00\n        /* \"#utility.yul\":15914:15916   */\n      0x20\n        /* \"#utility.yul\":15903:15912   */\n      dup3\n        /* \"#utility.yul\":15899:15917   */\n      add\n        /* \"#utility.yul\":15891:15917   */\n      swap1\n      pop\n        /* \"#utility.yul\":15963:15972   */\n      dup2\n        /* \"#utility.yul\":15957:15961   */\n      dup2\n        /* \"#utility.yul\":15953:15973   */\n      sub\n        /* \"#utility.yul\":15949:15950   */\n      0x00\n        /* \"#utility.yul\":15938:15947   */\n      dup4\n        /* \"#utility.yul\":15934:15951   */\n      add\n        /* \"#utility.yul\":15927:15974   */\n      mstore\n        /* \"#utility.yul\":15991:16122   */\n      tag_496\n        /* \"#utility.yul\":16117:16121   */\n      dup2\n        /* \"#utility.yul\":15991:16122   */\n      tag_349\n      jump\t// in\n    tag_496:\n        /* \"#utility.yul\":15983:16122   */\n      swap1\n      pop\n        /* \"#utility.yul\":15710:16129   */\n      swap2\n      swap1\n      pop\n      jump\t// out\n\n    auxdata: 0xa26469706673582212202aa09979aaca353c498b7d16551db9bb43a8508fee1066df861000ae7775a6e164736f6c63430008160033\n}\n",
				"bytecode": {
					"linkReferences": {},
					"object": "608060405260016003555f600455348015610018575f80fd5b50335f806101000a81548173ffffffffffffffffffffffffffffffffffffffff021916908373ffffffffffffffffffffffffffffffffffffffff16021790555060405180604001604052803373ffffffffffffffffffffffffffffffffffffffff1681526020015f81525060025f3373ffffffffffffffffffffffffffffffffffffffff1673ffffffffffffffffffffffffffffffffffffffff1681526020019081526020015f205f820151815f015f6101000a81548173ffffffffffffffffffffffffffffffffffffffff021916908373ffffffffffffffffffffffffffffffffffffffff16021790555060208201518160010155905050600133908060018154018082558091505060019003905f5260205f20015f9091909190916101000a81548173ffffffffffffffffffffffffffffffffffffffff021916908373ffffffffffffffffffffffffffffffffffffffff160217905550426005819055503360075f6101000a81548173ffffffffffffffffffffffffffffffffffffffff021916908373ffffffffffffffffffffffffffffffffffffffff160217905550613582806101c55f395ff3fe60806040526004361061011e575f3560e01c806370e2f4881161009f578063a4686b8f11610063578063a4686b8f1461037c578063a643a04f146103b8578063b45b7fe4146103d4578063d3b318fb146103f0578063d7fa10831461040c5761011e565b806370e2f4881461029c5780637ea17dcc146102c657806385afee7314610302578063893d20e81461032a5780639b8163ef146103545761011e565b806331b3fac2116100e657806331b3fac2146101e05780633922d551146102085780633fdeec7914610230578063656b6b7e1461024c5780636997f1e2146102745761011e565b806315a0b37b146101225780632057c8591461014a57806320da969814610172578063253c8bd41461017c5780632a663c2c146101a4575b5f80fd5b34801561012d575f80fd5b5061014860048036038101906101439190612dcd565b610448565b005b348015610155575f80fd5b50610170600480360381019061016b9190612dcd565b610609565b005b61017a6107ab565b005b348015610187575f80fd5b506101a2600480360381019061019d9190612e0b565b610d8c565b005b3480156101af575f80fd5b506101ca60048036038101906101c59190612e0b565b610e5b565b6040516101d79190612ecd565b60405180910390f35b3480156101eb575f80fd5b5061020660048036038101906102019190612f21565b611004565b005b348015610213575f80fd5b5061022e60048036038101906102299190612e0b565b6110d8565b005b61024a60048036038101906102459190612f21565b6112db565b005b348015610257575f80fd5b50610272600480360381019061026d9190612e0b565b6117ac565b005b34801561027f575f80fd5b5061029a60048036038101906102959190612dcd565b611965565b005b3480156102a7575f80fd5b506102b0611b26565b6040516102bd9190612f5b565b60405180910390f35b3480156102d1575f80fd5b506102ec60048036038101906102e79190612e0b565b611d6d565b6040516102f99190612f83565b60405180910390f35b34801561030d575f80fd5b5061032860048036038101906103239190612dcd565b611ea0565b005b348015610335575f80fd5b5061033e612042565b60405161034b9190612f83565b60405180910390f35b34801561035f575f80fd5b5061037a60048036038101906103759190612f21565b612069565b005b348015610387575f80fd5b506103a2600480360381019061039d9190612e0b565b612139565b6040516103af9190612f5b565b60405180910390f35b6103d260048036038101906103cd9190612e0b565b61224e565b005b6103ee60048036038101906103e99190612e0b565b61254b565b005b61040a60048036038101906104059190612e0b565b612985565b005b348015610417575f80fd5b50610432600480360381019061042d9190612e0b565b612b96565b60405161043f9190612f5b565b60405180910390f35b3373ffffffffffffffffffffffffffffffffffffffff165f8054906101000a900473ffffffffffffffffffffffffffffffffffffffff1673ffffffffffffffffffffffffffffffffffffffff16146104d5576040517f08c379a00000000000000000000000000000000000000000000000000000000081526004016104cc9061301c565b60405180910390fd5b5f73ffffffffffffffffffffffffffffffffffffffff1660085f8473ffffffffffffffffffffffffffffffffffffffff1673ffffffffffffffffffffffffffffffffffffffff1681526020019081526020015f205f015f9054906101000a900473ffffffffffffffffffffffffffffffffffffffff1673ffffffffffffffffffffffffffffffffffffffff16036105a1576040517f08c379a000000000000000000000000000000000000000000000000000000000815260040161059890613084565b60405180910390fd5b62015180816105b091906130cf565b60085f8473ffffffffffffffffffffffffffffffffffffffff1673ffffffffffffffffffffffffffffffffffffffff1681526020019081526020015f206003015f8282546105fe9190613110565b925050819055505050565b3373ffffffffffffffffffffffffffffffffffffffff165f8054906101000a900473ffffffffffffffffffffffffffffffffffffffff1673ffffffffffffffffffffffffffffffffffffffff1614610696576040517f08c379a000000000000000000000000000000000000000000000000000000000815260040161068d9061301c565b60405180910390fd5b5f73ffffffffffffffffffffffffffffffffffffffff1660085f8473ffffffffffffffffffffffffffffffffffffffff1673ffffffffffffffffffffffffffffffffffffffff1681526020019081526020015f205f015f9054906101000a900473ffffffffffffffffffffffffffffffffffffffff1673ffffffffffffffffffffffffffffffffffffffff1603610762576040517f08c379a000000000000000000000000000000000000000000000000000000000815260040161075990613084565b60405180910390fd5b8060085f8473ffffffffffffffffffffffffffffffffffffffff1673ffffffffffffffffffffffffffffffffffffffff1681526020019081526020015f20600201819055505050565b3373ffffffffffffffffffffffffffffffffffffffff165f8054906101000a900473ffffffffffffffffffffffffffffffffffffffff1673ffffffffffffffffffffffffffffffffffffffff1614610838576040517f08c379a000000000000000000000000000000000000000000000000000000000815260040161082f9061301c565b60405180910390fd5b5f341161087a576040517f08c379a00000000000000000000000000000000000000000000000000000000081526004016108719061318d565b60405180910390fd5b5f610883611b26565b90505f5b600454811015610d81575f8060085f600685815481106108aa576108a96131ab565b5b905f5260205f20015f9054906101000a900473ffffffffffffffffffffffffffffffffffffffff1673ffffffffffffffffffffffffffffffffffffffff1673ffffffffffffffffffffffffffffffffffffffff1681526020019081526020015f20600101541415801561099a575060085f6006848154811061092f5761092e6131ab565b5b905f5260205f20015f9054906101000a900473ffffffffffffffffffffffffffffffffffffffff1673ffffffffffffffffffffffffffffffffffffffff1673ffffffffffffffffffffffffffffffffffffffff1681526020019081526020015f206003015460055410155b15610a1e5760085f600684815481106109b6576109b56131ab565b5b905f5260205f20015f9054906101000a900473ffffffffffffffffffffffffffffffffffffffff1673ffffffffffffffffffffffffffffffffffffffff1673ffffffffffffffffffffffffffffffffffffffff1681526020019081526020015f206001015490505b5f60085f60068581548110610a3657610a356131ab565b5b905f5260205f20015f9054906101000a900473ffffffffffffffffffffffffffffffffffffffff1673ffffffffffffffffffffffffffffffffffffffff1673ffffffffffffffffffffffffffffffffffffffff1681526020019081526020015f206002015414610c2d5760085f60068481548110610ab757610ab66131ab565b5b905f5260205f20015f9054906101000a900473ffffffffffffffffffffffffffffffffffffffff1673ffffffffffffffffffffffffffffffffffffffff1673ffffffffffffffffffffffffffffffffffffffff1681526020019081526020015f206002015460085f60068581548110610b3357610b326131ab565b5b905f5260205f20015f9054906101000a900473ffffffffffffffffffffffffffffffffffffffff1673ffffffffffffffffffffffffffffffffffffffff1673ffffffffffffffffffffffffffffffffffffffff1681526020019081526020015f206001015f828254610ba59190613110565b925050819055505f60085f60068581548110610bc457610bc36131ab565b5b905f5260205f20015f9054906101000a900473ffffffffffffffffffffffffffffffffffffffff1673ffffffffffffffffffffffffffffffffffffffff1673ffffffffffffffffffffffffffffffffffffffff1681526020019081526020015f20600201819055505b5f8103610c3a5750610d74565b5f833483610c4891906130cf565b610c529190613205565b90505f60085f60068681548110610c6c57610c6b6131ab565b5b905f5260205f20015f9054906101000a900473ffffffffffffffffffffffffffffffffffffffff1673ffffffffffffffffffffffffffffffffffffffff1673ffffffffffffffffffffffffffffffffffffffff1681526020019081526020015f205f015f9054906101000a900473ffffffffffffffffffffffffffffffffffffffff1690508073ffffffffffffffffffffffffffffffffffffffff166108fc8390811502906040515f60405180830381858888f19350505050158015610d34573d5f803e3d5ffd5b507fd8e54f1dc02cc5a9165e48bb0c19d3dc0d14902829bc2c791083d3180150f1de818385604051610d6893929190613290565b60405180910390a15050505b8080600101915050610887565b504260058190555050565b3373ffffffffffffffffffffffffffffffffffffffff165f8054906101000a900473ffffffffffffffffffffffffffffffffffffffff1673ffffffffffffffffffffffffffffffffffffffff1614610e19576040517f08c379a0000000000000000000000000000000000000000000000000000000008152600401610e109061301c565b60405180910390fd5b805f806101000a81548173ffffffffffffffffffffffffffffffffffffffff021916908373ffffffffffffffffffffffffffffffffffffffff16021790555050565b610e63612cf6565b5f73ffffffffffffffffffffffffffffffffffffffff1660085f8473ffffffffffffffffffffffffffffffffffffffff1673ffffffffffffffffffffffffffffffffffffffff1681526020019081526020015f205f015f9054906101000a900473ffffffffffffffffffffffffffffffffffffffff1673ffffffffffffffffffffffffffffffffffffffff1603610f2f576040517f08c379a0000000000000000000000000000000000000000000000000000000008152600401610f2690613084565b60405180910390fd5b60085f8373ffffffffffffffffffffffffffffffffffffffff1673ffffffffffffffffffffffffffffffffffffffff1681526020019081526020015f206040518060c00160405290815f82015f9054906101000a900473ffffffffffffffffffffffffffffffffffffffff1673ffffffffffffffffffffffffffffffffffffffff1673ffffffffffffffffffffffffffffffffffffffff168152602001600182015481526020016002820154815260200160038201548152602001600482015481526020016005820154815250509050919050565b3373ffffffffffffffffffffffffffffffffffffffff165f8054906101000a900473ffffffffffffffffffffffffffffffffffffffff1673ffffffffffffffffffffffffffffffffffffffff1614611091576040517f08c379a00000000000000000000000000000000000000000000000000000000081526004016110889061301c565b60405180910390fd5b8073ffffffffffffffffffffffffffffffffffffffff166108fc4790811502906040515f60405180830381858888f193505050501580156110d4573d5f803e3d5ffd5b5050565b5f73ffffffffffffffffffffffffffffffffffffffff1660025f3373ffffffffffffffffffffffffffffffffffffffff1673ffffffffffffffffffffffffffffffffffffffff1681526020019081526020015f205f015f9054906101000a900473ffffffffffffffffffffffffffffffffffffffff1673ffffffffffffffffffffffffffffffffffffffff16036111a4576040517f08c379a000000000000000000000000000000000000000000000000000000000815260040161119b90613335565b60405180910390fd5b60405180604001604052808273ffffffffffffffffffffffffffffffffffffffff16815260200160035481525060025f8373ffffffffffffffffffffffffffffffffffffffff1673ffffffffffffffffffffffffffffffffffffffff1681526020019081526020015f205f820151815f015f6101000a81548173ffffffffffffffffffffffffffffffffffffffff021916908373ffffffffffffffffffffffffffffffffffffffff16021790555060208201518160010155905050600181908060018154018082558091505060019003905f5260205f20015f9091909190916101000a81548173ffffffffffffffffffffffffffffffffffffffff021916908373ffffffffffffffffffffffffffffffffffffffff160217905550600160035f8282546112d19190613110565b9250508190555050565b5f73ffffffffffffffffffffffffffffffffffffffff1660025f3373ffffffffffffffffffffffffffffffffffffffff1673ffffffffffffffffffffffffffffffffffffffff1681526020019081526020015f205f015f9054906101000a900473ffffffffffffffffffffffffffffffffffffffff1673ffffffffffffffffffffffffffffffffffffffff16036113a7576040517f08c379a000000000000000000000000000000000000000000000000000000000815260040161139e90613335565b60405180910390fd5b5f73ffffffffffffffffffffffffffffffffffffffff1660085f8373ffffffffffffffffffffffffffffffffffffffff1673ffffffffffffffffffffffffffffffffffffffff1681526020019081526020015f205f015f9054906101000a900473ffffffffffffffffffffffffffffffffffffffff1673ffffffffffffffffffffffffffffffffffffffff1603611473576040517f08c379a000000000000000000000000000000000000000000000000000000000815260040161146a90613084565b60405180910390fd5b60085f8273ffffffffffffffffffffffffffffffffffffffff1673ffffffffffffffffffffffffffffffffffffffff1681526020019081526020015f206002015460085f8373ffffffffffffffffffffffffffffffffffffffff1673ffffffffffffffffffffffffffffffffffffffff1681526020019081526020015f20600101546114ff9190613110565b341015611541576040517f08c379a0000000000000000000000000000000000000000000000000000000008152600401611538906133c3565b60405180910390fd5b5f60085f8373ffffffffffffffffffffffffffffffffffffffff1673ffffffffffffffffffffffffffffffffffffffff1681526020019081526020015f206002015460085f8473ffffffffffffffffffffffffffffffffffffffff1673ffffffffffffffffffffffffffffffffffffffff1681526020019081526020015f20600101546115ce9190613110565b146116a3578073ffffffffffffffffffffffffffffffffffffffff166108fc60085f8473ffffffffffffffffffffffffffffffffffffffff1673ffffffffffffffffffffffffffffffffffffffff1681526020019081526020015f206002015460085f8573ffffffffffffffffffffffffffffffffffffffff1673ffffffffffffffffffffffffffffffffffffffff1681526020019081526020015f20600101546116799190613110565b90811502906040515f60405180830381858888f193505050501580156116a1573d5f803e3d5ffd5b505b600660085f8373ffffffffffffffffffffffffffffffffffffffff1673ffffffffffffffffffffffffffffffffffffffff1681526020019081526020015f2060050154815481106116f7576116f66131ab565b5b905f5260205f20015f6101000a81549073ffffffffffffffffffffffffffffffffffffffff021916905560085f8273ffffffffffffffffffffffffffffffffffffffff1673ffffffffffffffffffffffffffffffffffffffff1681526020019081526020015f205f8082015f6101000a81549073ffffffffffffffffffffffffffffffffffffffff0219169055600182015f9055600282015f9055600382015f9055600482015f9055600582015f9055505050565b5f73ffffffffffffffffffffffffffffffffffffffff1660025f3373ffffffffffffffffffffffffffffffffffffffff1673ffffffffffffffffffffffffffffffffffffffff1681526020019081526020015f205f015f9054906101000a900473ffffffffffffffffffffffffffffffffffffffff1673ffffffffffffffffffffffffffffffffffffffff1603611878576040517f08c379a000000000000000000000000000000000000000000000000000000000815260040161186f90613335565b60405180910390fd5b600160025f8373ffffffffffffffffffffffffffffffffffffffff1673ffffffffffffffffffffffffffffffffffffffff1681526020019081526020015f2060010154815481106118cc576118cb6131ab565b5b905f5260205f20015f6101000a81549073ffffffffffffffffffffffffffffffffffffffff021916905560025f8273ffffffffffffffffffffffffffffffffffffffff1673ffffffffffffffffffffffffffffffffffffffff1681526020019081526020015f205f8082015f6101000a81549073ffffffffffffffffffffffffffffffffffffffff0219169055600182015f9055505050565b3373ffffffffffffffffffffffffffffffffffffffff165f8054906101000a900473ffffffffffffffffffffffffffffffffffffffff1673ffffffffffffffffffffffffffffffffffffffff16146119f2576040517f08c379a00000000000000000000000000000000000000000000000000000000081526004016119e99061301c565b60405180910390fd5b5f73ffffffffffffffffffffffffffffffffffffffff1660085f8473ffffffffffffffffffffffffffffffffffffffff1673ffffffffffffffffffffffffffffffffffffffff1681526020019081526020015f205f015f9054906101000a900473ffffffffffffffffffffffffffffffffffffffff1673ffffffffffffffffffffffffffffffffffffffff1603611abe576040517f08c379a0000000000000000000000000000000000000000000000000000000008152600401611ab590613084565b60405180910390fd5b6201518081611acd91906130cf565b60085f8473ffffffffffffffffffffffffffffffffffffffff1673ffffffffffffffffffffffffffffffffffffffff1681526020019081526020015f206003015f828254611b1b91906133e1565b925050819055505050565b5f3373ffffffffffffffffffffffffffffffffffffffff165f8054906101000a900473ffffffffffffffffffffffffffffffffffffffff1673ffffffffffffffffffffffffffffffffffffffff1614611bb4576040517f08c379a0000000000000000000000000000000000000000000000000000000008152600401611bab9061301c565b60405180910390fd5b5f805b600454811015611d65575f60085f60068481548110611bd957611bd86131ab565b5b905f5260205f20015f9054906101000a900473ffffffffffffffffffffffffffffffffffffffff1673ffffffffffffffffffffffffffffffffffffffff1673ffffffffffffffffffffffffffffffffffffffff1681526020019081526020015f206001015414158015611cc9575060085f60068381548110611c5e57611c5d6131ab565b5b905f5260205f20015f9054906101000a900473ffffffffffffffffffffffffffffffffffffffff1673ffffffffffffffffffffffffffffffffffffffff1673ffffffffffffffffffffffffffffffffffffffff1681526020019081526020015f206003015460055410155b15611d585760085f60068381548110611ce557611ce46131ab565b5b905f5260205f20015f9054906101000a900473ffffffffffffffffffffffffffffffffffffffff1673ffffffffffffffffffffffffffffffffffffffff1673ffffffffffffffffffffffffffffffffffffffff1681526020019081526020015f206001015482611d559190613110565b91505b8080600101915050611bb7565b508091505090565b5f8073ffffffffffffffffffffffffffffffffffffffff1660085f8473ffffffffffffffffffffffffffffffffffffffff1673ffffffffffffffffffffffffffffffffffffffff1681526020019081526020015f205f015f9054906101000a900473ffffffffffffffffffffffffffffffffffffffff1673ffffffffffffffffffffffffffffffffffffffff1603611e3a576040517f08c379a0000000000000000000000000000000000000000000000000000000008152600401611e3190613084565b60405180910390fd5b60085f8373ffffffffffffffffffffffffffffffffffffffff1673ffffffffffffffffffffffffffffffffffffffff1681526020019081526020015f205f015f9054906101000a900473ffffffffffffffffffffffffffffffffffffffff169050919050565b3373ffffffffffffffffffffffffffffffffffffffff165f8054906101000a900473ffffffffffffffffffffffffffffffffffffffff1673ffffffffffffffffffffffffffffffffffffffff1614611f2d576040517f08c379a0000000000000000000000000000000000000000000000000000000008152600401611f249061301c565b60405180910390fd5b5f73ffffffffffffffffffffffffffffffffffffffff1660085f8473ffffffffffffffffffffffffffffffffffffffff1673ffffffffffffffffffffffffffffffffffffffff1681526020019081526020015f205f015f9054906101000a900473ffffffffffffffffffffffffffffffffffffffff1673ffffffffffffffffffffffffffffffffffffffff1603611ff9576040517f08c379a0000000000000000000000000000000000000000000000000000000008152600401611ff090613084565b60405180910390fd5b8060085f8473ffffffffffffffffffffffffffffffffffffffff1673ffffffffffffffffffffffffffffffffffffffff1681526020019081526020015f20600101819055505050565b5f805f9054906101000a900473ffffffffffffffffffffffffffffffffffffffff16905090565b3373ffffffffffffffffffffffffffffffffffffffff165f8054906101000a900473ffffffffffffffffffffffffffffffffffffffff1673ffffffffffffffffffffffffffffffffffffffff16146120f6576040517f08c379a00000000000000000000000000000000000000000000000000000000081526004016120ed9061301c565b60405180910390fd5b8060075f6101000a81548173ffffffffffffffffffffffffffffffffffffffff021916908373ffffffffffffffffffffffffffffffffffffffff16021790555050565b5f8073ffffffffffffffffffffffffffffffffffffffff1660085f8473ffffffffffffffffffffffffffffffffffffffff1673ffffffffffffffffffffffffffffffffffffffff1681526020019081526020015f205f015f9054906101000a900473ffffffffffffffffffffffffffffffffffffffff1673ffffffffffffffffffffffffffffffffffffffff1603612206576040517f08c379a00000000000000000000000000000000000000000000000000000000081526004016121fd90613084565b60405180910390fd5b60085f8373ffffffffffffffffffffffffffffffffffffffff1673ffffffffffffffffffffffffffffffffffffffff1681526020019081526020015f20600501549050919050565b5f73ffffffffffffffffffffffffffffffffffffffff1660085f8373ffffffffffffffffffffffffffffffffffffffff1673ffffffffffffffffffffffffffffffffffffffff1681526020019081526020015f205f015f9054906101000a900473ffffffffffffffffffffffffffffffffffffffff1673ffffffffffffffffffffffffffffffffffffffff161461231a576040517f08c379a00000000000000000000000000000000000000000000000000000000081526004016123119061345e565b60405180910390fd5b5f341161235c576040517f08c379a0000000000000000000000000000000000000000000000000000000008152600401612353906134c6565b60405180910390fd5b5f6040518060c001604052808373ffffffffffffffffffffffffffffffffffffffff1681526020013481526020015f815260200162278d004261239f91906133e1565b815260200142815260200160045481525090508060085f8473ffffffffffffffffffffffffffffffffffffffff1673ffffffffffffffffffffffffffffffffffffffff1681526020019081526020015f205f820151815f015f6101000a81548173ffffffffffffffffffffffffffffffffffffffff021916908373ffffffffffffffffffffffffffffffffffffffff1602179055506020820151816001015560408201518160020155606082015181600301556080820151816004015560a08201518160050155905050600682908060018154018082558091505060019003905f5260205f20015f9091909190916101000a81548173ffffffffffffffffffffffffffffffffffffffff021916908373ffffffffffffffffffffffffffffffffffffffff16021790555060075f9054906101000a900473ffffffffffffffffffffffffffffffffffffffff1673ffffffffffffffffffffffffffffffffffffffff166108fc3490811502906040515f60405180830381858888f1935050505015801561252d573d5f803e3d5ffd5b50600160045f8282546125409190613110565b925050819055505050565b5f73ffffffffffffffffffffffffffffffffffffffff1660025f3373ffffffffffffffffffffffffffffffffffffffff1673ffffffffffffffffffffffffffffffffffffffff1681526020019081526020015f205f015f9054906101000a900473ffffffffffffffffffffffffffffffffffffffff1673ffffffffffffffffffffffffffffffffffffffff1603612617576040517f08c379a000000000000000000000000000000000000000000000000000000000815260040161260e90613335565b60405180910390fd5b5f73ffffffffffffffffffffffffffffffffffffffff1660085f8373ffffffffffffffffffffffffffffffffffffffff1673ffffffffffffffffffffffffffffffffffffffff1681526020019081526020015f205f015f9054906101000a900473ffffffffffffffffffffffffffffffffffffffff1673ffffffffffffffffffffffffffffffffffffffff16036126e3576040517f08c379a00000000000000000000000000000000000000000000000000000000081526004016126da90613084565b60405180910390fd5b60085f8273ffffffffffffffffffffffffffffffffffffffff1673ffffffffffffffffffffffffffffffffffffffff1681526020019081526020015f206002015460085f8373ffffffffffffffffffffffffffffffffffffffff1673ffffffffffffffffffffffffffffffffffffffff1681526020019081526020015f206001015461276f9190613110565b3411156127b1576040517f08c379a00000000000000000000000000000000000000000000000000000000081526004016127a89061352e565b60405180910390fd5b5f34116127f3576040517f08c379a00000000000000000000000000000000000000000000000000000000081526004016127ea906134c6565b60405180910390fd5b60085f8273ffffffffffffffffffffffffffffffffffffffff1673ffffffffffffffffffffffffffffffffffffffff1681526020019081526020015f206002015434111561292b575f60085f8373ffffffffffffffffffffffffffffffffffffffff1673ffffffffffffffffffffffffffffffffffffffff1681526020019081526020015f20600201819055505f60085f8373ffffffffffffffffffffffffffffffffffffffff1673ffffffffffffffffffffffffffffffffffffffff1681526020019081526020015f2060020154346128cd91906133e1565b90508060085f8473ffffffffffffffffffffffffffffffffffffffff1673ffffffffffffffffffffffffffffffffffffffff1681526020019081526020015f206001015f82825461291e91906133e1565b9250508190555050612982565b3460085f8373ffffffffffffffffffffffffffffffffffffffff1673ffffffffffffffffffffffffffffffffffffffff1681526020019081526020015f206002015f82825461297a91906133e1565b925050819055505b50565b5f73ffffffffffffffffffffffffffffffffffffffff1660085f8373ffffffffffffffffffffffffffffffffffffffff1673ffffffffffffffffffffffffffffffffffffffff1681526020019081526020015f205f015f9054906101000a900473ffffffffffffffffffffffffffffffffffffffff1673ffffffffffffffffffffffffffffffffffffffff1603612a51576040517f08c379a0000000000000000000000000000000000000000000000000000000008152600401612a4890613084565b60405180910390fd5b5f3411612a93576040517f08c379a0000000000000000000000000000000000000000000000000000000008152600401612a8a906134c6565b60405180910390fd5b3460085f8373ffffffffffffffffffffffffffffffffffffffff1673ffffffffffffffffffffffffffffffffffffffff1681526020019081526020015f206002015f828254612ae29190613110565b925050819055504260085f8373ffffffffffffffffffffffffffffffffffffffff1673ffffffffffffffffffffffffffffffffffffffff1681526020019081526020015f206004018190555060075f9054906101000a900473ffffffffffffffffffffffffffffffffffffffff1673ffffffffffffffffffffffffffffffffffffffff166108fc3490811502906040515f60405180830381858888f19350505050158015612b92573d5f803e3d5ffd5b5050565b5f8073ffffffffffffffffffffffffffffffffffffffff1660085f8473ffffffffffffffffffffffffffffffffffffffff1673ffffffffffffffffffffffffffffffffffffffff1681526020019081526020015f205f015f9054906101000a900473ffffffffffffffffffffffffffffffffffffffff1673ffffffffffffffffffffffffffffffffffffffff1603612c63576040517f08c379a0000000000000000000000000000000000000000000000000000000008152600401612c5a90613084565b60405180910390fd5b60085f8373ffffffffffffffffffffffffffffffffffffffff1673ffffffffffffffffffffffffffffffffffffffff1681526020019081526020015f206002015460085f8473ffffffffffffffffffffffffffffffffffffffff1673ffffffffffffffffffffffffffffffffffffffff1681526020019081526020015f2060010154612cef9190613110565b9050919050565b6040518060c001604052805f73ffffffffffffffffffffffffffffffffffffffff1681526020015f81526020015f81526020015f81526020015f81526020015f81525090565b5f80fd5b5f73ffffffffffffffffffffffffffffffffffffffff82169050919050565b5f612d6982612d40565b9050919050565b612d7981612d5f565b8114612d83575f80fd5b50565b5f81359050612d9481612d70565b92915050565b5f819050919050565b612dac81612d9a565b8114612db6575f80fd5b50565b5f81359050612dc781612da3565b92915050565b5f8060408385031215612de357612de2612d3c565b5b5f612df085828601612d86565b9250506020612e0185828601612db9565b9150509250929050565b5f60208284031215612e2057612e1f612d3c565b5b5f612e2d84828501612d86565b91505092915050565b612e3f81612d5f565b82525050565b612e4e81612d9a565b82525050565b60c082015f820151612e685f850182612e36565b506020820151612e7b6020850182612e45565b506040820151612e8e6040850182612e45565b506060820151612ea16060850182612e45565b506080820151612eb46080850182612e45565b5060a0820151612ec760a0850182612e45565b50505050565b5f60c082019050612ee05f830184612e54565b92915050565b5f612ef082612d40565b9050919050565b612f0081612ee6565b8114612f0a575f80fd5b50565b5f81359050612f1b81612ef7565b92915050565b5f60208284031215612f3657612f35612d3c565b5b5f612f4384828501612f0d565b91505092915050565b612f5581612d9a565b82525050565b5f602082019050612f6e5f830184612f4c565b92915050565b612f7d81612d5f565b82525050565b5f602082019050612f965f830184612f74565b92915050565b5f82825260208201905092915050565b7f546869732061646472657373206973206e6f7420636f6e7472616374204f776e5f8201527f6572000000000000000000000000000000000000000000000000000000000000602082015250565b5f613006602283612f9c565b915061301182612fac565b604082019050919050565b5f6020820190508181035f83015261303381612ffa565b9050919050565b7f54686973206163636f756e742069736e277420657869737400000000000000005f82015250565b5f61306e601883612f9c565b91506130798261303a565b602082019050919050565b5f6020820190508181035f83015261309b81613062565b9050919050565b7f4e487b71000000000000000000000000000000000000000000000000000000005f52601160045260245ffd5b5f6130d982612d9a565b91506130e483612d9a565b92508282026130f281612d9a565b91508282048414831517613109576131086130a2565b5b5092915050565b5f61311a82612d9a565b915061312583612d9a565b925082820190508082111561313d5761313c6130a2565b5b92915050565b7f596f7520646f6e277420676976652045544800000000000000000000000000005f82015250565b5f613177601283612f9c565b915061318282613143565b602082019050919050565b5f6020820190508181035f8301526131a48161316b565b9050919050565b7f4e487b71000000000000000000000000000000000000000000000000000000005f52603260045260245ffd5b7f4e487b71000000000000000000000000000000000000000000000000000000005f52601260045260245ffd5b5f61320f82612d9a565b915061321a83612d9a565b92508261322a576132296131d8565b5b828204905092915050565b5f819050919050565b5f61325861325361324e84612d40565b613235565b612d40565b9050919050565b5f6132698261323e565b9050919050565b5f61327a8261325f565b9050919050565b61328a81613270565b82525050565b5f6060820190506132a35f830186613281565b6132b06020830185612f4c565b6132bd6040830184612f4c565b949350505050565b7f5468697320616464726573732068617320696e73756666696369656e742070655f8201527f726d697373696f6e730000000000000000000000000000000000000000000000602082015250565b5f61331f602983612f9c565b915061332a826132c5565b604082019050919050565b5f6020820190508181035f83015261334c81613313565b9050919050565b7f5765206e65656420706179206f666620746865207374616b696e6720746f20745f8201527f686520637573746f6d6572000000000000000000000000000000000000000000602082015250565b5f6133ad602b83612f9c565b91506133b882613353565b604082019050919050565b5f6020820190508181035f8301526133da816133a1565b9050919050565b5f6133eb82612d9a565b91506133f683612d9a565b925082820390508181111561340e5761340d6130a2565b5b92915050565b7f54686973206163636f756e7420697320616c72656164792065786973740000005f82015250565b5f613448601d83612f9c565b915061345382613414565b602082019050919050565b5f6020820190508181035f8301526134758161343c565b9050919050565b7f4469646e277420737570706c79204554480000000000000000000000000000005f82015250565b5f6134b0601183612f9c565b91506134bb8261347c565b602082019050919050565b5f6020820190508181035f8301526134dd816134a4565b9050919050565b7f5374616b696e672076616c7565206973206e6f7420656e6f75676800000000005f82015250565b5f613518601b83612f9c565b9150613523826134e4565b602082019050919050565b5f6020820190508181035f8301526135458161350c565b905091905056fea26469706673582212202aa09979aaca353c498b7d16551db9bb43a8508fee1066df861000ae7775a6e164736f6c63430008160033",
					"opcodes": "PUSH1 0x80 PUSH1 0x40 MSTORE PUSH1 0x1 PUSH1 0x3 SSTORE PUSH0 PUSH1 0x4 SSTORE CALLVALUE DUP1 ISZERO PUSH2 0x18 JUMPI PUSH0 DUP1 REVERT JUMPDEST POP CALLER PUSH0 DUP1 PUSH2 0x100 EXP DUP2 SLOAD DUP2 PUSH20 0xFFFFFFFFFFFFFFFFFFFFFFFFFFFFFFFFFFFFFFFF MUL NOT AND SWAP1 DUP4 PUSH20 0xFFFFFFFFFFFFFFFFFFFFFFFFFFFFFFFFFFFFFFFF AND MUL OR SWAP1 SSTORE POP PUSH1 0x40 MLOAD DUP1 PUSH1 0x40 ADD PUSH1 0x40 MSTORE DUP1 CALLER PUSH20 0xFFFFFFFFFFFFFFFFFFFFFFFFFFFFFFFFFFFFFFFF AND DUP2 MSTORE PUSH1 0x20 ADD PUSH0 DUP2 MSTORE POP PUSH1 0x2 PUSH0 CALLER PUSH20 0xFFFFFFFFFFFFFFFFFFFFFFFFFFFFFFFFFFFFFFFF AND PUSH20 0xFFFFFFFFFFFFFFFFFFFFFFFFFFFFFFFFFFFFFFFF AND DUP2 MSTORE PUSH1 0x20 ADD SWAP1 DUP2 MSTORE PUSH1 0x20 ADD PUSH0 KECCAK256 PUSH0 DUP3 ADD MLOAD DUP2 PUSH0 ADD PUSH0 PUSH2 0x100 EXP DUP2 SLOAD DUP2 PUSH20 0xFFFFFFFFFFFFFFFFFFFFFFFFFFFFFFFFFFFFFFFF MUL NOT AND SWAP1 DUP4 PUSH20 0xFFFFFFFFFFFFFFFFFFFFFFFFFFFFFFFFFFFFFFFF AND MUL OR SWAP1 SSTORE POP PUSH1 0x20 DUP3 ADD MLOAD DUP2 PUSH1 0x1 ADD SSTORE SWAP1 POP POP PUSH1 0x1 CALLER SWAP1 DUP1 PUSH1 0x1 DUP2 SLOAD ADD DUP1 DUP3 SSTORE DUP1 SWAP2 POP POP PUSH1 0x1 SWAP1 SUB SWAP1 PUSH0 MSTORE PUSH1 0x20 PUSH0 KECCAK256 ADD PUSH0 SWAP1 SWAP2 SWAP1 SWAP2 SWAP1 SWAP2 PUSH2 0x100 EXP DUP2 SLOAD DUP2 PUSH20 0xFFFFFFFFFFFFFFFFFFFFFFFFFFFFFFFFFFFFFFFF MUL NOT AND SWAP1 DUP4 PUSH20 0xFFFFFFFFFFFFFFFFFFFFFFFFFFFFFFFFFFFFFFFF AND MUL OR SWAP1 SSTORE POP TIMESTAMP PUSH1 0x5 DUP2 SWAP1 SSTORE POP CALLER PUSH1 0x7 PUSH0 PUSH2 0x100 EXP DUP2 SLOAD DUP2 PUSH20 0xFFFFFFFFFFFFFFFFFFFFFFFFFFFFFFFFFFFFFFFF MUL NOT AND SWAP1 DUP4 PUSH20 0xFFFFFFFFFFFFFFFFFFFFFFFFFFFFFFFFFFFFFFFF AND MUL OR SWAP1 SSTORE POP PUSH2 0x3582 DUP1 PUSH2 0x1C5 PUSH0 CODECOPY PUSH0 RETURN INVALID PUSH1 0x80 PUSH1 0x40 MSTORE PUSH1 0x4 CALLDATASIZE LT PUSH2 0x11E JUMPI PUSH0 CALLDATALOAD PUSH1 0xE0 SHR DUP1 PUSH4 0x70E2F488 GT PUSH2 0x9F JUMPI DUP1 PUSH4 0xA4686B8F GT PUSH2 0x63 JUMPI DUP1 PUSH4 0xA4686B8F EQ PUSH2 0x37C JUMPI DUP1 PUSH4 0xA643A04F EQ PUSH2 0x3B8 JUMPI DUP1 PUSH4 0xB45B7FE4 EQ PUSH2 0x3D4 JUMPI DUP1 PUSH4 0xD3B318FB EQ PUSH2 0x3F0 JUMPI DUP1 PUSH4 0xD7FA1083 EQ PUSH2 0x40C JUMPI PUSH2 0x11E JUMP JUMPDEST DUP1 PUSH4 0x70E2F488 EQ PUSH2 0x29C JUMPI DUP1 PUSH4 0x7EA17DCC EQ PUSH2 0x2C6 JUMPI DUP1 PUSH4 0x85AFEE73 EQ PUSH2 0x302 JUMPI DUP1 PUSH4 0x893D20E8 EQ PUSH2 0x32A JUMPI DUP1 PUSH4 0x9B8163EF EQ PUSH2 0x354 JUMPI PUSH2 0x11E JUMP JUMPDEST DUP1 PUSH4 0x31B3FAC2 GT PUSH2 0xE6 JUMPI DUP1 PUSH4 0x31B3FAC2 EQ PUSH2 0x1E0 JUMPI DUP1 PUSH4 0x3922D551 EQ PUSH2 0x208 JUMPI DUP1 PUSH4 0x3FDEEC79 EQ PUSH2 0x230 JUMPI DUP1 PUSH4 0x656B6B7E EQ PUSH2 0x24C JUMPI DUP1 PUSH4 0x6997F1E2 EQ PUSH2 0x274 JUMPI PUSH2 0x11E JUMP JUMPDEST DUP1 PUSH4 0x15A0B37B EQ PUSH2 0x122 JUMPI DUP1 PUSH4 0x2057C859 EQ PUSH2 0x14A JUMPI DUP1 PUSH4 0x20DA9698 EQ PUSH2 0x172 JUMPI DUP1 PUSH4 0x253C8BD4 EQ PUSH2 0x17C JUMPI DUP1 PUSH4 0x2A663C2C EQ PUSH2 0x1A4 JUMPI JUMPDEST PUSH0 DUP1 REVERT JUMPDEST CALLVALUE DUP1 ISZERO PUSH2 0x12D JUMPI PUSH0 DUP1 REVERT JUMPDEST POP PUSH2 0x148 PUSH1 0x4 DUP1 CALLDATASIZE SUB DUP2 ADD SWAP1 PUSH2 0x143 SWAP2 SWAP1 PUSH2 0x2DCD JUMP JUMPDEST PUSH2 0x448 JUMP JUMPDEST STOP JUMPDEST CALLVALUE DUP1 ISZERO PUSH2 0x155 JUMPI PUSH0 DUP1 REVERT JUMPDEST POP PUSH2 0x170 PUSH1 0x4 DUP1 CALLDATASIZE SUB DUP2 ADD SWAP1 PUSH2 0x16B SWAP2 SWAP1 PUSH2 0x2DCD JUMP JUMPDEST PUSH2 0x609 JUMP JUMPDEST STOP JUMPDEST PUSH2 0x17A PUSH2 0x7AB JUMP JUMPDEST STOP JUMPDEST CALLVALUE DUP1 ISZERO PUSH2 0x187 JUMPI PUSH0 DUP1 REVERT JUMPDEST POP PUSH2 0x1A2 PUSH1 0x4 DUP1 CALLDATASIZE SUB DUP2 ADD SWAP1 PUSH2 0x19D SWAP2 SWAP1 PUSH2 0x2E0B JUMP JUMPDEST PUSH2 0xD8C JUMP JUMPDEST STOP JUMPDEST CALLVALUE DUP1 ISZERO PUSH2 0x1AF JUMPI PUSH0 DUP1 REVERT JUMPDEST POP PUSH2 0x1CA PUSH1 0x4 DUP1 CALLDATASIZE SUB DUP2 ADD SWAP1 PUSH2 0x1C5 SWAP2 SWAP1 PUSH2 0x2E0B JUMP JUMPDEST PUSH2 0xE5B JUMP JUMPDEST PUSH1 0x40 MLOAD PUSH2 0x1D7 SWAP2 SWAP1 PUSH2 0x2ECD JUMP JUMPDEST PUSH1 0x40 MLOAD DUP1 SWAP2 SUB SWAP1 RETURN JUMPDEST CALLVALUE DUP1 ISZERO PUSH2 0x1EB JUMPI PUSH0 DUP1 REVERT JUMPDEST POP PUSH2 0x206 PUSH1 0x4 DUP1 CALLDATASIZE SUB DUP2 ADD SWAP1 PUSH2 0x201 SWAP2 SWAP1 PUSH2 0x2F21 JUMP JUMPDEST PUSH2 0x1004 JUMP JUMPDEST STOP JUMPDEST CALLVALUE DUP1 ISZERO PUSH2 0x213 JUMPI PUSH0 DUP1 REVERT JUMPDEST POP PUSH2 0x22E PUSH1 0x4 DUP1 CALLDATASIZE SUB DUP2 ADD SWAP1 PUSH2 0x229 SWAP2 SWAP1 PUSH2 0x2E0B JUMP JUMPDEST PUSH2 0x10D8 JUMP JUMPDEST STOP JUMPDEST PUSH2 0x24A PUSH1 0x4 DUP1 CALLDATASIZE SUB DUP2 ADD SWAP1 PUSH2 0x245 SWAP2 SWAP1 PUSH2 0x2F21 JUMP JUMPDEST PUSH2 0x12DB JUMP JUMPDEST STOP JUMPDEST CALLVALUE DUP1 ISZERO PUSH2 0x257 JUMPI PUSH0 DUP1 REVERT JUMPDEST POP PUSH2 0x272 PUSH1 0x4 DUP1 CALLDATASIZE SUB DUP2 ADD SWAP1 PUSH2 0x26D SWAP2 SWAP1 PUSH2 0x2E0B JUMP JUMPDEST PUSH2 0x17AC JUMP JUMPDEST STOP JUMPDEST CALLVALUE DUP1 ISZERO PUSH2 0x27F JUMPI PUSH0 DUP1 REVERT JUMPDEST POP PUSH2 0x29A PUSH1 0x4 DUP1 CALLDATASIZE SUB DUP2 ADD SWAP1 PUSH2 0x295 SWAP2 SWAP1 PUSH2 0x2DCD JUMP JUMPDEST PUSH2 0x1965 JUMP JUMPDEST STOP JUMPDEST CALLVALUE DUP1 ISZERO PUSH2 0x2A7 JUMPI PUSH0 DUP1 REVERT JUMPDEST POP PUSH2 0x2B0 PUSH2 0x1B26 JUMP JUMPDEST PUSH1 0x40 MLOAD PUSH2 0x2BD SWAP2 SWAP1 PUSH2 0x2F5B JUMP JUMPDEST PUSH1 0x40 MLOAD DUP1 SWAP2 SUB SWAP1 RETURN JUMPDEST CALLVALUE DUP1 ISZERO PUSH2 0x2D1 JUMPI PUSH0 DUP1 REVERT JUMPDEST POP PUSH2 0x2EC PUSH1 0x4 DUP1 CALLDATASIZE SUB DUP2 ADD SWAP1 PUSH2 0x2E7 SWAP2 SWAP1 PUSH2 0x2E0B JUMP JUMPDEST PUSH2 0x1D6D JUMP JUMPDEST PUSH1 0x40 MLOAD PUSH2 0x2F9 SWAP2 SWAP1 PUSH2 0x2F83 JUMP JUMPDEST PUSH1 0x40 MLOAD DUP1 SWAP2 SUB SWAP1 RETURN JUMPDEST CALLVALUE DUP1 ISZERO PUSH2 0x30D JUMPI PUSH0 DUP1 REVERT JUMPDEST POP PUSH2 0x328 PUSH1 0x4 DUP1 CALLDATASIZE SUB DUP2 ADD SWAP1 PUSH2 0x323 SWAP2 SWAP1 PUSH2 0x2DCD JUMP JUMPDEST PUSH2 0x1EA0 JUMP JUMPDEST STOP JUMPDEST CALLVALUE DUP1 ISZERO PUSH2 0x335 JUMPI PUSH0 DUP1 REVERT JUMPDEST POP PUSH2 0x33E PUSH2 0x2042 JUMP JUMPDEST PUSH1 0x40 MLOAD PUSH2 0x34B SWAP2 SWAP1 PUSH2 0x2F83 JUMP JUMPDEST PUSH1 0x40 MLOAD DUP1 SWAP2 SUB SWAP1 RETURN JUMPDEST CALLVALUE DUP1 ISZERO PUSH2 0x35F JUMPI PUSH0 DUP1 REVERT JUMPDEST POP PUSH2 0x37A PUSH1 0x4 DUP1 CALLDATASIZE SUB DUP2 ADD SWAP1 PUSH2 0x375 SWAP2 SWAP1 PUSH2 0x2F21 JUMP JUMPDEST PUSH2 0x2069 JUMP JUMPDEST STOP JUMPDEST CALLVALUE DUP1 ISZERO PUSH2 0x387 JUMPI PUSH0 DUP1 REVERT JUMPDEST POP PUSH2 0x3A2 PUSH1 0x4 DUP1 CALLDATASIZE SUB DUP2 ADD SWAP1 PUSH2 0x39D SWAP2 SWAP1 PUSH2 0x2E0B JUMP JUMPDEST PUSH2 0x2139 JUMP JUMPDEST PUSH1 0x40 MLOAD PUSH2 0x3AF SWAP2 SWAP1 PUSH2 0x2F5B JUMP JUMPDEST PUSH1 0x40 MLOAD DUP1 SWAP2 SUB SWAP1 RETURN JUMPDEST PUSH2 0x3D2 PUSH1 0x4 DUP1 CALLDATASIZE SUB DUP2 ADD SWAP1 PUSH2 0x3CD SWAP2 SWAP1 PUSH2 0x2E0B JUMP JUMPDEST PUSH2 0x224E JUMP JUMPDEST STOP JUMPDEST PUSH2 0x3EE PUSH1 0x4 DUP1 CALLDATASIZE SUB DUP2 ADD SWAP1 PUSH2 0x3E9 SWAP2 SWAP1 PUSH2 0x2E0B JUMP JUMPDEST PUSH2 0x254B JUMP JUMPDEST STOP JUMPDEST PUSH2 0x40A PUSH1 0x4 DUP1 CALLDATASIZE SUB DUP2 ADD SWAP1 PUSH2 0x405 SWAP2 SWAP1 PUSH2 0x2E0B JUMP JUMPDEST PUSH2 0x2985 JUMP JUMPDEST STOP JUMPDEST CALLVALUE DUP1 ISZERO PUSH2 0x417 JUMPI PUSH0 DUP1 REVERT JUMPDEST POP PUSH2 0x432 PUSH1 0x4 DUP1 CALLDATASIZE SUB DUP2 ADD SWAP1 PUSH2 0x42D SWAP2 SWAP1 PUSH2 0x2E0B JUMP JUMPDEST PUSH2 0x2B96 JUMP JUMPDEST PUSH1 0x40 MLOAD PUSH2 0x43F SWAP2 SWAP1 PUSH2 0x2F5B JUMP JUMPDEST PUSH1 0x40 MLOAD DUP1 SWAP2 SUB SWAP1 RETURN JUMPDEST CALLER PUSH20 0xFFFFFFFFFFFFFFFFFFFFFFFFFFFFFFFFFFFFFFFF AND PUSH0 DUP1 SLOAD SWAP1 PUSH2 0x100 EXP SWAP1 DIV PUSH20 0xFFFFFFFFFFFFFFFFFFFFFFFFFFFFFFFFFFFFFFFF AND PUSH20 0xFFFFFFFFFFFFFFFFFFFFFFFFFFFFFFFFFFFFFFFF AND EQ PUSH2 0x4D5 JUMPI PUSH1 0x40 MLOAD PUSH32 0x8C379A000000000000000000000000000000000000000000000000000000000 DUP2 MSTORE PUSH1 0x4 ADD PUSH2 0x4CC SWAP1 PUSH2 0x301C JUMP JUMPDEST PUSH1 0x40 MLOAD DUP1 SWAP2 SUB SWAP1 REVERT JUMPDEST PUSH0 PUSH20 0xFFFFFFFFFFFFFFFFFFFFFFFFFFFFFFFFFFFFFFFF AND PUSH1 0x8 PUSH0 DUP5 PUSH20 0xFFFFFFFFFFFFFFFFFFFFFFFFFFFFFFFFFFFFFFFF AND PUSH20 0xFFFFFFFFFFFFFFFFFFFFFFFFFFFFFFFFFFFFFFFF AND DUP2 MSTORE PUSH1 0x20 ADD SWAP1 DUP2 MSTORE PUSH1 0x20 ADD PUSH0 KECCAK256 PUSH0 ADD PUSH0 SWAP1 SLOAD SWAP1 PUSH2 0x100 EXP SWAP1 DIV PUSH20 0xFFFFFFFFFFFFFFFFFFFFFFFFFFFFFFFFFFFFFFFF AND PUSH20 0xFFFFFFFFFFFFFFFFFFFFFFFFFFFFFFFFFFFFFFFF AND SUB PUSH2 0x5A1 JUMPI PUSH1 0x40 MLOAD PUSH32 0x8C379A000000000000000000000000000000000000000000000000000000000 DUP2 MSTORE PUSH1 0x4 ADD PUSH2 0x598 SWAP1 PUSH2 0x3084 JUMP JUMPDEST PUSH1 0x40 MLOAD DUP1 SWAP2 SUB SWAP1 REVERT JUMPDEST PUSH3 0x15180 DUP2 PUSH2 0x5B0 SWAP2 SWAP1 PUSH2 0x30CF JUMP JUMPDEST PUSH1 0x8 PUSH0 DUP5 PUSH20 0xFFFFFFFFFFFFFFFFFFFFFFFFFFFFFFFFFFFFFFFF AND PUSH20 0xFFFFFFFFFFFFFFFFFFFFFFFFFFFFFFFFFFFFFFFF AND DUP2 MSTORE PUSH1 0x20 ADD SWAP1 DUP2 MSTORE PUSH1 0x20 ADD PUSH0 KECCAK256 PUSH1 0x3 ADD PUSH0 DUP3 DUP3 SLOAD PUSH2 0x5FE SWAP2 SWAP1 PUSH2 0x3110 JUMP JUMPDEST SWAP3 POP POP DUP2 SWAP1 SSTORE POP POP POP JUMP JUMPDEST CALLER PUSH20 0xFFFFFFFFFFFFFFFFFFFFFFFFFFFFFFFFFFFFFFFF AND PUSH0 DUP1 SLOAD SWAP1 PUSH2 0x100 EXP SWAP1 DIV PUSH20 0xFFFFFFFFFFFFFFFFFFFFFFFFFFFFFFFFFFFFFFFF AND PUSH20 0xFFFFFFFFFFFFFFFFFFFFFFFFFFFFFFFFFFFFFFFF AND EQ PUSH2 0x696 JUMPI PUSH1 0x40 MLOAD PUSH32 0x8C379A000000000000000000000000000000000000000000000000000000000 DUP2 MSTORE PUSH1 0x4 ADD PUSH2 0x68D SWAP1 PUSH2 0x301C JUMP JUMPDEST PUSH1 0x40 MLOAD DUP1 SWAP2 SUB SWAP1 REVERT JUMPDEST PUSH0 PUSH20 0xFFFFFFFFFFFFFFFFFFFFFFFFFFFFFFFFFFFFFFFF AND PUSH1 0x8 PUSH0 DUP5 PUSH20 0xFFFFFFFFFFFFFFFFFFFFFFFFFFFFFFFFFFFFFFFF AND PUSH20 0xFFFFFFFFFFFFFFFFFFFFFFFFFFFFFFFFFFFFFFFF AND DUP2 MSTORE PUSH1 0x20 ADD SWAP1 DUP2 MSTORE PUSH1 0x20 ADD PUSH0 KECCAK256 PUSH0 ADD PUSH0 SWAP1 SLOAD SWAP1 PUSH2 0x100 EXP SWAP1 DIV PUSH20 0xFFFFFFFFFFFFFFFFFFFFFFFFFFFFFFFFFFFFFFFF AND PUSH20 0xFFFFFFFFFFFFFFFFFFFFFFFFFFFFFFFFFFFFFFFF AND SUB PUSH2 0x762 JUMPI PUSH1 0x40 MLOAD PUSH32 0x8C379A000000000000000000000000000000000000000000000000000000000 DUP2 MSTORE PUSH1 0x4 ADD PUSH2 0x759 SWAP1 PUSH2 0x3084 JUMP JUMPDEST PUSH1 0x40 MLOAD DUP1 SWAP2 SUB SWAP1 REVERT JUMPDEST DUP1 PUSH1 0x8 PUSH0 DUP5 PUSH20 0xFFFFFFFFFFFFFFFFFFFFFFFFFFFFFFFFFFFFFFFF AND PUSH20 0xFFFFFFFFFFFFFFFFFFFFFFFFFFFFFFFFFFFFFFFF AND DUP2 MSTORE PUSH1 0x20 ADD SWAP1 DUP2 MSTORE PUSH1 0x20 ADD PUSH0 KECCAK256 PUSH1 0x2 ADD DUP2 SWAP1 SSTORE POP POP POP JUMP JUMPDEST CALLER PUSH20 0xFFFFFFFFFFFFFFFFFFFFFFFFFFFFFFFFFFFFFFFF AND PUSH0 DUP1 SLOAD SWAP1 PUSH2 0x100 EXP SWAP1 DIV PUSH20 0xFFFFFFFFFFFFFFFFFFFFFFFFFFFFFFFFFFFFFFFF AND PUSH20 0xFFFFFFFFFFFFFFFFFFFFFFFFFFFFFFFFFFFFFFFF AND EQ PUSH2 0x838 JUMPI PUSH1 0x40 MLOAD PUSH32 0x8C379A000000000000000000000000000000000000000000000000000000000 DUP2 MSTORE PUSH1 0x4 ADD PUSH2 0x82F SWAP1 PUSH2 0x301C JUMP JUMPDEST PUSH1 0x40 MLOAD DUP1 SWAP2 SUB SWAP1 REVERT JUMPDEST PUSH0 CALLVALUE GT PUSH2 0x87A JUMPI PUSH1 0x40 MLOAD PUSH32 0x8C379A000000000000000000000000000000000000000000000000000000000 DUP2 MSTORE PUSH1 0x4 ADD PUSH2 0x871 SWAP1 PUSH2 0x318D JUMP JUMPDEST PUSH1 0x40 MLOAD DUP1 SWAP2 SUB SWAP1 REVERT JUMPDEST PUSH0 PUSH2 0x883 PUSH2 0x1B26 JUMP JUMPDEST SWAP1 POP PUSH0 JUMPDEST PUSH1 0x4 SLOAD DUP2 LT ISZERO PUSH2 0xD81 JUMPI PUSH0 DUP1 PUSH1 0x8 PUSH0 PUSH1 0x6 DUP6 DUP2 SLOAD DUP2 LT PUSH2 0x8AA JUMPI PUSH2 0x8A9 PUSH2 0x31AB JUMP JUMPDEST JUMPDEST SWAP1 PUSH0 MSTORE PUSH1 0x20 PUSH0 KECCAK256 ADD PUSH0 SWAP1 SLOAD SWAP1 PUSH2 0x100 EXP SWAP1 DIV PUSH20 0xFFFFFFFFFFFFFFFFFFFFFFFFFFFFFFFFFFFFFFFF AND PUSH20 0xFFFFFFFFFFFFFFFFFFFFFFFFFFFFFFFFFFFFFFFF AND PUSH20 0xFFFFFFFFFFFFFFFFFFFFFFFFFFFFFFFFFFFFFFFF AND DUP2 MSTORE PUSH1 0x20 ADD SWAP1 DUP2 MSTORE PUSH1 0x20 ADD PUSH0 KECCAK256 PUSH1 0x1 ADD SLOAD EQ ISZERO DUP1 ISZERO PUSH2 0x99A JUMPI POP PUSH1 0x8 PUSH0 PUSH1 0x6 DUP5 DUP2 SLOAD DUP2 LT PUSH2 0x92F JUMPI PUSH2 0x92E PUSH2 0x31AB JUMP JUMPDEST JUMPDEST SWAP1 PUSH0 MSTORE PUSH1 0x20 PUSH0 KECCAK256 ADD PUSH0 SWAP1 SLOAD SWAP1 PUSH2 0x100 EXP SWAP1 DIV PUSH20 0xFFFFFFFFFFFFFFFFFFFFFFFFFFFFFFFFFFFFFFFF AND PUSH20 0xFFFFFFFFFFFFFFFFFFFFFFFFFFFFFFFFFFFFFFFF AND PUSH20 0xFFFFFFFFFFFFFFFFFFFFFFFFFFFFFFFFFFFFFFFF AND DUP2 MSTORE PUSH1 0x20 ADD SWAP1 DUP2 MSTORE PUSH1 0x20 ADD PUSH0 KECCAK256 PUSH1 0x3 ADD SLOAD PUSH1 0x5 SLOAD LT ISZERO JUMPDEST ISZERO PUSH2 0xA1E JUMPI PUSH1 0x8 PUSH0 PUSH1 0x6 DUP5 DUP2 SLOAD DUP2 LT PUSH2 0x9B6 JUMPI PUSH2 0x9B5 PUSH2 0x31AB JUMP JUMPDEST JUMPDEST SWAP1 PUSH0 MSTORE PUSH1 0x20 PUSH0 KECCAK256 ADD PUSH0 SWAP1 SLOAD SWAP1 PUSH2 0x100 EXP SWAP1 DIV PUSH20 0xFFFFFFFFFFFFFFFFFFFFFFFFFFFFFFFFFFFFFFFF AND PUSH20 0xFFFFFFFFFFFFFFFFFFFFFFFFFFFFFFFFFFFFFFFF AND PUSH20 0xFFFFFFFFFFFFFFFFFFFFFFFFFFFFFFFFFFFFFFFF AND DUP2 MSTORE PUSH1 0x20 ADD SWAP1 DUP2 MSTORE PUSH1 0x20 ADD PUSH0 KECCAK256 PUSH1 0x1 ADD SLOAD SWAP1 POP JUMPDEST PUSH0 PUSH1 0x8 PUSH0 PUSH1 0x6 DUP6 DUP2 SLOAD DUP2 LT PUSH2 0xA36 JUMPI PUSH2 0xA35 PUSH2 0x31AB JUMP JUMPDEST JUMPDEST SWAP1 PUSH0 MSTORE PUSH1 0x20 PUSH0 KECCAK256 ADD PUSH0 SWAP1 SLOAD SWAP1 PUSH2 0x100 EXP SWAP1 DIV PUSH20 0xFFFFFFFFFFFFFFFFFFFFFFFFFFFFFFFFFFFFFFFF AND PUSH20 0xFFFFFFFFFFFFFFFFFFFFFFFFFFFFFFFFFFFFFFFF AND PUSH20 0xFFFFFFFFFFFFFFFFFFFFFFFFFFFFFFFFFFFFFFFF AND DUP2 MSTORE PUSH1 0x20 ADD SWAP1 DUP2 MSTORE PUSH1 0x20 ADD PUSH0 KECCAK256 PUSH1 0x2 ADD SLOAD EQ PUSH2 0xC2D JUMPI PUSH1 0x8 PUSH0 PUSH1 0x6 DUP5 DUP2 SLOAD DUP2 LT PUSH2 0xAB7 JUMPI PUSH2 0xAB6 PUSH2 0x31AB JUMP JUMPDEST JUMPDEST SWAP1 PUSH0 MSTORE PUSH1 0x20 PUSH0 KECCAK256 ADD PUSH0 SWAP1 SLOAD SWAP1 PUSH2 0x100 EXP SWAP1 DIV PUSH20 0xFFFFFFFFFFFFFFFFFFFFFFFFFFFFFFFFFFFFFFFF AND PUSH20 0xFFFFFFFFFFFFFFFFFFFFFFFFFFFFFFFFFFFFFFFF AND PUSH20 0xFFFFFFFFFFFFFFFFFFFFFFFFFFFFFFFFFFFFFFFF AND DUP2 MSTORE PUSH1 0x20 ADD SWAP1 DUP2 MSTORE PUSH1 0x20 ADD PUSH0 KECCAK256 PUSH1 0x2 ADD SLOAD PUSH1 0x8 PUSH0 PUSH1 0x6 DUP6 DUP2 SLOAD DUP2 LT PUSH2 0xB33 JUMPI PUSH2 0xB32 PUSH2 0x31AB JUMP JUMPDEST JUMPDEST SWAP1 PUSH0 MSTORE PUSH1 0x20 PUSH0 KECCAK256 ADD PUSH0 SWAP1 SLOAD SWAP1 PUSH2 0x100 EXP SWAP1 DIV PUSH20 0xFFFFFFFFFFFFFFFFFFFFFFFFFFFFFFFFFFFFFFFF AND PUSH20 0xFFFFFFFFFFFFFFFFFFFFFFFFFFFFFFFFFFFFFFFF AND PUSH20 0xFFFFFFFFFFFFFFFFFFFFFFFFFFFFFFFFFFFFFFFF AND DUP2 MSTORE PUSH1 0x20 ADD SWAP1 DUP2 MSTORE PUSH1 0x20 ADD PUSH0 KECCAK256 PUSH1 0x1 ADD PUSH0 DUP3 DUP3 SLOAD PUSH2 0xBA5 SWAP2 SWAP1 PUSH2 0x3110 JUMP JUMPDEST SWAP3 POP POP DUP2 SWAP1 SSTORE POP PUSH0 PUSH1 0x8 PUSH0 PUSH1 0x6 DUP6 DUP2 SLOAD DUP2 LT PUSH2 0xBC4 JUMPI PUSH2 0xBC3 PUSH2 0x31AB JUMP JUMPDEST JUMPDEST SWAP1 PUSH0 MSTORE PUSH1 0x20 PUSH0 KECCAK256 ADD PUSH0 SWAP1 SLOAD SWAP1 PUSH2 0x100 EXP SWAP1 DIV PUSH20 0xFFFFFFFFFFFFFFFFFFFFFFFFFFFFFFFFFFFFFFFF AND PUSH20 0xFFFFFFFFFFFFFFFFFFFFFFFFFFFFFFFFFFFFFFFF AND PUSH20 0xFFFFFFFFFFFFFFFFFFFFFFFFFFFFFFFFFFFFFFFF AND DUP2 MSTORE PUSH1 0x20 ADD SWAP1 DUP2 MSTORE PUSH1 0x20 ADD PUSH0 KECCAK256 PUSH1 0x2 ADD DUP2 SWAP1 SSTORE POP JUMPDEST PUSH0 DUP2 SUB PUSH2 0xC3A JUMPI POP PUSH2 0xD74 JUMP JUMPDEST PUSH0 DUP4 CALLVALUE DUP4 PUSH2 0xC48 SWAP2 SWAP1 PUSH2 0x30CF JUMP JUMPDEST PUSH2 0xC52 SWAP2 SWAP1 PUSH2 0x3205 JUMP JUMPDEST SWAP1 POP PUSH0 PUSH1 0x8 PUSH0 PUSH1 0x6 DUP7 DUP2 SLOAD DUP2 LT PUSH2 0xC6C JUMPI PUSH2 0xC6B PUSH2 0x31AB JUMP JUMPDEST JUMPDEST SWAP1 PUSH0 MSTORE PUSH1 0x20 PUSH0 KECCAK256 ADD PUSH0 SWAP1 SLOAD SWAP1 PUSH2 0x100 EXP SWAP1 DIV PUSH20 0xFFFFFFFFFFFFFFFFFFFFFFFFFFFFFFFFFFFFFFFF AND PUSH20 0xFFFFFFFFFFFFFFFFFFFFFFFFFFFFFFFFFFFFFFFF AND PUSH20 0xFFFFFFFFFFFFFFFFFFFFFFFFFFFFFFFFFFFFFFFF AND DUP2 MSTORE PUSH1 0x20 ADD SWAP1 DUP2 MSTORE PUSH1 0x20 ADD PUSH0 KECCAK256 PUSH0 ADD PUSH0 SWAP1 SLOAD SWAP1 PUSH2 0x100 EXP SWAP1 DIV PUSH20 0xFFFFFFFFFFFFFFFFFFFFFFFFFFFFFFFFFFFFFFFF AND SWAP1 POP DUP1 PUSH20 0xFFFFFFFFFFFFFFFFFFFFFFFFFFFFFFFFFFFFFFFF AND PUSH2 0x8FC DUP4 SWAP1 DUP2 ISZERO MUL SWAP1 PUSH1 0x40 MLOAD PUSH0 PUSH1 0x40 MLOAD DUP1 DUP4 SUB DUP2 DUP6 DUP9 DUP9 CALL SWAP4 POP POP POP POP ISZERO DUP1 ISZERO PUSH2 0xD34 JUMPI RETURNDATASIZE PUSH0 DUP1 RETURNDATACOPY RETURNDATASIZE PUSH0 REVERT JUMPDEST POP PUSH32 0xD8E54F1DC02CC5A9165E48BB0C19D3DC0D14902829BC2C791083D3180150F1DE DUP2 DUP4 DUP6 PUSH1 0x40 MLOAD PUSH2 0xD68 SWAP4 SWAP3 SWAP2 SWAP1 PUSH2 0x3290 JUMP JUMPDEST PUSH1 0x40 MLOAD DUP1 SWAP2 SUB SWAP1 LOG1 POP POP POP JUMPDEST DUP1 DUP1 PUSH1 0x1 ADD SWAP2 POP POP PUSH2 0x887 JUMP JUMPDEST POP TIMESTAMP PUSH1 0x5 DUP2 SWAP1 SSTORE POP POP JUMP JUMPDEST CALLER PUSH20 0xFFFFFFFFFFFFFFFFFFFFFFFFFFFFFFFFFFFFFFFF AND PUSH0 DUP1 SLOAD SWAP1 PUSH2 0x100 EXP SWAP1 DIV PUSH20 0xFFFFFFFFFFFFFFFFFFFFFFFFFFFFFFFFFFFFFFFF AND PUSH20 0xFFFFFFFFFFFFFFFFFFFFFFFFFFFFFFFFFFFFFFFF AND EQ PUSH2 0xE19 JUMPI PUSH1 0x40 MLOAD PUSH32 0x8C379A000000000000000000000000000000000000000000000000000000000 DUP2 MSTORE PUSH1 0x4 ADD PUSH2 0xE10 SWAP1 PUSH2 0x301C JUMP JUMPDEST PUSH1 0x40 MLOAD DUP1 SWAP2 SUB SWAP1 REVERT JUMPDEST DUP1 PUSH0 DUP1 PUSH2 0x100 EXP DUP2 SLOAD DUP2 PUSH20 0xFFFFFFFFFFFFFFFFFFFFFFFFFFFFFFFFFFFFFFFF MUL NOT AND SWAP1 DUP4 PUSH20 0xFFFFFFFFFFFFFFFFFFFFFFFFFFFFFFFFFFFFFFFF AND MUL OR SWAP1 SSTORE POP POP JUMP JUMPDEST PUSH2 0xE63 PUSH2 0x2CF6 JUMP JUMPDEST PUSH0 PUSH20 0xFFFFFFFFFFFFFFFFFFFFFFFFFFFFFFFFFFFFFFFF AND PUSH1 0x8 PUSH0 DUP5 PUSH20 0xFFFFFFFFFFFFFFFFFFFFFFFFFFFFFFFFFFFFFFFF AND PUSH20 0xFFFFFFFFFFFFFFFFFFFFFFFFFFFFFFFFFFFFFFFF AND DUP2 MSTORE PUSH1 0x20 ADD SWAP1 DUP2 MSTORE PUSH1 0x20 ADD PUSH0 KECCAK256 PUSH0 ADD PUSH0 SWAP1 SLOAD SWAP1 PUSH2 0x100 EXP SWAP1 DIV PUSH20 0xFFFFFFFFFFFFFFFFFFFFFFFFFFFFFFFFFFFFFFFF AND PUSH20 0xFFFFFFFFFFFFFFFFFFFFFFFFFFFFFFFFFFFFFFFF AND SUB PUSH2 0xF2F JUMPI PUSH1 0x40 MLOAD PUSH32 0x8C379A000000000000000000000000000000000000000000000000000000000 DUP2 MSTORE PUSH1 0x4 ADD PUSH2 0xF26 SWAP1 PUSH2 0x3084 JUMP JUMPDEST PUSH1 0x40 MLOAD DUP1 SWAP2 SUB SWAP1 REVERT JUMPDEST PUSH1 0x8 PUSH0 DUP4 PUSH20 0xFFFFFFFFFFFFFFFFFFFFFFFFFFFFFFFFFFFFFFFF AND PUSH20 0xFFFFFFFFFFFFFFFFFFFFFFFFFFFFFFFFFFFFFFFF AND DUP2 MSTORE PUSH1 0x20 ADD SWAP1 DUP2 MSTORE PUSH1 0x20 ADD PUSH0 KECCAK256 PUSH1 0x40 MLOAD DUP1 PUSH1 0xC0 ADD PUSH1 0x40 MSTORE SWAP1 DUP2 PUSH0 DUP3 ADD PUSH0 SWAP1 SLOAD SWAP1 PUSH2 0x100 EXP SWAP1 DIV PUSH20 0xFFFFFFFFFFFFFFFFFFFFFFFFFFFFFFFFFFFFFFFF AND PUSH20 0xFFFFFFFFFFFFFFFFFFFFFFFFFFFFFFFFFFFFFFFF AND PUSH20 0xFFFFFFFFFFFFFFFFFFFFFFFFFFFFFFFFFFFFFFFF AND DUP2 MSTORE PUSH1 0x20 ADD PUSH1 0x1 DUP3 ADD SLOAD DUP2 MSTORE PUSH1 0x20 ADD PUSH1 0x2 DUP3 ADD SLOAD DUP2 MSTORE PUSH1 0x20 ADD PUSH1 0x3 DUP3 ADD SLOAD DUP2 MSTORE PUSH1 0x20 ADD PUSH1 0x4 DUP3 ADD SLOAD DUP2 MSTORE PUSH1 0x20 ADD PUSH1 0x5 DUP3 ADD SLOAD DUP2 MSTORE POP POP SWAP1 POP SWAP2 SWAP1 POP JUMP JUMPDEST CALLER PUSH20 0xFFFFFFFFFFFFFFFFFFFFFFFFFFFFFFFFFFFFFFFF AND PUSH0 DUP1 SLOAD SWAP1 PUSH2 0x100 EXP SWAP1 DIV PUSH20 0xFFFFFFFFFFFFFFFFFFFFFFFFFFFFFFFFFFFFFFFF AND PUSH20 0xFFFFFFFFFFFFFFFFFFFFFFFFFFFFFFFFFFFFFFFF AND EQ PUSH2 0x1091 JUMPI PUSH1 0x40 MLOAD PUSH32 0x8C379A000000000000000000000000000000000000000000000000000000000 DUP2 MSTORE PUSH1 0x4 ADD PUSH2 0x1088 SWAP1 PUSH2 0x301C JUMP JUMPDEST PUSH1 0x40 MLOAD DUP1 SWAP2 SUB SWAP1 REVERT JUMPDEST DUP1 PUSH20 0xFFFFFFFFFFFFFFFFFFFFFFFFFFFFFFFFFFFFFFFF AND PUSH2 0x8FC SELFBALANCE SWAP1 DUP2 ISZERO MUL SWAP1 PUSH1 0x40 MLOAD PUSH0 PUSH1 0x40 MLOAD DUP1 DUP4 SUB DUP2 DUP6 DUP9 DUP9 CALL SWAP4 POP POP POP POP ISZERO DUP1 ISZERO PUSH2 0x10D4 JUMPI RETURNDATASIZE PUSH0 DUP1 RETURNDATACOPY RETURNDATASIZE PUSH0 REVERT JUMPDEST POP POP JUMP JUMPDEST PUSH0 PUSH20 0xFFFFFFFFFFFFFFFFFFFFFFFFFFFFFFFFFFFFFFFF AND PUSH1 0x2 PUSH0 CALLER PUSH20 0xFFFFFFFFFFFFFFFFFFFFFFFFFFFFFFFFFFFFFFFF AND PUSH20 0xFFFFFFFFFFFFFFFFFFFFFFFFFFFFFFFFFFFFFFFF AND DUP2 MSTORE PUSH1 0x20 ADD SWAP1 DUP2 MSTORE PUSH1 0x20 ADD PUSH0 KECCAK256 PUSH0 ADD PUSH0 SWAP1 SLOAD SWAP1 PUSH2 0x100 EXP SWAP1 DIV PUSH20 0xFFFFFFFFFFFFFFFFFFFFFFFFFFFFFFFFFFFFFFFF AND PUSH20 0xFFFFFFFFFFFFFFFFFFFFFFFFFFFFFFFFFFFFFFFF AND SUB PUSH2 0x11A4 JUMPI PUSH1 0x40 MLOAD PUSH32 0x8C379A000000000000000000000000000000000000000000000000000000000 DUP2 MSTORE PUSH1 0x4 ADD PUSH2 0x119B SWAP1 PUSH2 0x3335 JUMP JUMPDEST PUSH1 0x40 MLOAD DUP1 SWAP2 SUB SWAP1 REVERT JUMPDEST PUSH1 0x40 MLOAD DUP1 PUSH1 0x40 ADD PUSH1 0x40 MSTORE DUP1 DUP3 PUSH20 0xFFFFFFFFFFFFFFFFFFFFFFFFFFFFFFFFFFFFFFFF AND DUP2 MSTORE PUSH1 0x20 ADD PUSH1 0x3 SLOAD DUP2 MSTORE POP PUSH1 0x2 PUSH0 DUP4 PUSH20 0xFFFFFFFFFFFFFFFFFFFFFFFFFFFFFFFFFFFFFFFF AND PUSH20 0xFFFFFFFFFFFFFFFFFFFFFFFFFFFFFFFFFFFFFFFF AND DUP2 MSTORE PUSH1 0x20 ADD SWAP1 DUP2 MSTORE PUSH1 0x20 ADD PUSH0 KECCAK256 PUSH0 DUP3 ADD MLOAD DUP2 PUSH0 ADD PUSH0 PUSH2 0x100 EXP DUP2 SLOAD DUP2 PUSH20 0xFFFFFFFFFFFFFFFFFFFFFFFFFFFFFFFFFFFFFFFF MUL NOT AND SWAP1 DUP4 PUSH20 0xFFFFFFFFFFFFFFFFFFFFFFFFFFFFFFFFFFFFFFFF AND MUL OR SWAP1 SSTORE POP PUSH1 0x20 DUP3 ADD MLOAD DUP2 PUSH1 0x1 ADD SSTORE SWAP1 POP POP PUSH1 0x1 DUP2 SWAP1 DUP1 PUSH1 0x1 DUP2 SLOAD ADD DUP1 DUP3 SSTORE DUP1 SWAP2 POP POP PUSH1 0x1 SWAP1 SUB SWAP1 PUSH0 MSTORE PUSH1 0x20 PUSH0 KECCAK256 ADD PUSH0 SWAP1 SWAP2 SWAP1 SWAP2 SWAP1 SWAP2 PUSH2 0x100 EXP DUP2 SLOAD DUP2 PUSH20 0xFFFFFFFFFFFFFFFFFFFFFFFFFFFFFFFFFFFFFFFF MUL NOT AND SWAP1 DUP4 PUSH20 0xFFFFFFFFFFFFFFFFFFFFFFFFFFFFFFFFFFFFFFFF AND MUL OR SWAP1 SSTORE POP PUSH1 0x1 PUSH1 0x3 PUSH0 DUP3 DUP3 SLOAD PUSH2 0x12D1 SWAP2 SWAP1 PUSH2 0x3110 JUMP JUMPDEST SWAP3 POP POP DUP2 SWAP1 SSTORE POP POP JUMP JUMPDEST PUSH0 PUSH20 0xFFFFFFFFFFFFFFFFFFFFFFFFFFFFFFFFFFFFFFFF AND PUSH1 0x2 PUSH0 CALLER PUSH20 0xFFFFFFFFFFFFFFFFFFFFFFFFFFFFFFFFFFFFFFFF AND PUSH20 0xFFFFFFFFFFFFFFFFFFFFFFFFFFFFFFFFFFFFFFFF AND DUP2 MSTORE PUSH1 0x20 ADD SWAP1 DUP2 MSTORE PUSH1 0x20 ADD PUSH0 KECCAK256 PUSH0 ADD PUSH0 SWAP1 SLOAD SWAP1 PUSH2 0x100 EXP SWAP1 DIV PUSH20 0xFFFFFFFFFFFFFFFFFFFFFFFFFFFFFFFFFFFFFFFF AND PUSH20 0xFFFFFFFFFFFFFFFFFFFFFFFFFFFFFFFFFFFFFFFF AND SUB PUSH2 0x13A7 JUMPI PUSH1 0x40 MLOAD PUSH32 0x8C379A000000000000000000000000000000000000000000000000000000000 DUP2 MSTORE PUSH1 0x4 ADD PUSH2 0x139E SWAP1 PUSH2 0x3335 JUMP JUMPDEST PUSH1 0x40 MLOAD DUP1 SWAP2 SUB SWAP1 REVERT JUMPDEST PUSH0 PUSH20 0xFFFFFFFFFFFFFFFFFFFFFFFFFFFFFFFFFFFFFFFF AND PUSH1 0x8 PUSH0 DUP4 PUSH20 0xFFFFFFFFFFFFFFFFFFFFFFFFFFFFFFFFFFFFFFFF AND PUSH20 0xFFFFFFFFFFFFFFFFFFFFFFFFFFFFFFFFFFFFFFFF AND DUP2 MSTORE PUSH1 0x20 ADD SWAP1 DUP2 MSTORE PUSH1 0x20 ADD PUSH0 KECCAK256 PUSH0 ADD PUSH0 SWAP1 SLOAD SWAP1 PUSH2 0x100 EXP SWAP1 DIV PUSH20 0xFFFFFFFFFFFFFFFFFFFFFFFFFFFFFFFFFFFFFFFF AND PUSH20 0xFFFFFFFFFFFFFFFFFFFFFFFFFFFFFFFFFFFFFFFF AND SUB PUSH2 0x1473 JUMPI PUSH1 0x40 MLOAD PUSH32 0x8C379A000000000000000000000000000000000000000000000000000000000 DUP2 MSTORE PUSH1 0x4 ADD PUSH2 0x146A SWAP1 PUSH2 0x3084 JUMP JUMPDEST PUSH1 0x40 MLOAD DUP1 SWAP2 SUB SWAP1 REVERT JUMPDEST PUSH1 0x8 PUSH0 DUP3 PUSH20 0xFFFFFFFFFFFFFFFFFFFFFFFFFFFFFFFFFFFFFFFF AND PUSH20 0xFFFFFFFFFFFFFFFFFFFFFFFFFFFFFFFFFFFFFFFF AND DUP2 MSTORE PUSH1 0x20 ADD SWAP1 DUP2 MSTORE PUSH1 0x20 ADD PUSH0 KECCAK256 PUSH1 0x2 ADD SLOAD PUSH1 0x8 PUSH0 DUP4 PUSH20 0xFFFFFFFFFFFFFFFFFFFFFFFFFFFFFFFFFFFFFFFF AND PUSH20 0xFFFFFFFFFFFFFFFFFFFFFFFFFFFFFFFFFFFFFFFF AND DUP2 MSTORE PUSH1 0x20 ADD SWAP1 DUP2 MSTORE PUSH1 0x20 ADD PUSH0 KECCAK256 PUSH1 0x1 ADD SLOAD PUSH2 0x14FF SWAP2 SWAP1 PUSH2 0x3110 JUMP JUMPDEST CALLVALUE LT ISZERO PUSH2 0x1541 JUMPI PUSH1 0x40 MLOAD PUSH32 0x8C379A000000000000000000000000000000000000000000000000000000000 DUP2 MSTORE PUSH1 0x4 ADD PUSH2 0x1538 SWAP1 PUSH2 0x33C3 JUMP JUMPDEST PUSH1 0x40 MLOAD DUP1 SWAP2 SUB SWAP1 REVERT JUMPDEST PUSH0 PUSH1 0x8 PUSH0 DUP4 PUSH20 0xFFFFFFFFFFFFFFFFFFFFFFFFFFFFFFFFFFFFFFFF AND PUSH20 0xFFFFFFFFFFFFFFFFFFFFFFFFFFFFFFFFFFFFFFFF AND DUP2 MSTORE PUSH1 0x20 ADD SWAP1 DUP2 MSTORE PUSH1 0x20 ADD PUSH0 KECCAK256 PUSH1 0x2 ADD SLOAD PUSH1 0x8 PUSH0 DUP5 PUSH20 0xFFFFFFFFFFFFFFFFFFFFFFFFFFFFFFFFFFFFFFFF AND PUSH20 0xFFFFFFFFFFFFFFFFFFFFFFFFFFFFFFFFFFFFFFFF AND DUP2 MSTORE PUSH1 0x20 ADD SWAP1 DUP2 MSTORE PUSH1 0x20 ADD PUSH0 KECCAK256 PUSH1 0x1 ADD SLOAD PUSH2 0x15CE SWAP2 SWAP1 PUSH2 0x3110 JUMP JUMPDEST EQ PUSH2 0x16A3 JUMPI DUP1 PUSH20 0xFFFFFFFFFFFFFFFFFFFFFFFFFFFFFFFFFFFFFFFF AND PUSH2 0x8FC PUSH1 0x8 PUSH0 DUP5 PUSH20 0xFFFFFFFFFFFFFFFFFFFFFFFFFFFFFFFFFFFFFFFF AND PUSH20 0xFFFFFFFFFFFFFFFFFFFFFFFFFFFFFFFFFFFFFFFF AND DUP2 MSTORE PUSH1 0x20 ADD SWAP1 DUP2 MSTORE PUSH1 0x20 ADD PUSH0 KECCAK256 PUSH1 0x2 ADD SLOAD PUSH1 0x8 PUSH0 DUP6 PUSH20 0xFFFFFFFFFFFFFFFFFFFFFFFFFFFFFFFFFFFFFFFF AND PUSH20 0xFFFFFFFFFFFFFFFFFFFFFFFFFFFFFFFFFFFFFFFF AND DUP2 MSTORE PUSH1 0x20 ADD SWAP1 DUP2 MSTORE PUSH1 0x20 ADD PUSH0 KECCAK256 PUSH1 0x1 ADD SLOAD PUSH2 0x1679 SWAP2 SWAP1 PUSH2 0x3110 JUMP JUMPDEST SWAP1 DUP2 ISZERO MUL SWAP1 PUSH1 0x40 MLOAD PUSH0 PUSH1 0x40 MLOAD DUP1 DUP4 SUB DUP2 DUP6 DUP9 DUP9 CALL SWAP4 POP POP POP POP ISZERO DUP1 ISZERO PUSH2 0x16A1 JUMPI RETURNDATASIZE PUSH0 DUP1 RETURNDATACOPY RETURNDATASIZE PUSH0 REVERT JUMPDEST POP JUMPDEST PUSH1 0x6 PUSH1 0x8 PUSH0 DUP4 PUSH20 0xFFFFFFFFFFFFFFFFFFFFFFFFFFFFFFFFFFFFFFFF AND PUSH20 0xFFFFFFFFFFFFFFFFFFFFFFFFFFFFFFFFFFFFFFFF AND DUP2 MSTORE PUSH1 0x20 ADD SWAP1 DUP2 MSTORE PUSH1 0x20 ADD PUSH0 KECCAK256 PUSH1 0x5 ADD SLOAD DUP2 SLOAD DUP2 LT PUSH2 0x16F7 JUMPI PUSH2 0x16F6 PUSH2 0x31AB JUMP JUMPDEST JUMPDEST SWAP1 PUSH0 MSTORE PUSH1 0x20 PUSH0 KECCAK256 ADD PUSH0 PUSH2 0x100 EXP DUP2 SLOAD SWAP1 PUSH20 0xFFFFFFFFFFFFFFFFFFFFFFFFFFFFFFFFFFFFFFFF MUL NOT AND SWAP1 SSTORE PUSH1 0x8 PUSH0 DUP3 PUSH20 0xFFFFFFFFFFFFFFFFFFFFFFFFFFFFFFFFFFFFFFFF AND PUSH20 0xFFFFFFFFFFFFFFFFFFFFFFFFFFFFFFFFFFFFFFFF AND DUP2 MSTORE PUSH1 0x20 ADD SWAP1 DUP2 MSTORE PUSH1 0x20 ADD PUSH0 KECCAK256 PUSH0 DUP1 DUP3 ADD PUSH0 PUSH2 0x100 EXP DUP2 SLOAD SWAP1 PUSH20 0xFFFFFFFFFFFFFFFFFFFFFFFFFFFFFFFFFFFFFFFF MUL NOT AND SWAP1 SSTORE PUSH1 0x1 DUP3 ADD PUSH0 SWAP1 SSTORE PUSH1 0x2 DUP3 ADD PUSH0 SWAP1 SSTORE PUSH1 0x3 DUP3 ADD PUSH0 SWAP1 SSTORE PUSH1 0x4 DUP3 ADD PUSH0 SWAP1 SSTORE PUSH1 0x5 DUP3 ADD PUSH0 SWAP1 SSTORE POP POP POP JUMP JUMPDEST PUSH0 PUSH20 0xFFFFFFFFFFFFFFFFFFFFFFFFFFFFFFFFFFFFFFFF AND PUSH1 0x2 PUSH0 CALLER PUSH20 0xFFFFFFFFFFFFFFFFFFFFFFFFFFFFFFFFFFFFFFFF AND PUSH20 0xFFFFFFFFFFFFFFFFFFFFFFFFFFFFFFFFFFFFFFFF AND DUP2 MSTORE PUSH1 0x20 ADD SWAP1 DUP2 MSTORE PUSH1 0x20 ADD PUSH0 KECCAK256 PUSH0 ADD PUSH0 SWAP1 SLOAD SWAP1 PUSH2 0x100 EXP SWAP1 DIV PUSH20 0xFFFFFFFFFFFFFFFFFFFFFFFFFFFFFFFFFFFFFFFF AND PUSH20 0xFFFFFFFFFFFFFFFFFFFFFFFFFFFFFFFFFFFFFFFF AND SUB PUSH2 0x1878 JUMPI PUSH1 0x40 MLOAD PUSH32 0x8C379A000000000000000000000000000000000000000000000000000000000 DUP2 MSTORE PUSH1 0x4 ADD PUSH2 0x186F SWAP1 PUSH2 0x3335 JUMP JUMPDEST PUSH1 0x40 MLOAD DUP1 SWAP2 SUB SWAP1 REVERT JUMPDEST PUSH1 0x1 PUSH1 0x2 PUSH0 DUP4 PUSH20 0xFFFFFFFFFFFFFFFFFFFFFFFFFFFFFFFFFFFFFFFF AND PUSH20 0xFFFFFFFFFFFFFFFFFFFFFFFFFFFFFFFFFFFFFFFF AND DUP2 MSTORE PUSH1 0x20 ADD SWAP1 DUP2 MSTORE PUSH1 0x20 ADD PUSH0 KECCAK256 PUSH1 0x1 ADD SLOAD DUP2 SLOAD DUP2 LT PUSH2 0x18CC JUMPI PUSH2 0x18CB PUSH2 0x31AB JUMP JUMPDEST JUMPDEST SWAP1 PUSH0 MSTORE PUSH1 0x20 PUSH0 KECCAK256 ADD PUSH0 PUSH2 0x100 EXP DUP2 SLOAD SWAP1 PUSH20 0xFFFFFFFFFFFFFFFFFFFFFFFFFFFFFFFFFFFFFFFF MUL NOT AND SWAP1 SSTORE PUSH1 0x2 PUSH0 DUP3 PUSH20 0xFFFFFFFFFFFFFFFFFFFFFFFFFFFFFFFFFFFFFFFF AND PUSH20 0xFFFFFFFFFFFFFFFFFFFFFFFFFFFFFFFFFFFFFFFF AND DUP2 MSTORE PUSH1 0x20 ADD SWAP1 DUP2 MSTORE PUSH1 0x20 ADD PUSH0 KECCAK256 PUSH0 DUP1 DUP3 ADD PUSH0 PUSH2 0x100 EXP DUP2 SLOAD SWAP1 PUSH20 0xFFFFFFFFFFFFFFFFFFFFFFFFFFFFFFFFFFFFFFFF MUL NOT AND SWAP1 SSTORE PUSH1 0x1 DUP3 ADD PUSH0 SWAP1 SSTORE POP POP POP JUMP JUMPDEST CALLER PUSH20 0xFFFFFFFFFFFFFFFFFFFFFFFFFFFFFFFFFFFFFFFF AND PUSH0 DUP1 SLOAD SWAP1 PUSH2 0x100 EXP SWAP1 DIV PUSH20 0xFFFFFFFFFFFFFFFFFFFFFFFFFFFFFFFFFFFFFFFF AND PUSH20 0xFFFFFFFFFFFFFFFFFFFFFFFFFFFFFFFFFFFFFFFF AND EQ PUSH2 0x19F2 JUMPI PUSH1 0x40 MLOAD PUSH32 0x8C379A000000000000000000000000000000000000000000000000000000000 DUP2 MSTORE PUSH1 0x4 ADD PUSH2 0x19E9 SWAP1 PUSH2 0x301C JUMP JUMPDEST PUSH1 0x40 MLOAD DUP1 SWAP2 SUB SWAP1 REVERT JUMPDEST PUSH0 PUSH20 0xFFFFFFFFFFFFFFFFFFFFFFFFFFFFFFFFFFFFFFFF AND PUSH1 0x8 PUSH0 DUP5 PUSH20 0xFFFFFFFFFFFFFFFFFFFFFFFFFFFFFFFFFFFFFFFF AND PUSH20 0xFFFFFFFFFFFFFFFFFFFFFFFFFFFFFFFFFFFFFFFF AND DUP2 MSTORE PUSH1 0x20 ADD SWAP1 DUP2 MSTORE PUSH1 0x20 ADD PUSH0 KECCAK256 PUSH0 ADD PUSH0 SWAP1 SLOAD SWAP1 PUSH2 0x100 EXP SWAP1 DIV PUSH20 0xFFFFFFFFFFFFFFFFFFFFFFFFFFFFFFFFFFFFFFFF AND PUSH20 0xFFFFFFFFFFFFFFFFFFFFFFFFFFFFFFFFFFFFFFFF AND SUB PUSH2 0x1ABE JUMPI PUSH1 0x40 MLOAD PUSH32 0x8C379A000000000000000000000000000000000000000000000000000000000 DUP2 MSTORE PUSH1 0x4 ADD PUSH2 0x1AB5 SWAP1 PUSH2 0x3084 JUMP JUMPDEST PUSH1 0x40 MLOAD DUP1 SWAP2 SUB SWAP1 REVERT JUMPDEST PUSH3 0x15180 DUP2 PUSH2 0x1ACD SWAP2 SWAP1 PUSH2 0x30CF JUMP JUMPDEST PUSH1 0x8 PUSH0 DUP5 PUSH20 0xFFFFFFFFFFFFFFFFFFFFFFFFFFFFFFFFFFFFFFFF AND PUSH20 0xFFFFFFFFFFFFFFFFFFFFFFFFFFFFFFFFFFFFFFFF AND DUP2 MSTORE PUSH1 0x20 ADD SWAP1 DUP2 MSTORE PUSH1 0x20 ADD PUSH0 KECCAK256 PUSH1 0x3 ADD PUSH0 DUP3 DUP3 SLOAD PUSH2 0x1B1B SWAP2 SWAP1 PUSH2 0x33E1 JUMP JUMPDEST SWAP3 POP POP DUP2 SWAP1 SSTORE POP POP POP JUMP JUMPDEST PUSH0 CALLER PUSH20 0xFFFFFFFFFFFFFFFFFFFFFFFFFFFFFFFFFFFFFFFF AND PUSH0 DUP1 SLOAD SWAP1 PUSH2 0x100 EXP SWAP1 DIV PUSH20 0xFFFFFFFFFFFFFFFFFFFFFFFFFFFFFFFFFFFFFFFF AND PUSH20 0xFFFFFFFFFFFFFFFFFFFFFFFFFFFFFFFFFFFFFFFF AND EQ PUSH2 0x1BB4 JUMPI PUSH1 0x40 MLOAD PUSH32 0x8C379A000000000000000000000000000000000000000000000000000000000 DUP2 MSTORE PUSH1 0x4 ADD PUSH2 0x1BAB SWAP1 PUSH2 0x301C JUMP JUMPDEST PUSH1 0x40 MLOAD DUP1 SWAP2 SUB SWAP1 REVERT JUMPDEST PUSH0 DUP1 JUMPDEST PUSH1 0x4 SLOAD DUP2 LT ISZERO PUSH2 0x1D65 JUMPI PUSH0 PUSH1 0x8 PUSH0 PUSH1 0x6 DUP5 DUP2 SLOAD DUP2 LT PUSH2 0x1BD9 JUMPI PUSH2 0x1BD8 PUSH2 0x31AB JUMP JUMPDEST JUMPDEST SWAP1 PUSH0 MSTORE PUSH1 0x20 PUSH0 KECCAK256 ADD PUSH0 SWAP1 SLOAD SWAP1 PUSH2 0x100 EXP SWAP1 DIV PUSH20 0xFFFFFFFFFFFFFFFFFFFFFFFFFFFFFFFFFFFFFFFF AND PUSH20 0xFFFFFFFFFFFFFFFFFFFFFFFFFFFFFFFFFFFFFFFF AND PUSH20 0xFFFFFFFFFFFFFFFFFFFFFFFFFFFFFFFFFFFFFFFF AND DUP2 MSTORE PUSH1 0x20 ADD SWAP1 DUP2 MSTORE PUSH1 0x20 ADD PUSH0 KECCAK256 PUSH1 0x1 ADD SLOAD EQ ISZERO DUP1 ISZERO PUSH2 0x1CC9 JUMPI POP PUSH1 0x8 PUSH0 PUSH1 0x6 DUP4 DUP2 SLOAD DUP2 LT PUSH2 0x1C5E JUMPI PUSH2 0x1C5D PUSH2 0x31AB JUMP JUMPDEST JUMPDEST SWAP1 PUSH0 MSTORE PUSH1 0x20 PUSH0 KECCAK256 ADD PUSH0 SWAP1 SLOAD SWAP1 PUSH2 0x100 EXP SWAP1 DIV PUSH20 0xFFFFFFFFFFFFFFFFFFFFFFFFFFFFFFFFFFFFFFFF AND PUSH20 0xFFFFFFFFFFFFFFFFFFFFFFFFFFFFFFFFFFFFFFFF AND PUSH20 0xFFFFFFFFFFFFFFFFFFFFFFFFFFFFFFFFFFFFFFFF AND DUP2 MSTORE PUSH1 0x20 ADD SWAP1 DUP2 MSTORE PUSH1 0x20 ADD PUSH0 KECCAK256 PUSH1 0x3 ADD SLOAD PUSH1 0x5 SLOAD LT ISZERO JUMPDEST ISZERO PUSH2 0x1D58 JUMPI PUSH1 0x8 PUSH0 PUSH1 0x6 DUP4 DUP2 SLOAD DUP2 LT PUSH2 0x1CE5 JUMPI PUSH2 0x1CE4 PUSH2 0x31AB JUMP JUMPDEST JUMPDEST SWAP1 PUSH0 MSTORE PUSH1 0x20 PUSH0 KECCAK256 ADD PUSH0 SWAP1 SLOAD SWAP1 PUSH2 0x100 EXP SWAP1 DIV PUSH20 0xFFFFFFFFFFFFFFFFFFFFFFFFFFFFFFFFFFFFFFFF AND PUSH20 0xFFFFFFFFFFFFFFFFFFFFFFFFFFFFFFFFFFFFFFFF AND PUSH20 0xFFFFFFFFFFFFFFFFFFFFFFFFFFFFFFFFFFFFFFFF AND DUP2 MSTORE PUSH1 0x20 ADD SWAP1 DUP2 MSTORE PUSH1 0x20 ADD PUSH0 KECCAK256 PUSH1 0x1 ADD SLOAD DUP3 PUSH2 0x1D55 SWAP2 SWAP1 PUSH2 0x3110 JUMP JUMPDEST SWAP2 POP JUMPDEST DUP1 DUP1 PUSH1 0x1 ADD SWAP2 POP POP PUSH2 0x1BB7 JUMP JUMPDEST POP DUP1 SWAP2 POP POP SWAP1 JUMP JUMPDEST PUSH0 DUP1 PUSH20 0xFFFFFFFFFFFFFFFFFFFFFFFFFFFFFFFFFFFFFFFF AND PUSH1 0x8 PUSH0 DUP5 PUSH20 0xFFFFFFFFFFFFFFFFFFFFFFFFFFFFFFFFFFFFFFFF AND PUSH20 0xFFFFFFFFFFFFFFFFFFFFFFFFFFFFFFFFFFFFFFFF AND DUP2 MSTORE PUSH1 0x20 ADD SWAP1 DUP2 MSTORE PUSH1 0x20 ADD PUSH0 KECCAK256 PUSH0 ADD PUSH0 SWAP1 SLOAD SWAP1 PUSH2 0x100 EXP SWAP1 DIV PUSH20 0xFFFFFFFFFFFFFFFFFFFFFFFFFFFFFFFFFFFFFFFF AND PUSH20 0xFFFFFFFFFFFFFFFFFFFFFFFFFFFFFFFFFFFFFFFF AND SUB PUSH2 0x1E3A JUMPI PUSH1 0x40 MLOAD PUSH32 0x8C379A000000000000000000000000000000000000000000000000000000000 DUP2 MSTORE PUSH1 0x4 ADD PUSH2 0x1E31 SWAP1 PUSH2 0x3084 JUMP JUMPDEST PUSH1 0x40 MLOAD DUP1 SWAP2 SUB SWAP1 REVERT JUMPDEST PUSH1 0x8 PUSH0 DUP4 PUSH20 0xFFFFFFFFFFFFFFFFFFFFFFFFFFFFFFFFFFFFFFFF AND PUSH20 0xFFFFFFFFFFFFFFFFFFFFFFFFFFFFFFFFFFFFFFFF AND DUP2 MSTORE PUSH1 0x20 ADD SWAP1 DUP2 MSTORE PUSH1 0x20 ADD PUSH0 KECCAK256 PUSH0 ADD PUSH0 SWAP1 SLOAD SWAP1 PUSH2 0x100 EXP SWAP1 DIV PUSH20 0xFFFFFFFFFFFFFFFFFFFFFFFFFFFFFFFFFFFFFFFF AND SWAP1 POP SWAP2 SWAP1 POP JUMP JUMPDEST CALLER PUSH20 0xFFFFFFFFFFFFFFFFFFFFFFFFFFFFFFFFFFFFFFFF AND PUSH0 DUP1 SLOAD SWAP1 PUSH2 0x100 EXP SWAP1 DIV PUSH20 0xFFFFFFFFFFFFFFFFFFFFFFFFFFFFFFFFFFFFFFFF AND PUSH20 0xFFFFFFFFFFFFFFFFFFFFFFFFFFFFFFFFFFFFFFFF AND EQ PUSH2 0x1F2D JUMPI PUSH1 0x40 MLOAD PUSH32 0x8C379A000000000000000000000000000000000000000000000000000000000 DUP2 MSTORE PUSH1 0x4 ADD PUSH2 0x1F24 SWAP1 PUSH2 0x301C JUMP JUMPDEST PUSH1 0x40 MLOAD DUP1 SWAP2 SUB SWAP1 REVERT JUMPDEST PUSH0 PUSH20 0xFFFFFFFFFFFFFFFFFFFFFFFFFFFFFFFFFFFFFFFF AND PUSH1 0x8 PUSH0 DUP5 PUSH20 0xFFFFFFFFFFFFFFFFFFFFFFFFFFFFFFFFFFFFFFFF AND PUSH20 0xFFFFFFFFFFFFFFFFFFFFFFFFFFFFFFFFFFFFFFFF AND DUP2 MSTORE PUSH1 0x20 ADD SWAP1 DUP2 MSTORE PUSH1 0x20 ADD PUSH0 KECCAK256 PUSH0 ADD PUSH0 SWAP1 SLOAD SWAP1 PUSH2 0x100 EXP SWAP1 DIV PUSH20 0xFFFFFFFFFFFFFFFFFFFFFFFFFFFFFFFFFFFFFFFF AND PUSH20 0xFFFFFFFFFFFFFFFFFFFFFFFFFFFFFFFFFFFFFFFF AND SUB PUSH2 0x1FF9 JUMPI PUSH1 0x40 MLOAD PUSH32 0x8C379A000000000000000000000000000000000000000000000000000000000 DUP2 MSTORE PUSH1 0x4 ADD PUSH2 0x1FF0 SWAP1 PUSH2 0x3084 JUMP JUMPDEST PUSH1 0x40 MLOAD DUP1 SWAP2 SUB SWAP1 REVERT JUMPDEST DUP1 PUSH1 0x8 PUSH0 DUP5 PUSH20 0xFFFFFFFFFFFFFFFFFFFFFFFFFFFFFFFFFFFFFFFF AND PUSH20 0xFFFFFFFFFFFFFFFFFFFFFFFFFFFFFFFFFFFFFFFF AND DUP2 MSTORE PUSH1 0x20 ADD SWAP1 DUP2 MSTORE PUSH1 0x20 ADD PUSH0 KECCAK256 PUSH1 0x1 ADD DUP2 SWAP1 SSTORE POP POP POP JUMP JUMPDEST PUSH0 DUP1 PUSH0 SWAP1 SLOAD SWAP1 PUSH2 0x100 EXP SWAP1 DIV PUSH20 0xFFFFFFFFFFFFFFFFFFFFFFFFFFFFFFFFFFFFFFFF AND SWAP1 POP SWAP1 JUMP JUMPDEST CALLER PUSH20 0xFFFFFFFFFFFFFFFFFFFFFFFFFFFFFFFFFFFFFFFF AND PUSH0 DUP1 SLOAD SWAP1 PUSH2 0x100 EXP SWAP1 DIV PUSH20 0xFFFFFFFFFFFFFFFFFFFFFFFFFFFFFFFFFFFFFFFF AND PUSH20 0xFFFFFFFFFFFFFFFFFFFFFFFFFFFFFFFFFFFFFFFF AND EQ PUSH2 0x20F6 JUMPI PUSH1 0x40 MLOAD PUSH32 0x8C379A000000000000000000000000000000000000000000000000000000000 DUP2 MSTORE PUSH1 0x4 ADD PUSH2 0x20ED SWAP1 PUSH2 0x301C JUMP JUMPDEST PUSH1 0x40 MLOAD DUP1 SWAP2 SUB SWAP1 REVERT JUMPDEST DUP1 PUSH1 0x7 PUSH0 PUSH2 0x100 EXP DUP2 SLOAD DUP2 PUSH20 0xFFFFFFFFFFFFFFFFFFFFFFFFFFFFFFFFFFFFFFFF MUL NOT AND SWAP1 DUP4 PUSH20 0xFFFFFFFFFFFFFFFFFFFFFFFFFFFFFFFFFFFFFFFF AND MUL OR SWAP1 SSTORE POP POP JUMP JUMPDEST PUSH0 DUP1 PUSH20 0xFFFFFFFFFFFFFFFFFFFFFFFFFFFFFFFFFFFFFFFF AND PUSH1 0x8 PUSH0 DUP5 PUSH20 0xFFFFFFFFFFFFFFFFFFFFFFFFFFFFFFFFFFFFFFFF AND PUSH20 0xFFFFFFFFFFFFFFFFFFFFFFFFFFFFFFFFFFFFFFFF AND DUP2 MSTORE PUSH1 0x20 ADD SWAP1 DUP2 MSTORE PUSH1 0x20 ADD PUSH0 KECCAK256 PUSH0 ADD PUSH0 SWAP1 SLOAD SWAP1 PUSH2 0x100 EXP SWAP1 DIV PUSH20 0xFFFFFFFFFFFFFFFFFFFFFFFFFFFFFFFFFFFFFFFF AND PUSH20 0xFFFFFFFFFFFFFFFFFFFFFFFFFFFFFFFFFFFFFFFF AND SUB PUSH2 0x2206 JUMPI PUSH1 0x40 MLOAD PUSH32 0x8C379A000000000000000000000000000000000000000000000000000000000 DUP2 MSTORE PUSH1 0x4 ADD PUSH2 0x21FD SWAP1 PUSH2 0x3084 JUMP JUMPDEST PUSH1 0x40 MLOAD DUP1 SWAP2 SUB SWAP1 REVERT JUMPDEST PUSH1 0x8 PUSH0 DUP4 PUSH20 0xFFFFFFFFFFFFFFFFFFFFFFFFFFFFFFFFFFFFFFFF AND PUSH20 0xFFFFFFFFFFFFFFFFFFFFFFFFFFFFFFFFFFFFFFFF AND DUP2 MSTORE PUSH1 0x20 ADD SWAP1 DUP2 MSTORE PUSH1 0x20 ADD PUSH0 KECCAK256 PUSH1 0x5 ADD SLOAD SWAP1 POP SWAP2 SWAP1 POP JUMP JUMPDEST PUSH0 PUSH20 0xFFFFFFFFFFFFFFFFFFFFFFFFFFFFFFFFFFFFFFFF AND PUSH1 0x8 PUSH0 DUP4 PUSH20 0xFFFFFFFFFFFFFFFFFFFFFFFFFFFFFFFFFFFFFFFF AND PUSH20 0xFFFFFFFFFFFFFFFFFFFFFFFFFFFFFFFFFFFFFFFF AND DUP2 MSTORE PUSH1 0x20 ADD SWAP1 DUP2 MSTORE PUSH1 0x20 ADD PUSH0 KECCAK256 PUSH0 ADD PUSH0 SWAP1 SLOAD SWAP1 PUSH2 0x100 EXP SWAP1 DIV PUSH20 0xFFFFFFFFFFFFFFFFFFFFFFFFFFFFFFFFFFFFFFFF AND PUSH20 0xFFFFFFFFFFFFFFFFFFFFFFFFFFFFFFFFFFFFFFFF AND EQ PUSH2 0x231A JUMPI PUSH1 0x40 MLOAD PUSH32 0x8C379A000000000000000000000000000000000000000000000000000000000 DUP2 MSTORE PUSH1 0x4 ADD PUSH2 0x2311 SWAP1 PUSH2 0x345E JUMP JUMPDEST PUSH1 0x40 MLOAD DUP1 SWAP2 SUB SWAP1 REVERT JUMPDEST PUSH0 CALLVALUE GT PUSH2 0x235C JUMPI PUSH1 0x40 MLOAD PUSH32 0x8C379A000000000000000000000000000000000000000000000000000000000 DUP2 MSTORE PUSH1 0x4 ADD PUSH2 0x2353 SWAP1 PUSH2 0x34C6 JUMP JUMPDEST PUSH1 0x40 MLOAD DUP1 SWAP2 SUB SWAP1 REVERT JUMPDEST PUSH0 PUSH1 0x40 MLOAD DUP1 PUSH1 0xC0 ADD PUSH1 0x40 MSTORE DUP1 DUP4 PUSH20 0xFFFFFFFFFFFFFFFFFFFFFFFFFFFFFFFFFFFFFFFF AND DUP2 MSTORE PUSH1 0x20 ADD CALLVALUE DUP2 MSTORE PUSH1 0x20 ADD PUSH0 DUP2 MSTORE PUSH1 0x20 ADD PUSH3 0x278D00 TIMESTAMP PUSH2 0x239F SWAP2 SWAP1 PUSH2 0x33E1 JUMP JUMPDEST DUP2 MSTORE PUSH1 0x20 ADD TIMESTAMP DUP2 MSTORE PUSH1 0x20 ADD PUSH1 0x4 SLOAD DUP2 MSTORE POP SWAP1 POP DUP1 PUSH1 0x8 PUSH0 DUP5 PUSH20 0xFFFFFFFFFFFFFFFFFFFFFFFFFFFFFFFFFFFFFFFF AND PUSH20 0xFFFFFFFFFFFFFFFFFFFFFFFFFFFFFFFFFFFFFFFF AND DUP2 MSTORE PUSH1 0x20 ADD SWAP1 DUP2 MSTORE PUSH1 0x20 ADD PUSH0 KECCAK256 PUSH0 DUP3 ADD MLOAD DUP2 PUSH0 ADD PUSH0 PUSH2 0x100 EXP DUP2 SLOAD DUP2 PUSH20 0xFFFFFFFFFFFFFFFFFFFFFFFFFFFFFFFFFFFFFFFF MUL NOT AND SWAP1 DUP4 PUSH20 0xFFFFFFFFFFFFFFFFFFFFFFFFFFFFFFFFFFFFFFFF AND MUL OR SWAP1 SSTORE POP PUSH1 0x20 DUP3 ADD MLOAD DUP2 PUSH1 0x1 ADD SSTORE PUSH1 0x40 DUP3 ADD MLOAD DUP2 PUSH1 0x2 ADD SSTORE PUSH1 0x60 DUP3 ADD MLOAD DUP2 PUSH1 0x3 ADD SSTORE PUSH1 0x80 DUP3 ADD MLOAD DUP2 PUSH1 0x4 ADD SSTORE PUSH1 0xA0 DUP3 ADD MLOAD DUP2 PUSH1 0x5 ADD SSTORE SWAP1 POP POP PUSH1 0x6 DUP3 SWAP1 DUP1 PUSH1 0x1 DUP2 SLOAD ADD DUP1 DUP3 SSTORE DUP1 SWAP2 POP POP PUSH1 0x1 SWAP1 SUB SWAP1 PUSH0 MSTORE PUSH1 0x20 PUSH0 KECCAK256 ADD PUSH0 SWAP1 SWAP2 SWAP1 SWAP2 SWAP1 SWAP2 PUSH2 0x100 EXP DUP2 SLOAD DUP2 PUSH20 0xFFFFFFFFFFFFFFFFFFFFFFFFFFFFFFFFFFFFFFFF MUL NOT AND SWAP1 DUP4 PUSH20 0xFFFFFFFFFFFFFFFFFFFFFFFFFFFFFFFFFFFFFFFF AND MUL OR SWAP1 SSTORE POP PUSH1 0x7 PUSH0 SWAP1 SLOAD SWAP1 PUSH2 0x100 EXP SWAP1 DIV PUSH20 0xFFFFFFFFFFFFFFFFFFFFFFFFFFFFFFFFFFFFFFFF AND PUSH20 0xFFFFFFFFFFFFFFFFFFFFFFFFFFFFFFFFFFFFFFFF AND PUSH2 0x8FC CALLVALUE SWAP1 DUP2 ISZERO MUL SWAP1 PUSH1 0x40 MLOAD PUSH0 PUSH1 0x40 MLOAD DUP1 DUP4 SUB DUP2 DUP6 DUP9 DUP9 CALL SWAP4 POP POP POP POP ISZERO DUP1 ISZERO PUSH2 0x252D JUMPI RETURNDATASIZE PUSH0 DUP1 RETURNDATACOPY RETURNDATASIZE PUSH0 REVERT JUMPDEST POP PUSH1 0x1 PUSH1 0x4 PUSH0 DUP3 DUP3 SLOAD PUSH2 0x2540 SWAP2 SWAP1 PUSH2 0x3110 JUMP JUMPDEST SWAP3 POP POP DUP2 SWAP1 SSTORE POP POP POP JUMP JUMPDEST PUSH0 PUSH20 0xFFFFFFFFFFFFFFFFFFFFFFFFFFFFFFFFFFFFFFFF AND PUSH1 0x2 PUSH0 CALLER PUSH20 0xFFFFFFFFFFFFFFFFFFFFFFFFFFFFFFFFFFFFFFFF AND PUSH20 0xFFFFFFFFFFFFFFFFFFFFFFFFFFFFFFFFFFFFFFFF AND DUP2 MSTORE PUSH1 0x20 ADD SWAP1 DUP2 MSTORE PUSH1 0x20 ADD PUSH0 KECCAK256 PUSH0 ADD PUSH0 SWAP1 SLOAD SWAP1 PUSH2 0x100 EXP SWAP1 DIV PUSH20 0xFFFFFFFFFFFFFFFFFFFFFFFFFFFFFFFFFFFFFFFF AND PUSH20 0xFFFFFFFFFFFFFFFFFFFFFFFFFFFFFFFFFFFFFFFF AND SUB PUSH2 0x2617 JUMPI PUSH1 0x40 MLOAD PUSH32 0x8C379A000000000000000000000000000000000000000000000000000000000 DUP2 MSTORE PUSH1 0x4 ADD PUSH2 0x260E SWAP1 PUSH2 0x3335 JUMP JUMPDEST PUSH1 0x40 MLOAD DUP1 SWAP2 SUB SWAP1 REVERT JUMPDEST PUSH0 PUSH20 0xFFFFFFFFFFFFFFFFFFFFFFFFFFFFFFFFFFFFFFFF AND PUSH1 0x8 PUSH0 DUP4 PUSH20 0xFFFFFFFFFFFFFFFFFFFFFFFFFFFFFFFFFFFFFFFF AND PUSH20 0xFFFFFFFFFFFFFFFFFFFFFFFFFFFFFFFFFFFFFFFF AND DUP2 MSTORE PUSH1 0x20 ADD SWAP1 DUP2 MSTORE PUSH1 0x20 ADD PUSH0 KECCAK256 PUSH0 ADD PUSH0 SWAP1 SLOAD SWAP1 PUSH2 0x100 EXP SWAP1 DIV PUSH20 0xFFFFFFFFFFFFFFFFFFFFFFFFFFFFFFFFFFFFFFFF AND PUSH20 0xFFFFFFFFFFFFFFFFFFFFFFFFFFFFFFFFFFFFFFFF AND SUB PUSH2 0x26E3 JUMPI PUSH1 0x40 MLOAD PUSH32 0x8C379A000000000000000000000000000000000000000000000000000000000 DUP2 MSTORE PUSH1 0x4 ADD PUSH2 0x26DA SWAP1 PUSH2 0x3084 JUMP JUMPDEST PUSH1 0x40 MLOAD DUP1 SWAP2 SUB SWAP1 REVERT JUMPDEST PUSH1 0x8 PUSH0 DUP3 PUSH20 0xFFFFFFFFFFFFFFFFFFFFFFFFFFFFFFFFFFFFFFFF AND PUSH20 0xFFFFFFFFFFFFFFFFFFFFFFFFFFFFFFFFFFFFFFFF AND DUP2 MSTORE PUSH1 0x20 ADD SWAP1 DUP2 MSTORE PUSH1 0x20 ADD PUSH0 KECCAK256 PUSH1 0x2 ADD SLOAD PUSH1 0x8 PUSH0 DUP4 PUSH20 0xFFFFFFFFFFFFFFFFFFFFFFFFFFFFFFFFFFFFFFFF AND PUSH20 0xFFFFFFFFFFFFFFFFFFFFFFFFFFFFFFFFFFFFFFFF AND DUP2 MSTORE PUSH1 0x20 ADD SWAP1 DUP2 MSTORE PUSH1 0x20 ADD PUSH0 KECCAK256 PUSH1 0x1 ADD SLOAD PUSH2 0x276F SWAP2 SWAP1 PUSH2 0x3110 JUMP JUMPDEST CALLVALUE GT ISZERO PUSH2 0x27B1 JUMPI PUSH1 0x40 MLOAD PUSH32 0x8C379A000000000000000000000000000000000000000000000000000000000 DUP2 MSTORE PUSH1 0x4 ADD PUSH2 0x27A8 SWAP1 PUSH2 0x352E JUMP JUMPDEST PUSH1 0x40 MLOAD DUP1 SWAP2 SUB SWAP1 REVERT JUMPDEST PUSH0 CALLVALUE GT PUSH2 0x27F3 JUMPI PUSH1 0x40 MLOAD PUSH32 0x8C379A000000000000000000000000000000000000000000000000000000000 DUP2 MSTORE PUSH1 0x4 ADD PUSH2 0x27EA SWAP1 PUSH2 0x34C6 JUMP JUMPDEST PUSH1 0x40 MLOAD DUP1 SWAP2 SUB SWAP1 REVERT JUMPDEST PUSH1 0x8 PUSH0 DUP3 PUSH20 0xFFFFFFFFFFFFFFFFFFFFFFFFFFFFFFFFFFFFFFFF AND PUSH20 0xFFFFFFFFFFFFFFFFFFFFFFFFFFFFFFFFFFFFFFFF AND DUP2 MSTORE PUSH1 0x20 ADD SWAP1 DUP2 MSTORE PUSH1 0x20 ADD PUSH0 KECCAK256 PUSH1 0x2 ADD SLOAD CALLVALUE GT ISZERO PUSH2 0x292B JUMPI PUSH0 PUSH1 0x8 PUSH0 DUP4 PUSH20 0xFFFFFFFFFFFFFFFFFFFFFFFFFFFFFFFFFFFFFFFF AND PUSH20 0xFFFFFFFFFFFFFFFFFFFFFFFFFFFFFFFFFFFFFFFF AND DUP2 MSTORE PUSH1 0x20 ADD SWAP1 DUP2 MSTORE PUSH1 0x20 ADD PUSH0 KECCAK256 PUSH1 0x2 ADD DUP2 SWAP1 SSTORE POP PUSH0 PUSH1 0x8 PUSH0 DUP4 PUSH20 0xFFFFFFFFFFFFFFFFFFFFFFFFFFFFFFFFFFFFFFFF AND PUSH20 0xFFFFFFFFFFFFFFFFFFFFFFFFFFFFFFFFFFFFFFFF AND DUP2 MSTORE PUSH1 0x20 ADD SWAP1 DUP2 MSTORE PUSH1 0x20 ADD PUSH0 KECCAK256 PUSH1 0x2 ADD SLOAD CALLVALUE PUSH2 0x28CD SWAP2 SWAP1 PUSH2 0x33E1 JUMP JUMPDEST SWAP1 POP DUP1 PUSH1 0x8 PUSH0 DUP5 PUSH20 0xFFFFFFFFFFFFFFFFFFFFFFFFFFFFFFFFFFFFFFFF AND PUSH20 0xFFFFFFFFFFFFFFFFFFFFFFFFFFFFFFFFFFFFFFFF AND DUP2 MSTORE PUSH1 0x20 ADD SWAP1 DUP2 MSTORE PUSH1 0x20 ADD PUSH0 KECCAK256 PUSH1 0x1 ADD PUSH0 DUP3 DUP3 SLOAD PUSH2 0x291E SWAP2 SWAP1 PUSH2 0x33E1 JUMP JUMPDEST SWAP3 POP POP DUP2 SWAP1 SSTORE POP POP PUSH2 0x2982 JUMP JUMPDEST CALLVALUE PUSH1 0x8 PUSH0 DUP4 PUSH20 0xFFFFFFFFFFFFFFFFFFFFFFFFFFFFFFFFFFFFFFFF AND PUSH20 0xFFFFFFFFFFFFFFFFFFFFFFFFFFFFFFFFFFFFFFFF AND DUP2 MSTORE PUSH1 0x20 ADD SWAP1 DUP2 MSTORE PUSH1 0x20 ADD PUSH0 KECCAK256 PUSH1 0x2 ADD PUSH0 DUP3 DUP3 SLOAD PUSH2 0x297A SWAP2 SWAP1 PUSH2 0x33E1 JUMP JUMPDEST SWAP3 POP POP DUP2 SWAP1 SSTORE POP JUMPDEST POP JUMP JUMPDEST PUSH0 PUSH20 0xFFFFFFFFFFFFFFFFFFFFFFFFFFFFFFFFFFFFFFFF AND PUSH1 0x8 PUSH0 DUP4 PUSH20 0xFFFFFFFFFFFFFFFFFFFFFFFFFFFFFFFFFFFFFFFF AND PUSH20 0xFFFFFFFFFFFFFFFFFFFFFFFFFFFFFFFFFFFFFFFF AND DUP2 MSTORE PUSH1 0x20 ADD SWAP1 DUP2 MSTORE PUSH1 0x20 ADD PUSH0 KECCAK256 PUSH0 ADD PUSH0 SWAP1 SLOAD SWAP1 PUSH2 0x100 EXP SWAP1 DIV PUSH20 0xFFFFFFFFFFFFFFFFFFFFFFFFFFFFFFFFFFFFFFFF AND PUSH20 0xFFFFFFFFFFFFFFFFFFFFFFFFFFFFFFFFFFFFFFFF AND SUB PUSH2 0x2A51 JUMPI PUSH1 0x40 MLOAD PUSH32 0x8C379A000000000000000000000000000000000000000000000000000000000 DUP2 MSTORE PUSH1 0x4 ADD PUSH2 0x2A48 SWAP1 PUSH2 0x3084 JUMP JUMPDEST PUSH1 0x40 MLOAD DUP1 SWAP2 SUB SWAP1 REVERT JUMPDEST PUSH0 CALLVALUE GT PUSH2 0x2A93 JUMPI PUSH1 0x40 MLOAD PUSH32 0x8C379A000000000000000000000000000000000000000000000000000000000 DUP2 MSTORE PUSH1 0x4 ADD PUSH2 0x2A8A SWAP1 PUSH2 0x34C6 JUMP JUMPDEST PUSH1 0x40 MLOAD DUP1 SWAP2 SUB SWAP1 REVERT JUMPDEST CALLVALUE PUSH1 0x8 PUSH0 DUP4 PUSH20 0xFFFFFFFFFFFFFFFFFFFFFFFFFFFFFFFFFFFFFFFF AND PUSH20 0xFFFFFFFFFFFFFFFFFFFFFFFFFFFFFFFFFFFFFFFF AND DUP2 MSTORE PUSH1 0x20 ADD SWAP1 DUP2 MSTORE PUSH1 0x20 ADD PUSH0 KECCAK256 PUSH1 0x2 ADD PUSH0 DUP3 DUP3 SLOAD PUSH2 0x2AE2 SWAP2 SWAP1 PUSH2 0x3110 JUMP JUMPDEST SWAP3 POP POP DUP2 SWAP1 SSTORE POP TIMESTAMP PUSH1 0x8 PUSH0 DUP4 PUSH20 0xFFFFFFFFFFFFFFFFFFFFFFFFFFFFFFFFFFFFFFFF AND PUSH20 0xFFFFFFFFFFFFFFFFFFFFFFFFFFFFFFFFFFFFFFFF AND DUP2 MSTORE PUSH1 0x20 ADD SWAP1 DUP2 MSTORE PUSH1 0x20 ADD PUSH0 KECCAK256 PUSH1 0x4 ADD DUP2 SWAP1 SSTORE POP PUSH1 0x7 PUSH0 SWAP1 SLOAD SWAP1 PUSH2 0x100 EXP SWAP1 DIV PUSH20 0xFFFFFFFFFFFFFFFFFFFFFFFFFFFFFFFFFFFFFFFF AND PUSH20 0xFFFFFFFFFFFFFFFFFFFFFFFFFFFFFFFFFFFFFFFF AND PUSH2 0x8FC CALLVALUE SWAP1 DUP2 ISZERO MUL SWAP1 PUSH1 0x40 MLOAD PUSH0 PUSH1 0x40 MLOAD DUP1 DUP4 SUB DUP2 DUP6 DUP9 DUP9 CALL SWAP4 POP POP POP POP ISZERO DUP1 ISZERO PUSH2 0x2B92 JUMPI RETURNDATASIZE PUSH0 DUP1 RETURNDATACOPY RETURNDATASIZE PUSH0 REVERT JUMPDEST POP POP JUMP JUMPDEST PUSH0 DUP1 PUSH20 0xFFFFFFFFFFFFFFFFFFFFFFFFFFFFFFFFFFFFFFFF AND PUSH1 0x8 PUSH0 DUP5 PUSH20 0xFFFFFFFFFFFFFFFFFFFFFFFFFFFFFFFFFFFFFFFF AND PUSH20 0xFFFFFFFFFFFFFFFFFFFFFFFFFFFFFFFFFFFFFFFF AND DUP2 MSTORE PUSH1 0x20 ADD SWAP1 DUP2 MSTORE PUSH1 0x20 ADD PUSH0 KECCAK256 PUSH0 ADD PUSH0 SWAP1 SLOAD SWAP1 PUSH2 0x100 EXP SWAP1 DIV PUSH20 0xFFFFFFFFFFFFFFFFFFFFFFFFFFFFFFFFFFFFFFFF AND PUSH20 0xFFFFFFFFFFFFFFFFFFFFFFFFFFFFFFFFFFFFFFFF AND SUB PUSH2 0x2C63 JUMPI PUSH1 0x40 MLOAD PUSH32 0x8C379A000000000000000000000000000000000000000000000000000000000 DUP2 MSTORE PUSH1 0x4 ADD PUSH2 0x2C5A SWAP1 PUSH2 0x3084 JUMP JUMPDEST PUSH1 0x40 MLOAD DUP1 SWAP2 SUB SWAP1 REVERT JUMPDEST PUSH1 0x8 PUSH0 DUP4 PUSH20 0xFFFFFFFFFFFFFFFFFFFFFFFFFFFFFFFFFFFFFFFF AND PUSH20 0xFFFFFFFFFFFFFFFFFFFFFFFFFFFFFFFFFFFFFFFF AND DUP2 MSTORE PUSH1 0x20 ADD SWAP1 DUP2 MSTORE PUSH1 0x20 ADD PUSH0 KECCAK256 PUSH1 0x2 ADD SLOAD PUSH1 0x8 PUSH0 DUP5 PUSH20 0xFFFFFFFFFFFFFFFFFFFFFFFFFFFFFFFFFFFFFFFF AND PUSH20 0xFFFFFFFFFFFFFFFFFFFFFFFFFFFFFFFFFFFFFFFF AND DUP2 MSTORE PUSH1 0x20 ADD SWAP1 DUP2 MSTORE PUSH1 0x20 ADD PUSH0 KECCAK256 PUSH1 0x1 ADD SLOAD PUSH2 0x2CEF SWAP2 SWAP1 PUSH2 0x3110 JUMP JUMPDEST SWAP1 POP SWAP2 SWAP1 POP JUMP JUMPDEST PUSH1 0x40 MLOAD DUP1 PUSH1 0xC0 ADD PUSH1 0x40 MSTORE DUP1 PUSH0 PUSH20 0xFFFFFFFFFFFFFFFFFFFFFFFFFFFFFFFFFFFFFFFF AND DUP2 MSTORE PUSH1 0x20 ADD PUSH0 DUP2 MSTORE PUSH1 0x20 ADD PUSH0 DUP2 MSTORE PUSH1 0x20 ADD PUSH0 DUP2 MSTORE PUSH1 0x20 ADD PUSH0 DUP2 MSTORE PUSH1 0x20 ADD PUSH0 DUP2 MSTORE POP SWAP1 JUMP JUMPDEST PUSH0 DUP1 REVERT JUMPDEST PUSH0 PUSH20 0xFFFFFFFFFFFFFFFFFFFFFFFFFFFFFFFFFFFFFFFF DUP3 AND SWAP1 POP SWAP2 SWAP1 POP JUMP JUMPDEST PUSH0 PUSH2 0x2D69 DUP3 PUSH2 0x2D40 JUMP JUMPDEST SWAP1 POP SWAP2 SWAP1 POP JUMP JUMPDEST PUSH2 0x2D79 DUP2 PUSH2 0x2D5F JUMP JUMPDEST DUP2 EQ PUSH2 0x2D83 JUMPI PUSH0 DUP1 REVERT JUMPDEST POP JUMP JUMPDEST PUSH0 DUP2 CALLDATALOAD SWAP1 POP PUSH2 0x2D94 DUP2 PUSH2 0x2D70 JUMP JUMPDEST SWAP3 SWAP2 POP POP JUMP JUMPDEST PUSH0 DUP2 SWAP1 POP SWAP2 SWAP1 POP JUMP JUMPDEST PUSH2 0x2DAC DUP2 PUSH2 0x2D9A JUMP JUMPDEST DUP2 EQ PUSH2 0x2DB6 JUMPI PUSH0 DUP1 REVERT JUMPDEST POP JUMP JUMPDEST PUSH0 DUP2 CALLDATALOAD SWAP1 POP PUSH2 0x2DC7 DUP2 PUSH2 0x2DA3 JUMP JUMPDEST SWAP3 SWAP2 POP POP JUMP JUMPDEST PUSH0 DUP1 PUSH1 0x40 DUP4 DUP6 SUB SLT ISZERO PUSH2 0x2DE3 JUMPI PUSH2 0x2DE2 PUSH2 0x2D3C JUMP JUMPDEST JUMPDEST PUSH0 PUSH2 0x2DF0 DUP6 DUP3 DUP7 ADD PUSH2 0x2D86 JUMP JUMPDEST SWAP3 POP POP PUSH1 0x20 PUSH2 0x2E01 DUP6 DUP3 DUP7 ADD PUSH2 0x2DB9 JUMP JUMPDEST SWAP2 POP POP SWAP3 POP SWAP3 SWAP1 POP JUMP JUMPDEST PUSH0 PUSH1 0x20 DUP3 DUP5 SUB SLT ISZERO PUSH2 0x2E20 JUMPI PUSH2 0x2E1F PUSH2 0x2D3C JUMP JUMPDEST JUMPDEST PUSH0 PUSH2 0x2E2D DUP5 DUP3 DUP6 ADD PUSH2 0x2D86 JUMP JUMPDEST SWAP2 POP POP SWAP3 SWAP2 POP POP JUMP JUMPDEST PUSH2 0x2E3F DUP2 PUSH2 0x2D5F JUMP JUMPDEST DUP3 MSTORE POP POP JUMP JUMPDEST PUSH2 0x2E4E DUP2 PUSH2 0x2D9A JUMP JUMPDEST DUP3 MSTORE POP POP JUMP JUMPDEST PUSH1 0xC0 DUP3 ADD PUSH0 DUP3 ADD MLOAD PUSH2 0x2E68 PUSH0 DUP6 ADD DUP3 PUSH2 0x2E36 JUMP JUMPDEST POP PUSH1 0x20 DUP3 ADD MLOAD PUSH2 0x2E7B PUSH1 0x20 DUP6 ADD DUP3 PUSH2 0x2E45 JUMP JUMPDEST POP PUSH1 0x40 DUP3 ADD MLOAD PUSH2 0x2E8E PUSH1 0x40 DUP6 ADD DUP3 PUSH2 0x2E45 JUMP JUMPDEST POP PUSH1 0x60 DUP3 ADD MLOAD PUSH2 0x2EA1 PUSH1 0x60 DUP6 ADD DUP3 PUSH2 0x2E45 JUMP JUMPDEST POP PUSH1 0x80 DUP3 ADD MLOAD PUSH2 0x2EB4 PUSH1 0x80 DUP6 ADD DUP3 PUSH2 0x2E45 JUMP JUMPDEST POP PUSH1 0xA0 DUP3 ADD MLOAD PUSH2 0x2EC7 PUSH1 0xA0 DUP6 ADD DUP3 PUSH2 0x2E45 JUMP JUMPDEST POP POP POP POP JUMP JUMPDEST PUSH0 PUSH1 0xC0 DUP3 ADD SWAP1 POP PUSH2 0x2EE0 PUSH0 DUP4 ADD DUP5 PUSH2 0x2E54 JUMP JUMPDEST SWAP3 SWAP2 POP POP JUMP JUMPDEST PUSH0 PUSH2 0x2EF0 DUP3 PUSH2 0x2D40 JUMP JUMPDEST SWAP1 POP SWAP2 SWAP1 POP JUMP JUMPDEST PUSH2 0x2F00 DUP2 PUSH2 0x2EE6 JUMP JUMPDEST DUP2 EQ PUSH2 0x2F0A JUMPI PUSH0 DUP1 REVERT JUMPDEST POP JUMP JUMPDEST PUSH0 DUP2 CALLDATALOAD SWAP1 POP PUSH2 0x2F1B DUP2 PUSH2 0x2EF7 JUMP JUMPDEST SWAP3 SWAP2 POP POP JUMP JUMPDEST PUSH0 PUSH1 0x20 DUP3 DUP5 SUB SLT ISZERO PUSH2 0x2F36 JUMPI PUSH2 0x2F35 PUSH2 0x2D3C JUMP JUMPDEST JUMPDEST PUSH0 PUSH2 0x2F43 DUP5 DUP3 DUP6 ADD PUSH2 0x2F0D JUMP JUMPDEST SWAP2 POP POP SWAP3 SWAP2 POP POP JUMP JUMPDEST PUSH2 0x2F55 DUP2 PUSH2 0x2D9A JUMP JUMPDEST DUP3 MSTORE POP POP JUMP JUMPDEST PUSH0 PUSH1 0x20 DUP3 ADD SWAP1 POP PUSH2 0x2F6E PUSH0 DUP4 ADD DUP5 PUSH2 0x2F4C JUMP JUMPDEST SWAP3 SWAP2 POP POP JUMP JUMPDEST PUSH2 0x2F7D DUP2 PUSH2 0x2D5F JUMP JUMPDEST DUP3 MSTORE POP POP JUMP JUMPDEST PUSH0 PUSH1 0x20 DUP3 ADD SWAP1 POP PUSH2 0x2F96 PUSH0 DUP4 ADD DUP5 PUSH2 0x2F74 JUMP JUMPDEST SWAP3 SWAP2 POP POP JUMP JUMPDEST PUSH0 DUP3 DUP3 MSTORE PUSH1 0x20 DUP3 ADD SWAP1 POP SWAP3 SWAP2 POP POP JUMP JUMPDEST PUSH32 0x546869732061646472657373206973206E6F7420636F6E7472616374204F776E PUSH0 DUP3 ADD MSTORE PUSH32 0x6572000000000000000000000000000000000000000000000000000000000000 PUSH1 0x20 DUP3 ADD MSTORE POP JUMP JUMPDEST PUSH0 PUSH2 0x3006 PUSH1 0x22 DUP4 PUSH2 0x2F9C JUMP JUMPDEST SWAP2 POP PUSH2 0x3011 DUP3 PUSH2 0x2FAC JUMP JUMPDEST PUSH1 0x40 DUP3 ADD SWAP1 POP SWAP2 SWAP1 POP JUMP JUMPDEST PUSH0 PUSH1 0x20 DUP3 ADD SWAP1 POP DUP2 DUP2 SUB PUSH0 DUP4 ADD MSTORE PUSH2 0x3033 DUP2 PUSH2 0x2FFA JUMP JUMPDEST SWAP1 POP SWAP2 SWAP1 POP JUMP JUMPDEST PUSH32 0x54686973206163636F756E742069736E27742065786973740000000000000000 PUSH0 DUP3 ADD MSTORE POP JUMP JUMPDEST PUSH0 PUSH2 0x306E PUSH1 0x18 DUP4 PUSH2 0x2F9C JUMP JUMPDEST SWAP2 POP PUSH2 0x3079 DUP3 PUSH2 0x303A JUMP JUMPDEST PUSH1 0x20 DUP3 ADD SWAP1 POP SWAP2 SWAP1 POP JUMP JUMPDEST PUSH0 PUSH1 0x20 DUP3 ADD SWAP1 POP DUP2 DUP2 SUB PUSH0 DUP4 ADD MSTORE PUSH2 0x309B DUP2 PUSH2 0x3062 JUMP JUMPDEST SWAP1 POP SWAP2 SWAP1 POP JUMP JUMPDEST PUSH32 0x4E487B7100000000000000000000000000000000000000000000000000000000 PUSH0 MSTORE PUSH1 0x11 PUSH1 0x4 MSTORE PUSH1 0x24 PUSH0 REVERT JUMPDEST PUSH0 PUSH2 0x30D9 DUP3 PUSH2 0x2D9A JUMP JUMPDEST SWAP2 POP PUSH2 0x30E4 DUP4 PUSH2 0x2D9A JUMP JUMPDEST SWAP3 POP DUP3 DUP3 MUL PUSH2 0x30F2 DUP2 PUSH2 0x2D9A JUMP JUMPDEST SWAP2 POP DUP3 DUP3 DIV DUP5 EQ DUP4 ISZERO OR PUSH2 0x3109 JUMPI PUSH2 0x3108 PUSH2 0x30A2 JUMP JUMPDEST JUMPDEST POP SWAP3 SWAP2 POP POP JUMP JUMPDEST PUSH0 PUSH2 0x311A DUP3 PUSH2 0x2D9A JUMP JUMPDEST SWAP2 POP PUSH2 0x3125 DUP4 PUSH2 0x2D9A JUMP JUMPDEST SWAP3 POP DUP3 DUP3 ADD SWAP1 POP DUP1 DUP3 GT ISZERO PUSH2 0x313D JUMPI PUSH2 0x313C PUSH2 0x30A2 JUMP JUMPDEST JUMPDEST SWAP3 SWAP2 POP POP JUMP JUMPDEST PUSH32 0x596F7520646F6E27742067697665204554480000000000000000000000000000 PUSH0 DUP3 ADD MSTORE POP JUMP JUMPDEST PUSH0 PUSH2 0x3177 PUSH1 0x12 DUP4 PUSH2 0x2F9C JUMP JUMPDEST SWAP2 POP PUSH2 0x3182 DUP3 PUSH2 0x3143 JUMP JUMPDEST PUSH1 0x20 DUP3 ADD SWAP1 POP SWAP2 SWAP1 POP JUMP JUMPDEST PUSH0 PUSH1 0x20 DUP3 ADD SWAP1 POP DUP2 DUP2 SUB PUSH0 DUP4 ADD MSTORE PUSH2 0x31A4 DUP2 PUSH2 0x316B JUMP JUMPDEST SWAP1 POP SWAP2 SWAP1 POP JUMP JUMPDEST PUSH32 0x4E487B7100000000000000000000000000000000000000000000000000000000 PUSH0 MSTORE PUSH1 0x32 PUSH1 0x4 MSTORE PUSH1 0x24 PUSH0 REVERT JUMPDEST PUSH32 0x4E487B7100000000000000000000000000000000000000000000000000000000 PUSH0 MSTORE PUSH1 0x12 PUSH1 0x4 MSTORE PUSH1 0x24 PUSH0 REVERT JUMPDEST PUSH0 PUSH2 0x320F DUP3 PUSH2 0x2D9A JUMP JUMPDEST SWAP2 POP PUSH2 0x321A DUP4 PUSH2 0x2D9A JUMP JUMPDEST SWAP3 POP DUP3 PUSH2 0x322A JUMPI PUSH2 0x3229 PUSH2 0x31D8 JUMP JUMPDEST JUMPDEST DUP3 DUP3 DIV SWAP1 POP SWAP3 SWAP2 POP POP JUMP JUMPDEST PUSH0 DUP2 SWAP1 POP SWAP2 SWAP1 POP JUMP JUMPDEST PUSH0 PUSH2 0x3258 PUSH2 0x3253 PUSH2 0x324E DUP5 PUSH2 0x2D40 JUMP JUMPDEST PUSH2 0x3235 JUMP JUMPDEST PUSH2 0x2D40 JUMP JUMPDEST SWAP1 POP SWAP2 SWAP1 POP JUMP JUMPDEST PUSH0 PUSH2 0x3269 DUP3 PUSH2 0x323E JUMP JUMPDEST SWAP1 POP SWAP2 SWAP1 POP JUMP JUMPDEST PUSH0 PUSH2 0x327A DUP3 PUSH2 0x325F JUMP JUMPDEST SWAP1 POP SWAP2 SWAP1 POP JUMP JUMPDEST PUSH2 0x328A DUP2 PUSH2 0x3270 JUMP JUMPDEST DUP3 MSTORE POP POP JUMP JUMPDEST PUSH0 PUSH1 0x60 DUP3 ADD SWAP1 POP PUSH2 0x32A3 PUSH0 DUP4 ADD DUP7 PUSH2 0x3281 JUMP JUMPDEST PUSH2 0x32B0 PUSH1 0x20 DUP4 ADD DUP6 PUSH2 0x2F4C JUMP JUMPDEST PUSH2 0x32BD PUSH1 0x40 DUP4 ADD DUP5 PUSH2 0x2F4C JUMP JUMPDEST SWAP5 SWAP4 POP POP POP POP JUMP JUMPDEST PUSH32 0x5468697320616464726573732068617320696E73756666696369656E74207065 PUSH0 DUP3 ADD MSTORE PUSH32 0x726D697373696F6E730000000000000000000000000000000000000000000000 PUSH1 0x20 DUP3 ADD MSTORE POP JUMP JUMPDEST PUSH0 PUSH2 0x331F PUSH1 0x29 DUP4 PUSH2 0x2F9C JUMP JUMPDEST SWAP2 POP PUSH2 0x332A DUP3 PUSH2 0x32C5 JUMP JUMPDEST PUSH1 0x40 DUP3 ADD SWAP1 POP SWAP2 SWAP1 POP JUMP JUMPDEST PUSH0 PUSH1 0x20 DUP3 ADD SWAP1 POP DUP2 DUP2 SUB PUSH0 DUP4 ADD MSTORE PUSH2 0x334C DUP2 PUSH2 0x3313 JUMP JUMPDEST SWAP1 POP SWAP2 SWAP1 POP JUMP JUMPDEST PUSH32 0x5765206E65656420706179206F666620746865207374616B696E6720746F2074 PUSH0 DUP3 ADD MSTORE PUSH32 0x686520637573746F6D6572000000000000000000000000000000000000000000 PUSH1 0x20 DUP3 ADD MSTORE POP JUMP JUMPDEST PUSH0 PUSH2 0x33AD PUSH1 0x2B DUP4 PUSH2 0x2F9C JUMP JUMPDEST SWAP2 POP PUSH2 0x33B8 DUP3 PUSH2 0x3353 JUMP JUMPDEST PUSH1 0x40 DUP3 ADD SWAP1 POP SWAP2 SWAP1 POP JUMP JUMPDEST PUSH0 PUSH1 0x20 DUP3 ADD SWAP1 POP DUP2 DUP2 SUB PUSH0 DUP4 ADD MSTORE PUSH2 0x33DA DUP2 PUSH2 0x33A1 JUMP JUMPDEST SWAP1 POP SWAP2 SWAP1 POP JUMP JUMPDEST PUSH0 PUSH2 0x33EB DUP3 PUSH2 0x2D9A JUMP JUMPDEST SWAP2 POP PUSH2 0x33F6 DUP4 PUSH2 0x2D9A JUMP JUMPDEST SWAP3 POP DUP3 DUP3 SUB SWAP1 POP DUP2 DUP2 GT ISZERO PUSH2 0x340E JUMPI PUSH2 0x340D PUSH2 0x30A2 JUMP JUMPDEST JUMPDEST SWAP3 SWAP2 POP POP JUMP JUMPDEST PUSH32 0x54686973206163636F756E7420697320616C7265616479206578697374000000 PUSH0 DUP3 ADD MSTORE POP JUMP JUMPDEST PUSH0 PUSH2 0x3448 PUSH1 0x1D DUP4 PUSH2 0x2F9C JUMP JUMPDEST SWAP2 POP PUSH2 0x3453 DUP3 PUSH2 0x3414 JUMP JUMPDEST PUSH1 0x20 DUP3 ADD SWAP1 POP SWAP2 SWAP1 POP JUMP JUMPDEST PUSH0 PUSH1 0x20 DUP3 ADD SWAP1 POP DUP2 DUP2 SUB PUSH0 DUP4 ADD MSTORE PUSH2 0x3475 DUP2 PUSH2 0x343C JUMP JUMPDEST SWAP1 POP SWAP2 SWAP1 POP JUMP JUMPDEST PUSH32 0x4469646E277420737570706C7920455448000000000000000000000000000000 PUSH0 DUP3 ADD MSTORE POP JUMP JUMPDEST PUSH0 PUSH2 0x34B0 PUSH1 0x11 DUP4 PUSH2 0x2F9C JUMP JUMPDEST SWAP2 POP PUSH2 0x34BB DUP3 PUSH2 0x347C JUMP JUMPDEST PUSH1 0x20 DUP3 ADD SWAP1 POP SWAP2 SWAP1 POP JUMP JUMPDEST PUSH0 PUSH1 0x20 DUP3 ADD SWAP1 POP DUP2 DUP2 SUB PUSH0 DUP4 ADD MSTORE PUSH2 0x34DD DUP2 PUSH2 0x34A4 JUMP JUMPDEST SWAP1 POP SWAP2 SWAP1 POP JUMP JUMPDEST PUSH32 0x5374616B696E672076616C7565206973206E6F7420656E6F7567680000000000 PUSH0 DUP3 ADD MSTORE POP JUMP JUMPDEST PUSH0 PUSH2 0x3518 PUSH1 0x1B DUP4 PUSH2 0x2F9C JUMP JUMPDEST SWAP2 POP PUSH2 0x3523 DUP3 PUSH2 0x34E4 JUMP JUMPDEST PUSH1 0x20 DUP3 ADD SWAP1 POP SWAP2 SWAP1 POP JUMP JUMPDEST PUSH0 PUSH1 0x20 DUP3 ADD SWAP1 POP DUP2 DUP2 SUB PUSH0 DUP4 ADD MSTORE PUSH2 0x3545 DUP2 PUSH2 0x350C JUMP JUMPDEST SWAP1 POP SWAP2 SWAP1 POP JUMP INVALID LOG2 PUSH5 0x6970667358 0x22 SLT KECCAK256 0x2A LOG0 SWAP10 PUSH26 0xAACA353C498B7D16551DB9BB43A8508FEE1066DF861000AE7775 0xA6 0xE1 PUSH5 0x736F6C6343 STOP ADDMOD AND STOP CALLER "
				},
				"gasEstimates": {
					"creation": {
						"codeDepositCost": "2739600",
						"executionCost": "178762",
						"totalCost": "2918362"
					},
					"external": {
						"add_customer(address)": "infinite",
						"add_manager(address)": "infinite",
						"change_owner(address)": "26971",
						"change_staking_account(address)": "26992",
						"change_staking_add_value(address,uint256)": "27302",
						"change_staking_value(address,uint256)": "27323",
						"delete_customer(address)": "infinite",
						"delete_manager(address)": "60770",
						"getOwner()": "2604",
						"get_allcustomer_reward()": "infinite",
						"get_customer_address(address)": "infinite",
						"get_customer_data(address)": "infinite",
						"get_customer_id(address)": "5120",
						"get_staking_value(address)": "infinite",
						"give_all_reward()": "infinite",
						"increase_staking_time(address,uint256)": "infinite",
						"increase_staking_value(address)": "infinite",
						"reduce_staking_time(address,uint256)": "infinite",
						"reduce_staking_value(address)": "infinite",
						"take_out_ETH(address)": "infinite"
					}
				},
				"methodIdentifiers": {
					"add_customer(address)": "a643a04f",
					"add_manager(address)": "3922d551",
					"change_owner(address)": "253c8bd4",
					"change_staking_account(address)": "9b8163ef",
					"change_staking_add_value(address,uint256)": "2057c859",
					"change_staking_value(address,uint256)": "85afee73",
					"delete_customer(address)": "3fdeec79",
					"delete_manager(address)": "656b6b7e",
					"getOwner()": "893d20e8",
					"get_allcustomer_reward()": "70e2f488",
					"get_customer_address(address)": "7ea17dcc",
					"get_customer_data(address)": "2a663c2c",
					"get_customer_id(address)": "a4686b8f",
					"get_staking_value(address)": "d7fa1083",
					"give_all_reward()": "20da9698",
					"increase_staking_time(address,uint256)": "15a0b37b",
					"increase_staking_value(address)": "d3b318fb",
					"reduce_staking_time(address,uint256)": "6997f1e2",
					"reduce_staking_value(address)": "b45b7fe4",
					"take_out_ETH(address)": "31b3fac2"
				}
			},
			"storageLayout": {
				"storage": [
					{
						"astId": 3,
						"contract": "contracts/contracts/work/customer1.sol:customer",
						"label": "owner",
						"offset": 0,
						"slot": "0",
						"type": "t_address"
					},
					{
						"astId": 6,
						"contract": "contracts/contracts/work/customer1.sol:customer",
						"label": "manager",
						"offset": 0,
						"slot": "1",
						"type": "t_array(t_address)dyn_storage"
					},
					{
						"astId": 11,
						"contract": "contracts/contracts/work/customer1.sol:customer",
						"label": "manager_map",
						"offset": 0,
						"slot": "2",
						"type": "t_mapping(t_address,t_struct(Manager)19_storage)"
					},
					{
						"astId": 14,
						"contract": "contracts/contracts/work/customer1.sol:customer",
						"label": "id",
						"offset": 0,
						"slot": "3",
						"type": "t_uint256"
					},
					{
						"astId": 150,
						"contract": "contracts/contracts/work/customer1.sol:customer",
						"label": "amount",
						"offset": 0,
						"slot": "4",
						"type": "t_uint256"
					},
					{
						"astId": 152,
						"contract": "contracts/contracts/work/customer1.sol:customer",
						"label": "reward_time",
						"offset": 0,
						"slot": "5",
						"type": "t_uint256"
					},
					{
						"astId": 155,
						"contract": "contracts/contracts/work/customer1.sol:customer",
						"label": "account",
						"offset": 0,
						"slot": "6",
						"type": "t_array(t_address)dyn_storage"
					},
					{
						"astId": 157,
						"contract": "contracts/contracts/work/customer1.sol:customer",
						"label": "staking_account",
						"offset": 0,
						"slot": "7",
						"type": "t_address_payable"
					},
					{
						"astId": 162,
						"contract": "contracts/contracts/work/customer1.sol:customer",
						"label": "customer_map",
						"offset": 0,
						"slot": "8",
						"type": "t_mapping(t_address,t_struct(Customer)200_storage)"
					}
				],
				"types": {
					"t_address": {
						"encoding": "inplace",
						"label": "address",
						"numberOfBytes": "20"
					},
					"t_address_payable": {
						"encoding": "inplace",
						"label": "address payable",
						"numberOfBytes": "20"
					},
					"t_array(t_address)dyn_storage": {
						"base": "t_address",
						"encoding": "dynamic_array",
						"label": "address[]",
						"numberOfBytes": "32"
					},
					"t_mapping(t_address,t_struct(Customer)200_storage)": {
						"encoding": "mapping",
						"key": "t_address",
						"label": "mapping(address => struct customer.Customer)",
						"numberOfBytes": "32",
						"value": "t_struct(Customer)200_storage"
					},
					"t_mapping(t_address,t_struct(Manager)19_storage)": {
						"encoding": "mapping",
						"key": "t_address",
						"label": "mapping(address => struct Owner.Manager)",
						"numberOfBytes": "32",
						"value": "t_struct(Manager)19_storage"
					},
					"t_struct(Customer)200_storage": {
						"encoding": "inplace",
						"label": "struct customer.Customer",
						"members": [
							{
								"astId": 189,
								"contract": "contracts/contracts/work/customer1.sol:customer",
								"label": "customer_address",
								"offset": 0,
								"slot": "0",
								"type": "t_address"
							},
							{
								"astId": 191,
								"contract": "contracts/contracts/work/customer1.sol:customer",
								"label": "value",
								"offset": 0,
								"slot": "1",
								"type": "t_uint256"
							},
							{
								"astId": 193,
								"contract": "contracts/contracts/work/customer1.sol:customer",
								"label": "add_value",
								"offset": 0,
								"slot": "2",
								"type": "t_uint256"
							},
							{
								"astId": 195,
								"contract": "contracts/contracts/work/customer1.sol:customer",
								"label": "time",
								"offset": 0,
								"slot": "3",
								"type": "t_uint256"
							},
							{
								"astId": 197,
								"contract": "contracts/contracts/work/customer1.sol:customer",
								"label": "newtime",
								"offset": 0,
								"slot": "4",
								"type": "t_uint256"
							},
							{
								"astId": 199,
								"contract": "contracts/contracts/work/customer1.sol:customer",
								"label": "id",
								"offset": 0,
								"slot": "5",
								"type": "t_uint256"
							}
						],
						"numberOfBytes": "192"
					},
					"t_struct(Manager)19_storage": {
						"encoding": "inplace",
						"label": "struct Owner.Manager",
						"members": [
							{
								"astId": 16,
								"contract": "contracts/contracts/work/customer1.sol:customer",
								"label": "manager_address",
								"offset": 0,
								"slot": "0",
								"type": "t_address"
							},
							{
								"astId": 18,
								"contract": "contracts/contracts/work/customer1.sol:customer",
								"label": "manager_id",
								"offset": 0,
								"slot": "1",
								"type": "t_uint256"
							}
						],
						"numberOfBytes": "64"
					},
					"t_uint256": {
						"encoding": "inplace",
						"label": "uint256",
						"numberOfBytes": "32"
					}
				}
			},
			"userdoc": {
				"kind": "user",
				"methods": {},
				"version": 1
			}
		}
	}
}