{
	"contracts/contracts/work/customer1.sol": {
		"Owner": {
			"abi": [
				{
					"inputs": [],
					"stateMutability": "nonpayable",
					"type": "constructor"
				},
				{
					"inputs": [
						{
							"internalType": "address",
							"name": "_address",
							"type": "address"
						}
					],
					"name": "add_manager",
					"outputs": [],
					"stateMutability": "nonpayable",
					"type": "function"
				},
				{
					"inputs": [
						{
							"internalType": "address",
							"name": "_address",
							"type": "address"
						}
					],
					"name": "change_owner",
					"outputs": [],
					"stateMutability": "nonpayable",
					"type": "function"
				},
				{
					"inputs": [
						{
							"internalType": "address",
							"name": "_address",
							"type": "address"
						}
					],
					"name": "delete_manager",
					"outputs": [],
					"stateMutability": "nonpayable",
					"type": "function"
				},
				{
					"inputs": [],
					"name": "getOwner",
					"outputs": [
						{
							"internalType": "address",
							"name": "",
							"type": "address"
						}
					],
					"stateMutability": "view",
					"type": "function"
				}
			],
			"devdoc": {
				"kind": "dev",
				"methods": {},
				"version": 1
			},
			"evm": {
				"assembly": "    /* \"contracts/contracts/work/customer1.sol\":65:1788  contract Owner{             ... */\n  mstore(0x40, 0x80)\n    /* \"contracts/contracts/work/customer1.sol\":447:448  1 */\n  0x01\n    /* \"contracts/contracts/work/customer1.sol\":429:448  uint private id = 1 */\n  0x03\n  sstore\n    /* \"contracts/contracts/work/customer1.sol\":547:819  constructor(){              //合約部屬時會執行constructor的內容... */\n  callvalue\n  dup1\n  iszero\n  tag_1\n  jumpi\n  0x00\n  dup1\n  revert\ntag_1:\n  pop\n    /* \"contracts/contracts/work/customer1.sol\":639:649  msg.sender */\n  caller\n    /* \"contracts/contracts/work/customer1.sol\":631:636  owner */\n  0x00\n  dup1\n    /* \"contracts/contracts/work/customer1.sol\":631:649  owner = msg.sender */\n  0x0100\n  exp\n  dup2\n  sload\n  dup2\n  0xffffffffffffffffffffffffffffffffffffffff\n  mul\n  not\n  and\n  swap1\n  dup4\n  0xffffffffffffffffffffffffffffffffffffffff\n  and\n  mul\n  or\n  swap1\n  sstore\n  pop\n    /* \"contracts/contracts/work/customer1.sol\":755:776  Manager(msg.sender,0) */\n  mload(0x40)\n  dup1\n  0x40\n  add\n  0x40\n  mstore\n  dup1\n    /* \"contracts/contracts/work/customer1.sol\":763:773  msg.sender */\n  caller\n    /* \"contracts/contracts/work/customer1.sol\":755:776  Manager(msg.sender,0) */\n  0xffffffffffffffffffffffffffffffffffffffff\n  and\n  dup2\n  mstore\n  0x20\n  add\n    /* \"contracts/contracts/work/customer1.sol\":774:775  0 */\n  0x00\n    /* \"contracts/contracts/work/customer1.sol\":755:776  Manager(msg.sender,0) */\n  dup2\n  mstore\n  pop\n    /* \"contracts/contracts/work/customer1.sol\":729:740  manager_map */\n  0x02\n    /* \"contracts/contracts/work/customer1.sol\":729:752  manager_map[msg.sender] */\n  0x00\n    /* \"contracts/contracts/work/customer1.sol\":741:751  msg.sender */\n  caller\n    /* \"contracts/contracts/work/customer1.sol\":729:752  manager_map[msg.sender] */\n  0xffffffffffffffffffffffffffffffffffffffff\n  and\n  0xffffffffffffffffffffffffffffffffffffffff\n  and\n  dup2\n  mstore\n  0x20\n  add\n  swap1\n  dup2\n  mstore\n  0x20\n  add\n  0x00\n  keccak256\n    /* \"contracts/contracts/work/customer1.sol\":729:776  manager_map[msg.sender] = Manager(msg.sender,0) */\n  0x00\n  dup3\n  add\n  mload\n  dup2\n  0x00\n  add\n  exp(0x0100, 0x00)\n  dup2\n  sload\n  dup2\n  0xffffffffffffffffffffffffffffffffffffffff\n  mul\n  not\n  and\n  swap1\n  dup4\n  0xffffffffffffffffffffffffffffffffffffffff\n  and\n  mul\n  or\n  swap1\n  sstore\n  pop\n  0x20\n  dup3\n  add\n  mload\n  dup2\n  0x01\n  add\n  sstore\n  swap1\n  pop\n  pop\n    /* \"contracts/contracts/work/customer1.sol\":787:794  manager */\n  0x01\n    /* \"contracts/contracts/work/customer1.sol\":800:810  msg.sender */\n  caller\n    /* \"contracts/contracts/work/customer1.sol\":787:811  manager.push(msg.sender) */\n  swap1\n  dup1\n  0x01\n  dup2\n  sload\n  add\n  dup1\n  dup3\n  sstore\n  dup1\n  swap2\n  pop\n  pop\n  0x01\n  swap1\n  sub\n  swap1\n  0x00\n  mstore\n  keccak256(0x00, 0x20)\n  add\n  0x00\n  swap1\n  swap2\n  swap1\n  swap2\n  swap1\n  swap2\n  0x0100\n  exp\n  dup2\n  sload\n  dup2\n  0xffffffffffffffffffffffffffffffffffffffff\n  mul\n  not\n  and\n  swap1\n  dup4\n  0xffffffffffffffffffffffffffffffffffffffff\n  and\n  mul\n  or\n  swap1\n  sstore\n  pop\n    /* \"contracts/contracts/work/customer1.sol\":65:1788  contract Owner{             ... */\n  dataSize(sub_0)\n  dup1\n  dataOffset(sub_0)\n  0x00\n  codecopy\n  0x00\n  return\nstop\n\nsub_0: assembly {\n        /* \"contracts/contracts/work/customer1.sol\":65:1788  contract Owner{             ... */\n      mstore(0x40, 0x80)\n      callvalue\n      dup1\n      iszero\n      tag_1\n      jumpi\n      0x00\n      dup1\n      revert\n    tag_1:\n      pop\n      jumpi(tag_2, lt(calldatasize, 0x04))\n      shr(0xe0, calldataload(0x00))\n      dup1\n      0x253c8bd4\n      eq\n      tag_3\n      jumpi\n      dup1\n      0x3922d551\n      eq\n      tag_4\n      jumpi\n      dup1\n      0x656b6b7e\n      eq\n      tag_5\n      jumpi\n      dup1\n      0x893d20e8\n      eq\n      tag_6\n      jumpi\n    tag_2:\n      0x00\n      dup1\n      revert\n        /* \"contracts/contracts/work/customer1.sol\":1220:1345  function change_owner(address _address) onlyOwner public{           //更改合約擁有人... */\n    tag_3:\n      tag_7\n      0x04\n      dup1\n      calldatasize\n      sub\n      dup2\n      add\n      swap1\n      tag_8\n      swap2\n      swap1\n      tag_9\n      jump\t// in\n    tag_8:\n      tag_10\n      jump\t// in\n    tag_7:\n      stop\n        /* \"contracts/contracts/work/customer1.sol\":1353:1524  function add_manager(address _address) onlyManager public{... */\n    tag_4:\n      tag_11\n      0x04\n      dup1\n      calldatasize\n      sub\n      dup2\n      add\n      swap1\n      tag_12\n      swap2\n      swap1\n      tag_9\n      jump\t// in\n    tag_12:\n      tag_13\n      jump\t// in\n    tag_11:\n      stop\n        /* \"contracts/contracts/work/customer1.sol\":1532:1698  function delete_manager(address _address) onlyManager public{... */\n    tag_5:\n      tag_14\n      0x04\n      dup1\n      calldatasize\n      sub\n      dup2\n      add\n      swap1\n      tag_15\n      swap2\n      swap1\n      tag_9\n      jump\t// in\n    tag_15:\n      tag_16\n      jump\t// in\n    tag_14:\n      stop\n        /* \"contracts/contracts/work/customer1.sol\":1706:1785  function getOwner() view public returns(address){... */\n    tag_6:\n      tag_17\n      tag_18\n      jump\t// in\n    tag_17:\n      mload(0x40)\n      tag_19\n      swap2\n      swap1\n      tag_20\n      jump\t// in\n    tag_19:\n      mload(0x40)\n      dup1\n      swap2\n      sub\n      swap1\n      return\n        /* \"contracts/contracts/work/customer1.sol\":1220:1345  function change_owner(address _address) onlyOwner public{           //更改合約擁有人... */\n    tag_10:\n        /* \"contracts/contracts/work/customer1.sol\":917:927  msg.sender */\n      caller\n        /* \"contracts/contracts/work/customer1.sol\":908:927  owner == msg.sender */\n      0xffffffffffffffffffffffffffffffffffffffff\n      and\n        /* \"contracts/contracts/work/customer1.sol\":908:913  owner */\n      0x00\n      dup1\n      sload\n      swap1\n      0x0100\n      exp\n      swap1\n      div\n      0xffffffffffffffffffffffffffffffffffffffff\n      and\n        /* \"contracts/contracts/work/customer1.sol\":908:927  owner == msg.sender */\n      0xffffffffffffffffffffffffffffffffffffffff\n      and\n      eq\n        /* \"contracts/contracts/work/customer1.sol\":900:965  require(owner == msg.sender,\"This address is not contract Owner\") */\n      tag_22\n      jumpi\n      mload(0x40)\n      0x08c379a000000000000000000000000000000000000000000000000000000000\n      dup2\n      mstore\n      0x04\n      add\n      tag_23\n      swap1\n      tag_24\n      jump\t// in\n    tag_23:\n      mload(0x40)\n      dup1\n      swap2\n      sub\n      swap1\n      revert\n    tag_22:\n        /* \"contracts/contracts/work/customer1.sol\":1329:1337  _address */\n      dup1\n        /* \"contracts/contracts/work/customer1.sol\":1321:1326  owner */\n      0x00\n      dup1\n        /* \"contracts/contracts/work/customer1.sol\":1321:1337  owner = _address */\n      0x0100\n      exp\n      dup2\n      sload\n      dup2\n      0xffffffffffffffffffffffffffffffffffffffff\n      mul\n      not\n      and\n      swap1\n      dup4\n      0xffffffffffffffffffffffffffffffffffffffff\n      and\n      mul\n      or\n      swap1\n      sstore\n      pop\n        /* \"contracts/contracts/work/customer1.sol\":1220:1345  function change_owner(address _address) onlyOwner public{           //更改合約擁有人... */\n      pop\n      jump\t// out\n        /* \"contracts/contracts/work/customer1.sol\":1353:1524  function add_manager(address _address) onlyManager public{... */\n    tag_13:\n        /* \"contracts/contracts/work/customer1.sol\":1115:1116  0 */\n      0x00\n        /* \"contracts/contracts/work/customer1.sol\":1064:1117  manager_map[msg.sender].manager_address != address(0) */\n      0xffffffffffffffffffffffffffffffffffffffff\n      and\n        /* \"contracts/contracts/work/customer1.sol\":1064:1075  manager_map */\n      0x02\n        /* \"contracts/contracts/work/customer1.sol\":1064:1087  manager_map[msg.sender] */\n      0x00\n        /* \"contracts/contracts/work/customer1.sol\":1076:1086  msg.sender */\n      caller\n        /* \"contracts/contracts/work/customer1.sol\":1064:1087  manager_map[msg.sender] */\n      0xffffffffffffffffffffffffffffffffffffffff\n      and\n      0xffffffffffffffffffffffffffffffffffffffff\n      and\n      dup2\n      mstore\n      0x20\n      add\n      swap1\n      dup2\n      mstore\n      0x20\n      add\n      0x00\n      keccak256\n        /* \"contracts/contracts/work/customer1.sol\":1064:1103  manager_map[msg.sender].manager_address */\n      0x00\n      add\n      0x00\n      swap1\n      sload\n      swap1\n      0x0100\n      exp\n      swap1\n      div\n      0xffffffffffffffffffffffffffffffffffffffff\n      and\n        /* \"contracts/contracts/work/customer1.sol\":1064:1117  manager_map[msg.sender].manager_address != address(0) */\n      0xffffffffffffffffffffffffffffffffffffffff\n      and\n      sub\n        /* \"contracts/contracts/work/customer1.sol\":1056:1162  require(manager_map[msg.sender].manager_address != address(0),\"This address has insufficient permissions\") */\n      tag_27\n      jumpi\n      mload(0x40)\n      0x08c379a000000000000000000000000000000000000000000000000000000000\n      dup2\n      mstore\n      0x04\n      add\n      tag_28\n      swap1\n      tag_29\n      jump\t// in\n    tag_28:\n      mload(0x40)\n      dup1\n      swap2\n      sub\n      swap1\n      revert\n    tag_27:\n        /* \"contracts/contracts/work/customer1.sol\":1445:1465  Manager(_address,id) */\n      mload(0x40)\n      dup1\n      0x40\n      add\n      0x40\n      mstore\n      dup1\n        /* \"contracts/contracts/work/customer1.sol\":1453:1461  _address */\n      dup3\n        /* \"contracts/contracts/work/customer1.sol\":1445:1465  Manager(_address,id) */\n      0xffffffffffffffffffffffffffffffffffffffff\n      and\n      dup2\n      mstore\n      0x20\n      add\n        /* \"contracts/contracts/work/customer1.sol\":1462:1464  id */\n      sload(0x03)\n        /* \"contracts/contracts/work/customer1.sol\":1445:1465  Manager(_address,id) */\n      dup2\n      mstore\n      pop\n        /* \"contracts/contracts/work/customer1.sol\":1421:1432  manager_map */\n      0x02\n        /* \"contracts/contracts/work/customer1.sol\":1421:1442  manager_map[_address] */\n      0x00\n        /* \"contracts/contracts/work/customer1.sol\":1433:1441  _address */\n      dup4\n        /* \"contracts/contracts/work/customer1.sol\":1421:1442  manager_map[_address] */\n      0xffffffffffffffffffffffffffffffffffffffff\n      and\n      0xffffffffffffffffffffffffffffffffffffffff\n      and\n      dup2\n      mstore\n      0x20\n      add\n      swap1\n      dup2\n      mstore\n      0x20\n      add\n      0x00\n      keccak256\n        /* \"contracts/contracts/work/customer1.sol\":1421:1465  manager_map[_address] = Manager(_address,id) */\n      0x00\n      dup3\n      add\n      mload\n      dup2\n      0x00\n      add\n      exp(0x0100, 0x00)\n      dup2\n      sload\n      dup2\n      0xffffffffffffffffffffffffffffffffffffffff\n      mul\n      not\n      and\n      swap1\n      dup4\n      0xffffffffffffffffffffffffffffffffffffffff\n      and\n      mul\n      or\n      swap1\n      sstore\n      pop\n      0x20\n      dup3\n      add\n      mload\n      dup2\n      0x01\n      add\n      sstore\n      swap1\n      pop\n      pop\n        /* \"contracts/contracts/work/customer1.sol\":1476:1483  manager */\n      0x01\n        /* \"contracts/contracts/work/customer1.sol\":1489:1497  _address */\n      dup2\n        /* \"contracts/contracts/work/customer1.sol\":1476:1498  manager.push(_address) */\n      swap1\n      dup1\n      0x01\n      dup2\n      sload\n      add\n      dup1\n      dup3\n      sstore\n      dup1\n      swap2\n      pop\n      pop\n      0x01\n      swap1\n      sub\n      swap1\n      0x00\n      mstore\n      keccak256(0x00, 0x20)\n      add\n      0x00\n      swap1\n      swap2\n      swap1\n      swap2\n      swap1\n      swap2\n      0x0100\n      exp\n      dup2\n      sload\n      dup2\n      0xffffffffffffffffffffffffffffffffffffffff\n      mul\n      not\n      and\n      swap1\n      dup4\n      0xffffffffffffffffffffffffffffffffffffffff\n      and\n      mul\n      or\n      swap1\n      sstore\n      pop\n        /* \"contracts/contracts/work/customer1.sol\":1515:1516  1 */\n      0x01\n        /* \"contracts/contracts/work/customer1.sol\":1509:1511  id */\n      0x03\n      0x00\n        /* \"contracts/contracts/work/customer1.sol\":1509:1516  id += 1 */\n      dup3\n      dup3\n      sload\n      tag_32\n      swap2\n      swap1\n      tag_33\n      jump\t// in\n    tag_32:\n      swap3\n      pop\n      pop\n      dup2\n      swap1\n      sstore\n      pop\n        /* \"contracts/contracts/work/customer1.sol\":1353:1524  function add_manager(address _address) onlyManager public{... */\n      pop\n      jump\t// out\n        /* \"contracts/contracts/work/customer1.sol\":1532:1698  function delete_manager(address _address) onlyManager public{... */\n    tag_16:\n        /* \"contracts/contracts/work/customer1.sol\":1115:1116  0 */\n      0x00\n        /* \"contracts/contracts/work/customer1.sol\":1064:1117  manager_map[msg.sender].manager_address != address(0) */\n      0xffffffffffffffffffffffffffffffffffffffff\n      and\n        /* \"contracts/contracts/work/customer1.sol\":1064:1075  manager_map */\n      0x02\n        /* \"contracts/contracts/work/customer1.sol\":1064:1087  manager_map[msg.sender] */\n      0x00\n        /* \"contracts/contracts/work/customer1.sol\":1076:1086  msg.sender */\n      caller\n        /* \"contracts/contracts/work/customer1.sol\":1064:1087  manager_map[msg.sender] */\n      0xffffffffffffffffffffffffffffffffffffffff\n      and\n      0xffffffffffffffffffffffffffffffffffffffff\n      and\n      dup2\n      mstore\n      0x20\n      add\n      swap1\n      dup2\n      mstore\n      0x20\n      add\n      0x00\n      keccak256\n        /* \"contracts/contracts/work/customer1.sol\":1064:1103  manager_map[msg.sender].manager_address */\n      0x00\n      add\n      0x00\n      swap1\n      sload\n      swap1\n      0x0100\n      exp\n      swap1\n      div\n      0xffffffffffffffffffffffffffffffffffffffff\n      and\n        /* \"contracts/contracts/work/customer1.sol\":1064:1117  manager_map[msg.sender].manager_address != address(0) */\n      0xffffffffffffffffffffffffffffffffffffffff\n      and\n      sub\n        /* \"contracts/contracts/work/customer1.sol\":1056:1162  require(manager_map[msg.sender].manager_address != address(0),\"This address has insufficient permissions\") */\n      tag_35\n      jumpi\n      mload(0x40)\n      0x08c379a000000000000000000000000000000000000000000000000000000000\n      dup2\n      mstore\n      0x04\n      add\n      tag_36\n      swap1\n      tag_29\n      jump\t// in\n    tag_36:\n      mload(0x40)\n      dup1\n      swap2\n      sub\n      swap1\n      revert\n    tag_35:\n        /* \"contracts/contracts/work/customer1.sol\":1610:1617  manager */\n      0x01\n        /* \"contracts/contracts/work/customer1.sol\":1618:1629  manager_map */\n      0x02\n        /* \"contracts/contracts/work/customer1.sol\":1618:1639  manager_map[_address] */\n      0x00\n        /* \"contracts/contracts/work/customer1.sol\":1630:1638  _address */\n      dup4\n        /* \"contracts/contracts/work/customer1.sol\":1618:1639  manager_map[_address] */\n      0xffffffffffffffffffffffffffffffffffffffff\n      and\n      0xffffffffffffffffffffffffffffffffffffffff\n      and\n      dup2\n      mstore\n      0x20\n      add\n      swap1\n      dup2\n      mstore\n      0x20\n      add\n      0x00\n      keccak256\n        /* \"contracts/contracts/work/customer1.sol\":1618:1650  manager_map[_address].manager_id */\n      0x01\n      add\n      sload\n        /* \"contracts/contracts/work/customer1.sol\":1610:1651  manager[manager_map[_address].manager_id] */\n      dup2\n      sload\n      dup2\n      lt\n      tag_38\n      jumpi\n      tag_39\n      tag_40\n      jump\t// in\n    tag_39:\n    tag_38:\n      swap1\n      0x00\n      mstore\n      keccak256(0x00, 0x20)\n      add\n      0x00\n        /* \"contracts/contracts/work/customer1.sol\":1603:1651  delete manager[manager_map[_address].manager_id] */\n      0x0100\n      exp\n      dup2\n      sload\n      swap1\n      0xffffffffffffffffffffffffffffffffffffffff\n      mul\n      not\n      and\n      swap1\n      sstore\n        /* \"contracts/contracts/work/customer1.sol\":1669:1680  manager_map */\n      0x02\n        /* \"contracts/contracts/work/customer1.sol\":1669:1690  manager_map[_address] */\n      0x00\n        /* \"contracts/contracts/work/customer1.sol\":1681:1689  _address */\n      dup3\n        /* \"contracts/contracts/work/customer1.sol\":1669:1690  manager_map[_address] */\n      0xffffffffffffffffffffffffffffffffffffffff\n      and\n      0xffffffffffffffffffffffffffffffffffffffff\n      and\n      dup2\n      mstore\n      0x20\n      add\n      swap1\n      dup2\n      mstore\n      0x20\n      add\n      0x00\n      keccak256\n      0x00\n        /* \"contracts/contracts/work/customer1.sol\":1662:1690  delete manager_map[_address] */\n      dup1\n      dup3\n      add\n      exp(0x0100, 0x00)\n      dup2\n      sload\n      swap1\n      0xffffffffffffffffffffffffffffffffffffffff\n      mul\n      not\n      and\n      swap1\n      sstore\n      0x01\n      dup3\n      add\n      0x00\n      swap1\n      sstore\n      pop\n      pop\n        /* \"contracts/contracts/work/customer1.sol\":1532:1698  function delete_manager(address _address) onlyManager public{... */\n      pop\n      jump\t// out\n        /* \"contracts/contracts/work/customer1.sol\":1706:1785  function getOwner() view public returns(address){... */\n    tag_18:\n        /* \"contracts/contracts/work/customer1.sol\":1746:1753  address */\n      0x00\n        /* \"contracts/contracts/work/customer1.sol\":1772:1777  owner */\n      dup1\n      0x00\n      swap1\n      sload\n      swap1\n      0x0100\n      exp\n      swap1\n      div\n      0xffffffffffffffffffffffffffffffffffffffff\n      and\n        /* \"contracts/contracts/work/customer1.sol\":1765:1777  return owner */\n      swap1\n      pop\n        /* \"contracts/contracts/work/customer1.sol\":1706:1785  function getOwner() view public returns(address){... */\n      swap1\n      jump\t// out\n        /* \"#utility.yul\":88:205   */\n    tag_44:\n        /* \"#utility.yul\":197:198   */\n      0x00\n        /* \"#utility.yul\":194:195   */\n      dup1\n        /* \"#utility.yul\":187:199   */\n      revert\n        /* \"#utility.yul\":334:460   */\n    tag_46:\n        /* \"#utility.yul\":371:378   */\n      0x00\n        /* \"#utility.yul\":411:453   */\n      0xffffffffffffffffffffffffffffffffffffffff\n        /* \"#utility.yul\":404:409   */\n      dup3\n        /* \"#utility.yul\":400:454   */\n      and\n        /* \"#utility.yul\":389:454   */\n      swap1\n      pop\n        /* \"#utility.yul\":334:460   */\n      swap2\n      swap1\n      pop\n      jump\t// out\n        /* \"#utility.yul\":466:562   */\n    tag_47:\n        /* \"#utility.yul\":503:510   */\n      0x00\n        /* \"#utility.yul\":532:556   */\n      tag_64\n        /* \"#utility.yul\":550:555   */\n      dup3\n        /* \"#utility.yul\":532:556   */\n      tag_46\n      jump\t// in\n    tag_64:\n        /* \"#utility.yul\":521:556   */\n      swap1\n      pop\n        /* \"#utility.yul\":466:562   */\n      swap2\n      swap1\n      pop\n      jump\t// out\n        /* \"#utility.yul\":568:690   */\n    tag_48:\n        /* \"#utility.yul\":641:665   */\n      tag_66\n        /* \"#utility.yul\":659:664   */\n      dup2\n        /* \"#utility.yul\":641:665   */\n      tag_47\n      jump\t// in\n    tag_66:\n        /* \"#utility.yul\":634:639   */\n      dup2\n        /* \"#utility.yul\":631:666   */\n      eq\n        /* \"#utility.yul\":621:684   */\n      tag_67\n      jumpi\n        /* \"#utility.yul\":680:681   */\n      0x00\n        /* \"#utility.yul\":677:678   */\n      dup1\n        /* \"#utility.yul\":670:682   */\n      revert\n        /* \"#utility.yul\":621:684   */\n    tag_67:\n        /* \"#utility.yul\":568:690   */\n      pop\n      jump\t// out\n        /* \"#utility.yul\":696:835   */\n    tag_49:\n        /* \"#utility.yul\":742:747   */\n      0x00\n        /* \"#utility.yul\":780:786   */\n      dup2\n        /* \"#utility.yul\":767:787   */\n      calldataload\n        /* \"#utility.yul\":758:787   */\n      swap1\n      pop\n        /* \"#utility.yul\":796:829   */\n      tag_69\n        /* \"#utility.yul\":823:828   */\n      dup2\n        /* \"#utility.yul\":796:829   */\n      tag_48\n      jump\t// in\n    tag_69:\n        /* \"#utility.yul\":696:835   */\n      swap3\n      swap2\n      pop\n      pop\n      jump\t// out\n        /* \"#utility.yul\":841:1170   */\n    tag_9:\n        /* \"#utility.yul\":900:906   */\n      0x00\n        /* \"#utility.yul\":949:951   */\n      0x20\n        /* \"#utility.yul\":937:946   */\n      dup3\n        /* \"#utility.yul\":928:935   */\n      dup5\n        /* \"#utility.yul\":924:947   */\n      sub\n        /* \"#utility.yul\":920:952   */\n      slt\n        /* \"#utility.yul\":917:1036   */\n      iszero\n      tag_71\n      jumpi\n        /* \"#utility.yul\":955:1034   */\n      tag_72\n      tag_44\n      jump\t// in\n    tag_72:\n        /* \"#utility.yul\":917:1036   */\n    tag_71:\n        /* \"#utility.yul\":1075:1076   */\n      0x00\n        /* \"#utility.yul\":1100:1153   */\n      tag_73\n        /* \"#utility.yul\":1145:1152   */\n      dup5\n        /* \"#utility.yul\":1136:1142   */\n      dup3\n        /* \"#utility.yul\":1125:1134   */\n      dup6\n        /* \"#utility.yul\":1121:1143   */\n      add\n        /* \"#utility.yul\":1100:1153   */\n      tag_49\n      jump\t// in\n    tag_73:\n        /* \"#utility.yul\":1090:1153   */\n      swap2\n      pop\n        /* \"#utility.yul\":1046:1163   */\n      pop\n        /* \"#utility.yul\":841:1170   */\n      swap3\n      swap2\n      pop\n      pop\n      jump\t// out\n        /* \"#utility.yul\":1176:1294   */\n    tag_50:\n        /* \"#utility.yul\":1263:1287   */\n      tag_75\n        /* \"#utility.yul\":1281:1286   */\n      dup2\n        /* \"#utility.yul\":1263:1287   */\n      tag_47\n      jump\t// in\n    tag_75:\n        /* \"#utility.yul\":1258:1261   */\n      dup3\n        /* \"#utility.yul\":1251:1288   */\n      mstore\n        /* \"#utility.yul\":1176:1294   */\n      pop\n      pop\n      jump\t// out\n        /* \"#utility.yul\":1300:1522   */\n    tag_20:\n        /* \"#utility.yul\":1393:1397   */\n      0x00\n        /* \"#utility.yul\":1431:1433   */\n      0x20\n        /* \"#utility.yul\":1420:1429   */\n      dup3\n        /* \"#utility.yul\":1416:1434   */\n      add\n        /* \"#utility.yul\":1408:1434   */\n      swap1\n      pop\n        /* \"#utility.yul\":1444:1515   */\n      tag_77\n        /* \"#utility.yul\":1512:1513   */\n      0x00\n        /* \"#utility.yul\":1501:1510   */\n      dup4\n        /* \"#utility.yul\":1497:1514   */\n      add\n        /* \"#utility.yul\":1488:1494   */\n      dup5\n        /* \"#utility.yul\":1444:1515   */\n      tag_50\n      jump\t// in\n    tag_77:\n        /* \"#utility.yul\":1300:1522   */\n      swap3\n      swap2\n      pop\n      pop\n      jump\t// out\n        /* \"#utility.yul\":1528:1697   */\n    tag_51:\n        /* \"#utility.yul\":1612:1623   */\n      0x00\n        /* \"#utility.yul\":1646:1652   */\n      dup3\n        /* \"#utility.yul\":1641:1644   */\n      dup3\n        /* \"#utility.yul\":1634:1653   */\n      mstore\n        /* \"#utility.yul\":1686:1690   */\n      0x20\n        /* \"#utility.yul\":1681:1684   */\n      dup3\n        /* \"#utility.yul\":1677:1691   */\n      add\n        /* \"#utility.yul\":1662:1691   */\n      swap1\n      pop\n        /* \"#utility.yul\":1528:1697   */\n      swap3\n      swap2\n      pop\n      pop\n      jump\t// out\n        /* \"#utility.yul\":1703:1924   */\n    tag_52:\n        /* \"#utility.yul\":1843:1877   */\n      0x546869732061646472657373206973206e6f7420636f6e7472616374204f776e\n        /* \"#utility.yul\":1839:1840   */\n      0x00\n        /* \"#utility.yul\":1831:1837   */\n      dup3\n        /* \"#utility.yul\":1827:1841   */\n      add\n        /* \"#utility.yul\":1820:1878   */\n      mstore\n        /* \"#utility.yul\":1912:1916   */\n      0x6572000000000000000000000000000000000000000000000000000000000000\n        /* \"#utility.yul\":1907:1909   */\n      0x20\n        /* \"#utility.yul\":1899:1905   */\n      dup3\n        /* \"#utility.yul\":1895:1910   */\n      add\n        /* \"#utility.yul\":1888:1917   */\n      mstore\n        /* \"#utility.yul\":1703:1924   */\n      pop\n      jump\t// out\n        /* \"#utility.yul\":1930:2296   */\n    tag_53:\n        /* \"#utility.yul\":2072:2075   */\n      0x00\n        /* \"#utility.yul\":2093:2160   */\n      tag_81\n        /* \"#utility.yul\":2157:2159   */\n      0x22\n        /* \"#utility.yul\":2152:2155   */\n      dup4\n        /* \"#utility.yul\":2093:2160   */\n      tag_51\n      jump\t// in\n    tag_81:\n        /* \"#utility.yul\":2086:2160   */\n      swap2\n      pop\n        /* \"#utility.yul\":2169:2262   */\n      tag_82\n        /* \"#utility.yul\":2258:2261   */\n      dup3\n        /* \"#utility.yul\":2169:2262   */\n      tag_52\n      jump\t// in\n    tag_82:\n        /* \"#utility.yul\":2287:2289   */\n      0x40\n        /* \"#utility.yul\":2282:2285   */\n      dup3\n        /* \"#utility.yul\":2278:2290   */\n      add\n        /* \"#utility.yul\":2271:2290   */\n      swap1\n      pop\n        /* \"#utility.yul\":1930:2296   */\n      swap2\n      swap1\n      pop\n      jump\t// out\n        /* \"#utility.yul\":2302:2721   */\n    tag_24:\n        /* \"#utility.yul\":2468:2472   */\n      0x00\n        /* \"#utility.yul\":2506:2508   */\n      0x20\n        /* \"#utility.yul\":2495:2504   */\n      dup3\n        /* \"#utility.yul\":2491:2509   */\n      add\n        /* \"#utility.yul\":2483:2509   */\n      swap1\n      pop\n        /* \"#utility.yul\":2555:2564   */\n      dup2\n        /* \"#utility.yul\":2549:2553   */\n      dup2\n        /* \"#utility.yul\":2545:2565   */\n      sub\n        /* \"#utility.yul\":2541:2542   */\n      0x00\n        /* \"#utility.yul\":2530:2539   */\n      dup4\n        /* \"#utility.yul\":2526:2543   */\n      add\n        /* \"#utility.yul\":2519:2566   */\n      mstore\n        /* \"#utility.yul\":2583:2714   */\n      tag_84\n        /* \"#utility.yul\":2709:2713   */\n      dup2\n        /* \"#utility.yul\":2583:2714   */\n      tag_53\n      jump\t// in\n    tag_84:\n        /* \"#utility.yul\":2575:2714   */\n      swap1\n      pop\n        /* \"#utility.yul\":2302:2721   */\n      swap2\n      swap1\n      pop\n      jump\t// out\n        /* \"#utility.yul\":2727:2955   */\n    tag_54:\n        /* \"#utility.yul\":2867:2901   */\n      0x5468697320616464726573732068617320696e73756666696369656e74207065\n        /* \"#utility.yul\":2863:2864   */\n      0x00\n        /* \"#utility.yul\":2855:2861   */\n      dup3\n        /* \"#utility.yul\":2851:2865   */\n      add\n        /* \"#utility.yul\":2844:2902   */\n      mstore\n        /* \"#utility.yul\":2936:2947   */\n      0x726d697373696f6e730000000000000000000000000000000000000000000000\n        /* \"#utility.yul\":2931:2933   */\n      0x20\n        /* \"#utility.yul\":2923:2929   */\n      dup3\n        /* \"#utility.yul\":2919:2934   */\n      add\n        /* \"#utility.yul\":2912:2948   */\n      mstore\n        /* \"#utility.yul\":2727:2955   */\n      pop\n      jump\t// out\n        /* \"#utility.yul\":2961:3327   */\n    tag_55:\n        /* \"#utility.yul\":3103:3106   */\n      0x00\n        /* \"#utility.yul\":3124:3191   */\n      tag_87\n        /* \"#utility.yul\":3188:3190   */\n      0x29\n        /* \"#utility.yul\":3183:3186   */\n      dup4\n        /* \"#utility.yul\":3124:3191   */\n      tag_51\n      jump\t// in\n    tag_87:\n        /* \"#utility.yul\":3117:3191   */\n      swap2\n      pop\n        /* \"#utility.yul\":3200:3293   */\n      tag_88\n        /* \"#utility.yul\":3289:3292   */\n      dup3\n        /* \"#utility.yul\":3200:3293   */\n      tag_54\n      jump\t// in\n    tag_88:\n        /* \"#utility.yul\":3318:3320   */\n      0x40\n        /* \"#utility.yul\":3313:3316   */\n      dup3\n        /* \"#utility.yul\":3309:3321   */\n      add\n        /* \"#utility.yul\":3302:3321   */\n      swap1\n      pop\n        /* \"#utility.yul\":2961:3327   */\n      swap2\n      swap1\n      pop\n      jump\t// out\n        /* \"#utility.yul\":3333:3752   */\n    tag_29:\n        /* \"#utility.yul\":3499:3503   */\n      0x00\n        /* \"#utility.yul\":3537:3539   */\n      0x20\n        /* \"#utility.yul\":3526:3535   */\n      dup3\n        /* \"#utility.yul\":3522:3540   */\n      add\n        /* \"#utility.yul\":3514:3540   */\n      swap1\n      pop\n        /* \"#utility.yul\":3586:3595   */\n      dup2\n        /* \"#utility.yul\":3580:3584   */\n      dup2\n        /* \"#utility.yul\":3576:3596   */\n      sub\n        /* \"#utility.yul\":3572:3573   */\n      0x00\n        /* \"#utility.yul\":3561:3570   */\n      dup4\n        /* \"#utility.yul\":3557:3574   */\n      add\n        /* \"#utility.yul\":3550:3597   */\n      mstore\n        /* \"#utility.yul\":3614:3745   */\n      tag_90\n        /* \"#utility.yul\":3740:3744   */\n      dup2\n        /* \"#utility.yul\":3614:3745   */\n      tag_55\n      jump\t// in\n    tag_90:\n        /* \"#utility.yul\":3606:3745   */\n      swap1\n      pop\n        /* \"#utility.yul\":3333:3752   */\n      swap2\n      swap1\n      pop\n      jump\t// out\n        /* \"#utility.yul\":3758:3835   */\n    tag_56:\n        /* \"#utility.yul\":3795:3802   */\n      0x00\n        /* \"#utility.yul\":3824:3829   */\n      dup2\n        /* \"#utility.yul\":3813:3829   */\n      swap1\n      pop\n        /* \"#utility.yul\":3758:3835   */\n      swap2\n      swap1\n      pop\n      jump\t// out\n        /* \"#utility.yul\":3841:4021   */\n    tag_57:\n        /* \"#utility.yul\":3889:3966   */\n      0x4e487b7100000000000000000000000000000000000000000000000000000000\n        /* \"#utility.yul\":3886:3887   */\n      0x00\n        /* \"#utility.yul\":3879:3967   */\n      mstore\n        /* \"#utility.yul\":3986:3990   */\n      0x11\n        /* \"#utility.yul\":3983:3984   */\n      0x04\n        /* \"#utility.yul\":3976:3991   */\n      mstore\n        /* \"#utility.yul\":4010:4014   */\n      0x24\n        /* \"#utility.yul\":4007:4008   */\n      0x00\n        /* \"#utility.yul\":4000:4015   */\n      revert\n        /* \"#utility.yul\":4027:4218   */\n    tag_33:\n        /* \"#utility.yul\":4067:4070   */\n      0x00\n        /* \"#utility.yul\":4086:4106   */\n      tag_94\n        /* \"#utility.yul\":4104:4105   */\n      dup3\n        /* \"#utility.yul\":4086:4106   */\n      tag_56\n      jump\t// in\n    tag_94:\n        /* \"#utility.yul\":4081:4106   */\n      swap2\n      pop\n        /* \"#utility.yul\":4120:4140   */\n      tag_95\n        /* \"#utility.yul\":4138:4139   */\n      dup4\n        /* \"#utility.yul\":4120:4140   */\n      tag_56\n      jump\t// in\n    tag_95:\n        /* \"#utility.yul\":4115:4140   */\n      swap3\n      pop\n        /* \"#utility.yul\":4163:4164   */\n      dup3\n        /* \"#utility.yul\":4160:4161   */\n      dup3\n        /* \"#utility.yul\":4156:4165   */\n      add\n        /* \"#utility.yul\":4149:4165   */\n      swap1\n      pop\n        /* \"#utility.yul\":4184:4187   */\n      dup1\n        /* \"#utility.yul\":4181:4182   */\n      dup3\n        /* \"#utility.yul\":4178:4188   */\n      gt\n        /* \"#utility.yul\":4175:4211   */\n      iszero\n      tag_96\n      jumpi\n        /* \"#utility.yul\":4191:4209   */\n      tag_97\n      tag_57\n      jump\t// in\n    tag_97:\n        /* \"#utility.yul\":4175:4211   */\n    tag_96:\n        /* \"#utility.yul\":4027:4218   */\n      swap3\n      swap2\n      pop\n      pop\n      jump\t// out\n        /* \"#utility.yul\":4224:4404   */\n    tag_40:\n        /* \"#utility.yul\":4272:4349   */\n      0x4e487b7100000000000000000000000000000000000000000000000000000000\n        /* \"#utility.yul\":4269:4270   */\n      0x00\n        /* \"#utility.yul\":4262:4350   */\n      mstore\n        /* \"#utility.yul\":4369:4373   */\n      0x32\n        /* \"#utility.yul\":4366:4367   */\n      0x04\n        /* \"#utility.yul\":4359:4374   */\n      mstore\n        /* \"#utility.yul\":4393:4397   */\n      0x24\n        /* \"#utility.yul\":4390:4391   */\n      0x00\n        /* \"#utility.yul\":4383:4398   */\n      revert\n\n    auxdata: 0xa2646970667358221220316eac48ddc11bd140898b7f9c7f7a1554ba0a7fb346b2d83308d0ef432ffe0464736f6c63430008160033\n}\n",
				"bytecode": {
					"linkReferences": {},
					"object": "60806040526001600355348015610014575f80fd5b50335f806101000a81548173ffffffffffffffffffffffffffffffffffffffff021916908373ffffffffffffffffffffffffffffffffffffffff16021790555060405180604001604052803373ffffffffffffffffffffffffffffffffffffffff1681526020015f81525060025f3373ffffffffffffffffffffffffffffffffffffffff1673ffffffffffffffffffffffffffffffffffffffff1681526020019081526020015f205f820151815f015f6101000a81548173ffffffffffffffffffffffffffffffffffffffff021916908373ffffffffffffffffffffffffffffffffffffffff16021790555060208201518160010155905050600133908060018154018082558091505060019003905f5260205f20015f9091909190916101000a81548173ffffffffffffffffffffffffffffffffffffffff021916908373ffffffffffffffffffffffffffffffffffffffff16021790555061081b8061017a5f395ff3fe608060405234801561000f575f80fd5b506004361061004a575f3560e01c8063253c8bd41461004e5780633922d5511461006a578063656b6b7e14610086578063893d20e8146100a2575b5f80fd5b610068600480360381019061006391906105d0565b6100c0565b005b610084600480360381019061007f91906105d0565b61018f565b005b6100a0600480360381019061009b91906105d0565b610392565b005b6100aa61054b565b6040516100b7919061060a565b60405180910390f35b3373ffffffffffffffffffffffffffffffffffffffff165f8054906101000a900473ffffffffffffffffffffffffffffffffffffffff1673ffffffffffffffffffffffffffffffffffffffff161461014d576040517f08c379a0000000000000000000000000000000000000000000000000000000008152600401610144906106a3565b60405180910390fd5b805f806101000a81548173ffffffffffffffffffffffffffffffffffffffff021916908373ffffffffffffffffffffffffffffffffffffffff16021790555050565b5f73ffffffffffffffffffffffffffffffffffffffff1660025f3373ffffffffffffffffffffffffffffffffffffffff1673ffffffffffffffffffffffffffffffffffffffff1681526020019081526020015f205f015f9054906101000a900473ffffffffffffffffffffffffffffffffffffffff1673ffffffffffffffffffffffffffffffffffffffff160361025b576040517f08c379a000000000000000000000000000000000000000000000000000000000815260040161025290610731565b60405180910390fd5b60405180604001604052808273ffffffffffffffffffffffffffffffffffffffff16815260200160035481525060025f8373ffffffffffffffffffffffffffffffffffffffff1673ffffffffffffffffffffffffffffffffffffffff1681526020019081526020015f205f820151815f015f6101000a81548173ffffffffffffffffffffffffffffffffffffffff021916908373ffffffffffffffffffffffffffffffffffffffff16021790555060208201518160010155905050600181908060018154018082558091505060019003905f5260205f20015f9091909190916101000a81548173ffffffffffffffffffffffffffffffffffffffff021916908373ffffffffffffffffffffffffffffffffffffffff160217905550600160035f8282546103889190610785565b9250508190555050565b5f73ffffffffffffffffffffffffffffffffffffffff1660025f3373ffffffffffffffffffffffffffffffffffffffff1673ffffffffffffffffffffffffffffffffffffffff1681526020019081526020015f205f015f9054906101000a900473ffffffffffffffffffffffffffffffffffffffff1673ffffffffffffffffffffffffffffffffffffffff160361045e576040517f08c379a000000000000000000000000000000000000000000000000000000000815260040161045590610731565b60405180910390fd5b600160025f8373ffffffffffffffffffffffffffffffffffffffff1673ffffffffffffffffffffffffffffffffffffffff1681526020019081526020015f2060010154815481106104b2576104b16107b8565b5b905f5260205f20015f6101000a81549073ffffffffffffffffffffffffffffffffffffffff021916905560025f8273ffffffffffffffffffffffffffffffffffffffff1673ffffffffffffffffffffffffffffffffffffffff1681526020019081526020015f205f8082015f6101000a81549073ffffffffffffffffffffffffffffffffffffffff0219169055600182015f9055505050565b5f805f9054906101000a900473ffffffffffffffffffffffffffffffffffffffff16905090565b5f80fd5b5f73ffffffffffffffffffffffffffffffffffffffff82169050919050565b5f61059f82610576565b9050919050565b6105af81610595565b81146105b9575f80fd5b50565b5f813590506105ca816105a6565b92915050565b5f602082840312156105e5576105e4610572565b5b5f6105f2848285016105bc565b91505092915050565b61060481610595565b82525050565b5f60208201905061061d5f8301846105fb565b92915050565b5f82825260208201905092915050565b7f546869732061646472657373206973206e6f7420636f6e7472616374204f776e5f8201527f6572000000000000000000000000000000000000000000000000000000000000602082015250565b5f61068d602283610623565b915061069882610633565b604082019050919050565b5f6020820190508181035f8301526106ba81610681565b9050919050565b7f5468697320616464726573732068617320696e73756666696369656e742070655f8201527f726d697373696f6e730000000000000000000000000000000000000000000000602082015250565b5f61071b602983610623565b9150610726826106c1565b604082019050919050565b5f6020820190508181035f8301526107488161070f565b9050919050565b5f819050919050565b7f4e487b71000000000000000000000000000000000000000000000000000000005f52601160045260245ffd5b5f61078f8261074f565b915061079a8361074f565b92508282019050808211156107b2576107b1610758565b5b92915050565b7f4e487b71000000000000000000000000000000000000000000000000000000005f52603260045260245ffdfea2646970667358221220316eac48ddc11bd140898b7f9c7f7a1554ba0a7fb346b2d83308d0ef432ffe0464736f6c63430008160033",
					"opcodes": "PUSH1 0x80 PUSH1 0x40 MSTORE PUSH1 0x1 PUSH1 0x3 SSTORE CALLVALUE DUP1 ISZERO PUSH2 0x14 JUMPI PUSH0 DUP1 REVERT JUMPDEST POP CALLER PUSH0 DUP1 PUSH2 0x100 EXP DUP2 SLOAD DUP2 PUSH20 0xFFFFFFFFFFFFFFFFFFFFFFFFFFFFFFFFFFFFFFFF MUL NOT AND SWAP1 DUP4 PUSH20 0xFFFFFFFFFFFFFFFFFFFFFFFFFFFFFFFFFFFFFFFF AND MUL OR SWAP1 SSTORE POP PUSH1 0x40 MLOAD DUP1 PUSH1 0x40 ADD PUSH1 0x40 MSTORE DUP1 CALLER PUSH20 0xFFFFFFFFFFFFFFFFFFFFFFFFFFFFFFFFFFFFFFFF AND DUP2 MSTORE PUSH1 0x20 ADD PUSH0 DUP2 MSTORE POP PUSH1 0x2 PUSH0 CALLER PUSH20 0xFFFFFFFFFFFFFFFFFFFFFFFFFFFFFFFFFFFFFFFF AND PUSH20 0xFFFFFFFFFFFFFFFFFFFFFFFFFFFFFFFFFFFFFFFF AND DUP2 MSTORE PUSH1 0x20 ADD SWAP1 DUP2 MSTORE PUSH1 0x20 ADD PUSH0 KECCAK256 PUSH0 DUP3 ADD MLOAD DUP2 PUSH0 ADD PUSH0 PUSH2 0x100 EXP DUP2 SLOAD DUP2 PUSH20 0xFFFFFFFFFFFFFFFFFFFFFFFFFFFFFFFFFFFFFFFF MUL NOT AND SWAP1 DUP4 PUSH20 0xFFFFFFFFFFFFFFFFFFFFFFFFFFFFFFFFFFFFFFFF AND MUL OR SWAP1 SSTORE POP PUSH1 0x20 DUP3 ADD MLOAD DUP2 PUSH1 0x1 ADD SSTORE SWAP1 POP POP PUSH1 0x1 CALLER SWAP1 DUP1 PUSH1 0x1 DUP2 SLOAD ADD DUP1 DUP3 SSTORE DUP1 SWAP2 POP POP PUSH1 0x1 SWAP1 SUB SWAP1 PUSH0 MSTORE PUSH1 0x20 PUSH0 KECCAK256 ADD PUSH0 SWAP1 SWAP2 SWAP1 SWAP2 SWAP1 SWAP2 PUSH2 0x100 EXP DUP2 SLOAD DUP2 PUSH20 0xFFFFFFFFFFFFFFFFFFFFFFFFFFFFFFFFFFFFFFFF MUL NOT AND SWAP1 DUP4 PUSH20 0xFFFFFFFFFFFFFFFFFFFFFFFFFFFFFFFFFFFFFFFF AND MUL OR SWAP1 SSTORE POP PUSH2 0x81B DUP1 PUSH2 0x17A PUSH0 CODECOPY PUSH0 RETURN INVALID PUSH1 0x80 PUSH1 0x40 MSTORE CALLVALUE DUP1 ISZERO PUSH2 0xF JUMPI PUSH0 DUP1 REVERT JUMPDEST POP PUSH1 0x4 CALLDATASIZE LT PUSH2 0x4A JUMPI PUSH0 CALLDATALOAD PUSH1 0xE0 SHR DUP1 PUSH4 0x253C8BD4 EQ PUSH2 0x4E JUMPI DUP1 PUSH4 0x3922D551 EQ PUSH2 0x6A JUMPI DUP1 PUSH4 0x656B6B7E EQ PUSH2 0x86 JUMPI DUP1 PUSH4 0x893D20E8 EQ PUSH2 0xA2 JUMPI JUMPDEST PUSH0 DUP1 REVERT JUMPDEST PUSH2 0x68 PUSH1 0x4 DUP1 CALLDATASIZE SUB DUP2 ADD SWAP1 PUSH2 0x63 SWAP2 SWAP1 PUSH2 0x5D0 JUMP JUMPDEST PUSH2 0xC0 JUMP JUMPDEST STOP JUMPDEST PUSH2 0x84 PUSH1 0x4 DUP1 CALLDATASIZE SUB DUP2 ADD SWAP1 PUSH2 0x7F SWAP2 SWAP1 PUSH2 0x5D0 JUMP JUMPDEST PUSH2 0x18F JUMP JUMPDEST STOP JUMPDEST PUSH2 0xA0 PUSH1 0x4 DUP1 CALLDATASIZE SUB DUP2 ADD SWAP1 PUSH2 0x9B SWAP2 SWAP1 PUSH2 0x5D0 JUMP JUMPDEST PUSH2 0x392 JUMP JUMPDEST STOP JUMPDEST PUSH2 0xAA PUSH2 0x54B JUMP JUMPDEST PUSH1 0x40 MLOAD PUSH2 0xB7 SWAP2 SWAP1 PUSH2 0x60A JUMP JUMPDEST PUSH1 0x40 MLOAD DUP1 SWAP2 SUB SWAP1 RETURN JUMPDEST CALLER PUSH20 0xFFFFFFFFFFFFFFFFFFFFFFFFFFFFFFFFFFFFFFFF AND PUSH0 DUP1 SLOAD SWAP1 PUSH2 0x100 EXP SWAP1 DIV PUSH20 0xFFFFFFFFFFFFFFFFFFFFFFFFFFFFFFFFFFFFFFFF AND PUSH20 0xFFFFFFFFFFFFFFFFFFFFFFFFFFFFFFFFFFFFFFFF AND EQ PUSH2 0x14D JUMPI PUSH1 0x40 MLOAD PUSH32 0x8C379A000000000000000000000000000000000000000000000000000000000 DUP2 MSTORE PUSH1 0x4 ADD PUSH2 0x144 SWAP1 PUSH2 0x6A3 JUMP JUMPDEST PUSH1 0x40 MLOAD DUP1 SWAP2 SUB SWAP1 REVERT JUMPDEST DUP1 PUSH0 DUP1 PUSH2 0x100 EXP DUP2 SLOAD DUP2 PUSH20 0xFFFFFFFFFFFFFFFFFFFFFFFFFFFFFFFFFFFFFFFF MUL NOT AND SWAP1 DUP4 PUSH20 0xFFFFFFFFFFFFFFFFFFFFFFFFFFFFFFFFFFFFFFFF AND MUL OR SWAP1 SSTORE POP POP JUMP JUMPDEST PUSH0 PUSH20 0xFFFFFFFFFFFFFFFFFFFFFFFFFFFFFFFFFFFFFFFF AND PUSH1 0x2 PUSH0 CALLER PUSH20 0xFFFFFFFFFFFFFFFFFFFFFFFFFFFFFFFFFFFFFFFF AND PUSH20 0xFFFFFFFFFFFFFFFFFFFFFFFFFFFFFFFFFFFFFFFF AND DUP2 MSTORE PUSH1 0x20 ADD SWAP1 DUP2 MSTORE PUSH1 0x20 ADD PUSH0 KECCAK256 PUSH0 ADD PUSH0 SWAP1 SLOAD SWAP1 PUSH2 0x100 EXP SWAP1 DIV PUSH20 0xFFFFFFFFFFFFFFFFFFFFFFFFFFFFFFFFFFFFFFFF AND PUSH20 0xFFFFFFFFFFFFFFFFFFFFFFFFFFFFFFFFFFFFFFFF AND SUB PUSH2 0x25B JUMPI PUSH1 0x40 MLOAD PUSH32 0x8C379A000000000000000000000000000000000000000000000000000000000 DUP2 MSTORE PUSH1 0x4 ADD PUSH2 0x252 SWAP1 PUSH2 0x731 JUMP JUMPDEST PUSH1 0x40 MLOAD DUP1 SWAP2 SUB SWAP1 REVERT JUMPDEST PUSH1 0x40 MLOAD DUP1 PUSH1 0x40 ADD PUSH1 0x40 MSTORE DUP1 DUP3 PUSH20 0xFFFFFFFFFFFFFFFFFFFFFFFFFFFFFFFFFFFFFFFF AND DUP2 MSTORE PUSH1 0x20 ADD PUSH1 0x3 SLOAD DUP2 MSTORE POP PUSH1 0x2 PUSH0 DUP4 PUSH20 0xFFFFFFFFFFFFFFFFFFFFFFFFFFFFFFFFFFFFFFFF AND PUSH20 0xFFFFFFFFFFFFFFFFFFFFFFFFFFFFFFFFFFFFFFFF AND DUP2 MSTORE PUSH1 0x20 ADD SWAP1 DUP2 MSTORE PUSH1 0x20 ADD PUSH0 KECCAK256 PUSH0 DUP3 ADD MLOAD DUP2 PUSH0 ADD PUSH0 PUSH2 0x100 EXP DUP2 SLOAD DUP2 PUSH20 0xFFFFFFFFFFFFFFFFFFFFFFFFFFFFFFFFFFFFFFFF MUL NOT AND SWAP1 DUP4 PUSH20 0xFFFFFFFFFFFFFFFFFFFFFFFFFFFFFFFFFFFFFFFF AND MUL OR SWAP1 SSTORE POP PUSH1 0x20 DUP3 ADD MLOAD DUP2 PUSH1 0x1 ADD SSTORE SWAP1 POP POP PUSH1 0x1 DUP2 SWAP1 DUP1 PUSH1 0x1 DUP2 SLOAD ADD DUP1 DUP3 SSTORE DUP1 SWAP2 POP POP PUSH1 0x1 SWAP1 SUB SWAP1 PUSH0 MSTORE PUSH1 0x20 PUSH0 KECCAK256 ADD PUSH0 SWAP1 SWAP2 SWAP1 SWAP2 SWAP1 SWAP2 PUSH2 0x100 EXP DUP2 SLOAD DUP2 PUSH20 0xFFFFFFFFFFFFFFFFFFFFFFFFFFFFFFFFFFFFFFFF MUL NOT AND SWAP1 DUP4 PUSH20 0xFFFFFFFFFFFFFFFFFFFFFFFFFFFFFFFFFFFFFFFF AND MUL OR SWAP1 SSTORE POP PUSH1 0x1 PUSH1 0x3 PUSH0 DUP3 DUP3 SLOAD PUSH2 0x388 SWAP2 SWAP1 PUSH2 0x785 JUMP JUMPDEST SWAP3 POP POP DUP2 SWAP1 SSTORE POP POP JUMP JUMPDEST PUSH0 PUSH20 0xFFFFFFFFFFFFFFFFFFFFFFFFFFFFFFFFFFFFFFFF AND PUSH1 0x2 PUSH0 CALLER PUSH20 0xFFFFFFFFFFFFFFFFFFFFFFFFFFFFFFFFFFFFFFFF AND PUSH20 0xFFFFFFFFFFFFFFFFFFFFFFFFFFFFFFFFFFFFFFFF AND DUP2 MSTORE PUSH1 0x20 ADD SWAP1 DUP2 MSTORE PUSH1 0x20 ADD PUSH0 KECCAK256 PUSH0 ADD PUSH0 SWAP1 SLOAD SWAP1 PUSH2 0x100 EXP SWAP1 DIV PUSH20 0xFFFFFFFFFFFFFFFFFFFFFFFFFFFFFFFFFFFFFFFF AND PUSH20 0xFFFFFFFFFFFFFFFFFFFFFFFFFFFFFFFFFFFFFFFF AND SUB PUSH2 0x45E JUMPI PUSH1 0x40 MLOAD PUSH32 0x8C379A000000000000000000000000000000000000000000000000000000000 DUP2 MSTORE PUSH1 0x4 ADD PUSH2 0x455 SWAP1 PUSH2 0x731 JUMP JUMPDEST PUSH1 0x40 MLOAD DUP1 SWAP2 SUB SWAP1 REVERT JUMPDEST PUSH1 0x1 PUSH1 0x2 PUSH0 DUP4 PUSH20 0xFFFFFFFFFFFFFFFFFFFFFFFFFFFFFFFFFFFFFFFF AND PUSH20 0xFFFFFFFFFFFFFFFFFFFFFFFFFFFFFFFFFFFFFFFF AND DUP2 MSTORE PUSH1 0x20 ADD SWAP1 DUP2 MSTORE PUSH1 0x20 ADD PUSH0 KECCAK256 PUSH1 0x1 ADD SLOAD DUP2 SLOAD DUP2 LT PUSH2 0x4B2 JUMPI PUSH2 0x4B1 PUSH2 0x7B8 JUMP JUMPDEST JUMPDEST SWAP1 PUSH0 MSTORE PUSH1 0x20 PUSH0 KECCAK256 ADD PUSH0 PUSH2 0x100 EXP DUP2 SLOAD SWAP1 PUSH20 0xFFFFFFFFFFFFFFFFFFFFFFFFFFFFFFFFFFFFFFFF MUL NOT AND SWAP1 SSTORE PUSH1 0x2 PUSH0 DUP3 PUSH20 0xFFFFFFFFFFFFFFFFFFFFFFFFFFFFFFFFFFFFFFFF AND PUSH20 0xFFFFFFFFFFFFFFFFFFFFFFFFFFFFFFFFFFFFFFFF AND DUP2 MSTORE PUSH1 0x20 ADD SWAP1 DUP2 MSTORE PUSH1 0x20 ADD PUSH0 KECCAK256 PUSH0 DUP1 DUP3 ADD PUSH0 PUSH2 0x100 EXP DUP2 SLOAD SWAP1 PUSH20 0xFFFFFFFFFFFFFFFFFFFFFFFFFFFFFFFFFFFFFFFF MUL NOT AND SWAP1 SSTORE PUSH1 0x1 DUP3 ADD PUSH0 SWAP1 SSTORE POP POP POP JUMP JUMPDEST PUSH0 DUP1 PUSH0 SWAP1 SLOAD SWAP1 PUSH2 0x100 EXP SWAP1 DIV PUSH20 0xFFFFFFFFFFFFFFFFFFFFFFFFFFFFFFFFFFFFFFFF AND SWAP1 POP SWAP1 JUMP JUMPDEST PUSH0 DUP1 REVERT JUMPDEST PUSH0 PUSH20 0xFFFFFFFFFFFFFFFFFFFFFFFFFFFFFFFFFFFFFFFF DUP3 AND SWAP1 POP SWAP2 SWAP1 POP JUMP JUMPDEST PUSH0 PUSH2 0x59F DUP3 PUSH2 0x576 JUMP JUMPDEST SWAP1 POP SWAP2 SWAP1 POP JUMP JUMPDEST PUSH2 0x5AF DUP2 PUSH2 0x595 JUMP JUMPDEST DUP2 EQ PUSH2 0x5B9 JUMPI PUSH0 DUP1 REVERT JUMPDEST POP JUMP JUMPDEST PUSH0 DUP2 CALLDATALOAD SWAP1 POP PUSH2 0x5CA DUP2 PUSH2 0x5A6 JUMP JUMPDEST SWAP3 SWAP2 POP POP JUMP JUMPDEST PUSH0 PUSH1 0x20 DUP3 DUP5 SUB SLT ISZERO PUSH2 0x5E5 JUMPI PUSH2 0x5E4 PUSH2 0x572 JUMP JUMPDEST JUMPDEST PUSH0 PUSH2 0x5F2 DUP5 DUP3 DUP6 ADD PUSH2 0x5BC JUMP JUMPDEST SWAP2 POP POP SWAP3 SWAP2 POP POP JUMP JUMPDEST PUSH2 0x604 DUP2 PUSH2 0x595 JUMP JUMPDEST DUP3 MSTORE POP POP JUMP JUMPDEST PUSH0 PUSH1 0x20 DUP3 ADD SWAP1 POP PUSH2 0x61D PUSH0 DUP4 ADD DUP5 PUSH2 0x5FB JUMP JUMPDEST SWAP3 SWAP2 POP POP JUMP JUMPDEST PUSH0 DUP3 DUP3 MSTORE PUSH1 0x20 DUP3 ADD SWAP1 POP SWAP3 SWAP2 POP POP JUMP JUMPDEST PUSH32 0x546869732061646472657373206973206E6F7420636F6E7472616374204F776E PUSH0 DUP3 ADD MSTORE PUSH32 0x6572000000000000000000000000000000000000000000000000000000000000 PUSH1 0x20 DUP3 ADD MSTORE POP JUMP JUMPDEST PUSH0 PUSH2 0x68D PUSH1 0x22 DUP4 PUSH2 0x623 JUMP JUMPDEST SWAP2 POP PUSH2 0x698 DUP3 PUSH2 0x633 JUMP JUMPDEST PUSH1 0x40 DUP3 ADD SWAP1 POP SWAP2 SWAP1 POP JUMP JUMPDEST PUSH0 PUSH1 0x20 DUP3 ADD SWAP1 POP DUP2 DUP2 SUB PUSH0 DUP4 ADD MSTORE PUSH2 0x6BA DUP2 PUSH2 0x681 JUMP JUMPDEST SWAP1 POP SWAP2 SWAP1 POP JUMP JUMPDEST PUSH32 0x5468697320616464726573732068617320696E73756666696369656E74207065 PUSH0 DUP3 ADD MSTORE PUSH32 0x726D697373696F6E730000000000000000000000000000000000000000000000 PUSH1 0x20 DUP3 ADD MSTORE POP JUMP JUMPDEST PUSH0 PUSH2 0x71B PUSH1 0x29 DUP4 PUSH2 0x623 JUMP JUMPDEST SWAP2 POP PUSH2 0x726 DUP3 PUSH2 0x6C1 JUMP JUMPDEST PUSH1 0x40 DUP3 ADD SWAP1 POP SWAP2 SWAP1 POP JUMP JUMPDEST PUSH0 PUSH1 0x20 DUP3 ADD SWAP1 POP DUP2 DUP2 SUB PUSH0 DUP4 ADD MSTORE PUSH2 0x748 DUP2 PUSH2 0x70F JUMP JUMPDEST SWAP1 POP SWAP2 SWAP1 POP JUMP JUMPDEST PUSH0 DUP2 SWAP1 POP SWAP2 SWAP1 POP JUMP JUMPDEST PUSH32 0x4E487B7100000000000000000000000000000000000000000000000000000000 PUSH0 MSTORE PUSH1 0x11 PUSH1 0x4 MSTORE PUSH1 0x24 PUSH0 REVERT JUMPDEST PUSH0 PUSH2 0x78F DUP3 PUSH2 0x74F JUMP JUMPDEST SWAP2 POP PUSH2 0x79A DUP4 PUSH2 0x74F JUMP JUMPDEST SWAP3 POP DUP3 DUP3 ADD SWAP1 POP DUP1 DUP3 GT ISZERO PUSH2 0x7B2 JUMPI PUSH2 0x7B1 PUSH2 0x758 JUMP JUMPDEST JUMPDEST SWAP3 SWAP2 POP POP JUMP JUMPDEST PUSH32 0x4E487B7100000000000000000000000000000000000000000000000000000000 PUSH0 MSTORE PUSH1 0x32 PUSH1 0x4 MSTORE PUSH1 0x24 PUSH0 REVERT INVALID LOG2 PUSH5 0x6970667358 0x22 SLT KECCAK256 BALANCE PUSH15 0xAC48DDC11BD140898B7F9C7F7A1554 0xBA EXP PUSH32 0xB346B2D83308D0EF432FFE0464736F6C63430008160033000000000000000000 "
				},
				"gasEstimates": {
					"creation": {
						"codeDepositCost": "415000",
						"executionCost": "124844",
						"totalCost": "539844"
					},
					"external": {
						"add_manager(address)": "infinite",
						"change_owner(address)": "26859",
						"delete_manager(address)": "60703",
						"getOwner()": "2559"
					}
				},
				"methodIdentifiers": {
					"add_manager(address)": "3922d551",
					"change_owner(address)": "253c8bd4",
					"delete_manager(address)": "656b6b7e",
					"getOwner()": "893d20e8"
				}
			},
			"storageLayout": {
				"storage": [
					{
						"astId": 3,
						"contract": "contracts/contracts/work/customer1.sol:Owner",
						"label": "owner",
						"offset": 0,
						"slot": "0",
						"type": "t_address"
					},
					{
						"astId": 6,
						"contract": "contracts/contracts/work/customer1.sol:Owner",
						"label": "manager",
						"offset": 0,
						"slot": "1",
						"type": "t_array(t_address)dyn_storage"
					},
					{
						"astId": 11,
						"contract": "contracts/contracts/work/customer1.sol:Owner",
						"label": "manager_map",
						"offset": 0,
						"slot": "2",
						"type": "t_mapping(t_address,t_struct(Manager)19_storage)"
					},
					{
						"astId": 14,
						"contract": "contracts/contracts/work/customer1.sol:Owner",
						"label": "id",
						"offset": 0,
						"slot": "3",
						"type": "t_uint256"
					}
				],
				"types": {
					"t_address": {
						"encoding": "inplace",
						"label": "address",
						"numberOfBytes": "20"
					},
					"t_array(t_address)dyn_storage": {
						"base": "t_address",
						"encoding": "dynamic_array",
						"label": "address[]",
						"numberOfBytes": "32"
					},
					"t_mapping(t_address,t_struct(Manager)19_storage)": {
						"encoding": "mapping",
						"key": "t_address",
						"label": "mapping(address => struct Owner.Manager)",
						"numberOfBytes": "32",
						"value": "t_struct(Manager)19_storage"
					},
					"t_struct(Manager)19_storage": {
						"encoding": "inplace",
						"label": "struct Owner.Manager",
						"members": [
							{
								"astId": 16,
								"contract": "contracts/contracts/work/customer1.sol:Owner",
								"label": "manager_address",
								"offset": 0,
								"slot": "0",
								"type": "t_address"
							},
							{
								"astId": 18,
								"contract": "contracts/contracts/work/customer1.sol:Owner",
								"label": "manager_id",
								"offset": 0,
								"slot": "1",
								"type": "t_uint256"
							}
						],
						"numberOfBytes": "64"
					},
					"t_uint256": {
						"encoding": "inplace",
						"label": "uint256",
						"numberOfBytes": "32"
					}
				}
			},
			"userdoc": {
				"kind": "user",
				"methods": {},
				"version": 1
			}
		}
	}
}