{
	"contracts/ModifierDemo.sol": {
		"ModifierDemo": {
			"abi": [
				{
					"constant": false,
					"inputs": [],
					"name": "setA",
					"outputs": [],
					"payable": false,
					"stateMutability": "nonpayable",
					"type": "function"
				},
				{
					"constant": true,
					"inputs": [],
					"name": "getA",
					"outputs": [
						{
							"name": "",
							"type": "int256"
						}
					],
					"payable": false,
					"stateMutability": "view",
					"type": "function"
				},
				{
					"inputs": [],
					"payable": false,
					"stateMutability": "nonpayable",
					"type": "constructor"
				}
			],
			"devdoc": {
				"methods": {}
			},
			"evm": {
				"assembly": "    /* \"contracts/ModifierDemo.sol\":55:1846  contract ModifierDemo{      //合約宣告，合約內容在大括號內{}\r... */\n  mstore(0x40, 0x80)\n    /* \"contracts/ModifierDemo.sol\":187:189  90 */\n  0x5a\n    /* \"contracts/ModifierDemo.sol\":179:189  int a = 90 */\n  0x1\n  sstore\n    /* \"contracts/ModifierDemo.sol\":1313:1457  constructor() public {      //建構式(只有合約部屬時會執行)\r... */\n  callvalue\n    /* \"--CODEGEN--\":8:17   */\n  dup1\n    /* \"--CODEGEN--\":5:7   */\n  iszero\n  tag_1\n  jumpi\n    /* \"--CODEGEN--\":30:31   */\n  0x0\n    /* \"--CODEGEN--\":27:28   */\n  dup1\n    /* \"--CODEGEN--\":20:32   */\n  revert\n    /* \"--CODEGEN--\":5:7   */\ntag_1:\n    /* \"contracts/ModifierDemo.sol\":1313:1457  constructor() public {      //建構式(只有合約部屬時會執行)\r... */\n  pop\n    /* \"contracts/ModifierDemo.sol\":1402:1412  msg.sender */\n  caller\n    /* \"contracts/ModifierDemo.sol\":1394:1399  owner */\n  0x0\n  dup1\n    /* \"contracts/ModifierDemo.sol\":1394:1412  owner = msg.sender */\n  0x100\n  exp\n  dup2\n  sload\n  dup2\n  0xffffffffffffffffffffffffffffffffffffffff\n  mul\n  not\n  and\n  swap1\n  dup4\n  0xffffffffffffffffffffffffffffffffffffffff\n  and\n  mul\n  or\n  swap1\n  sstore\n  pop\n    /* \"contracts/ModifierDemo.sol\":55:1846  contract ModifierDemo{      //合約宣告，合約內容在大括號內{}\r... */\n  dataSize(sub_0)\n  dup1\n  dataOffset(sub_0)\n  0x0\n  codecopy\n  0x0\n  return\nstop\n\nsub_0: assembly {\n        /* \"contracts/ModifierDemo.sol\":55:1846  contract ModifierDemo{      //合約宣告，合約內容在大括號內{}\r... */\n      mstore(0x40, 0x80)\n      jumpi(tag_1, lt(calldatasize, 0x4))\n      calldataload(0x0)\n      0x100000000000000000000000000000000000000000000000000000000\n      swap1\n      div\n      0xffffffff\n      and\n      dup1\n      0x1fc376f7\n      eq\n      tag_2\n      jumpi\n      dup1\n      0xd46300fd\n      eq\n      tag_3\n      jumpi\n    tag_1:\n      0x0\n      dup1\n      revert\n        /* \"contracts/ModifierDemo.sol\":1465:1658  function setA() public modifier1(a) modifier2 modifier3 modifier4{      //函數宣告會先執行上面的函數修飾子modifier1~4再執行內容\r... */\n    tag_2:\n      callvalue\n        /* \"--CODEGEN--\":8:17   */\n      dup1\n        /* \"--CODEGEN--\":5:7   */\n      iszero\n      tag_4\n      jumpi\n        /* \"--CODEGEN--\":30:31   */\n      0x0\n        /* \"--CODEGEN--\":27:28   */\n      dup1\n        /* \"--CODEGEN--\":20:32   */\n      revert\n        /* \"--CODEGEN--\":5:7   */\n    tag_4:\n        /* \"contracts/ModifierDemo.sol\":1465:1658  function setA() public modifier1(a) modifier2 modifier3 modifier4{      //函數宣告會先執行上面的函數修飾子modifier1~4再執行內容\r... */\n      pop\n      tag_5\n      jump(tag_6)\n    tag_5:\n      stop\n        /* \"contracts/ModifierDemo.sol\":1666:1843  function getA() public view returns(int){       //函數宣告為public且函數內不會變更狀態，會回傳一個int的值\r... */\n    tag_3:\n      callvalue\n        /* \"--CODEGEN--\":8:17   */\n      dup1\n        /* \"--CODEGEN--\":5:7   */\n      iszero\n      tag_7\n      jumpi\n        /* \"--CODEGEN--\":30:31   */\n      0x0\n        /* \"--CODEGEN--\":27:28   */\n      dup1\n        /* \"--CODEGEN--\":20:32   */\n      revert\n        /* \"--CODEGEN--\":5:7   */\n    tag_7:\n        /* \"contracts/ModifierDemo.sol\":1666:1843  function getA() public view returns(int){       //函數宣告為public且函數內不會變更狀態，會回傳一個int的值\r... */\n      pop\n      tag_8\n      jump(tag_9)\n    tag_8:\n      mload(0x40)\n      dup1\n      dup3\n      dup2\n      mstore\n      0x20\n      add\n      swap2\n      pop\n      pop\n      mload(0x40)\n      dup1\n      swap2\n      sub\n      swap1\n      return\n        /* \"contracts/ModifierDemo.sol\":1465:1658  function setA() public modifier1(a) modifier2 modifier3 modifier4{      //函數宣告會先執行上面的函數修飾子modifier1~4再執行內容\r... */\n    tag_6:\n        /* \"contracts/ModifierDemo.sol\":1498:1499  a */\n      sload(0x1)\n        /* \"contracts/ModifierDemo.sol\":274:279  int c */\n      0x0\n        /* \"contracts/ModifierDemo.sol\":282:283  b */\n      dup2\n        /* \"contracts/ModifierDemo.sol\":274:283  int c = b */\n      swap1\n      pop\n        /* \"contracts/ModifierDemo.sol\":597:602  int c */\n      0x0\n        /* \"contracts/ModifierDemo.sol\":605:606  a */\n      sload(0x1)\n        /* \"contracts/ModifierDemo.sol\":597:606  int c = a */\n      swap1\n      pop\n        /* \"contracts/ModifierDemo.sol\":836:838  70 */\n      0x46\n        /* \"contracts/ModifierDemo.sol\":832:833  a */\n      0x1\n        /* \"contracts/ModifierDemo.sol\":832:838  a = 70 */\n      dup2\n      swap1\n      sstore\n      pop\n        /* \"contracts/ModifierDemo.sol\":311:312  _ */\n      pop\n        /* \"contracts/ModifierDemo.sol\":439:440  a */\n      sload(0x1)\n        /* \"contracts/ModifierDemo.sol\":435:440  c = a */\n      swap1\n      pop\n        /* \"contracts/ModifierDemo.sol\":507:509  80 */\n      0x50\n        /* \"contracts/ModifierDemo.sol\":503:504  a */\n      0x1\n        /* \"contracts/ModifierDemo.sol\":503:509  a = 80 */\n      dup2\n      swap1\n      sstore\n      pop\n        /* \"contracts/ModifierDemo.sol\":1465:1658  function setA() public modifier1(a) modifier2 modifier3 modifier4{      //函數宣告會先執行上面的函數修飾子modifier1~4再執行內容\r... */\n      pop\n      pop\n      jump\t// out\n        /* \"contracts/ModifierDemo.sol\":1666:1843  function getA() public view returns(int){       //函數宣告為public且函數內不會變更狀態，會回傳一個int的值\r... */\n    tag_9:\n        /* \"contracts/ModifierDemo.sol\":1702:1705  int */\n      0x0\n        /* \"contracts/ModifierDemo.sol\":1811:1812  a */\n      sload(0x1)\n        /* \"contracts/ModifierDemo.sol\":1804:1812  return a */\n      swap1\n      pop\n        /* \"contracts/ModifierDemo.sol\":1666:1843  function getA() public view returns(int){       //函數宣告為public且函數內不會變更狀態，會回傳一個int的值\r... */\n      swap1\n      jump\t// out\n\n    auxdata: 0xa165627a7a72305820c95d98bc8844320f547991829f0f53c6603e36bcf203774c4be818efa2f65c3f0029\n}\n",
				"bytecode": {
					"linkReferences": {},
					"object": "6080604052605a60015534801561001557600080fd5b50336000806101000a81548173ffffffffffffffffffffffffffffffffffffffff021916908373ffffffffffffffffffffffffffffffffffffffff16021790555060e9806100646000396000f3006080604052600436106049576000357c0100000000000000000000000000000000000000000000000000000000900463ffffffff1680631fc376f714604e578063d46300fd146062575b600080fd5b348015605957600080fd5b506060608a565b005b348015606d57600080fd5b50607460b3565b6040518082815260200191505060405180910390f35b600154600081905060006001549050604660018190555050600154905060506001819055505050565b60006001549050905600a165627a7a72305820c95d98bc8844320f547991829f0f53c6603e36bcf203774c4be818efa2f65c3f0029",
					"opcodes": "PUSH1 0x80 PUSH1 0x40 MSTORE PUSH1 0x5A PUSH1 0x1 SSTORE CALLVALUE DUP1 ISZERO PUSH2 0x15 JUMPI PUSH1 0x0 DUP1 REVERT JUMPDEST POP CALLER PUSH1 0x0 DUP1 PUSH2 0x100 EXP DUP2 SLOAD DUP2 PUSH20 0xFFFFFFFFFFFFFFFFFFFFFFFFFFFFFFFFFFFFFFFF MUL NOT AND SWAP1 DUP4 PUSH20 0xFFFFFFFFFFFFFFFFFFFFFFFFFFFFFFFFFFFFFFFF AND MUL OR SWAP1 SSTORE POP PUSH1 0xE9 DUP1 PUSH2 0x64 PUSH1 0x0 CODECOPY PUSH1 0x0 RETURN STOP PUSH1 0x80 PUSH1 0x40 MSTORE PUSH1 0x4 CALLDATASIZE LT PUSH1 0x49 JUMPI PUSH1 0x0 CALLDATALOAD PUSH29 0x100000000000000000000000000000000000000000000000000000000 SWAP1 DIV PUSH4 0xFFFFFFFF AND DUP1 PUSH4 0x1FC376F7 EQ PUSH1 0x4E JUMPI DUP1 PUSH4 0xD46300FD EQ PUSH1 0x62 JUMPI JUMPDEST PUSH1 0x0 DUP1 REVERT JUMPDEST CALLVALUE DUP1 ISZERO PUSH1 0x59 JUMPI PUSH1 0x0 DUP1 REVERT JUMPDEST POP PUSH1 0x60 PUSH1 0x8A JUMP JUMPDEST STOP JUMPDEST CALLVALUE DUP1 ISZERO PUSH1 0x6D JUMPI PUSH1 0x0 DUP1 REVERT JUMPDEST POP PUSH1 0x74 PUSH1 0xB3 JUMP JUMPDEST PUSH1 0x40 MLOAD DUP1 DUP3 DUP2 MSTORE PUSH1 0x20 ADD SWAP2 POP POP PUSH1 0x40 MLOAD DUP1 SWAP2 SUB SWAP1 RETURN JUMPDEST PUSH1 0x1 SLOAD PUSH1 0x0 DUP2 SWAP1 POP PUSH1 0x0 PUSH1 0x1 SLOAD SWAP1 POP PUSH1 0x46 PUSH1 0x1 DUP2 SWAP1 SSTORE POP POP PUSH1 0x1 SLOAD SWAP1 POP PUSH1 0x50 PUSH1 0x1 DUP2 SWAP1 SSTORE POP POP POP JUMP JUMPDEST PUSH1 0x0 PUSH1 0x1 SLOAD SWAP1 POP SWAP1 JUMP STOP LOG1 PUSH6 0x627A7A723058 KECCAK256 0xc9 0x5d SWAP9 0xbc DUP9 DIFFICULTY ORIGIN 0xf SLOAD PUSH26 0x91829F0F53C6603E36BCF203774C4BE818EFA2F65C3F00290000 "
				},
				"gasEstimates": {
					"creation": {
						"codeDepositCost": "46600",
						"executionCost": "40371",
						"totalCost": "86971"
					},
					"external": {
						"getA()": "424",
						"setA()": "25800"
					}
				},
				"methodIdentifiers": {
					"getA()": "d46300fd",
					"setA()": "1fc376f7"
				}
			},
			"userdoc": {
				"methods": {}
			}
		}
	}
}