{
	"contracts/ERC20token(測試舊版).sol": {
		"ERC20token": {
			"abi": [
				{
					"constant": false,
					"inputs": [],
					"name": "icoEnding",
					"outputs": [],
					"payable": false,
					"stateMutability": "nonpayable",
					"type": "function"
				},
				{
					"constant": true,
					"inputs": [],
					"name": "name",
					"outputs": [
						{
							"name": "",
							"type": "string"
						}
					],
					"payable": false,
					"stateMutability": "view",
					"type": "function"
				},
				{
					"constant": false,
					"inputs": [
						{
							"name": "_spender",
							"type": "address"
						},
						{
							"name": "_amount",
							"type": "uint256"
						}
					],
					"name": "approve",
					"outputs": [
						{
							"name": "",
							"type": "bool"
						}
					],
					"payable": false,
					"stateMutability": "nonpayable",
					"type": "function"
				},
				{
					"constant": true,
					"inputs": [],
					"name": "totalSupply",
					"outputs": [
						{
							"name": "",
							"type": "uint256"
						}
					],
					"payable": false,
					"stateMutability": "view",
					"type": "function"
				},
				{
					"constant": false,
					"inputs": [
						{
							"name": "_from",
							"type": "address"
						},
						{
							"name": "_to",
							"type": "address"
						},
						{
							"name": "_amount",
							"type": "uint256"
						}
					],
					"name": "transferFrom",
					"outputs": [
						{
							"name": "",
							"type": "bool"
						}
					],
					"payable": false,
					"stateMutability": "nonpayable",
					"type": "function"
				},
				{
					"constant": true,
					"inputs": [],
					"name": "symble",
					"outputs": [
						{
							"name": "",
							"type": "string"
						}
					],
					"payable": false,
					"stateMutability": "view",
					"type": "function"
				},
				{
					"constant": true,
					"inputs": [],
					"name": "decimals",
					"outputs": [
						{
							"name": "",
							"type": "uint8"
						}
					],
					"payable": false,
					"stateMutability": "view",
					"type": "function"
				},
				{
					"constant": false,
					"inputs": [
						{
							"name": "_amount",
							"type": "uint256"
						}
					],
					"name": "burn",
					"outputs": [
						{
							"name": "",
							"type": "bool"
						}
					],
					"payable": false,
					"stateMutability": "nonpayable",
					"type": "function"
				},
				{
					"constant": true,
					"inputs": [
						{
							"name": "_owner",
							"type": "address"
						}
					],
					"name": "balanceOf",
					"outputs": [
						{
							"name": "",
							"type": "uint256"
						}
					],
					"payable": false,
					"stateMutability": "view",
					"type": "function"
				},
				{
					"constant": true,
					"inputs": [],
					"name": "owner",
					"outputs": [
						{
							"name": "",
							"type": "address"
						}
					],
					"payable": false,
					"stateMutability": "view",
					"type": "function"
				},
				{
					"constant": false,
					"inputs": [
						{
							"name": "_to",
							"type": "address"
						},
						{
							"name": "_amount",
							"type": "uint256"
						}
					],
					"name": "transfer",
					"outputs": [
						{
							"name": "",
							"type": "bool"
						}
					],
					"payable": false,
					"stateMutability": "nonpayable",
					"type": "function"
				},
				{
					"constant": true,
					"inputs": [],
					"name": "contractETH",
					"outputs": [
						{
							"name": "",
							"type": "uint256"
						}
					],
					"payable": false,
					"stateMutability": "view",
					"type": "function"
				},
				{
					"constant": true,
					"inputs": [
						{
							"name": "_owner",
							"type": "address"
						},
						{
							"name": "_spender",
							"type": "address"
						}
					],
					"name": "allowance",
					"outputs": [
						{
							"name": "",
							"type": "uint256"
						}
					],
					"payable": false,
					"stateMutability": "view",
					"type": "function"
				},
				{
					"inputs": [],
					"payable": false,
					"stateMutability": "nonpayable",
					"type": "constructor"
				},
				{
					"payable": true,
					"stateMutability": "payable",
					"type": "fallback"
				},
				{
					"anonymous": false,
					"inputs": [
						{
							"indexed": true,
							"name": "_from",
							"type": "address"
						},
						{
							"indexed": true,
							"name": "_to",
							"type": "address"
						},
						{
							"indexed": false,
							"name": "_value",
							"type": "uint256"
						}
					],
					"name": "Transfer",
					"type": "event"
				},
				{
					"anonymous": false,
					"inputs": [
						{
							"indexed": true,
							"name": "_owner",
							"type": "address"
						},
						{
							"indexed": true,
							"name": "_spender",
							"type": "address"
						},
						{
							"indexed": false,
							"name": "_value",
							"type": "uint256"
						}
					],
					"name": "Approval",
					"type": "event"
				}
			],
			"devdoc": {
				"methods": {}
			},
			"evm": {
				"assembly": "    /* \"contracts/ERC20token(測試舊版).sol\":27:5129  contract ERC20token{\r... */\n  mstore(0x40, 0x80)\n    /* \"contracts/ERC20token(測試舊版).sol\":333:341  10000000 */\n  0x989680\n    /* \"contracts/ERC20token(測試舊版).sol\":307:341  uint public totalSupply = 10000000 */\n  0x0\n  sstore\n    /* \"contracts/ERC20token(測試舊版).sol\":1215:1300  constructor() public{\r... */\n  callvalue\n    /* \"--CODEGEN--\":8:17   */\n  dup1\n    /* \"--CODEGEN--\":5:7   */\n  iszero\n  tag_1\n  jumpi\n    /* \"--CODEGEN--\":30:31   */\n  0x0\n    /* \"--CODEGEN--\":27:28   */\n  dup1\n    /* \"--CODEGEN--\":20:32   */\n  revert\n    /* \"--CODEGEN--\":5:7   */\ntag_1:\n    /* \"contracts/ERC20token(測試舊版).sol\":1215:1300  constructor() public{\r... */\n  pop\n    /* \"contracts/ERC20token(測試舊版).sol\":1252:1262  msg.sender */\n  caller\n    /* \"contracts/ERC20token(測試舊版).sol\":1246:1251  owner */\n  0x1\n  0x0\n    /* \"contracts/ERC20token(測試舊版).sol\":1246:1262  owner=msg.sender */\n  0x100\n  exp\n  dup2\n  sload\n  dup2\n  0xffffffffffffffffffffffffffffffffffffffff\n  mul\n  not\n  and\n  swap1\n  dup4\n  0xffffffffffffffffffffffffffffffffffffffff\n  and\n  mul\n  or\n  swap1\n  sstore\n  pop\n    /* \"contracts/ERC20token(測試舊版).sol\":27:5129  contract ERC20token{\r... */\n  dataSize(sub_0)\n  dup1\n  dataOffset(sub_0)\n  0x0\n  codecopy\n  0x0\n  return\nstop\n\nsub_0: assembly {\n        /* \"contracts/ERC20token(測試舊版).sol\":27:5129  contract ERC20token{\r... */\n      mstore(0x40, 0x80)\n      jumpi(tag_1, lt(calldatasize, 0x4))\n      calldataload(0x0)\n      0x100000000000000000000000000000000000000000000000000000000\n      swap1\n      div\n      0xffffffff\n      and\n      dup1\n      0x64e8684\n      eq\n      tag_2\n      jumpi\n      dup1\n      0x6fdde03\n      eq\n      tag_3\n      jumpi\n      dup1\n      0x95ea7b3\n      eq\n      tag_4\n      jumpi\n      dup1\n      0x18160ddd\n      eq\n      tag_5\n      jumpi\n      dup1\n      0x23b872dd\n      eq\n      tag_6\n      jumpi\n      dup1\n      0x288152bb\n      eq\n      tag_7\n      jumpi\n      dup1\n      0x313ce567\n      eq\n      tag_8\n      jumpi\n      dup1\n      0x42966c68\n      eq\n      tag_9\n      jumpi\n      dup1\n      0x70a08231\n      eq\n      tag_10\n      jumpi\n      dup1\n      0x8da5cb5b\n      eq\n      tag_11\n      jumpi\n      dup1\n      0xa9059cbb\n      eq\n      tag_12\n      jumpi\n      dup1\n      0xbbd316eb\n      eq\n      tag_13\n      jumpi\n      dup1\n      0xdd62ed3e\n      eq\n      tag_14\n      jumpi\n    tag_1:\n        /* \"contracts/ERC20token(測試舊版).sol\":1363:1364  0 */\n      0x0\n        /* \"contracts/ERC20token(測試舊版).sol\":1349:1360  totalSupply */\n      dup1\n      sload\n        /* \"contracts/ERC20token(測試舊版).sol\":1349:1364  totalSupply > 0 */\n      gt\n        /* \"contracts/ERC20token(測試舊版).sol\":1349:1392  totalSupply > 0 && balances[msg.sender] ==0 */\n      dup1\n      iszero\n      tag_17\n      jumpi\n      pop\n        /* \"contracts/ERC20token(測試舊版).sol\":1391:1392  0 */\n      0x0\n        /* \"contracts/ERC20token(測試舊版).sol\":1368:1376  balances */\n      0x2\n        /* \"contracts/ERC20token(測試舊版).sol\":1368:1388  balances[msg.sender] */\n      0x0\n        /* \"contracts/ERC20token(測試舊版).sol\":1377:1387  msg.sender */\n      caller\n        /* \"contracts/ERC20token(測試舊版).sol\":1368:1388  balances[msg.sender] */\n      0xffffffffffffffffffffffffffffffffffffffff\n      and\n      0xffffffffffffffffffffffffffffffffffffffff\n      and\n      dup2\n      mstore\n      0x20\n      add\n      swap1\n      dup2\n      mstore\n      0x20\n      add\n      0x0\n      keccak256\n      sload\n        /* \"contracts/ERC20token(測試舊版).sol\":1368:1392  balances[msg.sender] ==0 */\n      eq\n        /* \"contracts/ERC20token(測試舊版).sol\":1349:1392  totalSupply > 0 && balances[msg.sender] ==0 */\n    tag_17:\n        /* \"contracts/ERC20token(測試舊版).sol\":1349:1417  totalSupply > 0 && balances[msg.sender] ==0 && msg.value == 1 finney */\n      dup1\n      iszero\n      tag_18\n      jumpi\n      pop\n        /* \"contracts/ERC20token(測試舊版).sol\":1409:1417  1 finney */\n      0x38d7ea4c68000\n        /* \"contracts/ERC20token(測試舊版).sol\":1396:1405  msg.value */\n      callvalue\n        /* \"contracts/ERC20token(測試舊版).sol\":1396:1417  msg.value == 1 finney */\n      eq\n        /* \"contracts/ERC20token(測試舊版).sol\":1349:1417  totalSupply > 0 && balances[msg.sender] ==0 && msg.value == 1 finney */\n    tag_18:\n        /* \"contracts/ERC20token(測試舊版).sol\":1349:1448  totalSupply > 0 && balances[msg.sender] ==0 && msg.value == 1 finney && complete[msg.sender] < 1000 */\n      dup1\n      iszero\n      tag_19\n      jumpi\n      pop\n        /* \"contracts/ERC20token(測試舊版).sol\":1444:1448  1000 */\n      0x3e8\n        /* \"contracts/ERC20token(測試舊版).sol\":1421:1429  complete */\n      0x4\n        /* \"contracts/ERC20token(測試舊版).sol\":1421:1441  complete[msg.sender] */\n      0x0\n        /* \"contracts/ERC20token(測試舊版).sol\":1430:1440  msg.sender */\n      caller\n        /* \"contracts/ERC20token(測試舊版).sol\":1421:1441  complete[msg.sender] */\n      0xffffffffffffffffffffffffffffffffffffffff\n      and\n      0xffffffffffffffffffffffffffffffffffffffff\n      and\n      dup2\n      mstore\n      0x20\n      add\n      swap1\n      dup2\n      mstore\n      0x20\n      add\n      0x0\n      keccak256\n      sload\n        /* \"contracts/ERC20token(測試舊版).sol\":1421:1448  complete[msg.sender] < 1000 */\n      lt\n        /* \"contracts/ERC20token(測試舊版).sol\":1349:1448  totalSupply > 0 && balances[msg.sender] ==0 && msg.value == 1 finney && complete[msg.sender] < 1000 */\n    tag_19:\n        /* \"contracts/ERC20token(測試舊版).sol\":1346:1803  if(totalSupply > 0 && balances[msg.sender] ==0 && msg.value == 1 finney && complete[msg.sender] < 1000){\r... */\n      iszero\n      tag_20\n      jumpi\n        /* \"contracts/ERC20token(測試舊版).sol\":1479:1483  1000 */\n      0x3e8\n        /* \"contracts/ERC20token(測試舊版).sol\":1464:1475  totalSupply */\n      0x0\n      dup1\n        /* \"contracts/ERC20token(測試舊版).sol\":1464:1483  totalSupply -= 1000 */\n      dup3\n      dup3\n      sload\n      sub\n      swap3\n      pop\n      pop\n      dup2\n      swap1\n      sstore\n      pop\n        /* \"contracts/ERC20token(測試舊版).sol\":1578:1582  1000 */\n      0x3e8\n        /* \"contracts/ERC20token(測試舊版).sol\":1555:1563  balances */\n      0x2\n        /* \"contracts/ERC20token(測試舊版).sol\":1555:1575  balances[msg.sender] */\n      0x0\n        /* \"contracts/ERC20token(測試舊版).sol\":1564:1574  msg.sender */\n      caller\n        /* \"contracts/ERC20token(測試舊版).sol\":1555:1575  balances[msg.sender] */\n      0xffffffffffffffffffffffffffffffffffffffff\n      and\n      0xffffffffffffffffffffffffffffffffffffffff\n      and\n      dup2\n      mstore\n      0x20\n      add\n      swap1\n      dup2\n      mstore\n      0x20\n      add\n      0x0\n      keccak256\n        /* \"contracts/ERC20token(測試舊版).sol\":1555:1582  balances[msg.sender] = 1000 */\n      dup2\n      swap1\n      sstore\n      pop\n        /* \"contracts/ERC20token(測試舊版).sol\":1666:1670  1000 */\n      0x3e8\n        /* \"contracts/ERC20token(測試舊版).sol\":1643:1651  complete */\n      0x4\n        /* \"contracts/ERC20token(測試舊版).sol\":1643:1663  complete[msg.sender] */\n      0x0\n        /* \"contracts/ERC20token(測試舊版).sol\":1652:1662  msg.sender */\n      caller\n        /* \"contracts/ERC20token(測試舊版).sol\":1643:1663  complete[msg.sender] */\n      0xffffffffffffffffffffffffffffffffffffffff\n      and\n      0xffffffffffffffffffffffffffffffffffffffff\n      and\n      dup2\n      mstore\n      0x20\n      add\n      swap1\n      dup2\n      mstore\n      0x20\n      add\n      0x0\n      keccak256\n        /* \"contracts/ERC20token(測試舊版).sol\":1643:1670  complete[msg.sender] = 1000 */\n      dup2\n      swap1\n      sstore\n      pop\n        /* \"contracts/ERC20token(測試舊版).sol\":1346:1803  if(totalSupply > 0 && balances[msg.sender] ==0 && msg.value == 1 finney && complete[msg.sender] < 1000){\r... */\n      jump(tag_21)\n    tag_20:\n        /* \"contracts/ERC20token(測試舊版).sol\":1745:1753  revert() */\n      0x0\n      dup1\n      revert\n        /* \"contracts/ERC20token(測試舊版).sol\":1346:1803  if(totalSupply > 0 && balances[msg.sender] ==0 && msg.value == 1 finney && complete[msg.sender] < 1000){\r... */\n    tag_21:\n        /* \"contracts/ERC20token(測試舊版).sol\":27:5129  contract ERC20token{\r... */\n      stop\n        /* \"contracts/ERC20token(測試舊版).sol\":4350:4514  function icoEnding() public onlyOwner{          //結束ico\r... */\n    tag_2:\n      callvalue\n        /* \"--CODEGEN--\":8:17   */\n      dup1\n        /* \"--CODEGEN--\":5:7   */\n      iszero\n      tag_22\n      jumpi\n        /* \"--CODEGEN--\":30:31   */\n      0x0\n        /* \"--CODEGEN--\":27:28   */\n      dup1\n        /* \"--CODEGEN--\":20:32   */\n      revert\n        /* \"--CODEGEN--\":5:7   */\n    tag_22:\n        /* \"contracts/ERC20token(測試舊版).sol\":4350:4514  function icoEnding() public onlyOwner{          //結束ico\r... */\n      pop\n      tag_23\n      jump(tag_24)\n    tag_23:\n      stop\n        /* \"contracts/ERC20token(測試舊版).sol\":53:100  string public constant name = \"Rick Roll Token\" */\n    tag_3:\n      callvalue\n        /* \"--CODEGEN--\":8:17   */\n      dup1\n        /* \"--CODEGEN--\":5:7   */\n      iszero\n      tag_25\n      jumpi\n        /* \"--CODEGEN--\":30:31   */\n      0x0\n        /* \"--CODEGEN--\":27:28   */\n      dup1\n        /* \"--CODEGEN--\":20:32   */\n      revert\n        /* \"--CODEGEN--\":5:7   */\n    tag_25:\n        /* \"contracts/ERC20token(測試舊版).sol\":53:100  string public constant name = \"Rick Roll Token\" */\n      pop\n      tag_26\n      jump(tag_27)\n    tag_26:\n      mload(0x40)\n      dup1\n      dup1\n      0x20\n      add\n      dup3\n      dup2\n      sub\n      dup3\n      mstore\n      dup4\n      dup2\n      dup2\n      mload\n      dup2\n      mstore\n      0x20\n      add\n      swap2\n      pop\n      dup1\n      mload\n      swap1\n      0x20\n      add\n      swap1\n      dup1\n      dup4\n      dup4\n        /* \"--CODEGEN--\":23:24   */\n      0x0\n        /* \"--CODEGEN--\":8:108   */\n    tag_28:\n        /* \"--CODEGEN--\":33:36   */\n      dup4\n        /* \"--CODEGEN--\":30:31   */\n      dup2\n        /* \"--CODEGEN--\":27:37   */\n      lt\n        /* \"--CODEGEN--\":8:108   */\n      iszero\n      tag_29\n      jumpi\n        /* \"--CODEGEN--\":99:100   */\n      dup1\n        /* \"--CODEGEN--\":94:97   */\n      dup3\n        /* \"--CODEGEN--\":90:101   */\n      add\n        /* \"--CODEGEN--\":84:102   */\n      mload\n        /* \"--CODEGEN--\":80:81   */\n      dup2\n        /* \"--CODEGEN--\":75:78   */\n      dup5\n        /* \"--CODEGEN--\":71:82   */\n      add\n        /* \"--CODEGEN--\":64:103   */\n      mstore\n        /* \"--CODEGEN--\":52:54   */\n      0x20\n        /* \"--CODEGEN--\":49:50   */\n      dup2\n        /* \"--CODEGEN--\":45:55   */\n      add\n        /* \"--CODEGEN--\":40:55   */\n      swap1\n      pop\n        /* \"--CODEGEN--\":8:108   */\n      jump(tag_28)\n    tag_29:\n        /* \"--CODEGEN--\":12:26   */\n      pop\n        /* \"contracts/ERC20token(測試舊版).sol\":53:100  string public constant name = \"Rick Roll Token\" */\n      pop\n      pop\n      pop\n      swap1\n      pop\n      swap1\n      dup2\n      add\n      swap1\n      0x1f\n      and\n      dup1\n      iszero\n      tag_31\n      jumpi\n      dup1\n      dup3\n      sub\n      dup1\n      mload\n      0x1\n      dup4\n      0x20\n      sub\n      0x100\n      exp\n      sub\n      not\n      and\n      dup2\n      mstore\n      0x20\n      add\n      swap2\n      pop\n    tag_31:\n      pop\n      swap3\n      pop\n      pop\n      pop\n      mload(0x40)\n      dup1\n      swap2\n      sub\n      swap1\n      return\n        /* \"contracts/ERC20token(測試舊版).sol\":3673:4012  function approve (address _spender, uint256 _amount) public returns(bool){\r... */\n    tag_4:\n      callvalue\n        /* \"--CODEGEN--\":8:17   */\n      dup1\n        /* \"--CODEGEN--\":5:7   */\n      iszero\n      tag_32\n      jumpi\n        /* \"--CODEGEN--\":30:31   */\n      0x0\n        /* \"--CODEGEN--\":27:28   */\n      dup1\n        /* \"--CODEGEN--\":20:32   */\n      revert\n        /* \"--CODEGEN--\":5:7   */\n    tag_32:\n        /* \"contracts/ERC20token(測試舊版).sol\":3673:4012  function approve (address _spender, uint256 _amount) public returns(bool){\r... */\n      pop\n      tag_33\n      0x4\n      dup1\n      calldatasize\n      sub\n      dup2\n      add\n      swap1\n      dup1\n      dup1\n      calldataload\n      0xffffffffffffffffffffffffffffffffffffffff\n      and\n      swap1\n      0x20\n      add\n      swap1\n      swap3\n      swap2\n      swap1\n      dup1\n      calldataload\n      swap1\n      0x20\n      add\n      swap1\n      swap3\n      swap2\n      swap1\n      pop\n      pop\n      pop\n      jump(tag_34)\n    tag_33:\n      mload(0x40)\n      dup1\n      dup3\n      iszero\n      iszero\n      iszero\n      iszero\n      dup2\n      mstore\n      0x20\n      add\n      swap2\n      pop\n      pop\n      mload(0x40)\n      dup1\n      swap2\n      sub\n      swap1\n      return\n        /* \"contracts/ERC20token(測試舊版).sol\":307:341  uint public totalSupply = 10000000 */\n    tag_5:\n      callvalue\n        /* \"--CODEGEN--\":8:17   */\n      dup1\n        /* \"--CODEGEN--\":5:7   */\n      iszero\n      tag_35\n      jumpi\n        /* \"--CODEGEN--\":30:31   */\n      0x0\n        /* \"--CODEGEN--\":27:28   */\n      dup1\n        /* \"--CODEGEN--\":20:32   */\n      revert\n        /* \"--CODEGEN--\":5:7   */\n    tag_35:\n        /* \"contracts/ERC20token(測試舊版).sol\":307:341  uint public totalSupply = 10000000 */\n      pop\n      tag_36\n      jump(tag_37)\n    tag_36:\n      mload(0x40)\n      dup1\n      dup3\n      dup2\n      mstore\n      0x20\n      add\n      swap2\n      pop\n      pop\n      mload(0x40)\n      dup1\n      swap2\n      sub\n      swap1\n      return\n        /* \"contracts/ERC20token(測試舊版).sol\":2721:3665  function transferFrom(address _from, address _to, uint256 _amount) public returns(bool){\r... */\n    tag_6:\n      callvalue\n        /* \"--CODEGEN--\":8:17   */\n      dup1\n        /* \"--CODEGEN--\":5:7   */\n      iszero\n      tag_38\n      jumpi\n        /* \"--CODEGEN--\":30:31   */\n      0x0\n        /* \"--CODEGEN--\":27:28   */\n      dup1\n        /* \"--CODEGEN--\":20:32   */\n      revert\n        /* \"--CODEGEN--\":5:7   */\n    tag_38:\n        /* \"contracts/ERC20token(測試舊版).sol\":2721:3665  function transferFrom(address _from, address _to, uint256 _amount) public returns(bool){\r... */\n      pop\n      tag_39\n      0x4\n      dup1\n      calldatasize\n      sub\n      dup2\n      add\n      swap1\n      dup1\n      dup1\n      calldataload\n      0xffffffffffffffffffffffffffffffffffffffff\n      and\n      swap1\n      0x20\n      add\n      swap1\n      swap3\n      swap2\n      swap1\n      dup1\n      calldataload\n      0xffffffffffffffffffffffffffffffffffffffff\n      and\n      swap1\n      0x20\n      add\n      swap1\n      swap3\n      swap2\n      swap1\n      dup1\n      calldataload\n      swap1\n      0x20\n      add\n      swap1\n      swap3\n      swap2\n      swap1\n      pop\n      pop\n      pop\n      jump(tag_40)\n    tag_39:\n      mload(0x40)\n      dup1\n      dup3\n      iszero\n      iszero\n      iszero\n      iszero\n      dup2\n      mstore\n      0x20\n      add\n      swap2\n      pop\n      pop\n      mload(0x40)\n      dup1\n      swap2\n      sub\n      swap1\n      return\n        /* \"contracts/ERC20token(測試舊版).sol\":155:192  string public constant symble = \"RRT\" */\n    tag_7:\n      callvalue\n        /* \"--CODEGEN--\":8:17   */\n      dup1\n        /* \"--CODEGEN--\":5:7   */\n      iszero\n      tag_41\n      jumpi\n        /* \"--CODEGEN--\":30:31   */\n      0x0\n        /* \"--CODEGEN--\":27:28   */\n      dup1\n        /* \"--CODEGEN--\":20:32   */\n      revert\n        /* \"--CODEGEN--\":5:7   */\n    tag_41:\n        /* \"contracts/ERC20token(測試舊版).sol\":155:192  string public constant symble = \"RRT\" */\n      pop\n      tag_42\n      jump(tag_43)\n    tag_42:\n      mload(0x40)\n      dup1\n      dup1\n      0x20\n      add\n      dup3\n      dup2\n      sub\n      dup3\n      mstore\n      dup4\n      dup2\n      dup2\n      mload\n      dup2\n      mstore\n      0x20\n      add\n      swap2\n      pop\n      dup1\n      mload\n      swap1\n      0x20\n      add\n      swap1\n      dup1\n      dup4\n      dup4\n        /* \"--CODEGEN--\":23:24   */\n      0x0\n        /* \"--CODEGEN--\":8:108   */\n    tag_44:\n        /* \"--CODEGEN--\":33:36   */\n      dup4\n        /* \"--CODEGEN--\":30:31   */\n      dup2\n        /* \"--CODEGEN--\":27:37   */\n      lt\n        /* \"--CODEGEN--\":8:108   */\n      iszero\n      tag_45\n      jumpi\n        /* \"--CODEGEN--\":99:100   */\n      dup1\n        /* \"--CODEGEN--\":94:97   */\n      dup3\n        /* \"--CODEGEN--\":90:101   */\n      add\n        /* \"--CODEGEN--\":84:102   */\n      mload\n        /* \"--CODEGEN--\":80:81   */\n      dup2\n        /* \"--CODEGEN--\":75:78   */\n      dup5\n        /* \"--CODEGEN--\":71:82   */\n      add\n        /* \"--CODEGEN--\":64:103   */\n      mstore\n        /* \"--CODEGEN--\":52:54   */\n      0x20\n        /* \"--CODEGEN--\":49:50   */\n      dup2\n        /* \"--CODEGEN--\":45:55   */\n      add\n        /* \"--CODEGEN--\":40:55   */\n      swap1\n      pop\n        /* \"--CODEGEN--\":8:108   */\n      jump(tag_44)\n    tag_45:\n        /* \"--CODEGEN--\":12:26   */\n      pop\n        /* \"contracts/ERC20token(測試舊版).sol\":155:192  string public constant symble = \"RRT\" */\n      pop\n      pop\n      pop\n      swap1\n      pop\n      swap1\n      dup2\n      add\n      swap1\n      0x1f\n      and\n      dup1\n      iszero\n      tag_47\n      jumpi\n      dup1\n      dup3\n      sub\n      dup1\n      mload\n      0x1\n      dup4\n      0x20\n      sub\n      0x100\n      exp\n      sub\n      not\n      and\n      dup2\n      mstore\n      0x20\n      add\n      swap2\n      pop\n    tag_47:\n      pop\n      swap3\n      pop\n      pop\n      pop\n      mload(0x40)\n      dup1\n      swap2\n      sub\n      swap1\n      return\n        /* \"contracts/ERC20token(測試舊版).sol\":230:264  uint8 public constant decimals = 0 */\n    tag_8:\n      callvalue\n        /* \"--CODEGEN--\":8:17   */\n      dup1\n        /* \"--CODEGEN--\":5:7   */\n      iszero\n      tag_48\n      jumpi\n        /* \"--CODEGEN--\":30:31   */\n      0x0\n        /* \"--CODEGEN--\":27:28   */\n      dup1\n        /* \"--CODEGEN--\":20:32   */\n      revert\n        /* \"--CODEGEN--\":5:7   */\n    tag_48:\n        /* \"contracts/ERC20token(測試舊版).sol\":230:264  uint8 public constant decimals = 0 */\n      pop\n      tag_49\n      jump(tag_50)\n    tag_49:\n      mload(0x40)\n      dup1\n      dup3\n      0xff\n      and\n      0xff\n      and\n      dup2\n      mstore\n      0x20\n      add\n      swap2\n      pop\n      pop\n      mload(0x40)\n      dup1\n      swap2\n      sub\n      swap1\n      return\n        /* \"contracts/ERC20token(測試舊版).sol\":4522:5126  function burn(uint256 _amount) public onlyOwner returns(bool){\r... */\n    tag_9:\n      callvalue\n        /* \"--CODEGEN--\":8:17   */\n      dup1\n        /* \"--CODEGEN--\":5:7   */\n      iszero\n      tag_51\n      jumpi\n        /* \"--CODEGEN--\":30:31   */\n      0x0\n        /* \"--CODEGEN--\":27:28   */\n      dup1\n        /* \"--CODEGEN--\":20:32   */\n      revert\n        /* \"--CODEGEN--\":5:7   */\n    tag_51:\n        /* \"contracts/ERC20token(測試舊版).sol\":4522:5126  function burn(uint256 _amount) public onlyOwner returns(bool){\r... */\n      pop\n      tag_52\n      0x4\n      dup1\n      calldatasize\n      sub\n      dup2\n      add\n      swap1\n      dup1\n      dup1\n      calldataload\n      swap1\n      0x20\n      add\n      swap1\n      swap3\n      swap2\n      swap1\n      pop\n      pop\n      pop\n      jump(tag_53)\n    tag_52:\n      mload(0x40)\n      dup1\n      dup3\n      iszero\n      iszero\n      iszero\n      iszero\n      dup2\n      mstore\n      0x20\n      add\n      swap2\n      pop\n      pop\n      mload(0x40)\n      dup1\n      swap2\n      sub\n      swap1\n      return\n        /* \"contracts/ERC20token(測試舊版).sol\":1818:1966  function balanceOf(address _owner) public view returns (uint256){\r... */\n    tag_10:\n      callvalue\n        /* \"--CODEGEN--\":8:17   */\n      dup1\n        /* \"--CODEGEN--\":5:7   */\n      iszero\n      tag_54\n      jumpi\n        /* \"--CODEGEN--\":30:31   */\n      0x0\n        /* \"--CODEGEN--\":27:28   */\n      dup1\n        /* \"--CODEGEN--\":20:32   */\n      revert\n        /* \"--CODEGEN--\":5:7   */\n    tag_54:\n        /* \"contracts/ERC20token(測試舊版).sol\":1818:1966  function balanceOf(address _owner) public view returns (uint256){\r... */\n      pop\n      tag_55\n      0x4\n      dup1\n      calldatasize\n      sub\n      dup2\n      add\n      swap1\n      dup1\n      dup1\n      calldataload\n      0xffffffffffffffffffffffffffffffffffffffff\n      and\n      swap1\n      0x20\n      add\n      swap1\n      swap3\n      swap2\n      swap1\n      pop\n      pop\n      pop\n      jump(tag_56)\n    tag_55:\n      mload(0x40)\n      dup1\n      dup3\n      dup2\n      mstore\n      0x20\n      add\n      swap2\n      pop\n      pop\n      mload(0x40)\n      dup1\n      swap2\n      sub\n      swap1\n      return\n        /* \"contracts/ERC20token(測試舊版).sol\":382:402  address public owner */\n    tag_11:\n      callvalue\n        /* \"--CODEGEN--\":8:17   */\n      dup1\n        /* \"--CODEGEN--\":5:7   */\n      iszero\n      tag_57\n      jumpi\n        /* \"--CODEGEN--\":30:31   */\n      0x0\n        /* \"--CODEGEN--\":27:28   */\n      dup1\n        /* \"--CODEGEN--\":20:32   */\n      revert\n        /* \"--CODEGEN--\":5:7   */\n    tag_57:\n        /* \"contracts/ERC20token(測試舊版).sol\":382:402  address public owner */\n      pop\n      tag_58\n      jump(tag_59)\n    tag_58:\n      mload(0x40)\n      dup1\n      dup3\n      0xffffffffffffffffffffffffffffffffffffffff\n      and\n      0xffffffffffffffffffffffffffffffffffffffff\n      and\n      dup2\n      mstore\n      0x20\n      add\n      swap2\n      pop\n      pop\n      mload(0x40)\n      dup1\n      swap2\n      sub\n      swap1\n      return\n        /* \"contracts/ERC20token(測試舊版).sol\":1974:2713  function transfer(address _to, uint _amount)public returns(bool){\r... */\n    tag_12:\n      callvalue\n        /* \"--CODEGEN--\":8:17   */\n      dup1\n        /* \"--CODEGEN--\":5:7   */\n      iszero\n      tag_60\n      jumpi\n        /* \"--CODEGEN--\":30:31   */\n      0x0\n        /* \"--CODEGEN--\":27:28   */\n      dup1\n        /* \"--CODEGEN--\":20:32   */\n      revert\n        /* \"--CODEGEN--\":5:7   */\n    tag_60:\n        /* \"contracts/ERC20token(測試舊版).sol\":1974:2713  function transfer(address _to, uint _amount)public returns(bool){\r... */\n      pop\n      tag_61\n      0x4\n      dup1\n      calldatasize\n      sub\n      dup2\n      add\n      swap1\n      dup1\n      dup1\n      calldataload\n      0xffffffffffffffffffffffffffffffffffffffff\n      and\n      swap1\n      0x20\n      add\n      swap1\n      swap3\n      swap2\n      swap1\n      dup1\n      calldataload\n      swap1\n      0x20\n      add\n      swap1\n      swap3\n      swap2\n      swap1\n      pop\n      pop\n      pop\n      jump(tag_62)\n    tag_61:\n      mload(0x40)\n      dup1\n      dup3\n      iszero\n      iszero\n      iszero\n      iszero\n      dup2\n      mstore\n      0x20\n      add\n      swap2\n      pop\n      pop\n      mload(0x40)\n      dup1\n      swap2\n      sub\n      swap1\n      return\n        /* \"contracts/ERC20token(測試舊版).sol\":4202:4342  function contractETH() public view returns (uint256){\r... */\n    tag_13:\n      callvalue\n        /* \"--CODEGEN--\":8:17   */\n      dup1\n        /* \"--CODEGEN--\":5:7   */\n      iszero\n      tag_63\n      jumpi\n        /* \"--CODEGEN--\":30:31   */\n      0x0\n        /* \"--CODEGEN--\":27:28   */\n      dup1\n        /* \"--CODEGEN--\":20:32   */\n      revert\n        /* \"--CODEGEN--\":5:7   */\n    tag_63:\n        /* \"contracts/ERC20token(測試舊版).sol\":4202:4342  function contractETH() public view returns (uint256){\r... */\n      pop\n      tag_64\n      jump(tag_65)\n    tag_64:\n      mload(0x40)\n      dup1\n      dup3\n      dup2\n      mstore\n      0x20\n      add\n      swap2\n      pop\n      pop\n      mload(0x40)\n      dup1\n      swap2\n      sub\n      swap1\n      return\n        /* \"contracts/ERC20token(測試舊版).sol\":4020:4194  function allowance (address _owner, address _spender) public view returns(uint256){\r... */\n    tag_14:\n      callvalue\n        /* \"--CODEGEN--\":8:17   */\n      dup1\n        /* \"--CODEGEN--\":5:7   */\n      iszero\n      tag_66\n      jumpi\n        /* \"--CODEGEN--\":30:31   */\n      0x0\n        /* \"--CODEGEN--\":27:28   */\n      dup1\n        /* \"--CODEGEN--\":20:32   */\n      revert\n        /* \"--CODEGEN--\":5:7   */\n    tag_66:\n        /* \"contracts/ERC20token(測試舊版).sol\":4020:4194  function allowance (address _owner, address _spender) public view returns(uint256){\r... */\n      pop\n      tag_67\n      0x4\n      dup1\n      calldatasize\n      sub\n      dup2\n      add\n      swap1\n      dup1\n      dup1\n      calldataload\n      0xffffffffffffffffffffffffffffffffffffffff\n      and\n      swap1\n      0x20\n      add\n      swap1\n      swap3\n      swap2\n      swap1\n      dup1\n      calldataload\n      0xffffffffffffffffffffffffffffffffffffffff\n      and\n      swap1\n      0x20\n      add\n      swap1\n      swap3\n      swap2\n      swap1\n      pop\n      pop\n      pop\n      jump(tag_68)\n    tag_67:\n      mload(0x40)\n      dup1\n      dup3\n      dup2\n      mstore\n      0x20\n      add\n      swap2\n      pop\n      pop\n      mload(0x40)\n      dup1\n      swap2\n      sub\n      swap1\n      return\n        /* \"contracts/ERC20token(測試舊版).sol\":4350:4514  function icoEnding() public onlyOwner{          //結束ico\r... */\n    tag_24:\n        /* \"contracts/ERC20token(測試舊版).sol\":1035:1040  owner */\n      0x1\n      0x0\n      swap1\n      sload\n      swap1\n      0x100\n      exp\n      swap1\n      div\n      0xffffffffffffffffffffffffffffffffffffffff\n      and\n        /* \"contracts/ERC20token(測試舊版).sol\":1021:1040  msg.sender != owner */\n      0xffffffffffffffffffffffffffffffffffffffff\n      and\n        /* \"contracts/ERC20token(測試舊版).sol\":1021:1031  msg.sender */\n      caller\n        /* \"contracts/ERC20token(測試舊版).sol\":1021:1040  msg.sender != owner */\n      0xffffffffffffffffffffffffffffffffffffffff\n      and\n      eq\n      iszero\n        /* \"contracts/ERC20token(測試舊版).sol\":1018:1153  if(msg.sender != owner){    //僅限合約建構者使用\r... */\n      iszero\n      tag_70\n      jumpi\n        /* \"contracts/ERC20token(測試舊版).sol\":1089:1097  revert() */\n      0x0\n      dup1\n      revert\n        /* \"contracts/ERC20token(測試舊版).sol\":1018:1153  if(msg.sender != owner){    //僅限合約建構者使用\r... */\n    tag_70:\n        /* \"contracts/ERC20token(測試舊版).sol\":4419:4424  owner */\n      0x1\n      0x0\n      swap1\n      sload\n      swap1\n      0x100\n      exp\n      swap1\n      div\n      0xffffffffffffffffffffffffffffffffffffffff\n      and\n        /* \"contracts/ERC20token(測試舊版).sol\":4419:4433  owner.transfer */\n      0xffffffffffffffffffffffffffffffffffffffff\n      and\n        /* \"contracts/ERC20token(測試舊版).sol\":4419:4456  owner.transfer(address(this).balance) */\n      0x8fc\n        /* \"contracts/ERC20token(測試舊版).sol\":4442:4446  this */\n      address\n        /* \"contracts/ERC20token(測試舊版).sol\":4434:4455  address(this).balance */\n      0xffffffffffffffffffffffffffffffffffffffff\n      and\n      balance\n        /* \"contracts/ERC20token(測試舊版).sol\":4419:4456  owner.transfer(address(this).balance) */\n      swap1\n      dup2\n      iszero\n      mul\n      swap1\n      mload(0x40)\n      0x0\n      mload(0x40)\n      dup1\n      dup4\n      sub\n      dup2\n      dup6\n      dup9\n      dup9\n      call\n      swap4\n      pop\n      pop\n      pop\n      pop\n      iszero\n        /* \"--CODEGEN--\":8:17   */\n      dup1\n        /* \"--CODEGEN--\":5:7   */\n      iszero\n      tag_72\n      jumpi\n        /* \"--CODEGEN--\":45:61   */\n      returndatasize\n        /* \"--CODEGEN--\":42:43   */\n      0x0\n        /* \"--CODEGEN--\":39:40   */\n      dup1\n        /* \"--CODEGEN--\":24:62   */\n      returndatacopy\n        /* \"--CODEGEN--\":77:93   */\n      returndatasize\n        /* \"--CODEGEN--\":74:75   */\n      0x0\n        /* \"--CODEGEN--\":67:94   */\n      revert\n        /* \"--CODEGEN--\":5:7   */\n    tag_72:\n        /* \"contracts/ERC20token(測試舊版).sol\":4419:4456  owner.transfer(address(this).balance) */\n      pop\n        /* \"contracts/ERC20token(測試舊版).sol\":4350:4514  function icoEnding() public onlyOwner{          //結束ico\r... */\n      jump\t// out\n        /* \"contracts/ERC20token(測試舊版).sol\":53:100  string public constant name = \"Rick Roll Token\" */\n    tag_27:\n      0x40\n      dup1\n      mload\n      swap1\n      dup2\n      add\n      0x40\n      mstore\n      dup1\n      0xf\n      dup2\n      mstore\n      0x20\n      add\n      0x5269636b20526f6c6c20546f6b656e0000000000000000000000000000000000\n      dup2\n      mstore\n      pop\n      dup2\n      jump\t// out\n        /* \"contracts/ERC20token(測試舊版).sol\":3673:4012  function approve (address _spender, uint256 _amount) public returns(bool){\r... */\n    tag_34:\n        /* \"contracts/ERC20token(測試舊版).sol\":3741:3745  bool */\n      0x0\n        /* \"contracts/ERC20token(測試舊版).sol\":3789:3796  _amount */\n      dup2\n        /* \"contracts/ERC20token(測試舊版).sol\":3757:3764  allowed */\n      0x3\n        /* \"contracts/ERC20token(測試舊版).sol\":3757:3776  allowed[msg.sender] */\n      0x0\n        /* \"contracts/ERC20token(測試舊版).sol\":3765:3775  msg.sender */\n      caller\n        /* \"contracts/ERC20token(測試舊版).sol\":3757:3776  allowed[msg.sender] */\n      0xffffffffffffffffffffffffffffffffffffffff\n      and\n      0xffffffffffffffffffffffffffffffffffffffff\n      and\n      dup2\n      mstore\n      0x20\n      add\n      swap1\n      dup2\n      mstore\n      0x20\n      add\n      0x0\n      keccak256\n        /* \"contracts/ERC20token(測試舊版).sol\":3757:3786  allowed[msg.sender][_spender] */\n      0x0\n        /* \"contracts/ERC20token(測試舊版).sol\":3777:3785  _spender */\n      dup6\n        /* \"contracts/ERC20token(測試舊版).sol\":3757:3786  allowed[msg.sender][_spender] */\n      0xffffffffffffffffffffffffffffffffffffffff\n      and\n      0xffffffffffffffffffffffffffffffffffffffff\n      and\n      dup2\n      mstore\n      0x20\n      add\n      swap1\n      dup2\n      mstore\n      0x20\n      add\n      0x0\n      keccak256\n        /* \"contracts/ERC20token(測試舊版).sol\":3757:3796  allowed[msg.sender][_spender] = _amount */\n      dup2\n      swap1\n      sstore\n      pop\n        /* \"contracts/ERC20token(測試舊版).sol\":3895:3903  _spender */\n      dup3\n        /* \"contracts/ERC20token(測試舊版).sol\":3874:3913  Approval(msg.sender, _spender, _amount) */\n      0xffffffffffffffffffffffffffffffffffffffff\n      and\n        /* \"contracts/ERC20token(測試舊版).sol\":3883:3893  msg.sender */\n      caller\n        /* \"contracts/ERC20token(測試舊版).sol\":3874:3913  Approval(msg.sender, _spender, _amount) */\n      0xffffffffffffffffffffffffffffffffffffffff\n      and\n      0x8c5be1e5ebec7d5bd14f71427d1e84f3dd0314c0f7b2291e5b200ac8c7c3b925\n        /* \"contracts/ERC20token(測試舊版).sol\":3905:3912  _amount */\n      dup5\n        /* \"contracts/ERC20token(測試舊版).sol\":3874:3913  Approval(msg.sender, _spender, _amount) */\n      mload(0x40)\n      dup1\n      dup3\n      dup2\n      mstore\n      0x20\n      add\n      swap2\n      pop\n      pop\n      mload(0x40)\n      dup1\n      swap2\n      sub\n      swap1\n      log3\n        /* \"contracts/ERC20token(測試舊版).sol\":4000:4004  true */\n      0x1\n        /* \"contracts/ERC20token(測試舊版).sol\":3993:4004  return true */\n      swap1\n      pop\n        /* \"contracts/ERC20token(測試舊版).sol\":3673:4012  function approve (address _spender, uint256 _amount) public returns(bool){\r... */\n      swap3\n      swap2\n      pop\n      pop\n      jump\t// out\n        /* \"contracts/ERC20token(測試舊版).sol\":307:341  uint public totalSupply = 10000000 */\n    tag_37:\n      sload(0x0)\n      dup2\n      jump\t// out\n        /* \"contracts/ERC20token(測試舊版).sol\":2721:3665  function transferFrom(address _from, address _to, uint256 _amount) public returns(bool){\r... */\n    tag_40:\n        /* \"contracts/ERC20token(測試舊版).sol\":2803:2807  bool */\n      0x0\n        /* \"contracts/ERC20token(測試舊版).sol\":2833:2834  0 */\n      dup1\n        /* \"contracts/ERC20token(測試舊版).sol\":2823:2830  _amount */\n      dup3\n        /* \"contracts/ERC20token(測試舊版).sol\":2823:2834  _amount > 0 */\n      gt\n        /* \"contracts/ERC20token(測試舊版).sol\":2823:2904  _amount > 0         //檢測發送數量>0\r... */\n      dup1\n      iszero\n      tag_75\n      jumpi\n      pop\n        /* \"contracts/ERC20token(測試舊版).sol\":2897:2904  _amount */\n      dup2\n        /* \"contracts/ERC20token(測試舊版).sol\":2878:2886  balances */\n      0x2\n        /* \"contracts/ERC20token(測試舊版).sol\":2878:2893  balances[_from] */\n      0x0\n        /* \"contracts/ERC20token(測試舊版).sol\":2887:2892  _from */\n      dup7\n        /* \"contracts/ERC20token(測試舊版).sol\":2878:2893  balances[_from] */\n      0xffffffffffffffffffffffffffffffffffffffff\n      and\n      0xffffffffffffffffffffffffffffffffffffffff\n      and\n      dup2\n      mstore\n      0x20\n      add\n      swap1\n      dup2\n      mstore\n      0x20\n      add\n      0x0\n      keccak256\n      sload\n        /* \"contracts/ERC20token(測試舊版).sol\":2878:2904  balances[_from] >= _amount */\n      lt\n      iszero\n        /* \"contracts/ERC20token(測試舊版).sol\":2823:2904  _amount > 0         //檢測發送數量>0\r... */\n    tag_75:\n        /* \"contracts/ERC20token(測試舊版).sol\":2823:3002  _amount > 0         //檢測發送數量>0\r... */\n      dup1\n      iszero\n      tag_76\n      jumpi\n      pop\n        /* \"contracts/ERC20token(測試舊版).sol\":2995:3002  _amount */\n      dup2\n        /* \"contracts/ERC20token(測試舊版).sol\":2965:2972  allowed */\n      0x3\n        /* \"contracts/ERC20token(測試舊版).sol\":2965:2979  allowed[_from] */\n      0x0\n        /* \"contracts/ERC20token(測試舊版).sol\":2973:2978  _from */\n      dup7\n        /* \"contracts/ERC20token(測試舊版).sol\":2965:2979  allowed[_from] */\n      0xffffffffffffffffffffffffffffffffffffffff\n      and\n      0xffffffffffffffffffffffffffffffffffffffff\n      and\n      dup2\n      mstore\n      0x20\n      add\n      swap1\n      dup2\n      mstore\n      0x20\n      add\n      0x0\n      keccak256\n        /* \"contracts/ERC20token(測試舊版).sol\":2965:2991  allowed[_from][msg.sender] */\n      0x0\n        /* \"contracts/ERC20token(測試舊版).sol\":2980:2990  msg.sender */\n      caller\n        /* \"contracts/ERC20token(測試舊版).sol\":2965:2991  allowed[_from][msg.sender] */\n      0xffffffffffffffffffffffffffffffffffffffff\n      and\n      0xffffffffffffffffffffffffffffffffffffffff\n      and\n      dup2\n      mstore\n      0x20\n      add\n      swap1\n      dup2\n      mstore\n      0x20\n      add\n      0x0\n      keccak256\n      sload\n        /* \"contracts/ERC20token(測試舊版).sol\":2965:3002  allowed[_from][msg.sender] >= _amount */\n      lt\n      iszero\n        /* \"contracts/ERC20token(測試舊版).sol\":2823:3002  _amount > 0         //檢測發送數量>0\r... */\n    tag_76:\n        /* \"contracts/ERC20token(測試舊版).sol\":2823:3144  _amount > 0         //檢測發送數量>0\r... */\n      dup1\n      iszero\n      tag_77\n      jumpi\n      pop\n        /* \"contracts/ERC20token(測試舊版).sol\":3131:3139  balances */\n      0x2\n        /* \"contracts/ERC20token(測試舊版).sol\":3131:3144  balances[_to] */\n      0x0\n        /* \"contracts/ERC20token(測試舊版).sol\":3140:3143  _to */\n      dup5\n        /* \"contracts/ERC20token(測試舊版).sol\":3131:3144  balances[_to] */\n      0xffffffffffffffffffffffffffffffffffffffff\n      and\n      0xffffffffffffffffffffffffffffffffffffffff\n      and\n      dup2\n      mstore\n      0x20\n      add\n      swap1\n      dup2\n      mstore\n      0x20\n      add\n      0x0\n      keccak256\n      sload\n        /* \"contracts/ERC20token(測試舊版).sol\":3121:3128  _amount */\n      dup3\n        /* \"contracts/ERC20token(測試舊版).sol\":3105:3113  balances */\n      0x2\n        /* \"contracts/ERC20token(測試舊版).sol\":3105:3118  balances[_to] */\n      0x0\n        /* \"contracts/ERC20token(測試舊版).sol\":3114:3117  _to */\n      dup7\n        /* \"contracts/ERC20token(測試舊版).sol\":3105:3118  balances[_to] */\n      0xffffffffffffffffffffffffffffffffffffffff\n      and\n      0xffffffffffffffffffffffffffffffffffffffff\n      and\n      dup2\n      mstore\n      0x20\n      add\n      swap1\n      dup2\n      mstore\n      0x20\n      add\n      0x0\n      keccak256\n      sload\n        /* \"contracts/ERC20token(測試舊版).sol\":3105:3128  balances[_to] + _amount */\n      add\n        /* \"contracts/ERC20token(測試舊版).sol\":3105:3144  balances[_to] + _amount > balances[_to] */\n      gt\n        /* \"contracts/ERC20token(測試舊版).sol\":2823:3144  _amount > 0         //檢測發送數量>0\r... */\n    tag_77:\n        /* \"contracts/ERC20token(測試舊版).sol\":2819:3658  if (_amount > 0         //檢測發送數量>0\r... */\n      iszero\n      tag_78\n      jumpi\n        /* \"contracts/ERC20token(測試舊版).sol\":3216:3223  _amount */\n      dup2\n        /* \"contracts/ERC20token(測試舊版).sol\":3197:3205  balances */\n      0x2\n        /* \"contracts/ERC20token(測試舊版).sol\":3197:3212  balances[_from] */\n      0x0\n        /* \"contracts/ERC20token(測試舊版).sol\":3206:3211  _from */\n      dup7\n        /* \"contracts/ERC20token(測試舊版).sol\":3197:3212  balances[_from] */\n      0xffffffffffffffffffffffffffffffffffffffff\n      and\n      0xffffffffffffffffffffffffffffffffffffffff\n      and\n      dup2\n      mstore\n      0x20\n      add\n      swap1\n      dup2\n      mstore\n      0x20\n      add\n      0x0\n      keccak256\n      0x0\n        /* \"contracts/ERC20token(測試舊版).sol\":3197:3223  balances[_from] -= _amount */\n      dup3\n      dup3\n      sload\n      sub\n      swap3\n      pop\n      pop\n      dup2\n      swap1\n      sstore\n      pop\n        /* \"contracts/ERC20token(測試舊版).sol\":3302:3309  _amount */\n      dup2\n        /* \"contracts/ERC20token(測試舊版).sol\":3272:3279  allowed */\n      0x3\n        /* \"contracts/ERC20token(測試舊版).sol\":3272:3286  allowed[_from] */\n      0x0\n        /* \"contracts/ERC20token(測試舊版).sol\":3280:3285  _from */\n      dup7\n        /* \"contracts/ERC20token(測試舊版).sol\":3272:3286  allowed[_from] */\n      0xffffffffffffffffffffffffffffffffffffffff\n      and\n      0xffffffffffffffffffffffffffffffffffffffff\n      and\n      dup2\n      mstore\n      0x20\n      add\n      swap1\n      dup2\n      mstore\n      0x20\n      add\n      0x0\n      keccak256\n        /* \"contracts/ERC20token(測試舊版).sol\":3272:3298  allowed[_from][msg.sender] */\n      0x0\n        /* \"contracts/ERC20token(測試舊版).sol\":3287:3297  msg.sender */\n      caller\n        /* \"contracts/ERC20token(測試舊版).sol\":3272:3298  allowed[_from][msg.sender] */\n      0xffffffffffffffffffffffffffffffffffffffff\n      and\n      0xffffffffffffffffffffffffffffffffffffffff\n      and\n      dup2\n      mstore\n      0x20\n      add\n      swap1\n      dup2\n      mstore\n      0x20\n      add\n      0x0\n      keccak256\n      0x0\n        /* \"contracts/ERC20token(測試舊版).sol\":3272:3309  allowed[_from][msg.sender] -= _amount */\n      dup3\n      dup3\n      sload\n      sub\n      swap3\n      pop\n      pop\n      dup2\n      swap1\n      sstore\n      pop\n        /* \"contracts/ERC20token(測試舊版).sol\":3373:3380  _amount */\n      dup2\n        /* \"contracts/ERC20token(測試舊版).sol\":3356:3364  balances */\n      0x2\n        /* \"contracts/ERC20token(測試舊版).sol\":3356:3369  balances[_to] */\n      0x0\n        /* \"contracts/ERC20token(測試舊版).sol\":3365:3368  _to */\n      dup6\n        /* \"contracts/ERC20token(測試舊版).sol\":3356:3369  balances[_to] */\n      0xffffffffffffffffffffffffffffffffffffffff\n      and\n      0xffffffffffffffffffffffffffffffffffffffff\n      and\n      dup2\n      mstore\n      0x20\n      add\n      swap1\n      dup2\n      mstore\n      0x20\n      add\n      0x0\n      keccak256\n      0x0\n        /* \"contracts/ERC20token(測試舊版).sol\":3356:3380  balances[_to] += _amount */\n      dup3\n      dup3\n      sload\n      add\n      swap3\n      pop\n      pop\n      dup2\n      swap1\n      sstore\n      pop\n        /* \"contracts/ERC20token(測試舊版).sol\":3458:3461  _to */\n      dup3\n        /* \"contracts/ERC20token(測試舊版).sol\":3442:3471  Transfer(_from, _to, _amount) */\n      0xffffffffffffffffffffffffffffffffffffffff\n      and\n        /* \"contracts/ERC20token(測試舊版).sol\":3451:3456  _from */\n      dup5\n        /* \"contracts/ERC20token(測試舊版).sol\":3442:3471  Transfer(_from, _to, _amount) */\n      0xffffffffffffffffffffffffffffffffffffffff\n      and\n      0xddf252ad1be2c89b69c2b068fc378daa952ba7f163c4a11628f55a4df523b3ef\n        /* \"contracts/ERC20token(測試舊版).sol\":3463:3470  _amount */\n      dup5\n        /* \"contracts/ERC20token(測試舊版).sol\":3442:3471  Transfer(_from, _to, _amount) */\n      mload(0x40)\n      dup1\n      dup3\n      dup2\n      mstore\n      0x20\n      add\n      swap2\n      pop\n      pop\n      mload(0x40)\n      dup1\n      swap2\n      sub\n      swap1\n      log3\n        /* \"contracts/ERC20token(測試舊版).sol\":3541:3545  true */\n      0x1\n        /* \"contracts/ERC20token(測試舊版).sol\":3534:3545  return true */\n      swap1\n      pop\n      jump(tag_74)\n        /* \"contracts/ERC20token(測試舊版).sol\":2819:3658  if (_amount > 0         //檢測發送數量>0\r... */\n    tag_78:\n        /* \"contracts/ERC20token(測試舊版).sol\":3641:3646  false */\n      0x0\n        /* \"contracts/ERC20token(測試舊版).sol\":3634:3646  return false */\n      swap1\n      pop\n        /* \"contracts/ERC20token(測試舊版).sol\":2721:3665  function transferFrom(address _from, address _to, uint256 _amount) public returns(bool){\r... */\n    tag_74:\n      swap4\n      swap3\n      pop\n      pop\n      pop\n      jump\t// out\n        /* \"contracts/ERC20token(測試舊版).sol\":155:192  string public constant symble = \"RRT\" */\n    tag_43:\n      0x40\n      dup1\n      mload\n      swap1\n      dup2\n      add\n      0x40\n      mstore\n      dup1\n      0x3\n      dup2\n      mstore\n      0x20\n      add\n      0x5252540000000000000000000000000000000000000000000000000000000000\n      dup2\n      mstore\n      pop\n      dup2\n      jump\t// out\n        /* \"contracts/ERC20token(測試舊版).sol\":230:264  uint8 public constant decimals = 0 */\n    tag_50:\n        /* \"contracts/ERC20token(測試舊版).sol\":263:264  0 */\n      0x0\n        /* \"contracts/ERC20token(測試舊版).sol\":230:264  uint8 public constant decimals = 0 */\n      dup2\n      jump\t// out\n        /* \"contracts/ERC20token(測試舊版).sol\":4522:5126  function burn(uint256 _amount) public onlyOwner returns(bool){\r... */\n    tag_53:\n        /* \"contracts/ERC20token(測試舊版).sol\":4578:4582  bool */\n      0x0\n        /* \"contracts/ERC20token(測試舊版).sol\":1035:1040  owner */\n      0x1\n      0x0\n      swap1\n      sload\n      swap1\n      0x100\n      exp\n      swap1\n      div\n      0xffffffffffffffffffffffffffffffffffffffff\n      and\n        /* \"contracts/ERC20token(測試舊版).sol\":1021:1040  msg.sender != owner */\n      0xffffffffffffffffffffffffffffffffffffffff\n      and\n        /* \"contracts/ERC20token(測試舊版).sol\":1021:1031  msg.sender */\n      caller\n        /* \"contracts/ERC20token(測試舊版).sol\":1021:1040  msg.sender != owner */\n      0xffffffffffffffffffffffffffffffffffffffff\n      and\n      eq\n      iszero\n        /* \"contracts/ERC20token(測試舊版).sol\":1018:1153  if(msg.sender != owner){    //僅限合約建構者使用\r... */\n      iszero\n      tag_81\n      jumpi\n        /* \"contracts/ERC20token(測試舊版).sol\":1089:1097  revert() */\n      0x0\n      dup1\n      revert\n        /* \"contracts/ERC20token(測試舊版).sol\":1018:1153  if(msg.sender != owner){    //僅限合約建構者使用\r... */\n    tag_81:\n        /* \"contracts/ERC20token(測試舊版).sol\":4607:4608  0 */\n      0x0\n        /* \"contracts/ERC20token(測試舊版).sol\":4597:4604  _amount */\n      dup3\n        /* \"contracts/ERC20token(測試舊版).sol\":4597:4608  _amount > 0 */\n      gt\n        /* \"contracts/ERC20token(測試舊版).sol\":4597:4679  _amount > 0     //確定銷毀數量>0\r... */\n      dup1\n      iszero\n      tag_83\n      jumpi\n      pop\n        /* \"contracts/ERC20token(測試舊版).sol\":4672:4679  _amount */\n      dup2\n        /* \"contracts/ERC20token(測試舊版).sol\":4648:4656  balances */\n      0x2\n        /* \"contracts/ERC20token(測試舊版).sol\":4648:4668  balances[msg.sender] */\n      0x0\n        /* \"contracts/ERC20token(測試舊版).sol\":4657:4667  msg.sender */\n      caller\n        /* \"contracts/ERC20token(測試舊版).sol\":4648:4668  balances[msg.sender] */\n      0xffffffffffffffffffffffffffffffffffffffff\n      and\n      0xffffffffffffffffffffffffffffffffffffffff\n      and\n      dup2\n      mstore\n      0x20\n      add\n      swap1\n      dup2\n      mstore\n      0x20\n      add\n      0x0\n      keccak256\n      sload\n        /* \"contracts/ERC20token(測試舊版).sol\":4648:4679  balances[msg.sender] >= _amount */\n      lt\n      iszero\n        /* \"contracts/ERC20token(測試舊版).sol\":4597:4679  _amount > 0     //確定銷毀數量>0\r... */\n    tag_83:\n        /* \"contracts/ERC20token(測試舊版).sol\":4597:4804  _amount > 0     //確定銷毀數量>0\r... */\n      dup1\n      iszero\n      tag_84\n      jumpi\n      pop\n        /* \"contracts/ERC20token(測試舊版).sol\":4784:4792  balances */\n      0x2\n        /* \"contracts/ERC20token(測試舊版).sol\":4784:4804  balances[msg.sender] */\n      0x0\n        /* \"contracts/ERC20token(測試舊版).sol\":4793:4803  msg.sender */\n      caller\n        /* \"contracts/ERC20token(測試舊版).sol\":4784:4804  balances[msg.sender] */\n      0xffffffffffffffffffffffffffffffffffffffff\n      and\n      0xffffffffffffffffffffffffffffffffffffffff\n      and\n      dup2\n      mstore\n      0x20\n      add\n      swap1\n      dup2\n      mstore\n      0x20\n      add\n      0x0\n      keccak256\n      sload\n        /* \"contracts/ERC20token(測試舊版).sol\":4774:4781  _amount */\n      dup3\n        /* \"contracts/ERC20token(測試舊版).sol\":4751:4759  balances */\n      0x2\n        /* \"contracts/ERC20token(測試舊版).sol\":4751:4771  balances[msg.sender] */\n      0x0\n        /* \"contracts/ERC20token(測試舊版).sol\":4760:4770  msg.sender */\n      caller\n        /* \"contracts/ERC20token(測試舊版).sol\":4751:4771  balances[msg.sender] */\n      0xffffffffffffffffffffffffffffffffffffffff\n      and\n      0xffffffffffffffffffffffffffffffffffffffff\n      and\n      dup2\n      mstore\n      0x20\n      add\n      swap1\n      dup2\n      mstore\n      0x20\n      add\n      0x0\n      keccak256\n      sload\n        /* \"contracts/ERC20token(測試舊版).sol\":4751:4781  balances[msg.sender] - _amount */\n      sub\n        /* \"contracts/ERC20token(測試舊版).sol\":4751:4804  balances[msg.sender] - _amount < balances[msg.sender] */\n      lt\n        /* \"contracts/ERC20token(測試舊版).sol\":4597:4804  _amount > 0     //確定銷毀數量>0\r... */\n    tag_84:\n        /* \"contracts/ERC20token(測試舊版).sol\":4594:5119  if(_amount > 0     //確定銷毀數量>0\r... */\n      iszero\n      tag_85\n      jumpi\n        /* \"contracts/ERC20token(測試舊版).sol\":4864:4871  _amount */\n      dup2\n        /* \"contracts/ERC20token(測試舊版).sol\":4840:4848  balances */\n      0x2\n        /* \"contracts/ERC20token(測試舊版).sol\":4840:4860  balances[msg.sender] */\n      0x0\n        /* \"contracts/ERC20token(測試舊版).sol\":4849:4859  msg.sender */\n      caller\n        /* \"contracts/ERC20token(測試舊版).sol\":4840:4860  balances[msg.sender] */\n      0xffffffffffffffffffffffffffffffffffffffff\n      and\n      0xffffffffffffffffffffffffffffffffffffffff\n      and\n      dup2\n      mstore\n      0x20\n      add\n      swap1\n      dup2\n      mstore\n      0x20\n      add\n      0x0\n      keccak256\n      0x0\n        /* \"contracts/ERC20token(測試舊版).sol\":4840:4871  balances[msg.sender] -= _amount */\n      dup3\n      dup3\n      sload\n      sub\n      swap3\n      pop\n      pop\n      dup2\n      swap1\n      sstore\n      pop\n        /* \"contracts/ERC20token(測試舊版).sol\":4969:4970  0 */\n      0x0\n        /* \"contracts/ERC20token(測試舊版).sol\":4940:4981  Transfer(msg.sender, address(0), _amount) */\n      0xffffffffffffffffffffffffffffffffffffffff\n      and\n        /* \"contracts/ERC20token(測試舊版).sol\":4949:4959  msg.sender */\n      caller\n        /* \"contracts/ERC20token(測試舊版).sol\":4940:4981  Transfer(msg.sender, address(0), _amount) */\n      0xffffffffffffffffffffffffffffffffffffffff\n      and\n      0xddf252ad1be2c89b69c2b068fc378daa952ba7f163c4a11628f55a4df523b3ef\n        /* \"contracts/ERC20token(測試舊版).sol\":4973:4980  _amount */\n      dup5\n        /* \"contracts/ERC20token(測試舊版).sol\":4940:4981  Transfer(msg.sender, address(0), _amount) */\n      mload(0x40)\n      dup1\n      dup3\n      dup2\n      mstore\n      0x20\n      add\n      swap2\n      pop\n      pop\n      mload(0x40)\n      dup1\n      swap2\n      sub\n      swap1\n      log3\n        /* \"contracts/ERC20token(測試舊版).sol\":5060:5064  true */\n      0x1\n        /* \"contracts/ERC20token(測試舊版).sol\":5053:5064  return true */\n      swap1\n      pop\n      jump(tag_82)\n        /* \"contracts/ERC20token(測試舊版).sol\":4594:5119  if(_amount > 0     //確定銷毀數量>0\r... */\n    tag_85:\n        /* \"contracts/ERC20token(測試舊版).sol\":5102:5107  false */\n      0x0\n        /* \"contracts/ERC20token(測試舊版).sol\":5095:5107  return false */\n      swap1\n      pop\n        /* \"contracts/ERC20token(測試舊版).sol\":1163:1164  _ */\n    tag_82:\n        /* \"contracts/ERC20token(測試舊版).sol\":4522:5126  function burn(uint256 _amount) public onlyOwner returns(bool){\r... */\n      swap2\n      swap1\n      pop\n      jump\t// out\n        /* \"contracts/ERC20token(測試舊版).sol\":1818:1966  function balanceOf(address _owner) public view returns (uint256){\r... */\n    tag_56:\n        /* \"contracts/ERC20token(測試舊版).sol\":1874:1881  uint256 */\n      0x0\n        /* \"contracts/ERC20token(測試舊版).sol\":1900:1908  balances */\n      0x2\n        /* \"contracts/ERC20token(測試舊版).sol\":1900:1916  balances[_owner] */\n      0x0\n        /* \"contracts/ERC20token(測試舊版).sol\":1909:1915  _owner */\n      dup4\n        /* \"contracts/ERC20token(測試舊版).sol\":1900:1916  balances[_owner] */\n      0xffffffffffffffffffffffffffffffffffffffff\n      and\n      0xffffffffffffffffffffffffffffffffffffffff\n      and\n      dup2\n      mstore\n      0x20\n      add\n      swap1\n      dup2\n      mstore\n      0x20\n      add\n      0x0\n      keccak256\n      sload\n        /* \"contracts/ERC20token(測試舊版).sol\":1893:1916  return balances[_owner] */\n      swap1\n      pop\n        /* \"contracts/ERC20token(測試舊版).sol\":1818:1966  function balanceOf(address _owner) public view returns (uint256){\r... */\n      swap2\n      swap1\n      pop\n      jump\t// out\n        /* \"contracts/ERC20token(測試舊版).sol\":382:402  address public owner */\n    tag_59:\n      0x1\n      0x0\n      swap1\n      sload\n      swap1\n      0x100\n      exp\n      swap1\n      div\n      0xffffffffffffffffffffffffffffffffffffffff\n      and\n      dup2\n      jump\t// out\n        /* \"contracts/ERC20token(測試舊版).sol\":1974:2713  function transfer(address _to, uint _amount)public returns(bool){\r... */\n    tag_62:\n        /* \"contracts/ERC20token(測試舊版).sol\":2033:2037  bool */\n      0x0\n        /* \"contracts/ERC20token(測試舊版).sol\":2062:2063  0 */\n      dup1\n        /* \"contracts/ERC20token(測試舊版).sol\":2052:2059  _amount */\n      dup3\n        /* \"contracts/ERC20token(測試舊版).sol\":2052:2063  _amount > 0 */\n      gt\n        /* \"contracts/ERC20token(測試舊版).sol\":2052:2135  _amount > 0      //檢測發送數量>0\r... */\n      dup1\n      iszero\n      tag_89\n      jumpi\n      pop\n        /* \"contracts/ERC20token(測試舊版).sol\":2128:2135  _amount */\n      dup2\n        /* \"contracts/ERC20token(測試舊版).sol\":2104:2112  balances */\n      0x2\n        /* \"contracts/ERC20token(測試舊版).sol\":2104:2124  balances[msg.sender] */\n      0x0\n        /* \"contracts/ERC20token(測試舊版).sol\":2113:2123  msg.sender */\n      caller\n        /* \"contracts/ERC20token(測試舊版).sol\":2104:2124  balances[msg.sender] */\n      0xffffffffffffffffffffffffffffffffffffffff\n      and\n      0xffffffffffffffffffffffffffffffffffffffff\n      and\n      dup2\n      mstore\n      0x20\n      add\n      swap1\n      dup2\n      mstore\n      0x20\n      add\n      0x0\n      keccak256\n      sload\n        /* \"contracts/ERC20token(測試舊版).sol\":2104:2135  balances[msg.sender] >= _amount */\n      lt\n      iszero\n        /* \"contracts/ERC20token(測試舊版).sol\":2052:2135  _amount > 0      //檢測發送數量>0\r... */\n    tag_89:\n        /* \"contracts/ERC20token(測試舊版).sol\":2052:2264  _amount > 0      //檢測發送數量>0\r... */\n      dup1\n      iszero\n      tag_90\n      jumpi\n      pop\n        /* \"contracts/ERC20token(測試舊版).sol\":2251:2259  balances */\n      0x2\n        /* \"contracts/ERC20token(測試舊版).sol\":2251:2264  balances[_to] */\n      0x0\n        /* \"contracts/ERC20token(測試舊版).sol\":2260:2263  _to */\n      dup5\n        /* \"contracts/ERC20token(測試舊版).sol\":2251:2264  balances[_to] */\n      0xffffffffffffffffffffffffffffffffffffffff\n      and\n      0xffffffffffffffffffffffffffffffffffffffff\n      and\n      dup2\n      mstore\n      0x20\n      add\n      swap1\n      dup2\n      mstore\n      0x20\n      add\n      0x0\n      keccak256\n      sload\n        /* \"contracts/ERC20token(測試舊版).sol\":2241:2248  _amount */\n      dup3\n        /* \"contracts/ERC20token(測試舊版).sol\":2225:2233  balances */\n      0x2\n        /* \"contracts/ERC20token(測試舊版).sol\":2225:2238  balances[_to] */\n      0x0\n        /* \"contracts/ERC20token(測試舊版).sol\":2234:2237  _to */\n      dup7\n        /* \"contracts/ERC20token(測試舊版).sol\":2225:2238  balances[_to] */\n      0xffffffffffffffffffffffffffffffffffffffff\n      and\n      0xffffffffffffffffffffffffffffffffffffffff\n      and\n      dup2\n      mstore\n      0x20\n      add\n      swap1\n      dup2\n      mstore\n      0x20\n      add\n      0x0\n      keccak256\n      sload\n        /* \"contracts/ERC20token(測試舊版).sol\":2225:2248  balances[_to] + _amount */\n      add\n        /* \"contracts/ERC20token(測試舊版).sol\":2225:2264  balances[_to] + _amount > balances[_to] */\n      gt\n        /* \"contracts/ERC20token(測試舊版).sol\":2052:2264  _amount > 0      //檢測發送數量>0\r... */\n    tag_90:\n        /* \"contracts/ERC20token(測試舊版).sol\":2049:2706  if(_amount > 0      //檢測發送數量>0\r... */\n      iszero\n      tag_91\n      jumpi\n        /* \"contracts/ERC20token(測試舊版).sol\":2341:2348  _amount */\n      dup2\n        /* \"contracts/ERC20token(測試舊版).sol\":2317:2325  balances */\n      0x2\n        /* \"contracts/ERC20token(測試舊版).sol\":2317:2337  balances[msg.sender] */\n      0x0\n        /* \"contracts/ERC20token(測試舊版).sol\":2326:2336  msg.sender */\n      caller\n        /* \"contracts/ERC20token(測試舊版).sol\":2317:2337  balances[msg.sender] */\n      0xffffffffffffffffffffffffffffffffffffffff\n      and\n      0xffffffffffffffffffffffffffffffffffffffff\n      and\n      dup2\n      mstore\n      0x20\n      add\n      swap1\n      dup2\n      mstore\n      0x20\n      add\n      0x0\n      keccak256\n      0x0\n        /* \"contracts/ERC20token(測試舊版).sol\":2317:2348  balances[msg.sender] -= _amount */\n      dup3\n      dup3\n      sload\n      sub\n      swap3\n      pop\n      pop\n      dup2\n      swap1\n      sstore\n      pop\n        /* \"contracts/ERC20token(測試舊版).sol\":2420:2427  _amount */\n      dup2\n        /* \"contracts/ERC20token(測試舊版).sol\":2403:2411  balances */\n      0x2\n        /* \"contracts/ERC20token(測試舊版).sol\":2403:2416  balances[_to] */\n      0x0\n        /* \"contracts/ERC20token(測試舊版).sol\":2412:2415  _to */\n      dup6\n        /* \"contracts/ERC20token(測試舊版).sol\":2403:2416  balances[_to] */\n      0xffffffffffffffffffffffffffffffffffffffff\n      and\n      0xffffffffffffffffffffffffffffffffffffffff\n      and\n      dup2\n      mstore\n      0x20\n      add\n      swap1\n      dup2\n      mstore\n      0x20\n      add\n      0x0\n      keccak256\n      0x0\n        /* \"contracts/ERC20token(測試舊版).sol\":2403:2427  balances[_to] += _amount */\n      dup3\n      dup3\n      sload\n      add\n      swap3\n      pop\n      pop\n      dup2\n      swap1\n      sstore\n      pop\n        /* \"contracts/ERC20token(測試舊版).sol\":2517:2520  _to */\n      dup3\n        /* \"contracts/ERC20token(測試舊版).sol\":2496:2530  Transfer(msg.sender, _to, _amount) */\n      0xffffffffffffffffffffffffffffffffffffffff\n      and\n        /* \"contracts/ERC20token(測試舊版).sol\":2505:2515  msg.sender */\n      caller\n        /* \"contracts/ERC20token(測試舊版).sol\":2496:2530  Transfer(msg.sender, _to, _amount) */\n      0xffffffffffffffffffffffffffffffffffffffff\n      and\n      0xddf252ad1be2c89b69c2b068fc378daa952ba7f163c4a11628f55a4df523b3ef\n        /* \"contracts/ERC20token(測試舊版).sol\":2522:2529  _amount */\n      dup5\n        /* \"contracts/ERC20token(測試舊版).sol\":2496:2530  Transfer(msg.sender, _to, _amount) */\n      mload(0x40)\n      dup1\n      dup3\n      dup2\n      mstore\n      0x20\n      add\n      swap2\n      pop\n      pop\n      mload(0x40)\n      dup1\n      swap2\n      sub\n      swap1\n      log3\n        /* \"contracts/ERC20token(測試舊版).sol\":2589:2593  true */\n      0x1\n        /* \"contracts/ERC20token(測試舊版).sol\":2582:2593  return true */\n      swap1\n      pop\n      jump(tag_88)\n        /* \"contracts/ERC20token(測試舊版).sol\":2049:2706  if(_amount > 0      //檢測發送數量>0\r... */\n    tag_91:\n        /* \"contracts/ERC20token(測試舊版).sol\":2689:2694  false */\n      0x0\n        /* \"contracts/ERC20token(測試舊版).sol\":2682:2694  return false */\n      swap1\n      pop\n        /* \"contracts/ERC20token(測試舊版).sol\":1974:2713  function transfer(address _to, uint _amount)public returns(bool){\r... */\n    tag_88:\n      swap3\n      swap2\n      pop\n      pop\n      jump\t// out\n        /* \"contracts/ERC20token(測試舊版).sol\":4202:4342  function contractETH() public view returns (uint256){\r... */\n    tag_65:\n        /* \"contracts/ERC20token(測試舊版).sol\":4246:4253  uint256 */\n      0x0\n        /* \"contracts/ERC20token(測試舊版).sol\":4280:4284  this */\n      address\n        /* \"contracts/ERC20token(測試舊版).sol\":4272:4293  address(this).balance */\n      0xffffffffffffffffffffffffffffffffffffffff\n      and\n      balance\n        /* \"contracts/ERC20token(測試舊版).sol\":4265:4293  return address(this).balance */\n      swap1\n      pop\n        /* \"contracts/ERC20token(測試舊版).sol\":4202:4342  function contractETH() public view returns (uint256){\r... */\n      swap1\n      jump\t// out\n        /* \"contracts/ERC20token(測試舊版).sol\":4020:4194  function allowance (address _owner, address _spender) public view returns(uint256){\r... */\n    tag_68:\n        /* \"contracts/ERC20token(測試舊版).sol\":4094:4101  uint256 */\n      0x0\n        /* \"contracts/ERC20token(測試舊版).sol\":4120:4127  allowed */\n      0x3\n        /* \"contracts/ERC20token(測試舊版).sol\":4120:4135  allowed[_owner] */\n      0x0\n        /* \"contracts/ERC20token(測試舊版).sol\":4128:4134  _owner */\n      dup5\n        /* \"contracts/ERC20token(測試舊版).sol\":4120:4135  allowed[_owner] */\n      0xffffffffffffffffffffffffffffffffffffffff\n      and\n      0xffffffffffffffffffffffffffffffffffffffff\n      and\n      dup2\n      mstore\n      0x20\n      add\n      swap1\n      dup2\n      mstore\n      0x20\n      add\n      0x0\n      keccak256\n        /* \"contracts/ERC20token(測試舊版).sol\":4120:4145  allowed[_owner][_spender] */\n      0x0\n        /* \"contracts/ERC20token(測試舊版).sol\":4136:4144  _spender */\n      dup4\n        /* \"contracts/ERC20token(測試舊版).sol\":4120:4145  allowed[_owner][_spender] */\n      0xffffffffffffffffffffffffffffffffffffffff\n      and\n      0xffffffffffffffffffffffffffffffffffffffff\n      and\n      dup2\n      mstore\n      0x20\n      add\n      swap1\n      dup2\n      mstore\n      0x20\n      add\n      0x0\n      keccak256\n      sload\n        /* \"contracts/ERC20token(測試舊版).sol\":4113:4145  return allowed[_owner][_spender] */\n      swap1\n      pop\n        /* \"contracts/ERC20token(測試舊版).sol\":4020:4194  function allowance (address _owner, address _spender) public view returns(uint256){\r... */\n      swap3\n      swap2\n      pop\n      pop\n      jump\t// out\n\n    auxdata: 0xa165627a7a72305820826c7065bb4794246cd9234836eb1a248c78b88d110cb718eb5e6e936b5762a90029\n}\n",
				"bytecode": {
					"linkReferences": {},
					"object": "60806040526298968060005534801561001757600080fd5b5033600160006101000a81548173ffffffffffffffffffffffffffffffffffffffff021916908373ffffffffffffffffffffffffffffffffffffffff160217905550611122806100686000396000f3006080604052600436106100c5576000357c0100000000000000000000000000000000000000000000000000000000900463ffffffff168063064e86841461022157806306fdde0314610238578063095ea7b3146102c857806318160ddd1461032d57806323b872dd14610358578063288152bb146103dd578063313ce5671461046d57806342966c681461049e57806370a08231146104e35780638da5cb5b1461053a578063a9059cbb14610591578063bbd316eb146105f6578063dd62ed3e14610621575b6000805411801561011557506000600260003373ffffffffffffffffffffffffffffffffffffffff1673ffffffffffffffffffffffffffffffffffffffff16815260200190815260200160002054145b8015610127575066038d7ea4c6800034145b801561017357506103e8600460003373ffffffffffffffffffffffffffffffffffffffff1673ffffffffffffffffffffffffffffffffffffffff16815260200190815260200160002054105b1561021a576103e860008082825403925050819055506103e8600260003373ffffffffffffffffffffffffffffffffffffffff1673ffffffffffffffffffffffffffffffffffffffff168152602001908152602001600020819055506103e8600460003373ffffffffffffffffffffffffffffffffffffffff1673ffffffffffffffffffffffffffffffffffffffff1681526020019081526020016000208190555061021f565b600080fd5b005b34801561022d57600080fd5b50610236610698565b005b34801561024457600080fd5b5061024d610776565b6040518080602001828103825283818151815260200191508051906020019080838360005b8381101561028d578082015181840152602081019050610272565b50505050905090810190601f1680156102ba5780820380516001836020036101000a031916815260200191505b509250505060405180910390f35b3480156102d457600080fd5b50610313600480360381019080803573ffffffffffffffffffffffffffffffffffffffff169060200190929190803590602001909291905050506107af565b604051808215151515815260200191505060405180910390f35b34801561033957600080fd5b506103426108a1565b6040518082815260200191505060405180910390f35b34801561036457600080fd5b506103c3600480360381019080803573ffffffffffffffffffffffffffffffffffffffff169060200190929190803573ffffffffffffffffffffffffffffffffffffffff169060200190929190803590602001909291905050506108a7565b604051808215151515815260200191505060405180910390f35b3480156103e957600080fd5b506103f2610bad565b6040518080602001828103825283818151815260200191508051906020019080838360005b83811015610432578082015181840152602081019050610417565b50505050905090810190601f16801561045f5780820380516001836020036101000a031916815260200191505b509250505060405180910390f35b34801561047957600080fd5b50610482610be6565b604051808260ff1660ff16815260200191505060405180910390f35b3480156104aa57600080fd5b506104c960048036038101908080359060200190929190505050610beb565b604051808215151515815260200191505060405180910390f35b3480156104ef57600080fd5b50610524600480360381019080803573ffffffffffffffffffffffffffffffffffffffff169060200190929190505050610dee565b6040518082815260200191505060405180910390f35b34801561054657600080fd5b5061054f610e37565b604051808273ffffffffffffffffffffffffffffffffffffffff1673ffffffffffffffffffffffffffffffffffffffff16815260200191505060405180910390f35b34801561059d57600080fd5b506105dc600480360381019080803573ffffffffffffffffffffffffffffffffffffffff16906020019092919080359060200190929190505050610e5d565b604051808215151515815260200191505060405180910390f35b34801561060257600080fd5b5061060b611050565b6040518082815260200191505060405180910390f35b34801561062d57600080fd5b50610682600480360381019080803573ffffffffffffffffffffffffffffffffffffffff169060200190929190803573ffffffffffffffffffffffffffffffffffffffff16906020019092919050505061106f565b6040518082815260200191505060405180910390f35b600160009054906101000a900473ffffffffffffffffffffffffffffffffffffffff1673ffffffffffffffffffffffffffffffffffffffff163373ffffffffffffffffffffffffffffffffffffffff161415156106f457600080fd5b600160009054906101000a900473ffffffffffffffffffffffffffffffffffffffff1673ffffffffffffffffffffffffffffffffffffffff166108fc3073ffffffffffffffffffffffffffffffffffffffff16319081150290604051600060405180830381858888f19350505050158015610773573d6000803e3d6000fd5b50565b6040805190810160405280600f81526020017f5269636b20526f6c6c20546f6b656e000000000000000000000000000000000081525081565b600081600360003373ffffffffffffffffffffffffffffffffffffffff1673ffffffffffffffffffffffffffffffffffffffff16815260200190815260200160002060008573ffffffffffffffffffffffffffffffffffffffff1673ffffffffffffffffffffffffffffffffffffffff168152602001908152602001600020819055508273ffffffffffffffffffffffffffffffffffffffff163373ffffffffffffffffffffffffffffffffffffffff167f8c5be1e5ebec7d5bd14f71427d1e84f3dd0314c0f7b2291e5b200ac8c7c3b925846040518082815260200191505060405180910390a36001905092915050565b60005481565b600080821180156108f7575081600260008673ffffffffffffffffffffffffffffffffffffffff1673ffffffffffffffffffffffffffffffffffffffff1681526020019081526020016000205410155b801561097f575081600360008673ffffffffffffffffffffffffffffffffffffffff1673ffffffffffffffffffffffffffffffffffffffff16815260200190815260200160002060003373ffffffffffffffffffffffffffffffffffffffff1673ffffffffffffffffffffffffffffffffffffffff1681526020019081526020016000205410155b8015610a0a5750600260008473ffffffffffffffffffffffffffffffffffffffff1673ffffffffffffffffffffffffffffffffffffffff1681526020019081526020016000205482600260008673ffffffffffffffffffffffffffffffffffffffff1673ffffffffffffffffffffffffffffffffffffffff1681526020019081526020016000205401115b15610ba15781600260008673ffffffffffffffffffffffffffffffffffffffff1673ffffffffffffffffffffffffffffffffffffffff1681526020019081526020016000206000828254039250508190555081600360008673ffffffffffffffffffffffffffffffffffffffff1673ffffffffffffffffffffffffffffffffffffffff16815260200190815260200160002060003373ffffffffffffffffffffffffffffffffffffffff1673ffffffffffffffffffffffffffffffffffffffff1681526020019081526020016000206000828254039250508190555081600260008573ffffffffffffffffffffffffffffffffffffffff1673ffffffffffffffffffffffffffffffffffffffff168152602001908152602001600020600082825401925050819055508273ffffffffffffffffffffffffffffffffffffffff168473ffffffffffffffffffffffffffffffffffffffff167fddf252ad1be2c89b69c2b068fc378daa952ba7f163c4a11628f55a4df523b3ef846040518082815260200191505060405180910390a360019050610ba6565b600090505b9392505050565b6040805190810160405280600381526020017f525254000000000000000000000000000000000000000000000000000000000081525081565b600081565b6000600160009054906101000a900473ffffffffffffffffffffffffffffffffffffffff1673ffffffffffffffffffffffffffffffffffffffff163373ffffffffffffffffffffffffffffffffffffffff16141515610c4957600080fd5b600082118015610c98575081600260003373ffffffffffffffffffffffffffffffffffffffff1673ffffffffffffffffffffffffffffffffffffffff1681526020019081526020016000205410155b8015610d235750600260003373ffffffffffffffffffffffffffffffffffffffff1673ffffffffffffffffffffffffffffffffffffffff1681526020019081526020016000205482600260003373ffffffffffffffffffffffffffffffffffffffff1673ffffffffffffffffffffffffffffffffffffffff1681526020019081526020016000205403105b15610de45781600260003373ffffffffffffffffffffffffffffffffffffffff1673ffffffffffffffffffffffffffffffffffffffff16815260200190815260200160002060008282540392505081905550600073ffffffffffffffffffffffffffffffffffffffff163373ffffffffffffffffffffffffffffffffffffffff167fddf252ad1be2c89b69c2b068fc378daa952ba7f163c4a11628f55a4df523b3ef846040518082815260200191505060405180910390a360019050610de9565b600090505b919050565b6000600260008373ffffffffffffffffffffffffffffffffffffffff1673ffffffffffffffffffffffffffffffffffffffff168152602001908152602001600020549050919050565b600160009054906101000a900473ffffffffffffffffffffffffffffffffffffffff1681565b60008082118015610ead575081600260003373ffffffffffffffffffffffffffffffffffffffff1673ffffffffffffffffffffffffffffffffffffffff1681526020019081526020016000205410155b8015610f385750600260008473ffffffffffffffffffffffffffffffffffffffff1673ffffffffffffffffffffffffffffffffffffffff1681526020019081526020016000205482600260008673ffffffffffffffffffffffffffffffffffffffff1673ffffffffffffffffffffffffffffffffffffffff1681526020019081526020016000205401115b156110455781600260003373ffffffffffffffffffffffffffffffffffffffff1673ffffffffffffffffffffffffffffffffffffffff1681526020019081526020016000206000828254039250508190555081600260008573ffffffffffffffffffffffffffffffffffffffff1673ffffffffffffffffffffffffffffffffffffffff168152602001908152602001600020600082825401925050819055508273ffffffffffffffffffffffffffffffffffffffff163373ffffffffffffffffffffffffffffffffffffffff167fddf252ad1be2c89b69c2b068fc378daa952ba7f163c4a11628f55a4df523b3ef846040518082815260200191505060405180910390a36001905061104a565b600090505b92915050565b60003073ffffffffffffffffffffffffffffffffffffffff1631905090565b6000600360008473ffffffffffffffffffffffffffffffffffffffff1673ffffffffffffffffffffffffffffffffffffffff16815260200190815260200160002060008373ffffffffffffffffffffffffffffffffffffffff1673ffffffffffffffffffffffffffffffffffffffff168152602001908152602001600020549050929150505600a165627a7a72305820826c7065bb4794246cd9234836eb1a248c78b88d110cb718eb5e6e936b5762a90029",
					"opcodes": "PUSH1 0x80 PUSH1 0x40 MSTORE PUSH3 0x989680 PUSH1 0x0 SSTORE CALLVALUE DUP1 ISZERO PUSH2 0x17 JUMPI PUSH1 0x0 DUP1 REVERT JUMPDEST POP CALLER PUSH1 0x1 PUSH1 0x0 PUSH2 0x100 EXP DUP2 SLOAD DUP2 PUSH20 0xFFFFFFFFFFFFFFFFFFFFFFFFFFFFFFFFFFFFFFFF MUL NOT AND SWAP1 DUP4 PUSH20 0xFFFFFFFFFFFFFFFFFFFFFFFFFFFFFFFFFFFFFFFF AND MUL OR SWAP1 SSTORE POP PUSH2 0x1122 DUP1 PUSH2 0x68 PUSH1 0x0 CODECOPY PUSH1 0x0 RETURN STOP PUSH1 0x80 PUSH1 0x40 MSTORE PUSH1 0x4 CALLDATASIZE LT PUSH2 0xC5 JUMPI PUSH1 0x0 CALLDATALOAD PUSH29 0x100000000000000000000000000000000000000000000000000000000 SWAP1 DIV PUSH4 0xFFFFFFFF AND DUP1 PUSH4 0x64E8684 EQ PUSH2 0x221 JUMPI DUP1 PUSH4 0x6FDDE03 EQ PUSH2 0x238 JUMPI DUP1 PUSH4 0x95EA7B3 EQ PUSH2 0x2C8 JUMPI DUP1 PUSH4 0x18160DDD EQ PUSH2 0x32D JUMPI DUP1 PUSH4 0x23B872DD EQ PUSH2 0x358 JUMPI DUP1 PUSH4 0x288152BB EQ PUSH2 0x3DD JUMPI DUP1 PUSH4 0x313CE567 EQ PUSH2 0x46D JUMPI DUP1 PUSH4 0x42966C68 EQ PUSH2 0x49E JUMPI DUP1 PUSH4 0x70A08231 EQ PUSH2 0x4E3 JUMPI DUP1 PUSH4 0x8DA5CB5B EQ PUSH2 0x53A JUMPI DUP1 PUSH4 0xA9059CBB EQ PUSH2 0x591 JUMPI DUP1 PUSH4 0xBBD316EB EQ PUSH2 0x5F6 JUMPI DUP1 PUSH4 0xDD62ED3E EQ PUSH2 0x621 JUMPI JUMPDEST PUSH1 0x0 DUP1 SLOAD GT DUP1 ISZERO PUSH2 0x115 JUMPI POP PUSH1 0x0 PUSH1 0x2 PUSH1 0x0 CALLER PUSH20 0xFFFFFFFFFFFFFFFFFFFFFFFFFFFFFFFFFFFFFFFF AND PUSH20 0xFFFFFFFFFFFFFFFFFFFFFFFFFFFFFFFFFFFFFFFF AND DUP2 MSTORE PUSH1 0x20 ADD SWAP1 DUP2 MSTORE PUSH1 0x20 ADD PUSH1 0x0 KECCAK256 SLOAD EQ JUMPDEST DUP1 ISZERO PUSH2 0x127 JUMPI POP PUSH7 0x38D7EA4C68000 CALLVALUE EQ JUMPDEST DUP1 ISZERO PUSH2 0x173 JUMPI POP PUSH2 0x3E8 PUSH1 0x4 PUSH1 0x0 CALLER PUSH20 0xFFFFFFFFFFFFFFFFFFFFFFFFFFFFFFFFFFFFFFFF AND PUSH20 0xFFFFFFFFFFFFFFFFFFFFFFFFFFFFFFFFFFFFFFFF AND DUP2 MSTORE PUSH1 0x20 ADD SWAP1 DUP2 MSTORE PUSH1 0x20 ADD PUSH1 0x0 KECCAK256 SLOAD LT JUMPDEST ISZERO PUSH2 0x21A JUMPI PUSH2 0x3E8 PUSH1 0x0 DUP1 DUP3 DUP3 SLOAD SUB SWAP3 POP POP DUP2 SWAP1 SSTORE POP PUSH2 0x3E8 PUSH1 0x2 PUSH1 0x0 CALLER PUSH20 0xFFFFFFFFFFFFFFFFFFFFFFFFFFFFFFFFFFFFFFFF AND PUSH20 0xFFFFFFFFFFFFFFFFFFFFFFFFFFFFFFFFFFFFFFFF AND DUP2 MSTORE PUSH1 0x20 ADD SWAP1 DUP2 MSTORE PUSH1 0x20 ADD PUSH1 0x0 KECCAK256 DUP2 SWAP1 SSTORE POP PUSH2 0x3E8 PUSH1 0x4 PUSH1 0x0 CALLER PUSH20 0xFFFFFFFFFFFFFFFFFFFFFFFFFFFFFFFFFFFFFFFF AND PUSH20 0xFFFFFFFFFFFFFFFFFFFFFFFFFFFFFFFFFFFFFFFF AND DUP2 MSTORE PUSH1 0x20 ADD SWAP1 DUP2 MSTORE PUSH1 0x20 ADD PUSH1 0x0 KECCAK256 DUP2 SWAP1 SSTORE POP PUSH2 0x21F JUMP JUMPDEST PUSH1 0x0 DUP1 REVERT JUMPDEST STOP JUMPDEST CALLVALUE DUP1 ISZERO PUSH2 0x22D JUMPI PUSH1 0x0 DUP1 REVERT JUMPDEST POP PUSH2 0x236 PUSH2 0x698 JUMP JUMPDEST STOP JUMPDEST CALLVALUE DUP1 ISZERO PUSH2 0x244 JUMPI PUSH1 0x0 DUP1 REVERT JUMPDEST POP PUSH2 0x24D PUSH2 0x776 JUMP JUMPDEST PUSH1 0x40 MLOAD DUP1 DUP1 PUSH1 0x20 ADD DUP3 DUP2 SUB DUP3 MSTORE DUP4 DUP2 DUP2 MLOAD DUP2 MSTORE PUSH1 0x20 ADD SWAP2 POP DUP1 MLOAD SWAP1 PUSH1 0x20 ADD SWAP1 DUP1 DUP4 DUP4 PUSH1 0x0 JUMPDEST DUP4 DUP2 LT ISZERO PUSH2 0x28D JUMPI DUP1 DUP3 ADD MLOAD DUP2 DUP5 ADD MSTORE PUSH1 0x20 DUP2 ADD SWAP1 POP PUSH2 0x272 JUMP JUMPDEST POP POP POP POP SWAP1 POP SWAP1 DUP2 ADD SWAP1 PUSH1 0x1F AND DUP1 ISZERO PUSH2 0x2BA JUMPI DUP1 DUP3 SUB DUP1 MLOAD PUSH1 0x1 DUP4 PUSH1 0x20 SUB PUSH2 0x100 EXP SUB NOT AND DUP2 MSTORE PUSH1 0x20 ADD SWAP2 POP JUMPDEST POP SWAP3 POP POP POP PUSH1 0x40 MLOAD DUP1 SWAP2 SUB SWAP1 RETURN JUMPDEST CALLVALUE DUP1 ISZERO PUSH2 0x2D4 JUMPI PUSH1 0x0 DUP1 REVERT JUMPDEST POP PUSH2 0x313 PUSH1 0x4 DUP1 CALLDATASIZE SUB DUP2 ADD SWAP1 DUP1 DUP1 CALLDATALOAD PUSH20 0xFFFFFFFFFFFFFFFFFFFFFFFFFFFFFFFFFFFFFFFF AND SWAP1 PUSH1 0x20 ADD SWAP1 SWAP3 SWAP2 SWAP1 DUP1 CALLDATALOAD SWAP1 PUSH1 0x20 ADD SWAP1 SWAP3 SWAP2 SWAP1 POP POP POP PUSH2 0x7AF JUMP JUMPDEST PUSH1 0x40 MLOAD DUP1 DUP3 ISZERO ISZERO ISZERO ISZERO DUP2 MSTORE PUSH1 0x20 ADD SWAP2 POP POP PUSH1 0x40 MLOAD DUP1 SWAP2 SUB SWAP1 RETURN JUMPDEST CALLVALUE DUP1 ISZERO PUSH2 0x339 JUMPI PUSH1 0x0 DUP1 REVERT JUMPDEST POP PUSH2 0x342 PUSH2 0x8A1 JUMP JUMPDEST PUSH1 0x40 MLOAD DUP1 DUP3 DUP2 MSTORE PUSH1 0x20 ADD SWAP2 POP POP PUSH1 0x40 MLOAD DUP1 SWAP2 SUB SWAP1 RETURN JUMPDEST CALLVALUE DUP1 ISZERO PUSH2 0x364 JUMPI PUSH1 0x0 DUP1 REVERT JUMPDEST POP PUSH2 0x3C3 PUSH1 0x4 DUP1 CALLDATASIZE SUB DUP2 ADD SWAP1 DUP1 DUP1 CALLDATALOAD PUSH20 0xFFFFFFFFFFFFFFFFFFFFFFFFFFFFFFFFFFFFFFFF AND SWAP1 PUSH1 0x20 ADD SWAP1 SWAP3 SWAP2 SWAP1 DUP1 CALLDATALOAD PUSH20 0xFFFFFFFFFFFFFFFFFFFFFFFFFFFFFFFFFFFFFFFF AND SWAP1 PUSH1 0x20 ADD SWAP1 SWAP3 SWAP2 SWAP1 DUP1 CALLDATALOAD SWAP1 PUSH1 0x20 ADD SWAP1 SWAP3 SWAP2 SWAP1 POP POP POP PUSH2 0x8A7 JUMP JUMPDEST PUSH1 0x40 MLOAD DUP1 DUP3 ISZERO ISZERO ISZERO ISZERO DUP2 MSTORE PUSH1 0x20 ADD SWAP2 POP POP PUSH1 0x40 MLOAD DUP1 SWAP2 SUB SWAP1 RETURN JUMPDEST CALLVALUE DUP1 ISZERO PUSH2 0x3E9 JUMPI PUSH1 0x0 DUP1 REVERT JUMPDEST POP PUSH2 0x3F2 PUSH2 0xBAD JUMP JUMPDEST PUSH1 0x40 MLOAD DUP1 DUP1 PUSH1 0x20 ADD DUP3 DUP2 SUB DUP3 MSTORE DUP4 DUP2 DUP2 MLOAD DUP2 MSTORE PUSH1 0x20 ADD SWAP2 POP DUP1 MLOAD SWAP1 PUSH1 0x20 ADD SWAP1 DUP1 DUP4 DUP4 PUSH1 0x0 JUMPDEST DUP4 DUP2 LT ISZERO PUSH2 0x432 JUMPI DUP1 DUP3 ADD MLOAD DUP2 DUP5 ADD MSTORE PUSH1 0x20 DUP2 ADD SWAP1 POP PUSH2 0x417 JUMP JUMPDEST POP POP POP POP SWAP1 POP SWAP1 DUP2 ADD SWAP1 PUSH1 0x1F AND DUP1 ISZERO PUSH2 0x45F JUMPI DUP1 DUP3 SUB DUP1 MLOAD PUSH1 0x1 DUP4 PUSH1 0x20 SUB PUSH2 0x100 EXP SUB NOT AND DUP2 MSTORE PUSH1 0x20 ADD SWAP2 POP JUMPDEST POP SWAP3 POP POP POP PUSH1 0x40 MLOAD DUP1 SWAP2 SUB SWAP1 RETURN JUMPDEST CALLVALUE DUP1 ISZERO PUSH2 0x479 JUMPI PUSH1 0x0 DUP1 REVERT JUMPDEST POP PUSH2 0x482 PUSH2 0xBE6 JUMP JUMPDEST PUSH1 0x40 MLOAD DUP1 DUP3 PUSH1 0xFF AND PUSH1 0xFF AND DUP2 MSTORE PUSH1 0x20 ADD SWAP2 POP POP PUSH1 0x40 MLOAD DUP1 SWAP2 SUB SWAP1 RETURN JUMPDEST CALLVALUE DUP1 ISZERO PUSH2 0x4AA JUMPI PUSH1 0x0 DUP1 REVERT JUMPDEST POP PUSH2 0x4C9 PUSH1 0x4 DUP1 CALLDATASIZE SUB DUP2 ADD SWAP1 DUP1 DUP1 CALLDATALOAD SWAP1 PUSH1 0x20 ADD SWAP1 SWAP3 SWAP2 SWAP1 POP POP POP PUSH2 0xBEB JUMP JUMPDEST PUSH1 0x40 MLOAD DUP1 DUP3 ISZERO ISZERO ISZERO ISZERO DUP2 MSTORE PUSH1 0x20 ADD SWAP2 POP POP PUSH1 0x40 MLOAD DUP1 SWAP2 SUB SWAP1 RETURN JUMPDEST CALLVALUE DUP1 ISZERO PUSH2 0x4EF JUMPI PUSH1 0x0 DUP1 REVERT JUMPDEST POP PUSH2 0x524 PUSH1 0x4 DUP1 CALLDATASIZE SUB DUP2 ADD SWAP1 DUP1 DUP1 CALLDATALOAD PUSH20 0xFFFFFFFFFFFFFFFFFFFFFFFFFFFFFFFFFFFFFFFF AND SWAP1 PUSH1 0x20 ADD SWAP1 SWAP3 SWAP2 SWAP1 POP POP POP PUSH2 0xDEE JUMP JUMPDEST PUSH1 0x40 MLOAD DUP1 DUP3 DUP2 MSTORE PUSH1 0x20 ADD SWAP2 POP POP PUSH1 0x40 MLOAD DUP1 SWAP2 SUB SWAP1 RETURN JUMPDEST CALLVALUE DUP1 ISZERO PUSH2 0x546 JUMPI PUSH1 0x0 DUP1 REVERT JUMPDEST POP PUSH2 0x54F PUSH2 0xE37 JUMP JUMPDEST PUSH1 0x40 MLOAD DUP1 DUP3 PUSH20 0xFFFFFFFFFFFFFFFFFFFFFFFFFFFFFFFFFFFFFFFF AND PUSH20 0xFFFFFFFFFFFFFFFFFFFFFFFFFFFFFFFFFFFFFFFF AND DUP2 MSTORE PUSH1 0x20 ADD SWAP2 POP POP PUSH1 0x40 MLOAD DUP1 SWAP2 SUB SWAP1 RETURN JUMPDEST CALLVALUE DUP1 ISZERO PUSH2 0x59D JUMPI PUSH1 0x0 DUP1 REVERT JUMPDEST POP PUSH2 0x5DC PUSH1 0x4 DUP1 CALLDATASIZE SUB DUP2 ADD SWAP1 DUP1 DUP1 CALLDATALOAD PUSH20 0xFFFFFFFFFFFFFFFFFFFFFFFFFFFFFFFFFFFFFFFF AND SWAP1 PUSH1 0x20 ADD SWAP1 SWAP3 SWAP2 SWAP1 DUP1 CALLDATALOAD SWAP1 PUSH1 0x20 ADD SWAP1 SWAP3 SWAP2 SWAP1 POP POP POP PUSH2 0xE5D JUMP JUMPDEST PUSH1 0x40 MLOAD DUP1 DUP3 ISZERO ISZERO ISZERO ISZERO DUP2 MSTORE PUSH1 0x20 ADD SWAP2 POP POP PUSH1 0x40 MLOAD DUP1 SWAP2 SUB SWAP1 RETURN JUMPDEST CALLVALUE DUP1 ISZERO PUSH2 0x602 JUMPI PUSH1 0x0 DUP1 REVERT JUMPDEST POP PUSH2 0x60B PUSH2 0x1050 JUMP JUMPDEST PUSH1 0x40 MLOAD DUP1 DUP3 DUP2 MSTORE PUSH1 0x20 ADD SWAP2 POP POP PUSH1 0x40 MLOAD DUP1 SWAP2 SUB SWAP1 RETURN JUMPDEST CALLVALUE DUP1 ISZERO PUSH2 0x62D JUMPI PUSH1 0x0 DUP1 REVERT JUMPDEST POP PUSH2 0x682 PUSH1 0x4 DUP1 CALLDATASIZE SUB DUP2 ADD SWAP1 DUP1 DUP1 CALLDATALOAD PUSH20 0xFFFFFFFFFFFFFFFFFFFFFFFFFFFFFFFFFFFFFFFF AND SWAP1 PUSH1 0x20 ADD SWAP1 SWAP3 SWAP2 SWAP1 DUP1 CALLDATALOAD PUSH20 0xFFFFFFFFFFFFFFFFFFFFFFFFFFFFFFFFFFFFFFFF AND SWAP1 PUSH1 0x20 ADD SWAP1 SWAP3 SWAP2 SWAP1 POP POP POP PUSH2 0x106F JUMP JUMPDEST PUSH1 0x40 MLOAD DUP1 DUP3 DUP2 MSTORE PUSH1 0x20 ADD SWAP2 POP POP PUSH1 0x40 MLOAD DUP1 SWAP2 SUB SWAP1 RETURN JUMPDEST PUSH1 0x1 PUSH1 0x0 SWAP1 SLOAD SWAP1 PUSH2 0x100 EXP SWAP1 DIV PUSH20 0xFFFFFFFFFFFFFFFFFFFFFFFFFFFFFFFFFFFFFFFF AND PUSH20 0xFFFFFFFFFFFFFFFFFFFFFFFFFFFFFFFFFFFFFFFF AND CALLER PUSH20 0xFFFFFFFFFFFFFFFFFFFFFFFFFFFFFFFFFFFFFFFF AND EQ ISZERO ISZERO PUSH2 0x6F4 JUMPI PUSH1 0x0 DUP1 REVERT JUMPDEST PUSH1 0x1 PUSH1 0x0 SWAP1 SLOAD SWAP1 PUSH2 0x100 EXP SWAP1 DIV PUSH20 0xFFFFFFFFFFFFFFFFFFFFFFFFFFFFFFFFFFFFFFFF AND PUSH20 0xFFFFFFFFFFFFFFFFFFFFFFFFFFFFFFFFFFFFFFFF AND PUSH2 0x8FC ADDRESS PUSH20 0xFFFFFFFFFFFFFFFFFFFFFFFFFFFFFFFFFFFFFFFF AND BALANCE SWAP1 DUP2 ISZERO MUL SWAP1 PUSH1 0x40 MLOAD PUSH1 0x0 PUSH1 0x40 MLOAD DUP1 DUP4 SUB DUP2 DUP6 DUP9 DUP9 CALL SWAP4 POP POP POP POP ISZERO DUP1 ISZERO PUSH2 0x773 JUMPI RETURNDATASIZE PUSH1 0x0 DUP1 RETURNDATACOPY RETURNDATASIZE PUSH1 0x0 REVERT JUMPDEST POP JUMP JUMPDEST PUSH1 0x40 DUP1 MLOAD SWAP1 DUP2 ADD PUSH1 0x40 MSTORE DUP1 PUSH1 0xF DUP2 MSTORE PUSH1 0x20 ADD PUSH32 0x5269636B20526F6C6C20546F6B656E0000000000000000000000000000000000 DUP2 MSTORE POP DUP2 JUMP JUMPDEST PUSH1 0x0 DUP2 PUSH1 0x3 PUSH1 0x0 CALLER PUSH20 0xFFFFFFFFFFFFFFFFFFFFFFFFFFFFFFFFFFFFFFFF AND PUSH20 0xFFFFFFFFFFFFFFFFFFFFFFFFFFFFFFFFFFFFFFFF AND DUP2 MSTORE PUSH1 0x20 ADD SWAP1 DUP2 MSTORE PUSH1 0x20 ADD PUSH1 0x0 KECCAK256 PUSH1 0x0 DUP6 PUSH20 0xFFFFFFFFFFFFFFFFFFFFFFFFFFFFFFFFFFFFFFFF AND PUSH20 0xFFFFFFFFFFFFFFFFFFFFFFFFFFFFFFFFFFFFFFFF AND DUP2 MSTORE PUSH1 0x20 ADD SWAP1 DUP2 MSTORE PUSH1 0x20 ADD PUSH1 0x0 KECCAK256 DUP2 SWAP1 SSTORE POP DUP3 PUSH20 0xFFFFFFFFFFFFFFFFFFFFFFFFFFFFFFFFFFFFFFFF AND CALLER PUSH20 0xFFFFFFFFFFFFFFFFFFFFFFFFFFFFFFFFFFFFFFFF AND PUSH32 0x8C5BE1E5EBEC7D5BD14F71427D1E84F3DD0314C0F7B2291E5B200AC8C7C3B925 DUP5 PUSH1 0x40 MLOAD DUP1 DUP3 DUP2 MSTORE PUSH1 0x20 ADD SWAP2 POP POP PUSH1 0x40 MLOAD DUP1 SWAP2 SUB SWAP1 LOG3 PUSH1 0x1 SWAP1 POP SWAP3 SWAP2 POP POP JUMP JUMPDEST PUSH1 0x0 SLOAD DUP2 JUMP JUMPDEST PUSH1 0x0 DUP1 DUP3 GT DUP1 ISZERO PUSH2 0x8F7 JUMPI POP DUP2 PUSH1 0x2 PUSH1 0x0 DUP7 PUSH20 0xFFFFFFFFFFFFFFFFFFFFFFFFFFFFFFFFFFFFFFFF AND PUSH20 0xFFFFFFFFFFFFFFFFFFFFFFFFFFFFFFFFFFFFFFFF AND DUP2 MSTORE PUSH1 0x20 ADD SWAP1 DUP2 MSTORE PUSH1 0x20 ADD PUSH1 0x0 KECCAK256 SLOAD LT ISZERO JUMPDEST DUP1 ISZERO PUSH2 0x97F JUMPI POP DUP2 PUSH1 0x3 PUSH1 0x0 DUP7 PUSH20 0xFFFFFFFFFFFFFFFFFFFFFFFFFFFFFFFFFFFFFFFF AND PUSH20 0xFFFFFFFFFFFFFFFFFFFFFFFFFFFFFFFFFFFFFFFF AND DUP2 MSTORE PUSH1 0x20 ADD SWAP1 DUP2 MSTORE PUSH1 0x20 ADD PUSH1 0x0 KECCAK256 PUSH1 0x0 CALLER PUSH20 0xFFFFFFFFFFFFFFFFFFFFFFFFFFFFFFFFFFFFFFFF AND PUSH20 0xFFFFFFFFFFFFFFFFFFFFFFFFFFFFFFFFFFFFFFFF AND DUP2 MSTORE PUSH1 0x20 ADD SWAP1 DUP2 MSTORE PUSH1 0x20 ADD PUSH1 0x0 KECCAK256 SLOAD LT ISZERO JUMPDEST DUP1 ISZERO PUSH2 0xA0A JUMPI POP PUSH1 0x2 PUSH1 0x0 DUP5 PUSH20 0xFFFFFFFFFFFFFFFFFFFFFFFFFFFFFFFFFFFFFFFF AND PUSH20 0xFFFFFFFFFFFFFFFFFFFFFFFFFFFFFFFFFFFFFFFF AND DUP2 MSTORE PUSH1 0x20 ADD SWAP1 DUP2 MSTORE PUSH1 0x20 ADD PUSH1 0x0 KECCAK256 SLOAD DUP3 PUSH1 0x2 PUSH1 0x0 DUP7 PUSH20 0xFFFFFFFFFFFFFFFFFFFFFFFFFFFFFFFFFFFFFFFF AND PUSH20 0xFFFFFFFFFFFFFFFFFFFFFFFFFFFFFFFFFFFFFFFF AND DUP2 MSTORE PUSH1 0x20 ADD SWAP1 DUP2 MSTORE PUSH1 0x20 ADD PUSH1 0x0 KECCAK256 SLOAD ADD GT JUMPDEST ISZERO PUSH2 0xBA1 JUMPI DUP2 PUSH1 0x2 PUSH1 0x0 DUP7 PUSH20 0xFFFFFFFFFFFFFFFFFFFFFFFFFFFFFFFFFFFFFFFF AND PUSH20 0xFFFFFFFFFFFFFFFFFFFFFFFFFFFFFFFFFFFFFFFF AND DUP2 MSTORE PUSH1 0x20 ADD SWAP1 DUP2 MSTORE PUSH1 0x20 ADD PUSH1 0x0 KECCAK256 PUSH1 0x0 DUP3 DUP3 SLOAD SUB SWAP3 POP POP DUP2 SWAP1 SSTORE POP DUP2 PUSH1 0x3 PUSH1 0x0 DUP7 PUSH20 0xFFFFFFFFFFFFFFFFFFFFFFFFFFFFFFFFFFFFFFFF AND PUSH20 0xFFFFFFFFFFFFFFFFFFFFFFFFFFFFFFFFFFFFFFFF AND DUP2 MSTORE PUSH1 0x20 ADD SWAP1 DUP2 MSTORE PUSH1 0x20 ADD PUSH1 0x0 KECCAK256 PUSH1 0x0 CALLER PUSH20 0xFFFFFFFFFFFFFFFFFFFFFFFFFFFFFFFFFFFFFFFF AND PUSH20 0xFFFFFFFFFFFFFFFFFFFFFFFFFFFFFFFFFFFFFFFF AND DUP2 MSTORE PUSH1 0x20 ADD SWAP1 DUP2 MSTORE PUSH1 0x20 ADD PUSH1 0x0 KECCAK256 PUSH1 0x0 DUP3 DUP3 SLOAD SUB SWAP3 POP POP DUP2 SWAP1 SSTORE POP DUP2 PUSH1 0x2 PUSH1 0x0 DUP6 PUSH20 0xFFFFFFFFFFFFFFFFFFFFFFFFFFFFFFFFFFFFFFFF AND PUSH20 0xFFFFFFFFFFFFFFFFFFFFFFFFFFFFFFFFFFFFFFFF AND DUP2 MSTORE PUSH1 0x20 ADD SWAP1 DUP2 MSTORE PUSH1 0x20 ADD PUSH1 0x0 KECCAK256 PUSH1 0x0 DUP3 DUP3 SLOAD ADD SWAP3 POP POP DUP2 SWAP1 SSTORE POP DUP3 PUSH20 0xFFFFFFFFFFFFFFFFFFFFFFFFFFFFFFFFFFFFFFFF AND DUP5 PUSH20 0xFFFFFFFFFFFFFFFFFFFFFFFFFFFFFFFFFFFFFFFF AND PUSH32 0xDDF252AD1BE2C89B69C2B068FC378DAA952BA7F163C4A11628F55A4DF523B3EF DUP5 PUSH1 0x40 MLOAD DUP1 DUP3 DUP2 MSTORE PUSH1 0x20 ADD SWAP2 POP POP PUSH1 0x40 MLOAD DUP1 SWAP2 SUB SWAP1 LOG3 PUSH1 0x1 SWAP1 POP PUSH2 0xBA6 JUMP JUMPDEST PUSH1 0x0 SWAP1 POP JUMPDEST SWAP4 SWAP3 POP POP POP JUMP JUMPDEST PUSH1 0x40 DUP1 MLOAD SWAP1 DUP2 ADD PUSH1 0x40 MSTORE DUP1 PUSH1 0x3 DUP2 MSTORE PUSH1 0x20 ADD PUSH32 0x5252540000000000000000000000000000000000000000000000000000000000 DUP2 MSTORE POP DUP2 JUMP JUMPDEST PUSH1 0x0 DUP2 JUMP JUMPDEST PUSH1 0x0 PUSH1 0x1 PUSH1 0x0 SWAP1 SLOAD SWAP1 PUSH2 0x100 EXP SWAP1 DIV PUSH20 0xFFFFFFFFFFFFFFFFFFFFFFFFFFFFFFFFFFFFFFFF AND PUSH20 0xFFFFFFFFFFFFFFFFFFFFFFFFFFFFFFFFFFFFFFFF AND CALLER PUSH20 0xFFFFFFFFFFFFFFFFFFFFFFFFFFFFFFFFFFFFFFFF AND EQ ISZERO ISZERO PUSH2 0xC49 JUMPI PUSH1 0x0 DUP1 REVERT JUMPDEST PUSH1 0x0 DUP3 GT DUP1 ISZERO PUSH2 0xC98 JUMPI POP DUP2 PUSH1 0x2 PUSH1 0x0 CALLER PUSH20 0xFFFFFFFFFFFFFFFFFFFFFFFFFFFFFFFFFFFFFFFF AND PUSH20 0xFFFFFFFFFFFFFFFFFFFFFFFFFFFFFFFFFFFFFFFF AND DUP2 MSTORE PUSH1 0x20 ADD SWAP1 DUP2 MSTORE PUSH1 0x20 ADD PUSH1 0x0 KECCAK256 SLOAD LT ISZERO JUMPDEST DUP1 ISZERO PUSH2 0xD23 JUMPI POP PUSH1 0x2 PUSH1 0x0 CALLER PUSH20 0xFFFFFFFFFFFFFFFFFFFFFFFFFFFFFFFFFFFFFFFF AND PUSH20 0xFFFFFFFFFFFFFFFFFFFFFFFFFFFFFFFFFFFFFFFF AND DUP2 MSTORE PUSH1 0x20 ADD SWAP1 DUP2 MSTORE PUSH1 0x20 ADD PUSH1 0x0 KECCAK256 SLOAD DUP3 PUSH1 0x2 PUSH1 0x0 CALLER PUSH20 0xFFFFFFFFFFFFFFFFFFFFFFFFFFFFFFFFFFFFFFFF AND PUSH20 0xFFFFFFFFFFFFFFFFFFFFFFFFFFFFFFFFFFFFFFFF AND DUP2 MSTORE PUSH1 0x20 ADD SWAP1 DUP2 MSTORE PUSH1 0x20 ADD PUSH1 0x0 KECCAK256 SLOAD SUB LT JUMPDEST ISZERO PUSH2 0xDE4 JUMPI DUP2 PUSH1 0x2 PUSH1 0x0 CALLER PUSH20 0xFFFFFFFFFFFFFFFFFFFFFFFFFFFFFFFFFFFFFFFF AND PUSH20 0xFFFFFFFFFFFFFFFFFFFFFFFFFFFFFFFFFFFFFFFF AND DUP2 MSTORE PUSH1 0x20 ADD SWAP1 DUP2 MSTORE PUSH1 0x20 ADD PUSH1 0x0 KECCAK256 PUSH1 0x0 DUP3 DUP3 SLOAD SUB SWAP3 POP POP DUP2 SWAP1 SSTORE POP PUSH1 0x0 PUSH20 0xFFFFFFFFFFFFFFFFFFFFFFFFFFFFFFFFFFFFFFFF AND CALLER PUSH20 0xFFFFFFFFFFFFFFFFFFFFFFFFFFFFFFFFFFFFFFFF AND PUSH32 0xDDF252AD1BE2C89B69C2B068FC378DAA952BA7F163C4A11628F55A4DF523B3EF DUP5 PUSH1 0x40 MLOAD DUP1 DUP3 DUP2 MSTORE PUSH1 0x20 ADD SWAP2 POP POP PUSH1 0x40 MLOAD DUP1 SWAP2 SUB SWAP1 LOG3 PUSH1 0x1 SWAP1 POP PUSH2 0xDE9 JUMP JUMPDEST PUSH1 0x0 SWAP1 POP JUMPDEST SWAP2 SWAP1 POP JUMP JUMPDEST PUSH1 0x0 PUSH1 0x2 PUSH1 0x0 DUP4 PUSH20 0xFFFFFFFFFFFFFFFFFFFFFFFFFFFFFFFFFFFFFFFF AND PUSH20 0xFFFFFFFFFFFFFFFFFFFFFFFFFFFFFFFFFFFFFFFF AND DUP2 MSTORE PUSH1 0x20 ADD SWAP1 DUP2 MSTORE PUSH1 0x20 ADD PUSH1 0x0 KECCAK256 SLOAD SWAP1 POP SWAP2 SWAP1 POP JUMP JUMPDEST PUSH1 0x1 PUSH1 0x0 SWAP1 SLOAD SWAP1 PUSH2 0x100 EXP SWAP1 DIV PUSH20 0xFFFFFFFFFFFFFFFFFFFFFFFFFFFFFFFFFFFFFFFF AND DUP2 JUMP JUMPDEST PUSH1 0x0 DUP1 DUP3 GT DUP1 ISZERO PUSH2 0xEAD JUMPI POP DUP2 PUSH1 0x2 PUSH1 0x0 CALLER PUSH20 0xFFFFFFFFFFFFFFFFFFFFFFFFFFFFFFFFFFFFFFFF AND PUSH20 0xFFFFFFFFFFFFFFFFFFFFFFFFFFFFFFFFFFFFFFFF AND DUP2 MSTORE PUSH1 0x20 ADD SWAP1 DUP2 MSTORE PUSH1 0x20 ADD PUSH1 0x0 KECCAK256 SLOAD LT ISZERO JUMPDEST DUP1 ISZERO PUSH2 0xF38 JUMPI POP PUSH1 0x2 PUSH1 0x0 DUP5 PUSH20 0xFFFFFFFFFFFFFFFFFFFFFFFFFFFFFFFFFFFFFFFF AND PUSH20 0xFFFFFFFFFFFFFFFFFFFFFFFFFFFFFFFFFFFFFFFF AND DUP2 MSTORE PUSH1 0x20 ADD SWAP1 DUP2 MSTORE PUSH1 0x20 ADD PUSH1 0x0 KECCAK256 SLOAD DUP3 PUSH1 0x2 PUSH1 0x0 DUP7 PUSH20 0xFFFFFFFFFFFFFFFFFFFFFFFFFFFFFFFFFFFFFFFF AND PUSH20 0xFFFFFFFFFFFFFFFFFFFFFFFFFFFFFFFFFFFFFFFF AND DUP2 MSTORE PUSH1 0x20 ADD SWAP1 DUP2 MSTORE PUSH1 0x20 ADD PUSH1 0x0 KECCAK256 SLOAD ADD GT JUMPDEST ISZERO PUSH2 0x1045 JUMPI DUP2 PUSH1 0x2 PUSH1 0x0 CALLER PUSH20 0xFFFFFFFFFFFFFFFFFFFFFFFFFFFFFFFFFFFFFFFF AND PUSH20 0xFFFFFFFFFFFFFFFFFFFFFFFFFFFFFFFFFFFFFFFF AND DUP2 MSTORE PUSH1 0x20 ADD SWAP1 DUP2 MSTORE PUSH1 0x20 ADD PUSH1 0x0 KECCAK256 PUSH1 0x0 DUP3 DUP3 SLOAD SUB SWAP3 POP POP DUP2 SWAP1 SSTORE POP DUP2 PUSH1 0x2 PUSH1 0x0 DUP6 PUSH20 0xFFFFFFFFFFFFFFFFFFFFFFFFFFFFFFFFFFFFFFFF AND PUSH20 0xFFFFFFFFFFFFFFFFFFFFFFFFFFFFFFFFFFFFFFFF AND DUP2 MSTORE PUSH1 0x20 ADD SWAP1 DUP2 MSTORE PUSH1 0x20 ADD PUSH1 0x0 KECCAK256 PUSH1 0x0 DUP3 DUP3 SLOAD ADD SWAP3 POP POP DUP2 SWAP1 SSTORE POP DUP3 PUSH20 0xFFFFFFFFFFFFFFFFFFFFFFFFFFFFFFFFFFFFFFFF AND CALLER PUSH20 0xFFFFFFFFFFFFFFFFFFFFFFFFFFFFFFFFFFFFFFFF AND PUSH32 0xDDF252AD1BE2C89B69C2B068FC378DAA952BA7F163C4A11628F55A4DF523B3EF DUP5 PUSH1 0x40 MLOAD DUP1 DUP3 DUP2 MSTORE PUSH1 0x20 ADD SWAP2 POP POP PUSH1 0x40 MLOAD DUP1 SWAP2 SUB SWAP1 LOG3 PUSH1 0x1 SWAP1 POP PUSH2 0x104A JUMP JUMPDEST PUSH1 0x0 SWAP1 POP JUMPDEST SWAP3 SWAP2 POP POP JUMP JUMPDEST PUSH1 0x0 ADDRESS PUSH20 0xFFFFFFFFFFFFFFFFFFFFFFFFFFFFFFFFFFFFFFFF AND BALANCE SWAP1 POP SWAP1 JUMP JUMPDEST PUSH1 0x0 PUSH1 0x3 PUSH1 0x0 DUP5 PUSH20 0xFFFFFFFFFFFFFFFFFFFFFFFFFFFFFFFFFFFFFFFF AND PUSH20 0xFFFFFFFFFFFFFFFFFFFFFFFFFFFFFFFFFFFFFFFF AND DUP2 MSTORE PUSH1 0x20 ADD SWAP1 DUP2 MSTORE PUSH1 0x20 ADD PUSH1 0x0 KECCAK256 PUSH1 0x0 DUP4 PUSH20 0xFFFFFFFFFFFFFFFFFFFFFFFFFFFFFFFFFFFFFFFF AND PUSH20 0xFFFFFFFFFFFFFFFFFFFFFFFFFFFFFFFFFFFFFFFF AND DUP2 MSTORE PUSH1 0x20 ADD SWAP1 DUP2 MSTORE PUSH1 0x20 ADD PUSH1 0x0 KECCAK256 SLOAD SWAP1 POP SWAP3 SWAP2 POP POP JUMP STOP LOG1 PUSH6 0x627A7A723058 KECCAK256 DUP3 PUSH13 0x7065BB4794246CD9234836EB1A 0x24 DUP13 PUSH25 0xB88D110CB718EB5E6E936B5762A90029000000000000000000 "
				},
				"gasEstimates": {
					"creation": {
						"codeDepositCost": "877200",
						"executionCost": "41188",
						"totalCost": "918388"
					},
					"external": {
						"": "61695",
						"allowance(address,address)": "948",
						"approve(address,uint256)": "22375",
						"balanceOf(address)": "735",
						"burn(uint256)": "23830",
						"contractETH()": "849",
						"decimals()": "338",
						"icoEnding()": "infinite",
						"name()": "infinite",
						"owner()": "640",
						"symble()": "infinite",
						"totalSupply()": "460",
						"transfer(address,uint256)": "43980",
						"transferFrom(address,address,uint256)": "64711"
					}
				},
				"methodIdentifiers": {
					"allowance(address,address)": "dd62ed3e",
					"approve(address,uint256)": "095ea7b3",
					"balanceOf(address)": "70a08231",
					"burn(uint256)": "42966c68",
					"contractETH()": "bbd316eb",
					"decimals()": "313ce567",
					"icoEnding()": "064e8684",
					"name()": "06fdde03",
					"owner()": "8da5cb5b",
					"symble()": "288152bb",
					"totalSupply()": "18160ddd",
					"transfer(address,uint256)": "a9059cbb",
					"transferFrom(address,address,uint256)": "23b872dd"
				}
			},
			"userdoc": {
				"methods": {}
			}
		}
	}
}