{
	"contracts/ERC20token.sol": {
		"ERC20token": {
			"abi": [
				{
					"inputs": [],
					"stateMutability": "nonpayable",
					"type": "constructor"
				},
				{
					"anonymous": false,
					"inputs": [
						{
							"indexed": true,
							"internalType": "address",
							"name": "_owner",
							"type": "address"
						},
						{
							"indexed": true,
							"internalType": "address",
							"name": "_spender",
							"type": "address"
						},
						{
							"indexed": false,
							"internalType": "uint256",
							"name": "_value",
							"type": "uint256"
						}
					],
					"name": "Approval",
					"type": "event"
				},
				{
					"anonymous": false,
					"inputs": [
						{
							"indexed": false,
							"internalType": "address",
							"name": "_sender",
							"type": "address"
						},
						{
							"indexed": false,
							"internalType": "uint256",
							"name": "_value",
							"type": "uint256"
						},
						{
							"indexed": false,
							"internalType": "string",
							"name": "_message",
							"type": "string"
						}
					],
					"name": "Received",
					"type": "event"
				},
				{
					"anonymous": false,
					"inputs": [
						{
							"indexed": true,
							"internalType": "address",
							"name": "_from",
							"type": "address"
						},
						{
							"indexed": true,
							"internalType": "address",
							"name": "_to",
							"type": "address"
						},
						{
							"indexed": false,
							"internalType": "uint256",
							"name": "_value",
							"type": "uint256"
						}
					],
					"name": "Transfer",
					"type": "event"
				},
				{
					"stateMutability": "payable",
					"type": "fallback"
				},
				{
					"inputs": [
						{
							"internalType": "address",
							"name": "_owner",
							"type": "address"
						},
						{
							"internalType": "address",
							"name": "_spender",
							"type": "address"
						}
					],
					"name": "allowance",
					"outputs": [
						{
							"internalType": "uint256",
							"name": "",
							"type": "uint256"
						}
					],
					"stateMutability": "view",
					"type": "function"
				},
				{
					"inputs": [
						{
							"internalType": "address",
							"name": "_spender",
							"type": "address"
						},
						{
							"internalType": "uint256",
							"name": "_amount",
							"type": "uint256"
						}
					],
					"name": "approve",
					"outputs": [
						{
							"internalType": "bool",
							"name": "",
							"type": "bool"
						}
					],
					"stateMutability": "nonpayable",
					"type": "function"
				},
				{
					"inputs": [
						{
							"internalType": "address",
							"name": "_owner",
							"type": "address"
						}
					],
					"name": "balanceOf",
					"outputs": [
						{
							"internalType": "uint256",
							"name": "",
							"type": "uint256"
						}
					],
					"stateMutability": "view",
					"type": "function"
				},
				{
					"inputs": [
						{
							"internalType": "uint256",
							"name": "_amount",
							"type": "uint256"
						}
					],
					"name": "burn",
					"outputs": [
						{
							"internalType": "bool",
							"name": "",
							"type": "bool"
						}
					],
					"stateMutability": "nonpayable",
					"type": "function"
				},
				{
					"inputs": [],
					"name": "contractETH",
					"outputs": [
						{
							"internalType": "uint256",
							"name": "",
							"type": "uint256"
						}
					],
					"stateMutability": "view",
					"type": "function"
				},
				{
					"inputs": [],
					"name": "decimals",
					"outputs": [
						{
							"internalType": "uint8",
							"name": "",
							"type": "uint8"
						}
					],
					"stateMutability": "view",
					"type": "function"
				},
				{
					"inputs": [],
					"name": "icoEnding",
					"outputs": [],
					"stateMutability": "nonpayable",
					"type": "function"
				},
				{
					"inputs": [],
					"name": "name",
					"outputs": [
						{
							"internalType": "string",
							"name": "",
							"type": "string"
						}
					],
					"stateMutability": "view",
					"type": "function"
				},
				{
					"inputs": [],
					"name": "owner",
					"outputs": [
						{
							"internalType": "address payable",
							"name": "",
							"type": "address"
						}
					],
					"stateMutability": "view",
					"type": "function"
				},
				{
					"inputs": [],
					"name": "symble",
					"outputs": [
						{
							"internalType": "string",
							"name": "",
							"type": "string"
						}
					],
					"stateMutability": "view",
					"type": "function"
				},
				{
					"inputs": [],
					"name": "totalSupply",
					"outputs": [
						{
							"internalType": "uint256",
							"name": "",
							"type": "uint256"
						}
					],
					"stateMutability": "view",
					"type": "function"
				},
				{
					"inputs": [
						{
							"internalType": "address",
							"name": "_to",
							"type": "address"
						},
						{
							"internalType": "uint256",
							"name": "_amount",
							"type": "uint256"
						}
					],
					"name": "transfer",
					"outputs": [
						{
							"internalType": "bool",
							"name": "",
							"type": "bool"
						}
					],
					"stateMutability": "nonpayable",
					"type": "function"
				},
				{
					"inputs": [
						{
							"internalType": "address",
							"name": "_from",
							"type": "address"
						},
						{
							"internalType": "address",
							"name": "_to",
							"type": "address"
						},
						{
							"internalType": "uint256",
							"name": "_amount",
							"type": "uint256"
						}
					],
					"name": "transferFrom",
					"outputs": [
						{
							"internalType": "bool",
							"name": "",
							"type": "bool"
						}
					],
					"stateMutability": "nonpayable",
					"type": "function"
				},
				{
					"stateMutability": "payable",
					"type": "receive"
				}
			],
			"devdoc": {
				"kind": "dev",
				"methods": {},
				"version": 1
			},
			"evm": {
				"assembly": "    /* \"contracts/ERC20token.sol\":66:5936  contract ERC20token {... */\n  mstore(0x40, 0x80)\n    /* \"contracts/ERC20token.sol\":361:369  10000000 */\n  0x989680\n    /* \"contracts/ERC20token.sol\":335:369  uint public totalSupply = 10000000 */\n  0x00\n  sstore\n    /* \"contracts/ERC20token.sol\":1360:1448  constructor() {... */\n  callvalue\n  dup1\n  iszero\n  tag_1\n  jumpi\n  0x00\n  dup1\n  revert\ntag_1:\n  pop\n    /* \"contracts/ERC20token.sol\":1399:1409  msg.sender */\n  caller\n    /* \"contracts/ERC20token.sol\":1385:1390  owner */\n  0x01\n  0x00\n    /* \"contracts/ERC20token.sol\":1385:1410  owner=payable(msg.sender) */\n  0x0100\n  exp\n  dup2\n  sload\n  dup2\n  0xffffffffffffffffffffffffffffffffffffffff\n  mul\n  not\n  and\n  swap1\n  dup4\n  0xffffffffffffffffffffffffffffffffffffffff\n  and\n  mul\n  or\n  swap1\n  sstore\n  pop\n    /* \"contracts/ERC20token.sol\":66:5936  contract ERC20token {... */\n  dataSize(sub_0)\n  dup1\n  dataOffset(sub_0)\n  0x00\n  codecopy\n  0x00\n  return\nstop\n\nsub_0: assembly {\n        /* \"contracts/ERC20token.sol\":66:5936  contract ERC20token {... */\n      mstore(0x40, 0x80)\n      jumpi(tag_1, lt(calldatasize, 0x04))\n      shr(0xe0, calldataload(0x00))\n      dup1\n      0x313ce567\n      gt\n      tag_16\n      jumpi\n      dup1\n      0x8da5cb5b\n      gt\n      tag_17\n      jumpi\n      dup1\n      0x8da5cb5b\n      eq\n      tag_12\n      jumpi\n      dup1\n      0xa9059cbb\n      eq\n      tag_13\n      jumpi\n      dup1\n      0xbbd316eb\n      eq\n      tag_14\n      jumpi\n      dup1\n      0xdd62ed3e\n      eq\n      tag_15\n      jumpi\n      jump(tag_2)\n    tag_17:\n      dup1\n      0x313ce567\n      eq\n      tag_9\n      jumpi\n      dup1\n      0x42966c68\n      eq\n      tag_10\n      jumpi\n      dup1\n      0x70a08231\n      eq\n      tag_11\n      jumpi\n      jump(tag_2)\n    tag_16:\n      dup1\n      0x064e8684\n      eq\n      tag_3\n      jumpi\n      dup1\n      0x06fdde03\n      eq\n      tag_4\n      jumpi\n      dup1\n      0x095ea7b3\n      eq\n      tag_5\n      jumpi\n      dup1\n      0x18160ddd\n      eq\n      tag_6\n      jumpi\n      dup1\n      0x23b872dd\n      eq\n      tag_7\n      jumpi\n      dup1\n      0x288152bb\n      eq\n      tag_8\n      jumpi\n      jump(tag_2)\n    tag_1:\n      jumpi(tag_2, calldatasize)\n        /* \"contracts/ERC20token.sol\":1765:1775  paytoken() */\n      tag_20\n        /* \"contracts/ERC20token.sol\":1765:1773  paytoken */\n      tag_21\n        /* \"contracts/ERC20token.sol\":1765:1775  paytoken() */\n      jump\t// in\n    tag_20:\n      pop\n        /* \"contracts/ERC20token.sol\":1813:1866  Received(msg.sender, msg.value, \"receive was called\") */\n      0x59e04c3f0d44b7caf6e8ef854b61d9a51cf1960d7a88ff6356cc5e946b4b5832\n        /* \"contracts/ERC20token.sol\":1822:1832  msg.sender */\n      caller\n        /* \"contracts/ERC20token.sol\":1834:1843  msg.value */\n      callvalue\n        /* \"contracts/ERC20token.sol\":1813:1866  Received(msg.sender, msg.value, \"receive was called\") */\n      mload(0x40)\n      tag_22\n      swap3\n      swap2\n      swap1\n      tag_23\n      jump\t// in\n    tag_22:\n      mload(0x40)\n      dup1\n      swap2\n      sub\n      swap1\n      log1\n        /* \"contracts/ERC20token.sol\":66:5936  contract ERC20token {... */\n      stop\n    tag_2:\n        /* \"contracts/ERC20token.sol\":1542:1552  paytoken() */\n      tag_26\n        /* \"contracts/ERC20token.sol\":1542:1550  paytoken */\n      tag_21\n        /* \"contracts/ERC20token.sol\":1542:1552  paytoken() */\n      jump\t// in\n    tag_26:\n      pop\n        /* \"contracts/ERC20token.sol\":1590:1644  Received(msg.sender, msg.value, \"fallback was called\") */\n      0x59e04c3f0d44b7caf6e8ef854b61d9a51cf1960d7a88ff6356cc5e946b4b5832\n        /* \"contracts/ERC20token.sol\":1599:1609  msg.sender */\n      caller\n        /* \"contracts/ERC20token.sol\":1611:1620  msg.value */\n      callvalue\n        /* \"contracts/ERC20token.sol\":1590:1644  Received(msg.sender, msg.value, \"fallback was called\") */\n      mload(0x40)\n      tag_27\n      swap3\n      swap2\n      swap1\n      tag_28\n      jump\t// in\n    tag_27:\n      mload(0x40)\n      dup1\n      swap2\n      sub\n      swap1\n      log1\n        /* \"contracts/ERC20token.sol\":66:5936  contract ERC20token {... */\n      stop\n        /* \"contracts/ERC20token.sol\":5257:5421  function icoEnding() public onlyOwner{          //結束ico... */\n    tag_3:\n      callvalue\n      dup1\n      iszero\n      tag_29\n      jumpi\n      0x00\n      dup1\n      revert\n    tag_29:\n      pop\n      tag_30\n      tag_31\n      jump\t// in\n    tag_30:\n      stop\n        /* \"contracts/ERC20token.sol\":93:134  string public constant name = \"RRT token\" */\n    tag_4:\n      callvalue\n      dup1\n      iszero\n      tag_32\n      jumpi\n      0x00\n      dup1\n      revert\n    tag_32:\n      pop\n      tag_33\n      tag_34\n      jump\t// in\n    tag_33:\n      mload(0x40)\n      tag_35\n      swap2\n      swap1\n      tag_36\n      jump\t// in\n    tag_35:\n      mload(0x40)\n      dup1\n      swap2\n      sub\n      swap1\n      return\n        /* \"contracts/ERC20token.sol\":4580:4919  function approve (address _spender, uint256 _amount) public returns(bool){... */\n    tag_5:\n      callvalue\n      dup1\n      iszero\n      tag_37\n      jumpi\n      0x00\n      dup1\n      revert\n    tag_37:\n      pop\n      tag_38\n      0x04\n      dup1\n      calldatasize\n      sub\n      dup2\n      add\n      swap1\n      tag_39\n      swap2\n      swap1\n      tag_40\n      jump\t// in\n    tag_39:\n      tag_41\n      jump\t// in\n    tag_38:\n      mload(0x40)\n      tag_42\n      swap2\n      swap1\n      tag_43\n      jump\t// in\n    tag_42:\n      mload(0x40)\n      dup1\n      swap2\n      sub\n      swap1\n      return\n        /* \"contracts/ERC20token.sol\":335:369  uint public totalSupply = 10000000 */\n    tag_6:\n      callvalue\n      dup1\n      iszero\n      tag_44\n      jumpi\n      0x00\n      dup1\n      revert\n    tag_44:\n      pop\n      tag_45\n      tag_46\n      jump\t// in\n    tag_45:\n      mload(0x40)\n      tag_47\n      swap2\n      swap1\n      tag_48\n      jump\t// in\n    tag_47:\n      mload(0x40)\n      dup1\n      swap2\n      sub\n      swap1\n      return\n        /* \"contracts/ERC20token.sol\":3628:4572  function transferFrom(address _from, address _to, uint256 _amount) public returns(bool){... */\n    tag_7:\n      callvalue\n      dup1\n      iszero\n      tag_49\n      jumpi\n      0x00\n      dup1\n      revert\n    tag_49:\n      pop\n      tag_50\n      0x04\n      dup1\n      calldatasize\n      sub\n      dup2\n      add\n      swap1\n      tag_51\n      swap2\n      swap1\n      tag_52\n      jump\t// in\n    tag_51:\n      tag_53\n      jump\t// in\n    tag_50:\n      mload(0x40)\n      tag_54\n      swap2\n      swap1\n      tag_43\n      jump\t// in\n    tag_54:\n      mload(0x40)\n      dup1\n      swap2\n      sub\n      swap1\n      return\n        /* \"contracts/ERC20token.sol\":183:220  string public constant symble = \"RRT\" */\n    tag_8:\n      callvalue\n      dup1\n      iszero\n      tag_55\n      jumpi\n      0x00\n      dup1\n      revert\n    tag_55:\n      pop\n      tag_56\n      tag_57\n      jump\t// in\n    tag_56:\n      mload(0x40)\n      tag_58\n      swap2\n      swap1\n      tag_36\n      jump\t// in\n    tag_58:\n      mload(0x40)\n      dup1\n      swap2\n      sub\n      swap1\n      return\n        /* \"contracts/ERC20token.sol\":258:292  uint8 public constant decimals = 0 */\n    tag_9:\n      callvalue\n      dup1\n      iszero\n      tag_59\n      jumpi\n      0x00\n      dup1\n      revert\n    tag_59:\n      pop\n      tag_60\n      tag_61\n      jump\t// in\n    tag_60:\n      mload(0x40)\n      tag_62\n      swap2\n      swap1\n      tag_63\n      jump\t// in\n    tag_62:\n      mload(0x40)\n      dup1\n      swap2\n      sub\n      swap1\n      return\n        /* \"contracts/ERC20token.sol\":5429:5933  function burn(uint256 _amount) public returns(bool){... */\n    tag_10:\n      callvalue\n      dup1\n      iszero\n      tag_64\n      jumpi\n      0x00\n      dup1\n      revert\n    tag_64:\n      pop\n      tag_65\n      0x04\n      dup1\n      calldatasize\n      sub\n      dup2\n      add\n      swap1\n      tag_66\n      swap2\n      swap1\n      tag_67\n      jump\t// in\n    tag_66:\n      tag_68\n      jump\t// in\n    tag_65:\n      mload(0x40)\n      tag_69\n      swap2\n      swap1\n      tag_43\n      jump\t// in\n    tag_69:\n      mload(0x40)\n      dup1\n      swap2\n      sub\n      swap1\n      return\n        /* \"contracts/ERC20token.sol\":2725:2873  function balanceOf(address _owner) public view returns (uint256){... */\n    tag_11:\n      callvalue\n      dup1\n      iszero\n      tag_70\n      jumpi\n      0x00\n      dup1\n      revert\n    tag_70:\n      pop\n      tag_71\n      0x04\n      dup1\n      calldatasize\n      sub\n      dup2\n      add\n      swap1\n      tag_72\n      swap2\n      swap1\n      tag_73\n      jump\t// in\n    tag_72:\n      tag_74\n      jump\t// in\n    tag_71:\n      mload(0x40)\n      tag_75\n      swap2\n      swap1\n      tag_48\n      jump\t// in\n    tag_75:\n      mload(0x40)\n      dup1\n      swap2\n      sub\n      swap1\n      return\n        /* \"contracts/ERC20token.sol\":410:438  address payable public owner */\n    tag_12:\n      callvalue\n      dup1\n      iszero\n      tag_76\n      jumpi\n      0x00\n      dup1\n      revert\n    tag_76:\n      pop\n      tag_77\n      tag_78\n      jump\t// in\n    tag_77:\n      mload(0x40)\n      tag_79\n      swap2\n      swap1\n      tag_80\n      jump\t// in\n    tag_79:\n      mload(0x40)\n      dup1\n      swap2\n      sub\n      swap1\n      return\n        /* \"contracts/ERC20token.sol\":2881:3620  function transfer(address _to, uint _amount)public returns(bool){... */\n    tag_13:\n      callvalue\n      dup1\n      iszero\n      tag_81\n      jumpi\n      0x00\n      dup1\n      revert\n    tag_81:\n      pop\n      tag_82\n      0x04\n      dup1\n      calldatasize\n      sub\n      dup2\n      add\n      swap1\n      tag_83\n      swap2\n      swap1\n      tag_40\n      jump\t// in\n    tag_83:\n      tag_84\n      jump\t// in\n    tag_82:\n      mload(0x40)\n      tag_85\n      swap2\n      swap1\n      tag_43\n      jump\t// in\n    tag_85:\n      mload(0x40)\n      dup1\n      swap2\n      sub\n      swap1\n      return\n        /* \"contracts/ERC20token.sol\":5109:5249  function contractETH() public view returns (uint256){... */\n    tag_14:\n      callvalue\n      dup1\n      iszero\n      tag_86\n      jumpi\n      0x00\n      dup1\n      revert\n    tag_86:\n      pop\n      tag_87\n      tag_88\n      jump\t// in\n    tag_87:\n      mload(0x40)\n      tag_89\n      swap2\n      swap1\n      tag_48\n      jump\t// in\n    tag_89:\n      mload(0x40)\n      dup1\n      swap2\n      sub\n      swap1\n      return\n        /* \"contracts/ERC20token.sol\":4927:5101  function allowance (address _owner, address _spender) public view returns(uint256){... */\n    tag_15:\n      callvalue\n      dup1\n      iszero\n      tag_90\n      jumpi\n      0x00\n      dup1\n      revert\n    tag_90:\n      pop\n      tag_91\n      0x04\n      dup1\n      calldatasize\n      sub\n      dup2\n      add\n      swap1\n      tag_92\n      swap2\n      swap1\n      tag_93\n      jump\t// in\n    tag_92:\n      tag_94\n      jump\t// in\n    tag_91:\n      mload(0x40)\n      tag_95\n      swap2\n      swap1\n      tag_48\n      jump\t// in\n    tag_95:\n      mload(0x40)\n      dup1\n      swap2\n      sub\n      swap1\n      return\n        /* \"contracts/ERC20token.sol\":1902:2717  function paytoken() private returns(bool){... */\n    tag_21:\n        /* \"contracts/ERC20token.sol\":1938:1942  bool */\n      0x00\n        /* \"contracts/ERC20token.sol\":1971:1972  0 */\n      dup1\n        /* \"contracts/ERC20token.sol\":1957:1968  totalSupply */\n      sload(0x00)\n        /* \"contracts/ERC20token.sol\":1957:1972  totalSupply > 0 */\n      gt\n        /* \"contracts/ERC20token.sol\":1957:2054  totalSupply > 0                      //確定發行額足夠... */\n      dup1\n      iszero\n      tag_97\n      jumpi\n      pop\n        /* \"contracts/ERC20token.sol\":2053:2054  0 */\n      0x00\n        /* \"contracts/ERC20token.sol\":2030:2038  balances */\n      0x02\n        /* \"contracts/ERC20token.sol\":2030:2050  balances[msg.sender] */\n      0x00\n        /* \"contracts/ERC20token.sol\":2039:2049  msg.sender */\n      caller\n        /* \"contracts/ERC20token.sol\":2030:2050  balances[msg.sender] */\n      0xffffffffffffffffffffffffffffffffffffffff\n      and\n      0xffffffffffffffffffffffffffffffffffffffff\n      and\n      dup2\n      mstore\n      0x20\n      add\n      swap1\n      dup2\n      mstore\n      0x20\n      add\n      0x00\n      keccak256\n      sload\n        /* \"contracts/ERC20token.sol\":2030:2054  balances[msg.sender] ==0 */\n      eq\n        /* \"contracts/ERC20token.sol\":1957:2054  totalSupply > 0                      //確定發行額足夠... */\n    tag_97:\n        /* \"contracts/ERC20token.sol\":1957:2127  totalSupply > 0                      //確定發行額足夠... */\n      dup1\n      iszero\n      tag_98\n      jumpi\n      pop\n        /* \"contracts/ERC20token.sol\":2116:2127  0.001 ether */\n      0x038d7ea4c68000\n        /* \"contracts/ERC20token.sol\":2103:2112  msg.value */\n      callvalue\n        /* \"contracts/ERC20token.sol\":2103:2127  msg.value == 0.001 ether */\n      eq\n        /* \"contracts/ERC20token.sol\":1957:2127  totalSupply > 0                      //確定發行額足夠... */\n    tag_98:\n        /* \"contracts/ERC20token.sol\":1957:2200  totalSupply > 0                      //確定發行額足夠... */\n      dup1\n      iszero\n      tag_99\n      jumpi\n      pop\n        /* \"contracts/ERC20token.sol\":2196:2200  1000 */\n      0x03e8\n        /* \"contracts/ERC20token.sol\":2173:2181  complete */\n      0x04\n        /* \"contracts/ERC20token.sol\":2173:2193  complete[msg.sender] */\n      0x00\n        /* \"contracts/ERC20token.sol\":2182:2192  msg.sender */\n      caller\n        /* \"contracts/ERC20token.sol\":2173:2193  complete[msg.sender] */\n      0xffffffffffffffffffffffffffffffffffffffff\n      and\n      0xffffffffffffffffffffffffffffffffffffffff\n      and\n      dup2\n      mstore\n      0x20\n      add\n      swap1\n      dup2\n      mstore\n      0x20\n      add\n      0x00\n      keccak256\n      sload\n        /* \"contracts/ERC20token.sol\":2173:2200  complete[msg.sender] < 1000 */\n      lt\n        /* \"contracts/ERC20token.sol\":1957:2200  totalSupply > 0                      //確定發行額足夠... */\n    tag_99:\n        /* \"contracts/ERC20token.sol\":1954:2710  if(totalSupply > 0                      //確定發行額足夠... */\n      iszero\n      tag_100\n      jumpi\n        /* \"contracts/ERC20token.sol\":2271:2275  1000 */\n      0x03e8\n        /* \"contracts/ERC20token.sol\":2256:2267  totalSupply */\n      0x00\n      dup1\n        /* \"contracts/ERC20token.sol\":2256:2275  totalSupply -= 1000 */\n      dup3\n      dup3\n      sload\n      tag_101\n      swap2\n      swap1\n      tag_102\n      jump\t// in\n    tag_101:\n      swap3\n      pop\n      pop\n      dup2\n      swap1\n      sstore\n      pop\n        /* \"contracts/ERC20token.sol\":2370:2374  1000 */\n      0x03e8\n        /* \"contracts/ERC20token.sol\":2347:2355  balances */\n      0x02\n        /* \"contracts/ERC20token.sol\":2347:2367  balances[msg.sender] */\n      0x00\n        /* \"contracts/ERC20token.sol\":2356:2366  msg.sender */\n      caller\n        /* \"contracts/ERC20token.sol\":2347:2367  balances[msg.sender] */\n      0xffffffffffffffffffffffffffffffffffffffff\n      and\n      0xffffffffffffffffffffffffffffffffffffffff\n      and\n      dup2\n      mstore\n      0x20\n      add\n      swap1\n      dup2\n      mstore\n      0x20\n      add\n      0x00\n      keccak256\n        /* \"contracts/ERC20token.sol\":2347:2374  balances[msg.sender] = 1000 */\n      dup2\n      swap1\n      sstore\n      pop\n        /* \"contracts/ERC20token.sol\":2458:2462  1000 */\n      0x03e8\n        /* \"contracts/ERC20token.sol\":2435:2443  complete */\n      0x04\n        /* \"contracts/ERC20token.sol\":2435:2455  complete[msg.sender] */\n      0x00\n        /* \"contracts/ERC20token.sol\":2444:2454  msg.sender */\n      caller\n        /* \"contracts/ERC20token.sol\":2435:2455  complete[msg.sender] */\n      0xffffffffffffffffffffffffffffffffffffffff\n      and\n      0xffffffffffffffffffffffffffffffffffffffff\n      and\n      dup2\n      mstore\n      0x20\n      add\n      swap1\n      dup2\n      mstore\n      0x20\n      add\n      0x00\n      keccak256\n        /* \"contracts/ERC20token.sol\":2435:2462  complete[msg.sender] = 1000 */\n      dup2\n      swap1\n      sstore\n      pop\n        /* \"contracts/ERC20token.sol\":2549:2559  msg.sender */\n      caller\n        /* \"contracts/ERC20token.sol\":2525:2566  Transfer(address(this), msg.sender, 1000) */\n      0xffffffffffffffffffffffffffffffffffffffff\n      and\n        /* \"contracts/ERC20token.sol\":2542:2546  this */\n      address\n        /* \"contracts/ERC20token.sol\":2525:2566  Transfer(address(this), msg.sender, 1000) */\n      0xffffffffffffffffffffffffffffffffffffffff\n      and\n      0xddf252ad1be2c89b69c2b068fc378daa952ba7f163c4a11628f55a4df523b3ef\n        /* \"contracts/ERC20token.sol\":2561:2565  1000 */\n      0x03e8\n        /* \"contracts/ERC20token.sol\":2525:2566  Transfer(address(this), msg.sender, 1000) */\n      mload(0x40)\n      tag_103\n      swap2\n      swap1\n      tag_104\n      jump\t// in\n    tag_103:\n      mload(0x40)\n      dup1\n      swap2\n      sub\n      swap1\n      log3\n        /* \"contracts/ERC20token.sol\":2616:2620  true */\n      0x01\n        /* \"contracts/ERC20token.sol\":2609:2620  return true */\n      swap1\n      pop\n      jump(tag_96)\n        /* \"contracts/ERC20token.sol\":1954:2710  if(totalSupply > 0                      //確定發行額足夠... */\n    tag_100:\n        /* \"contracts/ERC20token.sol\":2652:2660  revert() */\n      0x00\n      dup1\n      revert\n        /* \"contracts/ERC20token.sol\":1902:2717  function paytoken() private returns(bool){... */\n    tag_96:\n      swap1\n      jump\t// out\n        /* \"contracts/ERC20token.sol\":5257:5421  function icoEnding() public onlyOwner{          //結束ico... */\n    tag_31:\n        /* \"contracts/ERC20token.sol\":1180:1185  owner */\n      0x01\n      0x00\n      swap1\n      sload\n      swap1\n      0x0100\n      exp\n      swap1\n      div\n      0xffffffffffffffffffffffffffffffffffffffff\n      and\n        /* \"contracts/ERC20token.sol\":1166:1185  msg.sender != owner */\n      0xffffffffffffffffffffffffffffffffffffffff\n      and\n        /* \"contracts/ERC20token.sol\":1166:1176  msg.sender */\n      caller\n        /* \"contracts/ERC20token.sol\":1166:1185  msg.sender != owner */\n      0xffffffffffffffffffffffffffffffffffffffff\n      and\n      eq\n        /* \"contracts/ERC20token.sol\":1163:1298  if(msg.sender != owner){    //僅限合約建構者使用... */\n      tag_107\n      jumpi\n        /* \"contracts/ERC20token.sol\":1234:1242  revert() */\n      0x00\n      dup1\n      revert\n        /* \"contracts/ERC20token.sol\":1163:1298  if(msg.sender != owner){    //僅限合約建構者使用... */\n    tag_107:\n        /* \"contracts/ERC20token.sol\":5326:5331  owner */\n      0x01\n      0x00\n      swap1\n      sload\n      swap1\n      0x0100\n      exp\n      swap1\n      div\n      0xffffffffffffffffffffffffffffffffffffffff\n      and\n        /* \"contracts/ERC20token.sol\":5326:5340  owner.transfer */\n      0xffffffffffffffffffffffffffffffffffffffff\n      and\n        /* \"contracts/ERC20token.sol\":5326:5363  owner.transfer(address(this).balance) */\n      0x08fc\n        /* \"contracts/ERC20token.sol\":5341:5362  address(this).balance */\n      selfbalance\n        /* \"contracts/ERC20token.sol\":5326:5363  owner.transfer(address(this).balance) */\n      swap1\n      dup2\n      iszero\n      mul\n      swap1\n      mload(0x40)\n      0x00\n      mload(0x40)\n      dup1\n      dup4\n      sub\n      dup2\n      dup6\n      dup9\n      dup9\n      call\n      swap4\n      pop\n      pop\n      pop\n      pop\n      iszero\n      dup1\n      iszero\n      tag_110\n      jumpi\n      returndatasize\n      0x00\n      dup1\n      returndatacopy\n      revert(0x00, returndatasize)\n    tag_110:\n      pop\n        /* \"contracts/ERC20token.sol\":5257:5421  function icoEnding() public onlyOwner{          //結束ico... */\n      jump\t// out\n        /* \"contracts/ERC20token.sol\":93:134  string public constant name = \"RRT token\" */\n    tag_34:\n      mload(0x40)\n      dup1\n      0x40\n      add\n      0x40\n      mstore\n      dup1\n      0x09\n      dup2\n      mstore\n      0x20\n      add\n      0x52525420746f6b656e0000000000000000000000000000000000000000000000\n      dup2\n      mstore\n      pop\n      dup2\n      jump\t// out\n        /* \"contracts/ERC20token.sol\":4580:4919  function approve (address _spender, uint256 _amount) public returns(bool){... */\n    tag_41:\n        /* \"contracts/ERC20token.sol\":4648:4652  bool */\n      0x00\n        /* \"contracts/ERC20token.sol\":4696:4703  _amount */\n      dup2\n        /* \"contracts/ERC20token.sol\":4664:4671  allowed */\n      0x03\n        /* \"contracts/ERC20token.sol\":4664:4683  allowed[msg.sender] */\n      0x00\n        /* \"contracts/ERC20token.sol\":4672:4682  msg.sender */\n      caller\n        /* \"contracts/ERC20token.sol\":4664:4683  allowed[msg.sender] */\n      0xffffffffffffffffffffffffffffffffffffffff\n      and\n      0xffffffffffffffffffffffffffffffffffffffff\n      and\n      dup2\n      mstore\n      0x20\n      add\n      swap1\n      dup2\n      mstore\n      0x20\n      add\n      0x00\n      keccak256\n        /* \"contracts/ERC20token.sol\":4664:4693  allowed[msg.sender][_spender] */\n      0x00\n        /* \"contracts/ERC20token.sol\":4684:4692  _spender */\n      dup6\n        /* \"contracts/ERC20token.sol\":4664:4693  allowed[msg.sender][_spender] */\n      0xffffffffffffffffffffffffffffffffffffffff\n      and\n      0xffffffffffffffffffffffffffffffffffffffff\n      and\n      dup2\n      mstore\n      0x20\n      add\n      swap1\n      dup2\n      mstore\n      0x20\n      add\n      0x00\n      keccak256\n        /* \"contracts/ERC20token.sol\":4664:4703  allowed[msg.sender][_spender] = _amount */\n      dup2\n      swap1\n      sstore\n      pop\n        /* \"contracts/ERC20token.sol\":4802:4810  _spender */\n      dup3\n        /* \"contracts/ERC20token.sol\":4781:4820  Approval(msg.sender, _spender, _amount) */\n      0xffffffffffffffffffffffffffffffffffffffff\n      and\n        /* \"contracts/ERC20token.sol\":4790:4800  msg.sender */\n      caller\n        /* \"contracts/ERC20token.sol\":4781:4820  Approval(msg.sender, _spender, _amount) */\n      0xffffffffffffffffffffffffffffffffffffffff\n      and\n      0x8c5be1e5ebec7d5bd14f71427d1e84f3dd0314c0f7b2291e5b200ac8c7c3b925\n        /* \"contracts/ERC20token.sol\":4812:4819  _amount */\n      dup5\n        /* \"contracts/ERC20token.sol\":4781:4820  Approval(msg.sender, _spender, _amount) */\n      mload(0x40)\n      tag_112\n      swap2\n      swap1\n      tag_48\n      jump\t// in\n    tag_112:\n      mload(0x40)\n      dup1\n      swap2\n      sub\n      swap1\n      log3\n        /* \"contracts/ERC20token.sol\":4907:4911  true */\n      0x01\n        /* \"contracts/ERC20token.sol\":4900:4911  return true */\n      swap1\n      pop\n        /* \"contracts/ERC20token.sol\":4580:4919  function approve (address _spender, uint256 _amount) public returns(bool){... */\n      swap3\n      swap2\n      pop\n      pop\n      jump\t// out\n        /* \"contracts/ERC20token.sol\":335:369  uint public totalSupply = 10000000 */\n    tag_46:\n      sload(0x00)\n      dup2\n      jump\t// out\n        /* \"contracts/ERC20token.sol\":3628:4572  function transferFrom(address _from, address _to, uint256 _amount) public returns(bool){... */\n    tag_53:\n        /* \"contracts/ERC20token.sol\":3710:3714  bool */\n      0x00\n        /* \"contracts/ERC20token.sol\":3740:3741  0 */\n      dup1\n        /* \"contracts/ERC20token.sol\":3730:3737  _amount */\n      dup3\n        /* \"contracts/ERC20token.sol\":3730:3741  _amount > 0 */\n      gt\n        /* \"contracts/ERC20token.sol\":3730:3811  _amount > 0         //檢測發送數量>0... */\n      dup1\n      iszero\n      tag_114\n      jumpi\n      pop\n        /* \"contracts/ERC20token.sol\":3804:3811  _amount */\n      dup2\n        /* \"contracts/ERC20token.sol\":3785:3793  balances */\n      0x02\n        /* \"contracts/ERC20token.sol\":3785:3800  balances[_from] */\n      0x00\n        /* \"contracts/ERC20token.sol\":3794:3799  _from */\n      dup7\n        /* \"contracts/ERC20token.sol\":3785:3800  balances[_from] */\n      0xffffffffffffffffffffffffffffffffffffffff\n      and\n      0xffffffffffffffffffffffffffffffffffffffff\n      and\n      dup2\n      mstore\n      0x20\n      add\n      swap1\n      dup2\n      mstore\n      0x20\n      add\n      0x00\n      keccak256\n      sload\n        /* \"contracts/ERC20token.sol\":3785:3811  balances[_from] >= _amount */\n      lt\n      iszero\n        /* \"contracts/ERC20token.sol\":3730:3811  _amount > 0         //檢測發送數量>0... */\n    tag_114:\n        /* \"contracts/ERC20token.sol\":3730:3909  _amount > 0         //檢測發送數量>0... */\n      dup1\n      iszero\n      tag_115\n      jumpi\n      pop\n        /* \"contracts/ERC20token.sol\":3902:3909  _amount */\n      dup2\n        /* \"contracts/ERC20token.sol\":3872:3879  allowed */\n      0x03\n        /* \"contracts/ERC20token.sol\":3872:3886  allowed[_from] */\n      0x00\n        /* \"contracts/ERC20token.sol\":3880:3885  _from */\n      dup7\n        /* \"contracts/ERC20token.sol\":3872:3886  allowed[_from] */\n      0xffffffffffffffffffffffffffffffffffffffff\n      and\n      0xffffffffffffffffffffffffffffffffffffffff\n      and\n      dup2\n      mstore\n      0x20\n      add\n      swap1\n      dup2\n      mstore\n      0x20\n      add\n      0x00\n      keccak256\n        /* \"contracts/ERC20token.sol\":3872:3898  allowed[_from][msg.sender] */\n      0x00\n        /* \"contracts/ERC20token.sol\":3887:3897  msg.sender */\n      caller\n        /* \"contracts/ERC20token.sol\":3872:3898  allowed[_from][msg.sender] */\n      0xffffffffffffffffffffffffffffffffffffffff\n      and\n      0xffffffffffffffffffffffffffffffffffffffff\n      and\n      dup2\n      mstore\n      0x20\n      add\n      swap1\n      dup2\n      mstore\n      0x20\n      add\n      0x00\n      keccak256\n      sload\n        /* \"contracts/ERC20token.sol\":3872:3909  allowed[_from][msg.sender] >= _amount */\n      lt\n      iszero\n        /* \"contracts/ERC20token.sol\":3730:3909  _amount > 0         //檢測發送數量>0... */\n    tag_115:\n        /* \"contracts/ERC20token.sol\":3730:4051  _amount > 0         //檢測發送數量>0... */\n      dup1\n      iszero\n      tag_116\n      jumpi\n      pop\n        /* \"contracts/ERC20token.sol\":4038:4046  balances */\n      0x02\n        /* \"contracts/ERC20token.sol\":4038:4051  balances[_to] */\n      0x00\n        /* \"contracts/ERC20token.sol\":4047:4050  _to */\n      dup5\n        /* \"contracts/ERC20token.sol\":4038:4051  balances[_to] */\n      0xffffffffffffffffffffffffffffffffffffffff\n      and\n      0xffffffffffffffffffffffffffffffffffffffff\n      and\n      dup2\n      mstore\n      0x20\n      add\n      swap1\n      dup2\n      mstore\n      0x20\n      add\n      0x00\n      keccak256\n      sload\n        /* \"contracts/ERC20token.sol\":4028:4035  _amount */\n      dup3\n        /* \"contracts/ERC20token.sol\":4012:4020  balances */\n      0x02\n        /* \"contracts/ERC20token.sol\":4012:4025  balances[_to] */\n      0x00\n        /* \"contracts/ERC20token.sol\":4021:4024  _to */\n      dup7\n        /* \"contracts/ERC20token.sol\":4012:4025  balances[_to] */\n      0xffffffffffffffffffffffffffffffffffffffff\n      and\n      0xffffffffffffffffffffffffffffffffffffffff\n      and\n      dup2\n      mstore\n      0x20\n      add\n      swap1\n      dup2\n      mstore\n      0x20\n      add\n      0x00\n      keccak256\n      sload\n        /* \"contracts/ERC20token.sol\":4012:4035  balances[_to] + _amount */\n      tag_117\n      swap2\n      swap1\n      tag_118\n      jump\t// in\n    tag_117:\n        /* \"contracts/ERC20token.sol\":4012:4051  balances[_to] + _amount > balances[_to] */\n      gt\n        /* \"contracts/ERC20token.sol\":3730:4051  _amount > 0         //檢測發送數量>0... */\n    tag_116:\n        /* \"contracts/ERC20token.sol\":3726:4565  if (_amount > 0         //檢測發送數量>0... */\n      iszero\n      tag_119\n      jumpi\n        /* \"contracts/ERC20token.sol\":4123:4130  _amount */\n      dup2\n        /* \"contracts/ERC20token.sol\":4104:4112  balances */\n      0x02\n        /* \"contracts/ERC20token.sol\":4104:4119  balances[_from] */\n      0x00\n        /* \"contracts/ERC20token.sol\":4113:4118  _from */\n      dup7\n        /* \"contracts/ERC20token.sol\":4104:4119  balances[_from] */\n      0xffffffffffffffffffffffffffffffffffffffff\n      and\n      0xffffffffffffffffffffffffffffffffffffffff\n      and\n      dup2\n      mstore\n      0x20\n      add\n      swap1\n      dup2\n      mstore\n      0x20\n      add\n      0x00\n      keccak256\n      0x00\n        /* \"contracts/ERC20token.sol\":4104:4130  balances[_from] -= _amount */\n      dup3\n      dup3\n      sload\n      tag_120\n      swap2\n      swap1\n      tag_102\n      jump\t// in\n    tag_120:\n      swap3\n      pop\n      pop\n      dup2\n      swap1\n      sstore\n      pop\n        /* \"contracts/ERC20token.sol\":4209:4216  _amount */\n      dup2\n        /* \"contracts/ERC20token.sol\":4179:4186  allowed */\n      0x03\n        /* \"contracts/ERC20token.sol\":4179:4193  allowed[_from] */\n      0x00\n        /* \"contracts/ERC20token.sol\":4187:4192  _from */\n      dup7\n        /* \"contracts/ERC20token.sol\":4179:4193  allowed[_from] */\n      0xffffffffffffffffffffffffffffffffffffffff\n      and\n      0xffffffffffffffffffffffffffffffffffffffff\n      and\n      dup2\n      mstore\n      0x20\n      add\n      swap1\n      dup2\n      mstore\n      0x20\n      add\n      0x00\n      keccak256\n        /* \"contracts/ERC20token.sol\":4179:4205  allowed[_from][msg.sender] */\n      0x00\n        /* \"contracts/ERC20token.sol\":4194:4204  msg.sender */\n      caller\n        /* \"contracts/ERC20token.sol\":4179:4205  allowed[_from][msg.sender] */\n      0xffffffffffffffffffffffffffffffffffffffff\n      and\n      0xffffffffffffffffffffffffffffffffffffffff\n      and\n      dup2\n      mstore\n      0x20\n      add\n      swap1\n      dup2\n      mstore\n      0x20\n      add\n      0x00\n      keccak256\n      0x00\n        /* \"contracts/ERC20token.sol\":4179:4216  allowed[_from][msg.sender] -= _amount */\n      dup3\n      dup3\n      sload\n      tag_121\n      swap2\n      swap1\n      tag_102\n      jump\t// in\n    tag_121:\n      swap3\n      pop\n      pop\n      dup2\n      swap1\n      sstore\n      pop\n        /* \"contracts/ERC20token.sol\":4280:4287  _amount */\n      dup2\n        /* \"contracts/ERC20token.sol\":4263:4271  balances */\n      0x02\n        /* \"contracts/ERC20token.sol\":4263:4276  balances[_to] */\n      0x00\n        /* \"contracts/ERC20token.sol\":4272:4275  _to */\n      dup6\n        /* \"contracts/ERC20token.sol\":4263:4276  balances[_to] */\n      0xffffffffffffffffffffffffffffffffffffffff\n      and\n      0xffffffffffffffffffffffffffffffffffffffff\n      and\n      dup2\n      mstore\n      0x20\n      add\n      swap1\n      dup2\n      mstore\n      0x20\n      add\n      0x00\n      keccak256\n      0x00\n        /* \"contracts/ERC20token.sol\":4263:4287  balances[_to] += _amount */\n      dup3\n      dup3\n      sload\n      tag_122\n      swap2\n      swap1\n      tag_118\n      jump\t// in\n    tag_122:\n      swap3\n      pop\n      pop\n      dup2\n      swap1\n      sstore\n      pop\n        /* \"contracts/ERC20token.sol\":4365:4368  _to */\n      dup3\n        /* \"contracts/ERC20token.sol\":4349:4378  Transfer(_from, _to, _amount) */\n      0xffffffffffffffffffffffffffffffffffffffff\n      and\n        /* \"contracts/ERC20token.sol\":4358:4363  _from */\n      dup5\n        /* \"contracts/ERC20token.sol\":4349:4378  Transfer(_from, _to, _amount) */\n      0xffffffffffffffffffffffffffffffffffffffff\n      and\n      0xddf252ad1be2c89b69c2b068fc378daa952ba7f163c4a11628f55a4df523b3ef\n        /* \"contracts/ERC20token.sol\":4370:4377  _amount */\n      dup5\n        /* \"contracts/ERC20token.sol\":4349:4378  Transfer(_from, _to, _amount) */\n      mload(0x40)\n      tag_123\n      swap2\n      swap1\n      tag_48\n      jump\t// in\n    tag_123:\n      mload(0x40)\n      dup1\n      swap2\n      sub\n      swap1\n      log3\n        /* \"contracts/ERC20token.sol\":4448:4452  true */\n      0x01\n        /* \"contracts/ERC20token.sol\":4441:4452  return true */\n      swap1\n      pop\n      jump(tag_113)\n        /* \"contracts/ERC20token.sol\":3726:4565  if (_amount > 0         //檢測發送數量>0... */\n    tag_119:\n        /* \"contracts/ERC20token.sol\":4548:4553  false */\n      0x00\n        /* \"contracts/ERC20token.sol\":4541:4553  return false */\n      swap1\n      pop\n        /* \"contracts/ERC20token.sol\":3628:4572  function transferFrom(address _from, address _to, uint256 _amount) public returns(bool){... */\n    tag_113:\n      swap4\n      swap3\n      pop\n      pop\n      pop\n      jump\t// out\n        /* \"contracts/ERC20token.sol\":183:220  string public constant symble = \"RRT\" */\n    tag_57:\n      mload(0x40)\n      dup1\n      0x40\n      add\n      0x40\n      mstore\n      dup1\n      0x03\n      dup2\n      mstore\n      0x20\n      add\n      0x5252540000000000000000000000000000000000000000000000000000000000\n      dup2\n      mstore\n      pop\n      dup2\n      jump\t// out\n        /* \"contracts/ERC20token.sol\":258:292  uint8 public constant decimals = 0 */\n    tag_61:\n        /* \"contracts/ERC20token.sol\":291:292  0 */\n      0x00\n        /* \"contracts/ERC20token.sol\":258:292  uint8 public constant decimals = 0 */\n      dup2\n      jump\t// out\n        /* \"contracts/ERC20token.sol\":5429:5933  function burn(uint256 _amount) public returns(bool){... */\n    tag_68:\n        /* \"contracts/ERC20token.sol\":5475:5479  bool */\n      0x00\n        /* \"contracts/ERC20token.sol\":5504:5505  0 */\n      dup1\n        /* \"contracts/ERC20token.sol\":5494:5501  _amount */\n      dup3\n        /* \"contracts/ERC20token.sol\":5494:5505  _amount > 0 */\n      gt\n        /* \"contracts/ERC20token.sol\":5494:5576  _amount > 0     //確定銷毀數量>0... */\n      dup1\n      iszero\n      tag_126\n      jumpi\n      pop\n        /* \"contracts/ERC20token.sol\":5569:5576  _amount */\n      dup2\n        /* \"contracts/ERC20token.sol\":5545:5553  balances */\n      0x02\n        /* \"contracts/ERC20token.sol\":5545:5565  balances[msg.sender] */\n      0x00\n        /* \"contracts/ERC20token.sol\":5554:5564  msg.sender */\n      caller\n        /* \"contracts/ERC20token.sol\":5545:5565  balances[msg.sender] */\n      0xffffffffffffffffffffffffffffffffffffffff\n      and\n      0xffffffffffffffffffffffffffffffffffffffff\n      and\n      dup2\n      mstore\n      0x20\n      add\n      swap1\n      dup2\n      mstore\n      0x20\n      add\n      0x00\n      keccak256\n      sload\n        /* \"contracts/ERC20token.sol\":5545:5576  balances[msg.sender] >= _amount */\n      lt\n      iszero\n        /* \"contracts/ERC20token.sol\":5494:5576  _amount > 0     //確定銷毀數量>0... */\n    tag_126:\n        /* \"contracts/ERC20token.sol\":5491:5926  if(_amount > 0     //確定銷毀數量>0... */\n      iszero\n      tag_127\n      jumpi\n        /* \"contracts/ERC20token.sol\":5675:5682  _amount */\n      dup2\n        /* \"contracts/ERC20token.sol\":5651:5659  balances */\n      0x02\n        /* \"contracts/ERC20token.sol\":5651:5671  balances[msg.sender] */\n      0x00\n        /* \"contracts/ERC20token.sol\":5660:5670  msg.sender */\n      caller\n        /* \"contracts/ERC20token.sol\":5651:5671  balances[msg.sender] */\n      0xffffffffffffffffffffffffffffffffffffffff\n      and\n      0xffffffffffffffffffffffffffffffffffffffff\n      and\n      dup2\n      mstore\n      0x20\n      add\n      swap1\n      dup2\n      mstore\n      0x20\n      add\n      0x00\n      keccak256\n      0x00\n        /* \"contracts/ERC20token.sol\":5651:5682  balances[msg.sender] -= _amount */\n      dup3\n      dup3\n      sload\n      tag_128\n      swap2\n      swap1\n      tag_102\n      jump\t// in\n    tag_128:\n      swap3\n      pop\n      pop\n      dup2\n      swap1\n      sstore\n      pop\n        /* \"contracts/ERC20token.sol\":5780:5781  0 */\n      0x00\n        /* \"contracts/ERC20token.sol\":5751:5792  Transfer(msg.sender, address(0), _amount) */\n      0xffffffffffffffffffffffffffffffffffffffff\n      and\n        /* \"contracts/ERC20token.sol\":5760:5770  msg.sender */\n      caller\n        /* \"contracts/ERC20token.sol\":5751:5792  Transfer(msg.sender, address(0), _amount) */\n      0xffffffffffffffffffffffffffffffffffffffff\n      and\n      0xddf252ad1be2c89b69c2b068fc378daa952ba7f163c4a11628f55a4df523b3ef\n        /* \"contracts/ERC20token.sol\":5784:5791  _amount */\n      dup5\n        /* \"contracts/ERC20token.sol\":5751:5792  Transfer(msg.sender, address(0), _amount) */\n      mload(0x40)\n      tag_129\n      swap2\n      swap1\n      tag_48\n      jump\t// in\n    tag_129:\n      mload(0x40)\n      dup1\n      swap2\n      sub\n      swap1\n      log3\n        /* \"contracts/ERC20token.sol\":5871:5875  true */\n      0x01\n        /* \"contracts/ERC20token.sol\":5864:5875  return true */\n      swap1\n      pop\n      jump(tag_125)\n        /* \"contracts/ERC20token.sol\":5491:5926  if(_amount > 0     //確定銷毀數量>0... */\n    tag_127:\n        /* \"contracts/ERC20token.sol\":5906:5914  revert() */\n      0x00\n      dup1\n      revert\n        /* \"contracts/ERC20token.sol\":5429:5933  function burn(uint256 _amount) public returns(bool){... */\n    tag_125:\n      swap2\n      swap1\n      pop\n      jump\t// out\n        /* \"contracts/ERC20token.sol\":2725:2873  function balanceOf(address _owner) public view returns (uint256){... */\n    tag_74:\n        /* \"contracts/ERC20token.sol\":2781:2788  uint256 */\n      0x00\n        /* \"contracts/ERC20token.sol\":2807:2815  balances */\n      0x02\n        /* \"contracts/ERC20token.sol\":2807:2823  balances[_owner] */\n      0x00\n        /* \"contracts/ERC20token.sol\":2816:2822  _owner */\n      dup4\n        /* \"contracts/ERC20token.sol\":2807:2823  balances[_owner] */\n      0xffffffffffffffffffffffffffffffffffffffff\n      and\n      0xffffffffffffffffffffffffffffffffffffffff\n      and\n      dup2\n      mstore\n      0x20\n      add\n      swap1\n      dup2\n      mstore\n      0x20\n      add\n      0x00\n      keccak256\n      sload\n        /* \"contracts/ERC20token.sol\":2800:2823  return balances[_owner] */\n      swap1\n      pop\n        /* \"contracts/ERC20token.sol\":2725:2873  function balanceOf(address _owner) public view returns (uint256){... */\n      swap2\n      swap1\n      pop\n      jump\t// out\n        /* \"contracts/ERC20token.sol\":410:438  address payable public owner */\n    tag_78:\n      0x01\n      0x00\n      swap1\n      sload\n      swap1\n      0x0100\n      exp\n      swap1\n      div\n      0xffffffffffffffffffffffffffffffffffffffff\n      and\n      dup2\n      jump\t// out\n        /* \"contracts/ERC20token.sol\":2881:3620  function transfer(address _to, uint _amount)public returns(bool){... */\n    tag_84:\n        /* \"contracts/ERC20token.sol\":2940:2944  bool */\n      0x00\n        /* \"contracts/ERC20token.sol\":2969:2970  0 */\n      dup1\n        /* \"contracts/ERC20token.sol\":2959:2966  _amount */\n      dup3\n        /* \"contracts/ERC20token.sol\":2959:2970  _amount > 0 */\n      gt\n        /* \"contracts/ERC20token.sol\":2959:3042  _amount > 0      //檢測發送數量>0... */\n      dup1\n      iszero\n      tag_133\n      jumpi\n      pop\n        /* \"contracts/ERC20token.sol\":3035:3042  _amount */\n      dup2\n        /* \"contracts/ERC20token.sol\":3011:3019  balances */\n      0x02\n        /* \"contracts/ERC20token.sol\":3011:3031  balances[msg.sender] */\n      0x00\n        /* \"contracts/ERC20token.sol\":3020:3030  msg.sender */\n      caller\n        /* \"contracts/ERC20token.sol\":3011:3031  balances[msg.sender] */\n      0xffffffffffffffffffffffffffffffffffffffff\n      and\n      0xffffffffffffffffffffffffffffffffffffffff\n      and\n      dup2\n      mstore\n      0x20\n      add\n      swap1\n      dup2\n      mstore\n      0x20\n      add\n      0x00\n      keccak256\n      sload\n        /* \"contracts/ERC20token.sol\":3011:3042  balances[msg.sender] >= _amount */\n      lt\n      iszero\n        /* \"contracts/ERC20token.sol\":2959:3042  _amount > 0      //檢測發送數量>0... */\n    tag_133:\n        /* \"contracts/ERC20token.sol\":2959:3171  _amount > 0      //檢測發送數量>0... */\n      dup1\n      iszero\n      tag_134\n      jumpi\n      pop\n        /* \"contracts/ERC20token.sol\":3158:3166  balances */\n      0x02\n        /* \"contracts/ERC20token.sol\":3158:3171  balances[_to] */\n      0x00\n        /* \"contracts/ERC20token.sol\":3167:3170  _to */\n      dup5\n        /* \"contracts/ERC20token.sol\":3158:3171  balances[_to] */\n      0xffffffffffffffffffffffffffffffffffffffff\n      and\n      0xffffffffffffffffffffffffffffffffffffffff\n      and\n      dup2\n      mstore\n      0x20\n      add\n      swap1\n      dup2\n      mstore\n      0x20\n      add\n      0x00\n      keccak256\n      sload\n        /* \"contracts/ERC20token.sol\":3148:3155  _amount */\n      dup3\n        /* \"contracts/ERC20token.sol\":3132:3140  balances */\n      0x02\n        /* \"contracts/ERC20token.sol\":3132:3145  balances[_to] */\n      0x00\n        /* \"contracts/ERC20token.sol\":3141:3144  _to */\n      dup7\n        /* \"contracts/ERC20token.sol\":3132:3145  balances[_to] */\n      0xffffffffffffffffffffffffffffffffffffffff\n      and\n      0xffffffffffffffffffffffffffffffffffffffff\n      and\n      dup2\n      mstore\n      0x20\n      add\n      swap1\n      dup2\n      mstore\n      0x20\n      add\n      0x00\n      keccak256\n      sload\n        /* \"contracts/ERC20token.sol\":3132:3155  balances[_to] + _amount */\n      tag_135\n      swap2\n      swap1\n      tag_118\n      jump\t// in\n    tag_135:\n        /* \"contracts/ERC20token.sol\":3132:3171  balances[_to] + _amount > balances[_to] */\n      gt\n        /* \"contracts/ERC20token.sol\":2959:3171  _amount > 0      //檢測發送數量>0... */\n    tag_134:\n        /* \"contracts/ERC20token.sol\":2956:3613  if(_amount > 0      //檢測發送數量>0... */\n      iszero\n      tag_136\n      jumpi\n        /* \"contracts/ERC20token.sol\":3248:3255  _amount */\n      dup2\n        /* \"contracts/ERC20token.sol\":3224:3232  balances */\n      0x02\n        /* \"contracts/ERC20token.sol\":3224:3244  balances[msg.sender] */\n      0x00\n        /* \"contracts/ERC20token.sol\":3233:3243  msg.sender */\n      caller\n        /* \"contracts/ERC20token.sol\":3224:3244  balances[msg.sender] */\n      0xffffffffffffffffffffffffffffffffffffffff\n      and\n      0xffffffffffffffffffffffffffffffffffffffff\n      and\n      dup2\n      mstore\n      0x20\n      add\n      swap1\n      dup2\n      mstore\n      0x20\n      add\n      0x00\n      keccak256\n      0x00\n        /* \"contracts/ERC20token.sol\":3224:3255  balances[msg.sender] -= _amount */\n      dup3\n      dup3\n      sload\n      tag_137\n      swap2\n      swap1\n      tag_102\n      jump\t// in\n    tag_137:\n      swap3\n      pop\n      pop\n      dup2\n      swap1\n      sstore\n      pop\n        /* \"contracts/ERC20token.sol\":3327:3334  _amount */\n      dup2\n        /* \"contracts/ERC20token.sol\":3310:3318  balances */\n      0x02\n        /* \"contracts/ERC20token.sol\":3310:3323  balances[_to] */\n      0x00\n        /* \"contracts/ERC20token.sol\":3319:3322  _to */\n      dup6\n        /* \"contracts/ERC20token.sol\":3310:3323  balances[_to] */\n      0xffffffffffffffffffffffffffffffffffffffff\n      and\n      0xffffffffffffffffffffffffffffffffffffffff\n      and\n      dup2\n      mstore\n      0x20\n      add\n      swap1\n      dup2\n      mstore\n      0x20\n      add\n      0x00\n      keccak256\n      0x00\n        /* \"contracts/ERC20token.sol\":3310:3334  balances[_to] += _amount */\n      dup3\n      dup3\n      sload\n      tag_138\n      swap2\n      swap1\n      tag_118\n      jump\t// in\n    tag_138:\n      swap3\n      pop\n      pop\n      dup2\n      swap1\n      sstore\n      pop\n        /* \"contracts/ERC20token.sol\":3424:3427  _to */\n      dup3\n        /* \"contracts/ERC20token.sol\":3403:3437  Transfer(msg.sender, _to, _amount) */\n      0xffffffffffffffffffffffffffffffffffffffff\n      and\n        /* \"contracts/ERC20token.sol\":3412:3422  msg.sender */\n      caller\n        /* \"contracts/ERC20token.sol\":3403:3437  Transfer(msg.sender, _to, _amount) */\n      0xffffffffffffffffffffffffffffffffffffffff\n      and\n      0xddf252ad1be2c89b69c2b068fc378daa952ba7f163c4a11628f55a4df523b3ef\n        /* \"contracts/ERC20token.sol\":3429:3436  _amount */\n      dup5\n        /* \"contracts/ERC20token.sol\":3403:3437  Transfer(msg.sender, _to, _amount) */\n      mload(0x40)\n      tag_139\n      swap2\n      swap1\n      tag_48\n      jump\t// in\n    tag_139:\n      mload(0x40)\n      dup1\n      swap2\n      sub\n      swap1\n      log3\n        /* \"contracts/ERC20token.sol\":3496:3500  true */\n      0x01\n        /* \"contracts/ERC20token.sol\":3489:3500  return true */\n      swap1\n      pop\n      jump(tag_132)\n        /* \"contracts/ERC20token.sol\":2956:3613  if(_amount > 0      //檢測發送數量>0... */\n    tag_136:\n        /* \"contracts/ERC20token.sol\":3596:3601  false */\n      0x00\n        /* \"contracts/ERC20token.sol\":3589:3601  return false */\n      swap1\n      pop\n        /* \"contracts/ERC20token.sol\":2881:3620  function transfer(address _to, uint _amount)public returns(bool){... */\n    tag_132:\n      swap3\n      swap2\n      pop\n      pop\n      jump\t// out\n        /* \"contracts/ERC20token.sol\":5109:5249  function contractETH() public view returns (uint256){... */\n    tag_88:\n        /* \"contracts/ERC20token.sol\":5153:5160  uint256 */\n      0x00\n        /* \"contracts/ERC20token.sol\":5179:5200  address(this).balance */\n      selfbalance\n        /* \"contracts/ERC20token.sol\":5172:5200  return address(this).balance */\n      swap1\n      pop\n        /* \"contracts/ERC20token.sol\":5109:5249  function contractETH() public view returns (uint256){... */\n      swap1\n      jump\t// out\n        /* \"contracts/ERC20token.sol\":4927:5101  function allowance (address _owner, address _spender) public view returns(uint256){... */\n    tag_94:\n        /* \"contracts/ERC20token.sol\":5001:5008  uint256 */\n      0x00\n        /* \"contracts/ERC20token.sol\":5027:5034  allowed */\n      0x03\n        /* \"contracts/ERC20token.sol\":5027:5042  allowed[_owner] */\n      0x00\n        /* \"contracts/ERC20token.sol\":5035:5041  _owner */\n      dup5\n        /* \"contracts/ERC20token.sol\":5027:5042  allowed[_owner] */\n      0xffffffffffffffffffffffffffffffffffffffff\n      and\n      0xffffffffffffffffffffffffffffffffffffffff\n      and\n      dup2\n      mstore\n      0x20\n      add\n      swap1\n      dup2\n      mstore\n      0x20\n      add\n      0x00\n      keccak256\n        /* \"contracts/ERC20token.sol\":5027:5052  allowed[_owner][_spender] */\n      0x00\n        /* \"contracts/ERC20token.sol\":5043:5051  _spender */\n      dup4\n        /* \"contracts/ERC20token.sol\":5027:5052  allowed[_owner][_spender] */\n      0xffffffffffffffffffffffffffffffffffffffff\n      and\n      0xffffffffffffffffffffffffffffffffffffffff\n      and\n      dup2\n      mstore\n      0x20\n      add\n      swap1\n      dup2\n      mstore\n      0x20\n      add\n      0x00\n      keccak256\n      sload\n        /* \"contracts/ERC20token.sol\":5020:5052  return allowed[_owner][_spender] */\n      swap1\n      pop\n        /* \"contracts/ERC20token.sol\":4927:5101  function allowance (address _owner, address _spender) public view returns(uint256){... */\n      swap3\n      swap2\n      pop\n      pop\n      jump\t// out\n        /* \"#utility.yul\":7:133   */\n    tag_143:\n        /* \"#utility.yul\":44:51   */\n      0x00\n        /* \"#utility.yul\":84:126   */\n      0xffffffffffffffffffffffffffffffffffffffff\n        /* \"#utility.yul\":77:82   */\n      dup3\n        /* \"#utility.yul\":73:127   */\n      and\n        /* \"#utility.yul\":62:127   */\n      swap1\n      pop\n        /* \"#utility.yul\":7:133   */\n      swap2\n      swap1\n      pop\n      jump\t// out\n        /* \"#utility.yul\":139:235   */\n    tag_144:\n        /* \"#utility.yul\":176:183   */\n      0x00\n        /* \"#utility.yul\":205:229   */\n      tag_178\n        /* \"#utility.yul\":223:228   */\n      dup3\n        /* \"#utility.yul\":205:229   */\n      tag_143\n      jump\t// in\n    tag_178:\n        /* \"#utility.yul\":194:229   */\n      swap1\n      pop\n        /* \"#utility.yul\":139:235   */\n      swap2\n      swap1\n      pop\n      jump\t// out\n        /* \"#utility.yul\":241:359   */\n    tag_145:\n        /* \"#utility.yul\":328:352   */\n      tag_180\n        /* \"#utility.yul\":346:351   */\n      dup2\n        /* \"#utility.yul\":328:352   */\n      tag_144\n      jump\t// in\n    tag_180:\n        /* \"#utility.yul\":323:326   */\n      dup3\n        /* \"#utility.yul\":316:353   */\n      mstore\n        /* \"#utility.yul\":241:359   */\n      pop\n      pop\n      jump\t// out\n        /* \"#utility.yul\":365:442   */\n    tag_146:\n        /* \"#utility.yul\":402:409   */\n      0x00\n        /* \"#utility.yul\":431:436   */\n      dup2\n        /* \"#utility.yul\":420:436   */\n      swap1\n      pop\n        /* \"#utility.yul\":365:442   */\n      swap2\n      swap1\n      pop\n      jump\t// out\n        /* \"#utility.yul\":448:566   */\n    tag_147:\n        /* \"#utility.yul\":535:559   */\n      tag_183\n        /* \"#utility.yul\":553:558   */\n      dup2\n        /* \"#utility.yul\":535:559   */\n      tag_146\n      jump\t// in\n    tag_183:\n        /* \"#utility.yul\":530:533   */\n      dup3\n        /* \"#utility.yul\":523:560   */\n      mstore\n        /* \"#utility.yul\":448:566   */\n      pop\n      pop\n      jump\t// out\n        /* \"#utility.yul\":572:741   */\n    tag_148:\n        /* \"#utility.yul\":656:667   */\n      0x00\n        /* \"#utility.yul\":690:696   */\n      dup3\n        /* \"#utility.yul\":685:688   */\n      dup3\n        /* \"#utility.yul\":678:697   */\n      mstore\n        /* \"#utility.yul\":730:734   */\n      0x20\n        /* \"#utility.yul\":725:728   */\n      dup3\n        /* \"#utility.yul\":721:735   */\n      add\n        /* \"#utility.yul\":706:735   */\n      swap1\n      pop\n        /* \"#utility.yul\":572:741   */\n      swap3\n      swap2\n      pop\n      pop\n      jump\t// out\n        /* \"#utility.yul\":747:915   */\n    tag_149:\n        /* \"#utility.yul\":887:907   */\n      0x72656365697665207761732063616c6c65640000000000000000000000000000\n        /* \"#utility.yul\":883:884   */\n      0x00\n        /* \"#utility.yul\":875:881   */\n      dup3\n        /* \"#utility.yul\":871:885   */\n      add\n        /* \"#utility.yul\":864:908   */\n      mstore\n        /* \"#utility.yul\":747:915   */\n      pop\n      jump\t// out\n        /* \"#utility.yul\":921:1287   */\n    tag_150:\n        /* \"#utility.yul\":1063:1066   */\n      0x00\n        /* \"#utility.yul\":1084:1151   */\n      tag_187\n        /* \"#utility.yul\":1148:1150   */\n      0x12\n        /* \"#utility.yul\":1143:1146   */\n      dup4\n        /* \"#utility.yul\":1084:1151   */\n      tag_148\n      jump\t// in\n    tag_187:\n        /* \"#utility.yul\":1077:1151   */\n      swap2\n      pop\n        /* \"#utility.yul\":1160:1253   */\n      tag_188\n        /* \"#utility.yul\":1249:1252   */\n      dup3\n        /* \"#utility.yul\":1160:1253   */\n      tag_149\n      jump\t// in\n    tag_188:\n        /* \"#utility.yul\":1278:1280   */\n      0x20\n        /* \"#utility.yul\":1273:1276   */\n      dup3\n        /* \"#utility.yul\":1269:1281   */\n      add\n        /* \"#utility.yul\":1262:1281   */\n      swap1\n      pop\n        /* \"#utility.yul\":921:1287   */\n      swap2\n      swap1\n      pop\n      jump\t// out\n        /* \"#utility.yul\":1293:1932   */\n    tag_23:\n        /* \"#utility.yul\":1515:1519   */\n      0x00\n        /* \"#utility.yul\":1553:1555   */\n      0x60\n        /* \"#utility.yul\":1542:1551   */\n      dup3\n        /* \"#utility.yul\":1538:1556   */\n      add\n        /* \"#utility.yul\":1530:1556   */\n      swap1\n      pop\n        /* \"#utility.yul\":1566:1637   */\n      tag_190\n        /* \"#utility.yul\":1634:1635   */\n      0x00\n        /* \"#utility.yul\":1623:1632   */\n      dup4\n        /* \"#utility.yul\":1619:1636   */\n      add\n        /* \"#utility.yul\":1610:1616   */\n      dup6\n        /* \"#utility.yul\":1566:1637   */\n      tag_145\n      jump\t// in\n    tag_190:\n        /* \"#utility.yul\":1647:1719   */\n      tag_191\n        /* \"#utility.yul\":1715:1717   */\n      0x20\n        /* \"#utility.yul\":1704:1713   */\n      dup4\n        /* \"#utility.yul\":1700:1718   */\n      add\n        /* \"#utility.yul\":1691:1697   */\n      dup5\n        /* \"#utility.yul\":1647:1719   */\n      tag_147\n      jump\t// in\n    tag_191:\n        /* \"#utility.yul\":1766:1775   */\n      dup2\n        /* \"#utility.yul\":1760:1764   */\n      dup2\n        /* \"#utility.yul\":1756:1776   */\n      sub\n        /* \"#utility.yul\":1751:1753   */\n      0x40\n        /* \"#utility.yul\":1740:1749   */\n      dup4\n        /* \"#utility.yul\":1736:1754   */\n      add\n        /* \"#utility.yul\":1729:1777   */\n      mstore\n        /* \"#utility.yul\":1794:1925   */\n      tag_192\n        /* \"#utility.yul\":1920:1924   */\n      dup2\n        /* \"#utility.yul\":1794:1925   */\n      tag_150\n      jump\t// in\n    tag_192:\n        /* \"#utility.yul\":1786:1925   */\n      swap1\n      pop\n        /* \"#utility.yul\":1293:1932   */\n      swap4\n      swap3\n      pop\n      pop\n      pop\n      jump\t// out\n        /* \"#utility.yul\":1938:2107   */\n    tag_151:\n        /* \"#utility.yul\":2078:2099   */\n      0x66616c6c6261636b207761732063616c6c656400000000000000000000000000\n        /* \"#utility.yul\":2074:2075   */\n      0x00\n        /* \"#utility.yul\":2066:2072   */\n      dup3\n        /* \"#utility.yul\":2062:2076   */\n      add\n        /* \"#utility.yul\":2055:2100   */\n      mstore\n        /* \"#utility.yul\":1938:2107   */\n      pop\n      jump\t// out\n        /* \"#utility.yul\":2113:2479   */\n    tag_152:\n        /* \"#utility.yul\":2255:2258   */\n      0x00\n        /* \"#utility.yul\":2276:2343   */\n      tag_195\n        /* \"#utility.yul\":2340:2342   */\n      0x13\n        /* \"#utility.yul\":2335:2338   */\n      dup4\n        /* \"#utility.yul\":2276:2343   */\n      tag_148\n      jump\t// in\n    tag_195:\n        /* \"#utility.yul\":2269:2343   */\n      swap2\n      pop\n        /* \"#utility.yul\":2352:2445   */\n      tag_196\n        /* \"#utility.yul\":2441:2444   */\n      dup3\n        /* \"#utility.yul\":2352:2445   */\n      tag_151\n      jump\t// in\n    tag_196:\n        /* \"#utility.yul\":2470:2472   */\n      0x20\n        /* \"#utility.yul\":2465:2468   */\n      dup3\n        /* \"#utility.yul\":2461:2473   */\n      add\n        /* \"#utility.yul\":2454:2473   */\n      swap1\n      pop\n        /* \"#utility.yul\":2113:2479   */\n      swap2\n      swap1\n      pop\n      jump\t// out\n        /* \"#utility.yul\":2485:3124   */\n    tag_28:\n        /* \"#utility.yul\":2707:2711   */\n      0x00\n        /* \"#utility.yul\":2745:2747   */\n      0x60\n        /* \"#utility.yul\":2734:2743   */\n      dup3\n        /* \"#utility.yul\":2730:2748   */\n      add\n        /* \"#utility.yul\":2722:2748   */\n      swap1\n      pop\n        /* \"#utility.yul\":2758:2829   */\n      tag_198\n        /* \"#utility.yul\":2826:2827   */\n      0x00\n        /* \"#utility.yul\":2815:2824   */\n      dup4\n        /* \"#utility.yul\":2811:2828   */\n      add\n        /* \"#utility.yul\":2802:2808   */\n      dup6\n        /* \"#utility.yul\":2758:2829   */\n      tag_145\n      jump\t// in\n    tag_198:\n        /* \"#utility.yul\":2839:2911   */\n      tag_199\n        /* \"#utility.yul\":2907:2909   */\n      0x20\n        /* \"#utility.yul\":2896:2905   */\n      dup4\n        /* \"#utility.yul\":2892:2910   */\n      add\n        /* \"#utility.yul\":2883:2889   */\n      dup5\n        /* \"#utility.yul\":2839:2911   */\n      tag_147\n      jump\t// in\n    tag_199:\n        /* \"#utility.yul\":2958:2967   */\n      dup2\n        /* \"#utility.yul\":2952:2956   */\n      dup2\n        /* \"#utility.yul\":2948:2968   */\n      sub\n        /* \"#utility.yul\":2943:2945   */\n      0x40\n        /* \"#utility.yul\":2932:2941   */\n      dup4\n        /* \"#utility.yul\":2928:2946   */\n      add\n        /* \"#utility.yul\":2921:2969   */\n      mstore\n        /* \"#utility.yul\":2986:3117   */\n      tag_200\n        /* \"#utility.yul\":3112:3116   */\n      dup2\n        /* \"#utility.yul\":2986:3117   */\n      tag_152\n      jump\t// in\n    tag_200:\n        /* \"#utility.yul\":2978:3117   */\n      swap1\n      pop\n        /* \"#utility.yul\":2485:3124   */\n      swap4\n      swap3\n      pop\n      pop\n      pop\n      jump\t// out\n        /* \"#utility.yul\":3130:3229   */\n    tag_153:\n        /* \"#utility.yul\":3182:3188   */\n      0x00\n        /* \"#utility.yul\":3216:3221   */\n      dup2\n        /* \"#utility.yul\":3210:3222   */\n      mload\n        /* \"#utility.yul\":3200:3222   */\n      swap1\n      pop\n        /* \"#utility.yul\":3130:3229   */\n      swap2\n      swap1\n      pop\n      jump\t// out\n        /* \"#utility.yul\":3235:3481   */\n    tag_154:\n        /* \"#utility.yul\":3316:3317   */\n      0x00\n        /* \"#utility.yul\":3326:3439   */\n    tag_203:\n        /* \"#utility.yul\":3340:3346   */\n      dup4\n        /* \"#utility.yul\":3337:3338   */\n      dup2\n        /* \"#utility.yul\":3334:3347   */\n      lt\n        /* \"#utility.yul\":3326:3439   */\n      iszero\n      tag_205\n      jumpi\n        /* \"#utility.yul\":3425:3426   */\n      dup1\n        /* \"#utility.yul\":3420:3423   */\n      dup3\n        /* \"#utility.yul\":3416:3427   */\n      add\n        /* \"#utility.yul\":3410:3428   */\n      mload\n        /* \"#utility.yul\":3406:3407   */\n      dup2\n        /* \"#utility.yul\":3401:3404   */\n      dup5\n        /* \"#utility.yul\":3397:3408   */\n      add\n        /* \"#utility.yul\":3390:3429   */\n      mstore\n        /* \"#utility.yul\":3362:3364   */\n      0x20\n        /* \"#utility.yul\":3359:3360   */\n      dup2\n        /* \"#utility.yul\":3355:3365   */\n      add\n        /* \"#utility.yul\":3350:3365   */\n      swap1\n      pop\n        /* \"#utility.yul\":3326:3439   */\n      jump(tag_203)\n    tag_205:\n        /* \"#utility.yul\":3473:3474   */\n      0x00\n        /* \"#utility.yul\":3464:3470   */\n      dup5\n        /* \"#utility.yul\":3459:3462   */\n      dup5\n        /* \"#utility.yul\":3455:3471   */\n      add\n        /* \"#utility.yul\":3448:3475   */\n      mstore\n        /* \"#utility.yul\":3297:3481   */\n      pop\n        /* \"#utility.yul\":3235:3481   */\n      pop\n      pop\n      pop\n      jump\t// out\n        /* \"#utility.yul\":3487:3589   */\n    tag_155:\n        /* \"#utility.yul\":3528:3534   */\n      0x00\n        /* \"#utility.yul\":3579:3581   */\n      0x1f\n        /* \"#utility.yul\":3575:3582   */\n      not\n        /* \"#utility.yul\":3570:3572   */\n      0x1f\n        /* \"#utility.yul\":3563:3568   */\n      dup4\n        /* \"#utility.yul\":3559:3573   */\n      add\n        /* \"#utility.yul\":3555:3583   */\n      and\n        /* \"#utility.yul\":3545:3583   */\n      swap1\n      pop\n        /* \"#utility.yul\":3487:3589   */\n      swap2\n      swap1\n      pop\n      jump\t// out\n        /* \"#utility.yul\":3595:3972   */\n    tag_156:\n        /* \"#utility.yul\":3683:3686   */\n      0x00\n        /* \"#utility.yul\":3711:3750   */\n      tag_208\n        /* \"#utility.yul\":3744:3749   */\n      dup3\n        /* \"#utility.yul\":3711:3750   */\n      tag_153\n      jump\t// in\n    tag_208:\n        /* \"#utility.yul\":3766:3837   */\n      tag_209\n        /* \"#utility.yul\":3830:3836   */\n      dup2\n        /* \"#utility.yul\":3825:3828   */\n      dup6\n        /* \"#utility.yul\":3766:3837   */\n      tag_148\n      jump\t// in\n    tag_209:\n        /* \"#utility.yul\":3759:3837   */\n      swap4\n      pop\n        /* \"#utility.yul\":3846:3911   */\n      tag_210\n        /* \"#utility.yul\":3904:3910   */\n      dup2\n        /* \"#utility.yul\":3899:3902   */\n      dup6\n        /* \"#utility.yul\":3892:3896   */\n      0x20\n        /* \"#utility.yul\":3885:3890   */\n      dup7\n        /* \"#utility.yul\":3881:3897   */\n      add\n        /* \"#utility.yul\":3846:3911   */\n      tag_154\n      jump\t// in\n    tag_210:\n        /* \"#utility.yul\":3936:3965   */\n      tag_211\n        /* \"#utility.yul\":3958:3964   */\n      dup2\n        /* \"#utility.yul\":3936:3965   */\n      tag_155\n      jump\t// in\n    tag_211:\n        /* \"#utility.yul\":3931:3934   */\n      dup5\n        /* \"#utility.yul\":3927:3966   */\n      add\n        /* \"#utility.yul\":3920:3966   */\n      swap2\n      pop\n        /* \"#utility.yul\":3687:3972   */\n      pop\n        /* \"#utility.yul\":3595:3972   */\n      swap3\n      swap2\n      pop\n      pop\n      jump\t// out\n        /* \"#utility.yul\":3978:4291   */\n    tag_36:\n        /* \"#utility.yul\":4091:4095   */\n      0x00\n        /* \"#utility.yul\":4129:4131   */\n      0x20\n        /* \"#utility.yul\":4118:4127   */\n      dup3\n        /* \"#utility.yul\":4114:4132   */\n      add\n        /* \"#utility.yul\":4106:4132   */\n      swap1\n      pop\n        /* \"#utility.yul\":4178:4187   */\n      dup2\n        /* \"#utility.yul\":4172:4176   */\n      dup2\n        /* \"#utility.yul\":4168:4188   */\n      sub\n        /* \"#utility.yul\":4164:4165   */\n      0x00\n        /* \"#utility.yul\":4153:4162   */\n      dup4\n        /* \"#utility.yul\":4149:4166   */\n      add\n        /* \"#utility.yul\":4142:4189   */\n      mstore\n        /* \"#utility.yul\":4206:4284   */\n      tag_213\n        /* \"#utility.yul\":4279:4283   */\n      dup2\n        /* \"#utility.yul\":4270:4276   */\n      dup5\n        /* \"#utility.yul\":4206:4284   */\n      tag_156\n      jump\t// in\n    tag_213:\n        /* \"#utility.yul\":4198:4284   */\n      swap1\n      pop\n        /* \"#utility.yul\":3978:4291   */\n      swap3\n      swap2\n      pop\n      pop\n      jump\t// out\n        /* \"#utility.yul\":4378:4495   */\n    tag_158:\n        /* \"#utility.yul\":4487:4488   */\n      0x00\n        /* \"#utility.yul\":4484:4485   */\n      dup1\n        /* \"#utility.yul\":4477:4489   */\n      revert\n        /* \"#utility.yul\":4624:4746   */\n    tag_160:\n        /* \"#utility.yul\":4697:4721   */\n      tag_218\n        /* \"#utility.yul\":4715:4720   */\n      dup2\n        /* \"#utility.yul\":4697:4721   */\n      tag_144\n      jump\t// in\n    tag_218:\n        /* \"#utility.yul\":4690:4695   */\n      dup2\n        /* \"#utility.yul\":4687:4722   */\n      eq\n        /* \"#utility.yul\":4677:4740   */\n      tag_219\n      jumpi\n        /* \"#utility.yul\":4736:4737   */\n      0x00\n        /* \"#utility.yul\":4733:4734   */\n      dup1\n        /* \"#utility.yul\":4726:4738   */\n      revert\n        /* \"#utility.yul\":4677:4740   */\n    tag_219:\n        /* \"#utility.yul\":4624:4746   */\n      pop\n      jump\t// out\n        /* \"#utility.yul\":4752:4891   */\n    tag_161:\n        /* \"#utility.yul\":4798:4803   */\n      0x00\n        /* \"#utility.yul\":4836:4842   */\n      dup2\n        /* \"#utility.yul\":4823:4843   */\n      calldataload\n        /* \"#utility.yul\":4814:4843   */\n      swap1\n      pop\n        /* \"#utility.yul\":4852:4885   */\n      tag_221\n        /* \"#utility.yul\":4879:4884   */\n      dup2\n        /* \"#utility.yul\":4852:4885   */\n      tag_160\n      jump\t// in\n    tag_221:\n        /* \"#utility.yul\":4752:4891   */\n      swap3\n      swap2\n      pop\n      pop\n      jump\t// out\n        /* \"#utility.yul\":4897:5019   */\n    tag_162:\n        /* \"#utility.yul\":4970:4994   */\n      tag_223\n        /* \"#utility.yul\":4988:4993   */\n      dup2\n        /* \"#utility.yul\":4970:4994   */\n      tag_146\n      jump\t// in\n    tag_223:\n        /* \"#utility.yul\":4963:4968   */\n      dup2\n        /* \"#utility.yul\":4960:4995   */\n      eq\n        /* \"#utility.yul\":4950:5013   */\n      tag_224\n      jumpi\n        /* \"#utility.yul\":5009:5010   */\n      0x00\n        /* \"#utility.yul\":5006:5007   */\n      dup1\n        /* \"#utility.yul\":4999:5011   */\n      revert\n        /* \"#utility.yul\":4950:5013   */\n    tag_224:\n        /* \"#utility.yul\":4897:5019   */\n      pop\n      jump\t// out\n        /* \"#utility.yul\":5025:5164   */\n    tag_163:\n        /* \"#utility.yul\":5071:5076   */\n      0x00\n        /* \"#utility.yul\":5109:5115   */\n      dup2\n        /* \"#utility.yul\":5096:5116   */\n      calldataload\n        /* \"#utility.yul\":5087:5116   */\n      swap1\n      pop\n        /* \"#utility.yul\":5125:5158   */\n      tag_226\n        /* \"#utility.yul\":5152:5157   */\n      dup2\n        /* \"#utility.yul\":5125:5158   */\n      tag_162\n      jump\t// in\n    tag_226:\n        /* \"#utility.yul\":5025:5164   */\n      swap3\n      swap2\n      pop\n      pop\n      jump\t// out\n        /* \"#utility.yul\":5170:5644   */\n    tag_40:\n        /* \"#utility.yul\":5238:5244   */\n      0x00\n        /* \"#utility.yul\":5246:5252   */\n      dup1\n        /* \"#utility.yul\":5295:5297   */\n      0x40\n        /* \"#utility.yul\":5283:5292   */\n      dup4\n        /* \"#utility.yul\":5274:5281   */\n      dup6\n        /* \"#utility.yul\":5270:5293   */\n      sub\n        /* \"#utility.yul\":5266:5298   */\n      slt\n        /* \"#utility.yul\":5263:5382   */\n      iszero\n      tag_228\n      jumpi\n        /* \"#utility.yul\":5301:5380   */\n      tag_229\n      tag_158\n      jump\t// in\n    tag_229:\n        /* \"#utility.yul\":5263:5382   */\n    tag_228:\n        /* \"#utility.yul\":5421:5422   */\n      0x00\n        /* \"#utility.yul\":5446:5499   */\n      tag_230\n        /* \"#utility.yul\":5491:5498   */\n      dup6\n        /* \"#utility.yul\":5482:5488   */\n      dup3\n        /* \"#utility.yul\":5471:5480   */\n      dup7\n        /* \"#utility.yul\":5467:5489   */\n      add\n        /* \"#utility.yul\":5446:5499   */\n      tag_161\n      jump\t// in\n    tag_230:\n        /* \"#utility.yul\":5436:5499   */\n      swap3\n      pop\n        /* \"#utility.yul\":5392:5509   */\n      pop\n        /* \"#utility.yul\":5548:5550   */\n      0x20\n        /* \"#utility.yul\":5574:5627   */\n      tag_231\n        /* \"#utility.yul\":5619:5626   */\n      dup6\n        /* \"#utility.yul\":5610:5616   */\n      dup3\n        /* \"#utility.yul\":5599:5608   */\n      dup7\n        /* \"#utility.yul\":5595:5617   */\n      add\n        /* \"#utility.yul\":5574:5627   */\n      tag_163\n      jump\t// in\n    tag_231:\n        /* \"#utility.yul\":5564:5627   */\n      swap2\n      pop\n        /* \"#utility.yul\":5519:5637   */\n      pop\n        /* \"#utility.yul\":5170:5644   */\n      swap3\n      pop\n      swap3\n      swap1\n      pop\n      jump\t// out\n        /* \"#utility.yul\":5650:5740   */\n    tag_164:\n        /* \"#utility.yul\":5684:5691   */\n      0x00\n        /* \"#utility.yul\":5727:5732   */\n      dup2\n        /* \"#utility.yul\":5720:5733   */\n      iszero\n        /* \"#utility.yul\":5713:5734   */\n      iszero\n        /* \"#utility.yul\":5702:5734   */\n      swap1\n      pop\n        /* \"#utility.yul\":5650:5740   */\n      swap2\n      swap1\n      pop\n      jump\t// out\n        /* \"#utility.yul\":5746:5855   */\n    tag_165:\n        /* \"#utility.yul\":5827:5848   */\n      tag_234\n        /* \"#utility.yul\":5842:5847   */\n      dup2\n        /* \"#utility.yul\":5827:5848   */\n      tag_164\n      jump\t// in\n    tag_234:\n        /* \"#utility.yul\":5822:5825   */\n      dup3\n        /* \"#utility.yul\":5815:5849   */\n      mstore\n        /* \"#utility.yul\":5746:5855   */\n      pop\n      pop\n      jump\t// out\n        /* \"#utility.yul\":5861:6071   */\n    tag_43:\n        /* \"#utility.yul\":5948:5952   */\n      0x00\n        /* \"#utility.yul\":5986:5988   */\n      0x20\n        /* \"#utility.yul\":5975:5984   */\n      dup3\n        /* \"#utility.yul\":5971:5989   */\n      add\n        /* \"#utility.yul\":5963:5989   */\n      swap1\n      pop\n        /* \"#utility.yul\":5999:6064   */\n      tag_236\n        /* \"#utility.yul\":6061:6062   */\n      0x00\n        /* \"#utility.yul\":6050:6059   */\n      dup4\n        /* \"#utility.yul\":6046:6063   */\n      add\n        /* \"#utility.yul\":6037:6043   */\n      dup5\n        /* \"#utility.yul\":5999:6064   */\n      tag_165\n      jump\t// in\n    tag_236:\n        /* \"#utility.yul\":5861:6071   */\n      swap3\n      swap2\n      pop\n      pop\n      jump\t// out\n        /* \"#utility.yul\":6077:6299   */\n    tag_48:\n        /* \"#utility.yul\":6170:6174   */\n      0x00\n        /* \"#utility.yul\":6208:6210   */\n      0x20\n        /* \"#utility.yul\":6197:6206   */\n      dup3\n        /* \"#utility.yul\":6193:6211   */\n      add\n        /* \"#utility.yul\":6185:6211   */\n      swap1\n      pop\n        /* \"#utility.yul\":6221:6292   */\n      tag_238\n        /* \"#utility.yul\":6289:6290   */\n      0x00\n        /* \"#utility.yul\":6278:6287   */\n      dup4\n        /* \"#utility.yul\":6274:6291   */\n      add\n        /* \"#utility.yul\":6265:6271   */\n      dup5\n        /* \"#utility.yul\":6221:6292   */\n      tag_147\n      jump\t// in\n    tag_238:\n        /* \"#utility.yul\":6077:6299   */\n      swap3\n      swap2\n      pop\n      pop\n      jump\t// out\n        /* \"#utility.yul\":6305:6924   */\n    tag_52:\n        /* \"#utility.yul\":6382:6388   */\n      0x00\n        /* \"#utility.yul\":6390:6396   */\n      dup1\n        /* \"#utility.yul\":6398:6404   */\n      0x00\n        /* \"#utility.yul\":6447:6449   */\n      0x60\n        /* \"#utility.yul\":6435:6444   */\n      dup5\n        /* \"#utility.yul\":6426:6433   */\n      dup7\n        /* \"#utility.yul\":6422:6445   */\n      sub\n        /* \"#utility.yul\":6418:6450   */\n      slt\n        /* \"#utility.yul\":6415:6534   */\n      iszero\n      tag_240\n      jumpi\n        /* \"#utility.yul\":6453:6532   */\n      tag_241\n      tag_158\n      jump\t// in\n    tag_241:\n        /* \"#utility.yul\":6415:6534   */\n    tag_240:\n        /* \"#utility.yul\":6573:6574   */\n      0x00\n        /* \"#utility.yul\":6598:6651   */\n      tag_242\n        /* \"#utility.yul\":6643:6650   */\n      dup7\n        /* \"#utility.yul\":6634:6640   */\n      dup3\n        /* \"#utility.yul\":6623:6632   */\n      dup8\n        /* \"#utility.yul\":6619:6641   */\n      add\n        /* \"#utility.yul\":6598:6651   */\n      tag_161\n      jump\t// in\n    tag_242:\n        /* \"#utility.yul\":6588:6651   */\n      swap4\n      pop\n        /* \"#utility.yul\":6544:6661   */\n      pop\n        /* \"#utility.yul\":6700:6702   */\n      0x20\n        /* \"#utility.yul\":6726:6779   */\n      tag_243\n        /* \"#utility.yul\":6771:6778   */\n      dup7\n        /* \"#utility.yul\":6762:6768   */\n      dup3\n        /* \"#utility.yul\":6751:6760   */\n      dup8\n        /* \"#utility.yul\":6747:6769   */\n      add\n        /* \"#utility.yul\":6726:6779   */\n      tag_161\n      jump\t// in\n    tag_243:\n        /* \"#utility.yul\":6716:6779   */\n      swap3\n      pop\n        /* \"#utility.yul\":6671:6789   */\n      pop\n        /* \"#utility.yul\":6828:6830   */\n      0x40\n        /* \"#utility.yul\":6854:6907   */\n      tag_244\n        /* \"#utility.yul\":6899:6906   */\n      dup7\n        /* \"#utility.yul\":6890:6896   */\n      dup3\n        /* \"#utility.yul\":6879:6888   */\n      dup8\n        /* \"#utility.yul\":6875:6897   */\n      add\n        /* \"#utility.yul\":6854:6907   */\n      tag_163\n      jump\t// in\n    tag_244:\n        /* \"#utility.yul\":6844:6907   */\n      swap2\n      pop\n        /* \"#utility.yul\":6799:6917   */\n      pop\n        /* \"#utility.yul\":6305:6924   */\n      swap3\n      pop\n      swap3\n      pop\n      swap3\n      jump\t// out\n        /* \"#utility.yul\":6930:7016   */\n    tag_166:\n        /* \"#utility.yul\":6965:6972   */\n      0x00\n        /* \"#utility.yul\":7005:7009   */\n      0xff\n        /* \"#utility.yul\":6998:7003   */\n      dup3\n        /* \"#utility.yul\":6994:7010   */\n      and\n        /* \"#utility.yul\":6983:7010   */\n      swap1\n      pop\n        /* \"#utility.yul\":6930:7016   */\n      swap2\n      swap1\n      pop\n      jump\t// out\n        /* \"#utility.yul\":7022:7134   */\n    tag_167:\n        /* \"#utility.yul\":7105:7127   */\n      tag_247\n        /* \"#utility.yul\":7121:7126   */\n      dup2\n        /* \"#utility.yul\":7105:7127   */\n      tag_166\n      jump\t// in\n    tag_247:\n        /* \"#utility.yul\":7100:7103   */\n      dup3\n        /* \"#utility.yul\":7093:7128   */\n      mstore\n        /* \"#utility.yul\":7022:7134   */\n      pop\n      pop\n      jump\t// out\n        /* \"#utility.yul\":7140:7354   */\n    tag_63:\n        /* \"#utility.yul\":7229:7233   */\n      0x00\n        /* \"#utility.yul\":7267:7269   */\n      0x20\n        /* \"#utility.yul\":7256:7265   */\n      dup3\n        /* \"#utility.yul\":7252:7270   */\n      add\n        /* \"#utility.yul\":7244:7270   */\n      swap1\n      pop\n        /* \"#utility.yul\":7280:7347   */\n      tag_249\n        /* \"#utility.yul\":7344:7345   */\n      0x00\n        /* \"#utility.yul\":7333:7342   */\n      dup4\n        /* \"#utility.yul\":7329:7346   */\n      add\n        /* \"#utility.yul\":7320:7326   */\n      dup5\n        /* \"#utility.yul\":7280:7347   */\n      tag_167\n      jump\t// in\n    tag_249:\n        /* \"#utility.yul\":7140:7354   */\n      swap3\n      swap2\n      pop\n      pop\n      jump\t// out\n        /* \"#utility.yul\":7360:7689   */\n    tag_67:\n        /* \"#utility.yul\":7419:7425   */\n      0x00\n        /* \"#utility.yul\":7468:7470   */\n      0x20\n        /* \"#utility.yul\":7456:7465   */\n      dup3\n        /* \"#utility.yul\":7447:7454   */\n      dup5\n        /* \"#utility.yul\":7443:7466   */\n      sub\n        /* \"#utility.yul\":7439:7471   */\n      slt\n        /* \"#utility.yul\":7436:7555   */\n      iszero\n      tag_251\n      jumpi\n        /* \"#utility.yul\":7474:7553   */\n      tag_252\n      tag_158\n      jump\t// in\n    tag_252:\n        /* \"#utility.yul\":7436:7555   */\n    tag_251:\n        /* \"#utility.yul\":7594:7595   */\n      0x00\n        /* \"#utility.yul\":7619:7672   */\n      tag_253\n        /* \"#utility.yul\":7664:7671   */\n      dup5\n        /* \"#utility.yul\":7655:7661   */\n      dup3\n        /* \"#utility.yul\":7644:7653   */\n      dup6\n        /* \"#utility.yul\":7640:7662   */\n      add\n        /* \"#utility.yul\":7619:7672   */\n      tag_163\n      jump\t// in\n    tag_253:\n        /* \"#utility.yul\":7609:7672   */\n      swap2\n      pop\n        /* \"#utility.yul\":7565:7682   */\n      pop\n        /* \"#utility.yul\":7360:7689   */\n      swap3\n      swap2\n      pop\n      pop\n      jump\t// out\n        /* \"#utility.yul\":7695:8024   */\n    tag_73:\n        /* \"#utility.yul\":7754:7760   */\n      0x00\n        /* \"#utility.yul\":7803:7805   */\n      0x20\n        /* \"#utility.yul\":7791:7800   */\n      dup3\n        /* \"#utility.yul\":7782:7789   */\n      dup5\n        /* \"#utility.yul\":7778:7801   */\n      sub\n        /* \"#utility.yul\":7774:7806   */\n      slt\n        /* \"#utility.yul\":7771:7890   */\n      iszero\n      tag_255\n      jumpi\n        /* \"#utility.yul\":7809:7888   */\n      tag_256\n      tag_158\n      jump\t// in\n    tag_256:\n        /* \"#utility.yul\":7771:7890   */\n    tag_255:\n        /* \"#utility.yul\":7929:7930   */\n      0x00\n        /* \"#utility.yul\":7954:8007   */\n      tag_257\n        /* \"#utility.yul\":7999:8006   */\n      dup5\n        /* \"#utility.yul\":7990:7996   */\n      dup3\n        /* \"#utility.yul\":7979:7988   */\n      dup6\n        /* \"#utility.yul\":7975:7997   */\n      add\n        /* \"#utility.yul\":7954:8007   */\n      tag_161\n      jump\t// in\n    tag_257:\n        /* \"#utility.yul\":7944:8007   */\n      swap2\n      pop\n        /* \"#utility.yul\":7900:8017   */\n      pop\n        /* \"#utility.yul\":7695:8024   */\n      swap3\n      swap2\n      pop\n      pop\n      jump\t// out\n        /* \"#utility.yul\":8030:8134   */\n    tag_168:\n        /* \"#utility.yul\":8075:8082   */\n      0x00\n        /* \"#utility.yul\":8104:8128   */\n      tag_259\n        /* \"#utility.yul\":8122:8127   */\n      dup3\n        /* \"#utility.yul\":8104:8128   */\n      tag_143\n      jump\t// in\n    tag_259:\n        /* \"#utility.yul\":8093:8128   */\n      swap1\n      pop\n        /* \"#utility.yul\":8030:8134   */\n      swap2\n      swap1\n      pop\n      jump\t// out\n        /* \"#utility.yul\":8140:8282   */\n    tag_169:\n        /* \"#utility.yul\":8243:8275   */\n      tag_261\n        /* \"#utility.yul\":8269:8274   */\n      dup2\n        /* \"#utility.yul\":8243:8275   */\n      tag_168\n      jump\t// in\n    tag_261:\n        /* \"#utility.yul\":8238:8241   */\n      dup3\n        /* \"#utility.yul\":8231:8276   */\n      mstore\n        /* \"#utility.yul\":8140:8282   */\n      pop\n      pop\n      jump\t// out\n        /* \"#utility.yul\":8288:8542   */\n    tag_80:\n        /* \"#utility.yul\":8397:8401   */\n      0x00\n        /* \"#utility.yul\":8435:8437   */\n      0x20\n        /* \"#utility.yul\":8424:8433   */\n      dup3\n        /* \"#utility.yul\":8420:8438   */\n      add\n        /* \"#utility.yul\":8412:8438   */\n      swap1\n      pop\n        /* \"#utility.yul\":8448:8535   */\n      tag_263\n        /* \"#utility.yul\":8532:8533   */\n      0x00\n        /* \"#utility.yul\":8521:8530   */\n      dup4\n        /* \"#utility.yul\":8517:8534   */\n      add\n        /* \"#utility.yul\":8508:8514   */\n      dup5\n        /* \"#utility.yul\":8448:8535   */\n      tag_169\n      jump\t// in\n    tag_263:\n        /* \"#utility.yul\":8288:8542   */\n      swap3\n      swap2\n      pop\n      pop\n      jump\t// out\n        /* \"#utility.yul\":8548:9022   */\n    tag_93:\n        /* \"#utility.yul\":8616:8622   */\n      0x00\n        /* \"#utility.yul\":8624:8630   */\n      dup1\n        /* \"#utility.yul\":8673:8675   */\n      0x40\n        /* \"#utility.yul\":8661:8670   */\n      dup4\n        /* \"#utility.yul\":8652:8659   */\n      dup6\n        /* \"#utility.yul\":8648:8671   */\n      sub\n        /* \"#utility.yul\":8644:8676   */\n      slt\n        /* \"#utility.yul\":8641:8760   */\n      iszero\n      tag_265\n      jumpi\n        /* \"#utility.yul\":8679:8758   */\n      tag_266\n      tag_158\n      jump\t// in\n    tag_266:\n        /* \"#utility.yul\":8641:8760   */\n    tag_265:\n        /* \"#utility.yul\":8799:8800   */\n      0x00\n        /* \"#utility.yul\":8824:8877   */\n      tag_267\n        /* \"#utility.yul\":8869:8876   */\n      dup6\n        /* \"#utility.yul\":8860:8866   */\n      dup3\n        /* \"#utility.yul\":8849:8858   */\n      dup7\n        /* \"#utility.yul\":8845:8867   */\n      add\n        /* \"#utility.yul\":8824:8877   */\n      tag_161\n      jump\t// in\n    tag_267:\n        /* \"#utility.yul\":8814:8877   */\n      swap3\n      pop\n        /* \"#utility.yul\":8770:8887   */\n      pop\n        /* \"#utility.yul\":8926:8928   */\n      0x20\n        /* \"#utility.yul\":8952:9005   */\n      tag_268\n        /* \"#utility.yul\":8997:9004   */\n      dup6\n        /* \"#utility.yul\":8988:8994   */\n      dup3\n        /* \"#utility.yul\":8977:8986   */\n      dup7\n        /* \"#utility.yul\":8973:8995   */\n      add\n        /* \"#utility.yul\":8952:9005   */\n      tag_161\n      jump\t// in\n    tag_268:\n        /* \"#utility.yul\":8942:9005   */\n      swap2\n      pop\n        /* \"#utility.yul\":8897:9015   */\n      pop\n        /* \"#utility.yul\":8548:9022   */\n      swap3\n      pop\n      swap3\n      swap1\n      pop\n      jump\t// out\n        /* \"#utility.yul\":9028:9208   */\n    tag_170:\n        /* \"#utility.yul\":9076:9153   */\n      0x4e487b7100000000000000000000000000000000000000000000000000000000\n        /* \"#utility.yul\":9073:9074   */\n      0x00\n        /* \"#utility.yul\":9066:9154   */\n      mstore\n        /* \"#utility.yul\":9173:9177   */\n      0x11\n        /* \"#utility.yul\":9170:9171   */\n      0x04\n        /* \"#utility.yul\":9163:9178   */\n      mstore\n        /* \"#utility.yul\":9197:9201   */\n      0x24\n        /* \"#utility.yul\":9194:9195   */\n      0x00\n        /* \"#utility.yul\":9187:9202   */\n      revert\n        /* \"#utility.yul\":9214:9408   */\n    tag_102:\n        /* \"#utility.yul\":9254:9258   */\n      0x00\n        /* \"#utility.yul\":9274:9294   */\n      tag_271\n        /* \"#utility.yul\":9292:9293   */\n      dup3\n        /* \"#utility.yul\":9274:9294   */\n      tag_146\n      jump\t// in\n    tag_271:\n        /* \"#utility.yul\":9269:9294   */\n      swap2\n      pop\n        /* \"#utility.yul\":9308:9328   */\n      tag_272\n        /* \"#utility.yul\":9326:9327   */\n      dup4\n        /* \"#utility.yul\":9308:9328   */\n      tag_146\n      jump\t// in\n    tag_272:\n        /* \"#utility.yul\":9303:9328   */\n      swap3\n      pop\n        /* \"#utility.yul\":9352:9353   */\n      dup3\n        /* \"#utility.yul\":9349:9350   */\n      dup3\n        /* \"#utility.yul\":9345:9354   */\n      sub\n        /* \"#utility.yul\":9337:9354   */\n      swap1\n      pop\n        /* \"#utility.yul\":9376:9377   */\n      dup2\n        /* \"#utility.yul\":9370:9374   */\n      dup2\n        /* \"#utility.yul\":9367:9378   */\n      gt\n        /* \"#utility.yul\":9364:9401   */\n      iszero\n      tag_273\n      jumpi\n        /* \"#utility.yul\":9381:9399   */\n      tag_274\n      tag_170\n      jump\t// in\n    tag_274:\n        /* \"#utility.yul\":9364:9401   */\n    tag_273:\n        /* \"#utility.yul\":9214:9408   */\n      swap3\n      swap2\n      pop\n      pop\n      jump\t// out\n        /* \"#utility.yul\":9414:9502   */\n    tag_171:\n        /* \"#utility.yul\":9462:9469   */\n      0x00\n        /* \"#utility.yul\":9491:9496   */\n      dup2\n        /* \"#utility.yul\":9480:9496   */\n      swap1\n      pop\n        /* \"#utility.yul\":9414:9502   */\n      swap2\n      swap1\n      pop\n      jump\t// out\n        /* \"#utility.yul\":9508:9568   */\n    tag_172:\n        /* \"#utility.yul\":9536:9539   */\n      0x00\n        /* \"#utility.yul\":9557:9562   */\n      dup2\n        /* \"#utility.yul\":9550:9562   */\n      swap1\n      pop\n        /* \"#utility.yul\":9508:9568   */\n      swap2\n      swap1\n      pop\n      jump\t// out\n        /* \"#utility.yul\":9574:9738   */\n    tag_173:\n        /* \"#utility.yul\":9635:9644   */\n      0x00\n        /* \"#utility.yul\":9668:9732   */\n      tag_278\n        /* \"#utility.yul\":9686:9731   */\n      tag_279\n        /* \"#utility.yul\":9695:9730   */\n      tag_280\n        /* \"#utility.yul\":9724:9729   */\n      dup5\n        /* \"#utility.yul\":9695:9730   */\n      tag_171\n      jump\t// in\n    tag_280:\n        /* \"#utility.yul\":9686:9731   */\n      tag_172\n      jump\t// in\n    tag_279:\n        /* \"#utility.yul\":9668:9732   */\n      tag_146\n      jump\t// in\n    tag_278:\n        /* \"#utility.yul\":9655:9732   */\n      swap1\n      pop\n        /* \"#utility.yul\":9574:9738   */\n      swap2\n      swap1\n      pop\n      jump\t// out\n        /* \"#utility.yul\":9744:9897   */\n    tag_174:\n        /* \"#utility.yul\":9842:9890   */\n      tag_282\n        /* \"#utility.yul\":9884:9889   */\n      dup2\n        /* \"#utility.yul\":9842:9890   */\n      tag_173\n      jump\t// in\n    tag_282:\n        /* \"#utility.yul\":9837:9840   */\n      dup3\n        /* \"#utility.yul\":9830:9891   */\n      mstore\n        /* \"#utility.yul\":9744:9897   */\n      pop\n      pop\n      jump\t// out\n        /* \"#utility.yul\":9903:10147   */\n    tag_104:\n        /* \"#utility.yul\":10007:10011   */\n      0x00\n        /* \"#utility.yul\":10045:10047   */\n      0x20\n        /* \"#utility.yul\":10034:10043   */\n      dup3\n        /* \"#utility.yul\":10030:10048   */\n      add\n        /* \"#utility.yul\":10022:10048   */\n      swap1\n      pop\n        /* \"#utility.yul\":10058:10140   */\n      tag_284\n        /* \"#utility.yul\":10137:10138   */\n      0x00\n        /* \"#utility.yul\":10126:10135   */\n      dup4\n        /* \"#utility.yul\":10122:10139   */\n      add\n        /* \"#utility.yul\":10113:10119   */\n      dup5\n        /* \"#utility.yul\":10058:10140   */\n      tag_174\n      jump\t// in\n    tag_284:\n        /* \"#utility.yul\":9903:10147   */\n      swap3\n      swap2\n      pop\n      pop\n      jump\t// out\n        /* \"#utility.yul\":10153:10344   */\n    tag_118:\n        /* \"#utility.yul\":10193:10196   */\n      0x00\n        /* \"#utility.yul\":10212:10232   */\n      tag_286\n        /* \"#utility.yul\":10230:10231   */\n      dup3\n        /* \"#utility.yul\":10212:10232   */\n      tag_146\n      jump\t// in\n    tag_286:\n        /* \"#utility.yul\":10207:10232   */\n      swap2\n      pop\n        /* \"#utility.yul\":10246:10266   */\n      tag_287\n        /* \"#utility.yul\":10264:10265   */\n      dup4\n        /* \"#utility.yul\":10246:10266   */\n      tag_146\n      jump\t// in\n    tag_287:\n        /* \"#utility.yul\":10241:10266   */\n      swap3\n      pop\n        /* \"#utility.yul\":10289:10290   */\n      dup3\n        /* \"#utility.yul\":10286:10287   */\n      dup3\n        /* \"#utility.yul\":10282:10291   */\n      add\n        /* \"#utility.yul\":10275:10291   */\n      swap1\n      pop\n        /* \"#utility.yul\":10310:10313   */\n      dup1\n        /* \"#utility.yul\":10307:10308   */\n      dup3\n        /* \"#utility.yul\":10304:10314   */\n      gt\n        /* \"#utility.yul\":10301:10337   */\n      iszero\n      tag_288\n      jumpi\n        /* \"#utility.yul\":10317:10335   */\n      tag_289\n      tag_170\n      jump\t// in\n    tag_289:\n        /* \"#utility.yul\":10301:10337   */\n    tag_288:\n        /* \"#utility.yul\":10153:10344   */\n      swap3\n      swap2\n      pop\n      pop\n      jump\t// out\n\n    auxdata: 0xa2646970667358221220c528b64a6864533400a6a7a604240ea2271f8a404870fac49e7a2a005afd679464736f6c63430008130033\n}\n",
				"bytecode": {
					"linkReferences": {},
					"object": "60806040526298968060005534801561001757600080fd5b5033600160006101000a81548173ffffffffffffffffffffffffffffffffffffffff021916908373ffffffffffffffffffffffffffffffffffffffff1602179055506114d2806100686000396000f3fe6080604052600436106100c65760003560e01c8063313ce5671161007f5780638da5cb5b116100595780638da5cb5b1461030a578063a9059cbb14610335578063bbd316eb14610372578063dd62ed3e1461039d5761010f565b8063313ce5671461026557806342966c681461029057806370a08231146102cd5761010f565b8063064e86841461015357806306fdde031461016a578063095ea7b31461019557806318160ddd146101d257806323b872dd146101fd578063288152bb1461023a5761010f565b3661010f576100d36103da565b507f59e04c3f0d44b7caf6e8ef854b61d9a51cf1960d7a88ff6356cc5e946b4b58323334604051610105929190610ff2565b60405180910390a1005b6101176103da565b507f59e04c3f0d44b7caf6e8ef854b61d9a51cf1960d7a88ff6356cc5e946b4b5832333460405161014992919061107a565b60405180910390a1005b34801561015f57600080fd5b506101686105ad565b005b34801561017657600080fd5b5061017f610672565b60405161018c9190611135565b60405180910390f35b3480156101a157600080fd5b506101bc60048036038101906101b791906111b4565b6106ab565b6040516101c9919061120f565b60405180910390f35b3480156101de57600080fd5b506101e761079d565b6040516101f4919061122a565b60405180910390f35b34801561020957600080fd5b50610224600480360381019061021f9190611245565b6107a3565b604051610231919061120f565b60405180910390f35b34801561024657600080fd5b5061024f610acd565b60405161025c9190611135565b60405180910390f35b34801561027157600080fd5b5061027a610b06565b60405161028791906112b4565b60405180910390f35b34801561029c57600080fd5b506102b760048036038101906102b291906112cf565b610b0b565b6040516102c4919061120f565b60405180910390f35b3480156102d957600080fd5b506102f460048036038101906102ef91906112fc565b610c2f565b604051610301919061122a565b60405180910390f35b34801561031657600080fd5b5061031f610c78565b60405161032c919061134a565b60405180910390f35b34801561034157600080fd5b5061035c600480360381019061035791906111b4565b610c9e565b604051610369919061120f565b60405180910390f35b34801561037e57600080fd5b50610387610eac565b604051610394919061122a565b60405180910390f35b3480156103a957600080fd5b506103c460048036038101906103bf9190611365565b610eb4565b6040516103d1919061122a565b60405180910390f35b60008060005411801561042c57506000600260003373ffffffffffffffffffffffffffffffffffffffff1673ffffffffffffffffffffffffffffffffffffffff16815260200190815260200160002054145b801561043e575066038d7ea4c6800034145b801561048a57506103e8600460003373ffffffffffffffffffffffffffffffffffffffff1673ffffffffffffffffffffffffffffffffffffffff16815260200190815260200160002054105b156105a5576103e86000808282546104a291906113d4565b925050819055506103e8600260003373ffffffffffffffffffffffffffffffffffffffff1673ffffffffffffffffffffffffffffffffffffffff168152602001908152602001600020819055506103e8600460003373ffffffffffffffffffffffffffffffffffffffff1673ffffffffffffffffffffffffffffffffffffffff168152602001908152602001600020819055503373ffffffffffffffffffffffffffffffffffffffff163073ffffffffffffffffffffffffffffffffffffffff167fddf252ad1be2c89b69c2b068fc378daa952ba7f163c4a11628f55a4df523b3ef6103e8604051610594919061144d565b60405180910390a3600190506105aa565b600080fd5b90565b600160009054906101000a900473ffffffffffffffffffffffffffffffffffffffff1673ffffffffffffffffffffffffffffffffffffffff163373ffffffffffffffffffffffffffffffffffffffff161461060757600080fd5b600160009054906101000a900473ffffffffffffffffffffffffffffffffffffffff1673ffffffffffffffffffffffffffffffffffffffff166108fc479081150290604051600060405180830381858888f1935050505015801561066f573d6000803e3d6000fd5b50565b6040518060400160405280600981526020017f52525420746f6b656e000000000000000000000000000000000000000000000081525081565b600081600360003373ffffffffffffffffffffffffffffffffffffffff1673ffffffffffffffffffffffffffffffffffffffff16815260200190815260200160002060008573ffffffffffffffffffffffffffffffffffffffff1673ffffffffffffffffffffffffffffffffffffffff168152602001908152602001600020819055508273ffffffffffffffffffffffffffffffffffffffff163373ffffffffffffffffffffffffffffffffffffffff167f8c5be1e5ebec7d5bd14f71427d1e84f3dd0314c0f7b2291e5b200ac8c7c3b9258460405161078b919061122a565b60405180910390a36001905092915050565b60005481565b600080821180156107f3575081600260008673ffffffffffffffffffffffffffffffffffffffff1673ffffffffffffffffffffffffffffffffffffffff1681526020019081526020016000205410155b801561087b575081600360008673ffffffffffffffffffffffffffffffffffffffff1673ffffffffffffffffffffffffffffffffffffffff16815260200190815260200160002060003373ffffffffffffffffffffffffffffffffffffffff1673ffffffffffffffffffffffffffffffffffffffff1681526020019081526020016000205410155b801561090f5750600260008473ffffffffffffffffffffffffffffffffffffffff1673ffffffffffffffffffffffffffffffffffffffff1681526020019081526020016000205482600260008673ffffffffffffffffffffffffffffffffffffffff1673ffffffffffffffffffffffffffffffffffffffff1681526020019081526020016000205461090d9190611468565b115b15610ac15781600260008673ffffffffffffffffffffffffffffffffffffffff1673ffffffffffffffffffffffffffffffffffffffff168152602001908152602001600020600082825461096391906113d4565b9250508190555081600360008673ffffffffffffffffffffffffffffffffffffffff1673ffffffffffffffffffffffffffffffffffffffff16815260200190815260200160002060003373ffffffffffffffffffffffffffffffffffffffff1673ffffffffffffffffffffffffffffffffffffffff16815260200190815260200160002060008282546109f691906113d4565b9250508190555081600260008573ffffffffffffffffffffffffffffffffffffffff1673ffffffffffffffffffffffffffffffffffffffff1681526020019081526020016000206000828254610a4c9190611468565b925050819055508273ffffffffffffffffffffffffffffffffffffffff168473ffffffffffffffffffffffffffffffffffffffff167fddf252ad1be2c89b69c2b068fc378daa952ba7f163c4a11628f55a4df523b3ef84604051610ab0919061122a565b60405180910390a360019050610ac6565b600090505b9392505050565b6040518060400160405280600381526020017f525254000000000000000000000000000000000000000000000000000000000081525081565b600081565b60008082118015610b5b575081600260003373ffffffffffffffffffffffffffffffffffffffff1673ffffffffffffffffffffffffffffffffffffffff1681526020019081526020016000205410155b15610c255781600260003373ffffffffffffffffffffffffffffffffffffffff1673ffffffffffffffffffffffffffffffffffffffff1681526020019081526020016000206000828254610baf91906113d4565b92505081905550600073ffffffffffffffffffffffffffffffffffffffff163373ffffffffffffffffffffffffffffffffffffffff167fddf252ad1be2c89b69c2b068fc378daa952ba7f163c4a11628f55a4df523b3ef84604051610c14919061122a565b60405180910390a360019050610c2a565b600080fd5b919050565b6000600260008373ffffffffffffffffffffffffffffffffffffffff1673ffffffffffffffffffffffffffffffffffffffff168152602001908152602001600020549050919050565b600160009054906101000a900473ffffffffffffffffffffffffffffffffffffffff1681565b60008082118015610cee575081600260003373ffffffffffffffffffffffffffffffffffffffff1673ffffffffffffffffffffffffffffffffffffffff1681526020019081526020016000205410155b8015610d825750600260008473ffffffffffffffffffffffffffffffffffffffff1673ffffffffffffffffffffffffffffffffffffffff1681526020019081526020016000205482600260008673ffffffffffffffffffffffffffffffffffffffff1673ffffffffffffffffffffffffffffffffffffffff16815260200190815260200160002054610d809190611468565b115b15610ea15781600260003373ffffffffffffffffffffffffffffffffffffffff1673ffffffffffffffffffffffffffffffffffffffff1681526020019081526020016000206000828254610dd691906113d4565b9250508190555081600260008573ffffffffffffffffffffffffffffffffffffffff1673ffffffffffffffffffffffffffffffffffffffff1681526020019081526020016000206000828254610e2c9190611468565b925050819055508273ffffffffffffffffffffffffffffffffffffffff163373ffffffffffffffffffffffffffffffffffffffff167fddf252ad1be2c89b69c2b068fc378daa952ba7f163c4a11628f55a4df523b3ef84604051610e90919061122a565b60405180910390a360019050610ea6565b600090505b92915050565b600047905090565b6000600360008473ffffffffffffffffffffffffffffffffffffffff1673ffffffffffffffffffffffffffffffffffffffff16815260200190815260200160002060008373ffffffffffffffffffffffffffffffffffffffff1673ffffffffffffffffffffffffffffffffffffffff16815260200190815260200160002054905092915050565b600073ffffffffffffffffffffffffffffffffffffffff82169050919050565b6000610f6682610f3b565b9050919050565b610f7681610f5b565b82525050565b6000819050919050565b610f8f81610f7c565b82525050565b600082825260208201905092915050565b7f72656365697665207761732063616c6c65640000000000000000000000000000600082015250565b6000610fdc601283610f95565b9150610fe782610fa6565b602082019050919050565b60006060820190506110076000830185610f6d565b6110146020830184610f86565b818103604083015261102581610fcf565b90509392505050565b7f66616c6c6261636b207761732063616c6c656400000000000000000000000000600082015250565b6000611064601383610f95565b915061106f8261102e565b602082019050919050565b600060608201905061108f6000830185610f6d565b61109c6020830184610f86565b81810360408301526110ad81611057565b90509392505050565b600081519050919050565b60005b838110156110df5780820151818401526020810190506110c4565b60008484015250505050565b6000601f19601f8301169050919050565b6000611107826110b6565b6111118185610f95565b93506111218185602086016110c1565b61112a816110eb565b840191505092915050565b6000602082019050818103600083015261114f81846110fc565b905092915050565b600080fd5b61116581610f5b565b811461117057600080fd5b50565b6000813590506111828161115c565b92915050565b61119181610f7c565b811461119c57600080fd5b50565b6000813590506111ae81611188565b92915050565b600080604083850312156111cb576111ca611157565b5b60006111d985828601611173565b92505060206111ea8582860161119f565b9150509250929050565b60008115159050919050565b611209816111f4565b82525050565b60006020820190506112246000830184611200565b92915050565b600060208201905061123f6000830184610f86565b92915050565b60008060006060848603121561125e5761125d611157565b5b600061126c86828701611173565b935050602061127d86828701611173565b925050604061128e8682870161119f565b9150509250925092565b600060ff82169050919050565b6112ae81611298565b82525050565b60006020820190506112c960008301846112a5565b92915050565b6000602082840312156112e5576112e4611157565b5b60006112f38482850161119f565b91505092915050565b60006020828403121561131257611311611157565b5b600061132084828501611173565b91505092915050565b600061133482610f3b565b9050919050565b61134481611329565b82525050565b600060208201905061135f600083018461133b565b92915050565b6000806040838503121561137c5761137b611157565b5b600061138a85828601611173565b925050602061139b85828601611173565b9150509250929050565b7f4e487b7100000000000000000000000000000000000000000000000000000000600052601160045260246000fd5b60006113df82610f7c565b91506113ea83610f7c565b9250828203905081811115611402576114016113a5565b5b92915050565b6000819050919050565b6000819050919050565b600061143761143261142d84611408565b611412565b610f7c565b9050919050565b6114478161141c565b82525050565b6000602082019050611462600083018461143e565b92915050565b600061147382610f7c565b915061147e83610f7c565b9250828201905080821115611496576114956113a5565b5b9291505056fea2646970667358221220c528b64a6864533400a6a7a604240ea2271f8a404870fac49e7a2a005afd679464736f6c63430008130033",
					"opcodes": "PUSH1 0x80 PUSH1 0x40 MSTORE PUSH3 0x989680 PUSH1 0x0 SSTORE CALLVALUE DUP1 ISZERO PUSH2 0x17 JUMPI PUSH1 0x0 DUP1 REVERT JUMPDEST POP CALLER PUSH1 0x1 PUSH1 0x0 PUSH2 0x100 EXP DUP2 SLOAD DUP2 PUSH20 0xFFFFFFFFFFFFFFFFFFFFFFFFFFFFFFFFFFFFFFFF MUL NOT AND SWAP1 DUP4 PUSH20 0xFFFFFFFFFFFFFFFFFFFFFFFFFFFFFFFFFFFFFFFF AND MUL OR SWAP1 SSTORE POP PUSH2 0x14D2 DUP1 PUSH2 0x68 PUSH1 0x0 CODECOPY PUSH1 0x0 RETURN INVALID PUSH1 0x80 PUSH1 0x40 MSTORE PUSH1 0x4 CALLDATASIZE LT PUSH2 0xC6 JUMPI PUSH1 0x0 CALLDATALOAD PUSH1 0xE0 SHR DUP1 PUSH4 0x313CE567 GT PUSH2 0x7F JUMPI DUP1 PUSH4 0x8DA5CB5B GT PUSH2 0x59 JUMPI DUP1 PUSH4 0x8DA5CB5B EQ PUSH2 0x30A JUMPI DUP1 PUSH4 0xA9059CBB EQ PUSH2 0x335 JUMPI DUP1 PUSH4 0xBBD316EB EQ PUSH2 0x372 JUMPI DUP1 PUSH4 0xDD62ED3E EQ PUSH2 0x39D JUMPI PUSH2 0x10F JUMP JUMPDEST DUP1 PUSH4 0x313CE567 EQ PUSH2 0x265 JUMPI DUP1 PUSH4 0x42966C68 EQ PUSH2 0x290 JUMPI DUP1 PUSH4 0x70A08231 EQ PUSH2 0x2CD JUMPI PUSH2 0x10F JUMP JUMPDEST DUP1 PUSH4 0x64E8684 EQ PUSH2 0x153 JUMPI DUP1 PUSH4 0x6FDDE03 EQ PUSH2 0x16A JUMPI DUP1 PUSH4 0x95EA7B3 EQ PUSH2 0x195 JUMPI DUP1 PUSH4 0x18160DDD EQ PUSH2 0x1D2 JUMPI DUP1 PUSH4 0x23B872DD EQ PUSH2 0x1FD JUMPI DUP1 PUSH4 0x288152BB EQ PUSH2 0x23A JUMPI PUSH2 0x10F JUMP JUMPDEST CALLDATASIZE PUSH2 0x10F JUMPI PUSH2 0xD3 PUSH2 0x3DA JUMP JUMPDEST POP PUSH32 0x59E04C3F0D44B7CAF6E8EF854B61D9A51CF1960D7A88FF6356CC5E946B4B5832 CALLER CALLVALUE PUSH1 0x40 MLOAD PUSH2 0x105 SWAP3 SWAP2 SWAP1 PUSH2 0xFF2 JUMP JUMPDEST PUSH1 0x40 MLOAD DUP1 SWAP2 SUB SWAP1 LOG1 STOP JUMPDEST PUSH2 0x117 PUSH2 0x3DA JUMP JUMPDEST POP PUSH32 0x59E04C3F0D44B7CAF6E8EF854B61D9A51CF1960D7A88FF6356CC5E946B4B5832 CALLER CALLVALUE PUSH1 0x40 MLOAD PUSH2 0x149 SWAP3 SWAP2 SWAP1 PUSH2 0x107A JUMP JUMPDEST PUSH1 0x40 MLOAD DUP1 SWAP2 SUB SWAP1 LOG1 STOP JUMPDEST CALLVALUE DUP1 ISZERO PUSH2 0x15F JUMPI PUSH1 0x0 DUP1 REVERT JUMPDEST POP PUSH2 0x168 PUSH2 0x5AD JUMP JUMPDEST STOP JUMPDEST CALLVALUE DUP1 ISZERO PUSH2 0x176 JUMPI PUSH1 0x0 DUP1 REVERT JUMPDEST POP PUSH2 0x17F PUSH2 0x672 JUMP JUMPDEST PUSH1 0x40 MLOAD PUSH2 0x18C SWAP2 SWAP1 PUSH2 0x1135 JUMP JUMPDEST PUSH1 0x40 MLOAD DUP1 SWAP2 SUB SWAP1 RETURN JUMPDEST CALLVALUE DUP1 ISZERO PUSH2 0x1A1 JUMPI PUSH1 0x0 DUP1 REVERT JUMPDEST POP PUSH2 0x1BC PUSH1 0x4 DUP1 CALLDATASIZE SUB DUP2 ADD SWAP1 PUSH2 0x1B7 SWAP2 SWAP1 PUSH2 0x11B4 JUMP JUMPDEST PUSH2 0x6AB JUMP JUMPDEST PUSH1 0x40 MLOAD PUSH2 0x1C9 SWAP2 SWAP1 PUSH2 0x120F JUMP JUMPDEST PUSH1 0x40 MLOAD DUP1 SWAP2 SUB SWAP1 RETURN JUMPDEST CALLVALUE DUP1 ISZERO PUSH2 0x1DE JUMPI PUSH1 0x0 DUP1 REVERT JUMPDEST POP PUSH2 0x1E7 PUSH2 0x79D JUMP JUMPDEST PUSH1 0x40 MLOAD PUSH2 0x1F4 SWAP2 SWAP1 PUSH2 0x122A JUMP JUMPDEST PUSH1 0x40 MLOAD DUP1 SWAP2 SUB SWAP1 RETURN JUMPDEST CALLVALUE DUP1 ISZERO PUSH2 0x209 JUMPI PUSH1 0x0 DUP1 REVERT JUMPDEST POP PUSH2 0x224 PUSH1 0x4 DUP1 CALLDATASIZE SUB DUP2 ADD SWAP1 PUSH2 0x21F SWAP2 SWAP1 PUSH2 0x1245 JUMP JUMPDEST PUSH2 0x7A3 JUMP JUMPDEST PUSH1 0x40 MLOAD PUSH2 0x231 SWAP2 SWAP1 PUSH2 0x120F JUMP JUMPDEST PUSH1 0x40 MLOAD DUP1 SWAP2 SUB SWAP1 RETURN JUMPDEST CALLVALUE DUP1 ISZERO PUSH2 0x246 JUMPI PUSH1 0x0 DUP1 REVERT JUMPDEST POP PUSH2 0x24F PUSH2 0xACD JUMP JUMPDEST PUSH1 0x40 MLOAD PUSH2 0x25C SWAP2 SWAP1 PUSH2 0x1135 JUMP JUMPDEST PUSH1 0x40 MLOAD DUP1 SWAP2 SUB SWAP1 RETURN JUMPDEST CALLVALUE DUP1 ISZERO PUSH2 0x271 JUMPI PUSH1 0x0 DUP1 REVERT JUMPDEST POP PUSH2 0x27A PUSH2 0xB06 JUMP JUMPDEST PUSH1 0x40 MLOAD PUSH2 0x287 SWAP2 SWAP1 PUSH2 0x12B4 JUMP JUMPDEST PUSH1 0x40 MLOAD DUP1 SWAP2 SUB SWAP1 RETURN JUMPDEST CALLVALUE DUP1 ISZERO PUSH2 0x29C JUMPI PUSH1 0x0 DUP1 REVERT JUMPDEST POP PUSH2 0x2B7 PUSH1 0x4 DUP1 CALLDATASIZE SUB DUP2 ADD SWAP1 PUSH2 0x2B2 SWAP2 SWAP1 PUSH2 0x12CF JUMP JUMPDEST PUSH2 0xB0B JUMP JUMPDEST PUSH1 0x40 MLOAD PUSH2 0x2C4 SWAP2 SWAP1 PUSH2 0x120F JUMP JUMPDEST PUSH1 0x40 MLOAD DUP1 SWAP2 SUB SWAP1 RETURN JUMPDEST CALLVALUE DUP1 ISZERO PUSH2 0x2D9 JUMPI PUSH1 0x0 DUP1 REVERT JUMPDEST POP PUSH2 0x2F4 PUSH1 0x4 DUP1 CALLDATASIZE SUB DUP2 ADD SWAP1 PUSH2 0x2EF SWAP2 SWAP1 PUSH2 0x12FC JUMP JUMPDEST PUSH2 0xC2F JUMP JUMPDEST PUSH1 0x40 MLOAD PUSH2 0x301 SWAP2 SWAP1 PUSH2 0x122A JUMP JUMPDEST PUSH1 0x40 MLOAD DUP1 SWAP2 SUB SWAP1 RETURN JUMPDEST CALLVALUE DUP1 ISZERO PUSH2 0x316 JUMPI PUSH1 0x0 DUP1 REVERT JUMPDEST POP PUSH2 0x31F PUSH2 0xC78 JUMP JUMPDEST PUSH1 0x40 MLOAD PUSH2 0x32C SWAP2 SWAP1 PUSH2 0x134A JUMP JUMPDEST PUSH1 0x40 MLOAD DUP1 SWAP2 SUB SWAP1 RETURN JUMPDEST CALLVALUE DUP1 ISZERO PUSH2 0x341 JUMPI PUSH1 0x0 DUP1 REVERT JUMPDEST POP PUSH2 0x35C PUSH1 0x4 DUP1 CALLDATASIZE SUB DUP2 ADD SWAP1 PUSH2 0x357 SWAP2 SWAP1 PUSH2 0x11B4 JUMP JUMPDEST PUSH2 0xC9E JUMP JUMPDEST PUSH1 0x40 MLOAD PUSH2 0x369 SWAP2 SWAP1 PUSH2 0x120F JUMP JUMPDEST PUSH1 0x40 MLOAD DUP1 SWAP2 SUB SWAP1 RETURN JUMPDEST CALLVALUE DUP1 ISZERO PUSH2 0x37E JUMPI PUSH1 0x0 DUP1 REVERT JUMPDEST POP PUSH2 0x387 PUSH2 0xEAC JUMP JUMPDEST PUSH1 0x40 MLOAD PUSH2 0x394 SWAP2 SWAP1 PUSH2 0x122A JUMP JUMPDEST PUSH1 0x40 MLOAD DUP1 SWAP2 SUB SWAP1 RETURN JUMPDEST CALLVALUE DUP1 ISZERO PUSH2 0x3A9 JUMPI PUSH1 0x0 DUP1 REVERT JUMPDEST POP PUSH2 0x3C4 PUSH1 0x4 DUP1 CALLDATASIZE SUB DUP2 ADD SWAP1 PUSH2 0x3BF SWAP2 SWAP1 PUSH2 0x1365 JUMP JUMPDEST PUSH2 0xEB4 JUMP JUMPDEST PUSH1 0x40 MLOAD PUSH2 0x3D1 SWAP2 SWAP1 PUSH2 0x122A JUMP JUMPDEST PUSH1 0x40 MLOAD DUP1 SWAP2 SUB SWAP1 RETURN JUMPDEST PUSH1 0x0 DUP1 PUSH1 0x0 SLOAD GT DUP1 ISZERO PUSH2 0x42C JUMPI POP PUSH1 0x0 PUSH1 0x2 PUSH1 0x0 CALLER PUSH20 0xFFFFFFFFFFFFFFFFFFFFFFFFFFFFFFFFFFFFFFFF AND PUSH20 0xFFFFFFFFFFFFFFFFFFFFFFFFFFFFFFFFFFFFFFFF AND DUP2 MSTORE PUSH1 0x20 ADD SWAP1 DUP2 MSTORE PUSH1 0x20 ADD PUSH1 0x0 KECCAK256 SLOAD EQ JUMPDEST DUP1 ISZERO PUSH2 0x43E JUMPI POP PUSH7 0x38D7EA4C68000 CALLVALUE EQ JUMPDEST DUP1 ISZERO PUSH2 0x48A JUMPI POP PUSH2 0x3E8 PUSH1 0x4 PUSH1 0x0 CALLER PUSH20 0xFFFFFFFFFFFFFFFFFFFFFFFFFFFFFFFFFFFFFFFF AND PUSH20 0xFFFFFFFFFFFFFFFFFFFFFFFFFFFFFFFFFFFFFFFF AND DUP2 MSTORE PUSH1 0x20 ADD SWAP1 DUP2 MSTORE PUSH1 0x20 ADD PUSH1 0x0 KECCAK256 SLOAD LT JUMPDEST ISZERO PUSH2 0x5A5 JUMPI PUSH2 0x3E8 PUSH1 0x0 DUP1 DUP3 DUP3 SLOAD PUSH2 0x4A2 SWAP2 SWAP1 PUSH2 0x13D4 JUMP JUMPDEST SWAP3 POP POP DUP2 SWAP1 SSTORE POP PUSH2 0x3E8 PUSH1 0x2 PUSH1 0x0 CALLER PUSH20 0xFFFFFFFFFFFFFFFFFFFFFFFFFFFFFFFFFFFFFFFF AND PUSH20 0xFFFFFFFFFFFFFFFFFFFFFFFFFFFFFFFFFFFFFFFF AND DUP2 MSTORE PUSH1 0x20 ADD SWAP1 DUP2 MSTORE PUSH1 0x20 ADD PUSH1 0x0 KECCAK256 DUP2 SWAP1 SSTORE POP PUSH2 0x3E8 PUSH1 0x4 PUSH1 0x0 CALLER PUSH20 0xFFFFFFFFFFFFFFFFFFFFFFFFFFFFFFFFFFFFFFFF AND PUSH20 0xFFFFFFFFFFFFFFFFFFFFFFFFFFFFFFFFFFFFFFFF AND DUP2 MSTORE PUSH1 0x20 ADD SWAP1 DUP2 MSTORE PUSH1 0x20 ADD PUSH1 0x0 KECCAK256 DUP2 SWAP1 SSTORE POP CALLER PUSH20 0xFFFFFFFFFFFFFFFFFFFFFFFFFFFFFFFFFFFFFFFF AND ADDRESS PUSH20 0xFFFFFFFFFFFFFFFFFFFFFFFFFFFFFFFFFFFFFFFF AND PUSH32 0xDDF252AD1BE2C89B69C2B068FC378DAA952BA7F163C4A11628F55A4DF523B3EF PUSH2 0x3E8 PUSH1 0x40 MLOAD PUSH2 0x594 SWAP2 SWAP1 PUSH2 0x144D JUMP JUMPDEST PUSH1 0x40 MLOAD DUP1 SWAP2 SUB SWAP1 LOG3 PUSH1 0x1 SWAP1 POP PUSH2 0x5AA JUMP JUMPDEST PUSH1 0x0 DUP1 REVERT JUMPDEST SWAP1 JUMP JUMPDEST PUSH1 0x1 PUSH1 0x0 SWAP1 SLOAD SWAP1 PUSH2 0x100 EXP SWAP1 DIV PUSH20 0xFFFFFFFFFFFFFFFFFFFFFFFFFFFFFFFFFFFFFFFF AND PUSH20 0xFFFFFFFFFFFFFFFFFFFFFFFFFFFFFFFFFFFFFFFF AND CALLER PUSH20 0xFFFFFFFFFFFFFFFFFFFFFFFFFFFFFFFFFFFFFFFF AND EQ PUSH2 0x607 JUMPI PUSH1 0x0 DUP1 REVERT JUMPDEST PUSH1 0x1 PUSH1 0x0 SWAP1 SLOAD SWAP1 PUSH2 0x100 EXP SWAP1 DIV PUSH20 0xFFFFFFFFFFFFFFFFFFFFFFFFFFFFFFFFFFFFFFFF AND PUSH20 0xFFFFFFFFFFFFFFFFFFFFFFFFFFFFFFFFFFFFFFFF AND PUSH2 0x8FC SELFBALANCE SWAP1 DUP2 ISZERO MUL SWAP1 PUSH1 0x40 MLOAD PUSH1 0x0 PUSH1 0x40 MLOAD DUP1 DUP4 SUB DUP2 DUP6 DUP9 DUP9 CALL SWAP4 POP POP POP POP ISZERO DUP1 ISZERO PUSH2 0x66F JUMPI RETURNDATASIZE PUSH1 0x0 DUP1 RETURNDATACOPY RETURNDATASIZE PUSH1 0x0 REVERT JUMPDEST POP JUMP JUMPDEST PUSH1 0x40 MLOAD DUP1 PUSH1 0x40 ADD PUSH1 0x40 MSTORE DUP1 PUSH1 0x9 DUP2 MSTORE PUSH1 0x20 ADD PUSH32 0x52525420746F6B656E0000000000000000000000000000000000000000000000 DUP2 MSTORE POP DUP2 JUMP JUMPDEST PUSH1 0x0 DUP2 PUSH1 0x3 PUSH1 0x0 CALLER PUSH20 0xFFFFFFFFFFFFFFFFFFFFFFFFFFFFFFFFFFFFFFFF AND PUSH20 0xFFFFFFFFFFFFFFFFFFFFFFFFFFFFFFFFFFFFFFFF AND DUP2 MSTORE PUSH1 0x20 ADD SWAP1 DUP2 MSTORE PUSH1 0x20 ADD PUSH1 0x0 KECCAK256 PUSH1 0x0 DUP6 PUSH20 0xFFFFFFFFFFFFFFFFFFFFFFFFFFFFFFFFFFFFFFFF AND PUSH20 0xFFFFFFFFFFFFFFFFFFFFFFFFFFFFFFFFFFFFFFFF AND DUP2 MSTORE PUSH1 0x20 ADD SWAP1 DUP2 MSTORE PUSH1 0x20 ADD PUSH1 0x0 KECCAK256 DUP2 SWAP1 SSTORE POP DUP3 PUSH20 0xFFFFFFFFFFFFFFFFFFFFFFFFFFFFFFFFFFFFFFFF AND CALLER PUSH20 0xFFFFFFFFFFFFFFFFFFFFFFFFFFFFFFFFFFFFFFFF AND PUSH32 0x8C5BE1E5EBEC7D5BD14F71427D1E84F3DD0314C0F7B2291E5B200AC8C7C3B925 DUP5 PUSH1 0x40 MLOAD PUSH2 0x78B SWAP2 SWAP1 PUSH2 0x122A JUMP JUMPDEST PUSH1 0x40 MLOAD DUP1 SWAP2 SUB SWAP1 LOG3 PUSH1 0x1 SWAP1 POP SWAP3 SWAP2 POP POP JUMP JUMPDEST PUSH1 0x0 SLOAD DUP2 JUMP JUMPDEST PUSH1 0x0 DUP1 DUP3 GT DUP1 ISZERO PUSH2 0x7F3 JUMPI POP DUP2 PUSH1 0x2 PUSH1 0x0 DUP7 PUSH20 0xFFFFFFFFFFFFFFFFFFFFFFFFFFFFFFFFFFFFFFFF AND PUSH20 0xFFFFFFFFFFFFFFFFFFFFFFFFFFFFFFFFFFFFFFFF AND DUP2 MSTORE PUSH1 0x20 ADD SWAP1 DUP2 MSTORE PUSH1 0x20 ADD PUSH1 0x0 KECCAK256 SLOAD LT ISZERO JUMPDEST DUP1 ISZERO PUSH2 0x87B JUMPI POP DUP2 PUSH1 0x3 PUSH1 0x0 DUP7 PUSH20 0xFFFFFFFFFFFFFFFFFFFFFFFFFFFFFFFFFFFFFFFF AND PUSH20 0xFFFFFFFFFFFFFFFFFFFFFFFFFFFFFFFFFFFFFFFF AND DUP2 MSTORE PUSH1 0x20 ADD SWAP1 DUP2 MSTORE PUSH1 0x20 ADD PUSH1 0x0 KECCAK256 PUSH1 0x0 CALLER PUSH20 0xFFFFFFFFFFFFFFFFFFFFFFFFFFFFFFFFFFFFFFFF AND PUSH20 0xFFFFFFFFFFFFFFFFFFFFFFFFFFFFFFFFFFFFFFFF AND DUP2 MSTORE PUSH1 0x20 ADD SWAP1 DUP2 MSTORE PUSH1 0x20 ADD PUSH1 0x0 KECCAK256 SLOAD LT ISZERO JUMPDEST DUP1 ISZERO PUSH2 0x90F JUMPI POP PUSH1 0x2 PUSH1 0x0 DUP5 PUSH20 0xFFFFFFFFFFFFFFFFFFFFFFFFFFFFFFFFFFFFFFFF AND PUSH20 0xFFFFFFFFFFFFFFFFFFFFFFFFFFFFFFFFFFFFFFFF AND DUP2 MSTORE PUSH1 0x20 ADD SWAP1 DUP2 MSTORE PUSH1 0x20 ADD PUSH1 0x0 KECCAK256 SLOAD DUP3 PUSH1 0x2 PUSH1 0x0 DUP7 PUSH20 0xFFFFFFFFFFFFFFFFFFFFFFFFFFFFFFFFFFFFFFFF AND PUSH20 0xFFFFFFFFFFFFFFFFFFFFFFFFFFFFFFFFFFFFFFFF AND DUP2 MSTORE PUSH1 0x20 ADD SWAP1 DUP2 MSTORE PUSH1 0x20 ADD PUSH1 0x0 KECCAK256 SLOAD PUSH2 0x90D SWAP2 SWAP1 PUSH2 0x1468 JUMP JUMPDEST GT JUMPDEST ISZERO PUSH2 0xAC1 JUMPI DUP2 PUSH1 0x2 PUSH1 0x0 DUP7 PUSH20 0xFFFFFFFFFFFFFFFFFFFFFFFFFFFFFFFFFFFFFFFF AND PUSH20 0xFFFFFFFFFFFFFFFFFFFFFFFFFFFFFFFFFFFFFFFF AND DUP2 MSTORE PUSH1 0x20 ADD SWAP1 DUP2 MSTORE PUSH1 0x20 ADD PUSH1 0x0 KECCAK256 PUSH1 0x0 DUP3 DUP3 SLOAD PUSH2 0x963 SWAP2 SWAP1 PUSH2 0x13D4 JUMP JUMPDEST SWAP3 POP POP DUP2 SWAP1 SSTORE POP DUP2 PUSH1 0x3 PUSH1 0x0 DUP7 PUSH20 0xFFFFFFFFFFFFFFFFFFFFFFFFFFFFFFFFFFFFFFFF AND PUSH20 0xFFFFFFFFFFFFFFFFFFFFFFFFFFFFFFFFFFFFFFFF AND DUP2 MSTORE PUSH1 0x20 ADD SWAP1 DUP2 MSTORE PUSH1 0x20 ADD PUSH1 0x0 KECCAK256 PUSH1 0x0 CALLER PUSH20 0xFFFFFFFFFFFFFFFFFFFFFFFFFFFFFFFFFFFFFFFF AND PUSH20 0xFFFFFFFFFFFFFFFFFFFFFFFFFFFFFFFFFFFFFFFF AND DUP2 MSTORE PUSH1 0x20 ADD SWAP1 DUP2 MSTORE PUSH1 0x20 ADD PUSH1 0x0 KECCAK256 PUSH1 0x0 DUP3 DUP3 SLOAD PUSH2 0x9F6 SWAP2 SWAP1 PUSH2 0x13D4 JUMP JUMPDEST SWAP3 POP POP DUP2 SWAP1 SSTORE POP DUP2 PUSH1 0x2 PUSH1 0x0 DUP6 PUSH20 0xFFFFFFFFFFFFFFFFFFFFFFFFFFFFFFFFFFFFFFFF AND PUSH20 0xFFFFFFFFFFFFFFFFFFFFFFFFFFFFFFFFFFFFFFFF AND DUP2 MSTORE PUSH1 0x20 ADD SWAP1 DUP2 MSTORE PUSH1 0x20 ADD PUSH1 0x0 KECCAK256 PUSH1 0x0 DUP3 DUP3 SLOAD PUSH2 0xA4C SWAP2 SWAP1 PUSH2 0x1468 JUMP JUMPDEST SWAP3 POP POP DUP2 SWAP1 SSTORE POP DUP3 PUSH20 0xFFFFFFFFFFFFFFFFFFFFFFFFFFFFFFFFFFFFFFFF AND DUP5 PUSH20 0xFFFFFFFFFFFFFFFFFFFFFFFFFFFFFFFFFFFFFFFF AND PUSH32 0xDDF252AD1BE2C89B69C2B068FC378DAA952BA7F163C4A11628F55A4DF523B3EF DUP5 PUSH1 0x40 MLOAD PUSH2 0xAB0 SWAP2 SWAP1 PUSH2 0x122A JUMP JUMPDEST PUSH1 0x40 MLOAD DUP1 SWAP2 SUB SWAP1 LOG3 PUSH1 0x1 SWAP1 POP PUSH2 0xAC6 JUMP JUMPDEST PUSH1 0x0 SWAP1 POP JUMPDEST SWAP4 SWAP3 POP POP POP JUMP JUMPDEST PUSH1 0x40 MLOAD DUP1 PUSH1 0x40 ADD PUSH1 0x40 MSTORE DUP1 PUSH1 0x3 DUP2 MSTORE PUSH1 0x20 ADD PUSH32 0x5252540000000000000000000000000000000000000000000000000000000000 DUP2 MSTORE POP DUP2 JUMP JUMPDEST PUSH1 0x0 DUP2 JUMP JUMPDEST PUSH1 0x0 DUP1 DUP3 GT DUP1 ISZERO PUSH2 0xB5B JUMPI POP DUP2 PUSH1 0x2 PUSH1 0x0 CALLER PUSH20 0xFFFFFFFFFFFFFFFFFFFFFFFFFFFFFFFFFFFFFFFF AND PUSH20 0xFFFFFFFFFFFFFFFFFFFFFFFFFFFFFFFFFFFFFFFF AND DUP2 MSTORE PUSH1 0x20 ADD SWAP1 DUP2 MSTORE PUSH1 0x20 ADD PUSH1 0x0 KECCAK256 SLOAD LT ISZERO JUMPDEST ISZERO PUSH2 0xC25 JUMPI DUP2 PUSH1 0x2 PUSH1 0x0 CALLER PUSH20 0xFFFFFFFFFFFFFFFFFFFFFFFFFFFFFFFFFFFFFFFF AND PUSH20 0xFFFFFFFFFFFFFFFFFFFFFFFFFFFFFFFFFFFFFFFF AND DUP2 MSTORE PUSH1 0x20 ADD SWAP1 DUP2 MSTORE PUSH1 0x20 ADD PUSH1 0x0 KECCAK256 PUSH1 0x0 DUP3 DUP3 SLOAD PUSH2 0xBAF SWAP2 SWAP1 PUSH2 0x13D4 JUMP JUMPDEST SWAP3 POP POP DUP2 SWAP1 SSTORE POP PUSH1 0x0 PUSH20 0xFFFFFFFFFFFFFFFFFFFFFFFFFFFFFFFFFFFFFFFF AND CALLER PUSH20 0xFFFFFFFFFFFFFFFFFFFFFFFFFFFFFFFFFFFFFFFF AND PUSH32 0xDDF252AD1BE2C89B69C2B068FC378DAA952BA7F163C4A11628F55A4DF523B3EF DUP5 PUSH1 0x40 MLOAD PUSH2 0xC14 SWAP2 SWAP1 PUSH2 0x122A JUMP JUMPDEST PUSH1 0x40 MLOAD DUP1 SWAP2 SUB SWAP1 LOG3 PUSH1 0x1 SWAP1 POP PUSH2 0xC2A JUMP JUMPDEST PUSH1 0x0 DUP1 REVERT JUMPDEST SWAP2 SWAP1 POP JUMP JUMPDEST PUSH1 0x0 PUSH1 0x2 PUSH1 0x0 DUP4 PUSH20 0xFFFFFFFFFFFFFFFFFFFFFFFFFFFFFFFFFFFFFFFF AND PUSH20 0xFFFFFFFFFFFFFFFFFFFFFFFFFFFFFFFFFFFFFFFF AND DUP2 MSTORE PUSH1 0x20 ADD SWAP1 DUP2 MSTORE PUSH1 0x20 ADD PUSH1 0x0 KECCAK256 SLOAD SWAP1 POP SWAP2 SWAP1 POP JUMP JUMPDEST PUSH1 0x1 PUSH1 0x0 SWAP1 SLOAD SWAP1 PUSH2 0x100 EXP SWAP1 DIV PUSH20 0xFFFFFFFFFFFFFFFFFFFFFFFFFFFFFFFFFFFFFFFF AND DUP2 JUMP JUMPDEST PUSH1 0x0 DUP1 DUP3 GT DUP1 ISZERO PUSH2 0xCEE JUMPI POP DUP2 PUSH1 0x2 PUSH1 0x0 CALLER PUSH20 0xFFFFFFFFFFFFFFFFFFFFFFFFFFFFFFFFFFFFFFFF AND PUSH20 0xFFFFFFFFFFFFFFFFFFFFFFFFFFFFFFFFFFFFFFFF AND DUP2 MSTORE PUSH1 0x20 ADD SWAP1 DUP2 MSTORE PUSH1 0x20 ADD PUSH1 0x0 KECCAK256 SLOAD LT ISZERO JUMPDEST DUP1 ISZERO PUSH2 0xD82 JUMPI POP PUSH1 0x2 PUSH1 0x0 DUP5 PUSH20 0xFFFFFFFFFFFFFFFFFFFFFFFFFFFFFFFFFFFFFFFF AND PUSH20 0xFFFFFFFFFFFFFFFFFFFFFFFFFFFFFFFFFFFFFFFF AND DUP2 MSTORE PUSH1 0x20 ADD SWAP1 DUP2 MSTORE PUSH1 0x20 ADD PUSH1 0x0 KECCAK256 SLOAD DUP3 PUSH1 0x2 PUSH1 0x0 DUP7 PUSH20 0xFFFFFFFFFFFFFFFFFFFFFFFFFFFFFFFFFFFFFFFF AND PUSH20 0xFFFFFFFFFFFFFFFFFFFFFFFFFFFFFFFFFFFFFFFF AND DUP2 MSTORE PUSH1 0x20 ADD SWAP1 DUP2 MSTORE PUSH1 0x20 ADD PUSH1 0x0 KECCAK256 SLOAD PUSH2 0xD80 SWAP2 SWAP1 PUSH2 0x1468 JUMP JUMPDEST GT JUMPDEST ISZERO PUSH2 0xEA1 JUMPI DUP2 PUSH1 0x2 PUSH1 0x0 CALLER PUSH20 0xFFFFFFFFFFFFFFFFFFFFFFFFFFFFFFFFFFFFFFFF AND PUSH20 0xFFFFFFFFFFFFFFFFFFFFFFFFFFFFFFFFFFFFFFFF AND DUP2 MSTORE PUSH1 0x20 ADD SWAP1 DUP2 MSTORE PUSH1 0x20 ADD PUSH1 0x0 KECCAK256 PUSH1 0x0 DUP3 DUP3 SLOAD PUSH2 0xDD6 SWAP2 SWAP1 PUSH2 0x13D4 JUMP JUMPDEST SWAP3 POP POP DUP2 SWAP1 SSTORE POP DUP2 PUSH1 0x2 PUSH1 0x0 DUP6 PUSH20 0xFFFFFFFFFFFFFFFFFFFFFFFFFFFFFFFFFFFFFFFF AND PUSH20 0xFFFFFFFFFFFFFFFFFFFFFFFFFFFFFFFFFFFFFFFF AND DUP2 MSTORE PUSH1 0x20 ADD SWAP1 DUP2 MSTORE PUSH1 0x20 ADD PUSH1 0x0 KECCAK256 PUSH1 0x0 DUP3 DUP3 SLOAD PUSH2 0xE2C SWAP2 SWAP1 PUSH2 0x1468 JUMP JUMPDEST SWAP3 POP POP DUP2 SWAP1 SSTORE POP DUP3 PUSH20 0xFFFFFFFFFFFFFFFFFFFFFFFFFFFFFFFFFFFFFFFF AND CALLER PUSH20 0xFFFFFFFFFFFFFFFFFFFFFFFFFFFFFFFFFFFFFFFF AND PUSH32 0xDDF252AD1BE2C89B69C2B068FC378DAA952BA7F163C4A11628F55A4DF523B3EF DUP5 PUSH1 0x40 MLOAD PUSH2 0xE90 SWAP2 SWAP1 PUSH2 0x122A JUMP JUMPDEST PUSH1 0x40 MLOAD DUP1 SWAP2 SUB SWAP1 LOG3 PUSH1 0x1 SWAP1 POP PUSH2 0xEA6 JUMP JUMPDEST PUSH1 0x0 SWAP1 POP JUMPDEST SWAP3 SWAP2 POP POP JUMP JUMPDEST PUSH1 0x0 SELFBALANCE SWAP1 POP SWAP1 JUMP JUMPDEST PUSH1 0x0 PUSH1 0x3 PUSH1 0x0 DUP5 PUSH20 0xFFFFFFFFFFFFFFFFFFFFFFFFFFFFFFFFFFFFFFFF AND PUSH20 0xFFFFFFFFFFFFFFFFFFFFFFFFFFFFFFFFFFFFFFFF AND DUP2 MSTORE PUSH1 0x20 ADD SWAP1 DUP2 MSTORE PUSH1 0x20 ADD PUSH1 0x0 KECCAK256 PUSH1 0x0 DUP4 PUSH20 0xFFFFFFFFFFFFFFFFFFFFFFFFFFFFFFFFFFFFFFFF AND PUSH20 0xFFFFFFFFFFFFFFFFFFFFFFFFFFFFFFFFFFFFFFFF AND DUP2 MSTORE PUSH1 0x20 ADD SWAP1 DUP2 MSTORE PUSH1 0x20 ADD PUSH1 0x0 KECCAK256 SLOAD SWAP1 POP SWAP3 SWAP2 POP POP JUMP JUMPDEST PUSH1 0x0 PUSH20 0xFFFFFFFFFFFFFFFFFFFFFFFFFFFFFFFFFFFFFFFF DUP3 AND SWAP1 POP SWAP2 SWAP1 POP JUMP JUMPDEST PUSH1 0x0 PUSH2 0xF66 DUP3 PUSH2 0xF3B JUMP JUMPDEST SWAP1 POP SWAP2 SWAP1 POP JUMP JUMPDEST PUSH2 0xF76 DUP2 PUSH2 0xF5B JUMP JUMPDEST DUP3 MSTORE POP POP JUMP JUMPDEST PUSH1 0x0 DUP2 SWAP1 POP SWAP2 SWAP1 POP JUMP JUMPDEST PUSH2 0xF8F DUP2 PUSH2 0xF7C JUMP JUMPDEST DUP3 MSTORE POP POP JUMP JUMPDEST PUSH1 0x0 DUP3 DUP3 MSTORE PUSH1 0x20 DUP3 ADD SWAP1 POP SWAP3 SWAP2 POP POP JUMP JUMPDEST PUSH32 0x72656365697665207761732063616C6C65640000000000000000000000000000 PUSH1 0x0 DUP3 ADD MSTORE POP JUMP JUMPDEST PUSH1 0x0 PUSH2 0xFDC PUSH1 0x12 DUP4 PUSH2 0xF95 JUMP JUMPDEST SWAP2 POP PUSH2 0xFE7 DUP3 PUSH2 0xFA6 JUMP JUMPDEST PUSH1 0x20 DUP3 ADD SWAP1 POP SWAP2 SWAP1 POP JUMP JUMPDEST PUSH1 0x0 PUSH1 0x60 DUP3 ADD SWAP1 POP PUSH2 0x1007 PUSH1 0x0 DUP4 ADD DUP6 PUSH2 0xF6D JUMP JUMPDEST PUSH2 0x1014 PUSH1 0x20 DUP4 ADD DUP5 PUSH2 0xF86 JUMP JUMPDEST DUP2 DUP2 SUB PUSH1 0x40 DUP4 ADD MSTORE PUSH2 0x1025 DUP2 PUSH2 0xFCF JUMP JUMPDEST SWAP1 POP SWAP4 SWAP3 POP POP POP JUMP JUMPDEST PUSH32 0x66616C6C6261636B207761732063616C6C656400000000000000000000000000 PUSH1 0x0 DUP3 ADD MSTORE POP JUMP JUMPDEST PUSH1 0x0 PUSH2 0x1064 PUSH1 0x13 DUP4 PUSH2 0xF95 JUMP JUMPDEST SWAP2 POP PUSH2 0x106F DUP3 PUSH2 0x102E JUMP JUMPDEST PUSH1 0x20 DUP3 ADD SWAP1 POP SWAP2 SWAP1 POP JUMP JUMPDEST PUSH1 0x0 PUSH1 0x60 DUP3 ADD SWAP1 POP PUSH2 0x108F PUSH1 0x0 DUP4 ADD DUP6 PUSH2 0xF6D JUMP JUMPDEST PUSH2 0x109C PUSH1 0x20 DUP4 ADD DUP5 PUSH2 0xF86 JUMP JUMPDEST DUP2 DUP2 SUB PUSH1 0x40 DUP4 ADD MSTORE PUSH2 0x10AD DUP2 PUSH2 0x1057 JUMP JUMPDEST SWAP1 POP SWAP4 SWAP3 POP POP POP JUMP JUMPDEST PUSH1 0x0 DUP2 MLOAD SWAP1 POP SWAP2 SWAP1 POP JUMP JUMPDEST PUSH1 0x0 JUMPDEST DUP4 DUP2 LT ISZERO PUSH2 0x10DF JUMPI DUP1 DUP3 ADD MLOAD DUP2 DUP5 ADD MSTORE PUSH1 0x20 DUP2 ADD SWAP1 POP PUSH2 0x10C4 JUMP JUMPDEST PUSH1 0x0 DUP5 DUP5 ADD MSTORE POP POP POP POP JUMP JUMPDEST PUSH1 0x0 PUSH1 0x1F NOT PUSH1 0x1F DUP4 ADD AND SWAP1 POP SWAP2 SWAP1 POP JUMP JUMPDEST PUSH1 0x0 PUSH2 0x1107 DUP3 PUSH2 0x10B6 JUMP JUMPDEST PUSH2 0x1111 DUP2 DUP6 PUSH2 0xF95 JUMP JUMPDEST SWAP4 POP PUSH2 0x1121 DUP2 DUP6 PUSH1 0x20 DUP7 ADD PUSH2 0x10C1 JUMP JUMPDEST PUSH2 0x112A DUP2 PUSH2 0x10EB JUMP JUMPDEST DUP5 ADD SWAP2 POP POP SWAP3 SWAP2 POP POP JUMP JUMPDEST PUSH1 0x0 PUSH1 0x20 DUP3 ADD SWAP1 POP DUP2 DUP2 SUB PUSH1 0x0 DUP4 ADD MSTORE PUSH2 0x114F DUP2 DUP5 PUSH2 0x10FC JUMP JUMPDEST SWAP1 POP SWAP3 SWAP2 POP POP JUMP JUMPDEST PUSH1 0x0 DUP1 REVERT JUMPDEST PUSH2 0x1165 DUP2 PUSH2 0xF5B JUMP JUMPDEST DUP2 EQ PUSH2 0x1170 JUMPI PUSH1 0x0 DUP1 REVERT JUMPDEST POP JUMP JUMPDEST PUSH1 0x0 DUP2 CALLDATALOAD SWAP1 POP PUSH2 0x1182 DUP2 PUSH2 0x115C JUMP JUMPDEST SWAP3 SWAP2 POP POP JUMP JUMPDEST PUSH2 0x1191 DUP2 PUSH2 0xF7C JUMP JUMPDEST DUP2 EQ PUSH2 0x119C JUMPI PUSH1 0x0 DUP1 REVERT JUMPDEST POP JUMP JUMPDEST PUSH1 0x0 DUP2 CALLDATALOAD SWAP1 POP PUSH2 0x11AE DUP2 PUSH2 0x1188 JUMP JUMPDEST SWAP3 SWAP2 POP POP JUMP JUMPDEST PUSH1 0x0 DUP1 PUSH1 0x40 DUP4 DUP6 SUB SLT ISZERO PUSH2 0x11CB JUMPI PUSH2 0x11CA PUSH2 0x1157 JUMP JUMPDEST JUMPDEST PUSH1 0x0 PUSH2 0x11D9 DUP6 DUP3 DUP7 ADD PUSH2 0x1173 JUMP JUMPDEST SWAP3 POP POP PUSH1 0x20 PUSH2 0x11EA DUP6 DUP3 DUP7 ADD PUSH2 0x119F JUMP JUMPDEST SWAP2 POP POP SWAP3 POP SWAP3 SWAP1 POP JUMP JUMPDEST PUSH1 0x0 DUP2 ISZERO ISZERO SWAP1 POP SWAP2 SWAP1 POP JUMP JUMPDEST PUSH2 0x1209 DUP2 PUSH2 0x11F4 JUMP JUMPDEST DUP3 MSTORE POP POP JUMP JUMPDEST PUSH1 0x0 PUSH1 0x20 DUP3 ADD SWAP1 POP PUSH2 0x1224 PUSH1 0x0 DUP4 ADD DUP5 PUSH2 0x1200 JUMP JUMPDEST SWAP3 SWAP2 POP POP JUMP JUMPDEST PUSH1 0x0 PUSH1 0x20 DUP3 ADD SWAP1 POP PUSH2 0x123F PUSH1 0x0 DUP4 ADD DUP5 PUSH2 0xF86 JUMP JUMPDEST SWAP3 SWAP2 POP POP JUMP JUMPDEST PUSH1 0x0 DUP1 PUSH1 0x0 PUSH1 0x60 DUP5 DUP7 SUB SLT ISZERO PUSH2 0x125E JUMPI PUSH2 0x125D PUSH2 0x1157 JUMP JUMPDEST JUMPDEST PUSH1 0x0 PUSH2 0x126C DUP7 DUP3 DUP8 ADD PUSH2 0x1173 JUMP JUMPDEST SWAP4 POP POP PUSH1 0x20 PUSH2 0x127D DUP7 DUP3 DUP8 ADD PUSH2 0x1173 JUMP JUMPDEST SWAP3 POP POP PUSH1 0x40 PUSH2 0x128E DUP7 DUP3 DUP8 ADD PUSH2 0x119F JUMP JUMPDEST SWAP2 POP POP SWAP3 POP SWAP3 POP SWAP3 JUMP JUMPDEST PUSH1 0x0 PUSH1 0xFF DUP3 AND SWAP1 POP SWAP2 SWAP1 POP JUMP JUMPDEST PUSH2 0x12AE DUP2 PUSH2 0x1298 JUMP JUMPDEST DUP3 MSTORE POP POP JUMP JUMPDEST PUSH1 0x0 PUSH1 0x20 DUP3 ADD SWAP1 POP PUSH2 0x12C9 PUSH1 0x0 DUP4 ADD DUP5 PUSH2 0x12A5 JUMP JUMPDEST SWAP3 SWAP2 POP POP JUMP JUMPDEST PUSH1 0x0 PUSH1 0x20 DUP3 DUP5 SUB SLT ISZERO PUSH2 0x12E5 JUMPI PUSH2 0x12E4 PUSH2 0x1157 JUMP JUMPDEST JUMPDEST PUSH1 0x0 PUSH2 0x12F3 DUP5 DUP3 DUP6 ADD PUSH2 0x119F JUMP JUMPDEST SWAP2 POP POP SWAP3 SWAP2 POP POP JUMP JUMPDEST PUSH1 0x0 PUSH1 0x20 DUP3 DUP5 SUB SLT ISZERO PUSH2 0x1312 JUMPI PUSH2 0x1311 PUSH2 0x1157 JUMP JUMPDEST JUMPDEST PUSH1 0x0 PUSH2 0x1320 DUP5 DUP3 DUP6 ADD PUSH2 0x1173 JUMP JUMPDEST SWAP2 POP POP SWAP3 SWAP2 POP POP JUMP JUMPDEST PUSH1 0x0 PUSH2 0x1334 DUP3 PUSH2 0xF3B JUMP JUMPDEST SWAP1 POP SWAP2 SWAP1 POP JUMP JUMPDEST PUSH2 0x1344 DUP2 PUSH2 0x1329 JUMP JUMPDEST DUP3 MSTORE POP POP JUMP JUMPDEST PUSH1 0x0 PUSH1 0x20 DUP3 ADD SWAP1 POP PUSH2 0x135F PUSH1 0x0 DUP4 ADD DUP5 PUSH2 0x133B JUMP JUMPDEST SWAP3 SWAP2 POP POP JUMP JUMPDEST PUSH1 0x0 DUP1 PUSH1 0x40 DUP4 DUP6 SUB SLT ISZERO PUSH2 0x137C JUMPI PUSH2 0x137B PUSH2 0x1157 JUMP JUMPDEST JUMPDEST PUSH1 0x0 PUSH2 0x138A DUP6 DUP3 DUP7 ADD PUSH2 0x1173 JUMP JUMPDEST SWAP3 POP POP PUSH1 0x20 PUSH2 0x139B DUP6 DUP3 DUP7 ADD PUSH2 0x1173 JUMP JUMPDEST SWAP2 POP POP SWAP3 POP SWAP3 SWAP1 POP JUMP JUMPDEST PUSH32 0x4E487B7100000000000000000000000000000000000000000000000000000000 PUSH1 0x0 MSTORE PUSH1 0x11 PUSH1 0x4 MSTORE PUSH1 0x24 PUSH1 0x0 REVERT JUMPDEST PUSH1 0x0 PUSH2 0x13DF DUP3 PUSH2 0xF7C JUMP JUMPDEST SWAP2 POP PUSH2 0x13EA DUP4 PUSH2 0xF7C JUMP JUMPDEST SWAP3 POP DUP3 DUP3 SUB SWAP1 POP DUP2 DUP2 GT ISZERO PUSH2 0x1402 JUMPI PUSH2 0x1401 PUSH2 0x13A5 JUMP JUMPDEST JUMPDEST SWAP3 SWAP2 POP POP JUMP JUMPDEST PUSH1 0x0 DUP2 SWAP1 POP SWAP2 SWAP1 POP JUMP JUMPDEST PUSH1 0x0 DUP2 SWAP1 POP SWAP2 SWAP1 POP JUMP JUMPDEST PUSH1 0x0 PUSH2 0x1437 PUSH2 0x1432 PUSH2 0x142D DUP5 PUSH2 0x1408 JUMP JUMPDEST PUSH2 0x1412 JUMP JUMPDEST PUSH2 0xF7C JUMP JUMPDEST SWAP1 POP SWAP2 SWAP1 POP JUMP JUMPDEST PUSH2 0x1447 DUP2 PUSH2 0x141C JUMP JUMPDEST DUP3 MSTORE POP POP JUMP JUMPDEST PUSH1 0x0 PUSH1 0x20 DUP3 ADD SWAP1 POP PUSH2 0x1462 PUSH1 0x0 DUP4 ADD DUP5 PUSH2 0x143E JUMP JUMPDEST SWAP3 SWAP2 POP POP JUMP JUMPDEST PUSH1 0x0 PUSH2 0x1473 DUP3 PUSH2 0xF7C JUMP JUMPDEST SWAP2 POP PUSH2 0x147E DUP4 PUSH2 0xF7C JUMP JUMPDEST SWAP3 POP DUP3 DUP3 ADD SWAP1 POP DUP1 DUP3 GT ISZERO PUSH2 0x1496 JUMPI PUSH2 0x1495 PUSH2 0x13A5 JUMP JUMPDEST JUMPDEST SWAP3 SWAP2 POP POP JUMP INVALID LOG2 PUSH5 0x6970667358 0x22 SLT KECCAK256 0xC5 0x28 0xB6 0x4A PUSH9 0x64533400A6A7A60424 0xE LOG2 0x27 0x1F DUP11 BLOCKHASH BASEFEE PUSH17 0xFAC49E7A2A005AFD679464736F6C634300 ADDMOD SGT STOP CALLER "
				},
				"gasEstimates": {
					"creation": {
						"codeDepositCost": "1066000",
						"executionCost": "47479",
						"totalCost": "1113479"
					},
					"external": {
						"": "infinite",
						"allowance(address,address)": "infinite",
						"approve(address,uint256)": "infinite",
						"balanceOf(address)": "2908",
						"burn(uint256)": "infinite",
						"contractETH()": "405",
						"decimals()": "358",
						"icoEnding()": "infinite",
						"name()": "infinite",
						"owner()": "2536",
						"symble()": "infinite",
						"totalSupply()": "2496",
						"transfer(address,uint256)": "infinite",
						"transferFrom(address,address,uint256)": "infinite"
					},
					"internal": {
						"paytoken()": "infinite"
					}
				},
				"methodIdentifiers": {
					"allowance(address,address)": "dd62ed3e",
					"approve(address,uint256)": "095ea7b3",
					"balanceOf(address)": "70a08231",
					"burn(uint256)": "42966c68",
					"contractETH()": "bbd316eb",
					"decimals()": "313ce567",
					"icoEnding()": "064e8684",
					"name()": "06fdde03",
					"owner()": "8da5cb5b",
					"symble()": "288152bb",
					"totalSupply()": "18160ddd",
					"transfer(address,uint256)": "a9059cbb",
					"transferFrom(address,address,uint256)": "23b872dd"
				}
			},
			"storageLayout": {
				"storage": [
					{
						"astId": 13,
						"contract": "contracts/ERC20token.sol:ERC20token",
						"label": "totalSupply",
						"offset": 0,
						"slot": "0",
						"type": "t_uint256"
					},
					{
						"astId": 15,
						"contract": "contracts/ERC20token.sol:ERC20token",
						"label": "owner",
						"offset": 0,
						"slot": "1",
						"type": "t_address_payable"
					},
					{
						"astId": 19,
						"contract": "contracts/ERC20token.sol:ERC20token",
						"label": "balances",
						"offset": 0,
						"slot": "2",
						"type": "t_mapping(t_address,t_uint256)"
					},
					{
						"astId": 25,
						"contract": "contracts/ERC20token.sol:ERC20token",
						"label": "allowed",
						"offset": 0,
						"slot": "3",
						"type": "t_mapping(t_address,t_mapping(t_address,t_uint256))"
					},
					{
						"astId": 29,
						"contract": "contracts/ERC20token.sol:ERC20token",
						"label": "complete",
						"offset": 0,
						"slot": "4",
						"type": "t_mapping(t_address,t_uint256)"
					}
				],
				"types": {
					"t_address": {
						"encoding": "inplace",
						"label": "address",
						"numberOfBytes": "20"
					},
					"t_address_payable": {
						"encoding": "inplace",
						"label": "address payable",
						"numberOfBytes": "20"
					},
					"t_mapping(t_address,t_mapping(t_address,t_uint256))": {
						"encoding": "mapping",
						"key": "t_address",
						"label": "mapping(address => mapping(address => uint256))",
						"numberOfBytes": "32",
						"value": "t_mapping(t_address,t_uint256)"
					},
					"t_mapping(t_address,t_uint256)": {
						"encoding": "mapping",
						"key": "t_address",
						"label": "mapping(address => uint256)",
						"numberOfBytes": "32",
						"value": "t_uint256"
					},
					"t_uint256": {
						"encoding": "inplace",
						"label": "uint256",
						"numberOfBytes": "32"
					}
				}
			},
			"userdoc": {
				"kind": "user",
				"methods": {},
				"version": 1
			}
		}
	}
}