{
	"contracts/Students.sol": {
		"StudentInfo": {
			"abi": [
				{
					"inputs": [],
					"stateMutability": "nonpayable",
					"type": "constructor"
				},
				{
					"inputs": [
						{
							"internalType": "uint256",
							"name": "_id",
							"type": "uint256"
						},
						{
							"internalType": "address",
							"name": "_account",
							"type": "address"
						},
						{
							"internalType": "string",
							"name": "_phone",
							"type": "string"
						},
						{
							"internalType": "string",
							"name": "_email",
							"type": "string"
						}
					],
					"name": "addStudent",
					"outputs": [],
					"stateMutability": "nonpayable",
					"type": "function"
				},
				{
					"inputs": [
						{
							"internalType": "uint256",
							"name": "_id",
							"type": "uint256"
						}
					],
					"name": "deleteStudent",
					"outputs": [],
					"stateMutability": "nonpayable",
					"type": "function"
				},
				{
					"inputs": [
						{
							"internalType": "uint256",
							"name": "_index",
							"type": "uint256"
						}
					],
					"name": "getStudent",
					"outputs": [
						{
							"internalType": "uint256",
							"name": "",
							"type": "uint256"
						},
						{
							"internalType": "address",
							"name": "",
							"type": "address"
						},
						{
							"internalType": "string",
							"name": "",
							"type": "string"
						},
						{
							"internalType": "string",
							"name": "",
							"type": "string"
						}
					],
					"stateMutability": "view",
					"type": "function"
				},
				{
					"inputs": [
						{
							"internalType": "uint256",
							"name": "_id",
							"type": "uint256"
						}
					],
					"name": "getStudentById",
					"outputs": [
						{
							"internalType": "uint256",
							"name": "",
							"type": "uint256"
						},
						{
							"internalType": "address",
							"name": "",
							"type": "address"
						},
						{
							"internalType": "string",
							"name": "",
							"type": "string"
						},
						{
							"internalType": "string",
							"name": "",
							"type": "string"
						}
					],
					"stateMutability": "view",
					"type": "function"
				},
				{
					"inputs": [
						{
							"internalType": "address",
							"name": "_account",
							"type": "address"
						}
					],
					"name": "getStudentIndexByAccount",
					"outputs": [
						{
							"internalType": "uint256",
							"name": "",
							"type": "uint256"
						}
					],
					"stateMutability": "view",
					"type": "function"
				},
				{
					"inputs": [
						{
							"internalType": "uint256",
							"name": "_id",
							"type": "uint256"
						}
					],
					"name": "getStudentIndexById",
					"outputs": [
						{
							"internalType": "uint256",
							"name": "",
							"type": "uint256"
						}
					],
					"stateMutability": "view",
					"type": "function"
				},
				{
					"inputs": [
						{
							"internalType": "uint256",
							"name": "_id",
							"type": "uint256"
						},
						{
							"internalType": "address",
							"name": "_account",
							"type": "address"
						},
						{
							"internalType": "string",
							"name": "_phone",
							"type": "string"
						},
						{
							"internalType": "string",
							"name": "_email",
							"type": "string"
						}
					],
					"name": "updateStudent",
					"outputs": [],
					"stateMutability": "nonpayable",
					"type": "function"
				}
			],
			"devdoc": {
				"kind": "dev",
				"methods": {},
				"version": 1
			},
			"evm": {
				"assembly": "    /* \"contracts/Students.sol\":67:3994  contract StudentInfo {... */\n  mstore(0x40, 0x80)\n    /* \"contracts/Students.sol\":576:723  constructor() {... */\n  callvalue\n  dup1\n  iszero\n  tag_1\n  jumpi\n  0x00\n  dup1\n  revert\ntag_1:\n  pop\n    /* \"contracts/Students.sol\":609:619  msg.sender */\n  caller\n    /* \"contracts/Students.sol\":601:606  owner */\n  0x03\n  0x00\n    /* \"contracts/Students.sol\":601:619  owner = msg.sender */\n  0x0100\n  exp\n  dup2\n  sload\n  dup2\n  0xffffffffffffffffffffffffffffffffffffffff\n  mul\n  not\n  and\n  swap1\n  dup4\n  0xffffffffffffffffffffffffffffffffffffffff\n  and\n  mul\n  or\n  swap1\n  sstore\n  pop\n    /* \"contracts/Students.sol\":687:688  0 */\n  0x00\n    /* \"contracts/Students.sol\":673:684  numStudents */\n  0x02\n    /* \"contracts/Students.sol\":673:688  numStudents = 0 */\n  dup2\n  swap1\n  sstore\n  pop\n    /* \"contracts/Students.sol\":67:3994  contract StudentInfo {... */\n  dataSize(sub_0)\n  dup1\n  dataOffset(sub_0)\n  0x00\n  codecopy\n  0x00\n  return\nstop\n\nsub_0: assembly {\n        /* \"contracts/Students.sol\":67:3994  contract StudentInfo {... */\n      mstore(0x40, 0x80)\n      callvalue\n      dup1\n      iszero\n      tag_1\n      jumpi\n      0x00\n      dup1\n      revert\n    tag_1:\n      pop\n      jumpi(tag_2, lt(calldatasize, 0x04))\n      shr(0xe0, calldataload(0x00))\n      dup1\n      0xc4c75bb2\n      gt\n      tag_10\n      jumpi\n      dup1\n      0xc4c75bb2\n      eq\n      tag_6\n      jumpi\n      dup1\n      0xc61aa564\n      eq\n      tag_7\n      jumpi\n      dup1\n      0xc8fb0793\n      eq\n      tag_8\n      jumpi\n      dup1\n      0xe56a05a5\n      eq\n      tag_9\n      jumpi\n      jump(tag_2)\n    tag_10:\n      dup1\n      0x642f9163\n      eq\n      tag_3\n      jumpi\n      dup1\n      0xa9870632\n      eq\n      tag_4\n      jumpi\n      dup1\n      0xb645307d\n      eq\n      tag_5\n      jumpi\n    tag_2:\n      0x00\n      dup1\n      revert\n        /* \"contracts/Students.sol\":2182:2475  function getStudent(uint _index) public view returns (uint, address, string memory, string memory) {... */\n    tag_3:\n      tag_11\n      0x04\n      dup1\n      calldatasize\n      sub\n      dup2\n      add\n      swap1\n      tag_12\n      swap2\n      swap1\n      tag_13\n      jump\t// in\n    tag_12:\n      tag_14\n      jump\t// in\n    tag_11:\n      mload(0x40)\n      tag_15\n      swap5\n      swap4\n      swap3\n      swap2\n      swap1\n      tag_16\n      jump\t// in\n    tag_15:\n      mload(0x40)\n      dup1\n      swap2\n      sub\n      swap1\n      return\n        /* \"contracts/Students.sol\":2841:3226  function updateStudent(uint _id, address _account, string memory _phone, string memory _email) public onlyOwner {... */\n    tag_4:\n      tag_17\n      0x04\n      dup1\n      calldatasize\n      sub\n      dup2\n      add\n      swap1\n      tag_18\n      swap2\n      swap1\n      tag_19\n      jump\t// in\n    tag_18:\n      tag_20\n      jump\t// in\n    tag_17:\n      stop\n        /* \"contracts/Students.sol\":3284:3991  function deleteStudent(uint _id) public onlyOwner {... */\n    tag_5:\n      tag_21\n      0x04\n      dup1\n      calldatasize\n      sub\n      dup2\n      add\n      swap1\n      tag_22\n      swap2\n      swap1\n      tag_13\n      jump\t// in\n    tag_22:\n      tag_23\n      jump\t// in\n    tag_21:\n      stop\n        /* \"contracts/Students.sol\":1805:2135  function getStudentIndexById(uint _id) public view returns (uint) {... */\n    tag_6:\n      tag_24\n      0x04\n      dup1\n      calldatasize\n      sub\n      dup2\n      add\n      swap1\n      tag_25\n      swap2\n      swap1\n      tag_13\n      jump\t// in\n    tag_25:\n      tag_26\n      jump\t// in\n    tag_24:\n      mload(0x40)\n      tag_27\n      swap2\n      swap1\n      tag_28\n      jump\t// in\n    tag_27:\n      mload(0x40)\n      dup1\n      swap2\n      sub\n      swap1\n      return\n        /* \"contracts/Students.sol\":1478:1752  function getStudentIndexByAccount(address _account) public view returns (uint) {... */\n    tag_7:\n      tag_29\n      0x04\n      dup1\n      calldatasize\n      sub\n      dup2\n      add\n      swap1\n      tag_30\n      swap2\n      swap1\n      tag_31\n      jump\t// in\n    tag_30:\n      tag_32\n      jump\t// in\n    tag_29:\n      mload(0x40)\n      tag_33\n      swap2\n      swap1\n      tag_28\n      jump\t// in\n    tag_33:\n      mload(0x40)\n      dup1\n      swap2\n      sub\n      swap1\n      return\n        /* \"contracts/Students.sol\":2522:2772  function getStudentById(uint _id) public view returns (uint, address, string memory, string memory) {... */\n    tag_8:\n      tag_34\n      0x04\n      dup1\n      calldatasize\n      sub\n      dup2\n      add\n      swap1\n      tag_35\n      swap2\n      swap1\n      tag_13\n      jump\t// in\n    tag_35:\n      tag_36\n      jump\t// in\n    tag_34:\n      mload(0x40)\n      tag_37\n      swap5\n      swap4\n      swap3\n      swap2\n      swap1\n      tag_16\n      jump\t// in\n    tag_37:\n      mload(0x40)\n      dup1\n      swap2\n      sub\n      swap1\n      return\n        /* \"contracts/Students.sol\":965:1420  function addStudent(uint _id, address _account, string memory _phone, string memory _email) public onlyOwner {... */\n    tag_9:\n      tag_38\n      0x04\n      dup1\n      calldatasize\n      sub\n      dup2\n      add\n      swap1\n      tag_39\n      swap2\n      swap1\n      tag_19\n      jump\t// in\n    tag_39:\n      tag_40\n      jump\t// in\n    tag_38:\n      stop\n        /* \"contracts/Students.sol\":2182:2475  function getStudent(uint _index) public view returns (uint, address, string memory, string memory) {... */\n    tag_14:\n        /* \"contracts/Students.sol\":2236:2240  uint */\n      0x00\n        /* \"contracts/Students.sol\":2242:2249  address */\n      dup1\n        /* \"contracts/Students.sol\":2251:2264  string memory */\n      0x60\n        /* \"contracts/Students.sol\":2266:2279  string memory */\n      dup1\n        /* \"contracts/Students.sol\":2309:2310  0 */\n      0x00\n        /* \"contracts/Students.sol\":2300:2306  _index */\n      dup6\n        /* \"contracts/Students.sol\":2300:2310  _index > 0 */\n      gt\n        /* \"contracts/Students.sol\":2300:2335  _index > 0 && _index <= numStudents */\n      dup1\n      iszero\n      tag_42\n      jumpi\n      pop\n        /* \"contracts/Students.sol\":2324:2335  numStudents */\n      sload(0x02)\n        /* \"contracts/Students.sol\":2314:2320  _index */\n      dup6\n        /* \"contracts/Students.sol\":2314:2335  _index <= numStudents */\n      gt\n      iszero\n        /* \"contracts/Students.sol\":2300:2335  _index > 0 && _index <= numStudents */\n    tag_42:\n        /* \"contracts/Students.sol\":2292:2354  require(_index > 0 && _index <= numStudents, \"Invalid index.\") */\n      tag_43\n      jumpi\n      mload(0x40)\n      0x08c379a000000000000000000000000000000000000000000000000000000000\n      dup2\n      mstore\n      0x04\n      add\n      tag_44\n      swap1\n      tag_45\n      jump\t// in\n    tag_44:\n      mload(0x40)\n      dup1\n      swap2\n      sub\n      swap1\n      revert\n    tag_43:\n        /* \"contracts/Students.sol\":2373:2381  students */\n      0x01\n        /* \"contracts/Students.sol\":2373:2389  students[_index] */\n      0x00\n        /* \"contracts/Students.sol\":2382:2388  _index */\n      dup7\n        /* \"contracts/Students.sol\":2373:2389  students[_index] */\n      dup2\n      mstore\n      0x20\n      add\n      swap1\n      dup2\n      mstore\n      0x20\n      add\n      0x00\n      keccak256\n        /* \"contracts/Students.sol\":2373:2392  students[_index].id */\n      0x00\n      add\n      sload\n        /* \"contracts/Students.sol\":2394:2402  students */\n      0x01\n        /* \"contracts/Students.sol\":2394:2410  students[_index] */\n      0x00\n        /* \"contracts/Students.sol\":2403:2409  _index */\n      dup8\n        /* \"contracts/Students.sol\":2394:2410  students[_index] */\n      dup2\n      mstore\n      0x20\n      add\n      swap1\n      dup2\n      mstore\n      0x20\n      add\n      0x00\n      keccak256\n        /* \"contracts/Students.sol\":2394:2418  students[_index].account */\n      0x01\n      add\n      0x00\n      swap1\n      sload\n      swap1\n      0x0100\n      exp\n      swap1\n      div\n      0xffffffffffffffffffffffffffffffffffffffff\n      and\n        /* \"contracts/Students.sol\":2420:2428  students */\n      0x01\n        /* \"contracts/Students.sol\":2420:2436  students[_index] */\n      0x00\n        /* \"contracts/Students.sol\":2429:2435  _index */\n      dup9\n        /* \"contracts/Students.sol\":2420:2436  students[_index] */\n      dup2\n      mstore\n      0x20\n      add\n      swap1\n      dup2\n      mstore\n      0x20\n      add\n      0x00\n      keccak256\n        /* \"contracts/Students.sol\":2420:2442  students[_index].phone */\n      0x02\n      add\n        /* \"contracts/Students.sol\":2444:2452  students */\n      0x01\n        /* \"contracts/Students.sol\":2444:2460  students[_index] */\n      0x00\n        /* \"contracts/Students.sol\":2453:2459  _index */\n      dup10\n        /* \"contracts/Students.sol\":2444:2460  students[_index] */\n      dup2\n      mstore\n      0x20\n      add\n      swap1\n      dup2\n      mstore\n      0x20\n      add\n      0x00\n      keccak256\n        /* \"contracts/Students.sol\":2444:2466  students[_index].email */\n      0x03\n      add\n        /* \"contracts/Students.sol\":2365:2467  return (students[_index].id, students[_index].account, students[_index].phone, students[_index].email) */\n      dup2\n      dup1\n      sload\n      tag_46\n      swap1\n      tag_47\n      jump\t// in\n    tag_46:\n      dup1\n      0x1f\n      add\n      0x20\n      dup1\n      swap2\n      div\n      mul\n      0x20\n      add\n      mload(0x40)\n      swap1\n      dup2\n      add\n      0x40\n      mstore\n      dup1\n      swap3\n      swap2\n      swap1\n      dup2\n      dup2\n      mstore\n      0x20\n      add\n      dup3\n      dup1\n      sload\n      tag_48\n      swap1\n      tag_47\n      jump\t// in\n    tag_48:\n      dup1\n      iszero\n      tag_49\n      jumpi\n      dup1\n      0x1f\n      lt\n      tag_50\n      jumpi\n      0x0100\n      dup1\n      dup4\n      sload\n      div\n      mul\n      dup4\n      mstore\n      swap2\n      0x20\n      add\n      swap2\n      jump(tag_49)\n    tag_50:\n      dup3\n      add\n      swap2\n      swap1\n      0x00\n      mstore\n      keccak256(0x00, 0x20)\n      swap1\n    tag_51:\n      dup2\n      sload\n      dup2\n      mstore\n      swap1\n      0x01\n      add\n      swap1\n      0x20\n      add\n      dup1\n      dup4\n      gt\n      tag_51\n      jumpi\n      dup3\n      swap1\n      sub\n      0x1f\n      and\n      dup3\n      add\n      swap2\n    tag_49:\n      pop\n      pop\n      pop\n      pop\n      pop\n      swap2\n      pop\n      dup1\n      dup1\n      sload\n      tag_52\n      swap1\n      tag_47\n      jump\t// in\n    tag_52:\n      dup1\n      0x1f\n      add\n      0x20\n      dup1\n      swap2\n      div\n      mul\n      0x20\n      add\n      mload(0x40)\n      swap1\n      dup2\n      add\n      0x40\n      mstore\n      dup1\n      swap3\n      swap2\n      swap1\n      dup2\n      dup2\n      mstore\n      0x20\n      add\n      dup3\n      dup1\n      sload\n      tag_53\n      swap1\n      tag_47\n      jump\t// in\n    tag_53:\n      dup1\n      iszero\n      tag_54\n      jumpi\n      dup1\n      0x1f\n      lt\n      tag_55\n      jumpi\n      0x0100\n      dup1\n      dup4\n      sload\n      div\n      mul\n      dup4\n      mstore\n      swap2\n      0x20\n      add\n      swap2\n      jump(tag_54)\n    tag_55:\n      dup3\n      add\n      swap2\n      swap1\n      0x00\n      mstore\n      keccak256(0x00, 0x20)\n      swap1\n    tag_56:\n      dup2\n      sload\n      dup2\n      mstore\n      swap1\n      0x01\n      add\n      swap1\n      0x20\n      add\n      dup1\n      dup4\n      gt\n      tag_56\n      jumpi\n      dup3\n      swap1\n      sub\n      0x1f\n      and\n      dup3\n      add\n      swap2\n    tag_54:\n      pop\n      pop\n      pop\n      pop\n      pop\n      swap1\n      pop\n      swap4\n      pop\n      swap4\n      pop\n      swap4\n      pop\n      swap4\n      pop\n        /* \"contracts/Students.sol\":2182:2475  function getStudent(uint _index) public view returns (uint, address, string memory, string memory) {... */\n      swap2\n      swap4\n      pop\n      swap2\n      swap4\n      jump\t// out\n        /* \"contracts/Students.sol\":2841:3226  function updateStudent(uint _id, address _account, string memory _phone, string memory _email) public onlyOwner {... */\n    tag_20:\n        /* \"contracts/Students.sol\":849:854  owner */\n      0x03\n      0x00\n      swap1\n      sload\n      swap1\n      0x0100\n      exp\n      swap1\n      div\n      0xffffffffffffffffffffffffffffffffffffffff\n      and\n        /* \"contracts/Students.sol\":835:854  msg.sender == owner */\n      0xffffffffffffffffffffffffffffffffffffffff\n      and\n        /* \"contracts/Students.sol\":835:845  msg.sender */\n      caller\n        /* \"contracts/Students.sol\":835:854  msg.sender == owner */\n      0xffffffffffffffffffffffffffffffffffffffff\n      and\n      eq\n        /* \"contracts/Students.sol\":827:893  require(msg.sender == owner, \"Only owner can call this function.\") */\n      tag_58\n      jumpi\n      mload(0x40)\n      0x08c379a000000000000000000000000000000000000000000000000000000000\n      dup2\n      mstore\n      0x04\n      add\n      tag_59\n      swap1\n      tag_60\n      jump\t// in\n    tag_59:\n      mload(0x40)\n      dup1\n      swap2\n      sub\n      swap1\n      revert\n    tag_58:\n        /* \"contracts/Students.sol\":2964:2974  uint index */\n      0x00\n        /* \"contracts/Students.sol\":2977:3001  getStudentIndexById(_id) */\n      tag_62\n        /* \"contracts/Students.sol\":2997:3000  _id */\n      dup6\n        /* \"contracts/Students.sol\":2977:2996  getStudentIndexById */\n      tag_26\n        /* \"contracts/Students.sol\":2977:3001  getStudentIndexById(_id) */\n      jump\t// in\n    tag_62:\n        /* \"contracts/Students.sol\":2964:3001  uint index = getStudentIndexById(_id) */\n      swap1\n      pop\n        /* \"contracts/Students.sol\":3075:3083  _account */\n      dup4\n        /* \"contracts/Students.sol\":3049:3057  students */\n      0x01\n        /* \"contracts/Students.sol\":3049:3064  students[index] */\n      0x00\n        /* \"contracts/Students.sol\":3058:3063  index */\n      dup4\n        /* \"contracts/Students.sol\":3049:3064  students[index] */\n      dup2\n      mstore\n      0x20\n      add\n      swap1\n      dup2\n      mstore\n      0x20\n      add\n      0x00\n      keccak256\n        /* \"contracts/Students.sol\":3049:3072  students[index].account */\n      0x01\n      add\n      0x00\n        /* \"contracts/Students.sol\":3049:3083  students[index].account = _account */\n      0x0100\n      exp\n      dup2\n      sload\n      dup2\n      0xffffffffffffffffffffffffffffffffffffffff\n      mul\n      not\n      and\n      swap1\n      dup4\n      0xffffffffffffffffffffffffffffffffffffffff\n      and\n      mul\n      or\n      swap1\n      sstore\n      pop\n        /* \"contracts/Students.sol\":3139:3145  _phone */\n      dup3\n        /* \"contracts/Students.sol\":3115:3123  students */\n      0x01\n        /* \"contracts/Students.sol\":3115:3130  students[index] */\n      0x00\n        /* \"contracts/Students.sol\":3124:3129  index */\n      dup4\n        /* \"contracts/Students.sol\":3115:3130  students[index] */\n      dup2\n      mstore\n      0x20\n      add\n      swap1\n      dup2\n      mstore\n      0x20\n      add\n      0x00\n      keccak256\n        /* \"contracts/Students.sol\":3115:3136  students[index].phone */\n      0x02\n      add\n        /* \"contracts/Students.sol\":3115:3145  students[index].phone = _phone */\n      swap1\n      dup2\n      tag_63\n      swap2\n      swap1\n      tag_64\n      jump\t// in\n    tag_63:\n      pop\n        /* \"contracts/Students.sol\":3196:3202  _email */\n      dup2\n        /* \"contracts/Students.sol\":3172:3180  students */\n      0x01\n        /* \"contracts/Students.sol\":3172:3187  students[index] */\n      0x00\n        /* \"contracts/Students.sol\":3181:3186  index */\n      dup4\n        /* \"contracts/Students.sol\":3172:3187  students[index] */\n      dup2\n      mstore\n      0x20\n      add\n      swap1\n      dup2\n      mstore\n      0x20\n      add\n      0x00\n      keccak256\n        /* \"contracts/Students.sol\":3172:3193  students[index].email */\n      0x03\n      add\n        /* \"contracts/Students.sol\":3172:3202  students[index].email = _email */\n      swap1\n      dup2\n      tag_65\n      swap2\n      swap1\n      tag_64\n      jump\t// in\n    tag_65:\n      pop\n        /* \"contracts/Students.sol\":2953:3226  {... */\n      pop\n        /* \"contracts/Students.sol\":2841:3226  function updateStudent(uint _id, address _account, string memory _phone, string memory _email) public onlyOwner {... */\n      pop\n      pop\n      pop\n      pop\n      jump\t// out\n        /* \"contracts/Students.sol\":3284:3991  function deleteStudent(uint _id) public onlyOwner {... */\n    tag_23:\n        /* \"contracts/Students.sol\":849:854  owner */\n      0x03\n      0x00\n      swap1\n      sload\n      swap1\n      0x0100\n      exp\n      swap1\n      div\n      0xffffffffffffffffffffffffffffffffffffffff\n      and\n        /* \"contracts/Students.sol\":835:854  msg.sender == owner */\n      0xffffffffffffffffffffffffffffffffffffffff\n      and\n        /* \"contracts/Students.sol\":835:845  msg.sender */\n      caller\n        /* \"contracts/Students.sol\":835:854  msg.sender == owner */\n      0xffffffffffffffffffffffffffffffffffffffff\n      and\n      eq\n        /* \"contracts/Students.sol\":827:893  require(msg.sender == owner, \"Only owner can call this function.\") */\n      tag_67\n      jumpi\n      mload(0x40)\n      0x08c379a000000000000000000000000000000000000000000000000000000000\n      dup2\n      mstore\n      0x04\n      add\n      tag_68\n      swap1\n      tag_60\n      jump\t// in\n    tag_68:\n      mload(0x40)\n      dup1\n      swap2\n      sub\n      swap1\n      revert\n    tag_67:\n        /* \"contracts/Students.sol\":3345:3355  uint index */\n      0x00\n        /* \"contracts/Students.sol\":3358:3382  getStudentIndexById(_id) */\n      tag_70\n        /* \"contracts/Students.sol\":3378:3381  _id */\n      dup3\n        /* \"contracts/Students.sol\":3358:3377  getStudentIndexById */\n      tag_26\n        /* \"contracts/Students.sol\":3358:3382  getStudentIndexById(_id) */\n      jump\t// in\n    tag_70:\n        /* \"contracts/Students.sol\":3345:3382  uint index = getStudentIndexById(_id) */\n      swap1\n      pop\n        /* \"contracts/Students.sol\":3435:3441  uint i */\n      0x00\n        /* \"contracts/Students.sol\":3444:3449  index */\n      dup2\n        /* \"contracts/Students.sol\":3435:3449  uint i = index */\n      swap1\n      pop\n        /* \"contracts/Students.sol\":3430:3754  for (uint i = index ; i<numStudents ; i++){... */\n    tag_71:\n        /* \"contracts/Students.sol\":3454:3465  numStudents */\n      sload(0x02)\n        /* \"contracts/Students.sol\":3452:3453  i */\n      dup2\n        /* \"contracts/Students.sol\":3452:3465  i<numStudents */\n      lt\n        /* \"contracts/Students.sol\":3430:3754  for (uint i = index ; i<numStudents ; i++){... */\n      iszero\n      tag_72\n      jumpi\n        /* \"contracts/Students.sol\":3527:3528  i */\n      dup1\n        /* \"contracts/Students.sol\":3487:3501  accountToIndex */\n      0x00\n        /* \"contracts/Students.sol\":3487:3524  accountToIndex[students[i+1].account] */\n      dup1\n        /* \"contracts/Students.sol\":3502:3510  students */\n      0x01\n        /* \"contracts/Students.sol\":3502:3515  students[i+1] */\n      0x00\n        /* \"contracts/Students.sol\":3513:3514  1 */\n      0x01\n        /* \"contracts/Students.sol\":3511:3512  i */\n      dup7\n        /* \"contracts/Students.sol\":3511:3514  i+1 */\n      tag_74\n      swap2\n      swap1\n      tag_75\n      jump\t// in\n    tag_74:\n        /* \"contracts/Students.sol\":3502:3515  students[i+1] */\n      dup2\n      mstore\n      0x20\n      add\n      swap1\n      dup2\n      mstore\n      0x20\n      add\n      0x00\n      keccak256\n        /* \"contracts/Students.sol\":3502:3523  students[i+1].account */\n      0x01\n      add\n      0x00\n      swap1\n      sload\n      swap1\n      0x0100\n      exp\n      swap1\n      div\n      0xffffffffffffffffffffffffffffffffffffffff\n      and\n        /* \"contracts/Students.sol\":3487:3524  accountToIndex[students[i+1].account] */\n      0xffffffffffffffffffffffffffffffffffffffff\n      and\n      0xffffffffffffffffffffffffffffffffffffffff\n      and\n      dup2\n      mstore\n      0x20\n      add\n      swap1\n      dup2\n      mstore\n      0x20\n      add\n      0x00\n      keccak256\n        /* \"contracts/Students.sol\":3487:3528  accountToIndex[students[i+1].account] = i */\n      dup2\n      swap1\n      sstore\n      pop\n        /* \"contracts/Students.sol\":3560:3568  students */\n      0x01\n        /* \"contracts/Students.sol\":3560:3573  students[i+1] */\n      0x00\n        /* \"contracts/Students.sol\":3571:3572  1 */\n      0x01\n        /* \"contracts/Students.sol\":3569:3570  i */\n      dup4\n        /* \"contracts/Students.sol\":3569:3572  i+1 */\n      tag_76\n      swap2\n      swap1\n      tag_75\n      jump\t// in\n    tag_76:\n        /* \"contracts/Students.sol\":3560:3573  students[i+1] */\n      dup2\n      mstore\n      0x20\n      add\n      swap1\n      dup2\n      mstore\n      0x20\n      add\n      0x00\n      keccak256\n        /* \"contracts/Students.sol\":3560:3576  students[i+1].id */\n      0x00\n      add\n      sload\n        /* \"contracts/Students.sol\":3543:3551  students */\n      0x01\n        /* \"contracts/Students.sol\":3543:3554  students[i] */\n      0x00\n        /* \"contracts/Students.sol\":3552:3553  i */\n      dup4\n        /* \"contracts/Students.sol\":3543:3554  students[i] */\n      dup2\n      mstore\n      0x20\n      add\n      swap1\n      dup2\n      mstore\n      0x20\n      add\n      0x00\n      keccak256\n        /* \"contracts/Students.sol\":3543:3557  students[i].id */\n      0x00\n      add\n        /* \"contracts/Students.sol\":3543:3576  students[i].id = students[i+1].id */\n      dup2\n      swap1\n      sstore\n      pop\n        /* \"contracts/Students.sol\":3613:3621  students */\n      0x01\n        /* \"contracts/Students.sol\":3613:3626  students[i+1] */\n      0x00\n        /* \"contracts/Students.sol\":3624:3625  1 */\n      0x01\n        /* \"contracts/Students.sol\":3622:3623  i */\n      dup4\n        /* \"contracts/Students.sol\":3622:3625  i+1 */\n      tag_77\n      swap2\n      swap1\n      tag_75\n      jump\t// in\n    tag_77:\n        /* \"contracts/Students.sol\":3613:3626  students[i+1] */\n      dup2\n      mstore\n      0x20\n      add\n      swap1\n      dup2\n      mstore\n      0x20\n      add\n      0x00\n      keccak256\n        /* \"contracts/Students.sol\":3613:3634  students[i+1].account */\n      0x01\n      add\n      0x00\n      swap1\n      sload\n      swap1\n      0x0100\n      exp\n      swap1\n      div\n      0xffffffffffffffffffffffffffffffffffffffff\n      and\n        /* \"contracts/Students.sol\":3591:3599  students */\n      0x01\n        /* \"contracts/Students.sol\":3591:3602  students[i] */\n      0x00\n        /* \"contracts/Students.sol\":3600:3601  i */\n      dup4\n        /* \"contracts/Students.sol\":3591:3602  students[i] */\n      dup2\n      mstore\n      0x20\n      add\n      swap1\n      dup2\n      mstore\n      0x20\n      add\n      0x00\n      keccak256\n        /* \"contracts/Students.sol\":3591:3610  students[i].account */\n      0x01\n      add\n      0x00\n        /* \"contracts/Students.sol\":3591:3634  students[i].account = students[i+1].account */\n      0x0100\n      exp\n      dup2\n      sload\n      dup2\n      0xffffffffffffffffffffffffffffffffffffffff\n      mul\n      not\n      and\n      swap1\n      dup4\n      0xffffffffffffffffffffffffffffffffffffffff\n      and\n      mul\n      or\n      swap1\n      sstore\n      pop\n        /* \"contracts/Students.sol\":3669:3677  students */\n      0x01\n        /* \"contracts/Students.sol\":3669:3682  students[i+1] */\n      0x00\n        /* \"contracts/Students.sol\":3680:3681  1 */\n      0x01\n        /* \"contracts/Students.sol\":3678:3679  i */\n      dup4\n        /* \"contracts/Students.sol\":3678:3681  i+1 */\n      tag_78\n      swap2\n      swap1\n      tag_75\n      jump\t// in\n    tag_78:\n        /* \"contracts/Students.sol\":3669:3682  students[i+1] */\n      dup2\n      mstore\n      0x20\n      add\n      swap1\n      dup2\n      mstore\n      0x20\n      add\n      0x00\n      keccak256\n        /* \"contracts/Students.sol\":3669:3688  students[i+1].phone */\n      0x02\n      add\n        /* \"contracts/Students.sol\":3649:3657  students */\n      0x01\n        /* \"contracts/Students.sol\":3649:3660  students[i] */\n      0x00\n        /* \"contracts/Students.sol\":3658:3659  i */\n      dup4\n        /* \"contracts/Students.sol\":3649:3660  students[i] */\n      dup2\n      mstore\n      0x20\n      add\n      swap1\n      dup2\n      mstore\n      0x20\n      add\n      0x00\n      keccak256\n        /* \"contracts/Students.sol\":3649:3666  students[i].phone */\n      0x02\n      add\n        /* \"contracts/Students.sol\":3649:3688  students[i].phone = students[i+1].phone */\n      swap1\n      dup2\n      tag_79\n      swap2\n      swap1\n      tag_80\n      jump\t// in\n    tag_79:\n      pop\n        /* \"contracts/Students.sol\":3723:3731  students */\n      0x01\n        /* \"contracts/Students.sol\":3723:3736  students[i+1] */\n      0x00\n        /* \"contracts/Students.sol\":3734:3735  1 */\n      0x01\n        /* \"contracts/Students.sol\":3732:3733  i */\n      dup4\n        /* \"contracts/Students.sol\":3732:3735  i+1 */\n      tag_81\n      swap2\n      swap1\n      tag_75\n      jump\t// in\n    tag_81:\n        /* \"contracts/Students.sol\":3723:3736  students[i+1] */\n      dup2\n      mstore\n      0x20\n      add\n      swap1\n      dup2\n      mstore\n      0x20\n      add\n      0x00\n      keccak256\n        /* \"contracts/Students.sol\":3723:3742  students[i+1].email */\n      0x03\n      add\n        /* \"contracts/Students.sol\":3703:3711  students */\n      0x01\n        /* \"contracts/Students.sol\":3703:3714  students[i] */\n      0x00\n        /* \"contracts/Students.sol\":3712:3713  i */\n      dup4\n        /* \"contracts/Students.sol\":3703:3714  students[i] */\n      dup2\n      mstore\n      0x20\n      add\n      swap1\n      dup2\n      mstore\n      0x20\n      add\n      0x00\n      keccak256\n        /* \"contracts/Students.sol\":3703:3720  students[i].email */\n      0x03\n      add\n        /* \"contracts/Students.sol\":3703:3742  students[i].email = students[i+1].email */\n      swap1\n      dup2\n      tag_82\n      swap2\n      swap1\n      tag_80\n      jump\t// in\n    tag_82:\n      pop\n        /* \"contracts/Students.sol\":3468:3471  i++ */\n      dup1\n      dup1\n      tag_83\n      swap1\n      tag_84\n      jump\t// in\n    tag_83:\n      swap2\n      pop\n      pop\n        /* \"contracts/Students.sol\":3430:3754  for (uint i = index ; i<numStudents ; i++){... */\n      jump(tag_71)\n    tag_72:\n      pop\n        /* \"contracts/Students.sol\":3771:3785  accountToIndex */\n      0x00\n        /* \"contracts/Students.sol\":3771:3816  accountToIndex[students[numStudents].account] */\n      dup1\n        /* \"contracts/Students.sol\":3786:3794  students */\n      0x01\n        /* \"contracts/Students.sol\":3786:3807  students[numStudents] */\n      0x00\n        /* \"contracts/Students.sol\":3795:3806  numStudents */\n      sload(0x02)\n        /* \"contracts/Students.sol\":3786:3807  students[numStudents] */\n      dup2\n      mstore\n      0x20\n      add\n      swap1\n      dup2\n      mstore\n      0x20\n      add\n      0x00\n      keccak256\n        /* \"contracts/Students.sol\":3786:3815  students[numStudents].account */\n      0x01\n      add\n      0x00\n      swap1\n      sload\n      swap1\n      0x0100\n      exp\n      swap1\n      div\n      0xffffffffffffffffffffffffffffffffffffffff\n      and\n        /* \"contracts/Students.sol\":3771:3816  accountToIndex[students[numStudents].account] */\n      0xffffffffffffffffffffffffffffffffffffffff\n      and\n      0xffffffffffffffffffffffffffffffffffffffff\n      and\n      dup2\n      mstore\n      0x20\n      add\n      swap1\n      dup2\n      mstore\n      0x20\n      add\n      0x00\n      keccak256\n        /* \"contracts/Students.sol\":3764:3816  delete accountToIndex[students[numStudents].account] */\n      0x00\n      swap1\n      sstore\n        /* \"contracts/Students.sol\":3882:3890  students */\n      0x01\n        /* \"contracts/Students.sol\":3882:3903  students[numStudents] */\n      0x00\n        /* \"contracts/Students.sol\":3891:3902  numStudents */\n      sload(0x02)\n        /* \"contracts/Students.sol\":3882:3903  students[numStudents] */\n      dup2\n      mstore\n      0x20\n      add\n      swap1\n      dup2\n      mstore\n      0x20\n      add\n      0x00\n      keccak256\n      0x00\n        /* \"contracts/Students.sol\":3875:3903  delete students[numStudents] */\n      dup1\n      dup3\n      add\n      0x00\n      swap1\n      sstore\n      0x01\n      dup3\n      add\n      exp(0x0100, 0x00)\n      dup2\n      sload\n      swap1\n      0xffffffffffffffffffffffffffffffffffffffff\n      mul\n      not\n      and\n      swap1\n      sstore\n      0x02\n      dup3\n      add\n      0x00\n      tag_85\n      swap2\n      swap1\n      tag_86\n      jump\t// in\n    tag_85:\n      0x03\n      dup3\n      add\n      0x00\n      tag_87\n      swap2\n      swap1\n      tag_86\n      jump\t// in\n    tag_87:\n      pop\n      pop\n        /* \"contracts/Students.sol\":3948:3959  numStudents */\n      0x02\n      0x00\n        /* \"contracts/Students.sol\":3948:3961  numStudents-- */\n      dup2\n      sload\n      dup1\n      swap3\n      swap2\n      swap1\n      tag_88\n      swap1\n      tag_89\n      jump\t// in\n    tag_88:\n      swap2\n      swap1\n      pop\n      sstore\n      pop\n        /* \"contracts/Students.sol\":3334:3991  {... */\n      pop\n        /* \"contracts/Students.sol\":3284:3991  function deleteStudent(uint _id) public onlyOwner {... */\n      pop\n      jump\t// out\n        /* \"contracts/Students.sol\":1805:2135  function getStudentIndexById(uint _id) public view returns (uint) {... */\n    tag_26:\n        /* \"contracts/Students.sol\":1865:1869  uint */\n      0x00\n        /* \"contracts/Students.sol\":1887:1893  uint i */\n      dup1\n        /* \"contracts/Students.sol\":1896:1897  1 */\n      0x01\n        /* \"contracts/Students.sol\":1887:1897  uint i = 1 */\n      swap1\n      pop\n        /* \"contracts/Students.sol\":1882:2055  for (uint i = 1; i <= numStudents; i++) {... */\n    tag_91:\n        /* \"contracts/Students.sol\":1904:1915  numStudents */\n      sload(0x02)\n        /* \"contracts/Students.sol\":1899:1900  i */\n      dup2\n        /* \"contracts/Students.sol\":1899:1915  i <= numStudents */\n      gt\n        /* \"contracts/Students.sol\":1882:2055  for (uint i = 1; i <= numStudents; i++) {... */\n      tag_92\n      jumpi\n        /* \"contracts/Students.sol\":1959:1962  _id */\n      dup3\n        /* \"contracts/Students.sol\":1941:1949  students */\n      0x01\n        /* \"contracts/Students.sol\":1941:1952  students[i] */\n      0x00\n        /* \"contracts/Students.sol\":1950:1951  i */\n      dup4\n        /* \"contracts/Students.sol\":1941:1952  students[i] */\n      dup2\n      mstore\n      0x20\n      add\n      swap1\n      dup2\n      mstore\n      0x20\n      add\n      0x00\n      keccak256\n        /* \"contracts/Students.sol\":1941:1955  students[i].id */\n      0x00\n      add\n      sload\n        /* \"contracts/Students.sol\":1941:1962  students[i].id == _id */\n      sub\n        /* \"contracts/Students.sol\":1937:2044  if (students[i].id == _id) {... */\n      tag_94\n      jumpi\n        /* \"contracts/Students.sol\":1990:1991  i */\n      dup1\n        /* \"contracts/Students.sol\":1983:1991  return i */\n      swap2\n      pop\n      pop\n      jump(tag_90)\n        /* \"contracts/Students.sol\":1937:2044  if (students[i].id == _id) {... */\n    tag_94:\n        /* \"contracts/Students.sol\":1917:1920  i++ */\n      dup1\n      dup1\n      tag_95\n      swap1\n      tag_84\n      jump\t// in\n    tag_95:\n      swap2\n      pop\n      pop\n        /* \"contracts/Students.sol\":1882:2055  for (uint i = 1; i <= numStudents; i++) {... */\n      jump(tag_91)\n    tag_92:\n      pop\n        /* \"contracts/Students.sol\":2065:2093  revert(\"Student not found.\") */\n      mload(0x40)\n      0x08c379a000000000000000000000000000000000000000000000000000000000\n      dup2\n      mstore\n      0x04\n      add\n      tag_96\n      swap1\n      tag_97\n      jump\t// in\n    tag_96:\n      mload(0x40)\n      dup1\n      swap2\n      sub\n      swap1\n      revert\n        /* \"contracts/Students.sol\":1805:2135  function getStudentIndexById(uint _id) public view returns (uint) {... */\n    tag_90:\n      swap2\n      swap1\n      pop\n      jump\t// out\n        /* \"contracts/Students.sol\":1478:1752  function getStudentIndexByAccount(address _account) public view returns (uint) {... */\n    tag_32:\n        /* \"contracts/Students.sol\":1551:1555  uint */\n      0x00\n        /* \"contracts/Students.sol\":1604:1605  0 */\n      dup1\n        /* \"contracts/Students.sol\":1576:1590  accountToIndex */\n      0x00\n        /* \"contracts/Students.sol\":1576:1600  accountToIndex[_account] */\n      dup1\n        /* \"contracts/Students.sol\":1591:1599  _account */\n      dup5\n        /* \"contracts/Students.sol\":1576:1600  accountToIndex[_account] */\n      0xffffffffffffffffffffffffffffffffffffffff\n      and\n      0xffffffffffffffffffffffffffffffffffffffff\n      and\n      dup2\n      mstore\n      0x20\n      add\n      swap1\n      dup2\n      mstore\n      0x20\n      add\n      0x00\n      keccak256\n      sload\n        /* \"contracts/Students.sol\":1576:1605  accountToIndex[_account] != 0 */\n      sub\n        /* \"contracts/Students.sol\":1568:1633  require(accountToIndex[_account] != 0, \"Account does not exist.\") */\n      tag_99\n      jumpi\n      mload(0x40)\n      0x08c379a000000000000000000000000000000000000000000000000000000000\n      dup2\n      mstore\n      0x04\n      add\n      tag_100\n      swap1\n      tag_101\n      jump\t// in\n    tag_100:\n      mload(0x40)\n      dup1\n      swap2\n      sub\n      swap1\n      revert\n    tag_99:\n        /* \"contracts/Students.sol\":1678:1692  accountToIndex */\n      0x00\n        /* \"contracts/Students.sol\":1678:1702  accountToIndex[_account] */\n      dup1\n        /* \"contracts/Students.sol\":1693:1701  _account */\n      dup4\n        /* \"contracts/Students.sol\":1678:1702  accountToIndex[_account] */\n      0xffffffffffffffffffffffffffffffffffffffff\n      and\n      0xffffffffffffffffffffffffffffffffffffffff\n      and\n      dup2\n      mstore\n      0x20\n      add\n      swap1\n      dup2\n      mstore\n      0x20\n      add\n      0x00\n      keccak256\n      sload\n        /* \"contracts/Students.sol\":1671:1702  return accountToIndex[_account] */\n      swap1\n      pop\n        /* \"contracts/Students.sol\":1478:1752  function getStudentIndexByAccount(address _account) public view returns (uint) {... */\n      swap2\n      swap1\n      pop\n      jump\t// out\n        /* \"contracts/Students.sol\":2522:2772  function getStudentById(uint _id) public view returns (uint, address, string memory, string memory) {... */\n    tag_36:\n        /* \"contracts/Students.sol\":2577:2581  uint */\n      0x00\n        /* \"contracts/Students.sol\":2583:2590  address */\n      dup1\n        /* \"contracts/Students.sol\":2592:2605  string memory */\n      0x60\n        /* \"contracts/Students.sol\":2607:2620  string memory */\n      dup1\n        /* \"contracts/Students.sol\":2633:2643  uint index */\n      0x00\n        /* \"contracts/Students.sol\":2646:2670  getStudentIndexById(_id) */\n      tag_103\n        /* \"contracts/Students.sol\":2666:2669  _id */\n      dup7\n        /* \"contracts/Students.sol\":2646:2665  getStudentIndexById */\n      tag_26\n        /* \"contracts/Students.sol\":2646:2670  getStudentIndexById(_id) */\n      jump\t// in\n    tag_103:\n        /* \"contracts/Students.sol\":2633:2670  uint index = getStudentIndexById(_id) */\n      swap1\n      pop\n        /* \"contracts/Students.sol\":2725:2742  getStudent(index) */\n      tag_104\n        /* \"contracts/Students.sol\":2736:2741  index */\n      dup2\n        /* \"contracts/Students.sol\":2725:2735  getStudent */\n      tag_14\n        /* \"contracts/Students.sol\":2725:2742  getStudent(index) */\n      jump\t// in\n    tag_104:\n        /* \"contracts/Students.sol\":2718:2742  return getStudent(index) */\n      swap5\n      pop\n      swap5\n      pop\n      swap5\n      pop\n      swap5\n      pop\n      pop\n        /* \"contracts/Students.sol\":2522:2772  function getStudentById(uint _id) public view returns (uint, address, string memory, string memory) {... */\n      swap2\n      swap4\n      pop\n      swap2\n      swap4\n      jump\t// out\n        /* \"contracts/Students.sol\":965:1420  function addStudent(uint _id, address _account, string memory _phone, string memory _email) public onlyOwner {... */\n    tag_40:\n        /* \"contracts/Students.sol\":849:854  owner */\n      0x03\n      0x00\n      swap1\n      sload\n      swap1\n      0x0100\n      exp\n      swap1\n      div\n      0xffffffffffffffffffffffffffffffffffffffff\n      and\n        /* \"contracts/Students.sol\":835:854  msg.sender == owner */\n      0xffffffffffffffffffffffffffffffffffffffff\n      and\n        /* \"contracts/Students.sol\":835:845  msg.sender */\n      caller\n        /* \"contracts/Students.sol\":835:854  msg.sender == owner */\n      0xffffffffffffffffffffffffffffffffffffffff\n      and\n      eq\n        /* \"contracts/Students.sol\":827:893  require(msg.sender == owner, \"Only owner can call this function.\") */\n      tag_106\n      jumpi\n      mload(0x40)\n      0x08c379a000000000000000000000000000000000000000000000000000000000\n      dup2\n      mstore\n      0x04\n      add\n      tag_107\n      swap1\n      tag_60\n      jump\t// in\n    tag_107:\n      mload(0x40)\n      dup1\n      swap2\n      sub\n      swap1\n      revert\n    tag_106:\n        /* \"contracts/Students.sol\":1121:1122  0 */\n      0x00\n        /* \"contracts/Students.sol\":1093:1107  accountToIndex */\n      dup1\n        /* \"contracts/Students.sol\":1093:1117  accountToIndex[_account] */\n      0x00\n        /* \"contracts/Students.sol\":1108:1116  _account */\n      dup6\n        /* \"contracts/Students.sol\":1093:1117  accountToIndex[_account] */\n      0xffffffffffffffffffffffffffffffffffffffff\n      and\n      0xffffffffffffffffffffffffffffffffffffffff\n      and\n      dup2\n      mstore\n      0x20\n      add\n      swap1\n      dup2\n      mstore\n      0x20\n      add\n      0x00\n      keccak256\n      sload\n        /* \"contracts/Students.sol\":1093:1122  accountToIndex[_account] == 0 */\n      eq\n        /* \"contracts/Students.sol\":1085:1150  require(accountToIndex[_account] == 0, \"Account already exists.\") */\n      tag_109\n      jumpi\n      mload(0x40)\n      0x08c379a000000000000000000000000000000000000000000000000000000000\n      dup2\n      mstore\n      0x04\n      add\n      tag_110\n      swap1\n      tag_111\n      jump\t// in\n    tag_110:\n      mload(0x40)\n      dup1\n      swap2\n      sub\n      swap1\n      revert\n    tag_109:\n        /* \"contracts/Students.sol\":1191:1202  numStudents */\n      0x02\n      0x00\n        /* \"contracts/Students.sol\":1191:1204  numStudents++ */\n      dup2\n      sload\n      dup1\n      swap3\n      swap2\n      swap1\n      tag_112\n      swap1\n      tag_84\n      jump\t// in\n    tag_112:\n      swap2\n      swap1\n      pop\n      sstore\n      pop\n        /* \"contracts/Students.sol\":1261:1299  Student(_id, _account, _phone, _email) */\n      mload(0x40)\n      dup1\n      0x80\n      add\n      0x40\n      mstore\n      dup1\n        /* \"contracts/Students.sol\":1269:1272  _id */\n      dup6\n        /* \"contracts/Students.sol\":1261:1299  Student(_id, _account, _phone, _email) */\n      dup2\n      mstore\n      0x20\n      add\n        /* \"contracts/Students.sol\":1274:1282  _account */\n      dup5\n        /* \"contracts/Students.sol\":1261:1299  Student(_id, _account, _phone, _email) */\n      0xffffffffffffffffffffffffffffffffffffffff\n      and\n      dup2\n      mstore\n      0x20\n      add\n        /* \"contracts/Students.sol\":1284:1290  _phone */\n      dup4\n        /* \"contracts/Students.sol\":1261:1299  Student(_id, _account, _phone, _email) */\n      dup2\n      mstore\n      0x20\n      add\n        /* \"contracts/Students.sol\":1292:1298  _email */\n      dup3\n        /* \"contracts/Students.sol\":1261:1299  Student(_id, _account, _phone, _email) */\n      dup2\n      mstore\n      pop\n        /* \"contracts/Students.sol\":1237:1245  students */\n      0x01\n        /* \"contracts/Students.sol\":1237:1258  students[numStudents] */\n      0x00\n        /* \"contracts/Students.sol\":1246:1257  numStudents */\n      sload(0x02)\n        /* \"contracts/Students.sol\":1237:1258  students[numStudents] */\n      dup2\n      mstore\n      0x20\n      add\n      swap1\n      dup2\n      mstore\n      0x20\n      add\n      0x00\n      keccak256\n        /* \"contracts/Students.sol\":1237:1299  students[numStudents] = Student(_id, _account, _phone, _email) */\n      0x00\n      dup3\n      add\n      mload\n      dup2\n      0x00\n      add\n      sstore\n      0x20\n      dup3\n      add\n      mload\n      dup2\n      0x01\n      add\n      exp(0x0100, 0x00)\n      dup2\n      sload\n      dup2\n      0xffffffffffffffffffffffffffffffffffffffff\n      mul\n      not\n      and\n      swap1\n      dup4\n      0xffffffffffffffffffffffffffffffffffffffff\n      and\n      mul\n      or\n      swap1\n      sstore\n      pop\n      0x40\n      dup3\n      add\n      mload\n      dup2\n      0x02\n      add\n      swap1\n      dup2\n      tag_113\n      swap2\n      swap1\n      tag_64\n      jump\t// in\n    tag_113:\n      pop\n      0x60\n      dup3\n      add\n      mload\n      dup2\n      0x03\n      add\n      swap1\n      dup2\n      tag_114\n      swap2\n      swap1\n      tag_64\n      jump\t// in\n    tag_114:\n      pop\n      swap1\n      pop\n      pop\n        /* \"contracts/Students.sol\":1359:1370  numStudents */\n      sload(0x02)\n        /* \"contracts/Students.sol\":1332:1346  accountToIndex */\n      0x00\n        /* \"contracts/Students.sol\":1332:1356  accountToIndex[_account] */\n      dup1\n        /* \"contracts/Students.sol\":1347:1355  _account */\n      dup6\n        /* \"contracts/Students.sol\":1332:1356  accountToIndex[_account] */\n      0xffffffffffffffffffffffffffffffffffffffff\n      and\n      0xffffffffffffffffffffffffffffffffffffffff\n      and\n      dup2\n      mstore\n      0x20\n      add\n      swap1\n      dup2\n      mstore\n      0x20\n      add\n      0x00\n      keccak256\n        /* \"contracts/Students.sol\":1332:1370  accountToIndex[_account] = numStudents */\n      dup2\n      swap1\n      sstore\n      pop\n        /* \"contracts/Students.sol\":965:1420  function addStudent(uint _id, address _account, string memory _phone, string memory _email) public onlyOwner {... */\n      pop\n      pop\n      pop\n      pop\n      jump\t// out\n    tag_86:\n      pop\n      dup1\n      sload\n      tag_115\n      swap1\n      tag_47\n      jump\t// in\n    tag_115:\n      0x00\n      dup3\n      sstore\n      dup1\n      0x1f\n      lt\n      tag_117\n      jumpi\n      pop\n      jump(tag_116)\n    tag_117:\n      0x1f\n      add\n      0x20\n      swap1\n      div\n      swap1\n      0x00\n      mstore\n      keccak256(0x00, 0x20)\n      swap1\n      dup2\n      add\n      swap1\n      tag_118\n      swap2\n      swap1\n      tag_119\n      jump\t// in\n    tag_118:\n    tag_116:\n      pop\n      jump\t// out\n    tag_119:\n    tag_120:\n      dup1\n      dup3\n      gt\n      iszero\n      tag_121\n      jumpi\n      0x00\n      dup2\n      0x00\n      swap1\n      sstore\n      pop\n      0x01\n      add\n      jump(tag_120)\n    tag_121:\n      pop\n      swap1\n      jump\t// out\n        /* \"#utility.yul\":7:82   */\n    tag_122:\n        /* \"#utility.yul\":40:46   */\n      0x00\n        /* \"#utility.yul\":73:75   */\n      0x40\n        /* \"#utility.yul\":67:76   */\n      mload\n        /* \"#utility.yul\":57:76   */\n      swap1\n      pop\n        /* \"#utility.yul\":7:82   */\n      swap1\n      jump\t// out\n        /* \"#utility.yul\":88:205   */\n    tag_123:\n        /* \"#utility.yul\":197:198   */\n      0x00\n        /* \"#utility.yul\":194:195   */\n      dup1\n        /* \"#utility.yul\":187:199   */\n      revert\n        /* \"#utility.yul\":211:328   */\n    tag_124:\n        /* \"#utility.yul\":320:321   */\n      0x00\n        /* \"#utility.yul\":317:318   */\n      dup1\n        /* \"#utility.yul\":310:322   */\n      revert\n        /* \"#utility.yul\":334:411   */\n    tag_125:\n        /* \"#utility.yul\":371:378   */\n      0x00\n        /* \"#utility.yul\":400:405   */\n      dup2\n        /* \"#utility.yul\":389:405   */\n      swap1\n      pop\n        /* \"#utility.yul\":334:411   */\n      swap2\n      swap1\n      pop\n      jump\t// out\n        /* \"#utility.yul\":417:539   */\n    tag_126:\n        /* \"#utility.yul\":490:514   */\n      tag_183\n        /* \"#utility.yul\":508:513   */\n      dup2\n        /* \"#utility.yul\":490:514   */\n      tag_125\n      jump\t// in\n    tag_183:\n        /* \"#utility.yul\":483:488   */\n      dup2\n        /* \"#utility.yul\":480:515   */\n      eq\n        /* \"#utility.yul\":470:533   */\n      tag_184\n      jumpi\n        /* \"#utility.yul\":529:530   */\n      0x00\n        /* \"#utility.yul\":526:527   */\n      dup1\n        /* \"#utility.yul\":519:531   */\n      revert\n        /* \"#utility.yul\":470:533   */\n    tag_184:\n        /* \"#utility.yul\":417:539   */\n      pop\n      jump\t// out\n        /* \"#utility.yul\":545:684   */\n    tag_127:\n        /* \"#utility.yul\":591:596   */\n      0x00\n        /* \"#utility.yul\":629:635   */\n      dup2\n        /* \"#utility.yul\":616:636   */\n      calldataload\n        /* \"#utility.yul\":607:636   */\n      swap1\n      pop\n        /* \"#utility.yul\":645:678   */\n      tag_186\n        /* \"#utility.yul\":672:677   */\n      dup2\n        /* \"#utility.yul\":645:678   */\n      tag_126\n      jump\t// in\n    tag_186:\n        /* \"#utility.yul\":545:684   */\n      swap3\n      swap2\n      pop\n      pop\n      jump\t// out\n        /* \"#utility.yul\":690:1019   */\n    tag_13:\n        /* \"#utility.yul\":749:755   */\n      0x00\n        /* \"#utility.yul\":798:800   */\n      0x20\n        /* \"#utility.yul\":786:795   */\n      dup3\n        /* \"#utility.yul\":777:784   */\n      dup5\n        /* \"#utility.yul\":773:796   */\n      sub\n        /* \"#utility.yul\":769:801   */\n      slt\n        /* \"#utility.yul\":766:885   */\n      iszero\n      tag_188\n      jumpi\n        /* \"#utility.yul\":804:883   */\n      tag_189\n      tag_123\n      jump\t// in\n    tag_189:\n        /* \"#utility.yul\":766:885   */\n    tag_188:\n        /* \"#utility.yul\":924:925   */\n      0x00\n        /* \"#utility.yul\":949:1002   */\n      tag_190\n        /* \"#utility.yul\":994:1001   */\n      dup5\n        /* \"#utility.yul\":985:991   */\n      dup3\n        /* \"#utility.yul\":974:983   */\n      dup6\n        /* \"#utility.yul\":970:992   */\n      add\n        /* \"#utility.yul\":949:1002   */\n      tag_127\n      jump\t// in\n    tag_190:\n        /* \"#utility.yul\":939:1002   */\n      swap2\n      pop\n        /* \"#utility.yul\":895:1012   */\n      pop\n        /* \"#utility.yul\":690:1019   */\n      swap3\n      swap2\n      pop\n      pop\n      jump\t// out\n        /* \"#utility.yul\":1025:1143   */\n    tag_128:\n        /* \"#utility.yul\":1112:1136   */\n      tag_192\n        /* \"#utility.yul\":1130:1135   */\n      dup2\n        /* \"#utility.yul\":1112:1136   */\n      tag_125\n      jump\t// in\n    tag_192:\n        /* \"#utility.yul\":1107:1110   */\n      dup3\n        /* \"#utility.yul\":1100:1137   */\n      mstore\n        /* \"#utility.yul\":1025:1143   */\n      pop\n      pop\n      jump\t// out\n        /* \"#utility.yul\":1149:1275   */\n    tag_129:\n        /* \"#utility.yul\":1186:1193   */\n      0x00\n        /* \"#utility.yul\":1226:1268   */\n      0xffffffffffffffffffffffffffffffffffffffff\n        /* \"#utility.yul\":1219:1224   */\n      dup3\n        /* \"#utility.yul\":1215:1269   */\n      and\n        /* \"#utility.yul\":1204:1269   */\n      swap1\n      pop\n        /* \"#utility.yul\":1149:1275   */\n      swap2\n      swap1\n      pop\n      jump\t// out\n        /* \"#utility.yul\":1281:1377   */\n    tag_130:\n        /* \"#utility.yul\":1318:1325   */\n      0x00\n        /* \"#utility.yul\":1347:1371   */\n      tag_195\n        /* \"#utility.yul\":1365:1370   */\n      dup3\n        /* \"#utility.yul\":1347:1371   */\n      tag_129\n      jump\t// in\n    tag_195:\n        /* \"#utility.yul\":1336:1371   */\n      swap1\n      pop\n        /* \"#utility.yul\":1281:1377   */\n      swap2\n      swap1\n      pop\n      jump\t// out\n        /* \"#utility.yul\":1383:1501   */\n    tag_131:\n        /* \"#utility.yul\":1470:1494   */\n      tag_197\n        /* \"#utility.yul\":1488:1493   */\n      dup2\n        /* \"#utility.yul\":1470:1494   */\n      tag_130\n      jump\t// in\n    tag_197:\n        /* \"#utility.yul\":1465:1468   */\n      dup3\n        /* \"#utility.yul\":1458:1495   */\n      mstore\n        /* \"#utility.yul\":1383:1501   */\n      pop\n      pop\n      jump\t// out\n        /* \"#utility.yul\":1507:1606   */\n    tag_132:\n        /* \"#utility.yul\":1559:1565   */\n      0x00\n        /* \"#utility.yul\":1593:1598   */\n      dup2\n        /* \"#utility.yul\":1587:1599   */\n      mload\n        /* \"#utility.yul\":1577:1599   */\n      swap1\n      pop\n        /* \"#utility.yul\":1507:1606   */\n      swap2\n      swap1\n      pop\n      jump\t// out\n        /* \"#utility.yul\":1612:1781   */\n    tag_133:\n        /* \"#utility.yul\":1696:1707   */\n      0x00\n        /* \"#utility.yul\":1730:1736   */\n      dup3\n        /* \"#utility.yul\":1725:1728   */\n      dup3\n        /* \"#utility.yul\":1718:1737   */\n      mstore\n        /* \"#utility.yul\":1770:1774   */\n      0x20\n        /* \"#utility.yul\":1765:1768   */\n      dup3\n        /* \"#utility.yul\":1761:1775   */\n      add\n        /* \"#utility.yul\":1746:1775   */\n      swap1\n      pop\n        /* \"#utility.yul\":1612:1781   */\n      swap3\n      swap2\n      pop\n      pop\n      jump\t// out\n        /* \"#utility.yul\":1787:2033   */\n    tag_134:\n        /* \"#utility.yul\":1868:1869   */\n      0x00\n        /* \"#utility.yul\":1878:1991   */\n    tag_201:\n        /* \"#utility.yul\":1892:1898   */\n      dup4\n        /* \"#utility.yul\":1889:1890   */\n      dup2\n        /* \"#utility.yul\":1886:1899   */\n      lt\n        /* \"#utility.yul\":1878:1991   */\n      iszero\n      tag_203\n      jumpi\n        /* \"#utility.yul\":1977:1978   */\n      dup1\n        /* \"#utility.yul\":1972:1975   */\n      dup3\n        /* \"#utility.yul\":1968:1979   */\n      add\n        /* \"#utility.yul\":1962:1980   */\n      mload\n        /* \"#utility.yul\":1958:1959   */\n      dup2\n        /* \"#utility.yul\":1953:1956   */\n      dup5\n        /* \"#utility.yul\":1949:1960   */\n      add\n        /* \"#utility.yul\":1942:1981   */\n      mstore\n        /* \"#utility.yul\":1914:1916   */\n      0x20\n        /* \"#utility.yul\":1911:1912   */\n      dup2\n        /* \"#utility.yul\":1907:1917   */\n      add\n        /* \"#utility.yul\":1902:1917   */\n      swap1\n      pop\n        /* \"#utility.yul\":1878:1991   */\n      jump(tag_201)\n    tag_203:\n        /* \"#utility.yul\":2025:2026   */\n      0x00\n        /* \"#utility.yul\":2016:2022   */\n      dup5\n        /* \"#utility.yul\":2011:2014   */\n      dup5\n        /* \"#utility.yul\":2007:2023   */\n      add\n        /* \"#utility.yul\":2000:2027   */\n      mstore\n        /* \"#utility.yul\":1849:2033   */\n      pop\n        /* \"#utility.yul\":1787:2033   */\n      pop\n      pop\n      pop\n      jump\t// out\n        /* \"#utility.yul\":2039:2141   */\n    tag_135:\n        /* \"#utility.yul\":2080:2086   */\n      0x00\n        /* \"#utility.yul\":2131:2133   */\n      0x1f\n        /* \"#utility.yul\":2127:2134   */\n      not\n        /* \"#utility.yul\":2122:2124   */\n      0x1f\n        /* \"#utility.yul\":2115:2120   */\n      dup4\n        /* \"#utility.yul\":2111:2125   */\n      add\n        /* \"#utility.yul\":2107:2135   */\n      and\n        /* \"#utility.yul\":2097:2135   */\n      swap1\n      pop\n        /* \"#utility.yul\":2039:2141   */\n      swap2\n      swap1\n      pop\n      jump\t// out\n        /* \"#utility.yul\":2147:2524   */\n    tag_136:\n        /* \"#utility.yul\":2235:2238   */\n      0x00\n        /* \"#utility.yul\":2263:2302   */\n      tag_206\n        /* \"#utility.yul\":2296:2301   */\n      dup3\n        /* \"#utility.yul\":2263:2302   */\n      tag_132\n      jump\t// in\n    tag_206:\n        /* \"#utility.yul\":2318:2389   */\n      tag_207\n        /* \"#utility.yul\":2382:2388   */\n      dup2\n        /* \"#utility.yul\":2377:2380   */\n      dup6\n        /* \"#utility.yul\":2318:2389   */\n      tag_133\n      jump\t// in\n    tag_207:\n        /* \"#utility.yul\":2311:2389   */\n      swap4\n      pop\n        /* \"#utility.yul\":2398:2463   */\n      tag_208\n        /* \"#utility.yul\":2456:2462   */\n      dup2\n        /* \"#utility.yul\":2451:2454   */\n      dup6\n        /* \"#utility.yul\":2444:2448   */\n      0x20\n        /* \"#utility.yul\":2437:2442   */\n      dup7\n        /* \"#utility.yul\":2433:2449   */\n      add\n        /* \"#utility.yul\":2398:2463   */\n      tag_134\n      jump\t// in\n    tag_208:\n        /* \"#utility.yul\":2488:2517   */\n      tag_209\n        /* \"#utility.yul\":2510:2516   */\n      dup2\n        /* \"#utility.yul\":2488:2517   */\n      tag_135\n      jump\t// in\n    tag_209:\n        /* \"#utility.yul\":2483:2486   */\n      dup5\n        /* \"#utility.yul\":2479:2518   */\n      add\n        /* \"#utility.yul\":2472:2518   */\n      swap2\n      pop\n        /* \"#utility.yul\":2239:2524   */\n      pop\n        /* \"#utility.yul\":2147:2524   */\n      swap3\n      swap2\n      pop\n      pop\n      jump\t// out\n        /* \"#utility.yul\":2530:3265   */\n    tag_16:\n        /* \"#utility.yul\":2747:2751   */\n      0x00\n        /* \"#utility.yul\":2785:2788   */\n      0x80\n        /* \"#utility.yul\":2774:2783   */\n      dup3\n        /* \"#utility.yul\":2770:2789   */\n      add\n        /* \"#utility.yul\":2762:2789   */\n      swap1\n      pop\n        /* \"#utility.yul\":2799:2870   */\n      tag_211\n        /* \"#utility.yul\":2867:2868   */\n      0x00\n        /* \"#utility.yul\":2856:2865   */\n      dup4\n        /* \"#utility.yul\":2852:2869   */\n      add\n        /* \"#utility.yul\":2843:2849   */\n      dup8\n        /* \"#utility.yul\":2799:2870   */\n      tag_128\n      jump\t// in\n    tag_211:\n        /* \"#utility.yul\":2880:2952   */\n      tag_212\n        /* \"#utility.yul\":2948:2950   */\n      0x20\n        /* \"#utility.yul\":2937:2946   */\n      dup4\n        /* \"#utility.yul\":2933:2951   */\n      add\n        /* \"#utility.yul\":2924:2930   */\n      dup7\n        /* \"#utility.yul\":2880:2952   */\n      tag_131\n      jump\t// in\n    tag_212:\n        /* \"#utility.yul\":2999:3008   */\n      dup2\n        /* \"#utility.yul\":2993:2997   */\n      dup2\n        /* \"#utility.yul\":2989:3009   */\n      sub\n        /* \"#utility.yul\":2984:2986   */\n      0x40\n        /* \"#utility.yul\":2973:2982   */\n      dup4\n        /* \"#utility.yul\":2969:2987   */\n      add\n        /* \"#utility.yul\":2962:3010   */\n      mstore\n        /* \"#utility.yul\":3027:3105   */\n      tag_213\n        /* \"#utility.yul\":3100:3104   */\n      dup2\n        /* \"#utility.yul\":3091:3097   */\n      dup6\n        /* \"#utility.yul\":3027:3105   */\n      tag_136\n      jump\t// in\n    tag_213:\n        /* \"#utility.yul\":3019:3105   */\n      swap1\n      pop\n        /* \"#utility.yul\":3152:3161   */\n      dup2\n        /* \"#utility.yul\":3146:3150   */\n      dup2\n        /* \"#utility.yul\":3142:3162   */\n      sub\n        /* \"#utility.yul\":3137:3139   */\n      0x60\n        /* \"#utility.yul\":3126:3135   */\n      dup4\n        /* \"#utility.yul\":3122:3140   */\n      add\n        /* \"#utility.yul\":3115:3163   */\n      mstore\n        /* \"#utility.yul\":3180:3258   */\n      tag_214\n        /* \"#utility.yul\":3253:3257   */\n      dup2\n        /* \"#utility.yul\":3244:3250   */\n      dup5\n        /* \"#utility.yul\":3180:3258   */\n      tag_136\n      jump\t// in\n    tag_214:\n        /* \"#utility.yul\":3172:3258   */\n      swap1\n      pop\n        /* \"#utility.yul\":2530:3265   */\n      swap6\n      swap5\n      pop\n      pop\n      pop\n      pop\n      pop\n      jump\t// out\n        /* \"#utility.yul\":3271:3393   */\n    tag_137:\n        /* \"#utility.yul\":3344:3368   */\n      tag_216\n        /* \"#utility.yul\":3362:3367   */\n      dup2\n        /* \"#utility.yul\":3344:3368   */\n      tag_130\n      jump\t// in\n    tag_216:\n        /* \"#utility.yul\":3337:3342   */\n      dup2\n        /* \"#utility.yul\":3334:3369   */\n      eq\n        /* \"#utility.yul\":3324:3387   */\n      tag_217\n      jumpi\n        /* \"#utility.yul\":3383:3384   */\n      0x00\n        /* \"#utility.yul\":3380:3381   */\n      dup1\n        /* \"#utility.yul\":3373:3385   */\n      revert\n        /* \"#utility.yul\":3324:3387   */\n    tag_217:\n        /* \"#utility.yul\":3271:3393   */\n      pop\n      jump\t// out\n        /* \"#utility.yul\":3399:3538   */\n    tag_138:\n        /* \"#utility.yul\":3445:3450   */\n      0x00\n        /* \"#utility.yul\":3483:3489   */\n      dup2\n        /* \"#utility.yul\":3470:3490   */\n      calldataload\n        /* \"#utility.yul\":3461:3490   */\n      swap1\n      pop\n        /* \"#utility.yul\":3499:3532   */\n      tag_219\n        /* \"#utility.yul\":3526:3531   */\n      dup2\n        /* \"#utility.yul\":3499:3532   */\n      tag_137\n      jump\t// in\n    tag_219:\n        /* \"#utility.yul\":3399:3538   */\n      swap3\n      swap2\n      pop\n      pop\n      jump\t// out\n        /* \"#utility.yul\":3544:3661   */\n    tag_139:\n        /* \"#utility.yul\":3653:3654   */\n      0x00\n        /* \"#utility.yul\":3650:3651   */\n      dup1\n        /* \"#utility.yul\":3643:3655   */\n      revert\n        /* \"#utility.yul\":3667:3784   */\n    tag_140:\n        /* \"#utility.yul\":3776:3777   */\n      0x00\n        /* \"#utility.yul\":3773:3774   */\n      dup1\n        /* \"#utility.yul\":3766:3778   */\n      revert\n        /* \"#utility.yul\":3790:3970   */\n    tag_141:\n        /* \"#utility.yul\":3838:3915   */\n      0x4e487b7100000000000000000000000000000000000000000000000000000000\n        /* \"#utility.yul\":3835:3836   */\n      0x00\n        /* \"#utility.yul\":3828:3916   */\n      mstore\n        /* \"#utility.yul\":3935:3939   */\n      0x41\n        /* \"#utility.yul\":3932:3933   */\n      0x04\n        /* \"#utility.yul\":3925:3940   */\n      mstore\n        /* \"#utility.yul\":3959:3963   */\n      0x24\n        /* \"#utility.yul\":3956:3957   */\n      0x00\n        /* \"#utility.yul\":3949:3964   */\n      revert\n        /* \"#utility.yul\":3976:4257   */\n    tag_142:\n        /* \"#utility.yul\":4059:4086   */\n      tag_224\n        /* \"#utility.yul\":4081:4085   */\n      dup3\n        /* \"#utility.yul\":4059:4086   */\n      tag_135\n      jump\t// in\n    tag_224:\n        /* \"#utility.yul\":4051:4057   */\n      dup2\n        /* \"#utility.yul\":4047:4087   */\n      add\n        /* \"#utility.yul\":4189:4195   */\n      dup2\n        /* \"#utility.yul\":4177:4187   */\n      dup2\n        /* \"#utility.yul\":4174:4196   */\n      lt\n        /* \"#utility.yul\":4153:4171   */\n      0xffffffffffffffff\n        /* \"#utility.yul\":4141:4151   */\n      dup3\n        /* \"#utility.yul\":4138:4172   */\n      gt\n        /* \"#utility.yul\":4135:4197   */\n      or\n        /* \"#utility.yul\":4132:4220   */\n      iszero\n      tag_225\n      jumpi\n        /* \"#utility.yul\":4200:4218   */\n      tag_226\n      tag_141\n      jump\t// in\n    tag_226:\n        /* \"#utility.yul\":4132:4220   */\n    tag_225:\n        /* \"#utility.yul\":4240:4250   */\n      dup1\n        /* \"#utility.yul\":4236:4238   */\n      0x40\n        /* \"#utility.yul\":4229:4251   */\n      mstore\n        /* \"#utility.yul\":4019:4257   */\n      pop\n        /* \"#utility.yul\":3976:4257   */\n      pop\n      pop\n      jump\t// out\n        /* \"#utility.yul\":4263:4392   */\n    tag_143:\n        /* \"#utility.yul\":4297:4303   */\n      0x00\n        /* \"#utility.yul\":4324:4344   */\n      tag_228\n      tag_122\n      jump\t// in\n    tag_228:\n        /* \"#utility.yul\":4314:4344   */\n      swap1\n      pop\n        /* \"#utility.yul\":4353:4386   */\n      tag_229\n        /* \"#utility.yul\":4381:4385   */\n      dup3\n        /* \"#utility.yul\":4373:4379   */\n      dup3\n        /* \"#utility.yul\":4353:4386   */\n      tag_142\n      jump\t// in\n    tag_229:\n        /* \"#utility.yul\":4263:4392   */\n      swap2\n      swap1\n      pop\n      jump\t// out\n        /* \"#utility.yul\":4398:4706   */\n    tag_144:\n        /* \"#utility.yul\":4460:4464   */\n      0x00\n        /* \"#utility.yul\":4550:4568   */\n      0xffffffffffffffff\n        /* \"#utility.yul\":4542:4548   */\n      dup3\n        /* \"#utility.yul\":4539:4569   */\n      gt\n        /* \"#utility.yul\":4536:4592   */\n      iszero\n      tag_231\n      jumpi\n        /* \"#utility.yul\":4572:4590   */\n      tag_232\n      tag_141\n      jump\t// in\n    tag_232:\n        /* \"#utility.yul\":4536:4592   */\n    tag_231:\n        /* \"#utility.yul\":4610:4639   */\n      tag_233\n        /* \"#utility.yul\":4632:4638   */\n      dup3\n        /* \"#utility.yul\":4610:4639   */\n      tag_135\n      jump\t// in\n    tag_233:\n        /* \"#utility.yul\":4602:4639   */\n      swap1\n      pop\n        /* \"#utility.yul\":4694:4698   */\n      0x20\n        /* \"#utility.yul\":4688:4692   */\n      dup2\n        /* \"#utility.yul\":4684:4699   */\n      add\n        /* \"#utility.yul\":4676:4699   */\n      swap1\n      pop\n        /* \"#utility.yul\":4398:4706   */\n      swap2\n      swap1\n      pop\n      jump\t// out\n        /* \"#utility.yul\":4712:4858   */\n    tag_145:\n        /* \"#utility.yul\":4809:4815   */\n      dup3\n        /* \"#utility.yul\":4804:4807   */\n      dup2\n        /* \"#utility.yul\":4799:4802   */\n      dup4\n        /* \"#utility.yul\":4786:4816   */\n      calldatacopy\n        /* \"#utility.yul\":4850:4851   */\n      0x00\n        /* \"#utility.yul\":4841:4847   */\n      dup4\n        /* \"#utility.yul\":4836:4839   */\n      dup4\n        /* \"#utility.yul\":4832:4848   */\n      add\n        /* \"#utility.yul\":4825:4852   */\n      mstore\n        /* \"#utility.yul\":4712:4858   */\n      pop\n      pop\n      pop\n      jump\t// out\n        /* \"#utility.yul\":4864:5289   */\n    tag_146:\n        /* \"#utility.yul\":4942:4947   */\n      0x00\n        /* \"#utility.yul\":4967:5033   */\n      tag_236\n        /* \"#utility.yul\":4983:5032   */\n      tag_237\n        /* \"#utility.yul\":5025:5031   */\n      dup5\n        /* \"#utility.yul\":4983:5032   */\n      tag_144\n      jump\t// in\n    tag_237:\n        /* \"#utility.yul\":4967:5033   */\n      tag_143\n      jump\t// in\n    tag_236:\n        /* \"#utility.yul\":4958:5033   */\n      swap1\n      pop\n        /* \"#utility.yul\":5056:5062   */\n      dup3\n        /* \"#utility.yul\":5049:5054   */\n      dup2\n        /* \"#utility.yul\":5042:5063   */\n      mstore\n        /* \"#utility.yul\":5094:5098   */\n      0x20\n        /* \"#utility.yul\":5087:5092   */\n      dup2\n        /* \"#utility.yul\":5083:5099   */\n      add\n        /* \"#utility.yul\":5132:5135   */\n      dup5\n        /* \"#utility.yul\":5123:5129   */\n      dup5\n        /* \"#utility.yul\":5118:5121   */\n      dup5\n        /* \"#utility.yul\":5114:5130   */\n      add\n        /* \"#utility.yul\":5111:5136   */\n      gt\n        /* \"#utility.yul\":5108:5220   */\n      iszero\n      tag_238\n      jumpi\n        /* \"#utility.yul\":5139:5218   */\n      tag_239\n      tag_140\n      jump\t// in\n    tag_239:\n        /* \"#utility.yul\":5108:5220   */\n    tag_238:\n        /* \"#utility.yul\":5229:5283   */\n      tag_240\n        /* \"#utility.yul\":5276:5282   */\n      dup5\n        /* \"#utility.yul\":5271:5274   */\n      dup3\n        /* \"#utility.yul\":5266:5269   */\n      dup6\n        /* \"#utility.yul\":5229:5283   */\n      tag_145\n      jump\t// in\n    tag_240:\n        /* \"#utility.yul\":4948:5289   */\n      pop\n        /* \"#utility.yul\":4864:5289   */\n      swap4\n      swap3\n      pop\n      pop\n      pop\n      jump\t// out\n        /* \"#utility.yul\":5309:5649   */\n    tag_147:\n        /* \"#utility.yul\":5365:5370   */\n      0x00\n        /* \"#utility.yul\":5414:5417   */\n      dup3\n        /* \"#utility.yul\":5407:5411   */\n      0x1f\n        /* \"#utility.yul\":5399:5405   */\n      dup4\n        /* \"#utility.yul\":5395:5412   */\n      add\n        /* \"#utility.yul\":5391:5418   */\n      slt\n        /* \"#utility.yul\":5381:5503   */\n      tag_242\n      jumpi\n        /* \"#utility.yul\":5422:5501   */\n      tag_243\n      tag_139\n      jump\t// in\n    tag_243:\n        /* \"#utility.yul\":5381:5503   */\n    tag_242:\n        /* \"#utility.yul\":5539:5545   */\n      dup2\n        /* \"#utility.yul\":5526:5546   */\n      calldataload\n        /* \"#utility.yul\":5564:5643   */\n      tag_244\n        /* \"#utility.yul\":5639:5642   */\n      dup5\n        /* \"#utility.yul\":5631:5637   */\n      dup3\n        /* \"#utility.yul\":5624:5628   */\n      0x20\n        /* \"#utility.yul\":5616:5622   */\n      dup7\n        /* \"#utility.yul\":5612:5629   */\n      add\n        /* \"#utility.yul\":5564:5643   */\n      tag_146\n      jump\t// in\n    tag_244:\n        /* \"#utility.yul\":5555:5643   */\n      swap2\n      pop\n        /* \"#utility.yul\":5371:5649   */\n      pop\n        /* \"#utility.yul\":5309:5649   */\n      swap3\n      swap2\n      pop\n      pop\n      jump\t// out\n        /* \"#utility.yul\":5655:6780   */\n    tag_19:\n        /* \"#utility.yul\":5761:5767   */\n      0x00\n        /* \"#utility.yul\":5769:5775   */\n      dup1\n        /* \"#utility.yul\":5777:5783   */\n      0x00\n        /* \"#utility.yul\":5785:5791   */\n      dup1\n        /* \"#utility.yul\":5834:5837   */\n      0x80\n        /* \"#utility.yul\":5822:5831   */\n      dup6\n        /* \"#utility.yul\":5813:5820   */\n      dup8\n        /* \"#utility.yul\":5809:5832   */\n      sub\n        /* \"#utility.yul\":5805:5838   */\n      slt\n        /* \"#utility.yul\":5802:5922   */\n      iszero\n      tag_246\n      jumpi\n        /* \"#utility.yul\":5841:5920   */\n      tag_247\n      tag_123\n      jump\t// in\n    tag_247:\n        /* \"#utility.yul\":5802:5922   */\n    tag_246:\n        /* \"#utility.yul\":5961:5962   */\n      0x00\n        /* \"#utility.yul\":5986:6039   */\n      tag_248\n        /* \"#utility.yul\":6031:6038   */\n      dup8\n        /* \"#utility.yul\":6022:6028   */\n      dup3\n        /* \"#utility.yul\":6011:6020   */\n      dup9\n        /* \"#utility.yul\":6007:6029   */\n      add\n        /* \"#utility.yul\":5986:6039   */\n      tag_127\n      jump\t// in\n    tag_248:\n        /* \"#utility.yul\":5976:6039   */\n      swap5\n      pop\n        /* \"#utility.yul\":5932:6049   */\n      pop\n        /* \"#utility.yul\":6088:6090   */\n      0x20\n        /* \"#utility.yul\":6114:6167   */\n      tag_249\n        /* \"#utility.yul\":6159:6166   */\n      dup8\n        /* \"#utility.yul\":6150:6156   */\n      dup3\n        /* \"#utility.yul\":6139:6148   */\n      dup9\n        /* \"#utility.yul\":6135:6157   */\n      add\n        /* \"#utility.yul\":6114:6167   */\n      tag_138\n      jump\t// in\n    tag_249:\n        /* \"#utility.yul\":6104:6167   */\n      swap4\n      pop\n        /* \"#utility.yul\":6059:6177   */\n      pop\n        /* \"#utility.yul\":6244:6246   */\n      0x40\n        /* \"#utility.yul\":6233:6242   */\n      dup6\n        /* \"#utility.yul\":6229:6247   */\n      add\n        /* \"#utility.yul\":6216:6248   */\n      calldataload\n        /* \"#utility.yul\":6275:6293   */\n      0xffffffffffffffff\n        /* \"#utility.yul\":6267:6273   */\n      dup2\n        /* \"#utility.yul\":6264:6294   */\n      gt\n        /* \"#utility.yul\":6261:6378   */\n      iszero\n      tag_250\n      jumpi\n        /* \"#utility.yul\":6297:6376   */\n      tag_251\n      tag_124\n      jump\t// in\n    tag_251:\n        /* \"#utility.yul\":6261:6378   */\n    tag_250:\n        /* \"#utility.yul\":6402:6465   */\n      tag_252\n        /* \"#utility.yul\":6457:6464   */\n      dup8\n        /* \"#utility.yul\":6448:6454   */\n      dup3\n        /* \"#utility.yul\":6437:6446   */\n      dup9\n        /* \"#utility.yul\":6433:6455   */\n      add\n        /* \"#utility.yul\":6402:6465   */\n      tag_147\n      jump\t// in\n    tag_252:\n        /* \"#utility.yul\":6392:6465   */\n      swap3\n      pop\n        /* \"#utility.yul\":6187:6475   */\n      pop\n        /* \"#utility.yul\":6542:6544   */\n      0x60\n        /* \"#utility.yul\":6531:6540   */\n      dup6\n        /* \"#utility.yul\":6527:6545   */\n      add\n        /* \"#utility.yul\":6514:6546   */\n      calldataload\n        /* \"#utility.yul\":6573:6591   */\n      0xffffffffffffffff\n        /* \"#utility.yul\":6565:6571   */\n      dup2\n        /* \"#utility.yul\":6562:6592   */\n      gt\n        /* \"#utility.yul\":6559:6676   */\n      iszero\n      tag_253\n      jumpi\n        /* \"#utility.yul\":6595:6674   */\n      tag_254\n      tag_124\n      jump\t// in\n    tag_254:\n        /* \"#utility.yul\":6559:6676   */\n    tag_253:\n        /* \"#utility.yul\":6700:6763   */\n      tag_255\n        /* \"#utility.yul\":6755:6762   */\n      dup8\n        /* \"#utility.yul\":6746:6752   */\n      dup3\n        /* \"#utility.yul\":6735:6744   */\n      dup9\n        /* \"#utility.yul\":6731:6753   */\n      add\n        /* \"#utility.yul\":6700:6763   */\n      tag_147\n      jump\t// in\n    tag_255:\n        /* \"#utility.yul\":6690:6763   */\n      swap2\n      pop\n        /* \"#utility.yul\":6485:6773   */\n      pop\n        /* \"#utility.yul\":5655:6780   */\n      swap3\n      swap6\n      swap2\n      swap5\n      pop\n      swap3\n      pop\n      jump\t// out\n        /* \"#utility.yul\":6786:7008   */\n    tag_28:\n        /* \"#utility.yul\":6879:6883   */\n      0x00\n        /* \"#utility.yul\":6917:6919   */\n      0x20\n        /* \"#utility.yul\":6906:6915   */\n      dup3\n        /* \"#utility.yul\":6902:6920   */\n      add\n        /* \"#utility.yul\":6894:6920   */\n      swap1\n      pop\n        /* \"#utility.yul\":6930:7001   */\n      tag_257\n        /* \"#utility.yul\":6998:6999   */\n      0x00\n        /* \"#utility.yul\":6987:6996   */\n      dup4\n        /* \"#utility.yul\":6983:7000   */\n      add\n        /* \"#utility.yul\":6974:6980   */\n      dup5\n        /* \"#utility.yul\":6930:7001   */\n      tag_128\n      jump\t// in\n    tag_257:\n        /* \"#utility.yul\":6786:7008   */\n      swap3\n      swap2\n      pop\n      pop\n      jump\t// out\n        /* \"#utility.yul\":7014:7343   */\n    tag_31:\n        /* \"#utility.yul\":7073:7079   */\n      0x00\n        /* \"#utility.yul\":7122:7124   */\n      0x20\n        /* \"#utility.yul\":7110:7119   */\n      dup3\n        /* \"#utility.yul\":7101:7108   */\n      dup5\n        /* \"#utility.yul\":7097:7120   */\n      sub\n        /* \"#utility.yul\":7093:7125   */\n      slt\n        /* \"#utility.yul\":7090:7209   */\n      iszero\n      tag_259\n      jumpi\n        /* \"#utility.yul\":7128:7207   */\n      tag_260\n      tag_123\n      jump\t// in\n    tag_260:\n        /* \"#utility.yul\":7090:7209   */\n    tag_259:\n        /* \"#utility.yul\":7248:7249   */\n      0x00\n        /* \"#utility.yul\":7273:7326   */\n      tag_261\n        /* \"#utility.yul\":7318:7325   */\n      dup5\n        /* \"#utility.yul\":7309:7315   */\n      dup3\n        /* \"#utility.yul\":7298:7307   */\n      dup6\n        /* \"#utility.yul\":7294:7316   */\n      add\n        /* \"#utility.yul\":7273:7326   */\n      tag_138\n      jump\t// in\n    tag_261:\n        /* \"#utility.yul\":7263:7326   */\n      swap2\n      pop\n        /* \"#utility.yul\":7219:7336   */\n      pop\n        /* \"#utility.yul\":7014:7343   */\n      swap3\n      swap2\n      pop\n      pop\n      jump\t// out\n        /* \"#utility.yul\":7349:7513   */\n    tag_148:\n        /* \"#utility.yul\":7489:7505   */\n      0x496e76616c696420696e6465782e000000000000000000000000000000000000\n        /* \"#utility.yul\":7485:7486   */\n      0x00\n        /* \"#utility.yul\":7477:7483   */\n      dup3\n        /* \"#utility.yul\":7473:7487   */\n      add\n        /* \"#utility.yul\":7466:7506   */\n      mstore\n        /* \"#utility.yul\":7349:7513   */\n      pop\n      jump\t// out\n        /* \"#utility.yul\":7519:7885   */\n    tag_149:\n        /* \"#utility.yul\":7661:7664   */\n      0x00\n        /* \"#utility.yul\":7682:7749   */\n      tag_264\n        /* \"#utility.yul\":7746:7748   */\n      0x0e\n        /* \"#utility.yul\":7741:7744   */\n      dup4\n        /* \"#utility.yul\":7682:7749   */\n      tag_133\n      jump\t// in\n    tag_264:\n        /* \"#utility.yul\":7675:7749   */\n      swap2\n      pop\n        /* \"#utility.yul\":7758:7851   */\n      tag_265\n        /* \"#utility.yul\":7847:7850   */\n      dup3\n        /* \"#utility.yul\":7758:7851   */\n      tag_148\n      jump\t// in\n    tag_265:\n        /* \"#utility.yul\":7876:7878   */\n      0x20\n        /* \"#utility.yul\":7871:7874   */\n      dup3\n        /* \"#utility.yul\":7867:7879   */\n      add\n        /* \"#utility.yul\":7860:7879   */\n      swap1\n      pop\n        /* \"#utility.yul\":7519:7885   */\n      swap2\n      swap1\n      pop\n      jump\t// out\n        /* \"#utility.yul\":7891:8310   */\n    tag_45:\n        /* \"#utility.yul\":8057:8061   */\n      0x00\n        /* \"#utility.yul\":8095:8097   */\n      0x20\n        /* \"#utility.yul\":8084:8093   */\n      dup3\n        /* \"#utility.yul\":8080:8098   */\n      add\n        /* \"#utility.yul\":8072:8098   */\n      swap1\n      pop\n        /* \"#utility.yul\":8144:8153   */\n      dup2\n        /* \"#utility.yul\":8138:8142   */\n      dup2\n        /* \"#utility.yul\":8134:8154   */\n      sub\n        /* \"#utility.yul\":8130:8131   */\n      0x00\n        /* \"#utility.yul\":8119:8128   */\n      dup4\n        /* \"#utility.yul\":8115:8132   */\n      add\n        /* \"#utility.yul\":8108:8155   */\n      mstore\n        /* \"#utility.yul\":8172:8303   */\n      tag_267\n        /* \"#utility.yul\":8298:8302   */\n      dup2\n        /* \"#utility.yul\":8172:8303   */\n      tag_149\n      jump\t// in\n    tag_267:\n        /* \"#utility.yul\":8164:8303   */\n      swap1\n      pop\n        /* \"#utility.yul\":7891:8310   */\n      swap2\n      swap1\n      pop\n      jump\t// out\n        /* \"#utility.yul\":8316:8496   */\n    tag_150:\n        /* \"#utility.yul\":8364:8441   */\n      0x4e487b7100000000000000000000000000000000000000000000000000000000\n        /* \"#utility.yul\":8361:8362   */\n      0x00\n        /* \"#utility.yul\":8354:8442   */\n      mstore\n        /* \"#utility.yul\":8461:8465   */\n      0x22\n        /* \"#utility.yul\":8458:8459   */\n      0x04\n        /* \"#utility.yul\":8451:8466   */\n      mstore\n        /* \"#utility.yul\":8485:8489   */\n      0x24\n        /* \"#utility.yul\":8482:8483   */\n      0x00\n        /* \"#utility.yul\":8475:8490   */\n      revert\n        /* \"#utility.yul\":8502:8822   */\n    tag_47:\n        /* \"#utility.yul\":8546:8552   */\n      0x00\n        /* \"#utility.yul\":8583:8584   */\n      0x02\n        /* \"#utility.yul\":8577:8581   */\n      dup3\n        /* \"#utility.yul\":8573:8585   */\n      div\n        /* \"#utility.yul\":8563:8585   */\n      swap1\n      pop\n        /* \"#utility.yul\":8630:8631   */\n      0x01\n        /* \"#utility.yul\":8624:8628   */\n      dup3\n        /* \"#utility.yul\":8620:8632   */\n      and\n        /* \"#utility.yul\":8651:8669   */\n      dup1\n        /* \"#utility.yul\":8641:8722   */\n      tag_270\n      jumpi\n        /* \"#utility.yul\":8707:8711   */\n      0x7f\n        /* \"#utility.yul\":8699:8705   */\n      dup3\n        /* \"#utility.yul\":8695:8712   */\n      and\n        /* \"#utility.yul\":8685:8712   */\n      swap2\n      pop\n        /* \"#utility.yul\":8641:8722   */\n    tag_270:\n        /* \"#utility.yul\":8769:8771   */\n      0x20\n        /* \"#utility.yul\":8761:8767   */\n      dup3\n        /* \"#utility.yul\":8758:8772   */\n      lt\n        /* \"#utility.yul\":8738:8756   */\n      dup2\n        /* \"#utility.yul\":8735:8773   */\n      sub\n        /* \"#utility.yul\":8732:8816   */\n      tag_271\n      jumpi\n        /* \"#utility.yul\":8788:8806   */\n      tag_272\n      tag_150\n      jump\t// in\n    tag_272:\n        /* \"#utility.yul\":8732:8816   */\n    tag_271:\n        /* \"#utility.yul\":8553:8822   */\n      pop\n        /* \"#utility.yul\":8502:8822   */\n      swap2\n      swap1\n      pop\n      jump\t// out\n        /* \"#utility.yul\":8828:9049   */\n    tag_151:\n        /* \"#utility.yul\":8968:9002   */\n      0x4f6e6c79206f776e65722063616e2063616c6c20746869732066756e6374696f\n        /* \"#utility.yul\":8964:8965   */\n      0x00\n        /* \"#utility.yul\":8956:8962   */\n      dup3\n        /* \"#utility.yul\":8952:8966   */\n      add\n        /* \"#utility.yul\":8945:9003   */\n      mstore\n        /* \"#utility.yul\":9037:9041   */\n      0x6e2e000000000000000000000000000000000000000000000000000000000000\n        /* \"#utility.yul\":9032:9034   */\n      0x20\n        /* \"#utility.yul\":9024:9030   */\n      dup3\n        /* \"#utility.yul\":9020:9035   */\n      add\n        /* \"#utility.yul\":9013:9042   */\n      mstore\n        /* \"#utility.yul\":8828:9049   */\n      pop\n      jump\t// out\n        /* \"#utility.yul\":9055:9421   */\n    tag_152:\n        /* \"#utility.yul\":9197:9200   */\n      0x00\n        /* \"#utility.yul\":9218:9285   */\n      tag_275\n        /* \"#utility.yul\":9282:9284   */\n      0x22\n        /* \"#utility.yul\":9277:9280   */\n      dup4\n        /* \"#utility.yul\":9218:9285   */\n      tag_133\n      jump\t// in\n    tag_275:\n        /* \"#utility.yul\":9211:9285   */\n      swap2\n      pop\n        /* \"#utility.yul\":9294:9387   */\n      tag_276\n        /* \"#utility.yul\":9383:9386   */\n      dup3\n        /* \"#utility.yul\":9294:9387   */\n      tag_151\n      jump\t// in\n    tag_276:\n        /* \"#utility.yul\":9412:9414   */\n      0x40\n        /* \"#utility.yul\":9407:9410   */\n      dup3\n        /* \"#utility.yul\":9403:9415   */\n      add\n        /* \"#utility.yul\":9396:9415   */\n      swap1\n      pop\n        /* \"#utility.yul\":9055:9421   */\n      swap2\n      swap1\n      pop\n      jump\t// out\n        /* \"#utility.yul\":9427:9846   */\n    tag_60:\n        /* \"#utility.yul\":9593:9597   */\n      0x00\n        /* \"#utility.yul\":9631:9633   */\n      0x20\n        /* \"#utility.yul\":9620:9629   */\n      dup3\n        /* \"#utility.yul\":9616:9634   */\n      add\n        /* \"#utility.yul\":9608:9634   */\n      swap1\n      pop\n        /* \"#utility.yul\":9680:9689   */\n      dup2\n        /* \"#utility.yul\":9674:9678   */\n      dup2\n        /* \"#utility.yul\":9670:9690   */\n      sub\n        /* \"#utility.yul\":9666:9667   */\n      0x00\n        /* \"#utility.yul\":9655:9664   */\n      dup4\n        /* \"#utility.yul\":9651:9668   */\n      add\n        /* \"#utility.yul\":9644:9691   */\n      mstore\n        /* \"#utility.yul\":9708:9839   */\n      tag_278\n        /* \"#utility.yul\":9834:9838   */\n      dup2\n        /* \"#utility.yul\":9708:9839   */\n      tag_152\n      jump\t// in\n    tag_278:\n        /* \"#utility.yul\":9700:9839   */\n      swap1\n      pop\n        /* \"#utility.yul\":9427:9846   */\n      swap2\n      swap1\n      pop\n      jump\t// out\n        /* \"#utility.yul\":9852:9993   */\n    tag_153:\n        /* \"#utility.yul\":9901:9905   */\n      0x00\n        /* \"#utility.yul\":9924:9927   */\n      dup2\n        /* \"#utility.yul\":9916:9927   */\n      swap1\n      pop\n        /* \"#utility.yul\":9947:9950   */\n      dup2\n        /* \"#utility.yul\":9944:9945   */\n      0x00\n        /* \"#utility.yul\":9937:9951   */\n      mstore\n        /* \"#utility.yul\":9981:9985   */\n      0x20\n        /* \"#utility.yul\":9978:9979   */\n      0x00\n        /* \"#utility.yul\":9968:9986   */\n      keccak256\n        /* \"#utility.yul\":9960:9986   */\n      swap1\n      pop\n        /* \"#utility.yul\":9852:9993   */\n      swap2\n      swap1\n      pop\n      jump\t// out\n        /* \"#utility.yul\":9999:10092   */\n    tag_154:\n        /* \"#utility.yul\":10036:10042   */\n      0x00\n        /* \"#utility.yul\":10083:10085   */\n      0x20\n        /* \"#utility.yul\":10078:10080   */\n      0x1f\n        /* \"#utility.yul\":10071:10076   */\n      dup4\n        /* \"#utility.yul\":10067:10081   */\n      add\n        /* \"#utility.yul\":10063:10086   */\n      div\n        /* \"#utility.yul\":10053:10086   */\n      swap1\n      pop\n        /* \"#utility.yul\":9999:10092   */\n      swap2\n      swap1\n      pop\n      jump\t// out\n        /* \"#utility.yul\":10098:10205   */\n    tag_155:\n        /* \"#utility.yul\":10142:10150   */\n      0x00\n        /* \"#utility.yul\":10192:10197   */\n      dup3\n        /* \"#utility.yul\":10186:10190   */\n      dup3\n        /* \"#utility.yul\":10182:10198   */\n      shl\n        /* \"#utility.yul\":10161:10198   */\n      swap1\n      pop\n        /* \"#utility.yul\":10098:10205   */\n      swap3\n      swap2\n      pop\n      pop\n      jump\t// out\n        /* \"#utility.yul\":10211:10604   */\n    tag_156:\n        /* \"#utility.yul\":10280:10286   */\n      0x00\n        /* \"#utility.yul\":10330:10331   */\n      0x08\n        /* \"#utility.yul\":10318:10328   */\n      dup4\n        /* \"#utility.yul\":10314:10332   */\n      mul\n        /* \"#utility.yul\":10353:10450   */\n      tag_283\n        /* \"#utility.yul\":10383:10449   */\n      0xffffffffffffffffffffffffffffffffffffffffffffffffffffffffffffffff\n        /* \"#utility.yul\":10372:10381   */\n      dup3\n        /* \"#utility.yul\":10353:10450   */\n      tag_155\n      jump\t// in\n    tag_283:\n        /* \"#utility.yul\":10471:10510   */\n      tag_284\n        /* \"#utility.yul\":10501:10509   */\n      dup7\n        /* \"#utility.yul\":10490:10499   */\n      dup4\n        /* \"#utility.yul\":10471:10510   */\n      tag_155\n      jump\t// in\n    tag_284:\n        /* \"#utility.yul\":10459:10510   */\n      swap6\n      pop\n        /* \"#utility.yul\":10543:10547   */\n      dup1\n        /* \"#utility.yul\":10539:10548   */\n      not\n        /* \"#utility.yul\":10532:10537   */\n      dup5\n        /* \"#utility.yul\":10528:10549   */\n      and\n        /* \"#utility.yul\":10519:10549   */\n      swap4\n      pop\n        /* \"#utility.yul\":10592:10596   */\n      dup1\n        /* \"#utility.yul\":10582:10590   */\n      dup7\n        /* \"#utility.yul\":10578:10597   */\n      and\n        /* \"#utility.yul\":10571:10576   */\n      dup5\n        /* \"#utility.yul\":10568:10598   */\n      or\n        /* \"#utility.yul\":10558:10598   */\n      swap3\n      pop\n        /* \"#utility.yul\":10287:10604   */\n      pop\n      pop\n        /* \"#utility.yul\":10211:10604   */\n      swap4\n      swap3\n      pop\n      pop\n      pop\n      jump\t// out\n        /* \"#utility.yul\":10610:10670   */\n    tag_157:\n        /* \"#utility.yul\":10638:10641   */\n      0x00\n        /* \"#utility.yul\":10659:10664   */\n      dup2\n        /* \"#utility.yul\":10652:10664   */\n      swap1\n      pop\n        /* \"#utility.yul\":10610:10670   */\n      swap2\n      swap1\n      pop\n      jump\t// out\n        /* \"#utility.yul\":10676:10818   */\n    tag_158:\n        /* \"#utility.yul\":10726:10735   */\n      0x00\n        /* \"#utility.yul\":10759:10812   */\n      tag_287\n        /* \"#utility.yul\":10777:10811   */\n      tag_288\n        /* \"#utility.yul\":10786:10810   */\n      tag_289\n        /* \"#utility.yul\":10804:10809   */\n      dup5\n        /* \"#utility.yul\":10786:10810   */\n      tag_125\n      jump\t// in\n    tag_289:\n        /* \"#utility.yul\":10777:10811   */\n      tag_157\n      jump\t// in\n    tag_288:\n        /* \"#utility.yul\":10759:10812   */\n      tag_125\n      jump\t// in\n    tag_287:\n        /* \"#utility.yul\":10746:10812   */\n      swap1\n      pop\n        /* \"#utility.yul\":10676:10818   */\n      swap2\n      swap1\n      pop\n      jump\t// out\n        /* \"#utility.yul\":10824:10899   */\n    tag_159:\n        /* \"#utility.yul\":10867:10870   */\n      0x00\n        /* \"#utility.yul\":10888:10893   */\n      dup2\n        /* \"#utility.yul\":10881:10893   */\n      swap1\n      pop\n        /* \"#utility.yul\":10824:10899   */\n      swap2\n      swap1\n      pop\n      jump\t// out\n        /* \"#utility.yul\":10905:11174   */\n    tag_160:\n        /* \"#utility.yul\":11015:11054   */\n      tag_292\n        /* \"#utility.yul\":11046:11053   */\n      dup4\n        /* \"#utility.yul\":11015:11054   */\n      tag_158\n      jump\t// in\n    tag_292:\n        /* \"#utility.yul\":11076:11167   */\n      tag_293\n        /* \"#utility.yul\":11125:11166   */\n      tag_294\n        /* \"#utility.yul\":11149:11165   */\n      dup3\n        /* \"#utility.yul\":11125:11166   */\n      tag_159\n      jump\t// in\n    tag_294:\n        /* \"#utility.yul\":11117:11123   */\n      dup5\n        /* \"#utility.yul\":11110:11114   */\n      dup5\n        /* \"#utility.yul\":11104:11115   */\n      sload\n        /* \"#utility.yul\":11076:11167   */\n      tag_156\n      jump\t// in\n    tag_293:\n        /* \"#utility.yul\":11070:11074   */\n      dup3\n        /* \"#utility.yul\":11063:11168   */\n      sstore\n        /* \"#utility.yul\":10981:11174   */\n      pop\n        /* \"#utility.yul\":10905:11174   */\n      pop\n      pop\n      pop\n      jump\t// out\n        /* \"#utility.yul\":11180:11253   */\n    tag_161:\n        /* \"#utility.yul\":11225:11228   */\n      0x00\n        /* \"#utility.yul\":11180:11253   */\n      swap1\n      jump\t// out\n        /* \"#utility.yul\":11259:11448   */\n    tag_162:\n        /* \"#utility.yul\":11336:11368   */\n      tag_297\n      tag_161\n      jump\t// in\n    tag_297:\n        /* \"#utility.yul\":11377:11442   */\n      tag_298\n        /* \"#utility.yul\":11435:11441   */\n      dup2\n        /* \"#utility.yul\":11427:11433   */\n      dup5\n        /* \"#utility.yul\":11421:11425   */\n      dup5\n        /* \"#utility.yul\":11377:11442   */\n      tag_160\n      jump\t// in\n    tag_298:\n        /* \"#utility.yul\":11312:11448   */\n      pop\n        /* \"#utility.yul\":11259:11448   */\n      pop\n      pop\n      jump\t// out\n        /* \"#utility.yul\":11454:11640   */\n    tag_163:\n        /* \"#utility.yul\":11514:11634   */\n    tag_300:\n        /* \"#utility.yul\":11531:11534   */\n      dup2\n        /* \"#utility.yul\":11524:11529   */\n      dup2\n        /* \"#utility.yul\":11521:11535   */\n      lt\n        /* \"#utility.yul\":11514:11634   */\n      iszero\n      tag_302\n      jumpi\n        /* \"#utility.yul\":11585:11624   */\n      tag_303\n        /* \"#utility.yul\":11622:11623   */\n      0x00\n        /* \"#utility.yul\":11615:11620   */\n      dup3\n        /* \"#utility.yul\":11585:11624   */\n      tag_162\n      jump\t// in\n    tag_303:\n        /* \"#utility.yul\":11558:11559   */\n      0x01\n        /* \"#utility.yul\":11551:11556   */\n      dup2\n        /* \"#utility.yul\":11547:11560   */\n      add\n        /* \"#utility.yul\":11538:11560   */\n      swap1\n      pop\n        /* \"#utility.yul\":11514:11634   */\n      jump(tag_300)\n    tag_302:\n        /* \"#utility.yul\":11454:11640   */\n      pop\n      pop\n      jump\t// out\n        /* \"#utility.yul\":11646:12189   */\n    tag_164:\n        /* \"#utility.yul\":11747:11749   */\n      0x1f\n        /* \"#utility.yul\":11742:11745   */\n      dup3\n        /* \"#utility.yul\":11739:11750   */\n      gt\n        /* \"#utility.yul\":11736:12182   */\n      iszero\n      tag_305\n      jumpi\n        /* \"#utility.yul\":11781:11819   */\n      tag_306\n        /* \"#utility.yul\":11813:11818   */\n      dup2\n        /* \"#utility.yul\":11781:11819   */\n      tag_153\n      jump\t// in\n    tag_306:\n        /* \"#utility.yul\":11865:11894   */\n      tag_307\n        /* \"#utility.yul\":11883:11893   */\n      dup5\n        /* \"#utility.yul\":11865:11894   */\n      tag_154\n      jump\t// in\n    tag_307:\n        /* \"#utility.yul\":11855:11863   */\n      dup2\n        /* \"#utility.yul\":11851:11895   */\n      add\n        /* \"#utility.yul\":12048:12050   */\n      0x20\n        /* \"#utility.yul\":12036:12046   */\n      dup6\n        /* \"#utility.yul\":12033:12051   */\n      lt\n        /* \"#utility.yul\":12030:12079   */\n      iszero\n      tag_308\n      jumpi\n        /* \"#utility.yul\":12069:12077   */\n      dup2\n        /* \"#utility.yul\":12054:12077   */\n      swap1\n      pop\n        /* \"#utility.yul\":12030:12079   */\n    tag_308:\n        /* \"#utility.yul\":12092:12172   */\n      tag_309\n        /* \"#utility.yul\":12148:12170   */\n      tag_310\n        /* \"#utility.yul\":12166:12169   */\n      dup6\n        /* \"#utility.yul\":12148:12170   */\n      tag_154\n      jump\t// in\n    tag_310:\n        /* \"#utility.yul\":12138:12146   */\n      dup4\n        /* \"#utility.yul\":12134:12171   */\n      add\n        /* \"#utility.yul\":12121:12132   */\n      dup3\n        /* \"#utility.yul\":12092:12172   */\n      tag_163\n      jump\t// in\n    tag_309:\n        /* \"#utility.yul\":11751:12182   */\n      pop\n      pop\n        /* \"#utility.yul\":11736:12182   */\n    tag_305:\n        /* \"#utility.yul\":11646:12189   */\n      pop\n      pop\n      pop\n      jump\t// out\n        /* \"#utility.yul\":12195:12312   */\n    tag_165:\n        /* \"#utility.yul\":12249:12257   */\n      0x00\n        /* \"#utility.yul\":12299:12304   */\n      dup3\n        /* \"#utility.yul\":12293:12297   */\n      dup3\n        /* \"#utility.yul\":12289:12305   */\n      shr\n        /* \"#utility.yul\":12268:12305   */\n      swap1\n      pop\n        /* \"#utility.yul\":12195:12312   */\n      swap3\n      swap2\n      pop\n      pop\n      jump\t// out\n        /* \"#utility.yul\":12318:12487   */\n    tag_166:\n        /* \"#utility.yul\":12362:12368   */\n      0x00\n        /* \"#utility.yul\":12395:12446   */\n      tag_313\n        /* \"#utility.yul\":12443:12444   */\n      0x00\n        /* \"#utility.yul\":12439:12445   */\n      not\n        /* \"#utility.yul\":12431:12436   */\n      dup5\n        /* \"#utility.yul\":12428:12429   */\n      0x08\n        /* \"#utility.yul\":12424:12437   */\n      mul\n        /* \"#utility.yul\":12395:12446   */\n      tag_165\n      jump\t// in\n    tag_313:\n        /* \"#utility.yul\":12391:12447   */\n      not\n        /* \"#utility.yul\":12476:12480   */\n      dup1\n        /* \"#utility.yul\":12470:12474   */\n      dup4\n        /* \"#utility.yul\":12466:12481   */\n      and\n        /* \"#utility.yul\":12456:12481   */\n      swap2\n      pop\n        /* \"#utility.yul\":12369:12487   */\n      pop\n        /* \"#utility.yul\":12318:12487   */\n      swap3\n      swap2\n      pop\n      pop\n      jump\t// out\n        /* \"#utility.yul\":12492:12787   */\n    tag_167:\n        /* \"#utility.yul\":12568:12572   */\n      0x00\n        /* \"#utility.yul\":12714:12743   */\n      tag_315\n        /* \"#utility.yul\":12739:12742   */\n      dup4\n        /* \"#utility.yul\":12733:12737   */\n      dup4\n        /* \"#utility.yul\":12714:12743   */\n      tag_166\n      jump\t// in\n    tag_315:\n        /* \"#utility.yul\":12706:12743   */\n      swap2\n      pop\n        /* \"#utility.yul\":12776:12779   */\n      dup3\n        /* \"#utility.yul\":12773:12774   */\n      0x02\n        /* \"#utility.yul\":12769:12780   */\n      mul\n        /* \"#utility.yul\":12763:12767   */\n      dup3\n        /* \"#utility.yul\":12760:12781   */\n      or\n        /* \"#utility.yul\":12752:12781   */\n      swap1\n      pop\n        /* \"#utility.yul\":12492:12787   */\n      swap3\n      swap2\n      pop\n      pop\n      jump\t// out\n        /* \"#utility.yul\":12792:14187   */\n    tag_64:\n        /* \"#utility.yul\":12909:12946   */\n      tag_317\n        /* \"#utility.yul\":12942:12945   */\n      dup3\n        /* \"#utility.yul\":12909:12946   */\n      tag_132\n      jump\t// in\n    tag_317:\n        /* \"#utility.yul\":13011:13029   */\n      0xffffffffffffffff\n        /* \"#utility.yul\":13003:13009   */\n      dup2\n        /* \"#utility.yul\":13000:13030   */\n      gt\n        /* \"#utility.yul\":12997:13053   */\n      iszero\n      tag_318\n      jumpi\n        /* \"#utility.yul\":13033:13051   */\n      tag_319\n      tag_141\n      jump\t// in\n    tag_319:\n        /* \"#utility.yul\":12997:13053   */\n    tag_318:\n        /* \"#utility.yul\":13077:13115   */\n      tag_320\n        /* \"#utility.yul\":13109:13113   */\n      dup3\n        /* \"#utility.yul\":13103:13114   */\n      sload\n        /* \"#utility.yul\":13077:13115   */\n      tag_47\n      jump\t// in\n    tag_320:\n        /* \"#utility.yul\":13162:13229   */\n      tag_321\n        /* \"#utility.yul\":13222:13228   */\n      dup3\n        /* \"#utility.yul\":13214:13220   */\n      dup3\n        /* \"#utility.yul\":13208:13212   */\n      dup6\n        /* \"#utility.yul\":13162:13229   */\n      tag_164\n      jump\t// in\n    tag_321:\n        /* \"#utility.yul\":13256:13257   */\n      0x00\n        /* \"#utility.yul\":13280:13284   */\n      0x20\n        /* \"#utility.yul\":13267:13284   */\n      swap1\n      pop\n        /* \"#utility.yul\":13312:13314   */\n      0x1f\n        /* \"#utility.yul\":13304:13310   */\n      dup4\n        /* \"#utility.yul\":13301:13315   */\n      gt\n        /* \"#utility.yul\":13329:13330   */\n      0x01\n        /* \"#utility.yul\":13324:13942   */\n      dup2\n      eq\n      tag_323\n      jumpi\n        /* \"#utility.yul\":13986:13987   */\n      0x00\n        /* \"#utility.yul\":14003:14009   */\n      dup5\n        /* \"#utility.yul\":14000:14077   */\n      iszero\n      tag_324\n      jumpi\n        /* \"#utility.yul\":14052:14061   */\n      dup3\n        /* \"#utility.yul\":14047:14050   */\n      dup8\n        /* \"#utility.yul\":14043:14062   */\n      add\n        /* \"#utility.yul\":14037:14063   */\n      mload\n        /* \"#utility.yul\":14028:14063   */\n      swap1\n      pop\n        /* \"#utility.yul\":14000:14077   */\n    tag_324:\n        /* \"#utility.yul\":14103:14170   */\n      tag_325\n        /* \"#utility.yul\":14163:14169   */\n      dup6\n        /* \"#utility.yul\":14156:14161   */\n      dup3\n        /* \"#utility.yul\":14103:14170   */\n      tag_167\n      jump\t// in\n    tag_325:\n        /* \"#utility.yul\":14097:14101   */\n      dup7\n        /* \"#utility.yul\":14090:14171   */\n      sstore\n        /* \"#utility.yul\":13959:14181   */\n      pop\n        /* \"#utility.yul\":13294:14181   */\n      jump(tag_322)\n        /* \"#utility.yul\":13324:13942   */\n    tag_323:\n        /* \"#utility.yul\":13376:13380   */\n      0x1f\n        /* \"#utility.yul\":13372:13381   */\n      not\n        /* \"#utility.yul\":13364:13370   */\n      dup5\n        /* \"#utility.yul\":13360:13382   */\n      and\n        /* \"#utility.yul\":13410:13447   */\n      tag_326\n        /* \"#utility.yul\":13442:13446   */\n      dup7\n        /* \"#utility.yul\":13410:13447   */\n      tag_153\n      jump\t// in\n    tag_326:\n        /* \"#utility.yul\":13469:13470   */\n      0x00\n        /* \"#utility.yul\":13483:13691   */\n    tag_327:\n        /* \"#utility.yul\":13497:13504   */\n      dup3\n        /* \"#utility.yul\":13494:13495   */\n      dup2\n        /* \"#utility.yul\":13491:13505   */\n      lt\n        /* \"#utility.yul\":13483:13691   */\n      iszero\n      tag_329\n      jumpi\n        /* \"#utility.yul\":13576:13585   */\n      dup5\n        /* \"#utility.yul\":13571:13574   */\n      dup10\n        /* \"#utility.yul\":13567:13586   */\n      add\n        /* \"#utility.yul\":13561:13587   */\n      mload\n        /* \"#utility.yul\":13553:13559   */\n      dup3\n        /* \"#utility.yul\":13546:13588   */\n      sstore\n        /* \"#utility.yul\":13627:13628   */\n      0x01\n        /* \"#utility.yul\":13619:13625   */\n      dup3\n        /* \"#utility.yul\":13615:13629   */\n      add\n        /* \"#utility.yul\":13605:13629   */\n      swap2\n      pop\n        /* \"#utility.yul\":13674:13676   */\n      0x20\n        /* \"#utility.yul\":13663:13672   */\n      dup6\n        /* \"#utility.yul\":13659:13677   */\n      add\n        /* \"#utility.yul\":13646:13677   */\n      swap5\n      pop\n        /* \"#utility.yul\":13520:13524   */\n      0x20\n        /* \"#utility.yul\":13517:13518   */\n      dup2\n        /* \"#utility.yul\":13513:13525   */\n      add\n        /* \"#utility.yul\":13508:13525   */\n      swap1\n      pop\n        /* \"#utility.yul\":13483:13691   */\n      jump(tag_327)\n    tag_329:\n        /* \"#utility.yul\":13719:13725   */\n      dup7\n        /* \"#utility.yul\":13710:13717   */\n      dup4\n        /* \"#utility.yul\":13707:13726   */\n      lt\n        /* \"#utility.yul\":13704:13883   */\n      iszero\n      tag_330\n      jumpi\n        /* \"#utility.yul\":13777:13786   */\n      dup5\n        /* \"#utility.yul\":13772:13775   */\n      dup10\n        /* \"#utility.yul\":13768:13787   */\n      add\n        /* \"#utility.yul\":13762:13788   */\n      mload\n        /* \"#utility.yul\":13820:13868   */\n      tag_331\n        /* \"#utility.yul\":13862:13866   */\n      0x1f\n        /* \"#utility.yul\":13854:13860   */\n      dup10\n        /* \"#utility.yul\":13850:13867   */\n      and\n        /* \"#utility.yul\":13839:13848   */\n      dup3\n        /* \"#utility.yul\":13820:13868   */\n      tag_166\n      jump\t// in\n    tag_331:\n        /* \"#utility.yul\":13812:13818   */\n      dup4\n        /* \"#utility.yul\":13805:13869   */\n      sstore\n        /* \"#utility.yul\":13727:13883   */\n      pop\n        /* \"#utility.yul\":13704:13883   */\n    tag_330:\n        /* \"#utility.yul\":13929:13930   */\n      0x01\n        /* \"#utility.yul\":13925:13926   */\n      0x02\n        /* \"#utility.yul\":13917:13923   */\n      dup9\n        /* \"#utility.yul\":13913:13927   */\n      mul\n        /* \"#utility.yul\":13909:13931   */\n      add\n        /* \"#utility.yul\":13903:13907   */\n      dup9\n        /* \"#utility.yul\":13896:13932   */\n      sstore\n        /* \"#utility.yul\":13331:13942   */\n      pop\n      pop\n      pop\n        /* \"#utility.yul\":13294:14181   */\n    tag_322:\n      pop\n        /* \"#utility.yul\":12884:14187   */\n      pop\n      pop\n      pop\n        /* \"#utility.yul\":12792:14187   */\n      pop\n      pop\n      jump\t// out\n        /* \"#utility.yul\":14193:14373   */\n    tag_168:\n        /* \"#utility.yul\":14241:14318   */\n      0x4e487b7100000000000000000000000000000000000000000000000000000000\n        /* \"#utility.yul\":14238:14239   */\n      0x00\n        /* \"#utility.yul\":14231:14319   */\n      mstore\n        /* \"#utility.yul\":14338:14342   */\n      0x11\n        /* \"#utility.yul\":14335:14336   */\n      0x04\n        /* \"#utility.yul\":14328:14343   */\n      mstore\n        /* \"#utility.yul\":14362:14366   */\n      0x24\n        /* \"#utility.yul\":14359:14360   */\n      0x00\n        /* \"#utility.yul\":14352:14367   */\n      revert\n        /* \"#utility.yul\":14379:14570   */\n    tag_75:\n        /* \"#utility.yul\":14419:14422   */\n      0x00\n        /* \"#utility.yul\":14438:14458   */\n      tag_334\n        /* \"#utility.yul\":14456:14457   */\n      dup3\n        /* \"#utility.yul\":14438:14458   */\n      tag_125\n      jump\t// in\n    tag_334:\n        /* \"#utility.yul\":14433:14458   */\n      swap2\n      pop\n        /* \"#utility.yul\":14472:14492   */\n      tag_335\n        /* \"#utility.yul\":14490:14491   */\n      dup4\n        /* \"#utility.yul\":14472:14492   */\n      tag_125\n      jump\t// in\n    tag_335:\n        /* \"#utility.yul\":14467:14492   */\n      swap3\n      pop\n        /* \"#utility.yul\":14515:14516   */\n      dup3\n        /* \"#utility.yul\":14512:14513   */\n      dup3\n        /* \"#utility.yul\":14508:14517   */\n      add\n        /* \"#utility.yul\":14501:14517   */\n      swap1\n      pop\n        /* \"#utility.yul\":14536:14539   */\n      dup1\n        /* \"#utility.yul\":14533:14534   */\n      dup3\n        /* \"#utility.yul\":14530:14540   */\n      gt\n        /* \"#utility.yul\":14527:14563   */\n      iszero\n      tag_336\n      jumpi\n        /* \"#utility.yul\":14543:14561   */\n      tag_337\n      tag_168\n      jump\t// in\n    tag_337:\n        /* \"#utility.yul\":14527:14563   */\n    tag_336:\n        /* \"#utility.yul\":14379:14570   */\n      swap3\n      swap2\n      pop\n      pop\n      jump\t// out\n        /* \"#utility.yul\":14576:14729   */\n    tag_169:\n        /* \"#utility.yul\":14629:14635   */\n      0x00\n        /* \"#utility.yul\":14663:14668   */\n      dup2\n        /* \"#utility.yul\":14657:14669   */\n      sload\n        /* \"#utility.yul\":14647:14669   */\n      swap1\n      pop\n        /* \"#utility.yul\":14689:14722   */\n      tag_339\n        /* \"#utility.yul\":14715:14721   */\n      dup2\n        /* \"#utility.yul\":14689:14722   */\n      tag_47\n      jump\t// in\n    tag_339:\n        /* \"#utility.yul\":14679:14722   */\n      swap1\n      pop\n        /* \"#utility.yul\":14576:14729   */\n      swap2\n      swap1\n      pop\n      jump\t// out\n        /* \"#utility.yul\":14735:14880   */\n    tag_170:\n        /* \"#utility.yul\":14788:14792   */\n      0x00\n        /* \"#utility.yul\":14811:14814   */\n      dup2\n        /* \"#utility.yul\":14803:14814   */\n      swap1\n      pop\n        /* \"#utility.yul\":14834:14837   */\n      dup2\n        /* \"#utility.yul\":14831:14832   */\n      0x00\n        /* \"#utility.yul\":14824:14838   */\n      mstore\n        /* \"#utility.yul\":14868:14872   */\n      0x20\n        /* \"#utility.yul\":14865:14866   */\n      0x00\n        /* \"#utility.yul\":14855:14873   */\n      keccak256\n        /* \"#utility.yul\":14847:14873   */\n      swap1\n      pop\n        /* \"#utility.yul\":14735:14880   */\n      swap2\n      swap1\n      pop\n      jump\t// out\n        /* \"#utility.yul\":14886:16349   */\n    tag_80:\n        /* \"#utility.yul\":15001:15004   */\n      dup2\n        /* \"#utility.yul\":14995:14999   */\n      dup2\n        /* \"#utility.yul\":14992:15005   */\n      sub\n        /* \"#utility.yul\":14989:15015   */\n      tag_342\n      jumpi\n        /* \"#utility.yul\":15008:15013   */\n      pop\n      pop\n      jump(tag_341)\n        /* \"#utility.yul\":14989:15015   */\n    tag_342:\n        /* \"#utility.yul\":15039:15077   */\n      tag_343\n        /* \"#utility.yul\":15073:15076   */\n      dup3\n        /* \"#utility.yul\":15039:15077   */\n      tag_169\n      jump\t// in\n    tag_343:\n        /* \"#utility.yul\":15142:15160   */\n      0xffffffffffffffff\n        /* \"#utility.yul\":15134:15140   */\n      dup2\n        /* \"#utility.yul\":15131:15161   */\n      gt\n        /* \"#utility.yul\":15128:15184   */\n      iszero\n      tag_344\n      jumpi\n        /* \"#utility.yul\":15164:15182   */\n      tag_345\n      tag_141\n      jump\t// in\n    tag_345:\n        /* \"#utility.yul\":15128:15184   */\n    tag_344:\n        /* \"#utility.yul\":15208:15246   */\n      tag_346\n        /* \"#utility.yul\":15240:15244   */\n      dup3\n        /* \"#utility.yul\":15234:15245   */\n      sload\n        /* \"#utility.yul\":15208:15246   */\n      tag_47\n      jump\t// in\n    tag_346:\n        /* \"#utility.yul\":15293:15360   */\n      tag_347\n        /* \"#utility.yul\":15353:15359   */\n      dup3\n        /* \"#utility.yul\":15345:15351   */\n      dup3\n        /* \"#utility.yul\":15339:15343   */\n      dup6\n        /* \"#utility.yul\":15293:15360   */\n      tag_164\n      jump\t// in\n    tag_347:\n        /* \"#utility.yul\":15387:15388   */\n      0x00\n        /* \"#utility.yul\":15416:15418   */\n      0x1f\n        /* \"#utility.yul\":15408:15414   */\n      dup4\n        /* \"#utility.yul\":15405:15419   */\n      gt\n        /* \"#utility.yul\":15433:15434   */\n      0x01\n        /* \"#utility.yul\":15428:16104   */\n      dup2\n      eq\n      tag_349\n      jumpi\n        /* \"#utility.yul\":16148:16149   */\n      0x00\n        /* \"#utility.yul\":16165:16171   */\n      dup5\n        /* \"#utility.yul\":16162:16239   */\n      iszero\n      tag_350\n      jumpi\n        /* \"#utility.yul\":16214:16223   */\n      dup3\n        /* \"#utility.yul\":16209:16212   */\n      dup8\n        /* \"#utility.yul\":16205:16224   */\n      add\n        /* \"#utility.yul\":16199:16225   */\n      sload\n        /* \"#utility.yul\":16190:16225   */\n      swap1\n      pop\n        /* \"#utility.yul\":16162:16239   */\n    tag_350:\n        /* \"#utility.yul\":16265:16332   */\n      tag_351\n        /* \"#utility.yul\":16325:16331   */\n      dup6\n        /* \"#utility.yul\":16318:16323   */\n      dup3\n        /* \"#utility.yul\":16265:16332   */\n      tag_167\n      jump\t// in\n    tag_351:\n        /* \"#utility.yul\":16259:16263   */\n      dup7\n        /* \"#utility.yul\":16252:16333   */\n      sstore\n        /* \"#utility.yul\":16121:16343   */\n      pop\n        /* \"#utility.yul\":15398:16343   */\n      jump(tag_348)\n        /* \"#utility.yul\":15428:16104   */\n    tag_349:\n        /* \"#utility.yul\":15480:15484   */\n      0x1f\n        /* \"#utility.yul\":15476:15485   */\n      not\n        /* \"#utility.yul\":15468:15474   */\n      dup5\n        /* \"#utility.yul\":15464:15486   */\n      and\n        /* \"#utility.yul\":15506:15546   */\n      tag_352\n        /* \"#utility.yul\":15542:15545   */\n      dup8\n        /* \"#utility.yul\":15506:15546   */\n      tag_170\n      jump\t// in\n    tag_352:\n        /* \"#utility.yul\":15499:15546   */\n      swap7\n      pop\n        /* \"#utility.yul\":15573:15610   */\n      tag_353\n        /* \"#utility.yul\":15605:15609   */\n      dup7\n        /* \"#utility.yul\":15573:15610   */\n      tag_153\n      jump\t// in\n    tag_353:\n        /* \"#utility.yul\":15632:15633   */\n      0x00\n        /* \"#utility.yul\":15646:15853   */\n    tag_354:\n        /* \"#utility.yul\":15660:15667   */\n      dup3\n        /* \"#utility.yul\":15657:15658   */\n      dup2\n        /* \"#utility.yul\":15654:15668   */\n      lt\n        /* \"#utility.yul\":15646:15853   */\n      iszero\n      tag_356\n      jumpi\n        /* \"#utility.yul\":15739:15748   */\n      dup5\n        /* \"#utility.yul\":15734:15737   */\n      dup10\n        /* \"#utility.yul\":15730:15749   */\n      add\n        /* \"#utility.yul\":15724:15750   */\n      sload\n        /* \"#utility.yul\":15716:15722   */\n      dup3\n        /* \"#utility.yul\":15709:15751   */\n      sstore\n        /* \"#utility.yul\":15790:15791   */\n      0x01\n        /* \"#utility.yul\":15782:15788   */\n      dup3\n        /* \"#utility.yul\":15778:15792   */\n      add\n        /* \"#utility.yul\":15768:15792   */\n      swap2\n      pop\n        /* \"#utility.yul\":15837:15838   */\n      0x01\n        /* \"#utility.yul\":15826:15835   */\n      dup6\n        /* \"#utility.yul\":15822:15839   */\n      add\n        /* \"#utility.yul\":15809:15839   */\n      swap5\n      pop\n        /* \"#utility.yul\":15683:15687   */\n      0x20\n        /* \"#utility.yul\":15680:15681   */\n      dup2\n        /* \"#utility.yul\":15676:15688   */\n      add\n        /* \"#utility.yul\":15671:15688   */\n      swap1\n      pop\n        /* \"#utility.yul\":15646:15853   */\n      jump(tag_354)\n    tag_356:\n        /* \"#utility.yul\":15881:15887   */\n      dup7\n        /* \"#utility.yul\":15872:15879   */\n      dup4\n        /* \"#utility.yul\":15869:15888   */\n      lt\n        /* \"#utility.yul\":15866:16045   */\n      iszero\n      tag_357\n      jumpi\n        /* \"#utility.yul\":15939:15948   */\n      dup5\n        /* \"#utility.yul\":15934:15937   */\n      dup10\n        /* \"#utility.yul\":15930:15949   */\n      add\n        /* \"#utility.yul\":15924:15950   */\n      sload\n        /* \"#utility.yul\":15982:16030   */\n      tag_358\n        /* \"#utility.yul\":16024:16028   */\n      0x1f\n        /* \"#utility.yul\":16016:16022   */\n      dup10\n        /* \"#utility.yul\":16012:16029   */\n      and\n        /* \"#utility.yul\":16001:16010   */\n      dup3\n        /* \"#utility.yul\":15982:16030   */\n      tag_166\n      jump\t// in\n    tag_358:\n        /* \"#utility.yul\":15974:15980   */\n      dup4\n        /* \"#utility.yul\":15967:16031   */\n      sstore\n        /* \"#utility.yul\":15889:16045   */\n      pop\n        /* \"#utility.yul\":15866:16045   */\n    tag_357:\n        /* \"#utility.yul\":16091:16092   */\n      0x01\n        /* \"#utility.yul\":16087:16088   */\n      0x02\n        /* \"#utility.yul\":16079:16085   */\n      dup9\n        /* \"#utility.yul\":16075:16089   */\n      mul\n        /* \"#utility.yul\":16071:16093   */\n      add\n        /* \"#utility.yul\":16065:16069   */\n      dup9\n        /* \"#utility.yul\":16058:16094   */\n      sstore\n        /* \"#utility.yul\":15435:16104   */\n      pop\n      pop\n      pop\n        /* \"#utility.yul\":15398:16343   */\n    tag_348:\n      pop\n        /* \"#utility.yul\":14979:16349   */\n      pop\n      pop\n      pop\n        /* \"#utility.yul\":14886:16349   */\n      pop\n      pop\n    tag_341:\n      jump\t// out\n        /* \"#utility.yul\":16355:16588   */\n    tag_84:\n        /* \"#utility.yul\":16394:16397   */\n      0x00\n        /* \"#utility.yul\":16417:16441   */\n      tag_360\n        /* \"#utility.yul\":16435:16440   */\n      dup3\n        /* \"#utility.yul\":16417:16441   */\n      tag_125\n      jump\t// in\n    tag_360:\n        /* \"#utility.yul\":16408:16441   */\n      swap2\n      pop\n        /* \"#utility.yul\":16463:16529   */\n      0xffffffffffffffffffffffffffffffffffffffffffffffffffffffffffffffff\n        /* \"#utility.yul\":16456:16461   */\n      dup3\n        /* \"#utility.yul\":16453:16530   */\n      sub\n        /* \"#utility.yul\":16450:16553   */\n      tag_361\n      jumpi\n        /* \"#utility.yul\":16533:16551   */\n      tag_362\n      tag_168\n      jump\t// in\n    tag_362:\n        /* \"#utility.yul\":16450:16553   */\n    tag_361:\n        /* \"#utility.yul\":16580:16581   */\n      0x01\n        /* \"#utility.yul\":16573:16578   */\n      dup3\n        /* \"#utility.yul\":16569:16582   */\n      add\n        /* \"#utility.yul\":16562:16582   */\n      swap1\n      pop\n        /* \"#utility.yul\":16355:16588   */\n      swap2\n      swap1\n      pop\n      jump\t// out\n        /* \"#utility.yul\":16594:16765   */\n    tag_89:\n        /* \"#utility.yul\":16633:16636   */\n      0x00\n        /* \"#utility.yul\":16656:16680   */\n      tag_364\n        /* \"#utility.yul\":16674:16679   */\n      dup3\n        /* \"#utility.yul\":16656:16680   */\n      tag_125\n      jump\t// in\n    tag_364:\n        /* \"#utility.yul\":16647:16680   */\n      swap2\n      pop\n        /* \"#utility.yul\":16702:16706   */\n      0x00\n        /* \"#utility.yul\":16695:16700   */\n      dup3\n        /* \"#utility.yul\":16692:16707   */\n      sub\n        /* \"#utility.yul\":16689:16730   */\n      tag_365\n      jumpi\n        /* \"#utility.yul\":16710:16728   */\n      tag_366\n      tag_168\n      jump\t// in\n    tag_366:\n        /* \"#utility.yul\":16689:16730   */\n    tag_365:\n        /* \"#utility.yul\":16757:16758   */\n      0x01\n        /* \"#utility.yul\":16750:16755   */\n      dup3\n        /* \"#utility.yul\":16746:16759   */\n      sub\n        /* \"#utility.yul\":16739:16759   */\n      swap1\n      pop\n        /* \"#utility.yul\":16594:16765   */\n      swap2\n      swap1\n      pop\n      jump\t// out\n        /* \"#utility.yul\":16771:16939   */\n    tag_171:\n        /* \"#utility.yul\":16911:16931   */\n      0x53747564656e74206e6f7420666f756e642e0000000000000000000000000000\n        /* \"#utility.yul\":16907:16908   */\n      0x00\n        /* \"#utility.yul\":16899:16905   */\n      dup3\n        /* \"#utility.yul\":16895:16909   */\n      add\n        /* \"#utility.yul\":16888:16932   */\n      mstore\n        /* \"#utility.yul\":16771:16939   */\n      pop\n      jump\t// out\n        /* \"#utility.yul\":16945:17311   */\n    tag_172:\n        /* \"#utility.yul\":17087:17090   */\n      0x00\n        /* \"#utility.yul\":17108:17175   */\n      tag_369\n        /* \"#utility.yul\":17172:17174   */\n      0x12\n        /* \"#utility.yul\":17167:17170   */\n      dup4\n        /* \"#utility.yul\":17108:17175   */\n      tag_133\n      jump\t// in\n    tag_369:\n        /* \"#utility.yul\":17101:17175   */\n      swap2\n      pop\n        /* \"#utility.yul\":17184:17277   */\n      tag_370\n        /* \"#utility.yul\":17273:17276   */\n      dup3\n        /* \"#utility.yul\":17184:17277   */\n      tag_171\n      jump\t// in\n    tag_370:\n        /* \"#utility.yul\":17302:17304   */\n      0x20\n        /* \"#utility.yul\":17297:17300   */\n      dup3\n        /* \"#utility.yul\":17293:17305   */\n      add\n        /* \"#utility.yul\":17286:17305   */\n      swap1\n      pop\n        /* \"#utility.yul\":16945:17311   */\n      swap2\n      swap1\n      pop\n      jump\t// out\n        /* \"#utility.yul\":17317:17736   */\n    tag_97:\n        /* \"#utility.yul\":17483:17487   */\n      0x00\n        /* \"#utility.yul\":17521:17523   */\n      0x20\n        /* \"#utility.yul\":17510:17519   */\n      dup3\n        /* \"#utility.yul\":17506:17524   */\n      add\n        /* \"#utility.yul\":17498:17524   */\n      swap1\n      pop\n        /* \"#utility.yul\":17570:17579   */\n      dup2\n        /* \"#utility.yul\":17564:17568   */\n      dup2\n        /* \"#utility.yul\":17560:17580   */\n      sub\n        /* \"#utility.yul\":17556:17557   */\n      0x00\n        /* \"#utility.yul\":17545:17554   */\n      dup4\n        /* \"#utility.yul\":17541:17558   */\n      add\n        /* \"#utility.yul\":17534:17581   */\n      mstore\n        /* \"#utility.yul\":17598:17729   */\n      tag_372\n        /* \"#utility.yul\":17724:17728   */\n      dup2\n        /* \"#utility.yul\":17598:17729   */\n      tag_172\n      jump\t// in\n    tag_372:\n        /* \"#utility.yul\":17590:17729   */\n      swap1\n      pop\n        /* \"#utility.yul\":17317:17736   */\n      swap2\n      swap1\n      pop\n      jump\t// out\n        /* \"#utility.yul\":17742:17915   */\n    tag_173:\n        /* \"#utility.yul\":17882:17907   */\n      0x4163636f756e7420646f6573206e6f742065786973742e000000000000000000\n        /* \"#utility.yul\":17878:17879   */\n      0x00\n        /* \"#utility.yul\":17870:17876   */\n      dup3\n        /* \"#utility.yul\":17866:17880   */\n      add\n        /* \"#utility.yul\":17859:17908   */\n      mstore\n        /* \"#utility.yul\":17742:17915   */\n      pop\n      jump\t// out\n        /* \"#utility.yul\":17921:18287   */\n    tag_174:\n        /* \"#utility.yul\":18063:18066   */\n      0x00\n        /* \"#utility.yul\":18084:18151   */\n      tag_375\n        /* \"#utility.yul\":18148:18150   */\n      0x17\n        /* \"#utility.yul\":18143:18146   */\n      dup4\n        /* \"#utility.yul\":18084:18151   */\n      tag_133\n      jump\t// in\n    tag_375:\n        /* \"#utility.yul\":18077:18151   */\n      swap2\n      pop\n        /* \"#utility.yul\":18160:18253   */\n      tag_376\n        /* \"#utility.yul\":18249:18252   */\n      dup3\n        /* \"#utility.yul\":18160:18253   */\n      tag_173\n      jump\t// in\n    tag_376:\n        /* \"#utility.yul\":18278:18280   */\n      0x20\n        /* \"#utility.yul\":18273:18276   */\n      dup3\n        /* \"#utility.yul\":18269:18281   */\n      add\n        /* \"#utility.yul\":18262:18281   */\n      swap1\n      pop\n        /* \"#utility.yul\":17921:18287   */\n      swap2\n      swap1\n      pop\n      jump\t// out\n        /* \"#utility.yul\":18293:18712   */\n    tag_101:\n        /* \"#utility.yul\":18459:18463   */\n      0x00\n        /* \"#utility.yul\":18497:18499   */\n      0x20\n        /* \"#utility.yul\":18486:18495   */\n      dup3\n        /* \"#utility.yul\":18482:18500   */\n      add\n        /* \"#utility.yul\":18474:18500   */\n      swap1\n      pop\n        /* \"#utility.yul\":18546:18555   */\n      dup2\n        /* \"#utility.yul\":18540:18544   */\n      dup2\n        /* \"#utility.yul\":18536:18556   */\n      sub\n        /* \"#utility.yul\":18532:18533   */\n      0x00\n        /* \"#utility.yul\":18521:18530   */\n      dup4\n        /* \"#utility.yul\":18517:18534   */\n      add\n        /* \"#utility.yul\":18510:18557   */\n      mstore\n        /* \"#utility.yul\":18574:18705   */\n      tag_378\n        /* \"#utility.yul\":18700:18704   */\n      dup2\n        /* \"#utility.yul\":18574:18705   */\n      tag_174\n      jump\t// in\n    tag_378:\n        /* \"#utility.yul\":18566:18705   */\n      swap1\n      pop\n        /* \"#utility.yul\":18293:18712   */\n      swap2\n      swap1\n      pop\n      jump\t// out\n        /* \"#utility.yul\":18718:18891   */\n    tag_175:\n        /* \"#utility.yul\":18858:18883   */\n      0x4163636f756e7420616c7265616479206578697374732e000000000000000000\n        /* \"#utility.yul\":18854:18855   */\n      0x00\n        /* \"#utility.yul\":18846:18852   */\n      dup3\n        /* \"#utility.yul\":18842:18856   */\n      add\n        /* \"#utility.yul\":18835:18884   */\n      mstore\n        /* \"#utility.yul\":18718:18891   */\n      pop\n      jump\t// out\n        /* \"#utility.yul\":18897:19263   */\n    tag_176:\n        /* \"#utility.yul\":19039:19042   */\n      0x00\n        /* \"#utility.yul\":19060:19127   */\n      tag_381\n        /* \"#utility.yul\":19124:19126   */\n      0x17\n        /* \"#utility.yul\":19119:19122   */\n      dup4\n        /* \"#utility.yul\":19060:19127   */\n      tag_133\n      jump\t// in\n    tag_381:\n        /* \"#utility.yul\":19053:19127   */\n      swap2\n      pop\n        /* \"#utility.yul\":19136:19229   */\n      tag_382\n        /* \"#utility.yul\":19225:19228   */\n      dup3\n        /* \"#utility.yul\":19136:19229   */\n      tag_175\n      jump\t// in\n    tag_382:\n        /* \"#utility.yul\":19254:19256   */\n      0x20\n        /* \"#utility.yul\":19249:19252   */\n      dup3\n        /* \"#utility.yul\":19245:19257   */\n      add\n        /* \"#utility.yul\":19238:19257   */\n      swap1\n      pop\n        /* \"#utility.yul\":18897:19263   */\n      swap2\n      swap1\n      pop\n      jump\t// out\n        /* \"#utility.yul\":19269:19688   */\n    tag_111:\n        /* \"#utility.yul\":19435:19439   */\n      0x00\n        /* \"#utility.yul\":19473:19475   */\n      0x20\n        /* \"#utility.yul\":19462:19471   */\n      dup3\n        /* \"#utility.yul\":19458:19476   */\n      add\n        /* \"#utility.yul\":19450:19476   */\n      swap1\n      pop\n        /* \"#utility.yul\":19522:19531   */\n      dup2\n        /* \"#utility.yul\":19516:19520   */\n      dup2\n        /* \"#utility.yul\":19512:19532   */\n      sub\n        /* \"#utility.yul\":19508:19509   */\n      0x00\n        /* \"#utility.yul\":19497:19506   */\n      dup4\n        /* \"#utility.yul\":19493:19510   */\n      add\n        /* \"#utility.yul\":19486:19533   */\n      mstore\n        /* \"#utility.yul\":19550:19681   */\n      tag_384\n        /* \"#utility.yul\":19676:19680   */\n      dup2\n        /* \"#utility.yul\":19550:19681   */\n      tag_176\n      jump\t// in\n    tag_384:\n        /* \"#utility.yul\":19542:19681   */\n      swap1\n      pop\n        /* \"#utility.yul\":19269:19688   */\n      swap2\n      swap1\n      pop\n      jump\t// out\n\n    auxdata: 0xa26469706673582212200335e2d3c198d9bad26739ea7863fd2f573dc2d423a85984842bd646b8b6962164736f6c63430008130033\n}\n",
				"bytecode": {
					"linkReferences": {},
					"object": "608060405234801561001057600080fd5b5033600360006101000a81548173ffffffffffffffffffffffffffffffffffffffff021916908373ffffffffffffffffffffffffffffffffffffffff16021790555060006002819055506117c1806100696000396000f3fe608060405234801561001057600080fd5b506004361061007d5760003560e01c8063c4c75bb21161005b578063c4c75bb2146100ed578063c61aa5641461011d578063c8fb07931461014d578063e56a05a5146101805761007d565b8063642f916314610082578063a9870632146100b5578063b645307d146100d1575b600080fd5b61009c60048036038101906100979190610cdc565b61019c565b6040516100ac9493929190610de9565b60405180910390f35b6100cf60048036038101906100ca9190610f9d565b610394565b005b6100eb60048036038101906100e69190610cdc565b6104d5565b005b61010760048036038101906101029190610cdc565b610876565b604051610114919061103c565b60405180910390f35b61013760048036038101906101329190611057565b610901565b604051610144919061103c565b60405180910390f35b61016760048036038101906101629190610cdc565b6109c9565b6040516101779493929190610de9565b60405180910390f35b61019a60048036038101906101959190610f9d565b6109f5565b005b6000806060806000851180156101b457506002548511155b6101f3576040517f08c379a00000000000000000000000000000000000000000000000000000000081526004016101ea906110d0565b60405180910390fd5b60016000868152602001908152602001600020600001546001600087815260200190815260200160002060010160009054906101000a900473ffffffffffffffffffffffffffffffffffffffff1660016000888152602001908152602001600020600201600160008981526020019081526020016000206003018180546102799061111f565b80601f01602080910402602001604051908101604052809291908181526020018280546102a59061111f565b80156102f25780601f106102c7576101008083540402835291602001916102f2565b820191906000526020600020905b8154815290600101906020018083116102d557829003601f168201915b505050505091508080546103059061111f565b80601f01602080910402602001604051908101604052809291908181526020018280546103319061111f565b801561037e5780601f106103535761010080835404028352916020019161037e565b820191906000526020600020905b81548152906001019060200180831161036157829003601f168201915b5050505050905093509350935093509193509193565b600360009054906101000a900473ffffffffffffffffffffffffffffffffffffffff1673ffffffffffffffffffffffffffffffffffffffff163373ffffffffffffffffffffffffffffffffffffffff1614610424576040517f08c379a000000000000000000000000000000000000000000000000000000000815260040161041b906111c2565b60405180910390fd5b600061042f85610876565b9050836001600083815260200190815260200160002060010160006101000a81548173ffffffffffffffffffffffffffffffffffffffff021916908373ffffffffffffffffffffffffffffffffffffffff160217905550826001600083815260200190815260200160002060020190816104a9919061138e565b50816001600083815260200190815260200160002060030190816104cd919061138e565b505050505050565b600360009054906101000a900473ffffffffffffffffffffffffffffffffffffffff1673ffffffffffffffffffffffffffffffffffffffff163373ffffffffffffffffffffffffffffffffffffffff1614610565576040517f08c379a000000000000000000000000000000000000000000000000000000000815260040161055c906111c2565b60405180910390fd5b600061057082610876565b905060008190505b600254811015610778578060008060016000600186610597919061148f565b815260200190815260200160002060010160009054906101000a900473ffffffffffffffffffffffffffffffffffffffff1673ffffffffffffffffffffffffffffffffffffffff1673ffffffffffffffffffffffffffffffffffffffff1681526020019081526020016000208190555060016000600183610618919061148f565b815260200190815260200160002060000154600160008381526020019081526020016000206000018190555060016000600183610655919061148f565b815260200190815260200160002060010160009054906101000a900473ffffffffffffffffffffffffffffffffffffffff166001600083815260200190815260200160002060010160006101000a81548173ffffffffffffffffffffffffffffffffffffffff021916908373ffffffffffffffffffffffffffffffffffffffff160217905550600160006001836106ec919061148f565b815260200190815260200160002060020160016000838152602001908152602001600020600201908161071f91906114ee565b5060016000600183610731919061148f565b815260200190815260200160002060030160016000838152602001908152602001600020600301908161076491906114ee565b508080610770906115d6565b915050610578565b5060008060016000600254815260200190815260200160002060010160009054906101000a900473ffffffffffffffffffffffffffffffffffffffff1673ffffffffffffffffffffffffffffffffffffffff1673ffffffffffffffffffffffffffffffffffffffff168152602001908152602001600020600090556001600060025481526020019081526020016000206000808201600090556001820160006101000a81549073ffffffffffffffffffffffffffffffffffffffff02191690556002820160006108489190610c35565b6003820160006108589190610c35565b50506002600081548092919061086d9061161e565b91905055505050565b600080600190505b60025481116108c057826001600083815260200190815260200160002060000154036108ad57809150506108fc565b80806108b8906115d6565b91505061087e565b506040517f08c379a00000000000000000000000000000000000000000000000000000000081526004016108f390611693565b60405180910390fd5b919050565b6000806000808473ffffffffffffffffffffffffffffffffffffffff1673ffffffffffffffffffffffffffffffffffffffff1681526020019081526020016000205403610983576040517f08c379a000000000000000000000000000000000000000000000000000000000815260040161097a906116ff565b60405180910390fd5b6000808373ffffffffffffffffffffffffffffffffffffffff1673ffffffffffffffffffffffffffffffffffffffff168152602001908152602001600020549050919050565b60008060608060006109da86610876565b90506109e58161019c565b9450945094509450509193509193565b600360009054906101000a900473ffffffffffffffffffffffffffffffffffffffff1673ffffffffffffffffffffffffffffffffffffffff163373ffffffffffffffffffffffffffffffffffffffff1614610a85576040517f08c379a0000000000000000000000000000000000000000000000000000000008152600401610a7c906111c2565b60405180910390fd5b60008060008573ffffffffffffffffffffffffffffffffffffffff1673ffffffffffffffffffffffffffffffffffffffff1681526020019081526020016000205414610b06576040517f08c379a0000000000000000000000000000000000000000000000000000000008152600401610afd9061176b565b60405180910390fd5b60026000815480929190610b19906115d6565b919050555060405180608001604052808581526020018473ffffffffffffffffffffffffffffffffffffffff168152602001838152602001828152506001600060025481526020019081526020016000206000820151816000015560208201518160010160006101000a81548173ffffffffffffffffffffffffffffffffffffffff021916908373ffffffffffffffffffffffffffffffffffffffff1602179055506040820151816002019081610bd0919061138e565b506060820151816003019081610be6919061138e565b509050506002546000808573ffffffffffffffffffffffffffffffffffffffff1673ffffffffffffffffffffffffffffffffffffffff1681526020019081526020016000208190555050505050565b508054610c419061111f565b6000825580601f10610c535750610c72565b601f016020900490600052602060002090810190610c719190610c75565b5b50565b5b80821115610c8e576000816000905550600101610c76565b5090565b6000604051905090565b600080fd5b600080fd5b6000819050919050565b610cb981610ca6565b8114610cc457600080fd5b50565b600081359050610cd681610cb0565b92915050565b600060208284031215610cf257610cf1610c9c565b5b6000610d0084828501610cc7565b91505092915050565b610d1281610ca6565b82525050565b600073ffffffffffffffffffffffffffffffffffffffff82169050919050565b6000610d4382610d18565b9050919050565b610d5381610d38565b82525050565b600081519050919050565b600082825260208201905092915050565b60005b83811015610d93578082015181840152602081019050610d78565b60008484015250505050565b6000601f19601f8301169050919050565b6000610dbb82610d59565b610dc58185610d64565b9350610dd5818560208601610d75565b610dde81610d9f565b840191505092915050565b6000608082019050610dfe6000830187610d09565b610e0b6020830186610d4a565b8181036040830152610e1d8185610db0565b90508181036060830152610e318184610db0565b905095945050505050565b610e4581610d38565b8114610e5057600080fd5b50565b600081359050610e6281610e3c565b92915050565b600080fd5b600080fd5b7f4e487b7100000000000000000000000000000000000000000000000000000000600052604160045260246000fd5b610eaa82610d9f565b810181811067ffffffffffffffff82111715610ec957610ec8610e72565b5b80604052505050565b6000610edc610c92565b9050610ee88282610ea1565b919050565b600067ffffffffffffffff821115610f0857610f07610e72565b5b610f1182610d9f565b9050602081019050919050565b82818337600083830152505050565b6000610f40610f3b84610eed565b610ed2565b905082815260208101848484011115610f5c57610f5b610e6d565b5b610f67848285610f1e565b509392505050565b600082601f830112610f8457610f83610e68565b5b8135610f94848260208601610f2d565b91505092915050565b60008060008060808587031215610fb757610fb6610c9c565b5b6000610fc587828801610cc7565b9450506020610fd687828801610e53565b935050604085013567ffffffffffffffff811115610ff757610ff6610ca1565b5b61100387828801610f6f565b925050606085013567ffffffffffffffff81111561102457611023610ca1565b5b61103087828801610f6f565b91505092959194509250565b60006020820190506110516000830184610d09565b92915050565b60006020828403121561106d5761106c610c9c565b5b600061107b84828501610e53565b91505092915050565b7f496e76616c696420696e6465782e000000000000000000000000000000000000600082015250565b60006110ba600e83610d64565b91506110c582611084565b602082019050919050565b600060208201905081810360008301526110e9816110ad565b9050919050565b7f4e487b7100000000000000000000000000000000000000000000000000000000600052602260045260246000fd5b6000600282049050600182168061113757607f821691505b60208210810361114a576111496110f0565b5b50919050565b7f4f6e6c79206f776e65722063616e2063616c6c20746869732066756e6374696f60008201527f6e2e000000000000000000000000000000000000000000000000000000000000602082015250565b60006111ac602283610d64565b91506111b782611150565b604082019050919050565b600060208201905081810360008301526111db8161119f565b9050919050565b60008190508160005260206000209050919050565b60006020601f8301049050919050565b600082821b905092915050565b6000600883026112447fffffffffffffffffffffffffffffffffffffffffffffffffffffffffffffffff82611207565b61124e8683611207565b95508019841693508086168417925050509392505050565b6000819050919050565b600061128b61128661128184610ca6565b611266565b610ca6565b9050919050565b6000819050919050565b6112a583611270565b6112b96112b182611292565b848454611214565b825550505050565b600090565b6112ce6112c1565b6112d981848461129c565b505050565b5b818110156112fd576112f26000826112c6565b6001810190506112df565b5050565b601f82111561134257611313816111e2565b61131c846111f7565b8101602085101561132b578190505b61133f611337856111f7565b8301826112de565b50505b505050565b600082821c905092915050565b600061136560001984600802611347565b1980831691505092915050565b600061137e8383611354565b9150826002028217905092915050565b61139782610d59565b67ffffffffffffffff8111156113b0576113af610e72565b5b6113ba825461111f565b6113c5828285611301565b600060209050601f8311600181146113f857600084156113e6578287015190505b6113f08582611372565b865550611458565b601f198416611406866111e2565b60005b8281101561142e57848901518255600182019150602085019450602081019050611409565b8683101561144b5784890151611447601f891682611354565b8355505b6001600288020188555050505b505050505050565b7f4e487b7100000000000000000000000000000000000000000000000000000000600052601160045260246000fd5b600061149a82610ca6565b91506114a583610ca6565b92508282019050808211156114bd576114bc611460565b5b92915050565b6000815490506114d28161111f565b9050919050565b60008190508160005260206000209050919050565b8181036114fc5750506115d4565b611505826114c3565b67ffffffffffffffff81111561151e5761151d610e72565b5b611528825461111f565b611533828285611301565b6000601f8311600181146115625760008415611550578287015490505b61155a8582611372565b8655506115cd565b601f198416611570876114d9565b965061157b866111e2565b60005b828110156115a35784890154825560018201915060018501945060208101905061157e565b868310156115c057848901546115bc601f891682611354565b8355505b6001600288020188555050505b5050505050505b565b60006115e182610ca6565b91507fffffffffffffffffffffffffffffffffffffffffffffffffffffffffffffffff820361161357611612611460565b5b600182019050919050565b600061162982610ca6565b91506000820361163c5761163b611460565b5b600182039050919050565b7f53747564656e74206e6f7420666f756e642e0000000000000000000000000000600082015250565b600061167d601283610d64565b915061168882611647565b602082019050919050565b600060208201905081810360008301526116ac81611670565b9050919050565b7f4163636f756e7420646f6573206e6f742065786973742e000000000000000000600082015250565b60006116e9601783610d64565b91506116f4826116b3565b602082019050919050565b60006020820190508181036000830152611718816116dc565b9050919050565b7f4163636f756e7420616c7265616479206578697374732e000000000000000000600082015250565b6000611755601783610d64565b91506117608261171f565b602082019050919050565b6000602082019050818103600083015261178481611748565b905091905056fea26469706673582212200335e2d3c198d9bad26739ea7863fd2f573dc2d423a85984842bd646b8b6962164736f6c63430008130033",
					"opcodes": "PUSH1 0x80 PUSH1 0x40 MSTORE CALLVALUE DUP1 ISZERO PUSH2 0x10 JUMPI PUSH1 0x0 DUP1 REVERT JUMPDEST POP CALLER PUSH1 0x3 PUSH1 0x0 PUSH2 0x100 EXP DUP2 SLOAD DUP2 PUSH20 0xFFFFFFFFFFFFFFFFFFFFFFFFFFFFFFFFFFFFFFFF MUL NOT AND SWAP1 DUP4 PUSH20 0xFFFFFFFFFFFFFFFFFFFFFFFFFFFFFFFFFFFFFFFF AND MUL OR SWAP1 SSTORE POP PUSH1 0x0 PUSH1 0x2 DUP2 SWAP1 SSTORE POP PUSH2 0x17C1 DUP1 PUSH2 0x69 PUSH1 0x0 CODECOPY PUSH1 0x0 RETURN INVALID PUSH1 0x80 PUSH1 0x40 MSTORE CALLVALUE DUP1 ISZERO PUSH2 0x10 JUMPI PUSH1 0x0 DUP1 REVERT JUMPDEST POP PUSH1 0x4 CALLDATASIZE LT PUSH2 0x7D JUMPI PUSH1 0x0 CALLDATALOAD PUSH1 0xE0 SHR DUP1 PUSH4 0xC4C75BB2 GT PUSH2 0x5B JUMPI DUP1 PUSH4 0xC4C75BB2 EQ PUSH2 0xED JUMPI DUP1 PUSH4 0xC61AA564 EQ PUSH2 0x11D JUMPI DUP1 PUSH4 0xC8FB0793 EQ PUSH2 0x14D JUMPI DUP1 PUSH4 0xE56A05A5 EQ PUSH2 0x180 JUMPI PUSH2 0x7D JUMP JUMPDEST DUP1 PUSH4 0x642F9163 EQ PUSH2 0x82 JUMPI DUP1 PUSH4 0xA9870632 EQ PUSH2 0xB5 JUMPI DUP1 PUSH4 0xB645307D EQ PUSH2 0xD1 JUMPI JUMPDEST PUSH1 0x0 DUP1 REVERT JUMPDEST PUSH2 0x9C PUSH1 0x4 DUP1 CALLDATASIZE SUB DUP2 ADD SWAP1 PUSH2 0x97 SWAP2 SWAP1 PUSH2 0xCDC JUMP JUMPDEST PUSH2 0x19C JUMP JUMPDEST PUSH1 0x40 MLOAD PUSH2 0xAC SWAP5 SWAP4 SWAP3 SWAP2 SWAP1 PUSH2 0xDE9 JUMP JUMPDEST PUSH1 0x40 MLOAD DUP1 SWAP2 SUB SWAP1 RETURN JUMPDEST PUSH2 0xCF PUSH1 0x4 DUP1 CALLDATASIZE SUB DUP2 ADD SWAP1 PUSH2 0xCA SWAP2 SWAP1 PUSH2 0xF9D JUMP JUMPDEST PUSH2 0x394 JUMP JUMPDEST STOP JUMPDEST PUSH2 0xEB PUSH1 0x4 DUP1 CALLDATASIZE SUB DUP2 ADD SWAP1 PUSH2 0xE6 SWAP2 SWAP1 PUSH2 0xCDC JUMP JUMPDEST PUSH2 0x4D5 JUMP JUMPDEST STOP JUMPDEST PUSH2 0x107 PUSH1 0x4 DUP1 CALLDATASIZE SUB DUP2 ADD SWAP1 PUSH2 0x102 SWAP2 SWAP1 PUSH2 0xCDC JUMP JUMPDEST PUSH2 0x876 JUMP JUMPDEST PUSH1 0x40 MLOAD PUSH2 0x114 SWAP2 SWAP1 PUSH2 0x103C JUMP JUMPDEST PUSH1 0x40 MLOAD DUP1 SWAP2 SUB SWAP1 RETURN JUMPDEST PUSH2 0x137 PUSH1 0x4 DUP1 CALLDATASIZE SUB DUP2 ADD SWAP1 PUSH2 0x132 SWAP2 SWAP1 PUSH2 0x1057 JUMP JUMPDEST PUSH2 0x901 JUMP JUMPDEST PUSH1 0x40 MLOAD PUSH2 0x144 SWAP2 SWAP1 PUSH2 0x103C JUMP JUMPDEST PUSH1 0x40 MLOAD DUP1 SWAP2 SUB SWAP1 RETURN JUMPDEST PUSH2 0x167 PUSH1 0x4 DUP1 CALLDATASIZE SUB DUP2 ADD SWAP1 PUSH2 0x162 SWAP2 SWAP1 PUSH2 0xCDC JUMP JUMPDEST PUSH2 0x9C9 JUMP JUMPDEST PUSH1 0x40 MLOAD PUSH2 0x177 SWAP5 SWAP4 SWAP3 SWAP2 SWAP1 PUSH2 0xDE9 JUMP JUMPDEST PUSH1 0x40 MLOAD DUP1 SWAP2 SUB SWAP1 RETURN JUMPDEST PUSH2 0x19A PUSH1 0x4 DUP1 CALLDATASIZE SUB DUP2 ADD SWAP1 PUSH2 0x195 SWAP2 SWAP1 PUSH2 0xF9D JUMP JUMPDEST PUSH2 0x9F5 JUMP JUMPDEST STOP JUMPDEST PUSH1 0x0 DUP1 PUSH1 0x60 DUP1 PUSH1 0x0 DUP6 GT DUP1 ISZERO PUSH2 0x1B4 JUMPI POP PUSH1 0x2 SLOAD DUP6 GT ISZERO JUMPDEST PUSH2 0x1F3 JUMPI PUSH1 0x40 MLOAD PUSH32 0x8C379A000000000000000000000000000000000000000000000000000000000 DUP2 MSTORE PUSH1 0x4 ADD PUSH2 0x1EA SWAP1 PUSH2 0x10D0 JUMP JUMPDEST PUSH1 0x40 MLOAD DUP1 SWAP2 SUB SWAP1 REVERT JUMPDEST PUSH1 0x1 PUSH1 0x0 DUP7 DUP2 MSTORE PUSH1 0x20 ADD SWAP1 DUP2 MSTORE PUSH1 0x20 ADD PUSH1 0x0 KECCAK256 PUSH1 0x0 ADD SLOAD PUSH1 0x1 PUSH1 0x0 DUP8 DUP2 MSTORE PUSH1 0x20 ADD SWAP1 DUP2 MSTORE PUSH1 0x20 ADD PUSH1 0x0 KECCAK256 PUSH1 0x1 ADD PUSH1 0x0 SWAP1 SLOAD SWAP1 PUSH2 0x100 EXP SWAP1 DIV PUSH20 0xFFFFFFFFFFFFFFFFFFFFFFFFFFFFFFFFFFFFFFFF AND PUSH1 0x1 PUSH1 0x0 DUP9 DUP2 MSTORE PUSH1 0x20 ADD SWAP1 DUP2 MSTORE PUSH1 0x20 ADD PUSH1 0x0 KECCAK256 PUSH1 0x2 ADD PUSH1 0x1 PUSH1 0x0 DUP10 DUP2 MSTORE PUSH1 0x20 ADD SWAP1 DUP2 MSTORE PUSH1 0x20 ADD PUSH1 0x0 KECCAK256 PUSH1 0x3 ADD DUP2 DUP1 SLOAD PUSH2 0x279 SWAP1 PUSH2 0x111F JUMP JUMPDEST DUP1 PUSH1 0x1F ADD PUSH1 0x20 DUP1 SWAP2 DIV MUL PUSH1 0x20 ADD PUSH1 0x40 MLOAD SWAP1 DUP2 ADD PUSH1 0x40 MSTORE DUP1 SWAP3 SWAP2 SWAP1 DUP2 DUP2 MSTORE PUSH1 0x20 ADD DUP3 DUP1 SLOAD PUSH2 0x2A5 SWAP1 PUSH2 0x111F JUMP JUMPDEST DUP1 ISZERO PUSH2 0x2F2 JUMPI DUP1 PUSH1 0x1F LT PUSH2 0x2C7 JUMPI PUSH2 0x100 DUP1 DUP4 SLOAD DIV MUL DUP4 MSTORE SWAP2 PUSH1 0x20 ADD SWAP2 PUSH2 0x2F2 JUMP JUMPDEST DUP3 ADD SWAP2 SWAP1 PUSH1 0x0 MSTORE PUSH1 0x20 PUSH1 0x0 KECCAK256 SWAP1 JUMPDEST DUP2 SLOAD DUP2 MSTORE SWAP1 PUSH1 0x1 ADD SWAP1 PUSH1 0x20 ADD DUP1 DUP4 GT PUSH2 0x2D5 JUMPI DUP3 SWAP1 SUB PUSH1 0x1F AND DUP3 ADD SWAP2 JUMPDEST POP POP POP POP POP SWAP2 POP DUP1 DUP1 SLOAD PUSH2 0x305 SWAP1 PUSH2 0x111F JUMP JUMPDEST DUP1 PUSH1 0x1F ADD PUSH1 0x20 DUP1 SWAP2 DIV MUL PUSH1 0x20 ADD PUSH1 0x40 MLOAD SWAP1 DUP2 ADD PUSH1 0x40 MSTORE DUP1 SWAP3 SWAP2 SWAP1 DUP2 DUP2 MSTORE PUSH1 0x20 ADD DUP3 DUP1 SLOAD PUSH2 0x331 SWAP1 PUSH2 0x111F JUMP JUMPDEST DUP1 ISZERO PUSH2 0x37E JUMPI DUP1 PUSH1 0x1F LT PUSH2 0x353 JUMPI PUSH2 0x100 DUP1 DUP4 SLOAD DIV MUL DUP4 MSTORE SWAP2 PUSH1 0x20 ADD SWAP2 PUSH2 0x37E JUMP JUMPDEST DUP3 ADD SWAP2 SWAP1 PUSH1 0x0 MSTORE PUSH1 0x20 PUSH1 0x0 KECCAK256 SWAP1 JUMPDEST DUP2 SLOAD DUP2 MSTORE SWAP1 PUSH1 0x1 ADD SWAP1 PUSH1 0x20 ADD DUP1 DUP4 GT PUSH2 0x361 JUMPI DUP3 SWAP1 SUB PUSH1 0x1F AND DUP3 ADD SWAP2 JUMPDEST POP POP POP POP POP SWAP1 POP SWAP4 POP SWAP4 POP SWAP4 POP SWAP4 POP SWAP2 SWAP4 POP SWAP2 SWAP4 JUMP JUMPDEST PUSH1 0x3 PUSH1 0x0 SWAP1 SLOAD SWAP1 PUSH2 0x100 EXP SWAP1 DIV PUSH20 0xFFFFFFFFFFFFFFFFFFFFFFFFFFFFFFFFFFFFFFFF AND PUSH20 0xFFFFFFFFFFFFFFFFFFFFFFFFFFFFFFFFFFFFFFFF AND CALLER PUSH20 0xFFFFFFFFFFFFFFFFFFFFFFFFFFFFFFFFFFFFFFFF AND EQ PUSH2 0x424 JUMPI PUSH1 0x40 MLOAD PUSH32 0x8C379A000000000000000000000000000000000000000000000000000000000 DUP2 MSTORE PUSH1 0x4 ADD PUSH2 0x41B SWAP1 PUSH2 0x11C2 JUMP JUMPDEST PUSH1 0x40 MLOAD DUP1 SWAP2 SUB SWAP1 REVERT JUMPDEST PUSH1 0x0 PUSH2 0x42F DUP6 PUSH2 0x876 JUMP JUMPDEST SWAP1 POP DUP4 PUSH1 0x1 PUSH1 0x0 DUP4 DUP2 MSTORE PUSH1 0x20 ADD SWAP1 DUP2 MSTORE PUSH1 0x20 ADD PUSH1 0x0 KECCAK256 PUSH1 0x1 ADD PUSH1 0x0 PUSH2 0x100 EXP DUP2 SLOAD DUP2 PUSH20 0xFFFFFFFFFFFFFFFFFFFFFFFFFFFFFFFFFFFFFFFF MUL NOT AND SWAP1 DUP4 PUSH20 0xFFFFFFFFFFFFFFFFFFFFFFFFFFFFFFFFFFFFFFFF AND MUL OR SWAP1 SSTORE POP DUP3 PUSH1 0x1 PUSH1 0x0 DUP4 DUP2 MSTORE PUSH1 0x20 ADD SWAP1 DUP2 MSTORE PUSH1 0x20 ADD PUSH1 0x0 KECCAK256 PUSH1 0x2 ADD SWAP1 DUP2 PUSH2 0x4A9 SWAP2 SWAP1 PUSH2 0x138E JUMP JUMPDEST POP DUP2 PUSH1 0x1 PUSH1 0x0 DUP4 DUP2 MSTORE PUSH1 0x20 ADD SWAP1 DUP2 MSTORE PUSH1 0x20 ADD PUSH1 0x0 KECCAK256 PUSH1 0x3 ADD SWAP1 DUP2 PUSH2 0x4CD SWAP2 SWAP1 PUSH2 0x138E JUMP JUMPDEST POP POP POP POP POP POP JUMP JUMPDEST PUSH1 0x3 PUSH1 0x0 SWAP1 SLOAD SWAP1 PUSH2 0x100 EXP SWAP1 DIV PUSH20 0xFFFFFFFFFFFFFFFFFFFFFFFFFFFFFFFFFFFFFFFF AND PUSH20 0xFFFFFFFFFFFFFFFFFFFFFFFFFFFFFFFFFFFFFFFF AND CALLER PUSH20 0xFFFFFFFFFFFFFFFFFFFFFFFFFFFFFFFFFFFFFFFF AND EQ PUSH2 0x565 JUMPI PUSH1 0x40 MLOAD PUSH32 0x8C379A000000000000000000000000000000000000000000000000000000000 DUP2 MSTORE PUSH1 0x4 ADD PUSH2 0x55C SWAP1 PUSH2 0x11C2 JUMP JUMPDEST PUSH1 0x40 MLOAD DUP1 SWAP2 SUB SWAP1 REVERT JUMPDEST PUSH1 0x0 PUSH2 0x570 DUP3 PUSH2 0x876 JUMP JUMPDEST SWAP1 POP PUSH1 0x0 DUP2 SWAP1 POP JUMPDEST PUSH1 0x2 SLOAD DUP2 LT ISZERO PUSH2 0x778 JUMPI DUP1 PUSH1 0x0 DUP1 PUSH1 0x1 PUSH1 0x0 PUSH1 0x1 DUP7 PUSH2 0x597 SWAP2 SWAP1 PUSH2 0x148F JUMP JUMPDEST DUP2 MSTORE PUSH1 0x20 ADD SWAP1 DUP2 MSTORE PUSH1 0x20 ADD PUSH1 0x0 KECCAK256 PUSH1 0x1 ADD PUSH1 0x0 SWAP1 SLOAD SWAP1 PUSH2 0x100 EXP SWAP1 DIV PUSH20 0xFFFFFFFFFFFFFFFFFFFFFFFFFFFFFFFFFFFFFFFF AND PUSH20 0xFFFFFFFFFFFFFFFFFFFFFFFFFFFFFFFFFFFFFFFF AND PUSH20 0xFFFFFFFFFFFFFFFFFFFFFFFFFFFFFFFFFFFFFFFF AND DUP2 MSTORE PUSH1 0x20 ADD SWAP1 DUP2 MSTORE PUSH1 0x20 ADD PUSH1 0x0 KECCAK256 DUP2 SWAP1 SSTORE POP PUSH1 0x1 PUSH1 0x0 PUSH1 0x1 DUP4 PUSH2 0x618 SWAP2 SWAP1 PUSH2 0x148F JUMP JUMPDEST DUP2 MSTORE PUSH1 0x20 ADD SWAP1 DUP2 MSTORE PUSH1 0x20 ADD PUSH1 0x0 KECCAK256 PUSH1 0x0 ADD SLOAD PUSH1 0x1 PUSH1 0x0 DUP4 DUP2 MSTORE PUSH1 0x20 ADD SWAP1 DUP2 MSTORE PUSH1 0x20 ADD PUSH1 0x0 KECCAK256 PUSH1 0x0 ADD DUP2 SWAP1 SSTORE POP PUSH1 0x1 PUSH1 0x0 PUSH1 0x1 DUP4 PUSH2 0x655 SWAP2 SWAP1 PUSH2 0x148F JUMP JUMPDEST DUP2 MSTORE PUSH1 0x20 ADD SWAP1 DUP2 MSTORE PUSH1 0x20 ADD PUSH1 0x0 KECCAK256 PUSH1 0x1 ADD PUSH1 0x0 SWAP1 SLOAD SWAP1 PUSH2 0x100 EXP SWAP1 DIV PUSH20 0xFFFFFFFFFFFFFFFFFFFFFFFFFFFFFFFFFFFFFFFF AND PUSH1 0x1 PUSH1 0x0 DUP4 DUP2 MSTORE PUSH1 0x20 ADD SWAP1 DUP2 MSTORE PUSH1 0x20 ADD PUSH1 0x0 KECCAK256 PUSH1 0x1 ADD PUSH1 0x0 PUSH2 0x100 EXP DUP2 SLOAD DUP2 PUSH20 0xFFFFFFFFFFFFFFFFFFFFFFFFFFFFFFFFFFFFFFFF MUL NOT AND SWAP1 DUP4 PUSH20 0xFFFFFFFFFFFFFFFFFFFFFFFFFFFFFFFFFFFFFFFF AND MUL OR SWAP1 SSTORE POP PUSH1 0x1 PUSH1 0x0 PUSH1 0x1 DUP4 PUSH2 0x6EC SWAP2 SWAP1 PUSH2 0x148F JUMP JUMPDEST DUP2 MSTORE PUSH1 0x20 ADD SWAP1 DUP2 MSTORE PUSH1 0x20 ADD PUSH1 0x0 KECCAK256 PUSH1 0x2 ADD PUSH1 0x1 PUSH1 0x0 DUP4 DUP2 MSTORE PUSH1 0x20 ADD SWAP1 DUP2 MSTORE PUSH1 0x20 ADD PUSH1 0x0 KECCAK256 PUSH1 0x2 ADD SWAP1 DUP2 PUSH2 0x71F SWAP2 SWAP1 PUSH2 0x14EE JUMP JUMPDEST POP PUSH1 0x1 PUSH1 0x0 PUSH1 0x1 DUP4 PUSH2 0x731 SWAP2 SWAP1 PUSH2 0x148F JUMP JUMPDEST DUP2 MSTORE PUSH1 0x20 ADD SWAP1 DUP2 MSTORE PUSH1 0x20 ADD PUSH1 0x0 KECCAK256 PUSH1 0x3 ADD PUSH1 0x1 PUSH1 0x0 DUP4 DUP2 MSTORE PUSH1 0x20 ADD SWAP1 DUP2 MSTORE PUSH1 0x20 ADD PUSH1 0x0 KECCAK256 PUSH1 0x3 ADD SWAP1 DUP2 PUSH2 0x764 SWAP2 SWAP1 PUSH2 0x14EE JUMP JUMPDEST POP DUP1 DUP1 PUSH2 0x770 SWAP1 PUSH2 0x15D6 JUMP JUMPDEST SWAP2 POP POP PUSH2 0x578 JUMP JUMPDEST POP PUSH1 0x0 DUP1 PUSH1 0x1 PUSH1 0x0 PUSH1 0x2 SLOAD DUP2 MSTORE PUSH1 0x20 ADD SWAP1 DUP2 MSTORE PUSH1 0x20 ADD PUSH1 0x0 KECCAK256 PUSH1 0x1 ADD PUSH1 0x0 SWAP1 SLOAD SWAP1 PUSH2 0x100 EXP SWAP1 DIV PUSH20 0xFFFFFFFFFFFFFFFFFFFFFFFFFFFFFFFFFFFFFFFF AND PUSH20 0xFFFFFFFFFFFFFFFFFFFFFFFFFFFFFFFFFFFFFFFF AND PUSH20 0xFFFFFFFFFFFFFFFFFFFFFFFFFFFFFFFFFFFFFFFF AND DUP2 MSTORE PUSH1 0x20 ADD SWAP1 DUP2 MSTORE PUSH1 0x20 ADD PUSH1 0x0 KECCAK256 PUSH1 0x0 SWAP1 SSTORE PUSH1 0x1 PUSH1 0x0 PUSH1 0x2 SLOAD DUP2 MSTORE PUSH1 0x20 ADD SWAP1 DUP2 MSTORE PUSH1 0x20 ADD PUSH1 0x0 KECCAK256 PUSH1 0x0 DUP1 DUP3 ADD PUSH1 0x0 SWAP1 SSTORE PUSH1 0x1 DUP3 ADD PUSH1 0x0 PUSH2 0x100 EXP DUP2 SLOAD SWAP1 PUSH20 0xFFFFFFFFFFFFFFFFFFFFFFFFFFFFFFFFFFFFFFFF MUL NOT AND SWAP1 SSTORE PUSH1 0x2 DUP3 ADD PUSH1 0x0 PUSH2 0x848 SWAP2 SWAP1 PUSH2 0xC35 JUMP JUMPDEST PUSH1 0x3 DUP3 ADD PUSH1 0x0 PUSH2 0x858 SWAP2 SWAP1 PUSH2 0xC35 JUMP JUMPDEST POP POP PUSH1 0x2 PUSH1 0x0 DUP2 SLOAD DUP1 SWAP3 SWAP2 SWAP1 PUSH2 0x86D SWAP1 PUSH2 0x161E JUMP JUMPDEST SWAP2 SWAP1 POP SSTORE POP POP POP JUMP JUMPDEST PUSH1 0x0 DUP1 PUSH1 0x1 SWAP1 POP JUMPDEST PUSH1 0x2 SLOAD DUP2 GT PUSH2 0x8C0 JUMPI DUP3 PUSH1 0x1 PUSH1 0x0 DUP4 DUP2 MSTORE PUSH1 0x20 ADD SWAP1 DUP2 MSTORE PUSH1 0x20 ADD PUSH1 0x0 KECCAK256 PUSH1 0x0 ADD SLOAD SUB PUSH2 0x8AD JUMPI DUP1 SWAP2 POP POP PUSH2 0x8FC JUMP JUMPDEST DUP1 DUP1 PUSH2 0x8B8 SWAP1 PUSH2 0x15D6 JUMP JUMPDEST SWAP2 POP POP PUSH2 0x87E JUMP JUMPDEST POP PUSH1 0x40 MLOAD PUSH32 0x8C379A000000000000000000000000000000000000000000000000000000000 DUP2 MSTORE PUSH1 0x4 ADD PUSH2 0x8F3 SWAP1 PUSH2 0x1693 JUMP JUMPDEST PUSH1 0x40 MLOAD DUP1 SWAP2 SUB SWAP1 REVERT JUMPDEST SWAP2 SWAP1 POP JUMP JUMPDEST PUSH1 0x0 DUP1 PUSH1 0x0 DUP1 DUP5 PUSH20 0xFFFFFFFFFFFFFFFFFFFFFFFFFFFFFFFFFFFFFFFF AND PUSH20 0xFFFFFFFFFFFFFFFFFFFFFFFFFFFFFFFFFFFFFFFF AND DUP2 MSTORE PUSH1 0x20 ADD SWAP1 DUP2 MSTORE PUSH1 0x20 ADD PUSH1 0x0 KECCAK256 SLOAD SUB PUSH2 0x983 JUMPI PUSH1 0x40 MLOAD PUSH32 0x8C379A000000000000000000000000000000000000000000000000000000000 DUP2 MSTORE PUSH1 0x4 ADD PUSH2 0x97A SWAP1 PUSH2 0x16FF JUMP JUMPDEST PUSH1 0x40 MLOAD DUP1 SWAP2 SUB SWAP1 REVERT JUMPDEST PUSH1 0x0 DUP1 DUP4 PUSH20 0xFFFFFFFFFFFFFFFFFFFFFFFFFFFFFFFFFFFFFFFF AND PUSH20 0xFFFFFFFFFFFFFFFFFFFFFFFFFFFFFFFFFFFFFFFF AND DUP2 MSTORE PUSH1 0x20 ADD SWAP1 DUP2 MSTORE PUSH1 0x20 ADD PUSH1 0x0 KECCAK256 SLOAD SWAP1 POP SWAP2 SWAP1 POP JUMP JUMPDEST PUSH1 0x0 DUP1 PUSH1 0x60 DUP1 PUSH1 0x0 PUSH2 0x9DA DUP7 PUSH2 0x876 JUMP JUMPDEST SWAP1 POP PUSH2 0x9E5 DUP2 PUSH2 0x19C JUMP JUMPDEST SWAP5 POP SWAP5 POP SWAP5 POP SWAP5 POP POP SWAP2 SWAP4 POP SWAP2 SWAP4 JUMP JUMPDEST PUSH1 0x3 PUSH1 0x0 SWAP1 SLOAD SWAP1 PUSH2 0x100 EXP SWAP1 DIV PUSH20 0xFFFFFFFFFFFFFFFFFFFFFFFFFFFFFFFFFFFFFFFF AND PUSH20 0xFFFFFFFFFFFFFFFFFFFFFFFFFFFFFFFFFFFFFFFF AND CALLER PUSH20 0xFFFFFFFFFFFFFFFFFFFFFFFFFFFFFFFFFFFFFFFF AND EQ PUSH2 0xA85 JUMPI PUSH1 0x40 MLOAD PUSH32 0x8C379A000000000000000000000000000000000000000000000000000000000 DUP2 MSTORE PUSH1 0x4 ADD PUSH2 0xA7C SWAP1 PUSH2 0x11C2 JUMP JUMPDEST PUSH1 0x40 MLOAD DUP1 SWAP2 SUB SWAP1 REVERT JUMPDEST PUSH1 0x0 DUP1 PUSH1 0x0 DUP6 PUSH20 0xFFFFFFFFFFFFFFFFFFFFFFFFFFFFFFFFFFFFFFFF AND PUSH20 0xFFFFFFFFFFFFFFFFFFFFFFFFFFFFFFFFFFFFFFFF AND DUP2 MSTORE PUSH1 0x20 ADD SWAP1 DUP2 MSTORE PUSH1 0x20 ADD PUSH1 0x0 KECCAK256 SLOAD EQ PUSH2 0xB06 JUMPI PUSH1 0x40 MLOAD PUSH32 0x8C379A000000000000000000000000000000000000000000000000000000000 DUP2 MSTORE PUSH1 0x4 ADD PUSH2 0xAFD SWAP1 PUSH2 0x176B JUMP JUMPDEST PUSH1 0x40 MLOAD DUP1 SWAP2 SUB SWAP1 REVERT JUMPDEST PUSH1 0x2 PUSH1 0x0 DUP2 SLOAD DUP1 SWAP3 SWAP2 SWAP1 PUSH2 0xB19 SWAP1 PUSH2 0x15D6 JUMP JUMPDEST SWAP2 SWAP1 POP SSTORE POP PUSH1 0x40 MLOAD DUP1 PUSH1 0x80 ADD PUSH1 0x40 MSTORE DUP1 DUP6 DUP2 MSTORE PUSH1 0x20 ADD DUP5 PUSH20 0xFFFFFFFFFFFFFFFFFFFFFFFFFFFFFFFFFFFFFFFF AND DUP2 MSTORE PUSH1 0x20 ADD DUP4 DUP2 MSTORE PUSH1 0x20 ADD DUP3 DUP2 MSTORE POP PUSH1 0x1 PUSH1 0x0 PUSH1 0x2 SLOAD DUP2 MSTORE PUSH1 0x20 ADD SWAP1 DUP2 MSTORE PUSH1 0x20 ADD PUSH1 0x0 KECCAK256 PUSH1 0x0 DUP3 ADD MLOAD DUP2 PUSH1 0x0 ADD SSTORE PUSH1 0x20 DUP3 ADD MLOAD DUP2 PUSH1 0x1 ADD PUSH1 0x0 PUSH2 0x100 EXP DUP2 SLOAD DUP2 PUSH20 0xFFFFFFFFFFFFFFFFFFFFFFFFFFFFFFFFFFFFFFFF MUL NOT AND SWAP1 DUP4 PUSH20 0xFFFFFFFFFFFFFFFFFFFFFFFFFFFFFFFFFFFFFFFF AND MUL OR SWAP1 SSTORE POP PUSH1 0x40 DUP3 ADD MLOAD DUP2 PUSH1 0x2 ADD SWAP1 DUP2 PUSH2 0xBD0 SWAP2 SWAP1 PUSH2 0x138E JUMP JUMPDEST POP PUSH1 0x60 DUP3 ADD MLOAD DUP2 PUSH1 0x3 ADD SWAP1 DUP2 PUSH2 0xBE6 SWAP2 SWAP1 PUSH2 0x138E JUMP JUMPDEST POP SWAP1 POP POP PUSH1 0x2 SLOAD PUSH1 0x0 DUP1 DUP6 PUSH20 0xFFFFFFFFFFFFFFFFFFFFFFFFFFFFFFFFFFFFFFFF AND PUSH20 0xFFFFFFFFFFFFFFFFFFFFFFFFFFFFFFFFFFFFFFFF AND DUP2 MSTORE PUSH1 0x20 ADD SWAP1 DUP2 MSTORE PUSH1 0x20 ADD PUSH1 0x0 KECCAK256 DUP2 SWAP1 SSTORE POP POP POP POP POP JUMP JUMPDEST POP DUP1 SLOAD PUSH2 0xC41 SWAP1 PUSH2 0x111F JUMP JUMPDEST PUSH1 0x0 DUP3 SSTORE DUP1 PUSH1 0x1F LT PUSH2 0xC53 JUMPI POP PUSH2 0xC72 JUMP JUMPDEST PUSH1 0x1F ADD PUSH1 0x20 SWAP1 DIV SWAP1 PUSH1 0x0 MSTORE PUSH1 0x20 PUSH1 0x0 KECCAK256 SWAP1 DUP2 ADD SWAP1 PUSH2 0xC71 SWAP2 SWAP1 PUSH2 0xC75 JUMP JUMPDEST JUMPDEST POP JUMP JUMPDEST JUMPDEST DUP1 DUP3 GT ISZERO PUSH2 0xC8E JUMPI PUSH1 0x0 DUP2 PUSH1 0x0 SWAP1 SSTORE POP PUSH1 0x1 ADD PUSH2 0xC76 JUMP JUMPDEST POP SWAP1 JUMP JUMPDEST PUSH1 0x0 PUSH1 0x40 MLOAD SWAP1 POP SWAP1 JUMP JUMPDEST PUSH1 0x0 DUP1 REVERT JUMPDEST PUSH1 0x0 DUP1 REVERT JUMPDEST PUSH1 0x0 DUP2 SWAP1 POP SWAP2 SWAP1 POP JUMP JUMPDEST PUSH2 0xCB9 DUP2 PUSH2 0xCA6 JUMP JUMPDEST DUP2 EQ PUSH2 0xCC4 JUMPI PUSH1 0x0 DUP1 REVERT JUMPDEST POP JUMP JUMPDEST PUSH1 0x0 DUP2 CALLDATALOAD SWAP1 POP PUSH2 0xCD6 DUP2 PUSH2 0xCB0 JUMP JUMPDEST SWAP3 SWAP2 POP POP JUMP JUMPDEST PUSH1 0x0 PUSH1 0x20 DUP3 DUP5 SUB SLT ISZERO PUSH2 0xCF2 JUMPI PUSH2 0xCF1 PUSH2 0xC9C JUMP JUMPDEST JUMPDEST PUSH1 0x0 PUSH2 0xD00 DUP5 DUP3 DUP6 ADD PUSH2 0xCC7 JUMP JUMPDEST SWAP2 POP POP SWAP3 SWAP2 POP POP JUMP JUMPDEST PUSH2 0xD12 DUP2 PUSH2 0xCA6 JUMP JUMPDEST DUP3 MSTORE POP POP JUMP JUMPDEST PUSH1 0x0 PUSH20 0xFFFFFFFFFFFFFFFFFFFFFFFFFFFFFFFFFFFFFFFF DUP3 AND SWAP1 POP SWAP2 SWAP1 POP JUMP JUMPDEST PUSH1 0x0 PUSH2 0xD43 DUP3 PUSH2 0xD18 JUMP JUMPDEST SWAP1 POP SWAP2 SWAP1 POP JUMP JUMPDEST PUSH2 0xD53 DUP2 PUSH2 0xD38 JUMP JUMPDEST DUP3 MSTORE POP POP JUMP JUMPDEST PUSH1 0x0 DUP2 MLOAD SWAP1 POP SWAP2 SWAP1 POP JUMP JUMPDEST PUSH1 0x0 DUP3 DUP3 MSTORE PUSH1 0x20 DUP3 ADD SWAP1 POP SWAP3 SWAP2 POP POP JUMP JUMPDEST PUSH1 0x0 JUMPDEST DUP4 DUP2 LT ISZERO PUSH2 0xD93 JUMPI DUP1 DUP3 ADD MLOAD DUP2 DUP5 ADD MSTORE PUSH1 0x20 DUP2 ADD SWAP1 POP PUSH2 0xD78 JUMP JUMPDEST PUSH1 0x0 DUP5 DUP5 ADD MSTORE POP POP POP POP JUMP JUMPDEST PUSH1 0x0 PUSH1 0x1F NOT PUSH1 0x1F DUP4 ADD AND SWAP1 POP SWAP2 SWAP1 POP JUMP JUMPDEST PUSH1 0x0 PUSH2 0xDBB DUP3 PUSH2 0xD59 JUMP JUMPDEST PUSH2 0xDC5 DUP2 DUP6 PUSH2 0xD64 JUMP JUMPDEST SWAP4 POP PUSH2 0xDD5 DUP2 DUP6 PUSH1 0x20 DUP7 ADD PUSH2 0xD75 JUMP JUMPDEST PUSH2 0xDDE DUP2 PUSH2 0xD9F JUMP JUMPDEST DUP5 ADD SWAP2 POP POP SWAP3 SWAP2 POP POP JUMP JUMPDEST PUSH1 0x0 PUSH1 0x80 DUP3 ADD SWAP1 POP PUSH2 0xDFE PUSH1 0x0 DUP4 ADD DUP8 PUSH2 0xD09 JUMP JUMPDEST PUSH2 0xE0B PUSH1 0x20 DUP4 ADD DUP7 PUSH2 0xD4A JUMP JUMPDEST DUP2 DUP2 SUB PUSH1 0x40 DUP4 ADD MSTORE PUSH2 0xE1D DUP2 DUP6 PUSH2 0xDB0 JUMP JUMPDEST SWAP1 POP DUP2 DUP2 SUB PUSH1 0x60 DUP4 ADD MSTORE PUSH2 0xE31 DUP2 DUP5 PUSH2 0xDB0 JUMP JUMPDEST SWAP1 POP SWAP6 SWAP5 POP POP POP POP POP JUMP JUMPDEST PUSH2 0xE45 DUP2 PUSH2 0xD38 JUMP JUMPDEST DUP2 EQ PUSH2 0xE50 JUMPI PUSH1 0x0 DUP1 REVERT JUMPDEST POP JUMP JUMPDEST PUSH1 0x0 DUP2 CALLDATALOAD SWAP1 POP PUSH2 0xE62 DUP2 PUSH2 0xE3C JUMP JUMPDEST SWAP3 SWAP2 POP POP JUMP JUMPDEST PUSH1 0x0 DUP1 REVERT JUMPDEST PUSH1 0x0 DUP1 REVERT JUMPDEST PUSH32 0x4E487B7100000000000000000000000000000000000000000000000000000000 PUSH1 0x0 MSTORE PUSH1 0x41 PUSH1 0x4 MSTORE PUSH1 0x24 PUSH1 0x0 REVERT JUMPDEST PUSH2 0xEAA DUP3 PUSH2 0xD9F JUMP JUMPDEST DUP2 ADD DUP2 DUP2 LT PUSH8 0xFFFFFFFFFFFFFFFF DUP3 GT OR ISZERO PUSH2 0xEC9 JUMPI PUSH2 0xEC8 PUSH2 0xE72 JUMP JUMPDEST JUMPDEST DUP1 PUSH1 0x40 MSTORE POP POP POP JUMP JUMPDEST PUSH1 0x0 PUSH2 0xEDC PUSH2 0xC92 JUMP JUMPDEST SWAP1 POP PUSH2 0xEE8 DUP3 DUP3 PUSH2 0xEA1 JUMP JUMPDEST SWAP2 SWAP1 POP JUMP JUMPDEST PUSH1 0x0 PUSH8 0xFFFFFFFFFFFFFFFF DUP3 GT ISZERO PUSH2 0xF08 JUMPI PUSH2 0xF07 PUSH2 0xE72 JUMP JUMPDEST JUMPDEST PUSH2 0xF11 DUP3 PUSH2 0xD9F JUMP JUMPDEST SWAP1 POP PUSH1 0x20 DUP2 ADD SWAP1 POP SWAP2 SWAP1 POP JUMP JUMPDEST DUP3 DUP2 DUP4 CALLDATACOPY PUSH1 0x0 DUP4 DUP4 ADD MSTORE POP POP POP JUMP JUMPDEST PUSH1 0x0 PUSH2 0xF40 PUSH2 0xF3B DUP5 PUSH2 0xEED JUMP JUMPDEST PUSH2 0xED2 JUMP JUMPDEST SWAP1 POP DUP3 DUP2 MSTORE PUSH1 0x20 DUP2 ADD DUP5 DUP5 DUP5 ADD GT ISZERO PUSH2 0xF5C JUMPI PUSH2 0xF5B PUSH2 0xE6D JUMP JUMPDEST JUMPDEST PUSH2 0xF67 DUP5 DUP3 DUP6 PUSH2 0xF1E JUMP JUMPDEST POP SWAP4 SWAP3 POP POP POP JUMP JUMPDEST PUSH1 0x0 DUP3 PUSH1 0x1F DUP4 ADD SLT PUSH2 0xF84 JUMPI PUSH2 0xF83 PUSH2 0xE68 JUMP JUMPDEST JUMPDEST DUP2 CALLDATALOAD PUSH2 0xF94 DUP5 DUP3 PUSH1 0x20 DUP7 ADD PUSH2 0xF2D JUMP JUMPDEST SWAP2 POP POP SWAP3 SWAP2 POP POP JUMP JUMPDEST PUSH1 0x0 DUP1 PUSH1 0x0 DUP1 PUSH1 0x80 DUP6 DUP8 SUB SLT ISZERO PUSH2 0xFB7 JUMPI PUSH2 0xFB6 PUSH2 0xC9C JUMP JUMPDEST JUMPDEST PUSH1 0x0 PUSH2 0xFC5 DUP8 DUP3 DUP9 ADD PUSH2 0xCC7 JUMP JUMPDEST SWAP5 POP POP PUSH1 0x20 PUSH2 0xFD6 DUP8 DUP3 DUP9 ADD PUSH2 0xE53 JUMP JUMPDEST SWAP4 POP POP PUSH1 0x40 DUP6 ADD CALLDATALOAD PUSH8 0xFFFFFFFFFFFFFFFF DUP2 GT ISZERO PUSH2 0xFF7 JUMPI PUSH2 0xFF6 PUSH2 0xCA1 JUMP JUMPDEST JUMPDEST PUSH2 0x1003 DUP8 DUP3 DUP9 ADD PUSH2 0xF6F JUMP JUMPDEST SWAP3 POP POP PUSH1 0x60 DUP6 ADD CALLDATALOAD PUSH8 0xFFFFFFFFFFFFFFFF DUP2 GT ISZERO PUSH2 0x1024 JUMPI PUSH2 0x1023 PUSH2 0xCA1 JUMP JUMPDEST JUMPDEST PUSH2 0x1030 DUP8 DUP3 DUP9 ADD PUSH2 0xF6F JUMP JUMPDEST SWAP2 POP POP SWAP3 SWAP6 SWAP2 SWAP5 POP SWAP3 POP JUMP JUMPDEST PUSH1 0x0 PUSH1 0x20 DUP3 ADD SWAP1 POP PUSH2 0x1051 PUSH1 0x0 DUP4 ADD DUP5 PUSH2 0xD09 JUMP JUMPDEST SWAP3 SWAP2 POP POP JUMP JUMPDEST PUSH1 0x0 PUSH1 0x20 DUP3 DUP5 SUB SLT ISZERO PUSH2 0x106D JUMPI PUSH2 0x106C PUSH2 0xC9C JUMP JUMPDEST JUMPDEST PUSH1 0x0 PUSH2 0x107B DUP5 DUP3 DUP6 ADD PUSH2 0xE53 JUMP JUMPDEST SWAP2 POP POP SWAP3 SWAP2 POP POP JUMP JUMPDEST PUSH32 0x496E76616C696420696E6465782E000000000000000000000000000000000000 PUSH1 0x0 DUP3 ADD MSTORE POP JUMP JUMPDEST PUSH1 0x0 PUSH2 0x10BA PUSH1 0xE DUP4 PUSH2 0xD64 JUMP JUMPDEST SWAP2 POP PUSH2 0x10C5 DUP3 PUSH2 0x1084 JUMP JUMPDEST PUSH1 0x20 DUP3 ADD SWAP1 POP SWAP2 SWAP1 POP JUMP JUMPDEST PUSH1 0x0 PUSH1 0x20 DUP3 ADD SWAP1 POP DUP2 DUP2 SUB PUSH1 0x0 DUP4 ADD MSTORE PUSH2 0x10E9 DUP2 PUSH2 0x10AD JUMP JUMPDEST SWAP1 POP SWAP2 SWAP1 POP JUMP JUMPDEST PUSH32 0x4E487B7100000000000000000000000000000000000000000000000000000000 PUSH1 0x0 MSTORE PUSH1 0x22 PUSH1 0x4 MSTORE PUSH1 0x24 PUSH1 0x0 REVERT JUMPDEST PUSH1 0x0 PUSH1 0x2 DUP3 DIV SWAP1 POP PUSH1 0x1 DUP3 AND DUP1 PUSH2 0x1137 JUMPI PUSH1 0x7F DUP3 AND SWAP2 POP JUMPDEST PUSH1 0x20 DUP3 LT DUP2 SUB PUSH2 0x114A JUMPI PUSH2 0x1149 PUSH2 0x10F0 JUMP JUMPDEST JUMPDEST POP SWAP2 SWAP1 POP JUMP JUMPDEST PUSH32 0x4F6E6C79206F776E65722063616E2063616C6C20746869732066756E6374696F PUSH1 0x0 DUP3 ADD MSTORE PUSH32 0x6E2E000000000000000000000000000000000000000000000000000000000000 PUSH1 0x20 DUP3 ADD MSTORE POP JUMP JUMPDEST PUSH1 0x0 PUSH2 0x11AC PUSH1 0x22 DUP4 PUSH2 0xD64 JUMP JUMPDEST SWAP2 POP PUSH2 0x11B7 DUP3 PUSH2 0x1150 JUMP JUMPDEST PUSH1 0x40 DUP3 ADD SWAP1 POP SWAP2 SWAP1 POP JUMP JUMPDEST PUSH1 0x0 PUSH1 0x20 DUP3 ADD SWAP1 POP DUP2 DUP2 SUB PUSH1 0x0 DUP4 ADD MSTORE PUSH2 0x11DB DUP2 PUSH2 0x119F JUMP JUMPDEST SWAP1 POP SWAP2 SWAP1 POP JUMP JUMPDEST PUSH1 0x0 DUP2 SWAP1 POP DUP2 PUSH1 0x0 MSTORE PUSH1 0x20 PUSH1 0x0 KECCAK256 SWAP1 POP SWAP2 SWAP1 POP JUMP JUMPDEST PUSH1 0x0 PUSH1 0x20 PUSH1 0x1F DUP4 ADD DIV SWAP1 POP SWAP2 SWAP1 POP JUMP JUMPDEST PUSH1 0x0 DUP3 DUP3 SHL SWAP1 POP SWAP3 SWAP2 POP POP JUMP JUMPDEST PUSH1 0x0 PUSH1 0x8 DUP4 MUL PUSH2 0x1244 PUSH32 0xFFFFFFFFFFFFFFFFFFFFFFFFFFFFFFFFFFFFFFFFFFFFFFFFFFFFFFFFFFFFFFFF DUP3 PUSH2 0x1207 JUMP JUMPDEST PUSH2 0x124E DUP7 DUP4 PUSH2 0x1207 JUMP JUMPDEST SWAP6 POP DUP1 NOT DUP5 AND SWAP4 POP DUP1 DUP7 AND DUP5 OR SWAP3 POP POP POP SWAP4 SWAP3 POP POP POP JUMP JUMPDEST PUSH1 0x0 DUP2 SWAP1 POP SWAP2 SWAP1 POP JUMP JUMPDEST PUSH1 0x0 PUSH2 0x128B PUSH2 0x1286 PUSH2 0x1281 DUP5 PUSH2 0xCA6 JUMP JUMPDEST PUSH2 0x1266 JUMP JUMPDEST PUSH2 0xCA6 JUMP JUMPDEST SWAP1 POP SWAP2 SWAP1 POP JUMP JUMPDEST PUSH1 0x0 DUP2 SWAP1 POP SWAP2 SWAP1 POP JUMP JUMPDEST PUSH2 0x12A5 DUP4 PUSH2 0x1270 JUMP JUMPDEST PUSH2 0x12B9 PUSH2 0x12B1 DUP3 PUSH2 0x1292 JUMP JUMPDEST DUP5 DUP5 SLOAD PUSH2 0x1214 JUMP JUMPDEST DUP3 SSTORE POP POP POP POP JUMP JUMPDEST PUSH1 0x0 SWAP1 JUMP JUMPDEST PUSH2 0x12CE PUSH2 0x12C1 JUMP JUMPDEST PUSH2 0x12D9 DUP2 DUP5 DUP5 PUSH2 0x129C JUMP JUMPDEST POP POP POP JUMP JUMPDEST JUMPDEST DUP2 DUP2 LT ISZERO PUSH2 0x12FD JUMPI PUSH2 0x12F2 PUSH1 0x0 DUP3 PUSH2 0x12C6 JUMP JUMPDEST PUSH1 0x1 DUP2 ADD SWAP1 POP PUSH2 0x12DF JUMP JUMPDEST POP POP JUMP JUMPDEST PUSH1 0x1F DUP3 GT ISZERO PUSH2 0x1342 JUMPI PUSH2 0x1313 DUP2 PUSH2 0x11E2 JUMP JUMPDEST PUSH2 0x131C DUP5 PUSH2 0x11F7 JUMP JUMPDEST DUP2 ADD PUSH1 0x20 DUP6 LT ISZERO PUSH2 0x132B JUMPI DUP2 SWAP1 POP JUMPDEST PUSH2 0x133F PUSH2 0x1337 DUP6 PUSH2 0x11F7 JUMP JUMPDEST DUP4 ADD DUP3 PUSH2 0x12DE JUMP JUMPDEST POP POP JUMPDEST POP POP POP JUMP JUMPDEST PUSH1 0x0 DUP3 DUP3 SHR SWAP1 POP SWAP3 SWAP2 POP POP JUMP JUMPDEST PUSH1 0x0 PUSH2 0x1365 PUSH1 0x0 NOT DUP5 PUSH1 0x8 MUL PUSH2 0x1347 JUMP JUMPDEST NOT DUP1 DUP4 AND SWAP2 POP POP SWAP3 SWAP2 POP POP JUMP JUMPDEST PUSH1 0x0 PUSH2 0x137E DUP4 DUP4 PUSH2 0x1354 JUMP JUMPDEST SWAP2 POP DUP3 PUSH1 0x2 MUL DUP3 OR SWAP1 POP SWAP3 SWAP2 POP POP JUMP JUMPDEST PUSH2 0x1397 DUP3 PUSH2 0xD59 JUMP JUMPDEST PUSH8 0xFFFFFFFFFFFFFFFF DUP2 GT ISZERO PUSH2 0x13B0 JUMPI PUSH2 0x13AF PUSH2 0xE72 JUMP JUMPDEST JUMPDEST PUSH2 0x13BA DUP3 SLOAD PUSH2 0x111F JUMP JUMPDEST PUSH2 0x13C5 DUP3 DUP3 DUP6 PUSH2 0x1301 JUMP JUMPDEST PUSH1 0x0 PUSH1 0x20 SWAP1 POP PUSH1 0x1F DUP4 GT PUSH1 0x1 DUP2 EQ PUSH2 0x13F8 JUMPI PUSH1 0x0 DUP5 ISZERO PUSH2 0x13E6 JUMPI DUP3 DUP8 ADD MLOAD SWAP1 POP JUMPDEST PUSH2 0x13F0 DUP6 DUP3 PUSH2 0x1372 JUMP JUMPDEST DUP7 SSTORE POP PUSH2 0x1458 JUMP JUMPDEST PUSH1 0x1F NOT DUP5 AND PUSH2 0x1406 DUP7 PUSH2 0x11E2 JUMP JUMPDEST PUSH1 0x0 JUMPDEST DUP3 DUP2 LT ISZERO PUSH2 0x142E JUMPI DUP5 DUP10 ADD MLOAD DUP3 SSTORE PUSH1 0x1 DUP3 ADD SWAP2 POP PUSH1 0x20 DUP6 ADD SWAP5 POP PUSH1 0x20 DUP2 ADD SWAP1 POP PUSH2 0x1409 JUMP JUMPDEST DUP7 DUP4 LT ISZERO PUSH2 0x144B JUMPI DUP5 DUP10 ADD MLOAD PUSH2 0x1447 PUSH1 0x1F DUP10 AND DUP3 PUSH2 0x1354 JUMP JUMPDEST DUP4 SSTORE POP JUMPDEST PUSH1 0x1 PUSH1 0x2 DUP9 MUL ADD DUP9 SSTORE POP POP POP JUMPDEST POP POP POP POP POP POP JUMP JUMPDEST PUSH32 0x4E487B7100000000000000000000000000000000000000000000000000000000 PUSH1 0x0 MSTORE PUSH1 0x11 PUSH1 0x4 MSTORE PUSH1 0x24 PUSH1 0x0 REVERT JUMPDEST PUSH1 0x0 PUSH2 0x149A DUP3 PUSH2 0xCA6 JUMP JUMPDEST SWAP2 POP PUSH2 0x14A5 DUP4 PUSH2 0xCA6 JUMP JUMPDEST SWAP3 POP DUP3 DUP3 ADD SWAP1 POP DUP1 DUP3 GT ISZERO PUSH2 0x14BD JUMPI PUSH2 0x14BC PUSH2 0x1460 JUMP JUMPDEST JUMPDEST SWAP3 SWAP2 POP POP JUMP JUMPDEST PUSH1 0x0 DUP2 SLOAD SWAP1 POP PUSH2 0x14D2 DUP2 PUSH2 0x111F JUMP JUMPDEST SWAP1 POP SWAP2 SWAP1 POP JUMP JUMPDEST PUSH1 0x0 DUP2 SWAP1 POP DUP2 PUSH1 0x0 MSTORE PUSH1 0x20 PUSH1 0x0 KECCAK256 SWAP1 POP SWAP2 SWAP1 POP JUMP JUMPDEST DUP2 DUP2 SUB PUSH2 0x14FC JUMPI POP POP PUSH2 0x15D4 JUMP JUMPDEST PUSH2 0x1505 DUP3 PUSH2 0x14C3 JUMP JUMPDEST PUSH8 0xFFFFFFFFFFFFFFFF DUP2 GT ISZERO PUSH2 0x151E JUMPI PUSH2 0x151D PUSH2 0xE72 JUMP JUMPDEST JUMPDEST PUSH2 0x1528 DUP3 SLOAD PUSH2 0x111F JUMP JUMPDEST PUSH2 0x1533 DUP3 DUP3 DUP6 PUSH2 0x1301 JUMP JUMPDEST PUSH1 0x0 PUSH1 0x1F DUP4 GT PUSH1 0x1 DUP2 EQ PUSH2 0x1562 JUMPI PUSH1 0x0 DUP5 ISZERO PUSH2 0x1550 JUMPI DUP3 DUP8 ADD SLOAD SWAP1 POP JUMPDEST PUSH2 0x155A DUP6 DUP3 PUSH2 0x1372 JUMP JUMPDEST DUP7 SSTORE POP PUSH2 0x15CD JUMP JUMPDEST PUSH1 0x1F NOT DUP5 AND PUSH2 0x1570 DUP8 PUSH2 0x14D9 JUMP JUMPDEST SWAP7 POP PUSH2 0x157B DUP7 PUSH2 0x11E2 JUMP JUMPDEST PUSH1 0x0 JUMPDEST DUP3 DUP2 LT ISZERO PUSH2 0x15A3 JUMPI DUP5 DUP10 ADD SLOAD DUP3 SSTORE PUSH1 0x1 DUP3 ADD SWAP2 POP PUSH1 0x1 DUP6 ADD SWAP5 POP PUSH1 0x20 DUP2 ADD SWAP1 POP PUSH2 0x157E JUMP JUMPDEST DUP7 DUP4 LT ISZERO PUSH2 0x15C0 JUMPI DUP5 DUP10 ADD SLOAD PUSH2 0x15BC PUSH1 0x1F DUP10 AND DUP3 PUSH2 0x1354 JUMP JUMPDEST DUP4 SSTORE POP JUMPDEST PUSH1 0x1 PUSH1 0x2 DUP9 MUL ADD DUP9 SSTORE POP POP POP JUMPDEST POP POP POP POP POP POP JUMPDEST JUMP JUMPDEST PUSH1 0x0 PUSH2 0x15E1 DUP3 PUSH2 0xCA6 JUMP JUMPDEST SWAP2 POP PUSH32 0xFFFFFFFFFFFFFFFFFFFFFFFFFFFFFFFFFFFFFFFFFFFFFFFFFFFFFFFFFFFFFFFF DUP3 SUB PUSH2 0x1613 JUMPI PUSH2 0x1612 PUSH2 0x1460 JUMP JUMPDEST JUMPDEST PUSH1 0x1 DUP3 ADD SWAP1 POP SWAP2 SWAP1 POP JUMP JUMPDEST PUSH1 0x0 PUSH2 0x1629 DUP3 PUSH2 0xCA6 JUMP JUMPDEST SWAP2 POP PUSH1 0x0 DUP3 SUB PUSH2 0x163C JUMPI PUSH2 0x163B PUSH2 0x1460 JUMP JUMPDEST JUMPDEST PUSH1 0x1 DUP3 SUB SWAP1 POP SWAP2 SWAP1 POP JUMP JUMPDEST PUSH32 0x53747564656E74206E6F7420666F756E642E0000000000000000000000000000 PUSH1 0x0 DUP3 ADD MSTORE POP JUMP JUMPDEST PUSH1 0x0 PUSH2 0x167D PUSH1 0x12 DUP4 PUSH2 0xD64 JUMP JUMPDEST SWAP2 POP PUSH2 0x1688 DUP3 PUSH2 0x1647 JUMP JUMPDEST PUSH1 0x20 DUP3 ADD SWAP1 POP SWAP2 SWAP1 POP JUMP JUMPDEST PUSH1 0x0 PUSH1 0x20 DUP3 ADD SWAP1 POP DUP2 DUP2 SUB PUSH1 0x0 DUP4 ADD MSTORE PUSH2 0x16AC DUP2 PUSH2 0x1670 JUMP JUMPDEST SWAP1 POP SWAP2 SWAP1 POP JUMP JUMPDEST PUSH32 0x4163636F756E7420646F6573206E6F742065786973742E000000000000000000 PUSH1 0x0 DUP3 ADD MSTORE POP JUMP JUMPDEST PUSH1 0x0 PUSH2 0x16E9 PUSH1 0x17 DUP4 PUSH2 0xD64 JUMP JUMPDEST SWAP2 POP PUSH2 0x16F4 DUP3 PUSH2 0x16B3 JUMP JUMPDEST PUSH1 0x20 DUP3 ADD SWAP1 POP SWAP2 SWAP1 POP JUMP JUMPDEST PUSH1 0x0 PUSH1 0x20 DUP3 ADD SWAP1 POP DUP2 DUP2 SUB PUSH1 0x0 DUP4 ADD MSTORE PUSH2 0x1718 DUP2 PUSH2 0x16DC JUMP JUMPDEST SWAP1 POP SWAP2 SWAP1 POP JUMP JUMPDEST PUSH32 0x4163636F756E7420616C7265616479206578697374732E000000000000000000 PUSH1 0x0 DUP3 ADD MSTORE POP JUMP JUMPDEST PUSH1 0x0 PUSH2 0x1755 PUSH1 0x17 DUP4 PUSH2 0xD64 JUMP JUMPDEST SWAP2 POP PUSH2 0x1760 DUP3 PUSH2 0x171F JUMP JUMPDEST PUSH1 0x20 DUP3 ADD SWAP1 POP SWAP2 SWAP1 POP JUMP JUMPDEST PUSH1 0x0 PUSH1 0x20 DUP3 ADD SWAP1 POP DUP2 DUP2 SUB PUSH1 0x0 DUP4 ADD MSTORE PUSH2 0x1784 DUP2 PUSH2 0x1748 JUMP JUMPDEST SWAP1 POP SWAP2 SWAP1 POP JUMP INVALID LOG2 PUSH5 0x6970667358 0x22 SLT KECCAK256 SUB CALLDATALOAD 0xE2 0xD3 0xC1 SWAP9 0xD9 0xBA 0xD2 PUSH8 0x39EA7863FD2F573D 0xC2 0xD4 0x23 0xA8 MSIZE DUP5 DUP5 0x2B 0xD6 CHAINID 0xB8 0xB6 SWAP7 0x21 PUSH5 0x736F6C6343 STOP ADDMOD SGT STOP CALLER "
				},
				"gasEstimates": {
					"creation": {
						"codeDepositCost": "1216200",
						"executionCost": "30548",
						"totalCost": "1246748"
					},
					"external": {
						"addStudent(uint256,address,string,string)": "infinite",
						"deleteStudent(uint256)": "infinite",
						"getStudent(uint256)": "infinite",
						"getStudentById(uint256)": "infinite",
						"getStudentIndexByAccount(address)": "5076",
						"getStudentIndexById(uint256)": "infinite",
						"updateStudent(uint256,address,string,string)": "infinite"
					}
				},
				"methodIdentifiers": {
					"addStudent(uint256,address,string,string)": "e56a05a5",
					"deleteStudent(uint256)": "b645307d",
					"getStudent(uint256)": "642f9163",
					"getStudentById(uint256)": "c8fb0793",
					"getStudentIndexByAccount(address)": "c61aa564",
					"getStudentIndexById(uint256)": "c4c75bb2",
					"updateStudent(uint256,address,string,string)": "a9870632"
				}
			},
			"storageLayout": {
				"storage": [
					{
						"astId": 14,
						"contract": "contracts/Students.sol:StudentInfo",
						"label": "accountToIndex",
						"offset": 0,
						"slot": "0",
						"type": "t_mapping(t_address,t_uint256)"
					},
					{
						"astId": 19,
						"contract": "contracts/Students.sol:StudentInfo",
						"label": "students",
						"offset": 0,
						"slot": "1",
						"type": "t_mapping(t_uint256,t_struct(Student)10_storage)"
					},
					{
						"astId": 21,
						"contract": "contracts/Students.sol:StudentInfo",
						"label": "numStudents",
						"offset": 0,
						"slot": "2",
						"type": "t_uint256"
					},
					{
						"astId": 23,
						"contract": "contracts/Students.sol:StudentInfo",
						"label": "owner",
						"offset": 0,
						"slot": "3",
						"type": "t_address"
					}
				],
				"types": {
					"t_address": {
						"encoding": "inplace",
						"label": "address",
						"numberOfBytes": "20"
					},
					"t_mapping(t_address,t_uint256)": {
						"encoding": "mapping",
						"key": "t_address",
						"label": "mapping(address => uint256)",
						"numberOfBytes": "32",
						"value": "t_uint256"
					},
					"t_mapping(t_uint256,t_struct(Student)10_storage)": {
						"encoding": "mapping",
						"key": "t_uint256",
						"label": "mapping(uint256 => struct StudentInfo.Student)",
						"numberOfBytes": "32",
						"value": "t_struct(Student)10_storage"
					},
					"t_string_storage": {
						"encoding": "bytes",
						"label": "string",
						"numberOfBytes": "32"
					},
					"t_struct(Student)10_storage": {
						"encoding": "inplace",
						"label": "struct StudentInfo.Student",
						"members": [
							{
								"astId": 3,
								"contract": "contracts/Students.sol:StudentInfo",
								"label": "id",
								"offset": 0,
								"slot": "0",
								"type": "t_uint256"
							},
							{
								"astId": 5,
								"contract": "contracts/Students.sol:StudentInfo",
								"label": "account",
								"offset": 0,
								"slot": "1",
								"type": "t_address"
							},
							{
								"astId": 7,
								"contract": "contracts/Students.sol:StudentInfo",
								"label": "phone",
								"offset": 0,
								"slot": "2",
								"type": "t_string_storage"
							},
							{
								"astId": 9,
								"contract": "contracts/Students.sol:StudentInfo",
								"label": "email",
								"offset": 0,
								"slot": "3",
								"type": "t_string_storage"
							}
						],
						"numberOfBytes": "128"
					},
					"t_uint256": {
						"encoding": "inplace",
						"label": "uint256",
						"numberOfBytes": "32"
					}
				}
			},
			"userdoc": {
				"kind": "user",
				"methods": {},
				"version": 1
			}
		}
	}
}