{
	"contracts/03_Math.sol": {
		"math": {
			"abi": [
				{
					"inputs": [
						{
							"internalType": "uint256",
							"name": "a",
							"type": "uint256"
						},
						{
							"internalType": "uint256",
							"name": "b",
							"type": "uint256"
						}
					],
					"name": "add",
					"outputs": [
						{
							"internalType": "uint256",
							"name": "c",
							"type": "uint256"
						}
					],
					"stateMutability": "pure",
					"type": "function"
				},
				{
					"inputs": [
						{
							"internalType": "int256",
							"name": "a",
							"type": "int256"
						},
						{
							"internalType": "int256",
							"name": "b",
							"type": "int256"
						}
					],
					"name": "add",
					"outputs": [
						{
							"internalType": "int256",
							"name": "c",
							"type": "int256"
						}
					],
					"stateMutability": "pure",
					"type": "function"
				}
			],
			"devdoc": {
				"kind": "dev",
				"methods": {},
				"version": 1
			},
			"evm": {
				"assembly": "    /* \"contracts/03_Math.sol\":125:331  library math {... */\n  dataSize(sub_0)\n  dataOffset(sub_0)\n  0x0b\n  dup3\n  dup3\n  dup3\n  codecopy\n  dup1\n  mload\n  0x00\n  byte\n  0x73\n  eq\n  tag_1\n  jumpi\n  mstore(0x00, 0x4e487b7100000000000000000000000000000000000000000000000000000000)\n  mstore(0x04, 0x00)\n  revert(0x00, 0x24)\ntag_1:\n  mstore(0x00, address)\n  0x73\n  dup2\n  mstore8\n  dup3\n  dup2\n  return\nstop\n\nsub_0: assembly {\n        /* \"contracts/03_Math.sol\":125:331  library math {... */\n      eq(address, deployTimeAddress())\n      mstore(0x40, 0x80)\n      jumpi(tag_1, lt(calldatasize, 0x04))\n      shr(0xe0, calldataload(0x00))\n      dup1\n      0x771602f7\n      eq\n      tag_2\n      jumpi\n      dup1\n      0xa5f3c23b\n      eq\n      tag_3\n      jumpi\n    tag_1:\n      0x00\n      dup1\n      revert\n        /* \"contracts/03_Math.sol\":239:328  function add(uint a, uint b) public pure returns (uint c) {... */\n    tag_2:\n      tag_4\n      0x04\n      dup1\n      calldatasize\n      sub\n      dup2\n      add\n      swap1\n      tag_5\n      swap2\n      swap1\n      tag_6\n      jump\t// in\n    tag_5:\n      tag_7\n      jump\t// in\n    tag_4:\n      mload(0x40)\n      tag_8\n      swap2\n      swap1\n      tag_9\n      jump\t// in\n    tag_8:\n      mload(0x40)\n      dup1\n      swap2\n      sub\n      swap1\n      return\n        /* \"contracts/03_Math.sol\":145:231  function add(int a, int b) public pure returns (int c) {... */\n    tag_3:\n      tag_10\n      0x04\n      dup1\n      calldatasize\n      sub\n      dup2\n      add\n      swap1\n      tag_11\n      swap2\n      swap1\n      tag_12\n      jump\t// in\n    tag_11:\n      tag_13\n      jump\t// in\n    tag_10:\n      mload(0x40)\n      tag_14\n      swap2\n      swap1\n      tag_15\n      jump\t// in\n    tag_14:\n      mload(0x40)\n      dup1\n      swap2\n      sub\n      swap1\n      return\n        /* \"contracts/03_Math.sol\":239:328  function add(uint a, uint b) public pure returns (uint c) {... */\n    tag_7:\n        /* \"contracts/03_Math.sol\":289:295  uint c */\n      0x00\n        /* \"contracts/03_Math.sol\":319:320  b */\n      dup2\n        /* \"contracts/03_Math.sol\":315:316  a */\n      dup4\n        /* \"contracts/03_Math.sol\":315:320  a + b */\n      tag_17\n      swap2\n      swap1\n      tag_18\n      jump\t// in\n    tag_17:\n        /* \"contracts/03_Math.sol\":308:320  return a + b */\n      swap1\n      pop\n        /* \"contracts/03_Math.sol\":239:328  function add(uint a, uint b) public pure returns (uint c) {... */\n      swap3\n      swap2\n      pop\n      pop\n      jump\t// out\n        /* \"contracts/03_Math.sol\":145:231  function add(int a, int b) public pure returns (int c) {... */\n    tag_13:\n        /* \"contracts/03_Math.sol\":193:198  int c */\n      0x00\n        /* \"contracts/03_Math.sol\":222:223  b */\n      dup2\n        /* \"contracts/03_Math.sol\":218:219  a */\n      dup4\n        /* \"contracts/03_Math.sol\":218:223  a + b */\n      tag_20\n      swap2\n      swap1\n      tag_21\n      jump\t// in\n    tag_20:\n        /* \"contracts/03_Math.sol\":211:223  return a + b */\n      swap1\n      pop\n        /* \"contracts/03_Math.sol\":145:231  function add(int a, int b) public pure returns (int c) {... */\n      swap3\n      swap2\n      pop\n      pop\n      jump\t// out\n        /* \"#utility.yul\":88:205   */\n    tag_23:\n        /* \"#utility.yul\":197:198   */\n      0x00\n        /* \"#utility.yul\":194:195   */\n      dup1\n        /* \"#utility.yul\":187:199   */\n      revert\n        /* \"#utility.yul\":334:411   */\n    tag_25:\n        /* \"#utility.yul\":371:378   */\n      0x00\n        /* \"#utility.yul\":400:405   */\n      dup2\n        /* \"#utility.yul\":389:405   */\n      swap1\n      pop\n        /* \"#utility.yul\":334:411   */\n      swap2\n      swap1\n      pop\n      jump\t// out\n        /* \"#utility.yul\":417:539   */\n    tag_26:\n        /* \"#utility.yul\":490:514   */\n      tag_40\n        /* \"#utility.yul\":508:513   */\n      dup2\n        /* \"#utility.yul\":490:514   */\n      tag_25\n      jump\t// in\n    tag_40:\n        /* \"#utility.yul\":483:488   */\n      dup2\n        /* \"#utility.yul\":480:515   */\n      eq\n        /* \"#utility.yul\":470:533   */\n      tag_41\n      jumpi\n        /* \"#utility.yul\":529:530   */\n      0x00\n        /* \"#utility.yul\":526:527   */\n      dup1\n        /* \"#utility.yul\":519:531   */\n      revert\n        /* \"#utility.yul\":470:533   */\n    tag_41:\n        /* \"#utility.yul\":417:539   */\n      pop\n      jump\t// out\n        /* \"#utility.yul\":545:684   */\n    tag_27:\n        /* \"#utility.yul\":591:596   */\n      0x00\n        /* \"#utility.yul\":629:635   */\n      dup2\n        /* \"#utility.yul\":616:636   */\n      calldataload\n        /* \"#utility.yul\":607:636   */\n      swap1\n      pop\n        /* \"#utility.yul\":645:678   */\n      tag_43\n        /* \"#utility.yul\":672:677   */\n      dup2\n        /* \"#utility.yul\":645:678   */\n      tag_26\n      jump\t// in\n    tag_43:\n        /* \"#utility.yul\":545:684   */\n      swap3\n      swap2\n      pop\n      pop\n      jump\t// out\n        /* \"#utility.yul\":690:1164   */\n    tag_6:\n        /* \"#utility.yul\":758:764   */\n      0x00\n        /* \"#utility.yul\":766:772   */\n      dup1\n        /* \"#utility.yul\":815:817   */\n      0x40\n        /* \"#utility.yul\":803:812   */\n      dup4\n        /* \"#utility.yul\":794:801   */\n      dup6\n        /* \"#utility.yul\":790:813   */\n      sub\n        /* \"#utility.yul\":786:818   */\n      slt\n        /* \"#utility.yul\":783:902   */\n      iszero\n      tag_45\n      jumpi\n        /* \"#utility.yul\":821:900   */\n      tag_46\n      tag_23\n      jump\t// in\n    tag_46:\n        /* \"#utility.yul\":783:902   */\n    tag_45:\n        /* \"#utility.yul\":941:942   */\n      0x00\n        /* \"#utility.yul\":966:1019   */\n      tag_47\n        /* \"#utility.yul\":1011:1018   */\n      dup6\n        /* \"#utility.yul\":1002:1008   */\n      dup3\n        /* \"#utility.yul\":991:1000   */\n      dup7\n        /* \"#utility.yul\":987:1009   */\n      add\n        /* \"#utility.yul\":966:1019   */\n      tag_27\n      jump\t// in\n    tag_47:\n        /* \"#utility.yul\":956:1019   */\n      swap3\n      pop\n        /* \"#utility.yul\":912:1029   */\n      pop\n        /* \"#utility.yul\":1068:1070   */\n      0x20\n        /* \"#utility.yul\":1094:1147   */\n      tag_48\n        /* \"#utility.yul\":1139:1146   */\n      dup6\n        /* \"#utility.yul\":1130:1136   */\n      dup3\n        /* \"#utility.yul\":1119:1128   */\n      dup7\n        /* \"#utility.yul\":1115:1137   */\n      add\n        /* \"#utility.yul\":1094:1147   */\n      tag_27\n      jump\t// in\n    tag_48:\n        /* \"#utility.yul\":1084:1147   */\n      swap2\n      pop\n        /* \"#utility.yul\":1039:1157   */\n      pop\n        /* \"#utility.yul\":690:1164   */\n      swap3\n      pop\n      swap3\n      swap1\n      pop\n      jump\t// out\n        /* \"#utility.yul\":1170:1296   */\n    tag_28:\n        /* \"#utility.yul\":1265:1289   */\n      tag_50\n        /* \"#utility.yul\":1283:1288   */\n      dup2\n        /* \"#utility.yul\":1265:1289   */\n      tag_25\n      jump\t// in\n    tag_50:\n        /* \"#utility.yul\":1260:1263   */\n      dup3\n        /* \"#utility.yul\":1253:1290   */\n      mstore\n        /* \"#utility.yul\":1170:1296   */\n      pop\n      pop\n      jump\t// out\n        /* \"#utility.yul\":1302:1540   */\n    tag_9:\n        /* \"#utility.yul\":1403:1407   */\n      0x00\n        /* \"#utility.yul\":1441:1443   */\n      0x20\n        /* \"#utility.yul\":1430:1439   */\n      dup3\n        /* \"#utility.yul\":1426:1444   */\n      add\n        /* \"#utility.yul\":1418:1444   */\n      swap1\n      pop\n        /* \"#utility.yul\":1454:1533   */\n      tag_52\n        /* \"#utility.yul\":1530:1531   */\n      0x00\n        /* \"#utility.yul\":1519:1528   */\n      dup4\n        /* \"#utility.yul\":1515:1532   */\n      add\n        /* \"#utility.yul\":1506:1512   */\n      dup5\n        /* \"#utility.yul\":1454:1533   */\n      tag_28\n      jump\t// in\n    tag_52:\n        /* \"#utility.yul\":1302:1540   */\n      swap3\n      swap2\n      pop\n      pop\n      jump\t// out\n        /* \"#utility.yul\":1546:1622   */\n    tag_29:\n        /* \"#utility.yul\":1582:1589   */\n      0x00\n        /* \"#utility.yul\":1611:1616   */\n      dup2\n        /* \"#utility.yul\":1600:1616   */\n      swap1\n      pop\n        /* \"#utility.yul\":1546:1622   */\n      swap2\n      swap1\n      pop\n      jump\t// out\n        /* \"#utility.yul\":1628:1748   */\n    tag_30:\n        /* \"#utility.yul\":1700:1723   */\n      tag_55\n        /* \"#utility.yul\":1717:1722   */\n      dup2\n        /* \"#utility.yul\":1700:1723   */\n      tag_29\n      jump\t// in\n    tag_55:\n        /* \"#utility.yul\":1693:1698   */\n      dup2\n        /* \"#utility.yul\":1690:1724   */\n      eq\n        /* \"#utility.yul\":1680:1742   */\n      tag_56\n      jumpi\n        /* \"#utility.yul\":1738:1739   */\n      0x00\n        /* \"#utility.yul\":1735:1736   */\n      dup1\n        /* \"#utility.yul\":1728:1740   */\n      revert\n        /* \"#utility.yul\":1680:1742   */\n    tag_56:\n        /* \"#utility.yul\":1628:1748   */\n      pop\n      jump\t// out\n        /* \"#utility.yul\":1754:1891   */\n    tag_31:\n        /* \"#utility.yul\":1799:1804   */\n      0x00\n        /* \"#utility.yul\":1837:1843   */\n      dup2\n        /* \"#utility.yul\":1824:1844   */\n      calldataload\n        /* \"#utility.yul\":1815:1844   */\n      swap1\n      pop\n        /* \"#utility.yul\":1853:1885   */\n      tag_58\n        /* \"#utility.yul\":1879:1884   */\n      dup2\n        /* \"#utility.yul\":1853:1885   */\n      tag_30\n      jump\t// in\n    tag_58:\n        /* \"#utility.yul\":1754:1891   */\n      swap3\n      swap2\n      pop\n      pop\n      jump\t// out\n        /* \"#utility.yul\":1897:2367   */\n    tag_12:\n        /* \"#utility.yul\":1963:1969   */\n      0x00\n        /* \"#utility.yul\":1971:1977   */\n      dup1\n        /* \"#utility.yul\":2020:2022   */\n      0x40\n        /* \"#utility.yul\":2008:2017   */\n      dup4\n        /* \"#utility.yul\":1999:2006   */\n      dup6\n        /* \"#utility.yul\":1995:2018   */\n      sub\n        /* \"#utility.yul\":1991:2023   */\n      slt\n        /* \"#utility.yul\":1988:2107   */\n      iszero\n      tag_60\n      jumpi\n        /* \"#utility.yul\":2026:2105   */\n      tag_61\n      tag_23\n      jump\t// in\n    tag_61:\n        /* \"#utility.yul\":1988:2107   */\n    tag_60:\n        /* \"#utility.yul\":2146:2147   */\n      0x00\n        /* \"#utility.yul\":2171:2223   */\n      tag_62\n        /* \"#utility.yul\":2215:2222   */\n      dup6\n        /* \"#utility.yul\":2206:2212   */\n      dup3\n        /* \"#utility.yul\":2195:2204   */\n      dup7\n        /* \"#utility.yul\":2191:2213   */\n      add\n        /* \"#utility.yul\":2171:2223   */\n      tag_31\n      jump\t// in\n    tag_62:\n        /* \"#utility.yul\":2161:2223   */\n      swap3\n      pop\n        /* \"#utility.yul\":2117:2233   */\n      pop\n        /* \"#utility.yul\":2272:2274   */\n      0x20\n        /* \"#utility.yul\":2298:2350   */\n      tag_63\n        /* \"#utility.yul\":2342:2349   */\n      dup6\n        /* \"#utility.yul\":2333:2339   */\n      dup3\n        /* \"#utility.yul\":2322:2331   */\n      dup7\n        /* \"#utility.yul\":2318:2340   */\n      add\n        /* \"#utility.yul\":2298:2350   */\n      tag_31\n      jump\t// in\n    tag_63:\n        /* \"#utility.yul\":2288:2350   */\n      swap2\n      pop\n        /* \"#utility.yul\":2243:2360   */\n      pop\n        /* \"#utility.yul\":1897:2367   */\n      swap3\n      pop\n      swap3\n      swap1\n      pop\n      jump\t// out\n        /* \"#utility.yul\":2373:2496   */\n    tag_32:\n        /* \"#utility.yul\":2466:2489   */\n      tag_65\n        /* \"#utility.yul\":2483:2488   */\n      dup2\n        /* \"#utility.yul\":2466:2489   */\n      tag_29\n      jump\t// in\n    tag_65:\n        /* \"#utility.yul\":2461:2464   */\n      dup3\n        /* \"#utility.yul\":2454:2490   */\n      mstore\n        /* \"#utility.yul\":2373:2496   */\n      pop\n      pop\n      jump\t// out\n        /* \"#utility.yul\":2502:2736   */\n    tag_15:\n        /* \"#utility.yul\":2601:2605   */\n      0x00\n        /* \"#utility.yul\":2639:2641   */\n      0x20\n        /* \"#utility.yul\":2628:2637   */\n      dup3\n        /* \"#utility.yul\":2624:2642   */\n      add\n        /* \"#utility.yul\":2616:2642   */\n      swap1\n      pop\n        /* \"#utility.yul\":2652:2729   */\n      tag_67\n        /* \"#utility.yul\":2726:2727   */\n      0x00\n        /* \"#utility.yul\":2715:2724   */\n      dup4\n        /* \"#utility.yul\":2711:2728   */\n      add\n        /* \"#utility.yul\":2702:2708   */\n      dup5\n        /* \"#utility.yul\":2652:2729   */\n      tag_32\n      jump\t// in\n    tag_67:\n        /* \"#utility.yul\":2502:2736   */\n      swap3\n      swap2\n      pop\n      pop\n      jump\t// out\n        /* \"#utility.yul\":2742:2922   */\n    tag_33:\n        /* \"#utility.yul\":2790:2867   */\n      0x4e487b7100000000000000000000000000000000000000000000000000000000\n        /* \"#utility.yul\":2787:2788   */\n      0x00\n        /* \"#utility.yul\":2780:2868   */\n      mstore\n        /* \"#utility.yul\":2887:2891   */\n      0x11\n        /* \"#utility.yul\":2884:2885   */\n      0x04\n        /* \"#utility.yul\":2877:2892   */\n      mstore\n        /* \"#utility.yul\":2911:2915   */\n      0x24\n        /* \"#utility.yul\":2908:2909   */\n      0x00\n        /* \"#utility.yul\":2901:2916   */\n      revert\n        /* \"#utility.yul\":2928:3119   */\n    tag_18:\n        /* \"#utility.yul\":2968:2971   */\n      0x00\n        /* \"#utility.yul\":2987:3007   */\n      tag_70\n        /* \"#utility.yul\":3005:3006   */\n      dup3\n        /* \"#utility.yul\":2987:3007   */\n      tag_25\n      jump\t// in\n    tag_70:\n        /* \"#utility.yul\":2982:3007   */\n      swap2\n      pop\n        /* \"#utility.yul\":3021:3041   */\n      tag_71\n        /* \"#utility.yul\":3039:3040   */\n      dup4\n        /* \"#utility.yul\":3021:3041   */\n      tag_25\n      jump\t// in\n    tag_71:\n        /* \"#utility.yul\":3016:3041   */\n      swap3\n      pop\n        /* \"#utility.yul\":3064:3065   */\n      dup3\n        /* \"#utility.yul\":3061:3062   */\n      dup3\n        /* \"#utility.yul\":3057:3066   */\n      add\n        /* \"#utility.yul\":3050:3066   */\n      swap1\n      pop\n        /* \"#utility.yul\":3085:3088   */\n      dup1\n        /* \"#utility.yul\":3082:3083   */\n      dup3\n        /* \"#utility.yul\":3079:3089   */\n      gt\n        /* \"#utility.yul\":3076:3112   */\n      iszero\n      tag_72\n      jumpi\n        /* \"#utility.yul\":3092:3110   */\n      tag_73\n      tag_33\n      jump\t// in\n    tag_73:\n        /* \"#utility.yul\":3076:3112   */\n    tag_72:\n        /* \"#utility.yul\":2928:3119   */\n      swap3\n      swap2\n      pop\n      pop\n      jump\t// out\n        /* \"#utility.yul\":3125:3500   */\n    tag_21:\n        /* \"#utility.yul\":3164:3167   */\n      0x00\n        /* \"#utility.yul\":3183:3202   */\n      tag_75\n        /* \"#utility.yul\":3200:3201   */\n      dup3\n        /* \"#utility.yul\":3183:3202   */\n      tag_29\n      jump\t// in\n    tag_75:\n        /* \"#utility.yul\":3178:3202   */\n      swap2\n      pop\n        /* \"#utility.yul\":3216:3235   */\n      tag_76\n        /* \"#utility.yul\":3233:3234   */\n      dup4\n        /* \"#utility.yul\":3216:3235   */\n      tag_29\n      jump\t// in\n    tag_76:\n        /* \"#utility.yul\":3211:3235   */\n      swap3\n      pop\n        /* \"#utility.yul\":3258:3259   */\n      dup3\n        /* \"#utility.yul\":3255:3256   */\n      dup3\n        /* \"#utility.yul\":3251:3260   */\n      add\n        /* \"#utility.yul\":3244:3260   */\n      swap1\n      pop\n        /* \"#utility.yul\":3456:3457   */\n      dup3\n        /* \"#utility.yul\":3451:3454   */\n      dup2\n        /* \"#utility.yul\":3447:3458   */\n      slt\n        /* \"#utility.yul\":3440:3459   */\n      iszero\n        /* \"#utility.yul\":3436:3437   */\n      0x00\n        /* \"#utility.yul\":3433:3434   */\n      dup4\n        /* \"#utility.yul\":3429:3438   */\n      slt\n        /* \"#utility.yul\":3425:3460   */\n      and\n        /* \"#utility.yul\":3408:3409   */\n      dup4\n        /* \"#utility.yul\":3403:3406   */\n      dup3\n        /* \"#utility.yul\":3399:3410   */\n      slt\n        /* \"#utility.yul\":3394:3395   */\n      0x00\n        /* \"#utility.yul\":3391:3392   */\n      dup5\n        /* \"#utility.yul\":3387:3396   */\n      slt\n        /* \"#utility.yul\":3380:3397   */\n      iszero\n        /* \"#utility.yul\":3376:3411   */\n      and\n        /* \"#utility.yul\":3360:3470   */\n      or\n        /* \"#utility.yul\":3357:3493   */\n      iszero\n      tag_77\n      jumpi\n        /* \"#utility.yul\":3473:3491   */\n      tag_78\n      tag_33\n      jump\t// in\n    tag_78:\n        /* \"#utility.yul\":3357:3493   */\n    tag_77:\n        /* \"#utility.yul\":3125:3500   */\n      swap3\n      swap2\n      pop\n      pop\n      jump\t// out\n\n    auxdata: 0xa26469706673582212207cc4654f6a297fa1c5aa6f4907ae91b0b6161cea4860973a7d8499948edda88064736f6c63430008130033\n}\n",
				"bytecode": {
					"linkReferences": {},
					"object": "6102f3610053600b82828239805160001a607314610046577f4e487b7100000000000000000000000000000000000000000000000000000000600052600060045260246000fd5b30600052607381538281f3fe73000000000000000000000000000000000000000030146080604052600436106100405760003560e01c8063771602f714610045578063a5f3c23b14610075575b600080fd5b61005f600480360381019061005a919061010c565b6100a5565b60405161006c919061015b565b60405180910390f35b61008f600480360381019061008a91906101ac565b6100bb565b60405161009c91906101fb565b60405180910390f35b600081836100b39190610245565b905092915050565b600081836100c99190610279565b905092915050565b600080fd5b6000819050919050565b6100e9816100d6565b81146100f457600080fd5b50565b600081359050610106816100e0565b92915050565b60008060408385031215610123576101226100d1565b5b6000610131858286016100f7565b9250506020610142858286016100f7565b9150509250929050565b610155816100d6565b82525050565b6000602082019050610170600083018461014c565b92915050565b6000819050919050565b61018981610176565b811461019457600080fd5b50565b6000813590506101a681610180565b92915050565b600080604083850312156101c3576101c26100d1565b5b60006101d185828601610197565b92505060206101e285828601610197565b9150509250929050565b6101f581610176565b82525050565b600060208201905061021060008301846101ec565b92915050565b7f4e487b7100000000000000000000000000000000000000000000000000000000600052601160045260246000fd5b6000610250826100d6565b915061025b836100d6565b925082820190508082111561027357610272610216565b5b92915050565b600061028482610176565b915061028f83610176565b9250828201905082811215600083121683821260008412151617156102b7576102b6610216565b5b9291505056fea26469706673582212207cc4654f6a297fa1c5aa6f4907ae91b0b6161cea4860973a7d8499948edda88064736f6c63430008130033",
					"opcodes": "PUSH2 0x2F3 PUSH2 0x53 PUSH1 0xB DUP3 DUP3 DUP3 CODECOPY DUP1 MLOAD PUSH1 0x0 BYTE PUSH1 0x73 EQ PUSH2 0x46 JUMPI PUSH32 0x4E487B7100000000000000000000000000000000000000000000000000000000 PUSH1 0x0 MSTORE PUSH1 0x0 PUSH1 0x4 MSTORE PUSH1 0x24 PUSH1 0x0 REVERT JUMPDEST ADDRESS PUSH1 0x0 MSTORE PUSH1 0x73 DUP2 MSTORE8 DUP3 DUP2 RETURN INVALID PUSH20 0x0 ADDRESS EQ PUSH1 0x80 PUSH1 0x40 MSTORE PUSH1 0x4 CALLDATASIZE LT PUSH2 0x40 JUMPI PUSH1 0x0 CALLDATALOAD PUSH1 0xE0 SHR DUP1 PUSH4 0x771602F7 EQ PUSH2 0x45 JUMPI DUP1 PUSH4 0xA5F3C23B EQ PUSH2 0x75 JUMPI JUMPDEST PUSH1 0x0 DUP1 REVERT JUMPDEST PUSH2 0x5F PUSH1 0x4 DUP1 CALLDATASIZE SUB DUP2 ADD SWAP1 PUSH2 0x5A SWAP2 SWAP1 PUSH2 0x10C JUMP JUMPDEST PUSH2 0xA5 JUMP JUMPDEST PUSH1 0x40 MLOAD PUSH2 0x6C SWAP2 SWAP1 PUSH2 0x15B JUMP JUMPDEST PUSH1 0x40 MLOAD DUP1 SWAP2 SUB SWAP1 RETURN JUMPDEST PUSH2 0x8F PUSH1 0x4 DUP1 CALLDATASIZE SUB DUP2 ADD SWAP1 PUSH2 0x8A SWAP2 SWAP1 PUSH2 0x1AC JUMP JUMPDEST PUSH2 0xBB JUMP JUMPDEST PUSH1 0x40 MLOAD PUSH2 0x9C SWAP2 SWAP1 PUSH2 0x1FB JUMP JUMPDEST PUSH1 0x40 MLOAD DUP1 SWAP2 SUB SWAP1 RETURN JUMPDEST PUSH1 0x0 DUP2 DUP4 PUSH2 0xB3 SWAP2 SWAP1 PUSH2 0x245 JUMP JUMPDEST SWAP1 POP SWAP3 SWAP2 POP POP JUMP JUMPDEST PUSH1 0x0 DUP2 DUP4 PUSH2 0xC9 SWAP2 SWAP1 PUSH2 0x279 JUMP JUMPDEST SWAP1 POP SWAP3 SWAP2 POP POP JUMP JUMPDEST PUSH1 0x0 DUP1 REVERT JUMPDEST PUSH1 0x0 DUP2 SWAP1 POP SWAP2 SWAP1 POP JUMP JUMPDEST PUSH2 0xE9 DUP2 PUSH2 0xD6 JUMP JUMPDEST DUP2 EQ PUSH2 0xF4 JUMPI PUSH1 0x0 DUP1 REVERT JUMPDEST POP JUMP JUMPDEST PUSH1 0x0 DUP2 CALLDATALOAD SWAP1 POP PUSH2 0x106 DUP2 PUSH2 0xE0 JUMP JUMPDEST SWAP3 SWAP2 POP POP JUMP JUMPDEST PUSH1 0x0 DUP1 PUSH1 0x40 DUP4 DUP6 SUB SLT ISZERO PUSH2 0x123 JUMPI PUSH2 0x122 PUSH2 0xD1 JUMP JUMPDEST JUMPDEST PUSH1 0x0 PUSH2 0x131 DUP6 DUP3 DUP7 ADD PUSH2 0xF7 JUMP JUMPDEST SWAP3 POP POP PUSH1 0x20 PUSH2 0x142 DUP6 DUP3 DUP7 ADD PUSH2 0xF7 JUMP JUMPDEST SWAP2 POP POP SWAP3 POP SWAP3 SWAP1 POP JUMP JUMPDEST PUSH2 0x155 DUP2 PUSH2 0xD6 JUMP JUMPDEST DUP3 MSTORE POP POP JUMP JUMPDEST PUSH1 0x0 PUSH1 0x20 DUP3 ADD SWAP1 POP PUSH2 0x170 PUSH1 0x0 DUP4 ADD DUP5 PUSH2 0x14C JUMP JUMPDEST SWAP3 SWAP2 POP POP JUMP JUMPDEST PUSH1 0x0 DUP2 SWAP1 POP SWAP2 SWAP1 POP JUMP JUMPDEST PUSH2 0x189 DUP2 PUSH2 0x176 JUMP JUMPDEST DUP2 EQ PUSH2 0x194 JUMPI PUSH1 0x0 DUP1 REVERT JUMPDEST POP JUMP JUMPDEST PUSH1 0x0 DUP2 CALLDATALOAD SWAP1 POP PUSH2 0x1A6 DUP2 PUSH2 0x180 JUMP JUMPDEST SWAP3 SWAP2 POP POP JUMP JUMPDEST PUSH1 0x0 DUP1 PUSH1 0x40 DUP4 DUP6 SUB SLT ISZERO PUSH2 0x1C3 JUMPI PUSH2 0x1C2 PUSH2 0xD1 JUMP JUMPDEST JUMPDEST PUSH1 0x0 PUSH2 0x1D1 DUP6 DUP3 DUP7 ADD PUSH2 0x197 JUMP JUMPDEST SWAP3 POP POP PUSH1 0x20 PUSH2 0x1E2 DUP6 DUP3 DUP7 ADD PUSH2 0x197 JUMP JUMPDEST SWAP2 POP POP SWAP3 POP SWAP3 SWAP1 POP JUMP JUMPDEST PUSH2 0x1F5 DUP2 PUSH2 0x176 JUMP JUMPDEST DUP3 MSTORE POP POP JUMP JUMPDEST PUSH1 0x0 PUSH1 0x20 DUP3 ADD SWAP1 POP PUSH2 0x210 PUSH1 0x0 DUP4 ADD DUP5 PUSH2 0x1EC JUMP JUMPDEST SWAP3 SWAP2 POP POP JUMP JUMPDEST PUSH32 0x4E487B7100000000000000000000000000000000000000000000000000000000 PUSH1 0x0 MSTORE PUSH1 0x11 PUSH1 0x4 MSTORE PUSH1 0x24 PUSH1 0x0 REVERT JUMPDEST PUSH1 0x0 PUSH2 0x250 DUP3 PUSH2 0xD6 JUMP JUMPDEST SWAP2 POP PUSH2 0x25B DUP4 PUSH2 0xD6 JUMP JUMPDEST SWAP3 POP DUP3 DUP3 ADD SWAP1 POP DUP1 DUP3 GT ISZERO PUSH2 0x273 JUMPI PUSH2 0x272 PUSH2 0x216 JUMP JUMPDEST JUMPDEST SWAP3 SWAP2 POP POP JUMP JUMPDEST PUSH1 0x0 PUSH2 0x284 DUP3 PUSH2 0x176 JUMP JUMPDEST SWAP2 POP PUSH2 0x28F DUP4 PUSH2 0x176 JUMP JUMPDEST SWAP3 POP DUP3 DUP3 ADD SWAP1 POP DUP3 DUP2 SLT ISZERO PUSH1 0x0 DUP4 SLT AND DUP4 DUP3 SLT PUSH1 0x0 DUP5 SLT ISZERO AND OR ISZERO PUSH2 0x2B7 JUMPI PUSH2 0x2B6 PUSH2 0x216 JUMP JUMPDEST JUMPDEST SWAP3 SWAP2 POP POP JUMP INVALID LOG2 PUSH5 0x6970667358 0x22 SLT KECCAK256 PUSH29 0xC4654F6A297FA1C5AA6F4907AE91B0B6161CEA4860973A7D8499948EDD 0xA8 DUP1 PUSH5 0x736F6C6343 STOP ADDMOD SGT STOP CALLER "
				},
				"gasEstimates": {
					"creation": {
						"codeDepositCost": "151000",
						"executionCost": "221",
						"totalCost": "151221"
					},
					"external": {
						"add(int256,int256)": "infinite",
						"add(uint256,uint256)": "infinite"
					}
				},
				"methodIdentifiers": {
					"add(int256,int256)": "a5f3c23b",
					"add(uint256,uint256)": "771602f7"
				}
			},
			"storageLayout": {
				"storage": [],
				"types": null
			},
			"userdoc": {
				"kind": "user",
				"methods": {},
				"version": 1
			}
		}
	}
}